:06000000020066026CF430
:03000B00026CFC88
:03001300026D1566
:03001B00026D1D56
:03002B00026D253E
:03003B00026D60F3
:03004300026D82C9
:03004B00026E3012
:03005300026EAB8F
:10006300026ED475D00075819F75189175190102C0
:1000730077D812009CB9000302009CE47921780A26
:10008300B800028004F709D8FCE490019178FE7966
:0C009300028002F0A3D8FCD9FA79012207
:10040000FFFFFFFFE066701008A3E066700A08A314
:10041000E066700408A3E06622E493667013087433
:10042000019366700C087402936670050874039358
:100430006622C3E7960809E7960809E7960809E7E0
:1004400096A2D265D03322C3E7960809E796080939
:10045000E7960809E79622C3E09608A3E09608A36A
:10046000E09608A3E09622080808EAC0E0EBC0E0A6
:1004700086F0E7A4FA180986F0E7A42AFA18098694
:10048000F0E7A42AFA180986F0E7A42AFA1986F0F8
:10049000E7A4FBE5F02AFA190886F0E7A42BFBE5B0
:1004A000F03AFA190886F0E7A42BFBE5F03AFA18BF
:1004B000180986F0E7A4C5F02BFBE43AFA1908E71F
:1004C000C5F0C6A426F6E5F03BFBE43AFA1886F040
:1004D000E7A4F6E5F00826F6E43B08F6E43A08F669
:1004E000D0E0FBD0E0FA22E4CFC0E0E4CEC0E0E40C
:1004F000CDC0E0E4CCC0E075F020C3E633F608E6FA
:1005000033F608E633F608E633F6181818EC33FC31
:10051000ED33FDEE33FEEF33FFC3EC9709ED9709A2
:10052000EE9709EF97191919400FFFEC97FC09EDA9
:1005300097FD09EE97FE191906D5F0BEECF709ED07
:10054000F709EEF709EFF7191919D0E0FCD0E0FD33
:10055000D0E0FED0E0FF221205BF1818181204E701
:100560001205AE191919221205AE19191908080831
:10057000E618181820E7E01204E71205BF1818184B
:1005800022090909E719191920E7DC080808E61803
:10059000181820E7030204E71205BF181818120400
:1005A000E71205BF1818181205AE19191922E4C36D
:1005B00097F709E497F709E497F709E497F722E436
:1005C000C396F608E496F608E496F608E496F62252
:1005D000C6F4C608C6F4C608C6F4C608C6F4C622E1
:1005E0006016080808C6C313C618C613C618C61373
:1005F000C618C613C6D5E0EA2270090808082260AA
:1006000016181818C6C333C608C633C608C633C67C
:1006100008C633C6D5E0EA22E627F60809E637F62B
:100620000809E637F60809E637F622E026F608A3B9
:10063000E036F608A3E036F608A3E036F622E493A7
:1006400026F60874019336F60874029336F6087499
:10065000039336F622E026F008A3E036F008A3E084
:1006600036F008A3E036F022C3E697F60809E697CD
:10067000F60809E697F60809E697F622C3E0C6965B
:10068000F608A3E0C696F608A3E0C696F608A3E02F
:10069000C696F622C3E096F008A3E096F008A3E021
:1006A00096F008A3E096F022E056F608A3E056F68E
:1006B00008A3E056F608A3E056F622E49356F6089F
:1006C00074019356F60874029356F6087403935611
:1006D000F622E056F008A3E056F008A3E056F00832
:1006E000A3E056F022E046F008A3E046F008A3E0BD
:1006F00046F008A3E046F022E0F608A3E0F608A3DF
:10070000E0F608A3E0F622E493F608740193F608F5
:10071000740293F608740393F622E6F008A3E6F059
:1007200008A3E6F008A3E6F022CAC0E0E6F0A308BA
:10073000DAFAD0E0FA22CAC0E0E0A3C582CCC582D2
:10074000C583CDC583F0A3C582CCC582C583CDC585
:1007500083DAE6D0E0CA22CAC0E0E493A3C582CC23
:10076000C582C583CDC583F0A3C582CCC582C583B0
:10077000CDC583DAE5D0E0CA22B90010BB0008E895
:100780008AF084F8AAF022E4FBC8FA22EB70227BFC
:1007900010C833C8C933C9335007C39AC3DBF280CA
:1007A000069A50012ADBEAC833F4C8C933F4C9FAFF
:1007B0002275F008E4C833C8C933C933C99AC99B44
:1007C0005004C92AC93BD5F0ECFBC833F4C8E4C9CE
:1007D000FA22600D08C6A2E713C618C613C6D5E0F4
:1007E000F322600C08C6C313C618C613C6D5E0F4BE
:1007F00022700422600D18C6C333C608C633C6D59E
:10080000E0F41822251810AF08F5184002151980D9
:1008100008F51840021519D2AF22C0D0251810AF24
:1008200008F518500205198008F51850020519D26C
:10083000AFD0D0222518F58210AF08F51840021568
:10084000198008F51840021519D2AF8519832225A1
:1008500018F582E43519F58322E4732518C582C0A2
:10086000E0E51934FFC583C0E0E518C3958224F99B
:10087000F8E4C5A8858319858218C5A8E8CEF0A339
:10088000E520F0A37808E608F0A3DEFAEFF0A3E590
:100890008124FBF8E608F0A3E608F0A30808E608C0
:1008A000F0A3E608F0A315811581D0E0FED0E0F8B2
:1008B00015811581E8C0E0EEC0E022851983851816
:1008C00082E0A3FEE0A3F5207808E0A3F608DFFAB3
:1008D000E0A3FFE0A3C0E0E0A3C0E0E0A3C0E0E04D
:1008E000A3C0E0E4C5A8858218858319C5A8D08374
:1008F000D082227404800474028000C0E0F40412E8
:100900000834D0E0120729227404800474028000A5
:10091000CCC0E0EDC0E0E518C39CCCAD1950011D82
:1009200010AF068C188D1980068C188D19D2AF1255
:100930000736D0E0FDD0E0FC2274048000CCC0E09B
:10094000EDC0E0E518C39CCCAD1950011D10AF06F9
:100950008C188D1980068C188D19D2AF120757D0BC
:10096000E0FDD0E0FC22D083D082C5F0E493A3C5A3
:10097000F0C395F0F5F0E493A3C395F04005E5F0DE
:10098000048001E475F002A42582F582E5F0358348
:10099000F583E493A3C0E0E493C0E022D083D08247
:1009A000CCC0E0E493A360061209C61470FAE49385
:1009B000A360061209E51470FAD0E0FCE493A3C02A
:1009C000E0E493C0E022C0E0E493A3D39C5010E4A1
:1009D00093A3C39C400AD0E0D0E0D0E00209B9A3C1
:1009E000A3A3D0E022C0E0E493A36C7009D0E0D0D0
:1009F000E0D0E00209B9A3A3D0E022D083D082ECFA
:100A0000C0E0EDC0E0E493A3FCE493A3FDED4C60F3
:100A10000D120A47EC24FFFCED34FFFD80EFE49358
:100A2000A3FCE493A3FDED4C600D120A86EC24FFB9
:100A3000FCED34FFFD80EFD0E0FDD0E0FCE493A3BB
:100A4000C0E0E493C0E022C0E0C3E49396087401E0
:100A5000939618400FE49366700808740193661823
:100A600070007019A3A3C3E49396087401939618B9
:100A7000A3A3400DD0E0D0E0D0E0020A37A3A3A3A7
:100A8000A3A3A3D0E022C0E0C0F088F0E493667096
:100A9000080874019366187000A8F0A3A3700BD027
:100AA000F0D0E0D0E0D0E0020A37A3A3D0F0D0E04D
:100AB0002200010203040506070809AAAAAAAAAA95
:100AC000AA0A0B0C0D0E0F10111213AAAAAAAAAA99
:100AD000AA1415161718191A1B1C1DAAAAAAAAAA25
:100AE000AA1E1F2021222324252627AAAAAAAAAAB1
:100AF000AA28292A2B2C2D2E2F3031AAAAAAAAAA3D
:100B0000AA32333435363738393A3BAAAAAAAAAAC8
:100B1000AA3C3D3E3F404142434445AAAAAAAAAA54
:100B2000AA464748494A4B4C4D4E4FAAAAAAAAAAE0
:100B3000AA50515253545556575859AAAAAAAAAA6C
:100B4000AA5A5B5C5D5E5F60616263000102030440
:100B50000506070809101112131415161718192085
:100B600021222324252627282930313233343536D3
:100B7000373839404142434445464748495051522D
:100B80005354555657585960616263646566676887
:100B900069707172737475767778798081828384D5
:100BA00085868788899091929394959697989900D5
:100BB000002110422063308440A550C660E77008D1
:100BC0008129914AA16BB18CC1ADD1CEE1EFF13158
:100BD00012100273325222B5529442F772D6623921
:100BE0009318837BB35AA3BDD39CC3FFF3DEE362A8
:100BF00024433420040114E664C774A44485546A71
:100C0000A54BB528850995EEE5CFF5ACC58DD55337
:100C100036722611163006D776F6669556B4465BC0
:100C2000B77AA719973887DFF7FEE79DD7BCC7C407
:100C300048E5588668A7784008611802282338CC10
:100C4000C9EDD98EE9AFF9488969990AA92BB9F597
:100C50005AD44AB77A966A711A500A333A122AFD60
:100C6000DBDCCBBFFB9EEB799B588B3BBB1AABA667
:100C70006C877CE44CC55C222C033C600C411CAEB0
:100C8000ED8FFDECCDCDDD2AAD0BBD688D499D9777
:100C90007EB66ED55EF44E133E322E511E700E9F00
:100CA000FFBEEFDDDFFCCF1BBF3AAF599F788F88C7
:100CB00091A981CAB1EBA10CD12DC14EF16FE18098
:100CC00010A100C230E3200450254046706760B98F
:100CD000839893FBA3DAB33DC31CD37FE35EF3B1E8
:100CE000029012F322D2323542145277625672EADF
:100CF000B5CBA5A89589856EF54FE52CD50DC5E238
:100D000034C324A01481046674476424540544DB6E
:100D1000A7FAB79987B8975FE77EF71DC73CD7D387
:100D200026F2369106B01657667676154634564C3E
:100D3000D96DC90EF92FE9C899E9898AB9ABA944D7
:100D400058654806782768C018E1088238A3287DCE
:100D5000CB5CDB3FEB1EFBF98BD89BBBAB9ABB7527
:100D60004A545A376A167AF10AD01AB32A923A2E9E
:100D7000FD0FED6CDD4DCDAABD8BADE89DC98D2677
:100D80007C076C645C454CA23C832CE01CC10C1FAE
:100D9000EF3EFF5DCF7CDF9BAFBABFD98FF89F17C7
:100DA0006E367E554E745E932EB23ED10EF01E000E
:100DB000000000001F0AFA00E1F50500B4C40400B9
:100DC00000008000127A0000350C008038010064B9
:100DD000000000C782552255A2ABA2D5A2EBA29E6D
:100DE000299E299E299E299E299E299E299E299ECB
:100DF000299E299E299E299E299E29A1299E29B79F
:100E00002A9E299E299E299E299E299E299E290047
:100E10000001024002000010000000000001010279
:100E20004002000010000000000000020240030029
:100E30000010000002000001020240030000100048
:100E40000002000000030240030000100000050043
:100E500000010302400300001000000500000A002A
:100E60004F0008000012000000000000014F004485
:100E700000000E00000000020F0E064F5D0E020281
:100E8000D81000000102D81000000106D91000009F
:100E90000103D91000000109DA1000000103D61087
:100EA00000000103D6100000010CFD10000001023B
:100EB0000200002020000000005500FE00AA00FEF5
:100EC0000000524F0100524F00FF5520010000204A
:100ED000030000200400002006000020070000207E
:100EE000000010F4000010F5000010DD0000287C68
:100EF000000010E2FFFF00FFFFFF000020000040A5
:100F00002000402000096000FFFFFF0F600100008B
:100F1000400100007D010000B80B0301D007020171
:100F2000E80301010019400A800C200A4006100A5B
:100F3000B0040C0A2003080A0000000000000000B2
:100F400000000000000000000000000000000000A1
:100F50000000000000000000C00000005E00000073
:100F600080000000200100001800000001000000C7
:100F70000002000057130000BA130000881300009D
:100F8000941100007D1500007C15000000FFFFFF9C
:100F9000012000006F000000E8030000C30B000008
:100FA000D00700000A000000F055000010270000E4
:100FB0009808000000008000FFFF7FFF0000000095
:100FC0000000000000303030303030303030303011
:100FD00030303030300001999999994006F0551021
:100FE000270045A4665BBA4A21000000000000000B
:100FF00000000000000000000000000000000000F1
:101000000000000000000101A61000001E3D0000CD
:10101000A5160000A51600000F00001823051203F6
:10102000BD0F00001E19106000070405060708091F
:101030000A0BFA0ABC9E4ED6F68AFEDEEE76F03E2B
:10104000F4E4000000AA11D31F137B1F0101210249
:1010500099211E55261F0D254866A4676668E96A12
:10106000FFFFFFFF01423003710157AA0201523115
:10107000022F3F210D0A2F3FAAAAAAAAAAAAAAAA0A
:10108000210D0A2F5A594232063032AA0D0A015058
:101090003002282903600150AA0228AAAAAAAAAAF3
:1010A000AAAAAA29036B1172110E006003741172AF
:1010B00011040460037C1172110405600384117231
:1010C00011040660038C1172110801600292117202
:1010D00011080060029811721108032003A0117218
:1010E0001109002000A611721109002000AE117232
:1010F0001109022000B611721109002001BF1172FE
:101100001109102001C811721109202001D111729A
:101110001109302001DA11721109402001E3117226
:101120001109502001EC11721109602001F51172B2
:101130001100004004FC11721108014003041272F6
:101140001108024003426137621B63416449650034
:1011500000400708000008100000080700400118C0
:101160000040021A0040021C00400239362E312E87
:101170003000290039362E39372E310039362E39D4
:10118000372E320039362E39372E3300302E392E95
:101190003100302E392E320039372E39372E3000BB
:1011A000312E382E3000312E382E302A3000322E9B
:1011B000382E302A3000312E382E302A3236003187
:1011C0002E382E302A323500312E382E302A323445
:1011D00000312E382E302A323300312E382E302A6C
:1011E000323200312E382E302A323100312E382E54
:1011F000302A32300046462E302E300039362E3915
:10120000362E310039362E39362E3200005900592B
:1012100000230131011200990006000602030601B5
:101220000406020500030560000000000100000143
:101230000000000200000004000000080000001090
:1012400000000020000000400000008000000000BE
:10125000010000000200000004000000080000007F
:10126000100000002000000040000000800000008E
:10127000000100000002000000040000000800005F
:10128000001000000020000000400000008000006E
:10129000000001000000020000000400000008003F
:1012A000000010000000200000004000000080E965
:1012B0001960167B0080080AEAC3941440F90BEB0E
:1012C000C3942050EA7A0080EF2274F812085BEA97
:1012D0008C828D83F0EBA3F07F010208BBC082C03B
:1012E000838A828B83A3E0F98A828B83E02400FACD
:1012F000E439FBD083D0822274F512085B74FC12AF
:1013000008048A828B83E0851882851983F08A829B
:101310008B83A3AA82AB83E0C0E0740112084FD094
:10132000E0F08A828B83A30AAB83E0C0E0740212F0
:10133000084FD0E0F08A828B83A3E0C0E0740312F0
:10134000084FD0E0F085188285198378081206F8D6
:10135000AA08AB09AC0AAD0B740412081A7F040288
:1013600008BB74F812085B7F00C3EA9410EB942763
:1013700040077AFF7BFF021424C3EA9440EB941FDA
:10138000400A7F80EA24C0FAEB34E0FBC3EA94A071
:10139000EB940F400C74404FFFEA2460FAEB34F0FA
:1013A000FBC3EA94D0EB9407400C74204FFFEA246F
:1013B00030FAEB34F8FBC3EA94E8EB9403400C7486
:1013C000104FFFEA2418FAEB34FCFBC3EA9420EB3D
:1013D0009403400C74084FFFEA24E0FAEB34FCFB62
:1013E000C3EA9490EB9401400C74044FFFEA24701C
:1013F000FAEB34FEFBC3EA94C8EB9400400C740291
:101400004FFFEA2438FAEB34FFFBC3EA9464EB9411
:1014100000400874014FFFEA249CFAEAF91215F61D
:10142000E9FAEFFB7F010208BB74F112085B74F864
:10143000120804851882851983EAF0A3EBF0A3EC67
:10144000F0A3EDF0900DAF780812070774041208AE
:101450004F780812071A8013900DB3780812070707
:101460008518828519837808120655851882851992
:1014700083C082C083900DB77808120707D083D04D
:1014800082780812045750D0900DBB7808120707D5
:10149000900DBF780C1207077A0080087401780855
:1014A0001205E00AEAC3941085188285198378082A
:1014B00050461204574015740412084F780C120657
:1014C000E585188285198378081206947401780CD2
:1014D0001205E0EA12099C000303E41407EE140B62
:1014E000F3149C14900DC3780812070780B5900D73
:1014F000C780F4900DCB80EF1206F8AA08AB091252
:1015000013628A088B09750A00750B0074041208AF
:101510004F78081206E5740412084F78081206F88E
:10152000AA08AB09AC0AAD0B740812081A7F0802AE
:1015300008BB74F112085B74FA12080474021208F2
:101540004FEAF0A3EBF0A3ECF0A3EDF0900DAF7831
:101550000C120707740512084FA882A98385188208
:10156000851983E8F0A3E9F07E0080518518828513
:101570001983E0F8A3E0F5838882E0F91215D5E934
:10158000FA851882851983E024FFF8A3E034FFF977
:10159000851882851983E8F0A3E9F0900DCF7808CB
:1015A000120707780C79081204678A087509007514
:1015B0000A00750B00780C79081206180EEEC39419
:1015C0000440A9AA0CAB0DAC0EAD0F740612081A9C
:1015D0007F080208BB74F712085BE9C3949A4004C1
:1015E00079AA800DE924B1F582E4340AF583E49305
:1015F000F97F020208BB74F712085BE9C3946440E8
:101600000479FF800DE9244BF582E4340BF583E483
:1016100093F97F020208BB74F812085B80128A8279
:101620008B83A3AA82AB838C828D83A3AC82AD8390
:10163000E96026198A828B83E0FE8C828D83E06EBE
:1016400060DCE0C0E08A828B83E0FAD0E0C39A508D
:1016500004790180067902800279007F010208BBCB
:1016600074F812085B80128A828B83A3AA82AB83F0
:101670008C828D83A3AC82AD83E96028198A828B2A
:1016800083E493FE8C828D83E06E60DBE0C0E08AB1
:10169000828B83E493FAD0E0C39A500479018006E8
:1016A0007902800279007F010208BB74F712085B9F
:1016B000EAFCEBFDE9FE7A557B55802CEAF9EBFA62
:1016C0008C828D83E06AC333FAE433FBEA24AFF5FE
:1016D00082EB340BF583E493FAA3E49369FB8C82E9
:1016E0008D83A3AC82AD831EEE70D17F020208BB56
:1016F00074F812085B8A828B83E9FEEE1E6010E0AC
:10170000F91215D5E9A3C3946440F07901800279F8
:10171000007F010208BB74F712085B80178908EC90
:101720002508F582ED3400F583E08A828B83F0A3EF
:10173000AA82AB83E91970E57F020208BB74F81234
:10174000085B801D8C828D83E4938A828B83F08C6E
:10175000828D83A3AC82AD838A828B83A3AA82AB62
:1017600083E91970DF7F010208BB74F812085B80FF
:101770001C8C828D83E08A828B83F08C828D83A384
:10178000AC82AD838A828B83A3AA82AB83E9197072
:10179000E07F010208BB74F712085B7C00790080CF
:1017A00001098C080CEA2508F582EB3400F583E486
:1017B000936006E9C394C840E87F020208BB74F74F
:1017C00012085BEAFEEBFF8C088D09AA08AB091230
:1017D0001796E9FA8023850882850983E4938E822F
:1017E0008F83F0850882850983A385820885830914
:1017F0008E828F83A3AE82AF83EA1A70D97F0202F2
:1018000008BBC082C083800BE98A828B83F0A3AAC5
:1018100082AB83EC1C70F1D083D0822274F5120865
:101820005B890A750B00804D850B82AE82850A08A4
:10183000EEC333F8E433F9E50898F8E499F9EC28B5
:10184000F8ED39F9EA2EFEEB3400FFE824FEF582CC
:10185000E934FFF583E0C454F08E828F83F0E824EE
:10186000FFF582E934FFF583E0540FF88E828F8311
:10187000E048F0050BE50AC313F9E50BC39940A84E
:101880007F040208BB74F512085BE9FE79007F0053
:1018900080658E0874FF2508F50A74FF3400F50B87
:1018A0008F08E50AC39508F508E50B9400F509EAE9
:1018B0002508F508EB350985080AF50B850A82F538
:1018C00083E0C4540F2430C0E08908EC2508F58279
:1018D000ED3400F583D0E0F009850A82850B83E0C2
:1018E000540F2430C0E08908EC2508F582ED34005F
:1018F000F583D0E0F0090FEFC39E40967F04020805
:10190000BB00000000227B0AEB1B600C7A00EAC3DC
:10191000941E50F4000A80F62274F312085B8A08C1
:101920008B09890C740D12084FE0F8A3E0F9888246
:101930008983AE08AF09750A0074F05EF874FF5F22
:10194000F9850C08E5082EFAE43FFB74FF2A1A74A7
:10195000FF3BFB74F05A687002EB69600CEE540FA9
:10196000FA7410C39AF50B8007850C0B8002050AE8
:10197000C2AF75CEA575CF5AD2AFE50AC394034066
:101980000779027F060208BB74075FFF121C5FEF36
:10199000C33324A0F9121B71E970D3EEF9121B7145
:1019A000E970CB858208858309750D008003A30546
:1019B0000DE50DC3950B5008E0F9121B71E960EEBF
:1019C000E50DC3950B5008850882850983809F1219
:1019D0001CDA121906E50BC3950C4004790080A3AC
:1019E000850B08EE2508FEEF3400FFE50BC50C95CE
:1019F0000CF50CC394114006750B100219700219F6
:101A00006974F112085B8A088B09890C740F12083B
:101A10004FE0F8A3E0F988828983750D0080020504
:101A20000DE50DC39403503685080E85090F74FF2C
:101A3000550EFE7407550FC33324A0F50E121C5F1C
:101A4000A90E121B71E970D7EEF9121B71E970CF64
:101A5000121C5F7401250EF9121B71E970C1750D1E
:101A6000008006121DC0A3050DE50DC3950C502284
:101A7000121AEDE9F0850D08850C0A74FF250AF8A5
:101A800074FF3400F9E865087001E970D6121D6032
:101A900080D4121CDA12190679007F080208BB7480
:101AA000F312085B740D12084FE0F50CA3E0F50D7E
:101AB000780C1208F77901121A01740212081A79C7
:101AC000007F060208BB74F312085B740D12084F06
:101AD000E0F50CA3E0F50D780C1208F77902121A64
:101AE00001740212081A79007F060208BB74F8120A
:101AF000085B9028AEE0C2E4F09028ADE0C2E4F0CC
:101B00009028ACE0C2E4F09028D5E0D2E4F0902830
:101B1000D6E0D2E4F0E4900191F0FE802F1219019A
:101B20009028AEE0D2E4F09028ADE0C2E4F0902836
:101B3000ACE0C2E4F0900191E0C333F09028D8E02B
:101B4000A2E45007900191E0D2E0F00EEEC39408B9
:101B50009028AEE0C2E4F09028ADE0C2E4F0902816
:101B6000ACE0C2E4F040B6900191E0F97F010208D8
:101B7000BB74F812085BE9900192F09028AEE0C2C5
:101B8000E4F09028ADE0C2E4F09028ACE0C2E4F0CC
:101B90009028D7E0C2E4F09028D6E0C2E4F0902884
:101BA000D5E0C2E4F07E008034C2E4F09028D6E0B4
:101BB000C2E4F09028D5E0C2E4F0900192E0C33393
:101BC000F01219019028AEE0D2E4F09028ADE0C206
:101BD000E4F09028ACE0C2E4F01219010EEEC394D8
:101BE000089028AEE0C2E4F09028ADE0C2E4F090A6
:101BF00028ACE0C2E4F05010900192E0A2E79028F7
:101C0000D7E050A5D2E480A31219019028D5E0D2E4
:101C1000E4F09028D6E0D2E4F09028AEE0D2E4F0F0
:101C20009028ADE0C2E4F09028ACE0C2E4F01219D4
:101C3000019028D8E0A2E45004D2F08002C2F0A2C1
:101C4000F0E492E0F99028AEE0C2E4F09028ADE034
:101C5000C2E4F09028ACE0C2E4F07F010208BBC00F
:101C600082C0839028AEE0C2E4F09028ADE0C2E4E8
:101C7000F09028ACE0C2E4F09028D7E0D2E4F090F5
:101C800028D6E0C2E4F09028D5E0C2E4F09028AE77
:101C9000E0D2E4F09028ADE0C2E4F09028ACE0C2DD
:101CA000E4F01219019028D7E0C2E4F09028D6E0C1
:101CB000C2E4F09028D5E0C2E4F01219019028AEF9
:101CC000E0C2E4F09028ADE0C2E4F09028ACE0C2BD
:101CD000E4F0121901D083D08222C082C083902800
:101CE000AEE0C2E4F09028ADE0C2E4F09028ACE0B1
:101CF000C2E4F09028D7E0C2E4F09028D6E0C2E435
:101D0000F09028D5E0C2E4F01219019028AEE0D29C
:101D1000E4F09028ADE0C2E4F09028ACE0C2E4F03A
:101D20001219019028D7E0D2E4F09028D6E0C2E45E
:101D3000F09028D5E0C2E4F0121901E0D2E4F0906E
:101D400028D6E0D2E4F09028AEE0C2E4F09028ADCE
:101D5000E0C2E4F09028ACE0C2E4F0D083D082226C
:101D6000C082C0839028AEE0C2E4F09028ADE0C20B
:101D7000E4F09028ACE0C2E4F09028D7E0D2E4F0A0
:101D80009028D6E0C2E4F09028D5E0C2E4F0902894
:101D9000AEE0D2E4F09028ADE0C2E4F09028ACE0F0
:101DA000C2E4F01219019028AEE0C2E4F09028AD30
:101DB000E0C2E4F09028ACE0C2E4F0D083D082220C
:101DC000C082C0839028AEE0C2E4F09028ADE0C2AB
:101DD000E4F09028ACE0C2E4F09028D7E0C2E4F050
:101DE0009028D6E0C2E4F09028D5E0C2E4F0902834
:101DF000AEE0D2E4F09028ADE0C2E4F09028ACE090
:101E0000C2E4F01219019028AEE0C2E4F09028ADCF
:101E1000E0C2E4F09028ACE0C2E4F0D083D08222AB
:101E200074F812085B7E00801AEE75F084A4249486
:101E3000F582E5F03401F583E064047005EEF912F3
:101E40001E4E0EEEC3940240E07F010208BB74F800
:101E500012085BE9FE75F084A42493F582E5F03462
:101E600001F583EEC394024005121EDC8013EEF0F0
:101E7000AA82AB831256FFE964FF7005EEF9121EC9
:101E8000867F010208BBC082C083E9C39402504729
:101E9000E975F084A42493F8E5F03401F974FF881F
:101EA000828983F0E4A3A3A3A3A3F088828983A3F8
:101EB000A3A3A3A3A3F088828983A3A3A3A3F074FD
:101EC0000388828983A3F0E488828983A3A3F088AE
:101ED000828983A3A3A3F0D083D08222EEC0E07EC8
:101EE000008006EEF9121E860EEEC3940240F4D076
:101EF000E0FE22C082C083E975F084A42493FAE551
:101F0000F03401FB74028A828B83A3F0E48A828B13
:101F100083A3A3A3A3F08A828B83E0FA70051273D4
:101F2000EA800D74016A70051275698003121E86BD
:101F3000D083D08222C082C0837B008033EB75F0D7
:101F400084A42493F8E5F03401F9E82402F582E949
:101F50003400F583E06018E014F0E0701274048837
:101F6000828983A3F0900383E04410F0A3E0F00B98
:101F7000EBC3940240C7D083D0822274F512085B71
:101F8000EAFEEBFF8E828F83A3A3A3A3A3A3E06447
:101F900001702FEE240FF582EF3400F58312090C47
:101FA0007906900DAF7808120707AA08AB09AC0AAA
:101FB000AD0B121A01740212081A74068E828F83F6
:101FC0008007E48E828F83A3A3A3A3F079007F040C
:101FD0000208BB74F512085BEAFEEBFF750800808F
:101FE000020508900E7FE493FAE508C39A502E8EFE
:101FF000828F83A3A3A3A3A3A3A3A3A3A3E0FA8590
:10200000080A750B007402780A1207F1E50A2477B2
:10201000F582E50B340EF583E4936A70C4900E7F6D
:10202000E493FAE508C39A401874028E828F83A362
:10203000A3A3A3A3F074018E828F83A3A3F0022035
:10204000FA750900740278081207F1E5082477F898
:10205000E509340EF988828983A3E493F5087401B5
:1020600093F5098E828F83A3A3A3A3A3A3A37404D0
:1020700012091088828983A3A3A3E493F9AA08AB69
:1020800009122814740412081AE9FA74FF6A609994
:102090008E828F83A3A3A3A3A3A3A3A3E064FF7053
:1020A0000E8E828F83A3A3A3A3A3A3E0D2E6F0EABC
:1020B00075F00DA4F8A9F0E50828F582E50939F5D1
:1020C00083AC82AD83EEFAEFFBA3A3A3A3A3A3A3E8
:1020D000A3E493C333F8E433F9E824DFF582E93469
:1020E0000DF583E493C0E0740193F583D082120868
:1020F00059E964FF700479FF800279007F040208C7
:10210000BB74F112085B8A0C8B0DEA2407FEEB34DA
:1021100000FFEA240FF50EEB3400F50F7904850E6D
:1021200082F583E0FCA3E0FDEEFAEFFB12176A7A7A
:102130000080027A01EA705A8E828F83C082C08347
:10214000900EB07808120707D083D0827808120466
:102150000470E0850E82850F83E02404F508A3E077
:102160003400F50978081208F77940900EB4780821
:10217000120707AA08AB09AC0AAD0B121A017402C8
:1021800012081A7444850C82850D83A3A3F079008C
:10219000800279FF7F080208BB74F112085B74FEAD
:1021A000120804851882851983EAF0A3EBF08518DC
:1021B00082851983E02407F50CA3E03400F50D8532
:1021C0001882851983E0240FF50EA3E03400F50F83
:1021D0007904850E82F583E0FCA3E0FDAA0CAB0D2B
:1021E00012176A850C82850D83C082C083900EB859
:1021F0007808120707D083D0827808120404703759
:10220000900389E0A2E04008900362E06455700802
:1022100074559003620224EA7404C0E08518828534
:102220001983E0F8A3E0F5838882A3A3A3A3A3D036
:10223000E0F074010224EC900362E0645570D985EB
:102240000C82850D83C082C083900EBC7808120773
:1022500007D083D08278081204047003E480B38529
:102260000C82850D83C082C083900EC0780812074F
:1022700007D083D08278081204047015850E8285F9
:102280000F83E02404FAA3E03400FB1249BD0224CA
:10229000EB850C82850D83C082C083900EC47808C4
:1022A000120707D083D08278081204047015850EB7
:1022B00082850F83E02404FAA3E03400FB124C2F44
:1022C0000224EB850C82850D83C082C083900EC8EA
:1022D0007808120707D083D082780812040470139C
:1022E0007AE07B021232A5900387E04440F0A3E03D
:1022F0000224EA850C82850D83C082C083900ECCB7
:102300007808120707D083D082780812040470621C
:10231000790F850E82850F83E02404FCA3E034004E
:10232000FD7A087B0312176A7911850E82850F8367
:10233000E02413FCA3E03400FD7A357B0312176A16
:102340007C1E79007A177B03121802793E7A087B8B
:10235000031216AB900346EAF0A3EBF079407C0839
:102360007D037A207B00122F0C900387E044020249
:1023700022ED850C82850D83C082C083900ED078BB
:1023800008120707D083D0827808120404702485CD
:102390000E82850F83E02404FAA3E03400FB1212BE
:1023A000F88A088B098C0A8D0B900317780812079E
:1023B0001A8098850C82850D83C082C083900ED4CC
:1023C0007808120707D083D082780812040470417D
:1023D000850E82850F83E02404FAA3E03400FB120B
:1023E00012F88A088B098C0A8D0B90031F7808124B
:1023F000071A850E82850F83E02408FAA3E03400D3
:10240000FB1212F88A088B098C0A8D0B900323802B
:102410009B850C82850D83C082C083900ED878087E
:10242000120707D083D0827808120404701A850E30
:1024300082850F83E0F8A3E0F5838882A3A3A3A39A
:10244000E0900334F002234B850C82850D83C0821B
:10245000C083900EDC7808120707D083D0827808FA
:102460001204047020850E82850F83E02404FAA3F1
:10247000E03400FB1212F88A088B098C0A8D0B904D
:10248000032B0223AC7E0080027E01EE7035850CAA
:1024900082850D83C082C083900EB0780812070732
:1024A000D083D082780812040470DE7940850E82D1
:1024B000850F83E02404FCA3E03400FD7A207B0038
:1024C000122F0CEE7003022369600EC394065009AC
:1024D000900387E044080222EDEEC39406400C907E
:1024E0000387E04424F0A3E04402F0E4C0E0851850
:1024F00082851983E0F8A3E0F5838882A3A3D0E066
:10250000F07900740212081A7F080208BB74F112F5
:10251000085B8A0E8B0FEA2407F50CEB3400F50DEF
:10252000EA240FFEEB3400FF79048E828F83E0FCF7
:10253000A3E0FDAA0CAB0D12176A850C82850D83F2
:10254000C082C083900EE07808120707D083D08243
:102550007808120404703490030EE0C0E08E828F7D
:1025600083E0F8A3E0F5838882A3A3A3A3D0E0F0DF
:1025700079047C0F7D038E828F83E02405FAA3E02B
:102580003400FB1217167409022645850C82850D4E
:1025900083C082C083900EE47808120707D083D0EE
:1025A000827808120404700979047C137D030226E2
:1025B00033850C82850D83C082C083900EE8780835
:1025C000120707D083D082780812040470087904B7
:1025D0007C177D03805D850C82850D83C082C0835E
:1025E000900EEC7808120707D083D0827808120486
:1025F00004701D900334E0C0E08E828F83E0F8A366
:10260000E0F5838882A3A3A3A3D0E0F0740580350E
:10261000850C82850D83C082C083900EF0780812ED
:102620000707D083D0827808120404702179047CD3
:102630002B7D038E828F83E02404FAA3E03400FB19
:102640001217167408850E82850F83A3A3F07900F4
:102650007F080208BB74F112085B8A0E8B0F90038F
:1026600062E06455601A74048A828B83A3A3A3A3D7
:10267000A3F074018A828B83A3A3F0790002280F50
:10268000EA2407FEEB3400FFEA240FF50CEB3400DC
:10269000F50D7904850C82F583E0FCA3E0FDEEFAEC
:1026A000EFFB12176A8E828F83C082C083900DAFBA
:1026B0007808120707D083D08278081204047006C5
:1026C000124B500228048E828F83C082C083900EEA
:1026D000E07808120707D083D082780812040470CB
:1026E0002F850C82850D83E0F8A3E0F5838882A313
:1026F000A3A3A3E090030EF07904850C82850D83DB
:10270000E02405FCA3E03400FD7A0F7B030227D907
:102710008E828F83C082C083900EE47808120707F0
:10272000D083D082780812040470187904850C8252
:10273000850D83E02404FCA3E03400FD7A137B03C1
:102740000227D98E828F83C082C083900EE87808DA
:10275000120707D083D08278081204047017790416
:10276000850C82850D83E02404FCA3E03400FD7A0F
:10277000177B0380648E828F83C082C083900EECAF
:102780007808120707D083D08278081204047019E1
:10279000850C82850D83E0F8A3E0F5838882A3A3EE
:1027A000A3A3E0900334F080338E828F83C082C075
:1027B00083900EF07808120707D083D08278081231
:1027C000040470187904850C82850D83E02404FCD0
:1027D000A3E03400FD7A2B7B03121716793E7A08AA
:1027E0007B031216AB900346EAF0A3EBF079407C32
:1027F000087D037A207B00122F0C900387E04402AF
:10280000F0A3E0F0E4850E82850F83A3A3F0F97FA7
:10281000080208BB74F112085BEAFEEBFF7C00744F
:10282000FF29FB741212084FE07059740F12084F01
:10283000C082C083900EF47808120707D083D0823C
:1028400078081206A8900EF8780812041970057915
:10285000FF022992741012084FE0FA74FF6A6006B2
:10286000EAC3940550E9741112084FE0FA740C6A37
:10287000601C740B6A6017E4C0E0741012084FD03B
:10288000E0F0800A741012084FE064FF60E9740FF2
:1028900012084FC082C0838E828F83780812070788
:1028A000D083D0827808120457500A80A2EB6A6065
:1028B0005B74012AFC8C0A8B08E508250AF508E4FC
:1028C0003400F509740178081207D2AA08EA75F0F5
:1028D0000DA4F8A9F0EE28F582EF39F583780812F7
:1028E0000707740F12084F7808120404601E740F53
:1028F00012084F780C1206F8780C79081204474039
:10290000ACEC6A6003022997EA60011AEA75F00DDF
:10291000A4F8A9F0EE28F8EF39F988828983E493C6
:10292000FCA3A3A3A3A3A3A3E4932CFCE43400FD82
:10293000740F12084FE0FEC3EC9EED9400C365D007
:1029400033500302284F88828983A3E493FC888252
:102950008983A3A3A3A3A3A3E4932CFCE43400FDE5
:10296000741012084FE0FEC3EC9EED9400C365D0D6
:1029700033500302284F88828983A3A3E493C0E0E5
:10298000741112084FE0FBD0E0C39B500302284FA4
:10299000EAF97F080208BB74FF2AFB0228B5790018
:1029A0002274F512085B74FE120804EAFEEBFFEED7
:1029B000240FF8EF3400F98E828F83A3E06411882E
:1029C0008289837070E0FAA3E0F5838A82E085183B
:1029D00082851983F088828983E0FAA3E0F5838AEF
:1029E00082A3E0C0E0740112084FD0E0F088828931
:1029F00083E0FAA3E0F5838A82A3A3A3E0F508C3EA
:102A00009451400579FF022AAD8882898312090C0E
:102A1000A908740212084FE0F50AA3E0AA0AFB7C99
:102A2000007D00121A01740212081A8E828F83A38D
:102A3000A3E5088075E0FAA3E0F5838A82E08518B3
:102A400082851983F088828983E0FAA3E0F5838A7E
:102A500082A3E0C0E0740112084FD0E0F0888289C0
:102A600083E0FAA3E0F5838A82A3A3A3E0F508C379
:102A70009451509088828983E02404F50AA3E034BD
:102A800000F50B780A1208F7A908740212084FE043
:102A9000F508A3E0AA08FB7C007D00121919740256
:102AA00012081AE48E828F83A3A3F07900740212B5
:102AB000081A7F040208BB74F112085B74F812084C
:102AC00004851882851983EAF0A3EBF0ECFEEDFF94
:102AD0007A00851882851983E02406F8A3E0340083
:102AE000F9740212084FE8F0A3E9F0740212084FDB
:102AF000E0F8A3E0F5838882E0A2E650010AEE2424
:102B00000BF50EEF3400F50FEA75F006A4FAABF002
:102B1000850E82850F83E493F8740193F9E875F0CC
:102B200006A4F8ACF075F006E9A42CF9E82480F8C6
:102B3000E9340EF9EA28F50CEB39F50D850C82F530
:102B4000837808120707AA08AB09124037740412E9
:102B5000084FEAF0A3EBF0A3ECF0A3EDF0851882A8
:102B6000851983E0240FF50AA3E03400F50BEE2469
:102B700005FEEF3400FF8E828F83E493F974041214
:102B8000084FAC82AD83850A82850B83E0FAA3E00F
:102B9000FB12176AE50C2405F508E50D3400F5096C
:102BA000740212084FE0F8A3E0F5838882E0A2E601
:102BB0004003022C4A850E82850F83E493F874014A
:102BC00093F97405687001E98E828F836026E4931F
:102BD000FA850882850983E493C39AFC79FF8E8283
:102BE0008F83E493FA850A82850B83E02AFAA3E0B7
:102BF00034008052E493F9740412084FAC82AD8320
:102C00008E828F83E493FA850A82850B83E02AFA09
:102C1000A3E03400FB12176A8E828F83E493C333E0
:102C2000FA850882850983E493C39AFC79FF8E8232
:102C30008F83E493C333FAE433FB850A82850B83E5
:102C4000E02AFAA3E03BFB1218028508828509837B
:102C5000E493C0E0851882851983E0F8A3E0F5834A
:102C60008882A3A3D0E0F07900740812081A7F08C4
:102C70000208BBC008C009C3EA9480EB940040047A
:102C800079FF800D8A088B09740578081207E2A97C
:102C900008D009D0082274F112085B747812080475
:102CA000E4C0E0740112084FD0E0F0900366E0F950
:102CB000C394035003022F021215D5E924FDF50F2A
:102CC000C394044003022F02E50F75F003A424FC13
:102CD000F8E5F0340EF988828983E49385188285BB
:102CE0001983F088828983A3E493F8740193F974BB
:102CF0000412084FE8F0A3E9F0744812084F8582E7
:102D00000885830978081208F7740212084FE0F961
:102D1000740612084FE0F508A3E0AA08FB7C007DCA
:102D200000121A01740212081A740412084FE024E7
:102D3000A0F508A3E03400F509740812084F858255
:102D40000C85830D780C1208F7740212084FE0F915
:102D5000AA08AB097C007D00121A01740212081A3D
:102D6000851882E024FEF50EF9744812084FAA82F5
:102D7000AB831216AB740212084FEAF0A3EBF08596
:102D80001882851983E0FE744812084FE5822EF8F8
:102D9000E5833400F974FE28181874FF39F97406B5
:102DA00012084FE8F0A3E9F0740212084FC082C085
:102DB00083740612084FE0FAA3E0FB1212DD8A0CBE
:102DC0008B0DD083D082E0650C7004A3E0650D60AC
:102DD0000A7401C0E012084FD0E0F0A90E74081286
:102DE000084FAA82AB831216AB740212084FEAF0A6
:102DF000A3EBF0740812084FE5822EF8E583340047
:102E0000F974FE28FE74FF39FF740212084FEEFABF
:102E1000EFFB1212DD8A0C8B0DE0650C7004A3E051
:102E2000650D6009740112084FE02402F07401126C
:102E3000084FE0703E740612084FE0FAA3E0FB1260
:102E400012DD740212084FEAF0A3EBF074021208CC
:102E50004FEEFAEFFB1212DD8A0C8B0DE0650C7061
:102E600004A3E0650D600C7402C0E0740112084F09
:102E7000D0E0F0850F0C750D007402780C1207F18C
:102E8000E50C242FF582E50D3412F583780C12073A
:102E90000790029C780C1206E5740112084FE0645A
:102EA000017033780C1205D090029C780C1206D277
:102EB000740812084F85820885830978081208F77C
:102EC000740212084FE0F9740612084FE0F508A3E7
:102ED000E0AA08FB8020E064027027744812084FC3
:102EE00085820C85830D780C1208F7740212084F46
:102EF000E0F9AA08AB097C007D00121919740212CE
:102F0000081A748812081A7F080208BB74F11208A4
:102F10005B7474120804740812084FEAF0A3EBF013
:102F2000740A12084FECF0A3EDF0E9C0E07401124E
:102F3000084FD0E0F0744C12084FA882A9837402A5
:102F400012084FE8F0A3E9F0740812084FE0FAA362
:102F5000E0FB122C73E9FA740112084FE0700302CF
:102F600031A7EAC39404400302317FEA75F003A459
:102F700024FCF8E5F0340EF988828983E4938518FF
:102F800082851983F088828983A3E493F87401937E
:102F9000F9740412084FE8F0A3E9F0744C12084FDA
:102FA00085820885830978081208F7740212084F91
:102FB000E0F9740612084FE0F508A3E0AA08FB7CCC
:102FC000007D00121A01740212081A8518828519F0
:102FD00083E024FEF508F9744C12084FAA82AB83F3
:102FE0001216AB740612084FEAF0A3EBF074041249
:102FF000084FE024A0F50CA3E03400F50D74061290
:10300000084FC082C083851882851983E0F8744C0C
:1030100012084FE58228F8E5833400F974FE28FA97
:1030200074FF39FB1212DD8A0A8B0BD083D082E049
:10303000650A7004A3E0650B70030230CC740C12B7
:10304000084F85820A85830B780A1208F7740212EA
:10305000084FE0F9AA0CAB0D7C007D00121A017438
:103060000212081AA908740C12084FAA82AB831224
:1030700016AB740612084FEAF0A3EBF074061208C0
:103080004FC082C083851882851983E0F8740C12C2
:10309000084FE58228F8E5833400F974FE28FA74B5
:1030A000FF39FB1212DD8A0A8B0BD083D082E065D8
:1030B0000A7004A3E0650B7013740C12084FA88209
:1030C000A983740212084FE8F0A3E9F07401120812
:1030D0004FE0F9740A12084FE0FCA3E0FD740812F7
:1030E000084FC082C083740412084FE0FAA3E0FBCB
:1030F000D083D082E0C39AFAA3E09BFB740212084B
:103100004FE02AFAA3E03BFB12176A851882851963
:1031100083E0F8740212084FE028F8A3E03400F9C5
:1031200074FE28FC74FF39FDECFEEDFFA908740263
:1031300012084FE0FAA3E0FB1216ABEEFCEFFD1213
:1031400012CA740212084F12090C740212084FE0DE
:10315000F9740612084FE0F508A3E0AA08FB7C000A
:103160007D00121919740212081A740212084F1203
:10317000090C740212084FE0F9AA0CAB0D801C7404
:103180000A12084F12090C740312084FE0F9740A6E
:1031900012084FE0F508A3E0AA08FB7C007D0012AE
:1031A0001919740212081A748C12081A7F0802087E
:1031B000BB74F812085B7E00800F0EA3AA82AB835B
:1031C000EC24020C0CED3400FDEEC39950298A82E8
:1031D0008B83E0C0E08C828D83E493FFD0E0C39FBB
:1031E0004011A3E493C0E08A828B83E0FFD0E0C368
:1031F0009F50C77901800279007F010208BB74F7F4
:1032000012085B74FE120804EAFEEBFF8E828F83C5
:10321000A3A3A3A3A3A3A3A3E0851882851983F086
:103220008E828F83A3A3A3A3A3A3A3A3A3E0C0E041
:10323000740112084FD0E0F085188285198379084F
:103240001216AB8A088B09E065087004A3E06509D3
:10325000701B7A0080010AEAC3940850148A08EEB1
:103260002508F582EF3400F583E06A60E979008093
:10327000027901740212081A7F020208BB74F71265
:10328000085B7C0080147437C0E08C08EA2508F5E0
:1032900082EB3400F583D0E0F00CECC3940A40E6F6
:1032A0007F020208BB74F712085B74FE120804EA7E
:1032B000FEEBFF7A008013EAC0E08A08EE2508F5ED
:1032C00082EF3400F583D0E0F00AEAC3940840E7C7
:1032D0007908EEFA1216AB851882851983EAF0A3F5
:1032E000EBF0851882851983E08E828F83A3A3A3D8
:1032F000A3A3A3A3A3F0740112084FE08E828F83CF
:10330000A3A3A3A3A3A3A3A3A3F0740212081A7FE9
:10331000020208BB74F712085B7AE07B021231FEEE
:10332000E960757AE07B0212327D7C4079007AA0F8
:103330007B021218027E00803BC2AF75CEA575CF0E
:103340005AD2AF7508A075090278081208F77940BB
:103350008E08750900740678081207F17460250854
:10336000FA74013509FB3395E0FCFD12191974025A
:1033700012081A0EEEC3940340BF790312381B7C67
:103380000279007A507B031218027C0279007AEAF3
:103390007B021218021272E47F020208BB123D3D4A
:1033A00022C082C083900355E07002A3E0601E90AB
:1033B0000355E024FFF0F8A3E034FFF0F9E87001D2
:1033C000E9700A900389E054FEF0A3E0F01237326E
:1033D000122C96D083D0822274F312085B74FF12F1
:1033E0000804E9FE8C0C8D0DEA600302348FE4853D
:1033F0001882851983F08582088583097808120868
:10340000F7900F0C7808120707AA08AB09AC0AADB1
:103410000B121A9F740212081AEE6010851882852A
:103420001983E07004740B8002E014F08518828523
:103430001983E075F00C84E5F0F0780C1208F77948
:103440000C740212084FE089F0A4FAABF074612A00
:10345000F50874013BAA08FB7C007D001219197461
:103460000212081AEE602885188285820885830971
:1034700078081208F77901900F0C7808120707AA4C
:1034800008AB09AC0AAD0B121919740212081A74B0
:103490000112081A7F060208BB74F112085B74FF60
:1034A000120804EAFF8B0CECFE741012084FE0F5D2
:1034B0000EA3E0F50FE9706EE4851882851983F09C
:1034C00085820885830978081208F77901900F0C26
:1034D0007808120707AA08AB09AC0AAD0B121A014B
:1034E000740212081A851882851983E02F75F00C72
:1034F00084E5F0F0780E1208F7EEF9740212084F26
:10350000E075F00CA4FAABF0E50C2AFAE43BFB748E
:10351000612AF50874013BAA08FB7C007D00121AA1
:1035200001740212081A740112081A7F080208BBFB
:1035300074F512085B74FE1208047508A075090280
:1035400078081208F7790C900F107808120707AA6C
:1035500008AB09AC0AAD0B121A01740212081A7AF0
:10356000AA7B021212DD851882851983EAF0A3EB8B
:10357000F0790A7AA07B021216AB8A088B09A80898
:10358000A909851882851983E0687003A3E0697032
:103590006179067CA07D027AEE7B0212176A123AEC
:1035A0007A79027CA67D027A507B0312176A79022F
:1035B0007CA87D027AEA7B0212176A851882851937
:1035C00083E4F0A3F08518828519838582088583BA
:1035D0000978081208F77902900F14780812070783
:1035E000AA08AB09AC0AAD0B121919740212081A19
:1035F00080167C0279007A507B031218027C0279D3
:10360000007AEA7B02121802900389E054F7F0A3D3
:10361000E0F0740212081A7F040208BB74F5120865
:103620005B74C01208048518828519838582088519
:10363000830978081208F77940900EB478081207C9
:1036400007AA08AB09AC0AAD0B121A0174021208E2
:103650001A743E12084FAA82AB831212DD8A088BBD
:1036600009AE08AF09793E851882851983AA82AB15
:10367000831216ABEA6E7002EB6F7009AA82AB83FD
:10368000123702807085820885830978081208F74E
:103690007940900F587808120707AA08AB09AC0ABE
:1036A000AD0B121A01740212081A743E12084FAAC6
:1036B00082AB831212DD8A088B09AE08AF09793E0E
:1036C000851882851983AA82AB831216ABEA6E70C5
:1036D00002EB6F60A7793E7A087B031216AB8A086B
:1036E0008B09A808A909900346E0687003A3E06964
:1036F00060031244A912462D744012081A7F040276
:1037000008BBC082C083780879037C0080198A8254
:103710008B83E088828983F0A3A882A9838A828B25
:1037200083A3AA82AB830CECC3944040E1D083D046
:10373000822274F512085B74FE12080485188285D3
:10374000198385820885830978081208F7900F5C31
:103750007808120707AA08AB09AC0AAD0B121AC603
:10376000740212081A851882851983E0F8A3E0F91B
:10377000900346E0687003A3E0697022793E7A08FE
:103780007B031216AB8A088B09A808A90990034687
:10379000E0687003A3E069700512462D80031236BD
:1037A0001C1237AE740212081A7F040208BB74F7A9
:1037B00012085B7C0080010CECC3941050468C080E
:1037C000750900740278081207F1E5082418F8E575
:1037D00009340FF988828983E493FA740193FB908A
:1037E0000308E06A7003A3E06B70CC88828983A32E
:1037F000A3E4939002ECF088828983A3A3A3E493CB
:103800009002EDF0ECC39410400C740A9002ECF0BE
:1038100074019002EDF07F020208BB74F512085BA0
:10382000E9FEA2E050297C0479007AEE7B021218AE
:103830000279047AEE7B021216AB9002F2EAF0A350
:10384000EBF079067CEE7D027AF47B0212176AEEC9
:10385000A2E150667C0E79007AFA7B021218027996
:103860000C7AFA7B021216AB900306EAF0A3EBF097
:103870007508FA75090278081208F7790E900F603A
:103880007808120707AA08AB09AC0AAD0B12191980
:10389000740212081A7508FA75090278081208F7F6
:1038A000790E900F647808120707AA08AB09AC0AD2
:1038B000AD0B121919740212081A7F040208BB74A6
:1038C000F512085B74F21208041239FEE964016013
:1038D0000302398E851882851983858208858309BC
:1038E00078081208F7790E900F607808120707AA77
:1038F00008AB09AC0AAD0B121A01740212081A794E
:103900000C851882851983AA82AB831216AB8A08AC
:103910008B09A808A909740C12084FE0687003A36A
:10392000E06960508518828519838582088583093E
:1039300078081208F7790E900F647808120707AA22
:1039400008AB09AC0AAD0B121A01740212081A79FD
:103950000C851882851983AA82AB831216AB8A085C
:103960008B09A808A909740C12084FE0687003A31A
:10397000E0697015790E851882851983AC82AD8354
:103980007AFA7B0212176A8005790212381B740ECC
:1039900012081A7F040208BB74F712085B7E0079D4
:1039A000047AEE7B021216AB8A088B09A808A909D3
:1039B0009002F2E0687003A3E069601F0E79047A58
:1039C000F47B021216AB8A088B09A808A909900299
:1039D000F8E0687003A3E06960010EEEA2E0500F0A
:1039E00079067CF47D027AEE7B0212176A800AC3A4
:1039F00094024005790112381B7F020208BB74F75C
:103A000012085B790C7AFA7B021216AB8A088B09D2
:103A1000A808A909900306E0687003A3E0696004A0
:103A20007901800279007F020208BB74F812085BFA
:103A300089087E007F00123998E508701B9002EE1D
:103A4000C082C0839002F0E0F8A3E0F9D083D08276
:103A5000E028FEA3E0398018740165087005900223
:103A6000EE80097402650870089002F0E0FEA3E0A1
:103A7000FFEEFAEFFB7F010208BB74F512085B74DE
:103A8000F21208047E0085188285198385820885D4
:103A9000830978081208F7790E900F6078081207EA
:103AA00007AA08AB09AC0AAD0B121A01740212087E
:103AB0001A790C851882851983AA82AB831216ABFA
:103AC0008A088B09A808A909740C12084FE06870CD
:103AD00003A3E06960508518828519838582088573
:103AE000830978081208F7790E900F647808120796
:103AF00007AA08AB09AC0AAD0B121A01740212082E
:103B00001A790C851882851983AA82AB831216ABA9
:103B10008A088B09A808A909740C12084FE068707C
:103B200003A3E06970010EEE7020790C7AFA7B0233
:103B30001216AB8A088B09A808A909900306E06849
:103B40007003A3E0696003023C2274016E70137974
:103B50000E851882851983AC82AD837AFA7B0212B6
:103B6000176A7A007901123A2B8A088B09EB339590
:103B7000E0F50AF50B9002FE78081206557A0079F6
:103B800000123A2B8A088B09EB3395E0F50AF50B06
:103B90009002FA78081206557A007902123A2B8AB6
:103BA000088B09EB3395E0F50AF50B9003027808D2
:103BB000120655790C7AFA7B021216AB900306EACC
:103BC000F0A3EBF01239FEE970587508FA75090296
:103BD00078081208F7790E900F607808120707AA84
:103BE00008AB09AC0AAD0B121919740212081AE9D4
:103BF00070301239FEE9702A790112381B7508FA03
:103C000075090278081208F7790E900F6478081287
:103C10000707AA08AB09AC0AAD0B121919740212F6
:103C2000081A740E12081A7F040208BB74F31208F3
:103C30005B1239987EEA7F027508EE750902750BF2
:103C400000805C8E828F83E06018C2AFE0F50CE4E8
:103C5000F0D2AF850882850983E0250CF0A3E0341B
:103C600000F0850882850983C3E09499A3E0940855
:103C70004003123998850882850983C3E094D1A353
:103C8000E094074003750A55050B8E828F83A3AE1F
:103C900082AF83E5082402F508E5093400F509E55B
:103CA0000BC39402409D79047AEE7B021216AB900E
:103CB00002F2EAF0A3EBF079067CEE7D027AF47B67
:103CC0000212176A7455650A7003123A7A7F060267
:103CD00008BB74F512085B1239FEE960507508FAEA
:103CE00075090278081208F7790E900F60780812AB
:103CF0000707AA08AB09AC0AAD0B121A017402122D
:103D0000081A1239FEE960257508FA750902780863
:103D10001208F7790E900F647808120707AA08AB0B
:103D200009AC0AAD0B121A01740212081A7CFA7D52
:103D3000027A0079011233D87F040208BB74F512AD
:103D4000085B74FA12080485188285198385820835
:103D500085830978081208F77906900F68780812A9
:103D60000707AA08AB09AC0AAD0B121A01740212BC
:103D7000081A7C008049EDC333F8E433F9851882D2
:103D8000851983E58228F8E58339F9ECC333FAE431
:103D900033FBE5822AF582E5833BF583E0FAA3E075
:103DA000FB88828983E06A7003A3E06B70098882D4
:103DB00089837499F0A3F00DEDC3940340B80CEC23
:103DC000C39402500674012CFD80ED7C0080010C30
:103DD000ECC394035045ECC333F8E433F9851882FF
:103DE000851983E58228F8E58339F988828983E09B
:103DF00064997004A3E0649960D588828983E0FAAD
:103E0000900367E06A70C888828983A3E0FA900310
:103E100068E06A70BA123A7A123CD2740612081A32
:103E20007F040208BBC082C083E490285DF0902824
:103E30005FF0902868F0D083D0822274F712085B7C
:103E40007480902878F0E49010E8F09010E9F090F9
:103E500010EAF09010EBF09010ECF0FA8010E4C053
:103E6000E08A08E508F582D0E0F00000000AEAC325
:103E700094E440EA7AF08010E4C0E08A08E508F5AE
:103E800082D0E0F00000000AEAC394FE40EA74BC6D
:103E90009010E8F074749010E9F074939010EAF0C8
:103EA00074889010EBF0E49010ECF07AE48010E469
:103EB000C0E08A08E508F582D0E0F00000000AEAD8
:103EC000C394E740EA74CC9010E8F09010E9F090C9
:103ED00010EAF0748C9010EBF074019010ECF0E4A8
:103EE0009010F4F00000009010FAF000000074FF51
:103EF0009010E8F09010E9F09010EAF09010EBF0DC
:103F0000E49010ECF09010F5F00000009010FBF041
:103F1000000000902878F07F020208BB74F51208B8
:103F20005B90034878081206F8E5089010E8F090D6
:103F3000034878081206F8E5099010E9F090034864
:103F400078081206F8741078081205E0E508901059
:103F5000EAF090034878081206F8741878081205F9
:103F6000E0E5089010EBF090034CE09010ECF0E4EA
:103F70008A828B83F00000007F040208BB74F51274
:103F8000085B74FF1208048A828B83E0851882859F
:103F90001983F00000009010ECE090034CF09010BA
:103FA000E878081206F8AA08AB09AC0AAD0B740150
:103FB00012081A7F040208BB74F712085BE9540365
:103FC000F9902864E0FB750801750900E97808128A
:103FD00007F1AC08EAA2E7EC5004F45B80104BF068
:103FE000740F5AC0E0E9F8745828F582D0E0F07FE9
:103FF000020208BBC082C083902878E04470F0E4DD
:10400000902879F0742090287AF07A007902123F93
:10401000B87A037900123FB87A017901123FB8905B
:104020002878E0440FF090287DE0C2E0F0E490288A
:104030007EF0D083D0822274F112085B74F41208EF
:10404000048A088B09123F7D8A0C8B0D8C0E8D0F14
:10405000851882851983780C12071A78081209FBD3
:1040600000000600D3102641D6107E40D81026410D
:10407000D9105441DA109E42FD10A4426C437403DF
:1040800012084FE0C39480402385188285198378F5
:10409000081206F878081205D0900F6C78081206FE
:1040A0003E851882851983780812071A900335789F
:1040B000081206F8740412084F780812071A7404DC
:1040C00012084FC082C083900DAF7808120707D046
:1040D00083D0827808120404700B7A007B007C0085
:1040E0007D0002439085188285198378081206F8AE
:1040F000900DCF780C1207077808790C12046774BA
:104100000412084F780C1206F87808790C1204E7AC
:10411000AA08AB09AC0AAD0B1214298A088B098CCA
:104120000A8D0B02437490033978081206F8900D3B
:10413000AF780812041960A2851882851983780C5B
:104140001206F8780C79081204E7AA0CAB0DAC0E35
:10415000AD0F80C490033D78081206F8900DAF783B
:104160000812041970030240DA85188285198378D1
:104170000C1206F8780C79081204E7AA0CAB0DAC07
:104180000EAD0F1214298A088B098C0A8D0B740846
:1041900012084F780812071A7AD67B10123F7D8AD0
:1041A000088B098C0A8D0B740412084F78081207CB
:1041B0001AE0C394804021740412084F7808120654
:1041C000F878081205D0900F6C780812063E740437
:1041D00012084F780812071A90033578081206F86B
:1041E000900DAF780812041970117808120707743F
:1041F0000412084F780812071A801B740412084F23
:10420000780C1206F8780C79081204E77404120886
:104210004F780C12071A740412084FC082C08390A2
:10422000030CE0F8A3E0F97AE87B03120779880829
:10423000890990030AE0F8A3E0F97A647B00120789
:1042400079E88508F0A4C8AAF08509F0A42AFA85BF
:1042500008F0E9A42AF9E8C333F8E933F97A647B72
:104260000012077988088909750A00750B00D08348
:10427000D0827808120457400302437E7408120863
:104280004FC082C083900F707808120707D083D088
:10429000827808120457400302437E0240DA9003FA
:1042A00041024129750800750900750AE2750B0481
:1042B000851882851983780C1206F87808790C1213
:1042C00004E7851882851983780812071A851882F1
:1042D000851983C082C083900F747808120707D0B5
:1042E00083D082780812045740228518828519836A
:1042F000C082C083900F787808120707D083D082DD
:1043000078081204575005900F7C804285188285EA
:104310001983C082C083900F807808120707D0836A
:10432000D08278081204575005900F80802085189D
:1043300082851983C082C083900F84780812070792
:10434000D083D08278081204574013900F887808E1
:10435000120707851882851983780812071A8518AD
:104360008285198378081206F8024110900DAF7803
:1043700008120707740812084F780812071A740801
:1043800012084F78081206F8AA08AB09AC0AAD0B60
:10439000740C12081A7F080208BB74F512085B90AF
:1043A0000352E0C394035003E004F0900353E07021
:1043B0003C900352E0C3940240337401900353F0E5
:1043C000E490034CF090031378081206F874017817
:1043D000081205F9900348780812071A7AF57B103D
:1043E000123F1C7AFB7B10123F1C1243F27F040227
:1043F00008BBC082C08390287DE04418F0D2E890CA
:104400002843E0D2E7F0D083D08222123E25123E2C
:104410003B123FF41244182274F512085B12373233
:1044200090287DE0D2E5F0902878E0D2E5F0900F7A
:104430006C7808120707900348780812071A7AF573
:104440007B10123F1C7AFB7B10123F1C90030F78ED
:10445000081206F8740178081205F99003487808E4
:1044600012071A90030EE0C333FA90030FC082C004
:1044700083900DBF7808120707D083D08278081286
:104480000457400574012A8001EA90034CF07AF445
:104490007B10123F1C7AFA7B10123F1CE4900352EF
:1044A000F01238BF7F040208BBC082C083793E7C13
:1044B000DB7D0F7A087B0312173D793E7A087B0378
:1044C0001216AB900346EAF0A3EBF0D083D0822221
:1044D000C082C08390034FE064017027900351E0D5
:1044E00004F0E0C0E09002ECE0FAD0E0C39A40456E
:1044F000E0FA900351E0C39AF09002EDE0FA9002E6
:10450000EB8025900350E004F0E0C0E09002ECE086
:10451000FAD0E0C39A401EE0FA900350E0C39AF04C
:104520009002EDE0FA9002EAE02AF0900383E04482
:1045300004F0A3E0F0D083D0822274F112085B74FF
:10454000FC1208047AD67B10123F7D8A088B098CF6
:104550000A8D0B900F6C780C120707780C790812F3
:1045600004325003024612900335780C1206F88587
:104570001882851983780C12071A85188285198389
:10458000C082C083900F8C780C120707D083D08232
:10459000780C1206A8900DAF780C12041970419097
:1045A0000F90780C120707780C7908120432401C1F
:1045B00090034DE004F0E490034EF090034DE0C30F
:1045C0009403405F740190034FF08057E490034DD3
:1045D000F090034EE004F0E0C394044046E480E62B
:1045E000900DCF780C1207077808790C12046785B4
:1045F0001882851983780C1206F87808790C120451
:10460000E7900F94780C120707780C79081204478A
:10461000509EE490034DF090034EE004F0E0C3940C
:104620000350BA740412081A7F080208BB74F5120A
:10463000085B900354E0604490030F78081206F87A
:10464000740178081205F9900348780812071A9047
:10465000030EE0C333FA90030FC082C083900DBFF6
:104660007808120707D083D08278081204574009CF
:1046700074012A90034CF0801BEA80F790030EE04F
:1046800090034CF090030F78081206F890034878D6
:104690000812071A7AF47B10123F1C7AFA7B101268
:1046A0003F1CE490034CF090031378081206F89036
:1046B0000354E06007740178081205F99003487804
:1046C0000812071A7AF57B10123F1C7AFB7B101236
:1046D0003F1C7E0080368E82AA828A08750900748B
:1046E0000278081207F1E5082417F582E50934037A
:1046F000F58378081206F8900348780812071A74B0
:10470000DD2AFA74103400FB123F1C0EEEC394072E
:1047100040C4900333E090287BF0900334E090286D
:104720007CF0900345E05403902858F0900345E056
:104730001313543F5403902859F0900345E0C45498
:104740000F540390285AF07F040208BB74F5120836
:104750005B90030EE090034CF090030F7808120674
:10476000F8900348780812071A7AF47B10123F1C5D
:104770007AFA7B10123F1CE490034CF090031378FC
:10478000081206F8900348780812071A7AF57B1089
:10479000123F1C7AFB7B10123F1C7F040208BB7483
:1047A000F112085B74FC120804851882851983EAEB
:1047B000F0A3EBF0A3ECF0A3EDF08518828519834C
:1047C00078081206F8741312084F780812067C90C5
:1047D0000F98780C1207077808790C120467741385
:1047E00012084F780C1206F87808790C120581AE81
:1047F00008AF0974E82EFC74033FFD741712084FCC
:1048000078081206F88C0CEDF50D3395E0F50EF5F1
:104810000F7808790C120581900F98780C12070711
:104820007808790C120467C008C009C00AC00B746C
:104830001712084F780C1206F88C08EDF50933951D
:10484000E0F50AF50B780C7908120581A808E875DF
:10485000F0E8A4C8AAF075F003A42AFA75F0E8E518
:1048600009A42AF9ECFAEDFB120779880889097581
:104870000A00750B00D00FD00ED00DD00C780C793B
:1048800008120618C00CC00DC00EC00F75080075C8
:104890000900750B808C0CEDF50D3395E0F50EF5E8
:1048A0000F7808790C1204E78E0CEFF50D3395E0C4
:1048B000F50EF50F7808790C120467D00FD00ED0E2
:1048C0000DD00C780C7908120668C00CC00DC00E13
:1048D000C00F750C00750D00750E00750F808C08EB
:1048E000EDF5093395E0F50AF50B780C790812041B
:1048F000E7A808E875F0E8A4C8AAF075F003A42AB0
:10490000FA75F0E8E509A42AF9ECFAEDFB1207794B
:10491000EE88F0A4CEAAF089F0A42AFA88F0EFA4D9
:104920002AFFEEF8EFF97AE87B0312077988088905
:1049300009750A00750B00D00FD00ED00DD00C7881
:104940000C7908120668AA0CAB0DAC0EAD0F7404FE
:1049500012081A7F080208BB74F112085B8A088BE0
:10496000098C0A8D0B740F12084F780812067C9080
:104970000F98780C1207077808790C120467740FE7
:1049800012084F780C1206F87808790C120581E5A8
:10499000093395E0F50AF50B900F9C780C12070788
:1049A0007808790C120467900FA0780C120707782A
:1049B00008790C120581A9087F080208BB74F1125E
:1049C000085B74F4120804EAFEEBFF7904EEFCEFD6
:1049D000FD851882851983AA82AB8312176A780C29
:1049E0001206F8900FA47808120707780C790812BD
:1049F00004E77ADD7B10123F7D8A088B098C0A8DD3
:104A00000B78081208F3780C1208F37AD67B101290
:104A1000403712153212479F740812081A8A088B01
:104A2000098C0A8D0B900317780812071A7902EE89
:104A3000240CFCEF3400FD851882851983AA82AB13
:104A40008312176AE0F50CA3E0F50D750E00750FE3
:104A5000007AE07B10123F7D8A088B098C0A8D0B4F
:104A600078081208F3780C1208F37AD97B101240F8
:104A70003712153212479F740812081A8A088B09D8
:104A80008C0A8D0B900323780812071A7902EE2402
:104A900012FCEF3400FD851882851983AA82AB834E
:104AA00012176AE0F8A3E0F9E8FCE9FD74081208BF
:104AB0004FECF0A3EDF0A3E4F0A3F07ADF7B10124B
:104AC0003F7D8A088B098C0A8D0B740412084F787D
:104AD0000812071A7AD87B101240371215328A084A
:104AE0008B098C0A8D0B900FA4780C12070778089D
:104AF000790C120467740412084F120908740C121E
:104B0000084F120908AA08AB09AC0AAD0B12479F5F
:104B1000740812081A8A088B098C0A8D0B90031FDF
:104B2000780812071A793E7A087B031216AB9003B5
:104B300046EAF0A3EBF079407C087D037A207B0005
:104B4000122F0C12462D740C12081A7F080208BB93
:104B500074F512085B7ADD7B10123F7D8A088B09A1
:104B60008C0A8D0B78081208F3900FA81209397A75
:104B7000D67B1012403712153212479F7408120864
:104B80001A8A088B098C0A8D0B9003177808120774
:104B90001A7AE07B10123F7D8A088B098C0A8D0BF4
:104BA00078081208F3900FAC1209397AD97B1012E9
:104BB000403712153212479F740812081A8A088B60
:104BC000098C0A8D0B900323780812071A7ADF7B71
:104BD00010123F7D8A088B098C0A8D0B7808120809
:104BE000F3900FB01209397AD87B101240371215A2
:104BF0003212479F740812081A8A088B098C0A8D92
:104C00000B90031F780812071A793E7A087B03126B
:104C100016AB900346EAF0A3EBF079407C087D03E5
:104C20007A207B00122F0C12462D7F040208BB74E1
:104C3000F112085B74F8120804EAFEEBFFE4902816
:104C40007BF0790A1212AF7904EEFCEFFD85188231
:104C5000851983AA82AB8312176AAA82AB831212C8
:104C6000F88A088B098C0A8D0B900FA4780C120718
:104C7000077808790C1204E7740412084F780812B8
:104C8000071A7AD67B101240378A0C8B0D8C0E8D4A
:104C90000F8A088B098C0A8D0B900FB478081206C6
:104CA000BB900DAF78081204196010900FB8780C03
:104CB0001206BBAA0CAB0DAC0EAD0F1215328A0C4E
:104CC0008B0D8C0E8D0F740412084F120908AA0C5C
:104CD000AB0DAC0EAD0F124958740412081AE990CE
:104CE0000333F0E090287BF0900334E090287CF0D0
:104CF000793E7A087B031216AB900346EAF0A3EBE9
:104D0000F079407C087D037A207B00122F0C740818
:104D100012081A7F080208BB74F512085B7AE07B60
:104D20000212327D7508A075090278081208F77919
:104D300007900DAF7808120707AA08AB09AC0AADB7
:104D40000B121A01740212081A79077AA07B021258
:104D500016F0E964017017791E7CBD7D0F7AA07B87
:104D60000212173D791E7CA07D027A00801579170A
:104D70007CC47D0F7AA07B0212173D79177CA07D41
:104D8000027A077B00122F0C750801805DC2AF7597
:104D9000CEA575CF5AD2AFE50875F005A42420FE44
:104DA000E5F03410FFEE2404F50AEF3400F50B852E
:104DB0000A82F583E493F98E828F83E493FC740175
:104DC00093FD7AA07B0212173D850A82850B83E44E
:104DD000932402F97CA07D028E828F83A3A3E493A7
:104DE000FA740193FB122F0C0508E508C3940240E6
:104DF0009C7508A075090278081208F77940900E92
:104E0000B47808120707AA08AB09AC0AAD0B121A4E
:104E100001740212081A7ADE7B021212DD8A088BF4
:104E200009AE08AF09793E7AA07B021216ABEA6E92
:104E30007002EB6F6024C2AF75CEA575CF5AD2AFAA
:104E4000793E7CDB7D0F7AA07B0212173D79407C96
:104E5000A07D027A207B00122F0C7AE07B021232B6
:104E6000A51233147F040208BBC082C0839028AC13
:104E7000E0D2E3F09028ADE0D2E3F09028D5E0D284
:104E8000E5F09028D6E0D2E5F0900389E054087A66
:104E900000602CEAC39402502C75F005EAA424218A
:104EA000FB74032BF8760108760C0A80E675F00592
:104EB000EAA42421FB74032BF8760108760C0AEA95
:104EC000C3940240E8D083D08222C082C08390285D
:104ED000AFE0A2E378234033E608C396400F1818EA
:104EE00018E67009900386E0D2E0F076017821E6BA
:104EF000640260030808067823E60808C396401198
:104F00007821E66401700A76028006760018187629
:104F1000009028D8E0A2E578284021E608C3964012
:104F20000F181818E67009900386E0D2E1F07601B8
:104F30007826E66401600B080806800676001818DB
:104F40007600D083D08222C082C083900386E0A204
:104F5000E050081277B8E0C2E0802DE0A2E15027CF
:104F6000900389E0A2E0E0500754FEF0A3E0800E39
:104F70004401F0A3E0F09003557414F0A3E4F09022
:104F80000386E0C2E18001E4F0D083D0822274F194
:104F900012085B74FC120804851882851983EAF0F4
:104FA000A3EBF0A3ECF0A3EDF0741312084F780C10
:104FB0001206F87A00800E8882758328E0F08E82CF
:104FC0008F83E0F00AEAC39408507A851882851925
:104FD0008378081206F8E508540FFBE50C540FFC23
:104FE00085188285198378081206F87404780812E7
:104FF00005E0851882851983780812071A740478E9
:105000000C1205E0EB2432F582E43410F583E493CE
:10501000FB8A08E508242AF582E43410F583E4933A
:10502000F88882758328E0A2E0E492E0F0EC1209AF
:105030009C0002003B500AB74FC44F8882758328FA
:10504000E04B024FC3740412081A7F080208BBC069
:1050500082C083E4902800F0902801F0902802F0AC
:10506000902803E05410F0902805E0C2E0F090286A
:1050700009E0C2E0F090280AE0C2E0F090280BE0DE
:10508000C2E0F0902806E0D2E0F0D083D08222C0C7
:1050900082C083900383E04408F0A3E0F0900364AF
:1050A000E0600BE014F0E07005E4900363F090031F
:1050B00057E06008E014F0E07035801E900389E04E
:1050C000A2E050169028B0E0C2E1F09028B1E0C212
:1050D000E1F09028B2E0640280149028B0E0C2E1D0
:1050E000F09028B1E0C2E1F09028B2E0C2E1F09087
:1050F0000358E06003E014F0E07008741EF0E490E0
:105100000359F0D083D0822274F112085B74F81234
:10511000080412504F900359E0120966010124510E
:10512000A551DD519002FA78081206F874041208AD
:105130004F780812071A740412084F7A0079001287
:105140003A2B8A08EBF5093395E0F50AF50B780858
:1051500012062B900FA4780C1207077808790C120E
:1051600004E7AA08AB09AC0AAD0B1214298A088B14
:10517000098C0A8D0B851882851983780812071A05
:10518000900DAF7808120707902804E0D2E0F09065
:105190002803E0D2E4F0902807E0C2E0F09028086D
:1051A000E0C2E08075900389E0540860031272E465
:1051B0007901851882851983AA82AB831270889041
:1051C00010427808120707902804E0C2E0F0902807
:1051D00003E0C2E4F0902807E0C2E0803690038943
:1051E000E0540860031272E47902851882851983FD
:1051F000AA82AB8312708890104278081207079039
:105200002804E0C2E0F0902803E0C2E4F090280710
:10521000E0D2E0F0902808E0D2E0F0900362E06491
:10522000557007902802E0D2E6F078081208F3746F
:105230000412084F78081206F8AA08AB09AC0AADA8
:105240000B124F8E740412081A740812081A7F0881
:105250000208BBC082C083E49028A9F074FF9028A4
:10526000A8F0E49028B5F074FF9028B4F0E49028FA
:10527000B9F074FF9028B8F0E49028BDF074FF9066
:1052800028BCF0E49028C1F074FF9028C0F0E490AE
:1052900028D6F074FF9028D5F0E49028DAF074FF57
:1052A0009028D9F09028ADE0D2E3F09028ACE0D27D
:1052B000E3F09028D6E0D2E5F09028D5E0D2E5F0F2
:1052C0009028B2E0C2E1F09028B0E054FCF09028C1
:1052D000B1E054FCF09028D7E0D2E4F09028D6E07A
:1052E000C2E4F09028D5E0C2E4F09028AEE0D2E429
:1052F000F09028ADE0C2E4F09028ACE0C2E4F0D039
:1053000083D08222C082C083125253E49028C5F019
:105310009028C6F09028ACE04406F09028ADE05408
:10532000F9F0E49028CDF09028CEF09028B0E04439
:1053300030F09028B1E054CFF0D083D08222538E49
:10534000F75389F0E589438901758CFE758AEFD2A0
:105350008CD2A922538EDFC2C9C2C875CDF575CCD7
:105360005575CBF575CA55D2CAD2AD22C082C0835D
:1053700074339028A0F0D083D0822275D99675C955
:10538000D7899775D99675C9D622C2AF75CEA5753E
:10539000CF5AD2AF12536C1252531254847A0079FE
:1053A0000212734F7A00790212748D121EDC1253AE
:1053B0003E125354124E69790312537B22C082C0AD
:1053C000837B00E9A2E650010BC2D5902867E06913
:1053D0006021C280A28040FC7420F07A0080010A23
:1053E000EAC3940A40F9E9F07A0080010AEAC3941A
:1053F0000540F9EBA2E09280C284740C59701974D4
:10540000E2902862F0741A90285CF090285EF09088
:105410002860F09028618016E490285CF090285E67
:10542000F0902860F0902861F07462902862F0A2F9
:10543000804005E4902864F0902865E0548FF0796E
:1054400001D083D08222C082C083902866E0FA74A3
:10545000F85A49F0D083D08222C082C08390286558
:10546000E0C2E7F0902866E0C2E4F0748059FA9058
:105470002865E04AF0741059FA902866E04AF0D0A6
:1054800083D08222C082C0839028B8E074FFF0905D
:1054900028BCE074FFF09028C0E074FFF09028B9B9
:1054A000E0E4F09028BDE0E4F09028C1E0E4F0747E
:1054B000FF902815F0902816F0902817F0748E9021
:1054C0002814F07980125459D083D08222C082C02F
:1054D0008374E165E8600375E8E174F265A8600330
:1054E00075A8F27450558864506005438850E5886B
:1054F000900353E06401902843700CE0548364836C
:105500006010E04483800AE0540364036004E044D4
:1055100003F09028C5E0640270189028C6E0640289
:1055200070109028CDE0640270089028CEE06402EC
:10553000601274029028C5F09028C6F09028CDF033
:105540009028CEF0D083D08222C082C083C2D5748E
:1055500080902863F0902866E054F8F0E0D2E1F003
:10556000E4902864F0902878F090287DF0D284C2EE
:1055700080A28040FC902867F0C282D28180FE75B4
:10558000A80075E80075910022C082C0837588006C
:10559000E4902820F0902828F0902830F0D083D094
:1055A0008222C082C083E59A900377F0E59B900346
:1055B00078F0E59C900379F0E59390037DF0E59D0C
:1055C00090037AF0E59E90037BF0E59F90037CF0DA
:1055D000D083D08222C082C08375D99675C9D790F6
:1055E000036AE0F59F900369E0F59E900368E0F59B
:1055F0009D900367E0F59C900366E0F59B90036542
:10560000E0F59A90036BE0F59375D99675C9D6D0FD
:1056100083D08222C082C083900389E05408702521
:1056200090035AE0C333F0E5A1A2E04004E0D2E0E9
:10563000F0E064FF700F900383E04401F0A3E0F01A
:10564000E490035AF0D083D0822274F512085B7480
:10565000FE12080490287DE054E7F012530412551E
:105660007F12558979067CEE7D027AA07B021217A3
:105670006A79027C507D037AA67B0212176A79024E
:105680007CEA7D027AA87B0212176A790A7AA07BEB
:10569000021216AB851882851983EAF0A3EBF07924
:1056A00002851882851983AC82AD837AAA7B0212A7
:1056B000176A7508A075090278081208F7790C9026
:1056C0000F107808120707AA08AB09AC0AAD0B1235
:1056D0001919740212081AE4900359F0900358F053
:1056E000125108790312537B900389E04408F0A318
:1056F000E0F0125549740212081A7F040208BB74C4
:10570000F712085B74ED120804EAFEEBFF8E828F3D
:1057100083E0851882851983F0AC82AD83125886A8
:10572000E964FF60030257D37A0080188A08EE25E7
:1057300008F582EF3400F583A3A3A3A3A3A3A3E0FA
:10574000C2E7F00AEE2405F8EF3400F9EAC0E08879
:10575000828983E0FBD0E0C39B40D1740390035760
:10576000F0900363E0C394054020E4F074158E824A
:105770008F83A3A3A3A3A3A3A3F074018882898327
:10578000F0742890029BF002587AEEFAEFFBE0C327
:1057900033F8E433F9E82458F582E93410F583E46A
:1057A00093C0E0740193F583D082120859E9600533
:1057B00079FF02587C9028B0E0C2E1F09028B1E077
:1057C000C2E1F09028B2E0D2E1F0E4900361F0FA97
:1057D00002586CAA82AB831259A7E964FF60D174A6
:1057E0000512084FE0705B75080080020508E508A7
:1057F000C394065043E50875F003A42446F8E5F089
:105800003410F988828983E493FA740112084FE016
:105810006A70D9851882851983AA82AB83888289A8
:1058200083A3E493C0E0740193F583D082120859F6
:10583000E964FF70030257B0E508C3940640030211
:1058400057B0740412084FE070030257B0851882F5
:10585000851983AC82AD83EEFAEFFB125CD8E96068
:10586000030257B074AA900361F07A0179021273AF
:105870004F8E828F83E0F9121EF3790074131208A1
:105880001A7F020208BB74F312085BEAFEEBFF8C7E
:105890000C8D0D750A008002050AE50AC3941050AC
:1058A00023850A82AA82EE2405F582EF3400F5836F
:1058B000E0FC740C2AF8E43400F9EC98E499C36530
:1058C000D033500479FF8034EE2AF8EF3400F974B5
:1058D0000728F508E439F509E0C3950AF9AA08ABE9
:1058E00009125901E970B1E50C240FF582E50D3478
:1058F00000F583E508F0A3E509F079007F060208CA
:10590000BB74F612085B8A828B83E06468700CA318
:10591000A3A3A3A3A3A3E06468600479FF805C8AC7
:10592000828B83A3A3A3A3A3A3A3A3A3E0F50AF558
:1059300082A882740C28FCE43400FDE99CE49DC339
:1059400065D03340D6EA28FEEB3400FF8E828F8389
:10595000A3A3A3A3A3A3A3A3A3A3E0F508740A2569
:105960000AF9125980E9650870B1EE240BF582EF4F
:105970003400F583E0641670A279007F030208BB4F
:1059800074F712085BE9FC79007D0080108D08EA4D
:105990002508F582EB3400F583E029F90DEDC39C71
:1059A00040EB7F020208BB74F312085BEAFEEBFFD8
:1059B000EE2404F50CEF3400F50D7401850C82859E
:1059C0000D83F0E48E828F83A3A3A3A3A3F0901092
:1059D0006078081207078E828F83A3A3A3A3A3A3D3
:1059E000A3E508F0A3E509F0A3E50AF0A3E50BF0B1
:1059F000EE240FF508EF3400F509850882F583E001
:105A0000F8A3E0F5838882A3A3A3A3A3A3A3A3A3DE
:105A1000E0C39471400DE4850C82850D83F079FF1D
:105A2000025BB8125BBDE964FF700F74038E828F56
:105A300083A3A3A3A3A3A3F080DC850882850983A5
:105A4000E0F8A3E0F5838882A3A3A3A3A3A3A3A361
:105A5000A3E0F9850882850983E0240AFAA3E034EB
:105A600000FB125EC98E828F83A3A882A98385085A
:105A700082850983E0FAA3E0F5838A82A3A3A3A326
:105A8000A3A3A3A3E088828983F0EE2402FAEF3473
:105A900000FBEAFCEBFD850882850983E0FAA3E0C0
:105AA000F5838A82A3A3A3A3A3A3A3A3A3E08C82C9
:105AB0008D83F088828983E064116008E06414605B
:105AC00003025B9C850882850983E0FAA3E0F583E5
:105AD0008A82A3A3A3A3A3A3A3A3A3A3E08E828FDD
:105AE00083A3A3A3A3A3A3A3F0850882850983E0CE
:105AF000240BFAA3E03400FB8A828B83E08E828F32
:105B000083A3A3A3A3A3A3A3A3F0850882850983EA
:105B1000E0240CFAA3E03400FB8A828B83E08E82BF
:105B20008F83A3A3A3A3A3A3A3A3A3F08508828524
:105B30000983E0240DFAA3E03400FB8A828B83E022
:105B40008E828F83A3A3A3A3A3A3A3A3A3A3F0885D
:105B5000828983E06414702174208E828F83A3A3D2
:105B6000A3A3A3A3F074048E828F83A3A3A3A3A3F0
:105B7000F074018C828D83803C8C828D83E0C39491
:105B800004500E74018E828F83A3A3A3A3A3025A91
:105B90001D850882850983E0240E80098508828599
:105BA0000983E0240AF8A3E03400F9850882850916
:105BB00083E8F0A3E9F079007F060208BB74F512D0
:105BC000085BEAFEEBFF75085B75090378081208AD
:105BD000F77906900DAF7808120707AA08AB09AC51
:105BE0000AAD0B121A01740212081AEE240FF508FE
:105BF000EF3400F50979067C5B7D03850882F58327
:105C0000E02401FAA3E03400FB121617E970030246
:105C10005CC47A0180010AEAC394075018EAF88547
:105C20000882850983E028FBA3E034008B82F5839A
:105C3000E064AA60E1EAC3940640057401025CC610
:105C40007A0180010AEAC394075018EAF8850882AD
:105C5000850983E028FBA3E034008B82F583E064B0
:105C60009960E1EAC39406401A74018E828F83A37F
:105C7000A3A3A3A3A3F0E48E828F83A3A3A3A3F083
:105C8000F980507A0180010AEAC3940750438A825E
:105C9000A882850882850983E028FBA3E034008B75
:105CA00082F583E0FBE8245AF582E43403F583E0CF
:105CB0006B60D474038E828F83A3A3A3A3A3A3F0EA
:105CC00079FF800F74028E828F83A3A3A3A3A3A363
:105CD000F079007F040208BB74F112085BEAFEEB66
:105CE000FF8C088D0974688E828F83A3A3A3A3A35E
:105CF000A3A3F0C0E0EE240EF582EF3400F583D0CC
:105D0000E0F079067C5B7D03EE2408FAEF3400FBBB
:105D100012176AEE2410F50EEF3400F50F85088295
:105D2000850983A385820A85830BE5082405F8E5A8
:105D3000093400F988828983E06003025E4FE50838
:105D40002402F50CE5093400F50D850C82F583E09D
:105D5000850E82850F83F0850A82850B83E06411AE
:105D60006005E06403703F850E82850F83E02404A4
:105D7000F07904E5082407FCE5093400FDEE241160
:105D8000FAEF3400FB12176A850C82850D83E0F967
:105D9000E508240FF582E5093400F583E0FCA3E073
:105DA000FDEE2415801C850C82850D83E0F9E50845
:105DB000240FF582E5093400F583E0FCA3E0FDEE55
:105DC0002411FAEF3400FB12176A850A82850B83CF
:105DD000E0D2E7F0E0C0E0EE240FF582EF3400F50A
:105DE00083D0E0F0850E82850F83E0F9EE2411FA6E
:105DF000EF3400FB125EEDEE2405F508EF3400F5FC
:105E000009E0240C850882850983F0E024FEF9EE80
:105E10002407FAEF3400FB125980E9C0E0E0F8EE05
:105E200028F582EF3400F583A3A3A3A3A3D0E0F069
:105E30007416C0E0850882850983E0F8EE28F582B3
:105E4000EF3400F583A3A3A3A3A3A3D0E0807285BE
:105E50000A82850B83E024C0F0E0C0E0EE240FF559
