:060000000200660272130B
:03000B0002721B63
:0300130002723A3C
:03001B0002723C32
:03002B000272530B
:03003B00027263EB
:03004300027277CF
:03004B0002731E1F
:03005300027392A3
:100063000273B575D00075819F751851751901021A
:10007300007A00000080FB1200B5B900030200AF54
:10008300E47921781AB800028004F709D8FCE479EE
:100093003B780CB800028004F709D8FCE4900151C6
:1000A300784479038002F0A3D8FCD9FA127F7C123A
:0500B300007579012237
:10040000FFFFFFFFE066701008A3E066700A08A314
:10041000E066700408A3E06622E493667013087433
:10042000019366700C087402936670050874039358
:100430006622C3E7960809E7960809E7960809E7E0
:1004400096A2D265D03322C3E7960809E796080939
:10045000E7960809E79622C3E09608A3E09608A36A
:10046000E09608A3E09622080808E630E711120C8F
:10047000C412047F080808C64480C6181818221839
:100480001818E9799EC608CAC608CBC608CCC6C3E8
:1004900070207996CACBCC7019798ECBCC70137939
:1004A00086CC700EF9802ACA33CACB33CBCC33CC7E
:1004B000331930E7F2CCCBCA3350147004EA30E081
:1004C0000DE4CA3ACACB3BCBCC3CCC500209C3E9C1
:1004D00013C6CC182313C6CB18C6CA18C6F92212E5
:1004E000051F20F01430E72B74FFFCFBFA747F80AB
:1004F00022E4FCFBFA7480801AB48008BC00F2BBD2
:1005000000EF800F50EBF9E4C39AFAE49BFBE49C04
:10051000FCE499C6CC18C6CB18C6CA18C6F922E4A2
:10052000C9C608CAC608CBC6D3330308CCC63392A3
:10053000F0C3947F402E94184019C9B90704CACB60
:10054000CC225025C309CA33CACB33CBCC33CC33EE
:10055000D9F422F4600DC9CCC313CB13CBCA13CA90
:10056000D9F6CC22E4FCFBFA2214FCFBFA22E6C307
:100570003318461846184622E7C333194719471956
:100580004722181818E6084608700AE608C33370B0
:1005900005E633F4220822191919E7094709700AF8
:1005A000E709C3337005E733F4220922E608460859
:1005B000C3134608336002E633F422E7094709C350
:1005C000134709336002E733F422001205AC604F91
:1005D0001205BB6012E7548066F612058270111294
:1005E0000578703B090909F4F618F618F618F62292
:1005F000120597701512056E08080860EAE6447F38
:10060000F618768018E4F618F62212056E601612B7
:1006100005787012E4F608F608F608E65480F60944
:10062000090918181822EAC0E0EBC0E0ECC0E0EDC0
:10063000C0E0E687F0A4FBACF008E687F0A42CFC51
:10064000E435F0FA1809E687F0A42C4B6002740137
:10065000CA35F0FCE433FB09E687F0D2F7A42CCBD3
:1006600035F0FC1908E687F0A42BCC35F0FBE43319
:10067000FD0819E687F0D2E7A42C4ACB35F0CD343B
:1006800000FC09E687F0D2E7A42DCC35F0FDE43379
:10069000FA0918E687F0D2F7A42CCD35F0CA340059
:1006A000FC08E687F0D2E7D2F7A42ACC35F07A7EB0
:1006B00020E70B0ACB33CBCD33CDCC33CC33CB338C
:1006C00050147004ED30E00ED2F1E4CD3DCDCC3CC1
:1006D000CC3B5005DA05C2F1EB547FC63308E63354
:1006E00092F0FBE73309E733C39A502D2B70190CB6
:1006F0000D4C4D70151806E608C333700D20F10A35
:10070000A2F013F6E418800B4024E4F630F00276F1
:100710008018F618F618F68024D33B14501074FF96
:10072000A2F013F6187680E418F618F6800FA2F0FF
:1007300013F618E63303F618ECF618EDF6D0E0FDE4
:10074000D0E0FCD0E0FBD0E0FA221205BB604612FC
:1007500005AC603DE9687008F618F618F618F62240
:10076000748067F712077E090909748067F72212FF
:1007700005AC601D1205BB7005191919801A120508
:1007800082701F120597C37003E667331919194069
:10079000071818182208080874FFF618F618F61833
:1007A000F6221205976017120578702192F0120553
:1007B0006E7019501720F014080808090909E7F6A7
:1007C0001819E7F61819E7F61819E7F62212056E58
:1007D00060E6E869701F0808E62480F608E436F64B
:1007E00018547FB47F0CE654806007F6E418F618BE
:1007F000F622181822E9C6CC08C6CD08C6CE08C60F
:10080000CFC0E0E8C0E0EAC0E0EBC0E009E9F809E9
:10081000E7FA09E7FBE6F918E6F8C3EC98ED99EE7C
:100820009AEBC2E7F5F0EFC2E795F0500E600CEBE3
:10083000CFFBEACEFAE9CDF9E8CCF8EAA2E7D2E7B5
:10084000FAEB33FB13F5F0EEA2E7D2E7FEEF33FF4E
:10085000C5F013A2E730E601B313C5F0C3C0E0C092
:10086000F07F00C39BFB605B9418600C401AD0E0E3
:1008700023F9D0E0F802094D8AF0E9486003D2F08C
:10088000E4AFF0FAF9F8803BEB30E40D89F0EA6070
:1008900003D2F0E4AFF0F9CAF8EB30E30D88F0EFE3
:1008A0006002D2F0AFF0E4CAC9F8EB54076014FB61
:1008B000C3EA13FAE913F9E813F8EF135002D2E090
:1008C000FFDBEDD0E0C0E030E739C3E49FFFF5F097
:1008D000EC98FC42F0ED99FD42F0EE9AFE42F0D029
:1008E000E0F9D0E0F8E5F0607AE923F9EE20E7429C
:1008F000D8028067C3EF33FFEC33FCED33FDEE33FA
:10090000FE80EAEC28FCED39FDEE3AFED0E023F95A
:10091000D0E0F84002801BC3EE13FEED13FDEC1394
:10092000FCEF135002D2E0FF08B800067F7F74FF8F
:10093000802EEF3350178CF020F00260100CBC00BA
:100940000C0DBD00080EBE000408E860DFE933E8C6
:1009500013FFEE2313FE4F4D4C8008E95480FFE453
:10096000FEFDFCEE33EF33F47004FCFD7E80D0E03E
:10097000FBD0E0FAD0E0F8D0E0CFC618CEC618CD54
:10098000C618CCC6F9221205AC7004181818221229
:1009900005BB700D74FFF61819F61819F61819F63C
:1009A00022E7548066F612056E700F12057870F01B
:1009B00014F608F608F608F680D1120578700CF6E1
:1009C00008F608768008E6447F80EC12059A700CE1
:1009D00012058560BFE65480F6E480BB1205857081
:1009E0000519191980A5E869700C763F18768018EA
:1009F000F618F6E8F922E6CDC0E018ECC0E0E633E0
:100A0000CD33CDD313F6E719FCE7191933CC33C333
:100A1000947F400ECD9D502408E65480F6E418F6ED
:100A2000800FF4043D14501408E6447FF6187680D5
:100A3000E418F618F6D0E0FCD0E0FD22CCD313CCBD
:100A4000FD18E4C6CBC0E018E4C6CAC0E00808ED53
:100A500008C633E613F618E433C675F003C3CA9725
:100A6000CA09CB97CB199C40047D08802EBD00039A
:100A7000020B2F16B6FF050606081618C3CA33CA9E
:100A8000CB33CB33CA27CA09CB37CB193CC37D083C
:100A9000803E187D0820E75CC633C6CA33CACB3314
:100AA000CB33DDF1D5F0EB30E77BCA97CA09CB97A2
:100AB0004ACB199C406F4B7025E620E021806618D8
:100AC0007D08C3CA97CA09CB97CB199CD3C633C636
:100AD000CA33CACB33CB3350C9DDE7D5F0E1D3E419
:100AE000C636C608C636C608C636C608C636C618CE
:100AF00018188031C3CA97CA09CB97CB199CB34049
:100B000097C633C6CA33CACB33CB33DD34D5F02EC8
:100B1000C6A2E0C640C8CA27CA09CB37194A70BE68
:100B2000CB3CB480B90808E63308E633601F1818D8
:100B300018D0E0FAD0E0FBD0E0FCD0E0FD22187D38
:100B400008CA27CA09CB37CB193CD3808013F618C3
:100B5000E4B67F11F618B6FF0EF618C60470D20878
:100B600008768080CAF618F618F680C5080808EAE4
:100B7000C0E0EBC0E086F0E7A4FA180986F0E7A42D
:100B80002AFA180986F0E7A42AFA180986F0E7A4D9
:100B90002AFA1986F0E7A4FBE5F02AFA190886F08C
:100BA000E7A42BFBE5F03AFA190886F0E7A42BFB43
:100BB000E5F03AFA18180986F0E7A4C5F02BFBE433
:100BC0003AFA1908E7C5F0C6A426F6E5F03BFBE4BF
:100BD0003AFA1886F0E7A4F6E5F00826F6E43B08B2
:100BE000F6E43A08F6D0E0FBD0E0FA22E4CFC0E029
:100BF000E4CEC0E0E4CDC0E0E4CCC0E075F020C3BA
:100C0000E633F608E633F608E633F608E633F61878
:100C10001818EC33FCED33FDEE33FEEF33FFC3EC7D
:100C20009709ED9709EE9709EF97191919400FFFEA
:100C3000EC97FC09ED97FD09EE97FE191906D5F022
:100C4000BEECF709EDF709EEF709EFF7191919D01E
:100C5000E0FCD0E0FDD0E0FED0E0FF22120CC7188F
:100C60001818120BEC120CB319191922120CB31923
:100C70001919080808E618181820E7E0120BEC12FA
:100C80000CC718181822090909E719191920E7DCF7
:100C9000080808E618181820E703020BEC120CC726
:100CA000181818120BEC120CC7181818120CB319DC
:100CB000191922E4C397F709E497F709E497F709AC
:100CC000E497F722181818E4C396F608E496F60895
:100CD000E496F608E496F6226016080808C6C313E0
:100CE000C618C613C618C613C618C613C6D5E0EA7A
:100CF000227009080808226016181818C6C333C6DF
:100D000008C633C608C633C608C633C6D5E0EA22CD
:100D1000E627F60809E637F60809E637F60809E691
:100D200037F622E026F608A3E036F608A3E036F60A
:100D300008A3E036F622E49326F60874019336F60B
:100D40000874029336F60874039336F622E026F010
:100D500008A3E036F008A3E036F008A3E036F0225E
:100D6000C3E697F60809E697F60809E697F6080934
:100D7000E697F622C3E0C696F608A3E0C696F60804
:100D8000A3E0C696F608A3E0C696F622C3E096F066
:100D900008A3E096F008A3E096F008A3E096F022FE
:100DA000E056F608A3E056F608A3E056F608A3E0DE
:100DB00056F622E056F008A3E056F008A3E056F0FD
:100DC00008A3E056F022E046F008A3E046F008A3AE
:100DD000E046F008A3E046F022E0F608A3E0F608BB
:100DE000A3E0F608A3E0F622E493F608740193F674
:100DF00008740293F608740393F622E6F008A3E65B
:100E0000F008A3E6F008A3E6F022CAC0E0E6F0A3EB
:100E100008DAFAD0E0FA22CAC0E0E0A3C582CCC565
:100E200082C583CDC583F0A3C582CCC582C583CDE1
:100E3000C583DAE6D0E0CA22CAC0E0E493A3C58243
:100E4000CCC582C583CDC583F0A3C582CCC582C580
:100E500083CDC583DAE5D0E0CA22B90010BB000813
:100E6000E88AF084F8AAF022E4FBC8FA22EB7022A8
:100E70007B10C833C8C933C9335007C39AC3DBF2E8
:100E800080069A50012ADBEAC833F4C8C933F4C992
:100E9000FA2275F008E4C833C8C933C933C99AC9FE
:100EA0009B5004C92AC93BD5F0ECFBC833F4C8E415
:100EB000C9FA22600D08C6A2E713C618C613C6D524
:100EC000E0F322600C08C6C313C618C613C6D5E0EB
:100ED000F422700422600D18C6C333C608C633C698
:100EE000D5E0F41822251810AF08F518400215199E
:100EF0008008F51840021519D2AF22C0D02518106D
:100F0000AF08F518500205198008F51850020519A8
:100F1000D2AFD0D0222518F58210AF08F5184002C4
:100F200015198008F51840021519D2AF85198322CA
:100F30002518F582E43519F58322E4732518C58256
:100F4000C0E0E51934FFC583C0E0E518C3958224ED
:100F5000F9F8E4C5A8858319858218C5A8E8CEF0FC
:100F6000A3E520F0A37808E608F0A3DEFAEFF0A3EB
:100F7000E58124FBF8E608F0A3E608F0A30808E6FC
:100F800008F0A3E608F0A315811581D0E0FED0E0BB
:100F9000F815811581E8C0E0EEC0E022851983854F
:100FA0001882E0A3FEE0A3F5207808E0A3F608DFAE
:100FB000FAE0A3FFE0A3C0E0E0A3C0E0E0A3C0E04C
:100FC000E0A3C0E0E4C5A8858218858319C5A8D030
:100FD00083D0822274028000C0E0F404120F15D086
:100FE000E0120E0A227404800474028000CCC0E077
:100FF000EDC0E0E518C39CCCAD1950011D10AF0643
:101000008C188D1980068C188D19D2AF120E17D03E
:10101000E0FDD0E0FC22CCC0E0EDC0E0E518C39CD0
:10102000CCAD1950011D10AF068C188D1980068C9F
:10103000188D19D2AF120E38D0E0FDD0E0FC22D0CE
:1010400083D082C5F0E493A3C5F0C395F0F5F0E436
:1010500093A3C395F04005E5F0048001E475F00228
:10106000A42582F582E5F03583F583E493A3C0E0FF
:10107000E493C0E022D083D082CCC0E0E493A360AC
:101080000612109F1470FAE493A360061210BE14A7
:1010900070FAD0E0FCE493A3C0E0E493C0E022C087
:1010A000E0E493A3D39C5010E493A3C39C400AD0E4
:1010B000E0D0E0D0E0021092A3A3A3D0E022C0E0F1
:1010C000E493A36C7009D0E0D0E0D0E0021092A3CA
:1010D000A3D0E02200010203040506070809AAAA1A
:1010E000AAAAAAAA0A0B0C0D0E0F10111213AAAA73
:1010F000AAAAAAAA1415161718191A1B1C1DAAAAFF
:10110000AAAAAAAA1E1F2021222324252627AAAA8A
:10111000AAAAAAAA28292A2B2C2D2E2F3031AAAA16
:10112000AAAAAAAA32333435363738393A3BAAAAA2
:10113000AAAAAAAA3C3D3E3F404142434445AAAA2E
:10114000AAAAAAAA464748494A4B4C4D4E4FAAAABA
:10115000AAAAAAAA50515253545556575859AAAA46
:10116000AAAAAAAA5A5B5C5D5E5F60616263000125
:1011700002030405060708091011121314151617A7
:1011800018192021222324252627282930313233FB
:10119000343536373839404142434445464748495B
:1011A00050515253545556575859606162636465A3
:1011B0006667686970717273747576777879808103
:1011C0008283848586878889909192939495969757
:1011D000989900002110422063308440A550C660D9
:1011E000E770088129914AA16BB18CC1ADD1CEE1E4
:1011F000EFF13112100273325222B5529442F7725B
:10120000D662399318837BB35AA3BDD39CC3FFF333
:10121000DEE36224433420040114E664C774A4446A
:1012200085546AA54BB528850995EEE5CFF5ACC583
:101230008DD55336722611163006D776F66695563A
:10124000B4465BB77AA719973887DFF7FEE79DD7D3
:10125000BCC7C448E5588668A778400861180228CA
:101260002338CCC9EDD98EE9AFF9488969990AA923
:101270002BB9F55AD44AB77A966A711A500A333A9A
:10128000122AFDDBDCCBBFFB9EEB799B588B3BBB73
:101290001AABA66C877CE44CC55C222C033C600C2A
:1012A000411CAEED8FFDECCDCDDD2AAD0BBD688DC3
:1012B000499D977EB66ED55EF44E133E322E511E7A
:1012C000700E9FFFBEEFDDDFFCCF1BBF3AAF599F13
:1012D000788F8891A981CAB1EBA10CD12DC14EF1B3
:1012E0006FE18010A100C230E32004502540467019
:1012F0006760B9839893FBA3DAB33DC31CD37FE344
:101300005EF3B1029012F322D23235421452776268
:101310005672EAB5CBA5A89589856EF54FE52CD513
:101320000DC5E234C324A0148104667447642454B8
:101330000544DBA7FAB79987B8975FE77EF71DC723
:101340003CD7D326F2369106B01657667676154608
:1013500034564CD96DC90EF92FE9C899E9898AB973
:10136000ABA94458654806782768C018E108823858
:10137000A3287DCB5CDB3FEB1EFBF98BD89BBBAB83
:101380009ABB754A545A376A167AF10AD01AB32AA8
:10139000923A2EFD0FED6CDD4DCDAABD8BADE89DD3
:1013A000C98D267C076C645C454CA23C832CE01CF8
:1013B000C10C1FEF3EFF5DCF7CDF9BAFBABFD98F63
:1013C000F89F176E367E554E745E932EB23ED10E48
:1013D000F01E0000000002000000FFFFFFFF010000
:1013E000000000E1F50500B4C40400000080001214
:1013F0007A0000350C0080380100008000000436BF
:1014000004364631572E403304360436043604364B
:10141000073682377F3E503F0436043604360436A2
:1014200004360436043600000000030404000340C0
:10143000070000000001000304040003540700003B
:10144000000002000304040003680700000001011B
:10145000024002000002E5014400000102024003D4
:10146000000002E9016C00000103024003000002D9
:10147000F301910000010602400200001300000089
:1014800000010080024003000002ED016C00010138
:101490000004810400000DC001000002010004816D
:1014A0000300000DC401000001020004C00100009F
:1014B000050002000002020004C001000005010254
:1014C000000003020004C001000005020200000445
:1014D000020004C001000005030200000502000430
:1014E000C0020000060C02000001030004C001005D
:1014F00000052401100002030004C00100000523C0
:1015000001100003030004C0010000052E011000BB
:1015100004030004C0010000052F011000050300B2
:1015200004C00100000526011000010400040106AA
:101530000000054000000002040004010600000550
:10154000460000000209000400010004013101000E
:1015500000010B000480020000061D010000020BC8
:10156000000400020000061F010000030B0004003D
:101570000200000621010000010C00042003000904
:1015800005000100000112000400050000054001F3
:1015900000000212000440020000054501000001A5
:1015A000000104402A00080A80022B000100020406
:1015B000402A00080AC0042B000101040480050031
:1015C000FD0C0010000001020404800500FD0C0069
:1015D0001200000003261402054D1404198E140392
:1015E00000000000010000000200000001000000F7
:1015F00003000000010000000200000001000000E4
:1016000004000000010000000200000001000000D2
:1016100003000000010000000200000001000000C3
:1016200005000000010000000200000001000000B1
:1016300003000000010000000200000001000000A3
:101640000400000001000000020000000100000092
:101650000300000001000000020000000100000083
:101660000600000001000000020000000100000070
:101670000300000001000000020000000100000063
:101680000400000001000000020000000100000052
:101690000300000001000000020000000100000043
:1016A0000500000001000000020000000100000031
:1016B0000300000001000000020000000100000023
:1016C0000400000001000000020000000100000012
:1016D0000300000001000000020000000100000003
:1016E00007000000010000000200000001000000EF
:1016F00003000000010000000200000001000000E3
:1017000004000000010000000200000001000000D1
:1017100003000000010000000200000001000000C2
:1017200005000000010000000200000001000000B0
:1017300003000000010000000200000001000000A2
:101740000400000001000000020000000100000091
:101750000300000001000000020000000100000082
:10176000060000000100000002000000010000006F
:101770000300000001000000020000000100000062
:101780000400000001000000020000000100000051
:101790000300000001000000020000000100000042
:1017A0000500000001000000020000000100000030
:1017B0000300000001000000020000000100000022
:1017C0000400000001000000020000000100000011
:1017D0000300000001000000020000000100000002
:1017E0000102040810204080FF00FFFF005500FEAA
:1017F00000AA00FE0000514F0000524FD00100002F
:101800000000534F0000544F0100002080010000F1
:1018100026000020003000002700002006300000D5
:1018200028000020013000002900002002300000C4
:10183000400000002E010000002000000A0000000F
:1018400002020000010100040201000410270A0145
:10185000401F080188130501B80B0301D0070201DE
:10186000E80301010019400A800C200A4006100A12
:101870002003080AF401050A9001040AC800020ABC
:101880006400010A80410000B3010000400700002D
:1018900040470000D910E9010404DD01DA10ED0130
:1018A0000404DD01D810E5010404DF01D610F301C2
:1018B0000400E101D710F7010400E1015123295888
:1018C000957C0C00029A1C05E8030000AF2810026A
:1018D000AF280802161514131211100F0E0D05046F
:1018E000030201000F060D0F060B0B0E0F0E0E026A
:1018F000090709080A0006040C0C0E000E0C0E0F56
:101900000A060E0EEBEAE9E8E0E23332E1001020CD
:1019100068788898A8536300B9B8BA00000300013A
:1019200000040000000000000000000000000000B3
:10193000000000000000000000000031515058601D
:10194000614A49525930485A5B62BB4B0000000063
:101950008301000085010000890100009101000061
:10196000A1010000820D0000840D0000880D000020
:10197000900D0000A00D000000500000003000009D
:1019800000800100000000000000000000000000D6
:1019900000000000000000000000000043004200C2
:1019A0004100400039003B003A00380000065B4F20
:1019B000666D7D077F6F777C395E7971BF86DB004E
:1019C000000000020000010000030000020000040B
:1019D00000000300000500000400000600010000F4
:1019E00000070001010000080001020000090001D9
:1019F0000300000A00010400000B00020000000CBC
:101A000000020100000D00020200000E00020300AF
:101A1000000F00020400001000030000001100038A
:101A20000100001200030200001300030300001471
:101A3000000304000015000101000416000201006B
:101A40000417000204000418000204000419000E28
:101A50000400041A000E0400041B00000101021C13
:101A600000000102021D00000103021E00080080A8
:101A7000021F000001060220000100800221000078
:101A80000000000000010043020043030043040083
:101A9000430500430601430701430801430901438D
:101AA0000A01430602430702430802430902430AAC
:101AB00002430603430703430803430903430A039E
:101AC000430C00010C008200001100001100009383
:101AD0000000940000C600009500008700009400FC
:101AE000000000000000008702871A01000C000DB2
:101AF000028200000100020012A012800280000099
:101B00000000008000000205000000000400010C3D
:101B1000020000080000000000000000008808002B
:101B20000000000000200006800004000103000205
:101B3000020004012301000024010000260100002E
:101B4000BFFFFFFFC0FFFFFF040000000800000010
:101B50001000000020000000000000AA001100AAF0
:101B6000A00000AA0000A0AAAAAAAAAAEEDDCC00A2
:101B70006F2B00003F000000040100000001000086
:101B8000FFFEFFFF010202200408088020804001C0
:101B90004001014328402801014328402802014315
:101BA00028402804014328402808014328402810E1
:101BB0000143284028200143284028400143284071
:101BC0002880024B28482801024B28482802024B53
:101BD00028482804024B28482808024B2848281087
:101BE000024B28482820024B2848284004532850FC
:101BF0002801045328502802045328502804045371
:101C000028502808045328502810024B28482880C0
:101C100004532850282013020000118029128764E1
:101C200014802913632D15B82D02DA2A8096184BDB
:101C3000307AF37CAD7C4B7F5502550280008000EA
:101C40003232D502D502800080000A32B004000092
:101C50000360090000030000040402010302050DF3
:101C6000060E070F09070E100F03100C11110B06BB
:101C700008080A0B0F0514006400031E0064000925
:101C8000280064000A3200F4017D64002826011156
:101C90005102824604464005805C03214B092450D2
:101CA0000DB74F0E784F0FD34C1019550CF13F1153
:101CB000374006564107046308585E0A776D0B12D9
:101CC0000100020304040802100E050006000001D2
:101CD00031000001120000009900000059000000CE
:101CE000590000002300000006020306010406025A
:101CF00005000305001F1C1F1E1F1E1F1F1E0000C6
:101D0000000000001F1E1F00001F003B005A00784B
:101D1000009700B500D400F300110130014E01100E
:101D20000E000080510100C0010000C0410000060B
:101D3000000000B1040000B004000001020408101B
:101D400020408000000000000000000000000000B3
:101D50000000000000000000000000000000000083
:101D60000000000000000000000000000000000073
:101D70000000000000000000000000000000000063
:101D80000000007408120EFB7F08020F9CC082C086
:101D9000838A828B83A3E0F98A828B83E02400FA12
:101DA000E439FB8000D083D08222121E0A120DD9A2
:101DB000AA08AB09AC0AAD0B7404120EFB7F040237
:101DC0000F9C851882851983EAF0A3EBF0A3ECF051
:101DD000A3EDF02274F5120F3C74FC120EE5121EF6
:101DE00014C0E07401120F30D0E01220C70AAB8398
:101DF000E0C0E07402120F30D0E01220C7E0C0E073
:101E00007403120F30D0E0021DAAF08518828519E4
:101E1000837808228A828B83E08518828519831251
:101E200020CCA3AA82AB83E02274F7120F3C790086
:101E3000C3EA9410EB942740077AFF7BFF021EFA57
:101E4000C3EA9440EB941F400A7980EA24C0FAEB7D
:101E500034E0FBC3EA94A0EB940F400C744049F9C2
:101E6000EA2460FAEB34F0FBC3EA94D0EB94074029
:101E70000C742049F9EA2430FAEB34F8FBC3EA94F5
:101E8000E8EB9403400C741049F9EA2418FAEB3497
:101E9000FCFBC3EA9420EB9403400C740849F9EA74
:101EA00024E0FAEB34FCFBC3EA9490EB9401400C81
:101EB000740449F9EA2470FAEB34FEFBC3EA94C8CF
:101EC000EB9400400C740249F9EA2438FAEB34FF31
:101ED000FBC3EA9464EB94004008740149F9EA24D6
:101EE0009CFAEAF508C3946440057508FF8007E58D
:101EF0000812203AF508AA08E9FB02203574F1120D
:101F00000F3C74F8120EE5121FEF7808120DE874FA
:101F100004120F307808120DFB851882851983C0D2
:101F200082C0839013E27808120DE8D083D08278C3
:101F300008120457400B7AFF7BFF7CFF7DFF021FD6
:101F4000EC9013E6780C120DE89013EA7808120D65
:101F5000E87A00851882851983780C120457401599
:101F60007404120F307808120DC685188285198303
:101F7000780C120D8C74017808120CD8EA121075C6
:101F80000003038D1F07971F0B9C1FA61F9013EEC6
:101F9000780C120DE880169013F280F49013F67806
:101FA0000C120DE880077401780C120CD80AEAC3F1
:101FB0009410409F8518828519837808120DD9AA3C
:101FC00008AB09121E298A088B09750A00750B00D7
:101FD0007404120F307808120DC67404120F307892
:101FE00008120DD9AA08AB09AC0AAD0B021D831269
:101FF0001DC29013D222E50824D4F582E43410F5F2
:1020000083E49322E0F508C3949A2274F7120F3CFC
:10201000E9C3949A400479AA8005E9121FF8F9806F
:102020001474F7120F3CE9C39464400479FF8005EF
:10203000E912203AF97F02020F9C246EF582E43403
:102040001180BC74F7120F3CEAF8EBF97A557B5516
:10205000EC7001ED6039EAFFEBFA88828983E06A6F
:10206000C333FAE433FBEA24D2F582EB3411F5836F
:10207000E493FAA3E4936FFB88828983A3A882A9DF
:1020800083EC24FF1CED34FFFDEC7001ED70C70202
:10209000203574F7120F3CE96024198A828B831271
:1020A000200440047CAA8004121FF6FC8A828B83E1
:1020B000A3AA82AB83ECC394645008E970DC790076
:1020C000022035790180F91220CCA322F08A828B7C
:1020D000832274F8120F3C7E0080208C828D83A3B3
:1020E000A3A3E4938A828B83F00E8A828B83A3AAB4
:1020F00082AB83EC2404FCED3400FDEEC399502C3C
:102100008A828B83E0F5088C828D83E493FFE50857
:10211000C39F4008A3E493C3950850CD8C828D8360
:10212000A3A3E493A2E740B37901800279007F0181
:10213000020F9C74F8120F3CE9FE6026EAF8EBF9F6
:10214000EEFA88828983E08C828D83F0888289838D
:10215000A3A882A9838C828D83A3AC82AD831AEA63
:1021600070E002212E00000000227B147A1E1B006A
:102170001AEA70FBEB70F52274F1120F3C74FC123A
:102180000EE57401120F30E9F08A088B098A0C8B76
:102190000D8C0E8D0F740F780C120CD8E50CC33318
:1021A00024A0C0E07403120F30D0E0F074FF550893
:1021B000FE747F5509FF7402120F30E4F074C05EA4
:1021C000F874FF5FF97401120F30E02EFAE43FFB60
:1021D00074FF2A1A74FF3BFB74C05A687002EB69E3
:1021E0006010EE543FFA7440C39A851882851983B3
:1021F000800AE080F57402120F30E004F0C2AF757F
:10220000CEA575CF5AD2AF7402120F30E0C394033B
:1022100040077902740402242512257A7403120FF0
:102220003012242D70CFEF12242E70C9EE12242EFE
:1022300070C37413120F30E0F508A3E0F509750AB6
:1022400000851882851983E0604C7413120F3012D8
:10225000245012242D70227413120F30122459743A
:1022600013120F30E8F0A3E9F0050A8518828519EA
:1022700083E0FAE50AC39A40D1851882851983E084
:10228000FAE50AC39A500F7413120F30E508F0A351
:10229000E509F00221F512243DE0C0E07401120FBF
:1022A00030E0FAD0E0C39A400579000222148E0C87
:1022B0008F0D750E00750F00851882851983E0F566
:1022C00008750900750A00750B00780C7908120D65
:1022D00010850C08850D09AE08AF099013FA78082F
:1022E000120DE87808790C12044740097403120FA4
:1022F00030E02402F0851882851983E0FA74011217
:102300000F30E0C39AF0C39441400574400221EAC3
:102310000221F274F1120F3C74FE120EE5740112E8
:102320000F30E9F08A0C8B0DE4851882851983F053
:102330008A088B098C0A8D0B740F7808120CD8E56B
:1023400008C33324A0F50A74FF550CF508747F55B3
:102350000DF509AE08AF09850A0B122434E9701295
:10236000EF12242E700CEE12242E7006122444E973
:102370006008E004F0C3940340D9E4F07401120F44
:1023800030E0700302241E1224A27411120F3012C6
:102390002450E9F0851882851983E0FA7401120F40
:1023A00030E0F874FF281874FF3400F9E86A70010F
:1023B000E96009C3EE94FFEF947F40051225EA809F
:1023C0000312261B7411120F301224597411120FAC
:1023D00030E8F0A3E9F0C3EE94FFEF947F401B12C6
:1023E000243D7EFF7FFF050B050B1224347900127C
:1023F000250D790012250D12244485188285198334
:10240000E004F0EE24010EEF3400FFE0C0E07401C0
:10241000120F30E0FAD0E0C39A500302238712244F
:102420003D79007402120EFB7F08020F9CE0F91246
:10243000250DE92212257AA90B12250D221225A6B7
:1024400012216A2212257A7401250BF912250D2218
:10245000E0F8A3E0F583888222E02401F8A3E034C9
:1024600000F92274F3120F3C740D120F30122498ED
:10247000120FD479011223137402120EFB79007F1C
:1024800006020F9C74F3120F3C740D120F301224CD
:1024900098120FD4790280DDE0F50CA3E0F50D78F9
:1024A0000C2274F8120F3C1224E712256EE49001FE
:1024B00051F07E089028AEE0C2E21225CDD2E212A1
:1024C0002505C333F09028AFE0A2E15007900151F9
:1024D000E0D2E0F01EEE70DC9028AEE0C2E2122501
:1024E00005F97F01020F9C9028AEE0C2E21224F1B0
:1024F000221224F522F09028ADE0C2E2F09028AC40
:10250000E0C2E2F0221224F1900151E02274F812AC
:102510000F3CE9900152F01225D17E081224E79079
:102520000152E0A2E79028AEE05004D2E18002C25E
:10253000E11225DA900152E0C333F0122165122531
:10254000991EEE70D79028AEE0C2E212259F1225A8
:102550006E1225999028AFE0A2E15004D2F08002DB
:10256000C2F0A2F0E492E0F91224E70224E2E0D201
:10257000E1F09028ADE0D2E1F022C082C0831225C4
:10258000F3C2E11225C09028AEE0C2E212259F807E
:10259000031224EBD083D082229028AEE0D2E21244
:1025A00024F112216522C082C0831225D112216537
:1025B0001225C7D2E11225C012256E1224E780D45D
:1025C0001225DA122165229028AEE0D2E2122613FB
:1025D00022122605C2E11225DA22F09028ADE0C2CF
:1025E000E1F09028ACE0C2E1F022C082C083122565
:1025F000F3809E122605D2E11225DA9028AEE0D2B1
:10260000E2122613229028AEE0C2E21224F59028AE
:10261000AEE0221224F512216580F3C082C083123D
:1026200025D11225C702259174F8120F3C750800B8
:102630007E4F7F028E828F83E0A2E0501EE508125B
:10264000103F000153264A264E2679008002790168
:102650001226718E828F83E0C2E0F00508EE240519
:10266000FEEF3400FFE508C3940240C87F01020F6B
:102670009C74F8120F3C74F9120EE5E9FEC3940243
:102680005064EE851882851983F012719C740512CE
:102690000F30EAF0A3EBF07405120F30C3E0948121
:1026A000A3E09400400B7405120F307480F0A3E493
:1026B000F0EEF91271B57403120F30EAF0A3EBF0EB
:1026C0007403120F30E0F8A3E0F97401120F30E840
:1026D000F0A3E9F0851882851983AA82AB8312647E
:1026E00099EEF91271DC7407120EFB02266C74F776
:1026F000120F3C752100901CBFE493131313541F59
:1027000004600A7822FA7600081AEA70F97508144B
:102710007509007808120FD47C007D007A257B00B3
:1027200012800A7402120EFB7F02020F9C74F512D3
:102730000F3C7D267C04EDF8E6700208E6702FC29F
:10274000AF74FF2DF8E6122908C0E074222AF8D0F1
:10275000E0C646F6D2AF74022DF8E6FA08E6FBEAC8
:102760007001EB6014181818EAF608EB800AEDF80F
:10277000E624FFF608E634FFF674052DFD1CEC7028
:10278000B57F04020F9CC082C083E5211227A6FA00
:1027900074222AF8E61227A6F8EA33333354F828CD
:1027A000F9D083D08222C333F8E433F9E824E0F58A
:1027B00082E93415F583E4932274F7120F3CE91390
:1027C0001313541FFC74222CF8890874075508123F
:1027D00027E2C656F67008EC1227E25521F52102D1
:1027E000272812291FF42274F8120F3C7F267A76CC
:1027F0007B1C7E02EA24FFF582EB34FFF583E49331
:10280000C0E074FF2FF8D0E0F68A828B8312283C58
:1028100012284EE49308F68A828B83A3A3A312287E
:102820004EA3A3A312283CEA240AFAEB3400FB745B
:102830000A2FFF1EEE70BD7F01020F9C122840225E
:10284000E493FC740193FD08ECF608EDF622A3A3D3
:102850001228408A828B83A3A3A3A32274F8120FA9
:102860003CE521604E122786E9FE7A00788B791CC0
:10287000800B0AE82403080808E93400F9901CBF1B
:10288000E493FBEAC39B502B88828983E4936E70A8
:10289000E1EA75F003A42489F582E5F0341CF583A0
:1028A000E493C0E0740193F583D082120F3AEEF9FD
:1028B0001227B9808274F5120F3C7C007A567B1C7B
:1028C000800A0CEA24020A0AEB3400FB901C74E430
:1028D00093FDECC39D502E8A828B83E4936970E252
:1028E000C2AFECC333F8E433F9E82457F582E93496
:1028F0001CF583E493122908C0E074222AF8D0E082
:10290000C646F6D2AF022781F508131313541FFAF7
:1029100012291F4521F5217407550812291F222469
:10292000E0F582E434170227B474F8120F3CE5395D
:102930007002E53A6047750800901CCAE493603D58
:102940007EC07F1C8E828F83E493FAA839E85A6098
:1029500015EAF4783956F6A3E493F91228B5E53967
:102960007002E53A60170508EE2402EF34000E0EFF
:10297000FF901CCAE493FAE508C39A40C7022837BF
:1029800074F1120F3C74FC120EE58A0E8B0F750C5D
:102990000078D379158A828B83A3A3A3A3A3A3A3CF
:1029A000A3A3E0FB801388828983E4936B603005E6
:1029B0000CE82404F8E93400F99015DFE493FAE513
:1029C0000CC39A40E17402850E82850F83A3A3A3F2
:1029D000A3F07401850E82850F83A3F0022AD5E54A
:1029E0000E2406F582E50F122DB3E50CC082C083DC
:1029F000701E9017E87808120DE8D083D08278080E
:102A0000120DA08518828519837808120DFB80139A
:102A1000851882851983AC82AD83D083D0827404FB
:102A2000120E17750D007402780C120ED2E50C24EC
:102A3000D3F8E50D3415F988828983A3A3E493FEC6
:102A4000740193FF8518828519837404120FED8831
:102A5000828983A3E493F9EEFAEFFB122C49740404
:102A6000120EFBE9FA74FF6A70030229C5850E8213
:102A7000850F83A3A3A3A3A3A3A3E064FF700F8583
:102A80000E82850F83A3A3A3A3A3E0D2E6F0EA7589
:102A9000F00DA4F8A9F0EE28FCEF39FDAA0EAB0F5B
:102AA0008C828D83A3A3A3A3A3A3A3A3E493C33383
:102AB000F8E433F9E824FEF582E93413F583E4936E
:102AC000C0E0740193F583D082120F3AE964FF707D
:102AD0000479FF800279000230B374F5120F3CEAEA
:102AE000FEEBFFEE240EFAEF3400FB8A828B83129A
:102AF00031148E828F83122E4B1235AFE08E828F6F
:102B000083A3122E4B1230C7122C2D122E511235C8
:102B1000AF122C2DA3123D617808120DD99017EC3D
:102B20007808120419700B740190024AF0790002BF
:102B30002C2A9017F078081204197008E490024AC1
:102B4000F0022C229017F478081204197005790706
:102B5000022C1F9017F878081204197019122C37DC
:102B6000120FD479199017FC7808120DE8123F243F
:102B7000120EFB022C22901800780812041970051E
:102B80007905022C1F901804780812041970057931
:102B900006022C1F9018087808120419701A122CBB
:102BA00037120FD4793590180C7808120DE8123FBF
:102BB00024120EFB79098067901810780812041906
:102BC000700D122C37120FD4790190181480439095
:102BD00018187808120419700D122C37120FD479B6
:102BE0001490181C802C9018207808120419700D6D
:102BF000122C37120FD479019018248015901828C0
:102C00007808120419701B122C37120FD479049013
:102C1000182C7808120DE8123F24120EFB790A12C4
:102C200028B5E48E828F83A3F0F9022E0DA3A3E0D2
:102C30008E828F83023D6D8A828B83E02404F508A7
:102C4000A3E03400F50978082274F1120F3CEAFE83
:102C5000EBFF7C0074FF29FB7410120F30E064FF5F
:102C60007002E4F0740F120F30C082C0838E828F26
:102C7000837808120DE8D083D08278081204575068
:102C80000D79FF022D4CEB6A605874012AFC8C0A06
:102C90008B08E508250AF508E43400F50974017885
:102CA00008120EB3AA08EA75F00DA4F8A9F0EE28F0
:102CB000F582EF39F5837808120DE8740F120F30A2
:102CC0007808120404601B740F120F30780C120D78
:102CD000D9780C790812044740ACEC6A7071EA604C
:102CE000011AEA75F00DA4F8A9F0EE28F8EF39F909
:102CF00088828983E493FCA3A3A3A3A3A3A3E4935F
:102D00002CFCE43400FD740F120F30122D565003CA
:102D1000022C8188828983A312313CE4932CFCE449
:102D20003400FD7410120F30122D565003022C8106
:102D300088828983A3A3E493C0E07411120F30E06A
:102D4000FBD0E0C39B5003022C81EAF90230B87437
:102D5000FF2AFB022C8EE0FEC3EC9EED9400C365BF
:102D6000D0332274F5120F3C8A828B83A3AE82AFDC
:102D7000838A828B83A3A3A3A3A3E06401701A12A6
:102D80002DAD120FE979069018307808120DE8126F
:102D90003D4F120EFB7406800E8A828B83A3A3A381
:102DA000A3E0D2E0F074018E828F83805DEA240E6E
:102DB000F582EB3400F5832274F5120F3C8A828B86
:102DC00083A3AE82AF838A828B83A3A3A3A3A3E052
:102DD000640160178A828B83A3A3A3A3E0D2E0F0EF
:102DE00074018E828F83F07900801D122DAD120F39
:102DF000E979069018307808120DE8123F24120E77
:102E0000FBE48E828F83F0F98003F079007F040267
:102E10000F9C8882898322123F3DE0FAA3E0FB22C7
:102E2000851882851983EAF0A3EBF085188285194D
:102E300083228E828F83E0F8122E3C22A3E0F5835A
:102E40008882023D713400F583E022A3A3A3A3A3EB
:102E5000A3F08A828B832274F1120F3C74F5120E58
:102E6000E57404120F301232F47407120F30ECF0D4
:102E7000A3EDF07404120F30E024081232FC740940
:102E8000120F3012332A7409120F30123114F9C3A1
:102E90009403400579FF0230AF7404120F30E02430
:102EA00005FEA3E03400FF8E828F83E0A2E640039C
:102EB000022FA5750C00750E00750F007404120F1B
:102EC000301235DA7409120F30123114F975F0141A
:102ED000A42471FAE5F03401FBE50E2AF582E50F32
:102EE0003BF5837808120DD98518828519837808F7
:102EF000120DFB851882851983AA0C1244118A08C9
:102F0000EBF5091230BD120D23AA08AB09AC0AADCE
:102F10000B121EFD851882851983123123122E2A69
:102F20007808120DD974047808120CD88518828597
:102F3000198312312C851882851983E0C0E0123084
:102F4000DCD0E0F07401120F30E0C0E01230DCA3FE
:102F5000D0E0F07402120F30E0C0E012310ED0E089
:102F6000F07403120F30E0C0E012310EA3D0E0F095
:102F7000050CE50E2404F50EE50F3400F50FE50C05
:102F8000C394055003022EC47407120F30123DD9AA
:102F9000E49304C0E07407120F3012333AF5F0D016
:102FA000E0A40230A07404120F30123DE6E0FA8A69
:102FB0000875090074027808120ED2E975F014A49D
:102FC0002471FCE5F03401FDE5082CF582E5093DAE
:102FD000F5837808120DD98518828519837808122F
:102FE0000DFB1244118A088B098E828F83E0A2E7C1
:102FF00074065028120F3085820A85830B780A12D6
:103000000FD47901901834780C120DE8AA0CAB0D8E
:10301000AC0EAD0F123D57120EFB8006120F30742E
:1030200001F0851882851983E5091230BD120D2340
:10303000123303120DFB8518828519837808120D4F
:10304000D974047808120CD88518828519837808F9
:10305000120DFB7404120F301235DA8518828519AF
:1030600083E0C0E08E828F831230C7D0E0F074011D
:10307000120F30E0C0E01235ABD0E0F07402120F56
:1030800030E0C0E01230F8D0E0F07403120F30E00E
:10309000C0E0123105D0E0F07407120F301233385F
:1030A000C0E07404120F301235AFD0E0F079007434
:1030B0000B80027404120EFB7F08020F9C3395E014
:1030C000F50AF50B7808221230CB221230CF2212EB
:1030D00030D322E0F8A3E0F5838882221230E02288
:1030E0008E828F83E0250EFAA3E0350F8005FAA3C8
:1030F000E034008A82F583228E828F83123100228F
:103100001235B7A3228E828F83123100A322123090
:10311000E0A3A322123118221230CFE022E0F8A35C
:10312000E0F9221232F4A3ECF0A3ED22E508F0A3BB
:10313000E509F0A3E50AF0A3E50BF022E493FC888F
:10314000828983023D6F74F1120F3C74F6120EE512
:103150007406120F301232F47404120F30ECF0A324
:10316000EDF07406120F30123114641470167406E8
:10317000120F30122E387401F07406120F3012350F
:10318000C00232EC7404120F30123E3BE493F87428
:103190000193F9888289837808120DD98518828570
:1031A00019837808120DFB851882851983780C1213
:1031B0000DD97404120F30123DBAE493F582AA823D
:1031C0001313543F5403FCEAC41354075403C39C21
:1031D000FE601390183C7808120DE8780C790812FC
:1031E0000C861EEE70ED7404120F30E024041232CF
:1031F000FC7408120F3012332AEAA2E050649013D4
:10320000D27808120DE87808790C120432505E78F2
:103210000C120CC7851882851983780C120DFB746B
:1032200008120F30123330501185188285198378B7
:1032300008120DD9123303120DFB7404120F301251
:103240003338F8851882851983E58228F8E58334B8
:1032500000F974FF28F58274FF39F583E0D2E7F0B6
:103260008026851882851983780C120DFB7408124C
:103270000F30123330501185188285198378081267
:103280000DD9123303120DFB7404120F30E0240524
:10329000123DB6E493FAEEC39A50438E82AA828519
:1032A0001882851983E5822AF582E583122E45C0AE
:1032B000E07406120F30E0240EFCA3E03400FD8C15
:1032C000828D83E02AFCA3E034008C82F583D0E079
:1032D000F00E88828983E493FAEEC39A40BDE493AA
:1032E000C0E07406120F301235AFD0E0F0790074F0
:1032F0000A0230B5EAF0A3EBF022E028F8A3E034AC
:1033000000F92212330F851882851983780822AAC2
:1033100008AB09AC0AAD0B121EFD8A088B098C0A9A
:103320008D0B22F9851882851983E8F0A3E9F02234
:103330001230CBE493A2E622E0F8123DD4E49322CB
:1033400074F1120F3C74FC120EE57402120F30126D
:1033500032F48C088D09851882851983E4F0A3F076
:103360007402120F30123114FA8C828D83A3A3A33E
:10337000A3E493A2E4500574146A60138C828D83D5
:10338000A3A3A3A3E493A2E5501B74116A7016745F
:1033900002120F30122E387404F07402120F301221
:1033A00035C0023595EC2405F50CED3400F50D74AF
:1033B000116A60030234ECEC2407FEED3400FFECEC
:1033C0002409F50EED3400F50F8E828F83E493709F
:1033D0000302346685188285198385820A85830BEA
:1033E000780A120FD47901EC240BF582ED123D8698
:1033F000F50AE993AA0AFB7C007D00123D57120EE4
:10340000FB85188285198312311D12359B120E5AC5
:10341000122E20C082C0837402120F30123DF7D0EA
:1034200083D082123DEB12359B120E5AEA85188228
:10343000851983F0A3E4F0850E82850F83C082C0D6
:1034400083850C82850D8393F50A851882851983FF
:10345000E0850AF0A4F8A9F0D083D082E49328F89C
:10346000A3E49339800C850E82850F83E493F8746E
:1034700001931233237402120F301235E8120FE950
:10348000850C82850D83E493F97402120F30123596
:10349000F0120EFB850882850983A3A3A3A3E493FE
:1034A000A2E65031750A00850C82850D83E4936095
:1034B00024850A828582081235D0E0F91220211273
:1034C00035D0E9F0050A850C82850D83E493FAE591
:1034D0000AC39A40DC850C82850D83E493C0E074B6
:1034E00002120F301235AFD0E00235958C828D83F9
:1034F000A3A3A3A3E493A2E65039750E00740212AD
:103500000F301235DA850C82850D83E493602485B3
:103510000E8285820A1235C6E0F912200B1235C6DA
:10352000E9F0050E850C82850D83E493FAE50EC360
:103530009A40DC850882850983A3A3A3A3A3A3A340
:10354000A3A3E493F87401931233237402120F308F
:10355000123DB3120FE9850C82850D83E493F97453
:1035600002120F301235F7123F2C120EFB85088223
:10357000850983A3A3A3A3E493A2E7500FE508243E
:103580000BF582E509123D86F91228B57402120F77
:10359000301235AFE4F079000230B38E828F83E4CD
:1035A00093FA74012A0AE43400FB228E828F83127C
:1035B00035B3221235B7221235BB221230D3A322E3
:1035C0001235B37401228E828F83E0250A0230EE19
:1035D0008E828F83E025080230EE1235DE22E02451
:1035E0000EFEA3E03400FF221235DE8E828F83228E
:1035F0001235F7123E7022E0F50AA3E0AA0AFB7C1E
:10360000007D002279002274F3120F3C74FF120E29
:10361000E58A0C8B0D8C828D83A3A3A3A3A3A3A304
:10362000A3A3C082C0838A828B83A3A3A3A3A3A3E3
:10363000E0F874FF281874FF3400F98C828D83A39E
:10364000A3A3A3A3E493F508E88508F0A4F8AAF0DF
:103650008508F0E9A42AF9D083D082E49328FEA358
:10366000E49339FF8518828519838582088583094B
:103670007808120FD479019018407808120DE812DA
:103680003D4F120EFB850C82850D83E06411704C5A
:10369000851882851983E0C3940F4003740EF0E50A
:1036A0000C240EF582E50D122DB3120FE975F0030F
:1036B0007402120F30E0A4F98E088F09AA08AB0932
:1036C0007C007D00123D57120EFB75F003851882B9
:1036D000E0A4850C82850D83A3023775A38582083B
:1036E000858309E024F4F0FA75F00384E5F0707244
:1036F0008A82A882851882851983E075F003A4FC6C
:10370000ABF0E42BFDEC98ED9400A2D265D03340F1
:1037100051E50C240EF50AE50D3400F50B850A82FF
:10372000F583E028FCA3E03400FD742AC39AF9EC89
:1037300024FDFAED34FFFB122133850A82850B83C9
:10374000120FE9792A8E0A8F0BAA0AAB0B7C007D37
:1037500000123F2C120EFBE4850882850983F0F9E4
:1037600080167401850C82850D83A3A3A3A3F08525
:103770000882850983F079007401120EFB7F06022E
:103780000F9C74F1120F3C74F3120EE57408120FC3
:10379000301232F4ECFEEDFF7406120F30E4F0A3A9
:1037A000F09013D27808120DE88518828519837875
:1037B00008120DFB7406120F308582088583097884
:1037C00008120FD47901EE240BF582EF123D86F535
:1037D00008E993AA08FB7C007D00123D57120EFBFE
:1037E000EE2407F8EF3400F9E8FCE9FD7406120F47
:1037F0003012311D8C828D8312359F120E5A740641
:10380000120F301232F47406120F30C082C083746B
:1038100008120F30123DF7D083D082123DEB8C821C
:103820008D8312359F120E5AEAF87406120F30E893
:10383000F0A3E4123D5BA3C082C0838E828F83A37A
:10384000A3A3A3A393F5087406120F30E08508F034
:10385000A4F8A9F0D083D082123F467406120F302C
:1038600012332A7408120F30E024071232FC740B52
:10387000120F3012332A740B120F30123114FA74F3
:1038800008120F30123DFDE064046003023A9DEA25
:1038900070257408120F30123DB3120FE9790574C8
:1038A00008120F30123E76120EFB7408120F3012FF
:1038B00035AF7405023D477408120F30E02401084B
:1038C0001232FD7404120F3012332A7408120F30B2
:1038D0001235DA74FF6A6003023A118E828F831206
:1038E0000FE979057408120F30123E76120EFB852F
:1038F00018828519838582088583097808120FD478
:1039000079047408120F30123E40120EFB851882A3
:10391000851983780C120DD990183C7808120DE89F
:10392000780C7908120BEC851882851983780C12B3
:103930000DFB8518828519837808120DD91233037F
:10394000120DFB123DCAEAF07401120F30E0C0E024
:103950008E828F83123DD9D0E0F07402120F30E0D6
:10396000C0E08E828F83123DE6D0E0F07403120F28
:1039700030E0C0E08E828F83123DFDD0E0123D76B4
:10398000120FD479047408120F30E02409123E4358
:10399000120EFB851882851983780C120DD99018A8
:1039A0003C7808120DE8780C7908120BEC85188227
:1039B000851983780C120DFB851882851983780888
:1039C000120DD9123303120DFB123E37EAF07401C7
:1039D000120F30E0C0E0123E37A3D0E0F0740212C4
:1039E0000F30E0C0E08E828F83123DBAD0E0F074D9
:1039F00003120F30E0C0E08E828F83E0240C123D72
:103A0000B6D0E0F07404120F301230C7740D023DCE
:103A1000478518828519838582088583097808126D
:103A20000FD479047408120F30123E40120EFB8539
:103A30001882851983780C120DD990183C780812D9
:103A40000DE8780C7908120BEC85188285198378BB
:103A50000C120DFB8518828519837808120DD91276
:103A60003303120DFB123DA7120F30E0C0E01235F8
:103A7000ABD0E0F07402120F30E0C0E01230F8D0AA
:103A8000E0F07403120F30E0C0E0123105D0E0F036
:103A90007404120F301230C77404023D47EA7003F9
:103AA0000238927408120F301235DA74106A60030B
:103AB000023B5A8518828519838582088583097897
:103AC00008120FD479047408120F30E0242D123E2E
:103AD00043120EFB8518828519837808120DD912BE
:103AE0003303120DFB123DA7120F30E0C0E0123578
:103AF000ABD0E0F07402120F30E0C0E01230F8D02A
:103B0000E0122E2AE0C0E0123105D0E0F07401127C
:103B10000F30E0C0E0122E32D0E0F07402120F300D
:103B2000E0C0E0123DCAD0E0F075081275090078D7
:103B300008120FD47C007D008E828F83E02406FA69
:103B4000A3E03400FB12800A7402120EFB74081208
:103B50000F301235AF7418023D4774FF6A600302DC
:103B60003C608E828F83120FE979057408120F3042
:103B7000123E76120EFB7404120F30E4F0A3F074C0
:103B80000A120F307405F085188285198385820822
:103B90008583097808120FD479047408120F30C095
:103BA00082C0837406120F30122E1AD083D0821274
:103BB0003D8D120F30123E4D120EFB851882851975
:103BC00083780C120DD990183C7808120DE8780C07
:103BD0007908120BEC851882851983780C120DFB7D
:103BE0008518828519837808120DD9123303120DB6
:103BF000FB851882851983E0C0E07404120F30122F
:103C00003E27D0E0F07401120F30E0C0E0740412DF
:103C10000F30123E27A3D0E0F07402120F30E0C044
:103C2000E07404120F30123E31D0E0F07403120F32
:103C300030E0C0E07404120F30123E31A3D0E0F047
:103C40007404120F30123D97120F30E014F060032D
:103C5000023B877408120F301235AF7419023D47CA
:103C60007404120F30E4F0A3F0740A120F307405DC
:103C7000F085188285198385820885830978081262
:103C80000FD479047408120F30C082C083740612F6
:103C90000F30122E1AD083D082123D8D120F3012A7
:103CA0003E4D120EFB851882851983780C120DD9B2
:103CB00090183C7808120DE8780C7908120BEC8506
:103CC0001882851983780C120DFB8518828519835B
:103CD0007808120DD9123303120DFB85188285194D
:103CE00083E0C0E07404120F30123E07D0E0F0749D
:103CF00001120F30E0C0E07404120F30123E07A32F
:103D0000D0E0F07402120F30E0C0E07404120F3003
:103D1000123E21D0E0F07403120F30E0C0E07404D2
:103D2000120F30123E21A3D0E0F07404120F3012B3
:103D30003D97120F30E014F06003023C71740812DA
:103D40000F301235AF7414F07900740D0230B5AA3B
:103D500008AB09AC0AAD0B123E7022123D61A3A361
:103D600022123D66A322F08E828F838003A3A3A339
:103D7000A3A3A3A3A322F0851882851983858208B3
:103D80008583097808223400F583E49322E02AFA37
:103D9000A3E03BFB740D22123D9D740A22E0240433
:103DA000F0A3E03400F0228E828F831230CBEAF051
:103DB000740122E0240E123DC122E0240B123DC109
:103DC00022F8A3E03400F9022E128E828F83123D76
:103DD000D222E0F8122E3CA322123DDD22123DE158
:103DE000221235BB808A123DDDA3221232FA74FF03
:103DF000281874FF39F922123DDDE0F822123E0145
:103E000022123DE1A3A322123E0B22123E0F22E01A
:103E1000F8A3E0F98E828F83E028FAA3E03902301C
:103E2000F3123E0BA3A322123E2B22123E0F023DA1
:103E300070123E2BA3A3228E828F83123E01A322F7
:103E4000E02405F508A3E03400123E69221231187F
:103E500075F014A4FCADF074F12CFC74FF3DFDEC86
:103E60002AF508ED3B123E6922AA08FB7C007D0082
:103E7000122313740222E0F508A3E0123E692274B3
:103E8000F1120F3CEAFEEBFF8E828F83A3A3A3A364
:103E9000A3A3E0F5088E828F83A385820E85830F0E
:103EA000C39429400D74018E828F83A3A3A3A3F032
:103EB00080668C828D83A3A3A3A3A3A3A3A3A374CF
:103EC000FF2508F874FF3400F9E875F005A4F8AA96
:103ED000F075F005E9A42AF9123F46123F3288082E
:103EE00089098E828F83E06411780C7017120FD4C9
:103EF0007905AA08AB097C007D00123D57120EFB24
:103F000074058014120FD47905AA08AB097C007DD2
:103F100000123F2C120EFBE4850E82850F83F07990
:103F2000000230B8AA08AB09AC0AAD0B12217874B4
:103F30000222123F3DE0F50CA3E0F50D22EE240E27
:103F4000F582EF022DB3E49328F8A3E49339F92224
:103F500074F3120F3CEAFEEBFF8C0C8D0D8E828FFA
:103F600083A3A3A3A3A3A37808120DD98E828F8362
:103F7000E064119018447808702E120419701B79AF
:103F800000122E17127814850C82850D83A3A3A32B
:103F9000A3A3E4938E828F838047901848780812F9
:103FA0000419703F790280D912041970157900EE56
:103FB000240EF582EF122DB3123FE879081228B5CE
:103FC000802190184878081204197004790280DF63
:103FD00074018E828F83A3F074028E828F83A3A3D9
:103FE000A3A3F0790002377DE0FAA3E0FB12788FFB
:103FF0002274F3120F3C790312425190183878085A
:10400000120DE87E08750C43750D1D780C120FD447
:104010007940124029120EFB9018307808120D36A4
:104020001EEE70E77F06020F9CAA08AB09AC0AAD32
:104030000B1221787402221263041257081241569F
:10404000790A1228B522C082C083900202E0C3948C
:10405000035003E004F01248F81273B8125660D00F
:1040600083D0822274F5120F3C74CB120EE58518B2
:10407000828519838582088583097808120FD4798F
:104080003590180C7808120DE8124385120EFB7457
:1040900033120F301240E47002EB6F7009AA82AB4A
:1040A0008312410780368582088583097808120FBC
:1040B000D479359018847808120DE8124385120ED1
:1040C000FB7433120F301240E47002EB6F60CE12BB
:1040D00041BA7003A3E06960031249DF124BCC744C
:1040E0003502437DAA82AB83121D8D8A088B09AEEF
:1040F00008AF097C337D00851882851983AA82ABBD
:1041000083122043EA6E22C082C0838A828B83E0BE
:104110009001B0F078B179018A828B83A3AA82AB37
:10412000837C1A8A828B83E088828983F0A3A882A9
:10413000A9838A828B83A3AA82AB83E08882898346
:10414000F0A308A9838A828B83A30AAB831CEC703B
:10415000D2D083D0822274F5120F3C74FE120EE589
:104160008518828519838582088583097808120F4E
:10417000D49018887808120DE8AA08AB09AC0AADEB
:104180000B1224847402120EFB851882851983E0B9
:10419000F8A3E0F99001E3E0687003A3E069700F11
:1041A0001241BA7003A3E0697005124BCC80031270
:1041B00040641241D8740202437D7C337D007AB0A2
:1041C0007B011243ED9001E3E06822C082C083745A
:1041D000559001AFF002415174F7120F3C7C00780A
:1041E0004C791888828983E493FA740193FB9001D7
:1041F000B0E06A7003A3E06B70318C08750900743D
:10420000027808120ED2E508244CF8E5093418F9B2
:1042100088828983A3A3E493900163F088828983D1
:10422000A3A3A3E493900164F0800F0CE82404F8A6
:10423000E93400F9ECC3940E40A9ECC3940E400C91
:10424000740A900163F07401900164F07F02020F20
:104250009C74F5120F3CE9FEA2E050297508047524
:1042600009007808120FD47C007D007A657B01126A
:10427000800A7402120EFB12470E7808120FD41235
:10428000461D120EFBEEA2E1505475083E75090062
:104290007808120FD47C007D007A717B0112800AAD
:1042A0007402120EFB12463B7508717509017808FD
:1042B000120FD4793E90188C7808120DE812460F30
:1042C000120EFB7508717509017808120FD4793E3A
:1042D0009018907808120DE812460F120EFB024358
:1042E0008074F5120F3C74C2120EE51243F9E964B2
:1042F00001600302437B85188285198385820885C6
:1043000083097808120FD4793E90188C7808120D22
:10431000E8124385120EFB12466E120F30E06870F1
:1043200003A3E0696030851882851983858208853A
:1043300083097808120FD4793E9018907808120DEE
:10434000E8124385120EFB12466E120F30E06870C1
:1043500003A3E069702075083E7509007808120F04
:10436000D47402120F30AC82AD837A717B01124695
:1043700025120EFB80057902124251743E120EFB8B
:104380007F04020F9CAA08AB09AC0AAD0B122313E1
:1043900074022274F7120F3C7C047D007A657B0165
:1043A0001243E9900169E0687003A3E06960377C1B
:1043B000047D007A6B7B011243E990016FE0687025
:1043C00003A3E0696007790112425180197508065C
:1043D0007509007808120FD47C6B7D017A657B012A
:1043E000124625120EFB02424C1243ED22122043CC
:1043F0008A088B09A808A9092274F7120F3C1246F3
:104400004F7003A3E06960047901800279000242E1
:104410004C74F6120F3C890A7E007F00EA601C8A09
:104420000874FF2508F874FF3400F9900248E0682A
:104430007001E960067A007B00806F124393E50A01
:10444000704B9001AFE0A2E05009900165E0FEA33F
:10445000E08012A2E1500F900165E0F8A3E0F9C3FB
:10446000E498FEE499FF9001AFE0A2E2500B9001C6
:1044700067E02EFEA3E03F802CA2E3502990016765
:10448000E0F8A3E0F9C3EE98FEEF99801874016597
:104490000A700590016580097402650A7008900130
:1044A00067E0FEA3E0FFEEFAEFFB7F03020F9C74D0
:1044B000F3120F3C74C2120EE585188285198385AC
:1044C00082088583097808120FD4793E90188C7879
:1044D00008120DE8124385120EFB12466E120F30C1
:1044E000E0687003A3E069603085188285198385D0
:1044F00082088583097808120FD4793E9018907845
:1045000008120DE8124385120EFB12466E120F3090
:10451000E0687003A3E069702075083E75090078B3
:1045200008120FD47402120F30AC82AD837A717B03
:1045300001124625120EFB800D12464F7003A3E0B8
:104540006960030246057A00790112462B900185C5
:104550007808120D4D124660120ED2E50C2489F532
:1045600082E50D3401F5837808120D4D7A0079004B
:1045700012462B9001717808120D4D124660120EF2
:10458000D2E50C2475F582E50D3401F58378081227
:104590000D4D7A00790212462B9001997808120D80
:1045A0004D124660120ED2E50C249DF582E50D34C5
:1045B00001F5837808120D4D12463B1243F9E9705C
:1045C000447508717509017808120FD4793E901866
:1045D0008C7808120DE812460F120EFBE9702612B5
:1045E00043F9E9702079011242517508717509018A
:1045F0007808120FD4793E9018907808120DE812BE
:10460000460F120EFB743E120EFB7F06020F9CAA91
:1046100008AB09AC0AAD0B1221787402227C657DCF
:10462000017A6B7B01127FC27402221244118A0844
:104630008B09EB3395E0F50AF50B227C3C7D007A83
:10464000717B011220439001ADEAF0A3EBF0227CD4
:104650003C7D007A717B011243ED9001ADE0682250
:10466000900248E0F50C750D007402780C227C3C39
:104670007D00851882851983AA82AB831243ED746D
:104680003C2274F4120F3C1243937E617F01750843
:1046900065750901750C028E828F83E06017C2AFC9
:1046A000F50AE4F0D2AF850882850983E0250AF097
:1046B000A3E03400F0850882850983C3E09499A3C0
:1046C000E094084003124393850882850983C3E080
:1046D00094D1A3E0940740031244AF8E828F83A34A
:1046E000AE82AF83E5082402F8E5093400F98808B2
:1046F0008909150CE50C709F12470E7509007808A2
:10470000120FD412461D120EFB7F05020F9C7C0473
:104710007D007A657B01122043900169EAF0A3EBEA
:10472000F075080622C082C083E490285DF09028CE
:104730005FF09028680248F274F7120F3C74809082
:104740002878F0E41247CE9010ECF0FA1247BF94AC
:10475000E440F97AF01247BF94FE40F974BC90101F
:10476000E8F074749010E9F074939010EAF0748893
:104770009010EBF0E49010ECF07AE41247BF94E76D
:1047800040F974CC1247D6748C9010EBF074019001
:1047900010ECF0E49010F41248389010FA124838F7
:1047A00074FF1247CEE49010ECF09010F5124838E8
:1047B0009010FB124838902878F07F02020F9CE49A
:1047C0008A082508F582E4F00000000AEA22124770
:1047D000D69010EBF0229010E8F09010E9F09010D5
:1047E000EAF02274F5120F3C9001FB7808120DD903
:1047F000E5089010E812483D120DD9E5099010E93E
:1048000012483D120DD974107808120CD8E50890A2
:1048100010EA12483D120DD974187808120CD8E528
:10482000089010EBF09001FFE09010ECF0E48A8229
:104830008B83124838024AC0F000000022F0900139
:10484000FB78082274F5120F3C74FF120EE58A8281
:104850008B83E08518828519831248389010ECE02C
:104860009001FFF09010E87808120DD99001FB78C4
:1048700008120DFB7401120EFB024AC074F7120FEE
:104880003CE95403F9902864E0FB750801750900C0
:10489000E97808120ED2AC08EAA2E7EC5004F45B07
:1048A00080104BF0740F5AC0E0E9F8745828F58274
:1048B000D0E00247B9C082C083902878E04450F02D
:1048C000E4902879F0742090287AF07A0079021226
:1048D000487C7A03790012487C7A01790112487C7D
:1048E000902878E0440FF090287DE0C2E0F0E4905A
:1048F000287EF0D083D0822274F5120F3C90020300
:10490000E0702A900202E0C39402402174019002F8
:1049100003F0124CAD120DD974017808120CF1900D
:1049200001FB7808120DFB124C9B124930024AC061
:10493000C082C08390287DE04418F0D2E8902843DC
:10494000E0D2E780AD1247251247381248B5124928
:10495000522274F5120F3C7508167509007808127A
:104960000FD47C007D007AE57B0112800A7402126C
:104970000EFB12415690287DE0D2E5F0902878E0B9
:10498000C2E5F09013DE7808120DE89001FB78087C
:10499000120DFB124C9B9001B77808120DD97401CF
:1049A0007808120CF19001FB7808120DFB9001B60B
:1049B000E0C333FA9013EA7808120DE875830175A5
:1049C00082B77808120457400574012A8001EA90E2
:1049D00001FFF0124CB81241CB1242E1024AC074FE
:1049E000F5120F3C9001B07440F0A37406F09001F2
:1049F000B274F0F0A37455F09001B47410F0A37485
:104A000027F0E49001B6F09018BC7808120DE890F9
:104A100001B77808120DFB9018C07808120DE890C5
:104A200001BB7808120DFB9018C47808120DE890AD
:104A300001BF7808120DFB9013D27808120DE89090
:104A400001C37808120DFB9013D27808120DE8907C
:104A500001C77808120DFB9013D27808120DE89068
:104A600001CB7808120DFB9013D27808120DE89054
:104A700001CF7808120DFB9013D27808120DE89040
:104A800001D37808120DFB9013D27808120DE8902C
:104A900001D77808120DFB9001DD7401F0A3E4F05A
:104AA0009001DF7401F0A3E4F09001E17401F0A340
:104AB000E4F09001DBF09001DCF07C33FD12501447
:104AC0007F04020F9CC082C083900155E0A2E05099
:104AD0001E900201E004F0C0E0900163E0FAD0E033
:104AE000C39A4030900201124B17900162801C90D3
:104AF0000200E004F0C0E0900163E0FAD0E0C39A65
:104B00004012900200124B17900161E02AF07839B0
:104B1000740446F60248F3E0C39AF0900164E0FAA8
:104B20002274F4120F3C74FC120EE57E987F187507
:104B30000C05EE24FCF582EF34FFF583E493FA7460
:104B40000193FB124F72120DD98E828F83A3E493CF
:104B50007808120CF1851882851983124CC37B00EA
:104B60008E828F83E493603F8B82A8828518828532
:104B70001983E58228F582E5833400F583E0C0E0FF
:104B8000EE24FEF582EF34FFF583E49328FAA3E4E4
:104B90009334008A82F583D0E0F00B8E828F83E419
:104BA00093FAEBC39A40C1EE2408FEEF3400FF15E0
:104BB0000CE50C6003024B327404120EFB7F0502FD
:104BC0000F9C7404120EFB7F08020F9C74F3120FEB
:104BD0003C9001B6E0FA900204E0603C9001B778A6
:104BE00008120DD974017808120CF19001FB7808B5
:104BF000120DFBEAC333FA9013EA7808120DE87538
:104C000083017582B77808120457400974012A900D
:104C100001FFF08018EA80F7EA9001FFF09001B7F9
:104C20007808120DD99001FB7808120DFB124CAADE
:104C3000120DD9900204E0600774017808120CF19B
:104C40009001FB7808120DFB124C9B7E00750CBF87
:104C5000750D01850C82850D837808120DD99001A0
:104C6000FB124CC38E0874DD2508FA74103400FB67
:104C70001247E30EE50C2404F50CE50D3400F50DA8
:104C8000EEC3940740CD9001DBE090287BF09001CB
:104C9000DCE090287CF07F06020F9C7AF57B1012F6
:104CA00047E37AFB7B101247E322124CB8E49001F1
:104CB000FFF09001BB7808227AF47B101247E37A68
:104CC000FA80E1E508F0A3E509F0A3E50AF0A3E521
:104CD0000BF02274F5120F3C9001B6E09001FFF04A
:104CE0009001B77808120DD99001FB7808120DFBDE
:104CF000124CAA120DD99001FB7808120DFB124C30
:104D00009B024AC074F1120F3C74FC120EE5851828
:104D100082851983EAF0A3EBF0A3ECF0A3EDF08514
:104D200018828519837808120DD97413120F307800
:104D300008120D749018C8780C120DE87808790CD8
:104D4000120B6C7413120F30780C120DD97808798D
:104D50000C120C86AE08AF0974E82EFC74033FFDFC
:104D60007417120F307808120DD9124E57120C8694
:104D70009018C8780C120DE87808790C120B6CC0EA
:104D800008C009C00AC00B7417120F30780C120D3E
:104D9000D9124E46120C86124E68120E5A88088995
:104DA00009750A00750B00D00FD00ED00DD00C780D
:104DB0000C7908120D10C00CC00DC00EC00F750884
:104DC00000750900750B80124E57120BEC8E0CEF1C
:104DD000124E5A120B6CD00FD00ED00DD00C780C96
:104DE0007908120D60C00CC00DC00EC00F750C000C
:104DF000750D00750E00750F80124E46120BEC12E9
:104E00004E68120E5AEE88F0A4CEAAF089F0A42AB9
:104E1000FA88F0EFA42AFFEEF8EFF97AE87B0312A4
:104E20000E5A88088909750A00750B00D00FD00E3C
:104E3000D00DD00C780C7908120D60AA0CAB0DAC1B
:104E40000EAD0F024BC28C08EDF5093395E0F50A63
:104E5000F50B780C7908228C0CEDF50D3395E0F507
:104E60000EF50F7808790C22A808E875F0E8A4C8B8
:104E7000AAF075F003A42AFA75F0E8E509A42AF966
:104E8000ECFAEDFB2274F1120F3C74F4120EE5857E
:104E900018828519838582088583097808120FD4C2
:104EA00079049017FC7808120DE8AA08AB09AC0A3F
:104EB000AD0B1223137402120EFB7ADD7B10124F1E
:104EC00072120DD97408120F307808120DFB851874
:104ED00082851983AA82AB83121DD48A088B098C20
:104EE0000A8D0B90183C780C120DE87808790C129A
:104EF0000BEC7404120F307808120DFB9001F3785C
:104F000008120DD99013DE780C120DE8780C790890
:104F100012043250057808120CC785080C85090D5B
:104F2000850A0E850B0F7408120F30120FE57408F6
:104F3000120F30120FE5AA0CAB0DAC0EAD0F124DD7
:104F4000047408120EFB8A088B098C0A8D0B9001E1
:104F5000BF7808120DFB9001BF7808120DD990019F
:104F6000FB7808120DFB7ADD7B101247E3740C020C
:104F70004BC412484402483E74F5120F3C124E8551
:104F8000125004120FD4793590180C7808120DE8DD
:104F9000124FF6120EFB7508B07509017808120F52
:104FA000D479359018847808120DE8124FF6120E55
:104FB000FB124BCC024AC074F5120F3C90024AE03F
:104FC0006031125004120FD4793590180C78081201
:104FD0000DE8124FF6120EFB7508B075090178083E
:104FE000120FD479359018847808120DE8124FF614
:104FF000120EFB024AC0AA08AB09AC0AAD0B122183
:10500000787402227C337D001250147508B0750943
:10501000017808227AB07B011220439001E3EAF084
:10502000A3EBF02274F5120F3C90024AE0603112BB
:105030005004120FD4793590180C7808120DE8122C
:105040004FF6120EFB7508B07509017808120FD4DF
:1050500079359018847808120DE8124FF6120EFB7D
:10506000024AC0C082C0839028ACE0D2E4F090280D
:10507000ADE0D2E4F09028ACE0D2E3F09028ADE0CF
:10508000D2E3F0783E760108760C78437601087614
:105090000CD083D0822274F7120F3C7ACE7B187C1E
:1050A0003B7F0274022CFD8A828B83E493C0E0EA8A
:1050B00024FEF582EB34FFF583E493C0E0740193A2
:1050C000F583D082D0E0FEE05E7029ECF8E6FE08C1
:1050D00008E608C3964014EE70118A828B83A3E41D
:1050E00093783946F6ECF87601801174016E600C05
:1050F00018068008EDF876001818760074052CFC68
:10510000EA2404FAEB3400FB1FEF70977F02020FD2
:105110009C79001255EF125C802274F7120F3C75D7
:10512000081E7509007808120FD47C007D007A05EE
:105130007B0212800A7402120EFB7A057B02125166
:10514000627F02020F9C74F7120F3C75081E7509EE
:10515000007808120FD47CFF80D27A057B021251AE
:10516000622274F8120F3CEAF8EBF97A007B287C93
:105170000FE48A828B83F088828983E0540FFD8A52
:10518000828B83E04DF088828983A3E0C454F0FDD4
:105190008A828B83E04DF0E824020808E93400F9A4
:1051A000A3AA82AB831CEC70C87F01020F9C74F130
:1051B000120F3C74FD120EE58A088B098C0A8D0BC8
:1051C0007412120F30780C120DD98518828519834C
:1051D00074D4F0A37418F07B08E508540FFAE50CBA
:1051E000540FC0E07402120F30D0E0F0740478085D
:1051F000120CD87404780C120CD88A82A882E82485
:10520000E4F582E43418F583E493FAE824F4F582B3
:10521000E43418F583E493FE851882851983E0F859
:10522000A3E0F5838882E4932405F8E43402F98549
:105230001882851983E0FCA3E0F5838C82A3E493B4
:105240002405FCE43402FDE4888289831252F2A230
:10525000E0E492E0F07402120F30E012103F000719
:10526000C75272527E52875290529952A352AC52F8
:10527000BA5288828983E04A1252F24E80488C8268
:105280008D83E0D2E2803F88828983E0D2E0803162
:105290008C828D83E04406802D88828983E0D2E170
:1052A000F080ED88828983E0440380F488828983DA
:1052B000E044091252F2440E800C88828983E04453
:1052C000091252F2440AF0851882851983E02402FB
:1052D000F8A3E03400F9851882851983E8F0A3E982
:1052E000F01BEB60030251D97403120EFB7F08021E
:1052F0000F9CF08C828D83E02274F3120F3C74FFBC
:105300005AF508750900C39415E494004003750824
:105310000074027808120ED2E508244CF582E509E3
:105320003419F5837808120DE87C3B7D197E111243
:1053300054F1FF85080CE50CA2E0500888828983AF
:10534000E04F8009EFF4FF88828983E05FF0740109
:105350007808120CD88C828D83A3AC82AD831EEEAC
:1053600070CDE4CB24ACF582E43419F583E493F5F5
:10537000088B098B0A8B0B7C9C7D197A088C828D9B
:1053800083E493C0E0740193F583D082AE82AF834F
:105390008E0C8F0D7403780C120EC3E50C2405F8E7
:1053A000E50D3402F974075E12550DFBE508A2E025
:1053B000500888828983E04B8009EBF4FB8882895E
:1053C00083E05BF074017808120CD8EC24020C0C1A
:1053D000ED3400FD1AEA70A57F06020F9C74F612E8
:1053E0000F3CEAFCEBFD740F5CC333241BF582E435
:1053F0003419F583E493C0E0740193F583D082A857
:1054000082A9837E187F19750A038E828F831254B6
:1054100093F508E8A2E050098A828B83E045088072
:105420000CE508F4F5088A828B83E0550812548A4B
:105430008E828F83A3AE82AF83150AE50A70CB8C70
:10544000088D0974047808120EC3A808A9097C0EF7
:105450007D19750A0A8C828D83125493FEE8A2E0AE
:1054600050088A828B83E04E8009EEF4FE8A828B9C
:1054700083E05E12548A8C828D83A3AC82AD831547
:105480000AE50A70D07F03020F9CF0E9C313F9E824
:1054900013F822E493F508131313541F2405FAE4B8
:1054A0003402FB7407550812550D2274F3120F3C99
:1054B0008A088B098C0A8D0B7C047D197A0A125498
:1054C000F1FBE508A2E0500888828983E04B80095F
:1054D000EBF4FB88828983E05BF074017808120C9E
:1054E000D88C828D83A3AC82AD831AEA70D002532C
:1054F000D88C828D83E493F50C131313541F240569
:10550000F8E43402F97407550C12550D22243BF5CA
:1055100082E4341DF583E4932274F5120F3C750880
:10552000947509037808120FD47901901B34780818
:10553000120DE81255A5120EFB7508977509037830
:1055400008120FD47901901B387808120DE8125513
:10555000A5120EFB7508987509037808120FD47907
:1055600001901B3C7808120DE81255A5120EFB7530
:10557000089C7509037808120FD4790190183478C3
:1055800008120DE81255A5120EFB7414900395F045
:105590007405900396F07401900399F074059003DC
:1055A0009AF0025777AA08AB09AC0AAD0B12231385
:1055B00074022274F5120F3C9013D27808120DE891
:1055C0009002237808120DFBE4900227F090022845
:1055D000F090022E7401F0A3E4F07403900229F01D
:1055E000740590022AF012551912511A025777C009
:1055F00082C083900398E070037401F0900229E068
:105600006401600B7401F090022EE4F0A3803CE989
:1056100090022E700D1256EE9003981256F8402C00
:1056200080E5E07002A3E07017900398E0F874FF43
:10563000281874FF3400F990022EE8F0A3E9800BDB
:1056400090022EE024FFF0A3E034FFF0900395E0F9
:1056500090022AF090022CE0D2E1F0D083D0822296
:1056600074F5120F3C900227E0601414F070109053
:105670001B407808120DE89002237808120DB390B1
:10568000022AE0600414F07062900229E0121075A2
:10569000000500A35608EB5609CC560BBF560DC6A5
:1056A00056D356900394E090022AF090022E1256A0
:1056B000EE9003971256F8403290022EE48029743F
:1056C0000190022A8024E4900229801E900228E0A2
:1056D000C2E7F0E4900228F0900394E090022AF0F0
:1056E000E4900229F090022EF0A3F0025777E02414
:1056F00001F0A3E03400F022E0F875830275822EF9
:10570000C3E098A3E09400222274F5120F3C901B92
:10571000447808120DE89002237808120DB3900225
:1057200048E0FA70059013DE801C74016A700590E1
:1057300013D6801274026A7005901B4880087403A7
:105740006A7010901B4C7808120DE89002237808BC
:10575000120DC6900246E0FA74016A7005901B5063
:10576000800874026A7010901B547808120DE8903B
:1057700002237808120DC67F04020F9C74F1120FE9
:105780003C74F6120EE57401120F30E9F0EA851848
:1057900082851983F08C0C8D0DEBFE7F0170030266
:1057A00059C7AA0CAB0D121DD47402120F30125936
:1057B000D1EF120F30E0A2E650308E08E50C25083C
:1057C000F8E50D3400F974FF28F58274FF39F5838C
:1057D000E0A2E75015C2E7F0AA0CAB0D125C74749E
:1057E00002120F307808120DFB1F900238E0F50E00
:1057F000A3E0F50F851882851983E064166005E043
:105800006403702190039CE012103F00031F582591
:105810005817581F581B587404800674018002746E
:1058200002450FF50F7401120F30E0A2E5501D7410
:1058300002120F307808120DD9AA08AB09AC0AADD4
:105840000B121EFD7402120F301259D17401120F87
:1058500030E0A2E7503B7E077825791B7A00801163
:105860000AE82403080808E93400F9EAC39405505B
:105870002788828983E0550EFCA3E0550FFDEC706C
:1058800001ED60DC88828983A3A3E0FAEEC39A80ED
:10589000067404C39EC333FE7405120F3085820C58
:1058A00085830D9013D27808120DE87406120F301C
:1058B000E508F0A3E509F0A3E50AF0A3E50BF0A8DD
:1058C00082A9837A00EE70078047EAA2E04015853E
:1058D0000C82850D83E054F0703788828983E04420
:1058E000A0F08027850C82850D83E0540F702288FC
:1058F000828983E0440AF0E50C24FFF50CE50D34C1
:10590000FFF50DE824FF18E934FFF90AEAC39E40C9
:10591000B9EF7017EA6014A2E05008741088828909
:1059200083800774A188828983A3F08518828519F2
:1059300083E012107500050148590E68591C7D5905
:105940001D82591F875999597402120F3078081215
:105950000DD974087808120CD87402120F30780828
:10596000120DFB901B5880227403120F30E0C0E030
:105970007404120F30D0E0F0901B5C800D901B601F
:105980008008901B648003901B687808120DE874EF
:1059900006120F307808120DFB900238E50EF0A3C6
:1059A000E50FF07402120F307808120DD990023A08
:1059B0007808120DFB7406120F307808120DD9907A
:1059C000023E7808120DFB740A120EFB7F08020FCC
:1059D0009CEAF0A3EBF0A3ECF0A3EDF02274F51237
:1059E0000F3C740E120F30E0FA703B7C007ABF7BE4
:1059F00019800A125AA094144003025A95740B128B
:105A00000F307808120DD98B838A82780812041916
:105A100070E1EC75F006A424C3F582E5F03419F5C5
:105A200083E493F9807174026A70317C007A5B7B45
:105A30001A8005125A9A505D740B120F30780812B2
:105A40000DD98B838A82780812041970E6EC75F000
:105A500006A4245FF582E5F0341A80C374046A70EA
:105A6000347C007A377B1A740B120F307808120DD1
:105A7000D98B838A8278081204197014EC75F006A9
:105A8000A4243BF582E5F0341AF583E493F980070A
:105A9000125A9A40D279FF025777125AA0940622DE
:105AA0000CEA2406F8EB3400F9E8FAE9FBECC3222F
:105AB00074F5120F3C74EB120EE5750810750900B1
:105AC0007808120FD47C007D007407120F30AA8270
:105AD000AB8312800A7402120EFB90022EE0FAA32E
:105AE000E0FBEA75F005A4FAACF075F005EBA42C28
:105AF000FB900229E01210750005000B5B017D5B35
:105B000003965B0A0B5B0C0B5B9B5B85188285190C
:105B1000838582088583097808120FD47905E42AE1
:105B200074103BFB7C007D001255AD120EFB8518F6
:105B300082851983AA82AB83125C74740B120F30B6
:105B40007808120DFB740B120F307404120FED1253
:105B500059DD7404120EFBE9FA740B120F30C08287
:105B6000C0839018487808120DE8D083D082780856
:105B700012040490022C7028E0D2E080268518825E
:105B80008519838582088583097808120FD47905E1
:105B9000E42A7412808C7903025C6C7901025C6CDB
:105BA000E0C2E0F0EA6005C3942340027A00EA759F
:105BB000F003A4247FF8E5F0341AF988828983E49D
:105BC00093FA740193FB900236EAF0A3EBF088821B
:105BD0008983A3A3E493FA741F5AFEC33324E5F523
:105BE00082E4341AF583E493F8740193F99002384F
:105BF000E8F0A3E9F074E05AFF7405120F30741155
:105C0000F0740A120F30E0D2E7F07508057509004C
:105C10007808120FD47C007D007402120F30AA8223
:105C2000AB8312800A7402120EFB851882A882A927
:105C3000837413120F30E8F0A3E9F07405120F30EB
:105C4000AA82AB831229807409120F30E06003022C
:105C50005B9B7406120F30E0FB7413120F30E0FCF4
:105C6000A3E0FDEEFAEFF912577C79007415120EDD
:105C7000FB025777121DD48A088B098C0A8D0B22E0
:105C800074F5120F3C125709125AB0E912103F0274
:105C900003C05C0A5D9B5CC05CA05C125146806ADC
:105CA000901B6C7808120DE890023A7808120DFBF0
:105CB000901B587808120DE890023E7808120DFBF0
:105CC0009002237808120DD9AA08AB09AC0AAD0BD3
:105CD0001254AB90023E120FE590023A7808120D72
:105CE000D9AA08AB09AC0AAD0B1251AE7404120E5E
:105CF000FB900236E0FAA3E0FB1252F9900238E082
:105D0000FAA3E0FB1253DD12515A025777C082C04A
:105D100083EAA2E7902864E05009C2E3F0E4902807
:105D2000638016D2E3F0EAA2E0E492E090285BF010
:105D3000902863E05480F0E049F0D083D08222E9DB
:105D40007A007004790180027923125D0D2274F1CA
:105D5000120F3C7ACF7B101248447508B97509CAF6
:105D6000750A54750B009001FB780C120DD974085C
:105D7000780C120CD87808790C120D60901B707892
:105D80000C120DE87808790C120BEC900243E50830
:105D9000F0A3E509F0EEF5083395E0F5097808126F
:105DA0000FD479019018147808120DE8AA08AB09ED
:105DB000AC0AAD0B1223137402120EFBEEF83395EE
:105DC000E0F9900243E028F0A3E039F07F08020FE9
:105DD0009C74F1120F3C7ACE7B101248449001FB68
:105DE000780C120DD97410780C120CD8850D09742A
:105DF000805509F9E47001E97039901B7478081234
:105E00000DE8780C7908120BEC901B48780C120DF9
:105E1000369013FA7808120DE87808790C120447C6
:105E20005011901B787808120DE87808790C12044C
:105E3000475012901B7C7808120DE89002237808D6
:105E4000120DC68010901B807808120DE890022376
