:0600000002006602684CDC
:03000B0002685434
:0300130002686D13
:03001B0002687503
:03002B0002687DEB
:03003B000268B8A0
:030043000268CC84
:03004B00026980C7
:030053000269FB44
:10006300026A2475D00075819F7518917519010274
:10007300737612009CB9000302009CE47921780A8C
:10008300B800028004F709D8FCE490019178FE7966
:0C009300028002F0A3D8FCD9FA79012207
:10040000FFFFFFFFE066701008A3E066700A08A314
:10041000E066700408A3E06622E493667013087433
:10042000019366700C087402936670050874039358
:100430006622C3E7960809E7960809E7960809E7E0
:1004400096A2D265D03322C3E7960809E796080939
:10045000E7960809E79622C3E09608A3E09608A36A
:10046000E09608A3E09622080808EAC0E0EBC0E0A6
:1004700086F0E7A4FA180986F0E7A42AFA18098694
:10048000F0E7A42AFA180986F0E7A42AFA1986F0F8
:10049000E7A4FBE5F02AFA190886F0E7A42BFBE5B0
:1004A000F03AFA190886F0E7A42BFBE5F03AFA18BF
:1004B000180986F0E7A4C5F02BFBE43AFA1908E71F
:1004C000C5F0C6A426F6E5F03BFBE43AFA1886F040
:1004D000E7A4F6E5F00826F6E43B08F6E43A08F669
:1004E000D0E0FBD0E0FA22E4CFC0E0E4CEC0E0E40C
:1004F000CDC0E0E4CCC0E075F020C3E633F608E6FA
:1005000033F608E633F608E633F6181818EC33FC31
:10051000ED33FDEE33FEEF33FFC3EC9709ED9709A2
:10052000EE9709EF97191919400FFFEC97FC09EDA9
:1005300097FD09EE97FE191906D5F0BEECF709ED07
:10054000F709EEF709EFF7191919D0E0FCD0E0FD33
:10055000D0E0FED0E0FF221205BF1818181204E701
:100560001205AE191919221205AE19191908080831
:10057000E618181820E7E01204E71205BF1818184B
:1005800022090909E719191920E7DC080808E61803
:10059000181820E7030204E71205BF181818120400
:1005A000E71205BF1818181205AE19191922E4C36D
:1005B00097F709E497F709E497F709E497F722E436
:1005C000C396F608E496F608E496F608E496F62252
:1005D000C6F4C608C6F4C608C6F4C608C6F4C622E1
:1005E0006016080808C6C313C618C613C618C61373
:1005F000C618C613C6D5E0EA2270090808082260AA
:1006000016181818C6C333C608C633C608C633C67C
:1006100008C633C6D5E0EA22E627F60809E637F62B
:100620000809E637F60809E637F622E026F608A3B9
:10063000E036F608A3E036F608A3E036F622E493A7
:1006400026F60874019336F60874029336F6087499
:10065000039336F622E026F008A3E036F008A3E084
:1006600036F008A3E036F022C3E697F60809E697CD
:10067000F60809E697F60809E697F622C3E0C6965B
:10068000F608A3E0C696F608A3E0C696F608A3E02F
:10069000C696F622C3E096F008A3E096F008A3E021
:1006A00096F008A3E096F022E056F608A3E056F68E
:1006B00008A3E056F608A3E056F622E49356F6089F
:1006C00074019356F60874029356F6087403935611
:1006D000F622E056F008A3E056F008A3E056F00832
:1006E000A3E056F022E046F008A3E046F008A3E0BD
:1006F00046F008A3E046F022E0F608A3E0F608A3DF
:10070000E0F608A3E0F622E493F608740193F608F5
:10071000740293F608740393F622E6F008A3E6F059
:1007200008A3E6F008A3E6F022CAC0E0E6F0A308BA
:10073000DAFAD0E0FA22CAC0E0E0A3C582CCC582D2
:10074000C583CDC583F0A3C582CCC582C583CDC585
:1007500083DAE6D0E0CA22B90010BB0008E88AF0CC
:1007600084F8AAF022E4FBC8FA22EB70227B10C8BE
:1007700033C8C933C9335007C39AC3DBF280069A22
:1007800050012ADBEAC833F4C8C933F4C9FA227528
:10079000F008E4C833C8C933C933C99AC99B5004A7
:1007A000C92AC93BD5F0ECFBC833F4C8E4C9FA2226
:1007B000600D08C6A2E713C618C613C6D5E0F3221B
:1007C000600C08C6C313C618C613C6D5E0F4227061
:1007D0000422600D18C6C333C608C633C6D5E0F47C
:1007E0001822251810AF08F518400215198008F5D1
:1007F0001840021519D2AF22C0D0251810AF08F545
:1008000018500205198008F51850020519D2AFD00A
:10081000D0222518F58210AF08F51840021519806E
:1008200008F51840021519D2AF851983222518F54D
:1008300082E43519F58322E4732518C582C0E0E50A
:100840001934FFC583C0E0E518C3958224F9F8E4A4
:10085000C5A8858319858218C5A8E8CEF0A3E52030
:10086000F0A37808E608F0A3DEFAEFF0A3E5812410
:10087000FBF8E608F0A3E608F0A30808E608F0A3F2
:10088000E608F0A315811581D0E0FED0E0F81581CF
:100890001581E8C0E0EEC0E022851983851882E06A
:1008A000A3FEE0A3F5207808E0A3F608DFFAE0A3B2
:1008B000FFE0A3C0E0E0A3C0E0E0A3C0E0E0A3C08D
:1008C000E0E4C5A8858218858319C5A8D083D082A5
:1008D000227404800474028000C0E0F40412081240
:1008E000D0E0120729227404800474028000CCC076
:1008F000E0EDC0E0E518C39CCCAD1950011D10AF70
:10090000068C188D1980068C188D19D2AF120736F7
:10091000D0E0FDD0E0FC22D083D082C5F0E493A3E8
:10092000C5F0C395F0F5F0E493A3C395F04005E559
:10093000F0048001E475F002A42582F582E5F0352B
:1009400083F583E493A3C0E0E493C0E022D083D096
:1009500082CCC0E0E493A360061209771470FAE435
:1009600093A360061209961470FAD0E0FCE493A3F6
:10097000C0E0E493C0E022C0E0E493A3D39C501015
:10098000E493A3C39C400AD0E0D0E0D0E002096A1F
:10099000A3A3A3D0E022C0E0E493A36C7009D0E04D
:1009A000D0E0D0E002096AA3A3D0E022D083D082B5
:1009B000ECC0E0EDC0E0E493A3FCE493A3FDED4CB8
:1009C000600D1209F8EC24FFFCED34FFFD80EFE42C
:1009D00093A3FCE493A3FDED4C600D120A37EC24C5
:1009E000FFFCED34FFFD80EFD0E0FDD0E0FCE493B0
:1009F000A3C0E0E493C0E022C0E0C3E4939608748F
:100A000001939618400FE49366700808740193668A
:100A10001870007019A3A3C3E49396087401939609
:100A200018A3A3400DD0E0D0E0D0E00209E8A3A3D2
:100A3000A3A3A3A3D0E022C0E0C0F088F0E49366B3
:100A400070080874019366187000A8F0A3A3700BD7
:100A5000D0F0D0E0D0E0D0E00209E8A3A3D0F0D0FD
:100A6000E02200010203040506070809AAAAAAAAAF
:100A7000AAAA0A0B0C0D0E0F10111213AAAAAAAAE9
:100A8000AAAA1415161718191A1B1C1DAAAAAAAA75
:100A9000AAAA1E1F2021222324252627AAAAAAAA01
:100AA000AAAA28292A2B2C2D2E2F3031AAAAAAAA8D
:100AB000AAAA32333435363738393A3BAAAAAAAA19
:100AC000AAAA3C3D3E3F404142434445AAAAAAAAA5
:100AD000AAAA464748494A4B4C4D4E4FAAAAAAAA31
:100AE000AAAA50515253545556575859AAAAAAAABD
:100AF000AAAA5A5B5C5D5E5F6061626300010203EB
:100B000004050607080910111213141516171819F1
:100B10002021222324252627282930313233343539
:100B20003637383940414243444546474849505199
:100B300052535455565758596061626364656667ED
:100B40006869707172737475767778798081828341
:100B500084858687888990919293949596979899A1
:100B600000002110422063308440A550C660E77029
:100B7000088129914AA16BB18CC1ADD1CEE1EFF1D1
:100B80003112100273325222B5529442F772D66279
:100B9000399318837BB35AA3BDD39CC3FFF3DEE321
:100BA0006224433420040114E664C774A4448554C9
:100BB0006AA54BB528850995EEE5CFF5ACC58DD571
:100BC0005336722611163006D776F6669556B44619
:100BD0005BB77AA719973887DFF7FEE79DD7BCC7C1
:100BE000C448E5588668A778400861180228233869
:100BF000CCC9EDD98EE9AFF9488969990AA92BB911
:100C0000F55AD44AB77A966A711A500A333A122AB8
:100C1000FDDBDCCBBFFB9EEB799B588B3BBB1AAB60
:100C2000A66C877CE44CC55C222C033C600C411C08
:100C3000AEED8FFDECCDCDDD2AAD0BBD688D499DB0
:100C4000977EB66ED55EF44E133E322E511E700E58
:100C50009FFFBEEFDDDFFCCF1BBF3AAF599F788F00
:100C60008891A981CAB1EBA10CD12DC14EF16FE1E0
:100C70008010A100C230E320045025404670676018
:100C8000B9839893FBA3DAB33DC31CD37FE35EF330
:100C9000B1029012F322D232354214527762567268
:100CA000EAB5CBA5A89589856EF54FE52CD50DC580
:100CB000E234C324A01481046674476424540544B8
:100CC000DBA7FAB79987B8975FE77EF71DC73CD7D0
:100CD000D326F2369106B016576676761546345608
:100CE0004CD96DC90EF92FE9C899E9898AB9ABA920
:100CF0004458654806782768C018E1088238A32858
:100D00007DCB5CDB3FEB1EFBF98BD89BBBAB9ABB6F
:100D1000754A545A376A167AF10AD01AB32A923AA7
:100D20002EFD0FED6CDD4DCDAABD8BADE89DC98DBF
:100D3000267C076C645C454CA23C832CE01CC10CF7
:100D40001FEF3EFF5DCF7CDF9BAFBABFD98FF89F0F
:100D5000176E367E554E745E932EB23ED10EF01E47
:100D600000000000001F0AFA00E1F50500B4C40409
:100D70000000008000127A0000350C00803801006D
:100D800064000000C782552255A2ABA2D5A2EBA2F7
:100D9000D525D525D525D525D525D525D525D52583
:100DA000D525D525D525D525D525D525D825D52570
:100DB000EE26D525D525D525D525D525D525D52549
:100DC00000000102400200001000000000000101CC
:100DD0000240020000100000000000000202400378
:100DE0000000100000020000010202400300001099
:100DF0000000020000000302400300001000000594
:100E00000000010302400300001000000500000A7A
:100E1000004F0008000012000000000000014F0019
:100E20004400000E0000000002C00D064F0E0E022E
:100E300002D81000000102D81000000106D91000ED
:100E4000000103D91000000109DA1000000103D6E7
:100E50001000000103D6100000010CFD100000017D
:100E6000020200002020000000005500FE00AA0041
:100E7000FE0000524F0100524F00FF5520010000BC
:100E800020030000200400002006000020070000CE
:100E900020FFFF00FFFFFF00002000004020004077
:100EA0002000096000FFFFFF0F600100004001000B
:100EB000007D010000B80B0301D0070201E8030127
:100EC000010019400A800C200A4006100AB0040CE8
:100ED0000A2003080AC00000005E00000080000035
:100EE00000200100001800000001000000000200C6
:100EF0000057130000BA130000881300009411007B
:100F0000007D1500007C15000000FFFFFF012000A0
:100F1000006F000000E8030000C30B0000D00700D2
:100F2000000A00000000008000FFFF7FFF000000BB
:100F300000000000000030303030303030303030D1
:100F40003030303030300001999999994006F05591
:100F500010270045A4665BBA4A210000000000008B
:100F60000000000000000000000000000000000081
:100F7000000000000000000101A61000001E3D005E
:100F800000A5160000A51600000F0000182305128A
:100F9000032E0F00001E8A0F6000070405060708D5
:100FA000090A0BFA0ABC9E4ED6F68AFEDEEE76F0F1
:100FB0003EF4E4000000AA11111F13B91E013F20E6
:100FC00002D720A061FC62BE634166FFFFFFFF0104
:100FD000423003710157AA02015231022F3F210D05
:100FE0000A2F3FAAAAAAAAAAAAAAAA210D0A2F5A78
:100FF000594232063032AA0D0A0150300228290324
:10100000600150AA0228AAAAAAAAAAAAAAAA2903DF
:10101000D610DD100E006003DF10DD100404600345
:10102000E710DD1004056003EF10DD100406600317
:10103000F710DD1008016002FD10DD1008006002ED
:101040000311DD10080320030B11DD10090020003F
:101050001111DD10090020001911DD100902200016
:101060002111DD10090020012A11DD1009102001D5
:101070003311DD10092020013C11DD100930200161
:101080004511DD10094020014E11DD1009502001ED
:101090005711DD10096020016011DD1000004004CF
:1010A0006711DD10080140036F11DD1008024003D5
:1010B0009A5C8F5D735E995FA16000004007080035
:1010C00000081000000807004001180040021A0044
:1010D00040021C00400239362E312E3000290039E2
:1010E000362E39372E310039362E39372E32003927
:1010F000362E39372E3300302E392E3100302E392E
:101100002E320039372E39372E3000312E382E301E
:1011100000312E382E302A3000322E382E302A3030
:1011200000312E382E302A323600312E382E302A19
:10113000323500312E382E302A323400312E382EFE
:10114000302A323300312E382E302A323200312EFE
:10115000382E302A323100312E382E302A323000EB
:1011600046462E302E300039362E39362E31003993
:10117000362E39362E320000590059002301310134
:10118000120099000600060203060104060205008B
:1011900003056000000000010000010000000200E3
:1011A0000000040000000800000010000000200003
:1011B000000040000000800000000001000000026C
:1011C00000000004000000080000001000000020E3
:1011D000000000400000008000000000010000004E
:1011E00002000000040000000800000010000000E1
:1011F000200000004000000080000000000100000E
:1012000000020000000400000008000000100000C0
:1012100000200000004000000080E91960167B00FB
:1012200080080AEAC3941440F90BEBC3942050EAF7
:101230007A0080EF2274F8120839EA8C828D83F0EC
:10124000EBA3F07F01020899C082C0838A828B835E
:10125000A3E0F98A828B83E02400FAE439FBD0838F
:10126000D0822274F512083974FC1207E28A828B4C
:1012700083E0851882851983F08A828B83A3AA82F2
:10128000AB83E0C0E0740112082DD0E0F08A828BBD
:1012900083A30AAB83E0C0E0740212082DD0E0F013
:1012A0008A828B83A3E0C0E0740312082DD0E0F0A3
:1012B00085188285198378081206F8AA08AB09AC4C
:1012C0000AAD0B74041207F87F0402089974F8122F
:1012D00008397F00C3EA9410EB942740077AFF7B1C
:1012E000FF02138FC3EA9440EB941F400A7F80EA09
:1012F00024C0FAEB34E0FBC3EA94A0EB940F400C5B
:1013000074404FFFEA2460FAEB34F0FBC3EA94D058
:10131000EB9407400C74204FFFEA2430FAEB34F8CA
:10132000FBC3EA94E8EB9403400C74104FFFEA24EB
:1013300018FAEB34FCFBC3EA9420EB9403400C74E2
:10134000084FFFEA24E0FAEB34FCFBC3EA9490EB8D
:101350009401400C74044FFFEA2470FAEB34FEFB56
:10136000C3EA94C8EB9400400C74024FFFEA24389F
:10137000FAEB34FFFBC3EA9464EB94004008740179
:101380004FFFEA249CFAEAF9121561E9FAEFFB7FB4
:101390000102089974F112083974F81207E28518ED
:1013A00082851983EAF0A3EBF0A3ECF0A3EDF090B3
:1013B0000D607808120707740412082D78081207C8
:1013C0001A8013900D647808120707851882851912
:1013D000837808120655851882851983C082C083D8
:1013E000900D687808120707D083D082780812041D
:1013F0005750D0900D6C7808120707900D70780C3C
:101400001207077A008008740178081205E00AEADA
:10141000C3941085188285198378085046120457A2
:101420004015740412082D780C1206E58518828583
:10143000198378081206947401780C1205E0EA12F8
:10144000094D0003034F140759140B5E1407149041
:101450000D74780812070780B5900D7880F4900D10
:101460007C80EF1206F8AA08AB091212CD8A088B0D
:1014700009750A00750B00740412082D780812060D
:10148000E5740412082D78081206F8AA08AB09AC16
:101490000AAD0B74081207F87F0802089974F1125C
:1014A000083974FA1207E2740212082DEAF0A3EB6D
:1014B000F0A3ECF0A3EDF0900D60780C1207077428
:1014C0000512082DA882A983851882851983E8F062
:1014D000A3E9F07E008051851882851983E0F8A386
:1014E000E0F5838882E0F9121540E9FA85188285D3
:1014F0001983E024FFF8A3E034FFF98518828519E9
:1015000083E8F0A3E9F0900D807808120707780CC3
:1015100079081204678A08750900750A00750B00BE
:10152000780C79081206180EEEC3940440A9AA0C90
:10153000AB0DAC0EAD0F74061207F87F08020899C8
:1015400074F7120839E9C3949A400479AA800DE926
:101550002462F582E4340AF583E493F97F020208F9
:101560009974F7120839E9C39464400479FF800D37
:10157000E924FCF582E4340AF583E493F97F02025E
:10158000089974F812083980128A828B83A3AA8280
:10159000AB838C828D83A3AC82AD83E96026198AEC
:1015A000828B83E0FE8C828D83E06E60DCE0C0E0A5
:1015B0008A828B83E0FAD0E0C39A500479018006D6
:1015C0007902800279007F0102089974F8120839C3
:1015D00080128A828B83A3AA82AB838C828D83A3A1
:1015E000AC82AD83E96028198A828B83E493FE8CF8
:1015F000828D83E06E60DBE0C0E08A828B83E493BF
:10160000FAD0E0C39A500479018006790280027909
:10161000007F0102089974F7120839EAFCEBFDE932
:10162000FE7A557B55802CEAF9EBFA8C828D83E0AB
:101630006AC333FAE433FBEA2460F582EB340BF53A
:1016400083E493FAA3E49369FB8C828D83A3AC8239
:10165000AD831EEE70D17F0202089974F81208392A
:101660008A828B83E9FEEE1E6010E0F9121540E9D4
:10167000A3C3946440F07901800279007F010208DD
:101680009974F8120839801D8C828D83E4938A82C4
:101690008B83F08C828D83A3AC82AD838A828B8313
:1016A000A3AA82AB83E91970DF7F0102089974F85D
:1016B000120839801C8C828D83E08A828B83F08CA7
:1016C000828D83A3AC82AD838A828B83A3AA82ABF3
:1016D00083E91970E07F0102089974F71208397CD8
:1016E0000079008001098C080CEA2508F582EB34AA
:1016F00000F583E4936006E9C394C840E87F0202E2
:10170000089974F7120839EAFEEBFF8C088D09AAD4
:1017100008AB091216DAE9FA802385088285098365
:10172000E4938E828F83F0850882850983A3858266
:10173000088583098E828F83A3AE82AF83EA1A70F5
:10174000D97F02020899C082C083800BE98A828B0C
:1017500083F0A3AA82AB83EC1C70F1D083D08222E9
:1017600074F5120839890A750B00804D850B82AE1D
:1017700082850A08EEC333F8E433F9E50898F8E403
:1017800099F9EC28F8ED39F9EA2EFEEB3400FFE880
:1017900024FEF582E934FFF583E0C454F08E828F95
:1017A00083F0E824FFF582E934FFF583E0540FF875
:1017B0008E828F83E048F0050BE50AC313F9E50B31
:1017C000C39940A87F0402089974F5120839E9FE0C
:1017D00079007F0080658E0874FF2508F50A74FF84
:1017E0003400F50B8F08E50AC39508F508E50B945E
:1017F00000F509EA2508F508EB350985080AF50B17
:10180000850A82F583E0C4540F2430C0E08908ECD7
:101810002508F582ED3400F583D0E0F009850A82D1
:10182000850B83E0540F2430C0E08908EC2508F5CF
:1018300082ED3400F583D0E0F0090FEFC39E4096AF
:101840007F0402089900000000227B0AEB1B600C59
:101850007A00EAC3941E50F4000A80F62274F31250
:1018600008398A088B09890C740D12082DE0F8A339
:10187000E0F988828983AE08AF09750A0074F05ECA
:10188000F874FF5FF9850C08E5082EFAE43FFB7455
:10189000FF2A1A74FF3BFB74F05A687002EB696010
:1018A0000CEE540FFA7410C39AF50B8007850C0BDD
:1018B0008002050AC2AF75CEA575CF5AD2AFE50A30
:1018C000C39403400779027F0602089974075FFFFB
:1018D000121B9DEFC33324A0F9121AB2E970D3EEA4
:1018E000F9121AB2E970CB858208858309750D005B
:1018F0008003A3050DE50DC3950B5008E0F9121AFE
:10190000B2E960EEE50DC3950B50088508828509A4
:1019100083809F121C1812184AE50BC3950C4004D3
:10192000790080A3850B08EE2508FEEF3400FFE563
:101930000BC50C950CF50CC394114006750B1002E9
:1019400018B40218AD74F11208398A088B09890C91
:10195000740F12082DE0F8A3E0F988828983750DD1
:10196000008002050DE50DC39403503685080E85F1
:10197000090F74FF550EFE7407550FC33324A0F5ED
:101980000E121B9DA90E121AB2E970D7EEF9121AA7
:10199000B2E970CF121B9D7401250EF9121AB2E93B
:1019A00070C1750D008006121CFEA3050DE50DC368
:1019B000950C5022121A31E9F0850D08850C0A7435
:1019C000FF250AF874FF3400F9E865087001E97032
:1019D000D6121C9E80D4121C1812184A79007F0857
:1019E00002089974F3120839740D12082DE0F50CF1
:1019F000A3E0F50D780C1208D5790112194574028F
:101A00001207F879007F0602089974F312083974F6
:101A10000D12082DE0F50CA3E0F50D780C1208D599
:101A2000790212194574021207F879007F0602083C
:101A30009974F81208399028AEE0C2E2F09028AD0F
:101A4000E0C2E2F09028ACE0C2E2F0E0D2E1F09037
:101A500028ADE0D2E1F0E4900191F0FE802F121861
:101A6000459028AEE0D2E2F09028ADE0C2E2F090DE
:101A700028ACE0C2E2F0900191E0C333F09028AFCF
:101A8000E0A2E15007900191E0D2E0F00EEEC394A5
:101A9000089028AEE0C2E2F09028ADE0C2E2F090FB
:101AA00028ACE0C2E2F040B6900191E0F97F01027B
:101AB000089974F8120839E9900192F09028AEE084
:101AC000C2E2F09028ADE0C2E2F09028ACE0C2E2C1
:101AD000F09028AEE0C2E1F09028ADE0C2E1F090D5
:101AE00028ACE0C2E1F07E008034C2E1F09028AD85
:101AF000E0C2E1F09028ACE0C2E1F0900192E0C3D6
:101B000033F01218459028AEE0D2E2F09028ADE014
:101B1000C2E2F09028ACE0C2E2F01218450EEEC32B
:101B200094089028AEE0C2E2F09028ADE0C2E2F066
:101B30009028ACE0C2E2F05010900192E0A2E79051
:101B400028AEE050A5D2E180A3121845E0D2E1F022
:101B50009028ADE0D2E1F09028AEE0D2E2F09028FB
:101B6000ADE0C2E2F09028ACE0C2E2F0121845907D
:101B700028AFE0A2E15004D2F08002C2F0A2F0E46B
:101B800092E0F99028AEE0C2E2F09028ADE0C2E227
:101B9000F09028ACE0C2E2F07F01020899C082C058
:101BA000839028AEE0C2E2F09028ADE0C2E2F0906F
:101BB00028ACE0C2E2F09028AEE0D2E1F09028AD8F
:101BC000E0C2E1F09028ACE0C2E1F09028AEE0D2B3
:101BD000E2F09028ADE0C2E2F09028ACE0C2E2F082
:101BE0001218459028AEE0C2E1F09028ADE0C2E1C5
:101BF000F09028ACE0C2E1F01218459028AEE0C2A7
:101C0000E2F09028ADE0C2E2F09028ACE0C2E2F051
:101C1000121845D083D08222C082C0839028AEE0C3
:101C2000C2E2F09028ADE0C2E2F09028ACE0C2E25F
:101C3000F09028AEE0C2E1F09028ADE0C2E1F09073
:101C400028ACE0C2E1F01218459028AEE0D2E2F0F4
:101C50009028ADE0C2E2F09028ACE0C2E2F01218A9
:101C6000459028AEE0D2E1F09028ADE0C2E1F090DE
:101C700028ACE0C2E1F0121845E0D2E1F09028ADC6
:101C8000E0D2E1F09028AEE0C2E2F09028ADE0C2F0
:101C9000E2F09028ACE0C2E2F0D083D08222C08291
:101CA000C0839028AEE0C2E2F09028ADE0C2E2F03E
:101CB0009028ACE0C2E2F09028AEE0D2E1F09028AB
:101CC000ADE0C2E1F09028ACE0C2E1F09028AEE0D7
:101CD000D2E2F09028ADE0C2E2F09028ACE0C2E29F
:101CE000F01218459028AEE0C2E2F09028ADE0C2B4
:101CF000E2F09028ACE0C2E2F0D083D08222C08231
:101D0000C0839028AEE0C2E2F09028ADE0C2E2F0DD
:101D10009028ACE0C2E2F09028AEE0C2E1F090285A
:101D2000ADE0C2E1F09028ACE0C2E1F09028AEE076
:101D3000D2E2F09028ADE0C2E2F09028ACE0C2E23E
:101D4000F01218459028AEE0C2E2F09028ADE0C253
:101D5000E2F09028ACE0C2E2F0D083D0822274F8A6
:101D60001208397E00801AEE75F084A42494F5825E
:101D7000E5F03401F583E064047005EEF9121D8C82
:101D80000EEEC3940240E07F0102089974F8120835
:101D900039E9FE75F084A42493F582E5F03401F569
:101DA00083EEC394024005121E1A8013EEF0AA823D
:101DB000AB83125257E964FF7005EEF9121DC47F20
:101DC00001020899C082C083E9C394025047E975B3
:101DD000F084A42493F8E5F03401F974FF88828933
:101DE00083F0E4A3A3A3A3A3F088828983A3A3A37E
:101DF000A3A3A3F088828983A3A3A3A3F074038879
:101E0000828983A3F0E488828983A3A3F0888289EE
:101E100083A3A3A3F0D083D08222EEC0E07E008013
:101E200006EEF9121DC40EEEC3940240F4D0E0FE9B
:101E300022C082C083E975F084A42493FAE5F034CB
:101E400001FB74028A828B83A3F0E48A828B83A3D2
:101E5000A3A3A3F08A828B83E0FA70051270F88046
:101E60000D74016A7005126F7B8003121DC4D0834C
:101E7000D08222C082C0837B008033EB75F084A4C3
:101E80002493F8E5F03401F9E82402F582E93400FE
:101E9000F583E06018E014F0E07012740488828921
:101EA00083A3F0900383E04410F0A3E0F00BEBC3B6
:101EB000940240C7D083D0822274F5120839EAFE1A
:101EC000EBFF8E828F83A3A3A3A3A3A3E06401707F
:101ED0002FEE240FF582EF3400F5831208EA79061D
:101EE000900D607808120707AA08AB09AC0AAD0B81
:101EF00012194574021207F874068E828F838007C8
:101F0000E48E828F83A3A3A3A3F079007F04020849
:101F10009974F5120839EAFEEBFF75080080020596
:101F200008900E30E493FAE508C39A502E8E828F03
:101F300083A3A3A3A3A3A3A3A3A3A3E0FA85080A4F
:101F4000750B007402780A1207CFE50A2428F5827F
:101F5000E50B340EF583E4936A70C4900E30E4937D
:101F6000FAE508C39A401874028E828F83A3A3A354
:101F7000A3A3F074018E828F83A3A3F0022038758F
:101F80000900740278081207CFE5082428F8E5094B
:101F9000340EF988828983A3E493F508740193F5DC
:101FA000098E828F83A3A3A3A3A3A3A374041208FF
:101FB000EE88828983A3A3A3E493F9AA08AB09124C
:101FC000244B74041207F8E9FA74FF6A60998E8250
:101FD0008F83A3A3A3A3A3A3A3A3E064FF700E8E88
:101FE000828F83A3A3A3A3A3A3E0D2E6F0EA75F0B4
:101FF0000DA4F8A9F0E50828F582E50939F583ACC8
:1020000082AD83EEFAEFFBA3A3A3A3A3A3A3A3E450
:1020100093C333F8E433F9E82490F582E9340DF5FD
:1020200083E493C0E0740193F583D082120837E90A
:1020300064FF700479FF800279007F0402089974BC
:10204000F11208398A0C8B0DEA2407FEEB3400FFED
:10205000EA240FF50EEB3400F50F7904850E82F5B6
:1020600083E0FCA3E0FDEEFAEFFB1216AE7A0080EF
:10207000027A01EA705A8E828F83C082C083900EEA
:10208000617808120707D083D082780812040470A0
:10209000E0850E82850F83E02404F508A3E0340078
:1020A000F50978081208D57940900E65780812076E
:1020B00007AA08AB09AC0AAD0B1219457402120746
:1020C000F87444850C82850D83A3A3F07900800207
:1020D00079FF7F0802089974F112083974FE12071B
:1020E000E2851882851983EAF0A3EBF085188285D2
:1020F0001983E02407F50CA3E03400F50D85188260
:10210000851983E0240FF50EA3E03400F50F790460
:10211000850E82F583E0FCA3E0FDAA0CAB0D121640
:10212000AE850C82850D83C082C083900E697808CD
:10213000120707D083D08278081204047037900306
:1021400089E0A2E04008900362E06455700874558D
:102150009003620224287404C0E0851882851983E4
:10216000E0F8A3E0F5838882A3A3A3A3A3D0E0F0C3
:10217000740102242A900362E0645570D9850C82B0
:10218000850D83C082C083900E6D7808120707D03A
:1021900083D08278081204047003E480B3850C8233
:1021A000850D83C082C083900E717808120707D016
:1021B00083D08278081204047015850E82850F83FF
:1021C000E02404FAA3E03400FB1245F4022429853C
:1021D0000C82850D83C082C083900E75780812072B
:1021E00007D083D08278081204047015850E82858A
:1021F0000F83E02404FAA3E03400FB124787022493
:1022000029850C82850D83C082C083900E79780861
:10221000120707D083D082780812040470137AE082
:102220007B02122EDC900387E04440F0A3E00224FE
:1022300028850C82850D83C082C083900E7D78082E
:10224000120707D083D08278081204047062790FD5
:10225000850E82850F83E02404FCA3E03400FD7A20
:10226000087B031216AE7911850E82850F83E02458
:1022700013FCA3E03400FD7A357B031216AE7C1EFE
:1022800079007A177B03121746793E7A087B03128E
:102290001616900346EAF0A3EBF079407C087D0324
:1022A0007A207B00122B43900387E0440202222B0A
:1022B000850C82850D83C082C083900E81780812C0
:1022C0000707D083D08278081204047024850E8218
:1022D000850F83E02404FAA3E03400FB1212638A22
:1022E000088B098C0A8D0B900317780812071A8047
:1022F00098850C82850D83C082C083900E857808F6
:10230000120707D083D08278081204047041850E2A
:1023100082850F83E02404FAA3E03400FB121263E9
:102320008A088B098C0A8D0B90031F780812071AF4
:10233000850E82850F83E02408FAA3E03400FB12A7
:1023400012638A088B098C0A8D0B900323809B856E
:102350000C82850D83C082C083900E897808120795
:1023600007D083D0827808120404701A850E828503
:102370000F83E0F8A3E0F5838882A3A3A3A3E090F2
:102380000333F0022289850C82850D83C082C083CD
:10239000900E8D7808120707D083D0827808120437
:1023A000047020850E82850F83E02404FAA3E034B4
:1023B00000FB1212638A088B098C0A8D0B90032B89
:1023C0000222EA7E0080027E01EE7035850C828555
:1023D0000D83C082C083900E617808120707D083F6
:1023E000D082780812040470DE7940850E82850F51
:1023F00083E02404FCA3E03400FD7A207B00122B50
:1024000043EE70030222A7600EC3940650099003A6
:1024100087E0440802222BEEC39406400C90038709
:10242000E04424F0A3E04402F0E4C0E08518828593
:102430001983E0F8A3E0F5838882A3A3D0E0F079C4
:102440000074021207F87F0802089974F112083923
:10245000EAFEEBFF7C0074FF29FB741212082DE0EA
:102460007059740F12082DC082C083900E917808A5
:10247000120707D083D08278081206A8900E9578AC
:1024800008120419700579FF0225C9741012082D6D
:10249000E0FA74FF6A6006EAC3940550E974111209
:1024A000082DE0FA740C6A601C740B6A6017E4C0B3
:1024B000E0741012082DD0E0F0800A741012082D7C
:1024C000E064FF60E9740F12082DC082C0838E8221
:1024D0008F837808120707D083D0827808120457B8
:1024E000500A80A2EB6A605B74012AFC8C0A8B089C
:1024F000E508250AF508E43400F5097401780812A6
:1025000007B0AA08EA75F00DA4F8A9F0EE28F58244
:10251000EF39F5837808120707740F12082D780831
:10252000120404601E740F12082D780C1206F8783D
:102530000C790812044740ACEC6A60030225CEEA2D
:1025400060011AEA75F00DA4F8A9F0EE28F8EF3949
:10255000F988828983E493FCA3A3A3A3A3A3A3E4A0
:10256000932CFCE43400FD740F12082DE0FEC3EC44
:102570009EED9400C365D03350030224868882897F
:1025800083A3E493FC88828983A3A3A3A3A3A3E4E6
:10259000932CFCE43400FD741012082DE0FEC3EC13
:1025A0009EED9400C365D03350030224868882894F
:1025B00083A3A3E493C0E0741112082DE0FBD0E0E4
:1025C000C39B5003022486EAF97F0802089974FF2E
:1025D0002AFB0224EC79002274F512083974FE12E9
:1025E00007E2EAFEEBFFEE240FF8EF3400F98E82EB
:1025F0008F83A3E06411888289837070E0FAA3E07E
:10260000F5838A82E0851882851983F08882898320
:10261000E0FAA3E0F5838A82A3E0C0E07401120827
:102620002DD0E0F088828983E0FAA3E0F5838A82E6
:10263000A3A3A3E0F508C39451400579FF0226E463
:10264000888289831208EAA908740212082DE0F52D
:102650000AA3E0AA0AFB7C007D001219457402124D
:1026600007F88E828F83A3A3E5088075E0FAA3E0C4
:10267000F5838A82E0851882851983F088828983B0
:10268000E0FAA3E0F5838A82A3E0C0E074011208B7
:102690002DD0E0F088828983E0FAA3E0F5838A8276
:1026A000A3A3A3E0F508C39451509088828983E0E6
:1026B0002404F50AA3E03400F50B780A1208D5A922
:1026C00008740212082DE0F508A3E0AA08FB7C00BC
:1026D0007D0012185D74021207F8E48E828F83A3C6
:1026E000A3F0790074021207F87F0402089974F1CC
:1026F00012083974F81207E2851882851983EAF006
:10270000A3EBF0ECFEEDFF7A00851882851983E0DB
:102710002406F8A3E03400F9740212082DE8F0A3AF
:10272000E9F0740212082DE0F8A3E0F5838882E056
:10273000A2E650010AEE240BF50EEF3400F50FEA85
:1027400075F006A4FAABF0850E82850F83E493F84A
:10275000740193F9E875F006A4F8ACF075F006E999
:10276000A42CF9E82431F8E9340EF9EA28F50CEB49
:1027700039F50D850C82F5837808120707AA08AB96
:1027800009123C6E740412082DEAF0A3EBF0A3ECDE
:10279000F0A3EDF0851882851983E0240FF50AA3D4
:1027A000E03400F50BEE2405FEEF3400FF8E828F3F
:1027B00083E493F9740412082DAC82AD83850A82F8
:1027C000850B83E0FAA3E0FB1216AEE50C2405F5B9
:1027D00008E50D3400F509740212082DE0F8A3E0B5
:1027E000F5838882E0A2E64003022881850E828577
:1027F0000F83E493F8740193F97405687001E98E0E
:10280000828F836026E493FA850882850983E493A6
:10281000C39AFC79FF8E828F83E493FA850A8285BE
:102820000B83E02AFAA3E034008052E493F97404A5
:1028300012082DAC82AD838E828F83E493FA850AD1
:1028400082850B83E02AFAA3E03400FB1216AE8ED9
:10285000828F83E493C333FA850882850983E493E6
:10286000C39AFC79FF8E828F83E493C333FAE433F7
:10287000FB850A82850B83E02AFAA3E03BFB121753
:1028800046850882850983E493C0E085188285190E
:1028900083E0F8A3E0F5838882A3A3D0E0F0790079
:1028A00074081207F87F08020899C008C009C3EA33
:1028B0009480EB9400400479FF800D8A088B0974A2
:1028C0000578081207C0A908D009D0082274F112AF
:1028D000083974781207E2E4C0E0740112082DD0C0
:1028E000E0F0900366E0F9C394035003022B391221
:1028F0001540E924FDF50FC394044003022B39E58C
:102900000F75F003A42499F8E5F0340EF988828954
:1029100083E493851882851983F088828983A3E4F0
:1029200093F8740193F9740412082DE8F0A3E9F008
:10293000744812082D85820885830978081208D505
:10294000740212082DE0F9740612082DE0F508A3B0
:10295000E0AA08FB7C007D0012194574021207F8FA
:10296000740412082DE024A0F508A3E03400F50952
:10297000740812082D85820C85830D780C1208D5F9
:10298000740212082DE0F9AA08AB097C007D001240
:10299000194574021207F8851882E024FEF50EF935
:1029A000744812082DAA82AB8312161674021208FC
:1029B0002DEAF0A3EBF0851882851983E0FE7448B8
:1029C00012082DE5822EF8E5833400F974FE2818EC
:1029D0001874FF39F9740612082DE8F0A3E9F074B1
:1029E0000212082DC082C083740612082DE0FAA3DB
:1029F000E0FB1212488A0C8B0DD083D082E0650C6C
:102A00007004A3E0650D600A7401C0E012082DD0C7
:102A1000E0F0A90E740812082DAA82AB83121616D4
:102A2000740212082DEAF0A3EBF0740812082DE5E9
:102A3000822EF8E5833400F974FE28FE74FF39FF16
:102A4000740212082DEEFAEFFB1212488A0C8B0D5D
:102A5000E0650C7004A3E0650D6009740112082D97
:102A6000E02402F0740112082DE0703E7406120892
:102A70002DE0FAA3E0FB121248740212082DEAF0CE
:102A8000A3EBF0740212082DEEFAEFFB1212488A43
:102A90000C8B0DE0650C7004A3E0650D600C7402F6
:102AA000C0E0740112082DD0E0F0850F0C750D0008
:102AB0007402780C1207CFE50C249AF582E50D34E8
:102AC00011F583780C12070790029C780C1206E52A
:102AD000740112082DE064017033780C1205D09057
:102AE000029C780C1206D2740812082D8582088583
:102AF000830978081208D5740212082DE0F97406CB
:102B000012082DE0F508A3E0AA08FB8020E064028B
:102B10007027744812082D85820C85830D780C125D
:102B200008D5740212082DE0F9AA08AB097C007DD3
:102B30000012185D74021207F874881207F87F08F3
:102B400002089974F112083974741207E2740812B9
:102B5000082DEAF0A3EBF0740A12082DECF0A3EDB7
:102B6000F0E9C0E0740112082DD0E0F0744C1208B6
:102B70002DA882A983740212082DE8F0A3E9F0744D
:102B80000812082DE0FAA3E0FB1228AAE9FA740162
:102B900012082DE07003022DDEEAC3940440030204
:102BA0002DB6EA75F003A42499F8E5F0340EF988FF
:102BB000828983E493851882851983F088828983CA
:102BC000A3E493F8740193F9740412082DE8F0A3B8
:102BD000E9F0744C12082D85820885830978081263
:102BE00008D5740212082DE0F9740612082DE0F5DC
:102BF00008A3E0AA08FB7C007D00121945740212AC
:102C000007F8851882851983E024FEF508F9744CCD
:102C100012082DAA82AB83121616740612082DEA2A
:102C2000F0A3EBF0740412082DE024A0F50CA3E04F
:102C30003400F50D740612082DC082C083851882F9
:102C4000851983E0F8744C12082DE58228F8E58395
:102C50003400F974FE28FA74FF39FB1212488A0A0C
:102C60008B0BD083D082E0650A7004A3E0650B7003
:102C700003022D03740C12082D85820A85830B78BC
:102C80000A1208D5740212082DE0F9AA0CAB0D7CCB
:102C9000007D0012194574021207F8A908740C127D
:102CA000082DAA82AB83121616740612082DEAF0BC
:102CB000A3EBF0740612082DC082C08385188285AC
:102CC0001983E0F8740C12082DE58228F8E58334A6
:102CD00000F974FE28FA74FF39FB1212488A0A8B35
:102CE0000BD083D082E0650A7004A3E0650B7013FB
:102CF000740C12082DA882A983740212082DE8F022
:102D0000A3E9F0740112082DE0F9740A12082DE00D
:102D1000FCA3E0FD740812082DC082C08374041265
:102D2000082DE0FAA3E0FBD083D082E0C39AFAA397
:102D3000E09BFB740212082DE02AFAA3E03BFB1291
:102D400016AE851882851983E0F8740212082DE00A
:102D500028F8A3E03400F974FE28FC74FF39FDEC78
:102D6000FEEDFFA908740212082DE0FAA3E0FB12A1
:102D70001616EEFCEFFD121235740212082D120821
:102D8000EA740212082DE0F9740612082DE0F50825
:102D9000A3E0AA08FB7C007D0012185D74021207F4
:102DA000F8740212082D1208EA740212082DE0F9D4
:102DB000AA0CAB0D801C740A12082D1208EA7403C9
:102DC00012082DE0F9740A12082DE0F508A3E0AA14
:102DD00008FB7C007D0012185D74021207F8748CE9
:102DE0001207F87F0802089974F81208397E0080EB
:102DF0000F0EA3AA82AB83EC24020C0CED3400FD71
:102E0000EEC39950298A828B83E0C0E08C828D8347
:102E1000E493FFD0E0C39F4011A3E493C0E08A8213
:102E20008B83E0FFD0E0C39F50C779018002790017
:102E30007F0102089974F712083974FE1207E2EA5A
:102E4000FEEBFF8E828F83A3A3A3A3A3A3A3A3E080
:102E5000851882851983F08E828F83A3A3A3A3A3F1
:102E6000A3A3A3A3E0C0E0740112082DD0E0F08575
:102E7000188285198379081216168A088B09E0656D
:102E8000087004A3E06509701B7A0080010AEAC398
:102E9000940850148A08EE2508F582EF3400F58373
:102EA000E06A60E979008002790174021207F87F14
:102EB0000202089974F71208397C0080147437C034
:102EC000E08C08EA2508F582EB3400F583D0E0F0C9
:102ED0000CECC3940A40E67F0202089974F71208CA
:102EE0003974FE1207E2EAFEEBFF7A008013EAC0B3
:102EF000E08A08EE2508F582EF3400F583D0E0F093
:102F00000AEAC3940840E77908EEFA121616851803
:102F100082851983EAF0A3EBF0851882851983E096
:102F20008E828F83A3A3A3A3A3A3A3A3F0740112F0
:102F3000082DE08E828F83A3A3A3A3A3A3A3A3A39F
:102F4000F074021207F87F0202089974F712083928
:102F50007AE07B02122E35E960757AE07B02122E50
:102F6000B47C4079007AA07B021217467E00803B39
:102F7000C2AF75CEA575CF5AD2AF7508A07509023C
:102F800078081208D579408E08750900740678080B
:102F90001207CF74602508FA74013509FB3395E0F8
:102FA000FCFD12185D74021207F80EEEC394034084
:102FB000BF79031234527C0279007A507B031217D6
:102FC000467C0279007AEA7B02121746126E347F41
:102FD0000202089912397422C082C083900355E01E
:102FE0007002A3E0601E900355E024FFF0F8A3E018
:102FF00034FFF0F9E87001E9700A900389E054FEAB
:10300000F0A3E0F01233691228CDD083D08222746D
:10301000F312083974FF1207E2E9FE8C0C8D0DEAF9
:1030200060030230C6E4851882851983F085820822
:1030300085830978081208D5900EA9780812070729
:10304000AA08AB09AC0AAD0B1219E374021207F817
:10305000EE6010851882851983E07004740B80027D
:10306000E014F0851882851983E075F00C84E5F092
:10307000F0780C1208D5790C740212082DE089F052
:10308000A4FAABF074612AF50874013BAA08FB7C32
:10309000007D0012185D74021207F8EE6028851892
:1030A0008285820885830978081208D57901900EF7
:1030B000A97808120707AA08AB09AC0AAD0B1218C9
:1030C0005D74021207F874011207F87F060208996E
:1030D00074F112083974FF1207E2EAFF8B0CECFE60
:1030E000741012082DE0F50EA3E0F50FE9706EE400
:1030F000851882851983F0858208858309780812EE
:1031000008D57901900EA97808120707AA08AB091B
:10311000AC0AAD0B12194574021207F885188285A6
:103120001983E02F75F00C84E5F0F0780E1208D5C5
:10313000EEF9740212082DE075F00CA4FAABF0E57C
:103140000C2AFAE43BFB74612AF50874013BAA08D7
:10315000FB7C007D0012194574021207F8740112FD
:1031600007F87F0802089974F512083974FE1207EF
:10317000E27508A075090278081208D5790C900E3E
:10318000AD7808120707AA08AB09AC0AAD0B1219F3
:103190004574021207F87AAA7B0212124885188237
:1031A000851983EAF0A3EBF0790A7AA07B02121664
:1031B000168A088B09A808A909851882851983E051
:1031C000687003A3E069706179067CA07D027AEEE5
:1031D0007B021216AE1236B179027CA67D027A50BD
:1031E0007B031216AE79027CA87D027AEA7B02127A
:1031F00016AE851882851983E4F0A3F085188285C0
:10320000198385820885830978081208D579029088
:103210000EB17808120707AA08AB09AC0AAD0B1269
:10322000185D74021207F880167C0279007A507BD0
:10323000031217467C0279007AEA7B021217469045
:103240000389E054F7F0A3E0F074021207F87F045A
:1032500002089974F512083974C01207E2851882C1
:1032600085198385820885830978081208D57940F5
:10327000900E657808120707AA08AB09AC0AAD0BD7
:1032800012194574021207F8743E12082DAA82AB77
:10329000831212488A088B09AE08AF09793E851857
:1032A00082851983AA82AB83121616EA6E7002EB2E
:1032B0006F7009AA82AB83123339807085820885CA
:1032C000830978081208D57940900ED5780812073E
:1032D00007AA08AB09AC0AAD0B1219457402120714
:1032E000F8743E12082DAA82AB831212488A088B0A
:1032F00009AE08AF09793E851882851983AA82AB89
:1033000083121616EA6E7002EB6F60A7793E7A0898
:103310007B031216168A088B09A808A90990034690
:10332000E0687003A3E06960031240E01242647435
:10333000401207F87F04020899C082C08378087998
:10334000037C0080198A828B83E088828983F0A3C2
:10335000A882A9838A828B83A3AA82AB830CECC345
:10336000944040E1D083D0822274F512083974FE73
:103370001207E2851882851983858208858309787A
:10338000081208D5900ED97808120707AA08AB09C9
:10339000AC0AAD0B121A0A74021207F8851882855E
:1033A0001983E0F8A3E0F9900346E0687003A3E016
:1033B000697022793E7A087B031216168A088B09F7
:1033C000A808A909900346E0687003A3E0697005A6
:1033D00012426480031232531233E574021207F86A
:1033E0007F0402089974F71208397C0080010CEC04
:1033F000C3940850468C08750900740278081207B7
:10340000CFE50824B5F8E509340EF988828983E40C
:1034100093FA740193FB900308E06A7003A3E06BD6
:1034200070CC88828983A3A3E4939002ECF0888215
:103430008983A3A3A3E4939002EDF0ECC394084026
:103440000C740A9002ECF074019002EDF07F02021D
:10345000089974F5120839E9FEA2E050297C047934
:10346000007AEE7B0212174679047AEE7B0212167E
:10347000169002F2EAF0A3EBF079067CEE7D027A78
:10348000F47B021216AEEEA2E150667C0E79007A51
:10349000FA7B02121746790C7AFA7B021216169002
:1034A0000306EAF0A3EBF07508FA75090278081232
:1034B00008D5790E900EDD7808120707AA08AB0927
:1034C000AC0AAD0B12185D74021207F87508FA7594
:1034D000090278081208D5790E900EE178081207D3
:1034E00007AA08AB09AC0AAD0B12185D74021207EB
:1034F000F87F0402089974F512083974F21207E291
:10350000123635E9640160030235C58518828519D4
:103510008385820885830978081208D5790E900E74
:10352000DD7808120707AA08AB09AC0AAD0B12191F
:103530004574021207F8790C851882851983AA82CE
:10354000AB831216168A088B09A808A909740C12F5
:10355000082DE0687003A3E0696050851882851922
:103560008385820885830978081208D5790E900E24
:10357000E17808120707AA08AB09AC0AAD0B1219CB
:103580004574021207F8790C851882851983AA827E
:10359000AB831216168A088B09A808A909740C12A5
:1035A000082DE0687003A3E0697015790E85188214
:1035B000851983AC82AD837AFA7B021216AE800540
:1035C0007902123452740E1207F87F0402089974BB
:1035D000F71208397E0079047AEE7B021216168AF9
:1035E000088B09A808A9099002F2E0687003A3E01B
:1035F00069601F0E79047AF47B021216168A088B12
:1036000009A808A9099002F8E0687003A3E06960BE
:10361000010EEEA2E0500F79067CF47D027AEE7B7B
:10362000021216AE800AC394024005790112345288
:103630007F0202089974F7120839790C7AFA7B0232
:103640001216168A088B09A808A909900306E068D3
:103650007003A3E06960047901800279007F0202AF
:10366000089974F812083989087E007F001235CF56
:10367000E508701B9002EEC082C0839002F0E0F873
:10368000A3E0F9D083D082E028FEA3E0398018744B
:1036900001650870059002EE8009740265087008E3
:1036A0009002F0E0FEA3E0FFEEFAEFFB7F010208DC
:1036B0009974F512083974F21207E27E00851882B7
:1036C00085198385820885830978081208D5790EC3
:1036D000900EDD7808120707AA08AB09AC0AAD0BFB
:1036E00012194574021207F8790C8518828519831E
:1036F000AA82AB831216168A088B09A808A9097436
:103700000C12082DE0687003A3E0696050851882F0
:1037100085198385820885830978081208D5790E72
:10372000900EE17808120707AA08AB09AC0AAD0BA6
:1037300012194574021207F8790C851882851983CD
:10374000AA82AB831216168A088B09A808A90974E5
:103750000C12082DE0687003A3E06970010EEE7092
:1037600020790C7AFA7B021216168A088B09A808AF
:10377000A909900306E0687003A3E06960030238BA
:103780005974016E7013790E851882851983AC8285
:10379000AD837AFA7B021216AE7A00790112366294
:1037A0008A088B09EB3395E0F50AF50B9002FE7859
:1037B000081206557A0079001236628A088B09EBE6
:1037C0003395E0F50AF50B9002FA78081206557A5F
:1037D0000079021236628A088B09EB3395E0F50A0C
:1037E000F50B9003027808120655790C7AFA7B02E1
:1037F000121616900306EAF0A3EBF0123635E970C4
:10380000587508FA75090278081208D5790E900ED5
:10381000DD7808120707AA08AB09AC0AAD0B12182D
:103820005D74021207F8E97030123635E9702A79B2
:10383000011234527508FA75090278081208D57910
:103840000E900EE17808120707AA08AB09AC0AAD82
:103850000B12185D74021207F8740E1207F87F0439
:1038600002089974F31208391235CF7EEA7F027587
:1038700008EE750902750B00805C8E828F83E06014
:1038800018C2AFE0F50CE4F0D2AF85088285098359
:10389000E0250CF0A3E03400F0850882850983C39D
:1038A000E09499A3E0940840031235CF85088285FF
:1038B0000983C3E094D1A3E094074003750A55053A
:1038C0000B8E828F83A3AE82AF83E5082402F508B6
:1038D000E5093400F509E50BC39402409D79047AAB
:1038E000EE7B021216169002F2EAF0A3EBF07906D4
:1038F0007CEE7D027AF47B021216AE7455650A7076
:10390000031236B17F0602089974F512083912368F
:1039100035E960507508FA75090278081208D579FA
:103920000E900EDD7808120707AA08AB09AC0AADA5
:103930000B12194574021207F8123635E960257525
:1039400008FA75090278081208D5790E900EE17808
:1039500008120707AA08AB09AC0AAD0B1219457487
:10396000021207F87CFA7D027A00790112300F7F8B
:103970000402089974F512083974FA1207E28518DE
:103980008285198385820885830978081208D5798C
:1039900006900EE57808120707AA08AB09AC0AAD35
:1039A0000B12194574021207F87C008049EDC333ED
:1039B000F8E433F9851882851983E58228F8E583D0
:1039C00039F9ECC333FAE433FBE5822AF582E58367
:1039D0003BF583E0FAA3E0FB88828983E06A700309
:1039E000A3E06B7009888289837499F0A3F00DEDD0
:1039F000C3940340B80CECC39402500674012CFD30
:103A000080ED7C0080010CECC394035045ECC33383
:103A1000F8E433F9851882851983E58228F8E5836F
:103A200039F988828983E064997004A3E06499601D
:103A3000D588828983E0FA900367E06A70C888823B
:103A40008983A3E0FA900368E06A70BA1236B11273
:103A5000390974061207F87F04020899C082C083EE
:103A6000E490285DF090285FF0902868F0D083D033
:103A7000822274F71208397480902878F0E490104C
:103A8000E8F09010E9F09010EAF09010EBF0901050
:103A9000ECF0FA8010E4C0E08A08E508F582D0E096
:103AA000F00000000AEAC394E440EA7AF08010E4EF
:103AB000C0E08A08E508F582D0E0F00000000AEADC
:103AC000C394FE40EA74BC9010E8F074749010E95E
:103AD000F074939010EAF074889010EBF0E490107A
:103AE000ECF07AE48010E4C0E08A08E508F582D0C2
:103AF000E0F00000000AEAC394E740EA74CC9010BA
:103B0000E8F09010E9F09010EAF0748C9010EBF06F
:103B100074019010ECF0E49010F4F00000009010AC
:103B2000FAF000000074FF9010E8F09010E9F090B7
:103B300010EAF09010EBF0E49010ECF09010F5F03B
:103B40000000009010FBF0000000902878F07F0249
:103B500002089974F512083990034878081206F89B
:103B6000E5089010E8F090034878081206F8E50997
:103B70009010E9F090034878081206F8741078085D
:103B80001205E0E5089010EAF09003487808120664
:103B9000F8741878081205E0E5089010EBF090032F
:103BA0004CE09010ECF0E48A828B83F00000007F00
:103BB0000402089974F512083974FF1207E28A8228
:103BC0008B83E0851882851983F00000009010EC4B
:103BD000E090034CF09010E878081206F8AA08ABC1
:103BE00009AC0AAD0B74011207F87F04020899743E
:103BF000F7120839E95403F9902864E0FB750801CD
:103C0000750900E978081207CFAC08EAA2E7EC5082
:103C100004F45B80104BF0740F5AC0E0E9F874585C
:103C200028F582D0E0F07F02020899C082C083901C
:103C30002878E04450F0E4902879F0742090287AB5
:103C4000F07A007902123BEF7A037900123BEF7AA7
:103C5000017901123BEF902878E0440FF090287D25
:103C6000E0C2E0F0E490287EF0D083D0822274F1AC
:103C700012083974F41207E28A088B09123BB48ADD
:103C80000C8B0D8C0E8D0F851882851983780C1284
:103C9000071A78081209AC00000600D3105D3DD663
:103CA00010B53CD8105D3DD9108B3DDA10D53EFDE6
:103CB00010DB3EA33F740312082DE0C39480402321
:103CC00085188285198378081206F878081205D0BD
:103CD000900EE9780812063E8518828519837808C7
:103CE00012071A90033578081206F8740412082D8A
:103CF000780812071A740412082DC082C083900D30
:103D0000607808120707D083D08278081204047004
:103D10000B7A007B007C007D00023FC785188285FE
:103D2000198378081206F8900D80780C120707782E
:103D300008790C120467740412082D780C1206F826
:103D40007808790C1204E7AA08AB09AC0AAD0B128B
:103D500013948A088B098C0A8D0B023FAB900339B0
:103D600078081206F8900D60780812041960A28590
:103D70001882851983780C1206F8780C79081204D9
:103D8000E7AA0CAB0DAC0EAD0F80C490033D7808D4
:103D90001206F8900D6078081204197003023D11A4
:103DA000851882851983780C1206F8780C79081228
:103DB00004E7AA0CAB0DAC0EAD0F1213948A088B5E
:103DC000098C0A8D0B740812082D780812071A7ACC
:103DD000D67B10123BB48A088B098C0A8D0B7404B5
:103DE00012082D780812071AE0C394804021740449
:103DF00012082D78081206F878081205D0900EE9FE
:103E0000780812063E740412082D780812071A90DA
:103E1000033578081206F8900D60780812041970BE
:103E2000117808120707740412082D780812071A6F
:103E3000801B740412082D780C1206F8780C79088F
:103E40001204E7740412082D780C12071A74041275
:103E5000082DC082C08390030CE0F8A3E0F97AE853
:103E60007B031207578808890990030AE0F8A3E04A
:103E7000F97A647B00120757E88508F0A4C8AAF015
:103E80008509F0A42AFA8508F0E9A42AF9E8C333E1
:103E9000F8E933F97A647B001207578808890975B5
:103EA0000A00750B00D083D08278081204574003B3
:103EB000023FB5740812082DC082C083900EED78C1
:103EC00008120707D083D0827808120457400302F3
:103ED0003FB5023D11900341023D60750800750930
:103EE00000750AE2750B04851882851983780C1217
:103EF00006F87808790C1204E7851882851983780A
:103F00000812071A851882851983C082C083900E13
:103F1000F17808120707D083D0827808120457403E
:103F200022851882851983C082C083900EF5780897
:103F3000120707D083D08278081204575005900EDC
:103F4000F98042851882851983C082C083900EFD56
:103F50007808120707D083D08278081204575005DA
:103F6000900EFD8020851882851983C082C08390C1
:103F70000F017808120707D083D0827808120457FF
:103F80004013900F0578081207078518828519835A
:103F9000780812071A85188285198378081206F89E
:103FA000023D47900D607808120707740812082D2B
:103FB000780812071A740812082D78081206F8AA51
:103FC00008AB09AC0AAD0B740C1207F87F080208A5
:103FD0009974F5120839900352E0C394035003E03A
:103FE00004F0900353E0703C900352E0C39402400D
:103FF000337401900353F0E490034CF09003137872
:10400000081206F8740178081205F9900348780838
:1040100012071A7AF57B10123B537AFB7B10123B86
:10402000531240297F04020899C082C08390287DE2
:10403000E04418F0D2E8902843E0D2E7F0D083D0F3
:104040008222123A5C123A72123C2B12404F2274B6
:10405000F512083912336990287DE0D2E5F09028F6
:1040600078E0C2E5F0900EE978081207079003485F
:10407000780812071A7AF57B10123B537AFB7B10F3
:10408000123B5390030F78081206F8740178081257
:1040900005F9900348780812071A90030EE0C3331D
:1040A000FA90030FC082C083900D70780812070742
:1040B000D083D0827808120457400574012A800109
:1040C000EA90034CF07AF47B10123B537AFA7B109F
:1040D000123B53E4900352F01234F67F0402089925
:1040E000C082C083793E7C4C7D0F7A087B03121618
:1040F00081793E7A087B03121616900346EAF0A3F4
:10410000EBF0D083D08222C082C08390034FE06462
:10411000017027900351E004F0E0C0E09002ECE071
:10412000FAD0E0C39A4045E0FA900351E0C39AF018
:104130009002EDE0FA9002EB8025900350E004F04D
:10414000E0C0E09002ECE0FAD0E0C39A401EE0FA52
:10415000900350E0C39AF09002EDE0FA9002EAE09A
:104160002AF0900383E04404F0A3E0F0D083D082EF
:104170002274F112083974FC1207E27AD67B10120D
:104180003BB48A088B098C0A8D0B900EE9780C12CF
:104190000707780C79081204325003024249900351
:1041A00035780C1206F8851882851983780C120769
:1041B0001A851882851983C082C083900F09780CF4
:1041C000120707D083D082780C1206A8900D607871
:1041D0000C1204197041900F0D780C120707780C1F
:1041E0007908120432401C90034DE004F0E490037F
:1041F0004EF090034DE0C39403405F740190034F71
:10420000F08057E490034DF090034EE004F0E0C3DB
:1042100094044046E480E6900D80780C12070778FD
:1042200008790C120467851882851983780C1206A8
:10423000F87808790C1204E7900F11780C12070730
:10424000780C7908120447509EE490034DF09003D7
:104250004EE004F0E0C3940350BA74041207F87FF0
:104260000802089974F5120839900354E0604490EC
:10427000030F78081206F8740178081205F9900304
:1042800048780812071A90030EE0C333FA90030F20
:10429000C082C083900D707808120707D083D08247
:1042A0007808120457400974012A90034CF0801BCF
:1042B000EA80F790030EE090034CF090030F78082B
:1042C0001206F8900348780812071A7AF47B101245
:1042D0003B537AFA7B10123B53E490034CF090036B
:1042E0001378081206F8900354E060077401780808
:1042F0001205F9900348780812071A7AF57B101214
:104300003B537AFB7B10123B537E0080368E82AA91
:10431000828A08750900740278081207CFE508241C
:1043200017F582E5093403F58378081206F890033F
:1043300048780812071A74DD2AFA74103400FB1248
:104340003B530EEEC3940740C4900333E090287BA8
:10435000F0900334E090287CF0900345E054039003
:104360002858F0900345E01313543F540390285904
:10437000F0900345E0C4540F540390285AF07F0492
:1043800002089974F512083990030EE090034CF07E
:1043900090030F78081206F8900348780812071A5D
:1043A0007AF47B10123B537AFA7B10123B53E49061
:1043B000034CF090031378081206F890034878082D
:1043C00012071A7AF57B10123B537AFB7B10123BD3
:1043D000537F0402089974F112083974FC1207E241
:1043E000851882851983EAF0A3EBF0A3ECF0A3ED26
:1043F000F085188285198378081206F8741312085C
:104400002D780812067C900F15780C120707780893
:10441000790C120467741312082D780C1206F878C0
:1044200008790C120581AE08AF0974E82EFC7403FC
:104430003FFD741712082D78081206F88C0CEDF564
:104440000D3395E0F50EF50F7808790C1205819083
:104450000F15780C1207077808790C120467C0084A
:10446000C009C00AC00B741712082D780C1206F888
:104470008C08EDF5093395E0F50AF50B780C790811
:10448000120581A808E875F0E8A4C8AAF075F00341
:10449000A42AFA75F0E8E509A42AF9ECFAEDFB1272
:1044A000075788088909750A00750B00D00FD00ED0
:1044B000D00DD00C780C7908120618C00CC00DC0B5
:1044C0000EC00F750800750900750B808C0CEDF59A
:1044D0000D3395E0F50EF50F7808790C1204E78E90
:1044E0000CEFF50D3395E0F50EF50F7808790C1209
:1044F0000467D00FD00ED00DD00C780C79081206BE
:1045000068C00CC00DC00EC00F750C00750D007595
:104510000E00750F808C08EDF5093395E0F50AF56E
:104520000B780C79081204E7A808E875F0E8A4C82D
:10453000AAF075F003A42AFA75F0E8E509A42AF9AF
:10454000ECFAEDFB120757EE88F0A4CEAAF089F042
:10455000A42AFA88F0EFA42AFFEEF8EFF97AE87BB4
:104560000312075788088909750A00750B00D00FD8
:10457000D00ED00DD00C780C7908120668AA0CABBE
:104580000DAC0EAD0F74041207F87F080208997481
:10459000F11208398A088B098C0A8D0B740F1208E6
:1045A0002D780812067C900F15780C1207077808F2
:1045B000790C120467740F12082D780C1206F87823
:1045C00008790C120581E5093395E0F50AF50B90A1
:1045D0000F19780C1207077808790C120467900FEE
:1045E0001D780C1207077808790C120581A9087F3D
:1045F0000802089974F112083974F41207E2EAFE0D
:10460000EBFF7904EEFCEFFD851882851983AA8201
:10461000AB831216AE780C1206F8900F21780812B0
:104620000707780C79081204E77ADD7B10123BB497
:104630008A088B098C0A8D0B78081208D1780C1225
:1046400008D17AD67B10123C6E12149D1243D67498
:10465000081207F88A088B098C0A8D0B90031778CB
:104660000812071A7902EE240CFCEF3400FD8518BD
:1046700082851983AA82AB831216AEE0F50CA3E003
:10468000F50D750E00750F007AE07B10123BB48AB1
:10469000088B098C0A8D0B78081208D1780C120847
:1046A000D17AD97B10123C6E12149D1243D6740835
:1046B0001207F88A088B098C0A8D0B90032378085F
:1046C00012071A7902EE2412FCEF3400FD851882DD
:1046D000851983AA82AB831216AEE0F8A3E0F9E84D
:1046E000FCE9FD740812082DECF0A3EDF0A3E4F052
:1046F000A3F07ADF7B10123BB48A088B098C0A8DF9
:104700000B740412082D780812071A7AD87B10123D
:104710003C6E12149D8A088B098C0A8D0B900F2118
:10472000780C1207077808790C12046774041208D1
:104730002D1208E6740C12082D1208E6AA08AB091F
:10474000AC0AAD0B1243D674081207F88A088B091D
:104750008C0A8D0B90031F780812071A793E7A088D
:104760007B03121616900346EAF0A3EBF079407C27
:10477000087D037A207B00122B43124264740C12D2
:1047800007F87F0802089974F112083974F81207C3
:10479000E2EAFEEBFFE490287BF0790A12121A7924
:1047A00004EEFCEFFD851882851983AA82AB831283
:1047B00016AEAA82AB831212638A088B098C0A8D0B
:1047C0000B900F21780C1207077808790C1204E778
:1047D000740412082D780812071A7AD67B10123C3E
:1047E0006E8A0C8B0D8C0E8D0F8A088B098C0A8DAE
:1047F0000B900F2578081206BB900D607808120404
:10480000196010900F29780C1206BBAA0CAB0DACE6
:104810000EAD0F12149D8A0C8B0D8C0E8D0F74042F
:1048200012082D1208E6AA0CAB0DAC0EAD0F124506
:104830008F74041207F8E9900333F0E090287BF0BE
:10484000900334E090287CF0793E7A087B031216BE
:1048500016900346EAF0A3EBF079407C087D037ADA
:10486000207B00122B4374081207F87F0802089976
:1048700074F51208397AE07B02122EB47508A0751F
:10488000090278081208D57907900D607808120798
:1048900007AA08AB09AC0AAD0B121945740212073E
:1048A000F879077AA07B0212165BE9640170177928
:1048B0001E7C2E7D0F7AA07B02121681791E7CA0B1
:1048C0007D027A00801579177C357D0F7AA07B02F6
:1048D00012168179177CA07D027A077B00122B4388
:1048E000750801805DC2AF75CEA575CF5AD2AFE510
:1048F0000875F005A42491FEE5F0340FFFEE2404C2
:10490000F50AEF3400F50B850A82F583E493F98EFE
:10491000828F83E493FC740193FD7AA07B021216CC
:1049200081850A82850B83E4932402F97CA07D02B1
:104930008E828F83A3A3E493FA740193FB122B431B
:104940000508E508C39402409C7508A07509027823
:10495000081208D57940900E657808120707AA0852
:10496000AB09AC0AAD0B12194574021207F87ADED6
:104970007B021212488A088B09AE08AF09793E7A89
:10498000A07B02121616EA6E7002EB6F6024C2AFB3
:1049900075CEA575CF5AD2AF793E7C4C7D0F7AA0EB
:1049A0007B0212168179407CA07D027A207B001266
:1049B0002B437AE07B02122EDC122F4B7F0402087D
:1049C00099C082C0839028ACE0D2E3F09028ADE09B
:1049D000D2E3F09028D5E0D2E5F09028D6E0D2E5F9
:1049E000F0900389E054087A00602CEAC3940250E6
:1049F0002C75F005EAA42421FB74032BF87601083A
:104A0000760C0A80E675F005EAA42421FB74032BDA
:104A1000F8760108760C0AEAC3940240E8D083D005
:104A20008222C082C0839028AFE0A2E37823403383
:104A3000E608C396400F181818E67009900386E040
:104A4000D2E0F076017821E6640260030808067877
:104A500023E60808C39640117821E66401700A76BF
:104A60000280067600181876009028D8E0A2E57833
:104A7000284021E608C396400F181818E6700990E0
:104A80000386E0D2E1F076017826E66401600B0847
:104A900008068006760018187600D083D08222C0DF
:104AA00082C083900386E0A2E05008127356E0C2F1
:104AB000E0802DE0A2E15027900389E0A2E0E050E1
:104AC0000754FEF0A3E0800E4401F0A3E0F0900351
:104AD000557414F0A3E4F0900386E0C2E18001E491
:104AE000F0D083D0822274F112083974FC1207E2EC
:104AF000851882851983EAF0A3EBF0A3ECF0A3ED0F
:104B0000F0741312082D780C1206F87A00800E88C3
:104B100082758328E0F08E828F83E0F00AEAC394E6
:104B200008507A85188285198378081206F8E508F6
:104B3000540FFBE50C540FFC851882851983780807
:104B40001206F8740478081205E085188285198326
:104B5000780812071A7404780C1205E0EB24A3F508
:104B600082E4340FF583E493FB8A08E508249BF57F
:104B700082E4340FF583E493F88882758328E0A2F9
:104B8000E0E492E0F0EC12094D000200934B0A0FB2
:104B90004B1C4B8882758328E04B024B1B7404121C
:104BA00007F87F08020899C082C083E4902800F0CB
:104BB000902801F0902802F0902803E05410F09023
:104BC0002805E0C2E0F0902809E0C2E0F090280A51
:104BD000E0C2E0F090280BE0C2E0F0902806E0D2BE
:104BE000E0F0D083D08222C082C083900383E0446F
:104BF00008F0A3E0F0900364E0600BE014F0E070D4
:104C000005E4900363F0900357E06008E014F0E0DF
:104C10007035801E900389E0A2E050169028B0E025
:104C2000C2E1F09028B1E0C2E1F09028B2E0640265
:104C300080149028B0E0C2E1F09028B1E0C2E1F029
:104C40009028B2E0C2E1F0900358E06003E014F075
:104C5000E07008741EF0E4900359F0D083D08222F3
:104C600074F112083974F81207E2124BA790035935
:104C7000E012091701017C4CFD4C354D9002FA7889
:104C8000081206F8740412082D780812071A740422
:104C900012082D7A0079001236628A08EBF5093382
:104CA00095E0F50AF50B780812062B900F21780C89
:104CB0001207077808790C1204E7AA08AB09AC0AB6
:104CC000AD0B1213948A088B098C0A8D0B85188200
:104CD000851983780812071A900D60780812070763
:104CE000902804E0D2E0F0902803E0D2E4F090288D
:104CF00007E0C2E0F0902808E0C2E08075900389E8
:104D0000E054086003126E34790185188285198396
:104D1000AA82AB83126BD8900FB378081207079062
:104D20002804E0C2E0F0902803E0C2E4F0902807F5
:104D3000E0C2E08036900389E054086003126E34CC
:104D40007902851882851983AA82AB83126BD89069
:104D50000FB37808120707902804E0C2E0F090280B
:104D600003E0C2E4F0902807E0D2E0F0902808E0E9
:104D7000D2E0F0900362E064557007902802E0D220
:104D8000E6F078081208D1740412082D780812068B
:104D9000F8AA08AB09AC0AAD0B124AE67404120774
:104DA000F874081207F87F08020899C082C083E4EB
:104DB0009028A9F074FF9028A8F0E49028B5F0742A
:104DC000FF9028B4F0E49028B9F074FF9028B8F070
:104DD000E49028BDF074FF9028BCF0E49028C1F066
:104DE00074FF9028C0F0E49028D6F074FF9028D586
:104DF000F0E49028DAF074FF9028D9F09028ADE024
:104E0000D2E3F09028ACE0D2E3F09028D6E0D2E5EF
:104E1000F09028D5E0D2E5F09028B2E0C2E1F09021
:104E200028B0E054FCF09028B1E054FCF09028AE9B
:104E3000E0D2E1F09028ADE0C2E1F09028ACE0C211
:104E4000E1F09028AEE0D2E2F09028ADE0C2E2F0CE
:104E50009028ACE0C2E2F0D083D08222C082C0832E
:104E6000124DABE49028C5F09028C6F09028ACE035
:104E70004406F09028ADE054F9F0E49028CDF0908D
:104E800028CEF09028B0E04430F09028B1E054CF24
:104E9000F0D083D08222538EF75389F0E58943897D
:104EA00001758CFE758AEFD28CD2A922538EDFC297
:104EB000C9C2C875CDF575CC5575CBF575CA55D237
:104EC000CAD2AD22C082C08374339028A0F0D083B0
:104ED000D0822275D99675C9D7899775D99675C923
:104EE000D622C2AF75CEA575CF5AD2AF124EC4121C
:104EF0004DAB124FDC7A00790212701D7A007902F4
:104F0000126E9F121E1A124E96124EAC1249C179A1
:104F100003124ED322C082C0837B00E9A2E6500177
:104F20000BC2D5902867E0696021C280A28040FC56
:104F30007420F07A0080010AEAC3940A40F9E9F08B
:104F40007A0080010AEAC3940540F9EBA2E092805E
:104F5000C284740C59701974E2902862F0741A902B
:104F6000285CF090285EF0902860F0902861801610
:104F7000E490285CF090285EF0902860F090286122
:104F8000F07462902862F0A2804005E4902864F0FA
:104F9000902865E0548FF07901D083D08222C082BE
:104FA000C083902866E0FA74F85A49F0D083D08222
:104FB00022C082C083902865E0C2E7F0902866E0B6
:104FC000C2E4F0748059FA902865E04AF0741059F0
:104FD000FA902866E04AF0D083D08222C082C08353
:104FE0009028B8E074FFF09028BCE074FFF090289F
:104FF000C0E074FFF09028B9E0E4F09028BDE0E450
:10500000F09028C1E0E4F074FF902815F090281685
:10501000F0902817F0748E902814F07980124FB118
:10502000D083D08222C082C08374E165E8600375BA
:10503000E8E174F265A8600375A8F27450558864BD
:10504000506005438850E588900353E06401902840
:1050500043700CE0548364836010E04483800AE072
:10506000540364036004E04403F09028C5E0640244
:1050700070189028C6E0640270109028CDE0640299
:1050800070089028CEE06402601274029028C5F087
:105090009028C6F09028CDF09028CEF0D083D08212
:1050A00022C082C083C2D57480902863F0902866A5
:1050B000E054F8F0E0D2E1F0E4902864F090287831
:1050C000F090287DF0D284C280A28040FC902867B6
:1050D000F0C282D28180FE75A80075E8007591004B
:1050E00022C082C083758800E4902820F090282890
:1050F000F0902830F0D083D08222C082C083E59A1D
:10510000900377F0E59B900378F0E59C900379F0AD
:10511000E59390037DF0E59D90037AF0E59E900382
:105120007BF0E59F90037CF0D083D08222C082C0C8
:105130008375D99675C9D790036AE0F59F90036986
:10514000E0F59E900368E0F59D900367E0F59C9084
:105150000366E0F59B900365E0F59A90036BE0F53C
:105160009375D99675C9D6D083D08222C082C08368
:10517000900389E05408702590035AE0C333F0E5AA
:10518000A1A2E04004E0D2E0F0E064FF700F9003E1
:1051900083E04401F0A3E0F0E490035AF0D083D020
:1051A000822274F512083974FE1207E290287DE01D
:1051B00054E7F0124E5C1250D71250E179067CEEA3
:1051C0007D027AA07B021216AE79027C507D037AB2
:1051D000A67B021216AE79027CEA7D027AA87B02D7
:1051E0001216AE790A7AA07B0212161685188285ED
:1051F0001983EAF0A3EBF07902851882851983AC54
:1052000082AD837AAA7B021216AE7508A0750902D8
:1052100078081208D5790C900EAD7808120707AA05
:1052200008AB09AC0AAD0B12185D74021207F8E462
:10523000900359F0900358F0124C607903124ED34A
:10524000900389E04408F0A3E0F01250A174021228
:1052500007F87F0402089974F712083974ED1207F1
:10526000E2EAFEEBFF8E828F83E085188285198348
:10527000F0AC82AD831253DEE964FF600302532B6E
:105280007A0080188A08EE2508F582EF3400F5834D
:10529000A3A3A3A3A3A3A3E0C2E7F00AEE2405F807
:1052A000EF3400F9EAC0E088828983E0FBD0E0C3F4
:1052B0009B40D17403900357F0900363E0C39405BF
:1052C0004020E4F074158E828F83A3A3A3A3A3A32D
:1052D000A3F0740188828983F0742890029BF00205
:1052E00053D2EEFAEFFBE0C333F8E433F9E824C31A
:1052F000F582E9340FF583E493C0E0740193F583FC
:10530000D082120837E9600579FF0253D49028B0A3
:10531000E0C2E1F09028B1E0C2E1F09028B2E0D222
:10532000E1F0E4900361F0FA0253C4AA82AB831265
:1053300054FFE964FF60D1740512082DE0705B75BD
:10534000080080020508E508C394045043E5087589
:10535000F003A424B7F8E5F0340FF988828983E4D8
:1053600093FA740112082DE06A70D98518828519A4
:1053700083AA82AB8388828983A3E493C0E074010B
:1053800093F583D082120837E964FF700302530853
:10539000E508C394044003025308740412082DE086
:1053A0007003025308851882851983AC82AD83EEA1
:1053B000FAEFFB125830E9600302530874AA900315
:1053C00061F07A01790212701D8E828F83E0F912EA
:1053D0001E31790074131207F87F0202089974F3E2
:1053E000120839EAFEEBFF8C0C8D0D750A00800265
:1053F000050AE50AC394105023850A82AA82EE2486
:1054000005F582EF3400F583E0FC740C2AF8E434EF
:1054100000F9EC98E499C365D033500479FF8034E7
:10542000EE2AF8EF3400F9740728F508E439F50995
:10543000E0C3950AF9AA08AB09125459E970B1E51D
:105440000C240FF582E50D3400F583E508F0A3E5A3
:1054500009F079007F0602089974F61208398A82E9
:105460008B83E06468700CA3A3A3A3A3A3A3E0644D
:1054700068600479FF805C8A828B83A3A3A3A3A3C3
:10548000A3A3A3A3E0F50AF582A882740C28FCE488
:105490003400FDE99CE49DC365D03340D6EA28FE84
:1054A000EB3400FF8E828F83A3A3A3A3A3A3A3A3A4
:1054B000A3A3E0F508740A250AF91254D8E965088F
:1054C00070B1EE240BF582EF3400F583E0641670C2
:1054D000A279007F0302089974F7120839E9FC7970
:1054E000007D0080108D08EA2508F582EB3400F578
:1054F00083E029F90DEDC39C40EB7F02020899740B
:10550000F3120839EAFEEBFFEE2404F50CEF340049
:10551000F50D7401850C82850D83F0E48E828F83F6
:10552000A3A3A3A3A3F0900FCB78081207078E8242
:105530008F83A3A3A3A3A3A3A3E508F0A3E509F086
:10554000A3E50AF0A3E50BF0EE240FF508EF340015
:10555000F509850882F583E0F8A3E0F5838882A346
:10556000A3A3A3A3A3A3A3A3E0C39471400DE485C5
:105570000C82850D83F079FF025710125715E964EC
:10558000FF700F74038E828F83A3A3A3A3A3A3F042
:1055900080DC850882850983E0F8A3E0F5838882B2
:1055A000A3A3A3A3A3A3A3A3A3E0F98508828509CA
:1055B00083E0240AFAA3E03400FB125A218E828F82
:1055C00083A3A882A983850882850983E0FAA3E0E2
:1055D000F5838A82A3A3A3A3A3A3A3A3E0888289BC
:1055E00083F0EE2402FAEF3400FBEAFCEBFD8508C1
:1055F00082850983E0FAA3E0F5838A82A3A3A3A3AB
:10560000A3A3A3A3A3E08C828D83F088828983E087
:1056100064116008E0641460030256F48508828512
:105620000983E0FAA3E0F5838A82A3A3A3A3A3A33B
:10563000A3A3A3A3E08E828F83A3A3A3A3A3A3A367
:10564000F0850882850983E0240BFAA3E03400FB8F
:105650008A828B83E08E828F83A3A3A3A3A3A3A3B9
:10566000A3F0850882850983E0240CFAA3E03400C6
:10567000FB8A828B83E08E828F83A3A3A3A3A3A341
:10568000A3A3A3F0850882850983E0240DFAA3E093
:105690003400FB8A828B83E08E828F83A3A3A3A333
:1056A000A3A3A3A3A3A3F088828983E06414702139
:1056B00074208E828F83A3A3A3A3A3A3F074048E6C
:1056C000828F83A3A3A3A3A3F074018C828D838014
:1056D0003C8C828D83E0C39404500E74018E828FC3
:1056E00083A3A3A3A3A3025575850882850983E03C
:1056F000240E8009850882850983E0240AF8A3E046
:105700003400F9850882850983E8F0A3E9F079007F
:105710007F0602089974F5120839EAFEEBFF750856
:105720005B75090378081208D57906900D60780832
:10573000120707AA08AB09AC0AAD0B12194574028F
:105740001207F8EE240FF508EF3400F50979067C0E
:105750005B7D03850882F583E02401FAA3E0340031
:10576000FB121582E9700302581C7A0180010AEAD3
:10577000C394075018EAF8850882850983E028FB5E
:10578000A3E034008B82F583E064AA60E1EAC3946D
:10579000064005740102581E7A0180010AEAC3948A
:1057A000075018EAF8850882850983E028FBA3E002
:1057B00034008B82F583E0649960E1EAC39406408B
:1057C0001A74018E828F83A3A3A3A3A3A3F0E48EF4
:1057D000828F83A3A3A3A3F0F980507A0180010AEA
:1057E000EAC3940750438A82A88285088285098388
:1057F000E028FBA3E034008B82F583E0FBE8245A29
:10580000F582E43403F583E06B60D474038E828FF9
:1058100083A3A3A3A3A3A3F079FF800F74028E82B6
:105820008F83A3A3A3A3A3A3F079007F0402089905
:1058300074F1120839EAFEEBFF8C088D0974688E4A
:10584000828F83A3A3A3A3A3A3A3F0C0E0EE240E9F
:10585000F582EF3400F583D0E0F079067C5B7D03C0
:10586000EE2408FAEF3400FB1216AEEE2410F50E0B
:10587000EF3400F50F850882850983A385820A85A8
:10588000830BE5082405F8E5093400F9888289834B
:10589000E060030259A7E5082402F50CE50934008D
:1058A000F50D850C82F583E0850E82850F83F085EA
:1058B0000A82850B83E064116005E06403703F8514
:1058C0000E82850F83E02404F07904E5082407FCA8
:1058D000E5093400FDEE2411FAEF3400FB1216AE98
:1058E000850C82850D83E0F9E508240FF582E50932
:1058F0003400F583E0FCA3E0FDEE2415801C850C4C
:1059000082850D83E0F9E508240FF582E50934006E
:10591000F583E0FCA3E0FDEE2411FAEF3400FB1266
:1059200016AE850A82850B83E0D2E7F0E0C0E0EE98
:10593000240FF582EF3400F583D0E0F0850E8285E8
:105940000F83E0F9EE2411FAEF3400FB125A45EE12
:105950002405F508EF3400F509E0240C850882855C
:105960000983F0E024FEF9EE2407FAEF3400FB127D
:1059700054D8E9C0E0E0F8EE28F582EF3400F58372
:10598000A3A3A3A3A3D0E0F07416C0E0850882858A
:105990000983E0F8EE28F582EF3400F583A3A3A392
:1059A000A3A3A3D0E08072850A82850B83E024C084
:1059B000F0E0C0E0EE240FF582EF3400F583D0E094
:1059C000F07401850E82850F83F088828983E0243C
:1059D00033C0E0EE2411F582EF3400F583D0E0F01F
:1059E000790BEE2407FAEF3400FB1254D8E9C0E03B
:1059F000EE2412F582EF3400F583D0E0F07416C087
:105A0000E0EE2413F582EF3400F583D0E0F0740D5E
:105A10008E828F83A3A3A3A3A3F079007F0802083B
:105A20009974F71208397C0080118C08EA2508F572
:105A300082EB3400F583E024CDF00CECC39940EA0E
:105A40007F0202089974F71208397C0080118C08D3
:105A5000EA2508F582EB3400F583E02433F00CEC02
:105A6000C39940EA7F0202089974F4120839740C51
:105A700012082DE0F508A3E0F509750C0080020579
:105A80000C850C0AC3E50A9508E49509502A850C93
:105A900082AE82EC2EF8ED3400F9EA2EF582EB347A
:105AA00000F583E0FE88828983E4936E60D1E493FD
:105AB00064AA60CB79FF800279007F05020899749F
:105AC000F5120839EAFEEBFF890975080080020526
:105AD00008E508C394145030A909EEFCEFFD8508D1
:105AE0000A750B007403780A1207CFE50A2410F533
:105AF00082E50B3410F583E493FA740193FB1215DD
:105B0000CBE970CBA908800279FF7F040208997461
:105B1000F71208397D0080118D08EA2508F582EB1F
:105B20003400F583E0C969F90DEDC39C40EA7F02BA
:105B300002089974F71208398908EA2405F8EB3449
:105B400000F988828983E08A828B83A3A3A3A3A31D
:105B5000A3A3F0EA2404FCEB3400FD8C828D83E0E7
:105B60008A828B83A3A3A3A3A3A3F0EA2403FEEB5F
:105B70003400FF8E828F83E08C828D83F0EA2402D2
:105B80000A0AEB3400FB8A828B83E08E828F83F0DB
:105B9000E5087004742D8002743A88828983F08A43
:105BA000828B83F07F0202089974F81208398C8284
:105BB0008D83E08A828B83F08C828D83A3E08A823E
:105BC0008B83A3F08C828D83A3A3A3E08A828B8333
:105BD000A3A3F08C828D83A3A3A3A3E08A828B83EB
:105BE000A3A3A3F08C828D83A3A3A3A3A3A3E08A82
:105BF000828B83A3A3A3A3F08C828D83A3A3A3A3EF
:105C0000A3A3A3E08A828B83A3A3A3A3A3F07F0112
:105C100002089974F712083974F81207E2EAFEEBE9
:105C2000FFE9FAC39403400479FF806485188285F4
:105C3000198385820885830978081208D579088A2E
:105C400008750900740378081207CFAA08AB09FC8D
:105C5000FD12194574021207F87B0080010BEBC39B
:105C6000940850248B82A882EE28F582EF3400F548
:105C700083E0FA851882851983E58228F582E58319
:105C80003400F583E06A60D5EBC39408409A79004C
:105C900074081207F87F0202089974F11208397427
:105CA000F31207E2E9FAECFEEDFF8A0875090074C9
:105CB0000278081207CFE50824FAF582E5093402D4
:105CC000F58378081206F8851882851983780812FA
:105CD000071A79001236628A0C8B0D851882851995
:105CE00083EB3395E0F50EF50F780C12062B900F31
:105CF000217808120707780C79081204E7851882C2
:105D0000851983780C12071A8518828519837808FB
:105D10001206F8AA08AB09AC0AAD0B1213948A0854
:105D20008B098C0A8D0B85188285198378081207D8
:105D30001A7904E912082DAC82AD83851882851981
:105D400083AA82AB831217C97906740412082DAC9A
:105D500082AD83EEFAEFFB1216AE742E8E828F8325
:105D6000A3A3A3A3A3A3F07902740A12082DAC8203
:105D7000AD83EE2407FAEF3400FB1216AE7A097BEE
:105D8000007C007D00740D1207F87F0802089974EA
:105D9000F112083974F31207E2ECFEEDFF85188268
:105DA00085198385820885830978081208D57C04C3
:105DB000740F59333354FCFBE9C4540FFA790012C1
:105DC00030D074021207F8851882851983780C1276
:105DD00006F8900F217808120707780C790812044A
:105DE000E7851882851983780C12071A8518828531
:105DF000198378081206F8AA08AB09AC0AAD0B1291
:105E000013948A088B098C0A8D0B85188285198357
:105E1000780812071A7904E912082DAC82AD83853F
:105E20001882851983AA82AB831217C97906740474
:105E300012082DAC82AD83EEFAEFFB1216AE742E73
:105E40008E828F83A3A3A3A3A3A3F07902740A1263
:105E5000082DAC82AD83EE2407FAEF3400FB121656
