:020000040000FA
:0600000002006602A61BCF
:03000B0002A62327
:0300130002A62B17
:03001B0002A63307
:03002B0002A650DA
:03003B0002A6A674
:0300430002A6BA58
:03004B0002A76E9B
:0300530002A82ED2
:03005B0002A83DBB
:1000630002A84C75D00075819F753101753202026B
:10007300B8A8E479337810B800028004F709D8FCF3
:10008300E4900201788A79048002F0A3D8FCD9FABB
:1001000000002110422063308440A550C660E77093
:10011000088129914AA16BB18CC1ADD1CEE1EFF13B
:100120003112100273325222B5529442F772D662E3
:10013000399318837BB35AA3BDD39CC3FFF3DEE38B
:100140006224433420040114E664C774A444855433
:100150006AA54BB528850995EEE5CFF5ACC58DD5DB
:100160005336722611163006D776F6669556B44683
:100170005BB77AA719973887DFF7FEE79DD7BCC72B
:10018000C448E5588668A7784008611802282338D3
:10019000CCC9EDD98EE9AFF9488969990AA92BB97B
:1001A000F55AD44AB77A966A711A500A333A122A23
:1001B000FDDBDCCBBFFB9EEB799B588B3BBB1AABCB
:1001C000A66C877CE44CC55C222C033C600C411C73
:1001D000AEED8FFDECCDCDDD2AAD0BBD688D499D1B
:1001E000977EB66ED55EF44E133E322E511E700EC3
:1001F0009FFFBEEFDDDFFCCF1BBF3AAF599F788F6B
:100200008891A981CAB1EBA10CD12DC14EF16FE14A
:100210008010A100C230E320045025404670676082
:10022000B9839893FBA3DAB33DC31CD37FE35EF39A
:10023000B1029012F322D2323542145277625672D2
:10024000EAB5CBA5A89589856EF54FE52CD50DC5EA
:10025000E234C324A0148104667447642454054422
:10026000DBA7FAB79987B8975FE77EF71DC73CD73A
:10027000D326F2369106B016576676761546345672
:100280004CD96DC90EF92FE9C899E9898AB9ABA98A
:100290004458654806782768C018E1088238A328C2
:1002A0007DCB5CDB3FEB1EFBF98BD89BBBAB9ABBDA
:1002B000754A545A376A167AF10AD01AB32A923A12
:1002C0002EFD0FED6CDD4DCDAABD8BADE89DC98D2A
:1002D000267C076C645C454CA23C832CE01CC10C62
:1002E0001FEF3EFF5DCF7CDF9BAFBABFD98FF89F7A
:1002F000176E367E554E745E932EB23ED10EF01EB2
:1003000000010203040506070809AAAAAAAAAAAAC4
:100310000A0B0C0D0E0F10111213AAAAAAAAAAAA50
:100320001415161718191A1B1C1DAAAAAAAAAAAADC
:100330001E1F2021222324252627AAAAAAAAAAAA68
:1003400028292A2B2C2D2E2F3031AAAAAAAAAAAAF4
:1003500032333435363738393A3BAAAAAAAAAAAA80
:100360003C3D3E3F404142434445AAAAAAAAAAAA0C
:10037000464748494A4B4C4D4E4FAAAAAAAAAAAA98
:1003800050515253545556575859AAAAAAAAAAAA24
:0A0390005A5B5C5D5E5F60616263B2
:10039C0000010203040506070809101112131415B5
:1003AC001617181920212223242526272829303115
:1003BC003233343536373839404142434445464769
:1003CC0048495051525354555657585960616263BD
:1003DC00646566676869707172737475767778791D
:1003EC008081828384858687888990919293949565
:1003FC0096979899FFFFFFFFFFFFFFFFFFFFFFFF9F
:10040C00FFFFFFFFFFFFFFFFFFFFFFFFFFFFFFFFF0
:10041C00FFFFFFFFFFFFFFFFFFFFFFFFFFFFFFFFE0
:10042C00FFFFFFFFFFFFFFFFFFFFFFFFFFFFFFFFD0
:10043C00FFFFFFFFFFFFFFFFFFFFFFFFFFFFFFFFC0
:10044C00FFFFFFFFFFFFFFFFFFFFFFFFFFFFFFFFB0
:10045C00FFFFFFFFFFFFFFFFFFFFFFFFFFFFFFFFA0
:10046C00FFFFFFFFFFFFFFFFFFFFFFFFFFFFFFFF90
:10047C00FFFFFFFFFFFFFFFFFFFFFFFFFFFFFFFF80
:10048C00FFFFFFFFFFFFFFFFFFFFFFFFFFFFFFFF70
:10049C00FFFFFFFFFFFFFFFFFFFFFFFFFFFFFFFF60
:1004AC00FFFFFFFFFFFFFFFFFFFFFFFFFFFFFFFF50
:1004BC00FFFFFFFFFFFFFFFFFFFFFFFFFFFFFFFF40
:1004CC00FFFFFFFFFFFFFFFFFFFFFFFFFFFFFFFF30
:1004DC00FFFFFFFFFFFFFFFFFFFFFFFFFFFFFFFF20
:1004EC00FFFFFFFFFFFFFFFFFFFFFFFFFFFFFFFF10
:1004FC00FFFFFFFFFFFFFFFFFFFFFFFFFFFFFFFF00
:10050C00FFFFFFFFFFFFFFFFFFFFFFFFFFFFFFFFEF
:10051C00FFFFFFFFFFFFFFFFFFFFFFFFFFFFFFFFDF
:10052C00FFFFFFFFFFFFFFFFFFFFFFFFFFFFFFFFCF
:10053C00FFFFFFFFFFFFFFFFFFFFFFFFFFFFFFFFBF
:10054C00FFFFFFFFFFFFFFFFFFFFFFFFFFFFFFFFAF
:10055C00FFFFFFFFFFFFFFFFFFFFFFFFFFFFFFFF9F
:10056C00FFFFFFFFFFFFFFFFFFFFFFFFFFFFFFFF8F
:10057C00FFFFFFFFFFFFFFFFFFFFFFFFFFFFFFFF7F
:10058C00FFFFFFFFFFFFFFFFFFFFFFFFFFFFFFFF6F
:10059C00FFFFFFFFFFFFFFFFFFFFFFFFFFFFFFFF5F
:1005AC00FFFFFFFFFFFFFFFFFFFFFFFFFFFFFFFF4F
:1005BC00FFFFFFFFFFFFFFFFFFFFFFFFFFFFFFFF3F
:1005CC00FFFFFFFFFFFFFFFFFFFFFFFFFFFFFFFF2F
:1005DC00FFFFFFFFFFFFFFFFFFFFFFFFFFFFFFFF1F
:1005EC00FFFFFFFFFFFFFFFFFFFFFFFFFFFFFFFF0F
:1005FC00FFFFFFFFE066701008A3E066700A08A317
:10060C00E066700408A3E06622E493667013087435
:10061C00019366700C08740293667005087403935A
:10062C006622C3E09608A3E09608A3E09608A3E030
:10063C0096A2D265D03322C021C3E096F52108A33F
:10064C00E096422108A3E096422108A3E0964221BD
:10065C00A2D265D033E5217001D3D02122C021C3B1
:10066C00E49396F521087401939642210874029341
:10067C0096422108740393964221A2D265D033E5A9
:10068C00217001D3D02122C3E7960809E796080907
:10069C00E7960809E79622C3E09608A3E09608A31C
:1006AC00E09608A3E09622C021C3E096F52108A3AA
:1006BC00E096422108A3E096422108A3E09645214A
:1006CC007001D3D02122C3E4939608740193960849
:1006DC0074029396087403939622C021C3E49396F4
:1006EC00F5210874019396422108740293964221D5
:1006FC00087403939645217001D3D0212208080871
:10070C00EAC0E0EBC0E086F0E7A4FA180986F0E74F
:10071C00A42AFA180986F0E7A42AFA180986F0E741
:10072C00A42AFA1986F0E7A4FBE5F02AFA19088640
:10073C00F0E7A42BFBE5F03AFA190886F0E7A42BB6
:10074C00FBE5F03AFA18180986F0E7A4C5F02BFB84
:10075C00E43AFA1908E7C5F0C6A426F6E5F03BFB27
:10076C00E43AFA1886F0E7A4F6E5F00826F6E43B3E
:10077C0008F6E43A08F6D0E0FBD0E0FA22E4CFC069
:10078C00E0E4CEC0E0E4CDC0E0E4CCC0E075F02005
:10079C00E626F608E633F608E633F608E633F618EE
:1007AC001818EC33FCED33FDEE33FEEF33FFC3ECE6
:1007BC009709ED9709EE9709EF97191919400FFF53
:1007CC00EC97FC09ED97FD09EE97FE191906D5F08B
:1007DC00BFECF709EDF709EEF709EFF7191919D086
:1007EC00E0FCD0E0FDD0E0FED0E0FF221208601863
:1007FC00181812078912084F1919192212084F19C3
:10080C001919080808E618181820E7E012078912C9
:10081C00086018181822090909E719191920E7DCCA
:10082C00080808E618181820E70302078912086060
:10083C0018181812078912086018181812084F197E
:10084C00191922E4C397F709E497F709E497F70914
:10085C00E497F722E4C396F608E496F608E496F6D5
:10086C0008E496F622C6F4C608C6F4C608C6F4C652
:10087C0008C6F4C6226016080808C6C313C618C6F4
:10088C0013C618C613C618C613C6D5E0EA227009DB
:10089C00080808226016181818C6C333C608C633D1
:1008AC00C608C633C608C633C6D5E0EA22E627F624
:1008BC000809E637F60809E637F60809E637F6229E
:1008CC00E026F608A3E036F608A3E036F608A3E027
:1008DC0036F622E49326F60874019336F608740271
:1008EC009336F60874039336F622E026F008A3E05C
:1008FC0036F008A3E036F008A3E036F022C3E69702
:10090C00F60809E697F60809E697F60809E697F659
:10091C0022C3E0C696F608A3E0C696F608A3E0C686
:10092C0096F608A3E0C696F622C3E096F008A3E07C
:10093C0096F008A3E096F008A3E096F022E4935614
:10094C00F60874019356F60874029356F60874036D
:10095C009356F622E056F008A3E056F008A3E056B2
:10096C00F008A3E056F022E647F60809E647F60839
:10097C0009E647F60809E647F622E49346F60874BA
:10098C00019346F60874029346F60874039346F6F0
:10099C0022E046F008A3E046F008A3E046F008A3E6
:1009AC00E046F022E0F608A3E0F608A3E0F608A380
:1009BC00E0F622E493F608740193F608740293F6B9
:1009CC0008740393F622E6F008A3E6F008A3E6F019
:1009DC0008A3E6F022E0FAA3E0FBA3E0FCA3E0FD11
:1009EC0022EAF0A3EBF0A3ECF0A3EDF022E0F8A3E5
:1009FC00E0F9A3E0FAA3E0FB22E8F0A3E9F0A3EA14
:100A0C00F0A3EBF022CAC0E0E6F0A308DAFAD0E0DB
:100A1C00FA22CAC0E0E0A3C582CCC582C583CDC58D
:100A2C0083F0A3C582CCC582C583CDC583DAE6D05D
:100A3C00E0CA22B90010BB0008E88AF084F8AAF0DA
:100A4C0022E4FBC8FA22EB70227B10C833C8C933EE
:100A5C00C9335007C39AC3DBF280069A50012ADBD4
:100A6C00EAC833F4C8C933F4C9FA2275F008E4C8EB
:100A7C0033C8C933C933C99AC99B5004C92AC93B65
:100A8C00D5F0ECFBC833F4C8E4C9FA22600D08C6F3
:100A9C00A2E713C618C613C6D5E0F322600C08C62D
:100AAC00C313C618C613C6D5E0F422700422600D19
:100ABC0018C6C333C608C633C6D5E0F41822253190
:100ACC0010AF08F531400C15328008F53140021595
:100ADC0032D2AF2200C0D0253110AF08F531500C06
:100AEC0005328008F53150020532D2AFD0D0222524
:100AFC0031F58210AF08F531400C15328008F53114
:100B0C0040021532D2AF853283222531F582E4358D
:100B1C0032F583222531F8E43532F9222531FAE415
:100B2C003532FB222531FCE43532FD22E4732531CC
:100B3C00C582C0E0E53234FFC583C0E0E531C39522
:100B4C008224F910AF088583328582318008858331
:100B5C0032858231D2AFCEF0A3E520F0A37821E626
:100B6C0008F0A3DEFAEFF0A3E58124FBF8E608F029
:100B7C00A3E608F0A30808E608F0A3E608F0A3151E
:100B8C00811581D0E0FED0E0F815811581E8C0E038
:100B9C00EEC0E022853283853182E0A3FEE0A3F52E
:100BAC00207821E0A3F608DFFAE0A3FFE0A3C0E081
:100BBC00E0A3C0E0E0A3C0E0E0A3C0E010AF088574
:100BCC0082318583328008858231858332D2AFD0E1
:100BDC0083D082227404800474028000C0E0F40488
:100BEC00120AFBD0E0120A112274048004740280F1
:100BFC0000CCC0E0EDC0E0E531C39CCCAD3250017F
:100C0C001D10AF068C318D3280068C318D32D2AFF7
:100C1C00120A1ED0E0FDD0E0FC22D083D082C5F0B9
:100C2C00E493A3C5F0C395F0F5F0E493A3C395F05A
:100C3C004005E5F0048001E475F002A42582F582FC
:100C4C00E5F03583F583E493A3C0E0E493C0E022A0
:100C5C00D083D082ECC0E0EDC0E0E493A3FCE4933D
:100C6C00A3FDED4C600D120CA8EC24FFFCED34FF41
:100C7C00FD80EFE493A3FCE493A3FDED4C600D1217
:100C8C000CE7EC24FFFCED34FFFD80EFD0E0FDD051
:100C9C00E0FCE493A3C0E0E493C0E022C0E0C3E432
:100CAC009396087401939618400FE49366700808A5
:100CBC00740193661870007019A3A3C3E49396088B
:100CCC007401939618A3A3400DD0E0D0E0D0E002BD
:100CDC000C98A3A3A3A3A3A3D0E022C0E0C0F088E8
:100CEC00F0E4936670080874019366187000A8F01D
:100CFC00A3A3700BD0F0D0E0D0E0D0E0020C98A30E
:100D0C00A3D0F0D0E022D083D082ECC0E0EDC0E0E4
:100D1C00EEC0E0EFC0E0E493A3FCE493A3FDE49306
:100D2C00A3FEE493A3FFEF4E4D4C6015120D8EEC19
:100D3C0024FFFCED34FFFDEE34FFFEEF34FFFF80AB
:100D4C00E5E493A3FCE493A3FDE493A3FEE493A353
:100D5C00FFEF4E4D4C6015120DCBEC24FFFCED3427
:100D6C00FFFDEE34FFFEEF34FFFF80E5D0E0FFD057
:100D7C00E0FED0E0FDD0E0FCE493A3C0E0E493C03F
:100D8C00E022C0E0C0F088F01206D2A8F0400712B2
:100D9C000615A8F0701AA3A3A3A31206D2A8F0A359
:100DAC00A3A3A34013D0F0D0E0D0E0D0E0020D78A4
:100DBC00A3A3A3A3A3A3A3A3A3A3D0F0D0E022C077
:100DCC00E0C0F088F0120615A8F0A3A3A3A3700B43
:100DDC00D0F0D0E0D0E0D0E0020D78A3A3D0F0D0DA
:020DEC00E02203
:1011C000443134334639383231532E30380001112E
:1011D00007342FE9030000CC010000131454800AE7
:1011E00000000001B4C40400B4C404FFFFFF7F602A
:1011F00000000020010000040400040504000406AF
:101200000400040904000401050004010080040234
:10121000008004E8030000C30B0000D0070000D4E6
:1012200001000000008000FFFF7FFF0100000000C0
:101230000A0000D1010000FFFF7F00CD0100000087
:10124000000000001F0AFA00E1F50564000000E458
:1012500082F282D522D5A2EBA2451BF945FC45FFBF
:1012600045C749CA49C44E011EB14FB14FB14FB134
:101270004FB14FB44FB74F311D9D50B14F3B53B19C
:101280004FB14FB14FB14FB14F000000000004000B
:101290000003000000000000010000040000030043
:1012A0000000000000020000040000030000000035
:1012B0000000010100040000110000000000000116
:1012C0000240020000100000000000010102400284
:1012D00000001000000000000002024003000010A7
:1012E00000000200000102024003000010000002A2
:1012F0000000000302400300001000000500000190
:10130000030240030000100000050000000402403A
:101310000300001000000C00000104024003000064
:101320001000000C00000006024002000010000047
:101330000800000106024002000010000008000141
:1013400000800240030000100000040001010004BE
:10135000800400000DE00100000201000480030091
:10136000000DE401000001040004000600000580F7
:10137000001A0002040004000600000586000C00AC
:101380000404000408060000070000000005040033
:101390000408060000070000000006040004080618
:1013A0000000070000000009040004080300000713
:1013B000000000000105000408010006070000000D
:1013C00000010C000410100009148C000000010042
:1013D00080040820000007000000000200800408CC
:1013E00020000007000000000100004F001B00006B
:1013F00008CC010000000A004F00080000120000A5
:1014000000000000014F004400000E00000000AA90
:10141000AAAAAA001500000000000000ABAAAAAA10
:10142000001000000F000000000089120301B0123C
:101430000102BD120B044C130C4FE81303AA0F1446
:101440000206109000000000BCAAAAAAAAAABDAA7F
:10145000ABAAAAAA20C00105000430C009040004F8
:1014600032C00104000434C002040004070000007C
:101470000101000201000301001B0100040100053D
:1014800001000620000720000820000920000A2093
:10149000000B00000C04000D00001500000E010000
:1014A0000F010010000013000014000016000017C8
:1014B00000001800001900001A00001C00001D04A4
:1014C000001E00001F0001200002210400D81000AF
:1014D000000102D81000000106D91000000103D954
:1014E0001000000109DA1000000103D6100000010D
:1014F00003D6100000010CFD1000000102000000E6
:1015000000000200000000000800000000000200CF
:101510000000000002D7100000010300FFFFFF00E1
:10152000000104000002040200002019C1000011A3
:10153000270000005500FE00AA00FE00FF55200114
:10154000000020C000000003000020A300002004D1
:101550000000200500002006000020A60000200753
:10156000000020A700002030000020FFFF00FFFF48
:10157000FF0000030C0004050C00040100008000C3
:10158000000080050700040206000403060004D6DC
:10159000100000530000530000408000312831301B
:1015A0003130313130313031C0010000E001000014
:1015B000EA01000080320200E02E0C0110270A012F
:1015C000401F080188130501B80B0301D007020171
:1015D000E8030A0A0019400A800C200A6009180A68
:1015E0004006100AB0040C0A2003080AF401050A98
:1015F0009001040AC800020A6400010A51000000B8
:10160000D96204019C3C1D91BC749388C800000001
:101610000800000013000000050000005700000053
:101620007000000010000000FA000000FC00000044
:10163000F800000000020000A9ECFFFF63000000BA
:10164000941100007D1500009009000070FBFFFF61
:101650008100000070F8FFFF01010000000500009C
:101660004006D85910275DDF8C014A6C340D42C406
:101670002F009ABD120300000000000000000000CF
:10168000000000000000000000000000000000005A
:1016900000000000BCF4B800BCF4B8000080276A69
:1016A0006666270E6666270E000000000000000038
:1016B0000B1111111111110405050204051A3C1E2C
:1016C00000000505143C0502500000000000020067
:1016D00000000000000000000000000011111111C6
:1016E0001111010000000000111111111111000071
:1016F00000000000000000000056303332000000FF
:10170000413031000000413036001600000000007A
:1017100000000000000000000000322E5658532D3B
:1017200031323839562D35353153444400000000EC
:101730000000000000000000000000000058532DD1
:1017400031323839562D3535315344446016000056
:1017500051DC1680001B0506040503040203010288
:1017600000010F060B0F060D0D070F0F070C090EDA
:10177000090150006020303070007030707050608F
:101780007070000000000100000100010000020074
:10179000010100000002010001000201000200023C
:1017A0000200000003020001000302000200030027
:1017B0000D300309000E30030A010D30030B020D3A
:1017C00030030C010E30030D020E30030E01010038
:1017D00004040201000405020400040600000000E5
:1017E00000100000000118000000010000000001CE
:1017F00020000000402000000050400000000000D9
:1018000000000000000000000000010000000002D5
:1018100000000020010000402001000050200200D4
:1018200000402002000050FFF7FFFF000000F00022
:1018300000000A890000000800800200400600FF46
:10184000FFFFFF00320000A30B00001A000000128F
:10185000000000320000001F0000000002530000E2
:1018600091500091B63100114E35129D38144E350D
:10187000136B3415B63418AF431A2B451FC71A0122
:10188000FD36029D38049D380F9D38000304048006
:10189000000000C0FC9B0165000000285C8F0299DD
:1018A00099991990D003000C0000005A0000000024
:1018B00059005900230131011200990006001F1C34
:1018C0001F1E1F1E1F1F1E0000000000001F1E1FE6
:1018D00001010109071403010204081020408001DE
:1018E00000000002000000040000000800000010DA
:1018F0000000002000000040000000800000000008
:1019000001000000020000000400000008000000C8
:1019100010000000200000004000000080000000D7
:1019200000010000000200000004000000080000A8
:1019300000100000002000000040000000800000B7
:101940000000010000000200000004000000080088
:101950000000100000002000000040000000807423
:10196000F5120B3A74FE120ACAEAFEEBFF8E828F62
:1019700083A3E064117035900542E06455702D7AC0
:101980000079001268B28A218B229011D3C082C0E4
:1019900083900441EB3395E0F523F5247821120878
:1019A000CCD083D0827821120669500E8E828F832C
:1019B000A3A3A3A3A37401021AAF900202E064AA36
:1019C000705E75CEA575CF5A75CEA575CF5A795173
:1019D0007C607D167A837B03122DB679517A837BE6
:1019E00003122D43853182853283EAF0A3EBF08523
:1019F0003182853283E09003D4F07401120B16E03B
:101A00009003D5F079537C837D037A007B001253D9
:101A1000F81264B18E828F83A3A3A3A3E4021ABA3F
:101A2000E06003021ABBEE2404F8E43FF9888289DF
:101A300083E4F0EE2410FAE43FFB8A828B83E0FC1F
:101A4000A3E0F5838C82A3E0FC74116C7008900510
:101A500084E04408801874156C7008900584E04494
:101A600010800B74316C7037900584E04420F08A4C
:101A7000828B83E02402F521A3E03400F522782153
:101A8000120BE479109011D778211209BFAA21AB6B
:101A900022AC23AD24122E797402120AE0801C8835
:101AA0008289837401F08E828F83A3A3A3A3A3F002
:101AB000A3E4F08E828F83A3A304F0790074021252
:101AC0000AE07F04020BA074F1120B3AEAFEEBFF6E
:101AD000EE2408F527E43FF5287904EE2410F5827A
:101AE000E43FF583E0FCA3E0FDAA27AB28122DE735
:101AF000EE2402F525E43FF5269011DB782112094A
:101B0000BF8527828528837821120600601B8E827C
:101B10008F83A3A3A3A3A37401F0A3E4F08525827C
:101B200085268304F0790080177A037B04125F0B0B
:101B3000900583E04440F0852582852683E4F0F912
:101B40007F08020BA074F1120B3A74F4120ACA74E3
:101B50000A120B16EAF0A3EBF09004411209F97493
:101B600004120B16120A057A0079001268B28A2153
:101B70008B227404120B16EB3395E0F523F52478D1
:101B8000211208CC9011DF78251209BF7821792520
:101B90001208227404120B1678211209D29011E354
:101BA00078211209BF7404120B16782112062E40F8
:101BB000237404120B1678211209B09011E77825CE
:101BC0001209BF782179251208227404120B1678A5
:101BD000251209D27404120B161209E1122A7A7422
:101BE00004120B161209ED9011EB78211209BF7443
:101BF00004120B167821120960740A120B16E024E5
:101C000010FEA3E03400FF7904E9120B308E828FBE
:101C100083E0FAA3E0FB122DE77C0479008E828F2B
:101C200083E02CFAA3E03400FB122E177AD87B1045
:101C3000127435EAF8EBF9ECFAEDFB853182853266
:101C400083120A057902AC31AD328E828F83E02493
:101C500008FAA3E03400FB122DE79004ADE0702AEF
:101C60007AD97B101274358531828532831209ED61
:101C70007903AC31AD328E828F83E0240AFAA3E07F
:101C80003400FB122DE77AD6802DE06455704C7A33
:101C9000DA7B101274358531828532831209ED7931
:101CA00003AC31AD328E828F83E0240AFAA3E03494
:101CB00000FB122DE77AD77B1012743585318285AF
:101CC00032831209ED7903AC31AD328E828F83E01D
:101CD000240DFAA3E03400FB122DE77C0379008E7B
:101CE000828F83E02410FAA3E03400FB122E171237
:101CF00079F47408120B16EAF0A3EBF07902740879
:101D0000120B308E828F83E02413FAA3E03400FBA1
:101D1000122DE7740A120B16E0F8A3E0F58388820F
:101D2000A3A37415F07900740C120AE07F08020B6B
:101D3000A074F1120B3AEAFEEBFF79031266C37C42
:101D40000279007AA97B04122E177C0279007A317D
:101D50007B04122E17EE2410F582E43FF583E02475
:101D60000CFAA3E03400FB122954122BA48A258B11
:101D7000268C278D289011DF78211209BF782579CC
:101D80002112070990044578251209D290044512C2
:101D900009F9900441120A05790C7A417B04122D4D
:101DA0004390044DEAF0A3EBF075214175220478CD
:101DB00021120BE4790E9011EF78211209BFAA21AC
:101DC000AB22AC23AD24122E797402120AE07521E5
:101DD000417522047821120BE4790E9011F37821D9
:101DE0001209BFAA21AB22AC23AD24122E797402B2
:101DF000120AE08E828F83A3A3E4F0F97F08020B1E
:101E0000A074F3120B3AEAFEEBFF8C258D268E822E
:101E10008F83A3A3A3A3A3A3A3A378211209B090A4
:101E200011F77821120615703C8C828D83A3A3A331
:101E3000A3A3E493F97CF77D16EE2410F582E43F2A
:101E4000F583E0FAA3E0FB122DB685258285268373
:101E5000A3A3A3A3A3E4938E828F83A3A3F079000B
:101E60007F06020BA09011FB782112061570128CD0
:101E7000828D83A3A3A3A3A3E493F97CFD7D1680A5
:101E8000B89011FF782112061570128C828D83A3F1
:101E9000A3A3A3A3E493F97C037D17809C90120372
:101EA000782112061570128C828D83A3A3A3A3A39D
:101EB000E493F97C097D178080901207782112063F
:101EC0001570409002017442F09004ADE0645570CA
:101ED000069002017402F0900380E0A2E3500790A4
:101EE0000201E0D2E4F0900201E0C0E0EE2410F53F
:101EF00082E43FF583E0F8A3E0F5838882D0E0F048
:101F0000021E4A90120B782112061570138C828DD6
:101F100083A3A3A3A3A3E493F97C0C7D17021E392A
:101F200090120F782112061570138C828D83A3A353
:101F3000A3A3A3E493F97C2C7D17021E398E828F14
:101F400083A3A3A3A3A37402F0A3E4F08E828F83E0
:101F5000A3A304021E5D74F1120B3A8A218B228C1A
:101F6000238D24740F120B16782112091D90121361
:101F700078251209BF78217925120709740F120BF1
:101F80001678251209B078217925120822AE21AFE2
:101F900022EE24E8FCEF3403FD7413120B167821B3
:101FA0001209B08C25EDF5263395E0F527F5287854
:101FB00021792512082290121378251209BF782161
:101FC0007925120709C021C022C023C0247413122E
:101FD0000B1678251209B08C21EDF5223395E0F52A
:101FE00023F52478257921120822A821E875F0E844
:101FF000A4C8AAF075F003A42AFA75F0E8E522A4B3
:102000002AF9ECFAEDFB120A3F88218922E4F52334
:10201000F524D028D027D026D0257825792112087C
:10202000B9C025C026C027C02875210075220075BB
:1020300024808C25EDF5263395E0F527F5287821C9
:1020400079251207898E25EFF5263395E0F527F5DA
:102050002878217925120709D028D027D026D02525
:1020600078257921120909C025C026C027C0287506
:1020700025007526007527007528808C21EDF52236
:102080003395E0F523F52478257921120789A821D5
:10209000E875F0E8A4C8AAF075F003A42AFA75F070
:1020A000E8E522A42AF9ECFAEDFB120A3F8821EEBA
:1020B00088F0A4CEA8F089F0A428F88521F0EFA438
:1020C00028FFEEF8EFF97AE87B03120A3F882189AE
:1020D00022E4F523F524D028D027D026D025782552
:1020E0007921120909AA25AB26AC27AD287F080261
:1020F0000BA074F1120B3A8A218B228C238D24744D
:102100000F120B16782112091D901213782512094F
:10211000BF78217925120709740F120B1678251242
:1021200009B078217925120822E5223395E0F523BC
:10213000F52490121778251209BF78217925120706
:102140000990121B78251209BF78217925120822DF
:10215000A9217F08020BA074F1120B3A74F3120A42
:10216000CAE9853182853283F07409120B208821F7
:1021700089227821120BE4790490121F7821120928
:10218000BFAA21AB22AC23AD24122F887402120AFD
:10219000E0853182853283E070087AE87B107ED654
:1021A00080067AE97B107ED7126D5B7405120B16E0
:1021B0001209ED7409120B281229548A218B228CE2
:1021C000238D2474087821120881AA21AB22AC2324
:1021D000FD122BA47401120B161209EDEEFA7B10FE
:1021E0001274358A258B268C278D288A218B228C88
:1021F000238D249012237821120949E52145224597
:1022000023452460089012277825120949AA25AB96
:1022100026AC27AD28122BA4853182853283E0704D
:102220002D7405120B16120BF57405120B16120BFA
:10223000F5121F567408120AE08A218B228C238D16
:102240002490046678211209D27525E8802B740544
:10225000120B16120BF57405120B16120BF5121F4A
:10226000567408120AE08A218B228C238D24900454
:102270006A78211209D27525E97526107825120B86
:10228000E4126EA77402120AE0740D120AE07F08CD
:10229000020BA074F1120B3A74EC120ACAE9C0E006
:1022A0007401120B16D0E0F0752500752600752715
:1022B000007528007410120B2088218922782112C1
:1022C0000BE4790490121F78211209BFAA21AB22D6
:1022D000AC23AD24122F887402120AE07410120B82
:1022E000281229548A218B228C238D24740478216E
:1022F000120881AA21AB22AC23AD24122BA47408AE
:10230000120B161209ED7401120B16E0701174060F
:10231000120B1674D1F0A37410F0900484800F7423
:1023200006120B1674D2F0A37410F0900488782172
:102330001209B074087821120881740C120B1678F7
:10234000211209D2853182853283E48064740612B9
:102350000B16E0FAA3E0FB126D5B7402120B16126F
:1023600009ED791412285275CEA575CF5A75CEA5F0
:1023700075CF5A7405120B16E0C394804021740285
:10238000120B1678211209B0782112087190122BC5
:1023900078211208DF7402120B1678211209D27408
:1023A00002120B1678251208CC853182853283E023
:1023B00004F0E0C3941040957404782512088190CD
:1023C000122F78211209BF78257921120709740C80
:1023D000120B1678211209B0782579211207898508
:1023E00025218526228527238528247408120B168B
:1023F00078211206B37402404F120B167825120989
:10240000B0C025C026C027C0287408120B16782536
:102410001209B078257921120909D024D023D022BD
:10242000D021782179251207097408120B16782516
:102430001209B07821792512078985212585222660
:10244000852327852428802F120B1678251209B0A2
:102450007408120B16782112091D782579211207AC
:10246000097408120B1678211209B0782579211207
:10247000078978251208607401120B16E070189015
:10248000047A78251209D27521ED7522107821126F
:102490000BE490047A801690047E78251209D27598
:1024A00021EE7522107821120BE490047E1209E1CE
:1024B000126EA77402120AE079517A507B04122D31
:1024C000439004A1EAF0A3EBF079537C507D047AA9
:1024D000007B001253F8127CD97414120AE07F08B2
:1024E000020BA074F1120B3A74F8120ACAE9853192
:1024F00082853283F07401120B2088218922782191
:10250000120BE4790390123378211209BFAA21AB90
:1025100022AC23AD24122F887402120AE074011237
:102520000B28122901122BA48A218B228C238D24A3
:10253000853182853283E070087AEB7B107ED9800A
:10254000067AEC7B107EDA126D5B7404120B1612A5
:1025500009EDEEFA7B101274358A258B268C278DB7
:10256000289012377825120949AA25AB26AC27AD49
:1025700028122BA4853182853283E0703D740412C9
:102580000B16120BF57821120BE0121F567408126D
:102590000AE08A218B228C238D24900472782112E8
:1025A00009D290049878211209D27521EB75221076
:1025B0007821120BE4900472803B7404120B161203
:1025C0000BF57821120BE0121F567408120AE08AEC
:1025D000218B228C238D2490047678211209D290AD
:1025E000049C78211209D27521EC752210782112F1
:1025F0000BE49004761209E1126EA77402120AE04D
:102600007408120AE07F08020BA074F1120B3A74EE
:10261000F1120ACAA831A932882189227821120B25
:10262000E4790390123B78211209BFAA21AB22ACB6
:1026300023AD24122F887402120AE0AA31AB3212A1
:102640002901122BA48A218B228C238D249011DF47
:1026500078251209BF78217925120789740B120B8E
:102660001678211209D27AEA7B10126D5B74071278
:102670000B161209ED7AD87B10127435122BA48A2E
:10268000218B228C238D249011DF78251209BF78AD
:102690002179251207097403120B1678211209D229
:1026A0007407120B16120BF5740F120B16120BF5A2
:1026B000740B120B161209E1121F567408120AE06D
:1026C0008A218B228C238D2490046E78211209D2CA
:1026D0007525EA7526107825120BE4126EA7740290
:1026E000120AE0740F120AE07F08020BA074F112C4
:1026F0000B3A74F7120ACAE9853182853283F0E019
:10270000700A75217B7522287ED6800875217C751C
:1027100022287ED77821120BE490123F78211209EB
:10272000BFAA21AB22AC23AD24126EA77402120AF9
:10273000E07405120B20882189227821120BE4799C
:102740000490121F78211209BFAA21AB22AC23AD3D
:1027500024122F887402120AE07405120B28122921
:10276000548A218B228C238D2474087821120881AD
:10277000AA21AB22AC23FD122BA47401120B16125A
:1027800009EDEEFA7B101274358A258B268C278D85
:10279000288A218B228C238D2490122378211209E0
:1027A00049E52145224523452460109012277825CC
:1027B000120949AA25AB26AC27AD28122BA48A25DD
:1027C0008B268C278D28853182853283E070227498
:1027D00001120B16120BF5AA25AB26AC27AD281259
:1027E00020F27404120AE0E9900482F075217B80E3
:1027F000207401120B16120BF5AA25AB26AC27ADDF
:10280000281220F27404120AE0E9900483F0752182
:102810007C7522287821120BE4E9FAE4FBFCFD1216
:102820006EA77402120AE079517A507B04122D438C
:102830009004A1EAF0A3EBF079537C507D047A0078
:102840007B001253F8127CD97409120AE07F080247
:102850000BA0C082C083E9FB74FF2B1904601A7AB5
:1028600000800808E8C3941440F90A900525E0F8B0
:10287000EAC39850E1780080EBD083D08222C082F6
:10288000C083EA8C828D83F0EBA3F0D083D08222C8
:10289000C082C0838A828B83A3E0F98A828B83E023
:1028A000FAE9FBD083D08222C082C08374FC120A72
:1028B000CA853182853283EAF0A3EBF0A3ECF0A362
:1028C000EDF07404120B16E0F8A3E0F9853182856F
:1028D0003283E088828983F0A3A882A983740112DD
:1028E0000B16E088828983F0A308A9837402120B77
:1028F00016E088828983F07404120AE0D083D082C3
:1029000022C082C08374FC120ACA8A828B83E0854B
:102910003182853283F08A828B83A3AA82AB83E0E3
:10292000C0E07401120B16D0E0F08A828B83A3E022
:10293000C0E07402120B16D0E0F07403120B16E420
:10294000F08531828532831209E17404120AE0D0E5
:1029500083D08222C082C08374FC120ACA8A828B0E
:1029600083E0853182853283F08A828B83A3AA82B9
:10297000AB83E0C0E07401120B16D0E0F08A828BCA
:1029800083A30AAB83E0C0E07402120B16D0E0F020
:102990008A828B83A3E0C0E07403120B16D0E0F0B0
:1029A0008531828532831209E17404120AE0D083F2
:1029B000D0822274F8120B3A7F00C3EA9410EB9491
:1029C0002740077AFF7BFF022A75C3EA9440EB9405
:1029D0001F400A7F80EA24C0FAEB34E0FBC3EA948C
:1029E000A0EB940F400C74404FFFEA2460FAEB34E4
:1029F000F0FBC3EA94D0EB9407400C74204FFFEA3D
:102A00002430FAEB34F8FBC3EA94E8EB9403400C6F
:102A100074104FFFEA2418FAEB34FCFBC3EA94204D
:102A2000EB9403400C74084FFFEA24E0FAEB34FC0B
:102A3000FBC3EA9490EB9401400C74044FFFEA242A
:102A400070FAEB34FEFBC3EA94C8EB9400400C74BC
:102A5000024FFFEA2438FAEB34FFFBC3EA9464EB3D
:102A600094004008E4044FFFEA249CFAEAF9122C8F
:102A7000A3E9FAEFFB7F01020BA074F1120B3A7489
:102A8000F4120ACA853182853283EAF0A3EBF0A3FF
:102A9000ECF0A3EDF07408120B16E4F0A3F0A3F031
:102AA000A3F0801390124378211209BF85318285EB
:102AB000328378211208F690124778211209BF85D7
:102AC000318285328378211206A350D8752500758E
:102AD00026B47527C47528047404120B16E4F0A3F9
:102AE000F0A3F0A37480F0790080087401782512B7
:102AF000088109E9C3941085318285328350747846
:102B0000251206A3401F7404120B1678211209B077
:102B10007408120B16782112099D85318285328343
:102B200078251209357404120B1678211209B07435
:102B30000178211208817404120B1678211209D22F
:102B4000E924FD600A24FC601424FC601B809C7551
:102B5000250075261275277A752800809575250041
:102B600075263575270C80F07525807526387527F4
:102B70000180E578211209B0AA21AB221229B38A7B
:102B8000218B22E4F523F5247408120B1678211208
:102B9000099D7408120B161209E1740C120AE07FE9
:102BA00008020BA074F1120B3A74FA120ACA7402EA
:102BB000120B16EAF0A3EBF0A3ECF0A3EDF07525F1
:102BC00000752600752700752800A882A983853125
:102BD00082853283E8F0A3E9F07E00804F85318260
:102BE000853283E0F8A3E0F5838882E0F9122C8631
:102BF000E9FA853182853283E024FFF8A3E034FFCF
:102C0000F9853182853283E8F0A3E9F090124B78A0
:102C1000211209BF782579211207098A21E4F522BA
:102C2000F523F524782579211208B90EEEC3940412
:102C300040ABAA25AB26AC27AD287406120AE07F6C
:102C400008020BA074F8120B3A74FE120ACA8531FE
:102C500082853283EAF0A3EBF07401120B16E0F9DF
:102C6000122C86E975F064A4FEAFF08531828532BE
:102C700083E0F9122C86EE29FAE43FFB7402120A73
:102C8000E07F01020BA074F7120B3AE9C3949A405B
:102C90000479AA8009E9F582758303E493F97F0238
:102CA000020BA074F7120B3AE9C39464400479FF55
:102CB000800D749C29F582E43403F583E493F97F55
:102CC00002020BA074F8120B3AE9F8800EA3AA8254
:102CD000AB838C828D83A3AC82AD83E8601E188C9D
:102CE000828D83E0F98A828B83E0FEE96E60DEE903
:102CF000C39E5004790180067902800279007F0129
:102D0000020BA074F8120B3AE9F8800EA3AA82AB6A
:102D1000838C828D83A3AC82AD83E8601F188C8284
:102D20008D83E493F98A828B83E0FEE96E60DDE9AE
:102D3000C39E5004790180067902800279007F01E8
:102D4000020BA074F7120B3AEAFCEBFDE9FE7A5590
:102D50007B55802FEAF9EBFA8C828D83E0F521EA2E
:102D6000652125E0FAE433FBE42AF58274013BF5A2
:102D700083E493FAA3E49369FB8C828D83A3AC82F2
:102D8000AD831EEE70CE7F02020BA074F8120B3AD8
:102D90008A828B83E9FEEEFF74FF2F1E046010E031
:102DA000F9122C86E9A3C3946440EB79018002797F
:102DB000007F01020BA0C082C083801D8C828D83A6
:102DC000E4938A828B83F08C828D83A3AC82AD8363
:102DD0008A828B83A3AA82AB83E9F874FF28190443
:102DE00070DAD083D08222C082C083801C8C828D16
:102DF00083E08A828B83F08C828D83A3AC82AD8347
:102E00008A828B83A3AA82AB83E9F874FF28190412
:102E100070DBD083D08222C082C083800BE98A829B
:102E20008B83F0A3AA82AB83ECF874FF281C047098
:102E3000ECD083D0822274F7120B3A8A828B83E023
:102E4000F9122C86E9F521A3E0F9122C86E975F038
:102E50003CA4F8A9F0E52128FAE439FB7F02020B33
:102E6000A07928E9FA74FF2A1904600C7800E8C3F5
:102E7000941E50EF000880F62274F1120B3A892359
:102E8000EAFEEB547FFF752400EE54C0F8EFF9859D
:102E90002321EE2521FAE43FFBEA24FF1AEB34FF5D
:102EA000FBEA54C0687002EB69601AEE543FF87494
:102EB00040C398F525740F120B16E0F8A3E0F988CB
:102EC000828983800785232580EB0524E524C3942C
:102ED00003400E900381E04408F079027F08020B62
:102EE000A01231EA79A0123117E970DEEFF9123140
:102EF00017E970D6EEF9123117E970CE8582218577
:102F000083227526008003A30526E526C395255058
:102F100008E0F9123117E960EEE526C3952550085F
:102F200085218285228380A2123254122E61E525EA
:102F3000C39523402F9028AAE0D2E2F09028A8E081
:102F4000C2E2F09028AAE0D2E3F09028A9E0C2E320
:102F5000F09028A8E0C2E3F0900381E054F7F07904
:102F600000022EDC852521EE2521FEE43FFFE5252C
:102F7000C523C39523F523C394414006752540021C
:102F80002ECC852325022ECC74F1120B3A74FF123D
:102F90000ACAE9853182853283F08A218B2275261F
:102FA0000075250080020525E525C39403503305EF
:102FB00026852127852228E528547FFF1231EA79CA
:102FC000A0123117E970DFEFF9123117E970D7A9B4
:102FD00027123117E970CF1231EA79A1123117E9BE
:102FE00070C47525007410120B16E0FEA3E0FF807C
:102FF0000E12331D8E828F83A3AE82AF830525858B
:103000003182853283E0F8E525C398502512309A45
:10301000E98E828F83F0852521853182853283E098
:1030200024FFF8E434FFF9E865214970C41232C581
:1030300080C2123254122E619028AAE0D2E2F0909F
:1030400028A8E0C2E2F09028AAE0D2E3F09028A9F4
:10305000E0C2E3F09028A8E0C2E3F0E526C39403C1
:10306000900381E040074408F07902800554F7F0AE
:1030700079007401120AE07F08020BA074F5120BAC
:103080003A740B120B16120BF97902122F88740284
:10309000120AE079007F04020BA0C082C08390284E
:1030A000AAE0C2E3F09028A9E0C2E3F09028A8E0EB
:1030B000C2E3F0E0D2E2F0A3E0D2E2F0900203E457
:1030C000F0F8802E00009028AAE0D2E3F09028A922
:1030D000E0C2E3F09028A8E0C2E3F0900203E0C36E
:1030E00033F09028ABE0A2E25007900203E0D2E078
:1030F000F008E8C394089028AAE0C2E3F09028A959
:10310000E0C2E3F09028A8E0C2E3F040B7900203E9
:10311000E0F9D083D08222C082C083E9900204F01B
:103120009028AAE0C2E3F09028A9E0C2E3F090283A
:10313000A8E0C2E3F09028AAE0C2E2F09028A8E05C
:10314000C2E2F07800802BC2E2F09028A8E0C2E250
:10315000F0900204E0C333F000009028AAE0D2E32C
:10316000F09028A9E0C2E3F09028A8E0C2E3F000C4
:103170000008E8C394089028AAE0C2E3F09028A9C8
:10318000E0C2E3F09028A8E0C2E3F05010900204FF
:10319000E0A2E79028AAE050AED2E280AC0000E0C6
:1031A000D2E2F0A3E0D2E2F0A3E0D2E3F09028A9CB
:1031B000E0C2E3F09028A8E0C2E3F000009028AB62
:1031C000E0A2E25004D2F08002C2F0A2F0E433F9AF
:1031D0009028AAE0C2E3F09028A9E0C2E3F090288A
:1031E000A8E0C2E3F0D083D08222C082C0839028BE
:1031F000AAE0C2E3F09028A9E0C2E3F09028A8E09A
:10320000C2E3F09028AAE0D2E2F09028A8E0C2E25F
:10321000F09028AAE0D2E3F09028A9E0C2E3F09071
:1032200028A8E0C2E3F000009028AAE0C2E2F090F3
:1032300028A8E0C2E2F000009028AAE0C2E3F090E3
:1032400028A9E0C2E3F09028A8E0C2E3F00000D093
:1032500083D08222C082C0839028AAE0C2E3F0908B
:1032600028A9E0C2E3F09028A8E0C2E3F09028AAE1
:10327000E0C2E2F09028A8E0C2E2F000009028AAA4
:10328000E0D2E3F09028A9E0C2E3F09028A8E0C2E1
:10329000E3F000009028AAE0D2E2F09028A8E0C273
:1032A000E2F00000E0D2E2F0A3E0D2E2F0A3E0C25C
:1032B000E3F09028A9E0C2E3F09028A8E0C2E3F090
:1032C000D083D08222C082C0839028AAE0C2E3F0DB
:1032D0009028A9E0C2E3F09028A8E0C2E3F090288B
:1032E000AAE0D2E2F09028A8E0C2E2F09028AAE09A
:1032F000D2E3F09028A9E0C2E3F09028A8E0C2E36E
:10330000F000009028AAE0C2E3F09028A9E0C2E310
:10331000F09028A8E0C2E3F0D083D08222C082C01F
:10332000839028AAE0C2E3F09028A9E0C2E3F090DD
:1033300028A8E0C2E3F09028AAE0C2E2F09028A812
:10334000E0C2E2F09028AAE0D2E3F09028A9E0C21F
:10335000E3F09028A8E0C2E3F000009028AAE0C2C1
:10336000E3F09028A9E0C2E3F09028A8E0C2E3F0DF
:10337000D083D08222C082C083E4800F900206E016
:10338000640470057900123392740160EFD083D029
:10339000822274F8120B3AE9FEF875F06FA4C8AAFD
:1033A000F02AF9740528F582740239F583EE600578
:1033B0001233F48012E4F0AA82AB83129BD6E9F4B4
:1033C000700579001233CC7F01020BA0C082C0834C
:1033D000E9701C90020574FFF090020AE4F0A3F07B
:1033E000900209F09002067403F0A3E4F0A3F0D079
:1033F00083D08222E4800779001233CC740160F715
:103400002274F8120B3AE9FEF875F06FA4C8AAF01E
:103410002AF9740528F8740239F988828983A3741B
:1034200002F088828983A3A3A3A3E4F0888289831E
:10343000E0700512B6B38005EEF91233CC7F0102BD
:103440000BA0C082C083E4801B900207E06013E001
:1034500014F0E0700D9002067404F090057FE044D3
:1034600010F0740160E3D083D0822274F8120B3A1A
:10347000EAFEEBFF8E828F83A3A3A3A3A3A3A3E003
:10348000640170217906EE2410F582E43FF583E0B3
:10349000FCA3E0FD7A807B0012564C8E828F83A3C2
:1034A000A3740680098E828F83A3A3A3A3E4F0797B
:1034B000007F01020BA074F5120B3AEAFEEBFF8EBF
:1034C000828F83A3A3A3A3A3A3A3E06401600D8EB3
:1034D000828F83A3A3A3A3E4F0F9806DEE2402F509
:1034E00023E43FF524EE2410F521E43FF52279068C
:1034F000852182F583E0FAA3E0FB122D8BE9703180
:103500007906852182852283E0FCA3E0FD7A807B19
:10351000001253F87906852182852283E0FCA3E01E
:10352000FD7A3C7B05122DE7852382852483E48088
:10353000158E828F83A3A3A3A3A3E04401F0852368
:10354000828524837401F079007F04020BA074F358
:10355000120B3AEAFEEBFF7523008002052390145C
:1035600041E493F8E523C3985029EE240BF582E457
:103570003FF583E0F985232175220074027821123A
:103580000AB774292521F58274143522F583E49352
:103590006970C9901441E493F8E523C398505075BD
:1035A000240074027823120AB774292523F87414AE
:1035B0003524F988828983A3E493F525740193F572
:1035C00026EE2408F521E43FF522852182F5837457
:1035D00004120BFD88828983A3A3A3E493F9AA258F
:1035E000AB261242337404120AE074FF6970188E1D
:1035F000828F83A3A3A3A3A37402F0A3E4F08E821B
:103600008F83A3A30236A88E828F83A3A3A3A3A331
:10361000A3A3A3A3E0F4700F8E828F83A3A3A3A31D
:10362000A3A3A3E0D2E6F08E828F83A3E06414709C
:103630007B85218285228378211209B090151B7821
:103640002112094990151F7821120615605E901508
:103650002378211206156054EE2402FAE43FFBE9B8
:1036600075F00DA4FCADF0E5252CF582E5263DF5C1
:1036700083A3A3A3A3A3E4937D00240CFC50010D1A
:103680008A828B83E0F521C3EC9521ED9400A2D2D0
:1036900065D03350178E828F83A3A3A3A3A3740195
:1036A000F0A3E4F08A828B8304F0804AE975F00D80
:1036B000A4F8A9F0E52528F582E52639F583AC8242
:1036C000AD83EEFAEFFBA3A3A3A3A3A3A3A3E49369
:1036D00025E0F8E433F9745928F582741239F5833A
:1036E000E493C0E0740193F583D082120B38E9F4BF
:1036F000700479FF800279007F06020BA074F1123A
:103700000B3AEAFEEBFFEE2408F525E43FF526EE42
:103710002410F527E43FF5287904852782F583E016
:10372000FCA3E0FDAA25AB26122DE78E828F83A392
:10373000A3E0640290037B600302383E7455F08E70
:10374000828F83A3A3A3A37401F08E828F83A3A38C
:10375000A3A3A3A3A3A3A3A3E4F0A3F0F980010967
:1037600090146CE493F8E9C398400302381DE9759E
:10377000F006A4FAABF074422AF52774143BF5283E
:10378000852782F583E493F521740193F522E4F50E
:1037900023F524852582852683782112060070BFB3
:1037A000852782852883A3A378211209BF852582D6
:1037B000852683E521F0A3E522F0A3E523F0A3E528
:1037C00024F08E828F83A38582218583227411F059
:1037D000EEFAEFFB12354EE9F470098E828F83A367
:1037E000A37401F08E828F83A3A3A3A3A3A3A3A397
:1037F000A3A3E4F0A3F085278285288393F87401BE
:1038000093F98E828F83A3A3A3A3A3A3A3A3E8F01A
:10381000A3E9F08521828522837401801EE493F858
:10382000E9C39840718E828F83A3A3A3A3A37402DC
:10383000F0A3E4F08E828F83A3A304F08058E4F019
:10384000F9805090152778211209BF852582852699
:103850008378211206007039852782852883E02429
:1038600004F521A3E03400F5227821120BE479530A
:1038700090123F78211209BFAA21AB22AC23AD24BC
:10388000122F887402120AE08E828F83A3A37457CA
:10389000F07901E960AD79007F08020BA074F112A4
:1038A0000B3A74F4120ACA853182853283EAF0A396
:1038B000EBF0853182853283E02408F8A3E0340000
:1038C000F97402120B16E8F0A3E9F0853182853213
:1038D00083E02410F527A3E03400F5287904852738
:1038E00082F583E0FCA3E0FD7402120B16E0FAA35C
:1038F000E0FB122DE7853182853283E02401F8A3B5
:10390000E03400F97404120B16E8F0A3E9F0740433
:10391000120B16E0F8A3E0F5838882E0F8740F68D4
:103920006003023A0690037B7455F085318285323C
:1039300083E02402F525A3E03400F526852782855F
:103940002883E0FAA3E0FB12A10EE9F47003023928
:10395000E47903852782852883E02405FCA3E034ED
:1039600000FD853182853283E0F8A3E0C82408F5A4
:1039700082E438F583E089F0A4ABF0248CFA50019E
:103980000B1253F8852782852883E0F8A3E0F98895
:10399000828983A3A3A3A3A3E088828983A3F0855C
:1039A0002782852883E0F8A3E0F988828983A3A38E
:1039B000A3A3A3A3E088828983A3A3F0852782859C
:1039C0002883E0F8A3E0F988828983A3A3A3A3A3B3
:1039D000A3A3E088828983A3A3A3F08525828526FB
:1039E00083023CD8853182853283E0F8A3E0F583F9
:1039F0008882A3A3A3A3A37401F0A3E4F085258286
:103A000085268302422774126870298531828532A7
:103A100083E02402F525A3E03400F526852582F510
:103A200083E07010900585E0D2E3F085258285263D
:103A30008302422674046890037B6003023D0B748A
:103A400055F0853182853283E0240AF8A3E0340002
:103A5000F97406120B16E8F0A3E9F07406120B16BF
:103A6000E0F8A3E0F5838882E4F0A3F0852782855F
:103A70002883E0F8A3E0F5838882A3A3E0FC8531E6
:103A800082853283E02403F8A3E03400F9E8FAE900
:103A9000FB90152B78211209BF7402120B16E0F867
:103AA000A3E0F583888278211206006003023B7C44
:103AB000EC8A828B83F06003023BB98527828528DC
:103AC00083E0F8A3E0F988828983A3A3A3E06411CB
:103AD0006003023BB988828983A3A3A3A3E0641196
:103AE0006003023BB988828983A3A3A3A3A3E064F4
:103AF000116003023BB9900542E06455605B7A00B7
:103B000079001268B28A218B2290152FC082C0835F
:103B1000900441EB3395E0F523F52478211208CC8D
:103B2000D083D0827821120669502E853182853269
:103B300083E0F8A3E0C82407F582E438F583742015
:103B4000F0853182853283E0F8A3E0F5838882A393
:103B5000A3A3A3A37401023DA690057FE04440F017
:103B6000853182853283E0F8A3E0F5838882A3A3C0
:103B7000E4F07A0D7B04125F0B023DBDEC8A828B70
:103B800083F074016C7032852782852883E0FAA364
:103B9000E0FB8A828B83A3A3A3E06411701B8A825B
:103BA0008B83A3A3A3A3E06411700E8A828B83A3EB
:103BB000A3A3A3A3E064116019853182853283E059
:103BC000F8A3E0C82407F582E438F5837420F002F6
:103BD0003D91853182853283E02402F525A3E034CE
:103BE00000F526852582F583E024FAF9EA2406FC0F
:103BF000E43BFD122DE77E0080010E90146CE493EF
:103C0000F8EEC3984003023CDDEE75F006A4F8A977
:103C1000F0744228F527741439F528852782F58336
:103C2000E493F521740193F522E4F523F52474025D
:103C3000120B16E0F8A3E0F58388827821120600C3
:103C400070B8852782852883A3A378211209BF74C1
:103C500002120B16E0F8A3E0F5838882E521F0A3B9
:103C6000E522F0A3E523F0A3E524F07404120B167B
:103C7000E0F8A3E0F58388827414F0853182853200
:103C800083E0FAA3E0FB12354EE9F4700985258242
:103C90008526837401F07406120B16E0F8A3E0F594
:103CA000838882E4F0A3F085278285288393F874C3
:103CB0000193F9853182853283E0FAA3E0CA2408B2
:103CC000F582E43AF583E8F0A3E9F07404120B16E8
:103CD000E0F8A3E0F58388827404023DBCE493F825
:103CE000EEC3985003024216853182853283E0F894
:103CF000A3E0F5838882A3A3A3A3A37402F0A3E4A3
:103D0000F085258285268304023DBCE4F07402120E
:103D10000B16E0F8A3E0F583888278211209B090B1
:103D20001533782112061570089005427455024229
:103D30001590153778211206157007900542E40298
:103D4000421590153B782112061570107A037B04FA
:103D5000125F0B900583E04440024215900542E05B
:103D60006455702D7A0079001268B28A218B2290F6
:103D700011D3C082C083900441EB3395E0F523F565
:103D80002478211208CCD083D08278211206695081
:103D900031853182853283E0F8A3E0F5838882A300
:103DA000A3A3A3A37404F0A3E4F085318285328336
:103DB000E0F8A3E0F5838882A3A37401F079000200
:103DC00042297402120B16E0F8A3E0F5838882788A
:103DD000211209B090153F78211206156003023FA9
:103DE000D4853182853283E0F8A3E0F5838882A30D
:103DF000A3E064236003023F0D7C5379007A507B7B
:103E000004122E177903852782852883E02404FC79
:103E1000A3E03400FD7408120B28122DE7740B1276
:103E20000B16E4F07408120B28122954122BA490DC
:103E30000450EAF0A3EBF079047C627D167A527BA1
:103E400004122DB6852782852883E0241EFAA3E07C
:103E50003400FB122954EAF8EBF9ECFAEDFB90047C
:103E600056120A0590045A7443F0A374ADF0A3747B
:103E700020F0A37415F090046274F6F0A374C8F0F7
:103E8000A374EAF0A37404F0852782852883E024D4
:103E900019FAA3E03400FB12295490045E1209EDD4
:103EA000852782852883E02409FAA3E03400FB12E9
:103EB00029549004841209ED852782852883E02403
:103EC0000DFAA3E03400FB12295490048C1209ED82
:103ED000852782852883E02411FAA3E03400FB12B1
:103EE00029549004901209ED852782852883E024C7
:103EF00015FAA3E03400FB1229549004941209ED42
:103F00007901852782852883E024228051791685CE
:103F10002782852883E02404FCA3E03400FD7A5046
:103F20007B04122DE77C1E79007A667B04122E1723
:103F30007914852782852883E0241AFCA3E03400C5
:103F4000FD7A847B04122DE77C0879007A987B0443
:103F5000122E177901852782852883E0242EFCA361
:103F6000E03400FD7AA07B04122DE779517A507B72
:103F700004122D439004A1EAF0A3EBF075215075D3
:103F800022047821120BE4795390123F7821120910
:103F9000BFAA21AB22AC23AD24122E797402120ADF
:103FA000E07521507522047821120BE479539015A5
:103FB0004378211209BFAA21AB22AC23AD24122ED3
:103FC000797402120AE07C0679007AA37B04122E2F
:103FD000170241F0901547782112061570188527B1
:103FE00082852883E02404FAA3E03400FB122954DC
:103FF0009004660240FB90154B782112061570184C
:10400000852782852883E02404FAA3E03400FB128C
:10401000295490046A0240FB90154F78211206152E
:10402000703F852782852883E02404FAA3E03400CA
:10403000FB12295490046E1209ED8527828528838E
:10404000E02408FAA3E03400FB1229548A218B22D1
:104050008C238D2490047278211209D290049880C8
:104060002F9015537821120615702C8527828528EC
:1040700083E02404FAA3E03400FB1229548A218B44
:10408000228C238D2490047678211209D290049CEE
:1040900078211209D2806790155778211206157081
:1040A00018852782852883E0F8A3E0F5838882A31A
:1040B000A3A3A3E0900482802090155B78211206D0
:1040C000157019852782852883E0F8A3E0F5838899
:1040D00082A3A3A3A3E0900483F0802290155F78CD
:1040E000211206157076852782852883E02404FA3C
:1040F000A3E03400FB12295490047A1209ED79519F
:104100007A507B04122D439004A1EAF0A3EBF075E2
:1041100021507522047821120BE4795390123F78D4
:10412000211209BFAA21AB22AC23AD24122E79742F
:1041300002120AE07521507522047821120BE479ED
:104140005390154378211209BFAA21AB22AC23ADAD
:1041500024122E797402120AE00241F0901563785D
:10416000211206157038852782852883E02404FAF9
:10417000A3E03400FB12295490047E1209ED79511A
:104180007A507B04122D439004A1EAF0A3EBF0795E
:10419000537C507D047A007B001253F880529015B6
:1041A0006778211206157008900583E044808065C9
:1041B0007E0080027E01EE7034901527782112096E
:1041C000BF7402120B16E0F8A3E0F5838882782111
:1041D00012060070DF7953852782852883E0240446
:1041E000FCA3E03400FD7A007B001253F8EE70056A
:1041F000900583801D600DC394065008900583E0F0
:1042000044088011EEC39406400C900583E04424DA
:10421000F0A3E04402F0853182853283E0F8A3E028
:10422000F5838882A3A3E4F0F9740C120AE07F08F6
:10423000020BA074F5120B3AEAFEEBFF7B0074FF51
:1042400029FA740E120B16E0704990156FC082C0E7
:1042500083740B120B1678211209B090156B78211C
:10426000120949D083D0827821120615604A740C55
:10427000120B16E0F874FF686006E8C39405503826
:10428000740D120B16E0F8740C686017740B6870EC
:104290000B8010740C120B16E0F47007740C120BE8
:1042A00016E4F08E828F8378211209BF740B120BF3
:1042B0001678211206A3500F79FF7F04020BA0EAA3
:1042C000696056740129FB8B23E5232AF521E43428
:1042D00000F52274017821120A98A921E975F00DE0
:1042E000A4F521E5F0F522EE2521F582EF3522F542
:1042F0008378211209BF740B120B16782112060065
:104300006017740B120B1678211206B350B1EB69CB
:1043100060030243A8E9600119E975F00DA4FAAB46
:10432000F0EE2AFAEF3BFB8A828B83E493FEA3A391
:10433000A3A3A3A3A3E493F521EE2521FEE4340077
:10434000FF740B120B16E0F521C3EE9521EF9400DC
:10435000C365D03350030242B88A828B83A3E493AF
:10436000FE8A828B83A3A3A3A3A3A3E493F521EEE8
:104370002521FEE43400FF740C120B16E0F521C376
:10438000EE9521EF9400C365D03350030242B87418
:104390000D120B16E0F88A828B83A3A3E493C398D3
:1043A00050030242B80242BA74FF29FA0242C774AB
:1043B000F1120B3AEAFEEBFF8E828F83A3A3A3A335
:1043C000A3A3A3E06402600E8E828F83A3A3A3A3A2
:1043D000E4F0F9024526EE2408F525E43FF526EE43
:1043E0002410F527E43FF5287904852782F583E03A
:1043F000FCA3E0FDAA25AB26122DE78527828528A0
:1044000083E0FAA3E0FB8A828B83A3A3A3A3A3A3E5
:10441000A3A3E0F97402696005740469703474023E
:1044200069701590157378211209BF85258285263C
:10443000837821120600701A74046970229015772F
:1044400078211209BF8525828526837821120600EE
:10445000600D8E828F83A3A3A3A3A37401802390F6
:104460000586E0A2E05010EA2404F582E43BF583DF
:10447000E0F8E9C39850178E828F83A3A3A3A3A368
:104480007404F0A3E4F08E828F83A3A38042AA82F7
:10449000AB8312A10EE9F88E828F83A3A3A3F0EE63
:1044A0002402F521E43FF52274FF6870268E828F86
:1044B00083A3A3A3A3A3A3A37420F08E828F83A3BB
:1044C000A3A3A3A37404F0A3E4F08521828522832F
:1044D000048050852782852883E0F8A3E0F988824C
:1044E00089837903E5822409FCE43583FDA3A3A332
:1044F000A3A3A3A3A3E089F0A4ABF0248CFA5001FA
:104500000B1253F8852782852883E0FAA3E0FB7914
:1045100004EA2408FCE43BFD122DE7852182852274
:10452000837404F079007F08020BA074F5120B3A33
:10453000EAFEEBFF8E828F83A3A3A3A3A3A3A3E032
:104540006402600E8E828F83A3A3A3A3E4F0F9021A
:1045500045F4900542E06455602D7A0079001268B8
:10456000B28A218B2290152FC082C083900441EB28
:104570003395E0F523F52478211208CCD083D0823E
:1045800078211206694025EE2410F521E43FF5223A
:10459000852182F583E0FAA3E0FB12A10EE9F88EF3
:1045A000828F83A3A3A3F074026860198E828F8325
:1045B000A3A3A3A3A37404F0A3E4F08E828F83A328
:1045C000A304F0802D90057FE04440F08E828F831D
:1045D000A3A3E4F07904852182852283E029FCA34A
:1045E000E03400FD7A777B03122DE77A0D7B04120D
:1045F0005F0B79007F04020BA079002279002274FE
:10460000F1120B3A74F8120ACAEAFEEBFF8E828F9F
:1046100083A3E0F8741468700D8E828F83A3A3A324
:10462000A3A3740480107412688E828F83A3A3A343
:10463000A3A370107401F0A3E4F08E828F83A3A370
:10464000040249BAA3A3E0A2E6400302481A740593
:10465000120B16E4804E8E828F83A3A3A3A3A3A381
:10466000A3A3A3A3E070139011EB78211209BF85D7
:10467000318285328378211209607904AC31AD3200
:104680007406120B16E0FAA3E0FBEE2410F582E4A8
:104690003FF583E02AFAA3E03BFB122DE7740512F5
:1046A0000B16E004F0E0C39405400302480F7404C5
:1046B000120B16E4F07405120B16E0F521752200BA
:1046C00074027821120AB77406120B16E521F0A3C2
:1046D000E522F07406120B16C082C0838E828F838F
:1046E000A3A3A3A3A3A3A3A3A3A3E0F521752200DF
:1046F00074027821120AB774412521F87404352216
:10470000F9D083D082E028F8A3E039F98882898340
:104710001209F9853182853283120A057405120B5C
:1047200016E0FA8E828F83A3A3A3A3A3A3A3A3A3BC
:10473000A3E0F91268B28A218B22EB3395E0F523CE
:10474000F52485318285328378211208F6740512AA
:104750000B16E0600E853182853283E4F0A3F0A36E
:10476000F0A3F08E828F83A3A3A3A3A3A3A3A3A3E9
:10477000A3E0703890157B78211209BF85318285BE
:10478000328378211206A3402385318285328378D3
:10479000211209B078211208608531828532837830
:1047A000211209D27404120B167401F0853182852E
:1047B000328378251209B09011DF78211209BF7871
:1047C00025792112082285318285328378251209C4
:1047D000D28531828532831209E1122A7AEAF8EB16
:1047E000F9ECFAEDFB853182853283120A057404F7
:1047F000120B16E0700302465690157F78211209BD
:10480000BF853182853283782112099D02467A8ED6
:10481000828F83A3A374140249BA7404120B16E4A2
:10482000F09004F5F0EE2409F525E43FF526852502
:1048300082F583E0F52175220074027821120AB70F
:104840008E828F83A3A3A3A3A3A3A3A3A3A3E0F513
:104850002375240074027823120AB774412523F8C3
:1048600074043524F9E82521F582E93522F583120F
:1048700009F9853182853283120A058525828526CC
:1048800083E0FA8E828F83A3A3A3A3A3A3A3A3A3EE
:10489000A3E0F91268B28A218B22EB3395E0F5236D
:1048A000F52485318285328378211208F6852582A8
:1048B000852683E0600E853182853283E4F0A3F0A3
:1048C000A3F0A3F08E828F83A3A3A3A3A3A3A3A388
:1048D000A3A3E0F8703F90157B78211209BF8531C2
:1048E0008285328378211206A340359004F57455F1
:1048F000F085318285328378211209B0782112083F
:104900006085318285328378211209D27404120BBA
:10491000167401800A74026870069004F57455F0EC
:1049200085318285328378251209B09011DF782194
:104930001209BF78257921120822853182853283B8
:1049400078251209D28531828532831209E1122A33
:104950007A8531828532831209ED7404120B16E0D8
:10496000601590157F78211209BF853182853283C9
:10497000782112099D80248E828F83A3A3A3A3A3F1
:10498000A3A3A3A3A3E070139011EB78211209BF96
:1049900085318285328378211209607904AC31AD8A
:1049A00032EE2410F582E43FF583E0FAA3E0FB1237
:1049B0002DE78E828F83A3A37404F079007408120C
:1049C0000AE07F08020BA079002274F1120B3A74FE
:1049D000F0120ACA7406120B16ECF0A3EDF08A2549
:1049E0008B268A828B83A3AA82AB83E0FC74061297
:1049F0000B16E02404F8A3E03400F97404120B163B
:104A0000E8F0A3E9F07404120B16E0F8A3E0F583D4
:104A10008882E493A2E5500574146C603874041223
:104A20000B16E0F8A3E0F5838882E493A2E4500536
:104A300074116C602074126C7003024DFA740412CD
:104A40000B16E0F8A3E0F5838882E493A2E3501507
:104A500074146C7010852582852683A3A3A3A3A359
:104A60007404024E07853182853283E4F0A3F0A3FB
:104A7000F0A3F08A828B83E064116003024C5C85B2
:104A80002582852683A3A3A3A3A3A3A3A37821128E
:104A900009B090158378211206157017E5252410AA
:104AA000F582E43526F583E0F8A3E0F58388827487
:104AB0000880299015877821120615600A90158BB9
:104AC00078211206157019E5252410F582E43526A3
:104AD000F583E0F8A3E0F58388827455F0024EADCB
:104AE000E5252410FEE43526FF9011F77821120603
:104AF00015700879067C8C7D1680229011FB782138
:104B0000120615700879067C927D1680109011FFB0
:104B10007821120615702979067C987D16740A1280
:104B20000B28122DB6740A120B208E828F83E8F0A8
:104B3000A3E9F0852582852683A3A37406024EB7D8
:104B40007406120B16E02405F527A3E03400F528BF
:104B5000852782F583E493F98E828F83E0FCA3E0BE
:104B6000FD7406120B16E0F8A3E0C82409F582E4F0
:104B700038F583E493FA740193FB12564C740412D3
:104B80000B16E0F8A3E0F5838882E493A2E64003E5
:104B9000024C49852782852883E493F87401687064
:104BA000268E828F83E0F8A3E0F5838882E0F912F5
:104BB0002CA3E9C0E08E828F83E0F8A3E0F5838820
:104BC00082D0E0F0024C4974026870348E828F8388
:104BD000E0FAA3E0FB122890853182853283EAF067
:104BE000A3EBF0853182853283E0FAA3E0FB122942
:104BF000B3853182853283EAF0A3EBF07902803904
:104C000074046870448E828F83E0FAA3E0FB12295B
:104C100054EAF8EBF9ECFAEDFB8531828532831228
:104C20000A058531828532831209E1122A7A85319B
:104C3000828532831209ED7904AC31AD328E828FD8
:104C400083E0FAA3E0FB122DE7852782852883E421
:104C500093852582852683A3A3024EB77406120B83
:104C600016E0240BF8A3E03400F97408120B16E8E0
:104C7000F0A3E9F07406120B16E02405F527A3E073
:104C80003400F528E5252410FEE43526FFE525242B
:104C900005F521E43526F522852782852883E493CE
:104CA000FC7408120B16E0F8A3E0F5838882E49305
:104CB000F8740193F9E875F003A4F8AAF075F0030D
:104CC000E9A42AF9746D28F582741439F583E49304
:104CD000F98E828F83E0FAA3E0FB125962E9852105
:104CE00082852283F0A3E4F0852182852283E0F887
:104CF000A3E0F9E8496003024EAD7404120B16E01C
:104D0000F8A3E0F5838882E493A2E64003024DBD58
:104D1000852782852883E493F874016870258E8244
:104D20008F83E0F8A3E0F5838882E0F9122C86E90E
:104D3000C0E08E828F83E0F8A3E0F5838882D0E024
:104D4000F0807A74026870348E828F83E0FAA3E078
:104D5000FB122890853182853283EAF0A3EBF0853F
:104D60003182853283E0FAA3E0FB122C4485318244
:104D7000853283EAF0A3EBF0790280317404687025
:104D80003C8E828F83E0FAA3E0FB122954853182A6
:104D90008532831209ED8531828532831209E11251
:104DA0002BA48531828532831209ED7904AC31ADB3
:104DB000328E828F83E0FAA3E0FB122DE78E828F82
:104DC00083E0FCA3E0FD90158378211209BF8525BF
:104DD00082852683A3A3A3A3A3A3A3A3782112065A
:104DE0000070348C828D83E06408700E8525828586
:104DF0002683A3A3E4F0F9024EBA85258285268393
:104E0000A3A3A3A3A37401F0A3E4F08525828526C0
:104E100083A3A304024EB7852782852883E493F9F0
:104E20007406120B16E0F8A3E0C82409F582E438F2
:104E3000F583E493FA740193FB1253F87408120B90
:104E400016E0F8A3E0F5838882E493C0E074019350
:104E5000F583D082A882A983740F684970079003F4
:104E6000757428803C7404120B16E0FAA3E0F583F5
:104E70008A82E493A2E7502AE875F003A4F8AAF026
:104E800075F003E9A42AF9746E28F582741439F5D3
:104E900083E493F8740193F9900583E048F0A3E06C
:104EA00049F0852582852683A3A3E4800A8525828F
:104EB000852683A3A37401F079007410120AE07FA1
:104EC00008020BA074F5120B3A74FC120ACA8C2368
:104ED0008D248A828B83A3E0F8EA2402F521E43B47
:104EE000F522741468700D8A828B83A3A3A3A3A3F5
:104EF0007404801074126870198A828B83A3A3A330
:104F0000A3A37401F0A3E4F0852182852283040227
:104F10004FA4853182853283E4F0A3F0A3F0A3F09F
:104F2000EA2410FEE43BFF79028E828F83E0FCA32B
:104F3000E0FD852382852483A3A3A3A3A3A3A3A326
:104F4000A3E493FA740193FB12564C8E828F83E094
:104F5000FAA3E0FB122890853182853283EAF0A320
:104F6000EBF08531828532831209E1122A7AEAF860
:104F7000EBF9ECFAEDFB853182853283120A057973
:104F800003AC31AD328E828F83E0FAA3E0FB122DA9
:104F9000E7852382852483A3A3A3A3A3E493852188
:104FA00082852283F079007404120AE07F04020BE8
:104FB000A079002279002274F5120B3A74FE120ACD
:104FC000CA8A218B22EA2410F582E43522F583E097
:104FD000F523A3E0F524852382F583A3A3A3E0F8BA
:104FE000852382852483A3E0F9852382852483E0B9
:104FF000FA8521828B83A3E064117044EA853182B3
:10500000853283F0E9C0E07401120B16D0E0F0E8BD
:10501000FEC3945150447823120BE4EEF97402124B
:105020000B16E0F523A3E0AA23FBE4FCFD122F8876
:105030007402120AE0EE852182852283A3A38050A8
:10504000EA853182853283F0E9C0E07401120B16E3
:10505000D0E0F0E8FEC39451400479FF8035E523A9
:105060002404F523500205247823120BE4EEF9748E
:1050700002120B16E0F523A3E0AA23FBE4FCFD12C9
:105080002E797402120AE0852182852283A3A3E48B
:10509000F079007402120AE07F04020BA074F1128E
:1050A0000B3A74F4120ACA740A120B16ECF0A3ED50
:1050B000F08A258B268A828B83A3E0F874146870AB
:1050C0000D8A828B83A3A3A3A3A3740480107412FC
:1050D0006870198A828B83A3A3A3A3A37401F0A38E
:1050E000E4F08A828B83A3A30402532E7A00E52581
:1050F0002407F527E43526F528852782F583E0A2E5
:10510000E650010A740A120B16E0240BF8A3E034EF
:1051100000F97404120B16E8F0A3E9F07404120B02
:1051200016E0F8A3E0F5838882E493C0E07401936D
:10513000F583D082A882A983EA75F006A4FCADF0BD
:10514000E8FAE9FBEA75F006A4FAAEF075F006EBB2
:10515000A42EFB74CD2AFA74143BFBEA2CFAEB3D27
:10516000FB853182853283EAF0A3EBF085318285BD
:105170003283E0FAA3E0F5838A82A3A3A3A3E49396
:10518000640160030252B0853182853283E0F8A366
:10519000E0F583888278211209BFAA21AB2212741C
:1051A00035EAF8EBF9ECFAEDFB7406120B16120A6D
:1051B0000590158F78211209BF853182853283E0F1
:1051C000F8A3E0F58388827821120615701E9004FA
:1051D000ADE070047AD68007E06455700F7AD77B13
:1051E000101274357406120B161209EDE525241001
:1051F000FEE43526FF740A120B16E02405F521A300
:10520000E03400F522852182F583E493F9740612D7
:105210000B308E828F83E0FAA3E0FB122DE7852707
:1052200082852883E0A2E64003025311852182850E
:105230002283E493F98E828F83E029FAA3E034007D
:10524000FB853182853283E02405F523A3E0340019
:10525000F5247404120B16E0F8A3E0F5838882E4C9
:1052600093FC740193FD74056C7001ED601085234F
:1052700082852483E493C399FC79FF02530E74065C
:10528000120B30122DE7852182852283E493FAC325
:1052900033F8852382852483E493C398FC79FFEA5D
:1052A0002AE433FB8E828F83E028FAA3E03B805D03
:1052B00074086849705B1279F47402120B16EAF0F4
:1052C000A3EBF0E5252410FEE43526FF7902E91270
:1052D0000B308E828F83E0FAA3E0FB122DE7852747
:1052E00082852883E0A2E650287902E9120B308EED
:1052F000828F83E029FAA3E03400FB122DE77C04BF
:1053000079FF8E828F83E02CFAA3E03400FB122E0B
:1053100017853182853283E0F8A3E0F5838882A384
:10532000A3A3A3A3E493852582852683A3A3F07971
:1053300000740C120AE07F08020BA074F7120B3AFB
:105340008A828B83A3E0F8EA2402F521E43BF5226C
:10535000EA2405FEE43BFF74146870088E828F8394
:1053600074048046741268603B8A828B83A3A3A373
:10537000A3A3A3A3A3A3E0640A7029790C7CC07D36
:1053800011EA2410F582E43BF583E0FAA3E0FB1276
:105390002DB68E828F83E4F0A3F08521828522834F
:1053A000740C80118E828F837401F0A3E4F0852148
:1053B0008285228304F079007F02020BA0C021C005
:1053C00022C3EA94C0EB9400400479FF800D8A2147
:1053D0008B2274067821120AA8A921D022D021227A
:1053E00074F8120B3A90037C74FFF0A3F0A3F0A3BF
:1053F000740FF07F01020BA074F1120B3A74371294
:105400000ACA7405120B16EAF0A3EBF07407120B2C
:1054100016ECF0A3EDF0E9C0E07402120B16D0E038
:10542000F07469120B207403120B16E8F0A3E9F074
:105430007405120B16E0FAA3E0FB1253BDE9F874F1
:1054400002120B16E07003025642E8C394034003B5
:1054500002561BE875F003A4F8A9F0749328F874B9
:105460001539F988828983E493853182853283F006
:1054700088828983A3E493C0E0740193F583D0828A
:10548000AE82AF837469120B2088218922782112A1
:105490000BE47402120B16E0F98E218F22AA21ABC5
:1054A00022E4FCFD122F887402120AE0853182E0AA
:1054B00024FEC0E07401120B16D0E0F0E0F974692C
:1054C000120B28122D438A278B28EE24C0F521E4E5
:1054D0003FF522E4F523F524853182853283E0F817
:1054E0007469120B16E58228F8E43583F9E824FE86
:1054F000FAE934FFFB122890EA65277003EB652870
:1055000060717409120B20882589267825120BE416
:105510007402120B16E0F9AA21AB22AC23AD2412BF
:105520002F887402120AE07401120B16E0F9740954
:10553000120B28122D438A278B28853182853283CE
:10554000E0F87409120B16E58228F8E43583F9E8CF
:1055500024FEFAE934FFFB122890EA65277003EB7A
:105560006528700F7409120B207403120B16E8F0F3
:10557000A3E9F07402120B16E0F97407120B16E09F
:10558000FCA3E0FD7405120B16E0C39EFAA3E09F96
:10559000FB7403120B16E02AFAA3E03BFB122DE783
:1055A000853182853283E0F87403120B16E028F807
:1055B000A3E03400F9E824FEFCE934FFFDECC0E090
:1055C000EDC0E07401120B16E0F97403120B16E043
:1055D000FAA3E0FB122D43D0E0FDD0E0FC12287EC0
:1055E0007403120B16120BF97402120B16E0F98EEB
:1055F000258F26AA25AB26E4FCFD122E7974021213
:105600000AE07403120B16120BF97402120B16E067
:10561000F9AA21AB22AC23AD24801F7407120B160C
:10562000120BF97404120B16E0F97407120B16E052
:10563000F521A3E0AA21FBE4FCFD122E79740212ED
:105640000AE074C9120AE07F08020BA074F2120B80
:105650003A74FE120ACA853182853283ECF0A3EDDA
:10566000F0EAFEEBFF89271253BDE9F525C3940349
:10567000504490037C78211209B07526007402789A
:1056800025120AB774DF2525F58274183526F583AF
:105690007821120949E521452245234524701785C3
:1056A0003182853283120BF9A927EE24C0F521E45B
:1056B0003FAA21FB8013853182853283120BF9A921
:1056C000278E218F22AA21AB22E4FCFD122F8874A1
:1056D00002120AE07402120AE07F07020BA074F8BB
:1056E000120B3AE9FE79008011098A828B83A3AA02
:1056F00082AB83EC2402FC50010DE9C39E501D8A4D
:10570000828B83E0FF8C828D83E493F8EFC3984013
:1057100007A3E493C39F50D17901800279007F01F0
:10572000020BA0C082C083900583E054026009127E
:1057300065D1E054FD0257E2E054046005127E5149
:10574000802DE0542060061283A20257D7E0544017
:1057500060127A037B04125E70E96003127EB0E08F
:1057600054BF807EA3E05404600A7901126B6DE09F
:1057700054FB806EE0540860399004ADE0F91221CA
:105780005712260AE0F91224E379517A507B041269
:105790002D439004A1EAF0A3EBF079537C507D04F3
:1057A0007A007B001253F8127CD9900584E054F7FC
:1057B0008030E0541060109004ADE0F91226ED90B6
:1057C0000584E054EF801BE0542060109004ADE0AD
:1057D000F9122293900584E054DF8006900583E45B
:1057E000F0A3F0D083D0822274F1120B3A8A278B77
:1057F00028E9FE752100122D8BE960030258F87F1D
:105800000080010FEFC39E5063EF75F003A4F8A969
:10581000F0E52728F525E52839F526852582F58345
:10582000A3A3E0F9C3941340030258F8E9700302FC
:1058300058F8122C86852582852683A3E0F8749B70
:1058400029F582E43415F583E493C3985003025894
:10585000F8E870030258F8852582852683E0F8C3AE
:1058600094095003E8709C79200258FA7F008078F0
:10587000EF75F003A4F8A9F0E52728FAE52839FB2D
:105880008A828B83A3A3E0F523E52275F003A4F8B5
:10589000A9F0E52728FCE52839FD8C828D83A3A398
:1058A000E0F8C395234051E8652370278A828B83F3
:1058B000A3E0F88C828D83A3E0F9C398403AE968AD
:1058C00070118A828B83E0F88C828D83E068702867
:1058D000752101E52160087903122CC4E9701905CE
:1058E00022E522C39E40890FEFC39E500774012F0B
:1058F000F52280ED7900800279017F08020BA07407
:10590000F8120B3AEAFEEBFF8921122D8BE9704B5E
:105910007B0080010B75F003E52184F8EB9850378C
:10592000EB75F003A4F8A9F0EE28F8EF39F98882B6
:105930008983A3A3E0C39424502188828983A3E0B0
:10594000C39460501688828983E0F8C3940550039D
:10595000E870C1794080067900800279017F0102F8
:105960000BA074F1120B3A74F8120ACAEAFEEBFFAC
:105970008C21E97003025A33120C260120335AC1DC
:10598000593F5A755A895A995AB75AD15AE95A07FA
:105990005BB75A1A5B225B3E5B805B755A8B5BC2BE
:1059A0005BCE5B2B5D3E5D4A5B5E5D635DAA5DB475
:1059B0005DBE5D5A5A1A5B335AE35DFC5D335A593A
:1059C0005E7905EEFCEFFD7403120B16AA82AB8321
:1059D000122DE77402120B16E4F07902E9120B287B
:1059E00012B318E9604D75220080020522E522C33A
:1059F0009405500F852223EE2523F582E43FF5839D
:105A0000E060E8E522C39405502975220080020574
:105A100022E522C394055011852223EE2523F58229
:105A2000E43FF583E0649960E6E522C39405500302
:105A3000025E6579007408120AE07F08020BA0A9D3
:105A400021122D8BE96003025E658E828F83E060F8
:105A500005C3941540DD791080DBA921122D8BE957
:105A60006003025E658E828F83E06005C3941540FB
:105A7000C2792080C08E828F83E07003025E65C38E
:105A800094094003025E6580AA8E828F83E06005E0
:105A9000C39405409E7940809CA921122D8BE9601A
:105AA00003025E65EEFAEFFB122890122C44C3EA63
:105AB000943DEB940080CBA921122D8BE960030269
:105AC0005E658E828F83E07003025E65C3949A8068
:105AD000B1A921122D8BE96003025E658E828F834E
:105AE000E024FBC3941C025DF58E828F83E0F87086
:105AF00003025A337401687003025A3374026860F7
:105B000003025E65025A338E828F83E0F86008C319
:105B100094055003025A33E880E5A921122D8BE940
:105B200080DD8E828F83E0F8C3940B4003025E65B4
:105B30007403687003025E65740768025E2E8E82CD
:105B40008F83E064047034025A33752202800205A8
:105B500022E522C3940650198E828F83E0F88522B5
:105B60002374D72523F582E43418F583E493687011
:105B7000DEE522C394065003025A337908025A35EF
:105B80008E828F83E0C39480025A827902122D8B19
:105B9000E96003025E658E828F83E0F8C39424502F
:105BA0000EA3E0F9C394295006E96003025A337446
:105BB00099686003025E658E828F83A3E064990218
:105BC0005AFF75F003EC84F91257E8025A35A921FF
:105BD0001258FFE97527006003025A3575220080CC
:105BE00058C3E89525E995265003025E65E8C395FC
:105BF00025FAE99526FBC3EA940FEB94005038E8A8
:105C000065257003E965266003025E65853182853E
:105C10003283E0F8A3E0F5838882E0F8853182855D
:105C20003283E0F9A3E0F5838982A3A3A3E068604F
:105C300003025E657527010522852282A88275F020
:105C400003E5218424FFFAE434FFFBC3E89AE49BD4
:105C5000A2D265D0334003025CE2E875F003A4F8F9
:105C6000A9F0EE28F8EF39F9853182853283E8F022
:105C7000A3E9F0853182853283E02401FAA3E03480
:105C800000FB122E368A258B26853182853283E0F1
:105C90002404FAA3E03400FB122E368A238B24A8B6
:105CA00023A924E5277003025BE1E865257003E979
:105CB00065266003025E65853182853283E0F8A344
:105CC000E0F5838882E0F8853182853283E0F9A3AC
:105CD000E0F5838982A3A3A3E0687003025C370226
:105CE0005E658E828F83A3AA82AB83122E36EA244E
:105CF0009FF523EB3405F524852125EE2525F8E4D1
:105D00003FF9E824FEFAE934FFFB122E368A258B90
:105D100026E523C39525F8E5249526F9C3E8940ED6
:105D2000E994004003025A33025E658E828F83E05D
:105D3000F87430687003025A337460025AFE7902B4
:105D4000122D8BE96003025E658E828F83E0C3941F
:105D50005A4003025E65A3E0C39424025A8279018B
:105D6000025B1C75220080020522E522C3940450C8
:105D70000F852223EE2523F582E43FF583E060E8DA
:105D8000E522C394044003025A3379008E828F8344
:105D9000A3AA82AB8312B318E96003025E658E8208
:105DA0008F83E0F8C39409025E2B8E828F83E054C8
:105DB0007C025AFF8E828F83E054FC025AFF7905E1
:105DC000EEFCEFFD7403120B16AA82AB83122DE7D3
:105DD0007402120B16E4F07902E9120B2812B318C0
:105DE000025B1FA921122D8BE9707A8E828F83E0CE
:105DF00024FBC3942C5003025A338069740165213B
:105E0000700A8E828F83E054F0025AFF740265217B
:105E100070237902122D8BE9704B8E828F83A3E061
:105E200070438E828F83E0F8C394615038E860033A
:105E3000025A33803074046521702A7904EEFCEF35
:105E4000FD7403120B16AA82AB83122DE7740212A3
:105E50000B16E4F07407025DD28E828F83E054FB50
:105E60007003025A337901025A35127E19026128F1
:105E700074F7120B3A74FE120ACAEAFEEBFF8E8226
:105E80008F83A3A3A3A3A3A3A3A3E0853182853219
:105E900083F08E828F83A3A3A3A3A3A3A3A3A3E0D2
:105EA000C0E07401120B16D0E0F085318285328398
:105EB0007908122D438A218B22E065217004A3E02A
:105EC0006522701B7800800DEE28F582E43FF58393
:105ED000E068700B08E8C3940840ED79018002790E
:105EE000007402120AE07F02020BA074F7120B3A50
:105EF0007800800CEA28F582E43BF5837437F008DB
:105F0000E8C3940A40EE7F02020BA074F7120B3A2A
:105F100074FE120ACAEAFEEBFF7800800FE8C0E0C8
:105F2000EE28F582E43FF583D0E0F008E8C394085A
