:020000040000FA
:0600000002006602AA8165
:03000B0002AA89BD
:0300130002AA91AD
:03001B0002AA999D
:03002B0002AAB670
:03003B0002AB0C09
:0300430002AB20ED
:03004B0002ABD431
:0300530002AC9468
:03005B0002ACA351
:1000630002ACB275D00075819F7531017532020201
:10007300BD3CE479337810B800028004F709D8FC5A
:10008300E4900201789079048002F0A3D8FCD9FAB5
:1001000000002110422063308440A550C660E77093
:10011000088129914AA16BB18CC1ADD1CEE1EFF13B
:100120003112100273325222B5529442F772D662E3
:10013000399318837BB35AA3BDD39CC3FFF3DEE38B
:100140006224433420040114E664C774A444855433
:100150006AA54BB528850995EEE5CFF5ACC58DD5DB
:100160005336722611163006D776F6669556B44683
:100170005BB77AA719973887DFF7FEE79DD7BCC72B
:10018000C448E5588668A7784008611802282338D3
:10019000CCC9EDD98EE9AFF9488969990AA92BB97B
:1001A000F55AD44AB77A966A711A500A333A122A23
:1001B000FDDBDCCBBFFB9EEB799B588B3BBB1AABCB
:1001C000A66C877CE44CC55C222C033C600C411C73
:1001D000AEED8FFDECCDCDDD2AAD0BBD688D499D1B
:1001E000977EB66ED55EF44E133E322E511E700EC3
:1001F0009FFFBEEFDDDFFCCF1BBF3AAF599F788F6B
:100200008891A981CAB1EBA10CD12DC14EF16FE14A
:100210008010A100C230E320045025404670676082
:10022000B9839893FBA3DAB33DC31CD37FE35EF39A
:10023000B1029012F322D2323542145277625672D2
:10024000EAB5CBA5A89589856EF54FE52CD50DC5EA
:10025000E234C324A0148104667447642454054422
:10026000DBA7FAB79987B8975FE77EF71DC73CD73A
:10027000D326F2369106B016576676761546345672
:100280004CD96DC90EF92FE9C899E9898AB9ABA98A
:100290004458654806782768C018E1088238A328C2
:1002A0007DCB5CDB3FEB1EFBF98BD89BBBAB9ABBDA
:1002B000754A545A376A167AF10AD01AB32A923A12
:1002C0002EFD0FED6CDD4DCDAABD8BADE89DC98D2A
:1002D000267C076C645C454CA23C832CE01CC10C62
:1002E0001FEF3EFF5DCF7CDF9BAFBABFD98FF89F7A
:1002F000176E367E554E745E932EB23ED10EF01EB2
:1003000000010203040506070809AAAAAAAAAAAAC4
:100310000A0B0C0D0E0F10111213AAAAAAAAAAAA50
:100320001415161718191A1B1C1DAAAAAAAAAAAADC
:100330001E1F2021222324252627AAAAAAAAAAAA68
:1003400028292A2B2C2D2E2F3031AAAAAAAAAAAAF4
:1003500032333435363738393A3BAAAAAAAAAAAA80
:100360003C3D3E3F404142434445AAAAAAAAAAAA0C
:10037000464748494A4B4C4D4E4FAAAAAAAAAAAA98
:1003800050515253545556575859AAAAAAAAAAAA24
:0A0390005A5B5C5D5E5F60616263B2
:10039C0000010203040506070809101112131415B5
:1003AC001617181920212223242526272829303115
:1003BC003233343536373839404142434445464769
:1003CC0048495051525354555657585960616263BD
:1003DC00646566676869707172737475767778791D
:1003EC008081828384858687888990919293949565
:1003FC0096979899FFFFFFFFFFFFFFFFFFFFFFFF9F
:10040C00FFFFFFFFFFFFFFFFFFFFFFFFFFFFFFFFF0
:10041C00FFFFFFFFFFFFFFFFFFFFFFFFFFFFFFFFE0
:10042C00FFFFFFFFFFFFFFFFFFFFFFFFFFFFFFFFD0
:10043C00FFFFFFFFFFFFFFFFFFFFFFFFFFFFFFFFC0
:10044C00FFFFFFFFFFFFFFFFFFFFFFFFFFFFFFFFB0
:10045C00FFFFFFFFFFFFFFFFFFFFFFFFFFFFFFFFA0
:10046C00FFFFFFFFFFFFFFFFFFFFFFFFFFFFFFFF90
:10047C00FFFFFFFFFFFFFFFFFFFFFFFFFFFFFFFF80
:10048C00FFFFFFFFFFFFFFFFFFFFFFFFFFFFFFFF70
:10049C00FFFFFFFFFFFFFFFFFFFFFFFFFFFFFFFF60
:1004AC00FFFFFFFFFFFFFFFFFFFFFFFFFFFFFFFF50
:1004BC00FFFFFFFFFFFFFFFFFFFFFFFFFFFFFFFF40
:1004CC00FFFFFFFFFFFFFFFFFFFFFFFFFFFFFFFF30
:1004DC00FFFFFFFFFFFFFFFFFFFFFFFFFFFFFFFF20
:1004EC00FFFFFFFFFFFFFFFFFFFFFFFFFFFFFFFF10
:1004FC00FFFFFFFFFFFFFFFFFFFFFFFFFFFFFFFF00
:10050C00FFFFFFFFFFFFFFFFFFFFFFFFFFFFFFFFEF
:10051C00FFFFFFFFFFFFFFFFFFFFFFFFFFFFFFFFDF
:10052C00FFFFFFFFFFFFFFFFFFFFFFFFFFFFFFFFCF
:10053C00FFFFFFFFFFFFFFFFFFFFFFFFFFFFFFFFBF
:10054C00FFFFFFFFFFFFFFFFFFFFFFFFFFFFFFFFAF
:10055C00FFFFFFFFFFFFFFFFFFFFFFFFFFFFFFFF9F
:10056C00FFFFFFFFFFFFFFFFFFFFFFFFFFFFFFFF8F
:10057C00FFFFFFFFFFFFFFFFFFFFFFFFFFFFFFFF7F
:10058C00FFFFFFFFFFFFFFFFFFFFFFFFFFFFFFFF6F
:10059C00FFFFFFFFFFFFFFFFFFFFFFFFFFFFFFFF5F
:1005AC00FFFFFFFFFFFFFFFFFFFFFFFFFFFFFFFF4F
:1005BC00FFFFFFFFFFFFFFFFFFFFFFFFFFFFFFFF3F
:1005CC00FFFFFFFFFFFFFFFFFFFFFFFFFFFFFFFF2F
:1005DC00FFFFFFFFFFFFFFFFFFFFFFFFFFFFFFFF1F
:1005EC00FFFFFFFFFFFFFFFFFFFFFFFFFFFFFFFF0F
:1005FC00FFFFFFFFE066701008A3E066700A08A317
:10060C00E066700408A3E06622E493667013087435
:10061C00019366700C08740293667005087403935A
:10062C006622C3E09608A3E09608A3E09608A3E030
:10063C0096A2D265D03322C021C3E096F52108A33F
:10064C00E096422108A3E096422108A3E0964221BD
:10065C00A2D265D033E5217001D3D02122C021C3B1
:10066C00E49396F521087401939642210874029341
:10067C0096422108740393964221A2D265D033E5A9
:10068C00217001D3D02122C3E7960809E796080907
:10069C00E7960809E79622C3E09608A3E09608A31C
:1006AC00E09608A3E09622C021C3E096F52108A3AA
:1006BC00E096422108A3E096422108A3E09645214A
:1006CC007001D3D02122C3E4939608740193960849
:1006DC0074029396087403939622C021C3E49396F4
:1006EC00F5210874019396422108740293964221D5
:1006FC00087403939645217001D3D0212208080871
:10070C00EAC0E0EBC0E086F0E7A4FA180986F0E74F
:10071C00A42AFA180986F0E7A42AFA180986F0E741
:10072C00A42AFA1986F0E7A4FBE5F02AFA19088640
:10073C00F0E7A42BFBE5F03AFA190886F0E7A42BB6
:10074C00FBE5F03AFA18180986F0E7A4C5F02BFB84
:10075C00E43AFA1908E7C5F0C6A426F6E5F03BFB27
:10076C00E43AFA1886F0E7A4F6E5F00826F6E43B3E
:10077C0008F6E43A08F6D0E0FBD0E0FA22E4CFC069
:10078C00E0E4CEC0E0E4CDC0E0E4CCC0E075F02005
:10079C00E626F608E633F608E633F608E633F618EE
:1007AC001818EC33FCED33FDEE33FEEF33FFC3ECE6
:1007BC009709ED9709EE9709EF97191919400FFF53
:1007CC00EC97FC09ED97FD09EE97FE191906D5F08B
:1007DC00BFECF709EDF709EEF709EFF7191919D086
:1007EC00E0FCD0E0FDD0E0FED0E0FF221208601863
:1007FC00181812078912084F1919192212084F19C3
:10080C001919080808E618181820E7E012078912C9
:10081C00086018181822090909E719191920E7DCCA
:10082C00080808E618181820E70302078912086060
:10083C0018181812078912086018181812084F197E
:10084C00191922E4C397F709E497F709E497F70914
:10085C00E497F722E4C396F608E496F608E496F6D5
:10086C0008E496F622C6F4C608C6F4C608C6F4C652
:10087C0008C6F4C6226016080808C6C313C618C6F4
:10088C0013C618C613C618C613C6D5E0EA227009DB
:10089C00080808226016181818C6C333C608C633D1
:1008AC00C608C633C608C633C6D5E0EA22E627F624
:1008BC000809E637F60809E637F60809E637F6229E
:1008CC00E026F608A3E036F608A3E036F608A3E027
:1008DC0036F622E49326F60874019336F608740271
:1008EC009336F60874039336F622E026F008A3E05C
:1008FC0036F008A3E036F008A3E036F022C3E69702
:10090C00F60809E697F60809E697F60809E697F659
:10091C0022C3E0C696F608A3E0C696F608A3E0C686
:10092C0096F608A3E0C696F622C3E096F008A3E07C
:10093C0096F008A3E096F008A3E096F022E4935614
:10094C00F60874019356F60874029356F60874036D
:10095C009356F622E056F008A3E056F008A3E056B2
:10096C00F008A3E056F022E647F60809E647F60839
:10097C0009E647F60809E647F622E49346F60874BA
:10098C00019346F60874029346F60874039346F6F0
:10099C0022E046F008A3E046F008A3E046F008A3E6
:1009AC00E046F022E0F608A3E0F608A3E0F608A380
:1009BC00E0F622E493F608740193F608740293F6B9
:1009CC0008740393F622E6F008A3E6F008A3E6F019
:1009DC0008A3E6F022E0FAA3E0FBA3E0FCA3E0FD11
:1009EC0022EAF0A3EBF0A3ECF0A3EDF022E0F8A3E5
:1009FC00E0F9A3E0FAA3E0FB22E8F0A3E9F0A3EA14
:100A0C00F0A3EBF022CAC0E0E6F0A308DAFAD0E0DB
:100A1C00FA22CAC0E0E0A3C582CCC582C583CDC58D
:100A2C0083F0A3C582CCC582C583CDC583DAE6D05D
:100A3C00E0CA22B90010BB0008E88AF084F8AAF0DA
:100A4C0022E4FBC8FA22EB70227B10C833C8C933EE
:100A5C00C9335007C39AC3DBF280069A50012ADBD4
:100A6C00EAC833F4C8C933F4C9FA2275F008E4C8EB
:100A7C0033C8C933C933C99AC99B5004C92AC93B65
:100A8C00D5F0ECFBC833F4C8E4C9FA22600D08C6F3
:100A9C00A2E713C618C613C6D5E0F322600C08C62D
:100AAC00C313C618C613C6D5E0F422700422600D19
:100ABC0018C6C333C608C633C6D5E0F41822253190
:100ACC0010AF08F531400C15328008F53140021595
:100ADC0032D2AF2200C0D0253110AF08F531500C06
:100AEC0005328008F53150020532D2AFD0D0222524
:100AFC0031F58210AF08F531400C15328008F53114
:100B0C0040021532D2AF853283222531F582E4358D
:100B1C0032F583222531F8E43532F9222531FAE415
:100B2C003532FB222531FCE43532FD22E4732531CC
:100B3C00C582C0E0E53234FFC583C0E0E531C39522
:100B4C008224F910AF088583328582318008858331
:100B5C0032858231D2AFCEF0A3E520F0A37821E626
:100B6C0008F0A3DEFAEFF0A3E58124FBF8E608F029
:100B7C00A3E608F0A30808E608F0A3E608F0A3151E
:100B8C00811581D0E0FED0E0F815811581E8C0E038
:100B9C00EEC0E022853283853182E0A3FEE0A3F52E
:100BAC00207821E0A3F608DFFAE0A3FFE0A3C0E081
:100BBC00E0A3C0E0E0A3C0E0E0A3C0E010AF088574
:100BCC0082318583328008858231858332D2AFD0E1
:100BDC0083D082227404800474028000C0E0F40488
:100BEC00120AFBD0E0120A112274048004740280F1
:100BFC0000CCC0E0EDC0E0E531C39CCCAD3250017F
:100C0C001D10AF068C318D3280068C318D32D2AFF7
:100C1C00120A1ED0E0FDD0E0FC22D083D082C5F0B9
:100C2C00E493A3C5F0C395F0F5F0E493A3C395F05A
:100C3C004005E5F0048001E475F002A42582F582FC
:100C4C00E5F03583F583E493A3C0E0E493C0E022A0
:100C5C00D083D082ECC0E0EDC0E0E493A3FCE4933D
:100C6C00A3FDED4C600D120CA8EC24FFFCED34FF41
:100C7C00FD80EFE493A3FCE493A3FDED4C600D1217
:100C8C000CE7EC24FFFCED34FFFD80EFD0E0FDD051
:100C9C00E0FCE493A3C0E0E493C0E022C0E0C3E432
:100CAC009396087401939618400FE49366700808A5
:100CBC00740193661870007019A3A3C3E49396088B
:100CCC007401939618A3A3400DD0E0D0E0D0E002BD
:100CDC000C98A3A3A3A3A3A3D0E022C0E0C0F088E8
:100CEC00F0E4936670080874019366187000A8F01D
:100CFC00A3A3700BD0F0D0E0D0E0D0E0020C98A30E
:100D0C00A3D0F0D0E022D083D082ECC0E0EDC0E0E4
:100D1C00EEC0E0EFC0E0E493A3FCE493A3FDE49306
:100D2C00A3FEE493A3FFEF4E4D4C6015120D8EEC19
:100D3C0024FFFCED34FFFDEE34FFFEEF34FFFF80AB
:100D4C00E5E493A3FCE493A3FDE493A3FEE493A353
:100D5C00FFEF4E4D4C6015120DCBEC24FFFCED3427
:100D6C00FFFDEE34FFFEEF34FFFF80E5D0E0FFD057
:100D7C00E0FED0E0FDD0E0FCE493A3C0E0E493C03F
:100D8C00E022C0E0C0F088F01206D2A8F0400712B2
:100D9C000615A8F0701AA3A3A3A31206D2A8F0A359
:100DAC00A3A3A34013D0F0D0E0D0E0D0E0020D78A4
:100DBC00A3A3A3A3A3A3A3A3A3A3D0F0D0E022C077
:100DCC00E0C0F088F0120615A8F0A3A3A3A3700B43
:100DDC00D0F0D0E0D0E0D0E0020D78A3A3D0F0D0DA
:020DEC00E02203
:0D11C0004431343346393832315330330076
:1011CE00011107342FE9030000CC01000013145461
:1011DE00800A00000001B4C40400B4C404FFFFFF81
:1011EE007F600000002001000004040004050400DC
:1011FE000406040004090400040105000401008033
:10120E000402008004E8030000C30B0000D00700B6
:10121E0000D401000000008000FFFF7FFF010000EE
:10122E0000000A0000D1010000FFFF7F00CD010089
:10123E000000000000001F0AFA00E1F5056400003E
:10124E0000E482F282D522D5A2EBA2DD1B9E46A13E
:10125E0046A4466C4A6F4A694F991E5650565056D0
:10126E00505650565059505C50C91D42515650243C
:10127E0054565056505650565056500000000000CE
:10128E000400000300000000000001000004000044
:10129E000300000000000002000004000003000034
:1012AE000000000001010004000011000000000019
:1012BE0000010240020000100000000000010102C7
:1012CE004002000010000000000000020240030077
:1012DE000010000002000001020240030000100096
:1012EE000002000000030240030000100000050091
:1012FE00000103024003000010000005000000047E
:10130E0002400300001000000C0000010402400324
:10131E0000001000000C0000000602400200001049
:10132E000000080000010602400200001000000844
:10133E0000010080024003000010000004000800BD
:10134E008002400200001000000B0001010004802A
:10135E000400000DE0010000020100048003000003
:10136E000DE40100000104000400060000058000E9
:10137E001A0002040004000600000586000C00049A
:10138E000400040806000007000000000504000425
:10139E00080600000700000000060400040806000E
:1013AE000007000000000904000408030000070005
:1013BE0000000001050004080100060700000000FF
:1013CE00010C000410100009148C000000010080B4
:1013DE00040820000007000000000200800408201E
:1013EE00000007000000000100004F001B00000875
:1013FE00CC010000000A004F00080000120000009F
:10140E00000000014F004400000E00000000AAAAD8
:10141E00AAAA001500000000000000ABAAAAAA00AC
:10142E001000000F000000000089120301B012012D
:10143E0002BD120C0459130C4FF51303AA1C14020F
:10144E0006109000000000BCAAAAAAAAAABDAAABC8
:10145E00AAAAAA20C00105000430C0090400043263
:10146E00C00104000434C00204000407000000019F
:10147E0001000201000301001B010004010005012F
:10148E00000620000720000820000920000A200086
:10149E000B00000C04000D00001500000E01000FE3
:1014AE0001001000001300001400001600001700C9
:1014BE00001800001900001A00001C00001D040096
:1014CE001E00001F0001200002210400D8100000A1
:1014DE000102D81000000106D91000000103D91036
:1014EE0000000109DA1000000103D610000001030C
:1014FE00D6100000010CFD100000010200000000DB
:10150E0000020000000000080000000000020000C1
:10151E0000000002D7100000010300FFFFFF0000D3
:10152E000104000002040200002019C1000011276E
:10153E000000005500FE00AA00FE00FF552001002D
:10154E000020C000000003000020A30000200400C3
:10155E0000200500002006000020A6000020070045
:10156E000020A700002030000020FFFF00FFFFFF3B
:10157E000000030C0004050C0004010000800000B4
:10158E000080050700040206000403060004D610BE
:10159E0000005300005300004080003128313031EC
:1015AE0030313130313031C0010000E0010000EA4D
:1015BE0001000080320200E02E0C0110270A0140CB
:1015CE001F080188130501B80B0301D0070201E8BB
:1015DE00030A0A0019400A800C200A6009180A4002
:1015EE0006100AB0040C0A2003080AF401050A903A
:1015FE0001040AC800020A6400010A51000000D961
:10160E006204019C3C1D91BC749388C800000008C4
:10161E0000000013000000050000005F00000070D5
:10162E0000000010000000FA000000FC000000F8AE
:10163E0000000000020000A9ECFFFF630000009410
:10164E001100007D1500009009000070FBFFFF8166
:10165E0000000070F8FFFF010100000005000040CF
:10166E0006C05D8813AC73F802E3244F19001BB754
:10167E000067EBE305000000000000000000000022
:10168E00000000000000000000000000000000004C
:10169E00000000706562017065620185A3B365CCC0
:1016AE00CC4E1CCCCC4E1C00000000000000000CE8
:1016BE001111111111110405050204051A3C1E0029
:1016CE00000505143C050250000000000002000059
:1016DE0000000000000000000000000001010200F8
:1016EE0000010202000100800200111111111111FE
:1016FE000100000000001111111111110000000075
:10170E00000000000000005630333200000041306F
:10171E0031000000413036001600000000000000CD
:10172E000000000000000000322E5658532D3132BA
:10173E003839562D35353153444400000000000031
:10174E00000000000000000000000058532D313250
:10175E003839562D3535315344446D16000051F845
:10176E001680001B05060405030402030102000196
:10177E000F060B0F060D0D070F0F070C090E0901B3
:10178E00500060203030700070307070506070709B
:10179E000000000000000000030000000000000038
:1017AE00000000000F003D003C00173E1F273F2F9A
:1017BE000000020004001000200012001B00383947
:1017CE003A3B3736353400002F000F000200180068
:1017DE00E000000000000100000100010000020016
:1017EE0001010000000201000100020100020002DE
:1017FE0002000000030200010003020002000300C9
:10180E000101020F0001020210000003020000019C
:10181E000302000000060200000106020001008023
:10182E0002100800800200000D300309000E300384
:10183E000A010D30030B020D30030C010E30030DA7
:10184E00020E30030E010100040402010004050221
:10185E000400040600000000000010000031180013
:10186E0000000100000000012000000040200000E8
:10187E0000504000000000000000000000000000CA
:10188E0000000100000000020000002001000040E6
:10189E0020010000502002000040200200005000F5
:1018AE0000000043000000002400080000FFF7FFC6
:1018BE00FF000000F00000000ACD130000471700E3
:1018CE00003701000000400600FFFFFFFF0032005E
:1018DE0000A30B00001A00000012000000320000EE
:1018EE00001F000000E02B3F0010B33C0091572C6E
:1018FE00001600000011F33512423914F33513109F
:10190E0035155B351854441AD0451F5F1B01A2379D
:10191E000242390442390F423900030404800000A8
:10192E000065000000285C8F029999991990D003E8
:10193E00000C0000005A000000005900590023015D
:10194E0031011200990006001F1C1F1E1F1E1F1FB3
:10195E001E0000000000001F1E1F010101090714D8
:10196E000301020408102040800100000002000064
:10197E00000400000008000000100000002000001D
:10198E000040000000800000000001000000020086
:10199E0000000400000008000000100000002000FD
:1019AE000000400000008000000000010000000266
:1019BE0000000004000000080000001000000020DD
:1019CE000000004000000080000000000100000048
:1019DE0002000000040000000800000010000000DB
:1019EE0020000000400000008074F5120B3A74FED7
:1019FE00120ACAEAFEEBFF8E828F83A3E064117097
:101A0E0035900548E06455702D7A00790012696EA4
:101A1E008A218B229011D3C082C083900441EB3374
:101A2E0095E0F523F52478211208CCD083D0827866
:101A3E0021120669500E8E828F83A3A3A3A3A374D3
:101A4E0001021B47900202E064AA705E75CEA57576
:101A5E00CF5A75CEA575CF5A79517C6D7D167A8386
:101A6E007B03122E4E79517A837B03122DDB853147
:101A7E0082853283EAF0A3EBF0853182853283E0F2
:101A8E009003D4F07401120B16E09003D5F0795345
:101A9E007C837D037A007B001254E112656D8E8289
:101AAE008F83A3A3A3A3E4021B52E06003021B5384
:101ABE00EE2404F8E43FF988828983E4F0EE2410E2
:101ACE00FAE43FFB8A828B83E0FCA3E0F5838C82F1
:101ADE00A3E0FC74116C700890058AE0440880182D
:101AEE0074156C700890058AE04410800B74316C8C
:101AFE00703790058AE04420F08A828B83E02402BE
:101B0E00F521A3E03400F5227821120BE479109030
:101B1E0011D778211209BFAA21AB22AC23AD241212
:101B2E002F117402120AE0801C888289837401F0DE
:101B3E008E828F83A3A3A3A3A3F0A3E4F08E828F40
:101B4E0083A3A304F079007402120AE07F04020B4F
:101B5E00A074F1120B3AEAFEEBFFEE2408F527E42F
:101B6E003FF5287904EE2410F582E43FF583E0FC7E
:101B7E00A3E0FDAA27AB28122E7FEE2402F525E462
:101B8E003FF5269011DB78211209BF852782852823
:101B9E00837821120600601B8E828F83A3A3A3A3DA
:101BAE00A37401F0A3E4F085258285268304F079E1
:101BBE000080177A037B04125FF4900589E044409D
:101BCE00F0852582852683E4F0F97F08020BA07448
:101BDE00F1120B3A74F4120ACA740A120B16EAF0D6
:101BEE00A3EBF09004411209F97404120B16120AB9
:101BFE00057A00790012696E8A218B227404120B09
:101C0E0016EB3395E0F523F52478211208CC9011CC
:101C1E00DF78251209BF7821792512082274041263
:101C2E000B1678211209D29011E378211209BF7494
:101C3E0004120B16782112062E40237404120B1672
:101C4E0078211209B09011E778251209BF78217911
:101C5E00251208227404120B1678251209D2740468
:101C6E00120B161209E1122B127404120B16120922
:101C7E00ED9011EB78211209BF7404120B16782126
:101C8E00120960740A120B16E02410FEA3E0340051
:101C9E00FF7904E9120B308E828F83E0FAA3E0FB0A
:101CAE00122E7F7C0479008E828F83E02CFAA3E0C3
:101CBE003400FB122EAF7AD87B101274FDEAF8EBCB
:101CCE00F9ECFAEDFB853182853283120A05790231
:101CDE00AC31AD328E828F83E02408FAA3E034005B
:101CEE00FB122E7F9004ADE0702A7AD97B1012740D
:101CFE00FD8531828532831209ED7903AC31AD3227
:101D0E008E828F83E0240AFAA3E03400FB122E7F2A
:101D1E007AD6802DE06455704C7ADA7B101274FD01
:101D2E008531828532831209ED7903AC31AD328E65
:101D3E00828F83E0240AFAA3E03400FB122E7F7A0E
:101D4E00D77B101274FD8531828532831209ED79AD
:101D5E0003AC31AD328E828F83E0240DFAA3E034D2
:101D6E0000FB122E7F7C0379008E828F83E024107D
:101D7E00FAA3E03400FB122EAF127ABC7408120BD9
:101D8E0016EAF0A3EBF079027408120B308E828FF4
:101D9E0083E02413FAA3E03400FB122E7F740A12A0
:101DAE000B16E0F8A3E0F5838882A3A37415F079EF
:101DBE0000740C120AE07F08020BA074F1120B3AA9
:101DCE00EAFEEBFF790312677F7C0279007AA97B2A
:101DDE0004122EAF7C0279007A317B04122EAFEE04
:101DEE002410F582E43FF583E0240CFAA3E03400DE
:101DFE00FB1229EC122C3C8A258B268C278D2890E1
:101E0E0011DF78211209BF78257921120709900474
:101E1E004578251209D29004451209F99004411211
:101E2E000A05790C7A417B04122DDB90044DEAF001
:101E3E00A3EBF07521417522047821120BE4790E83
:101E4E009011EF78211209BFAA21AB22AC23AD2449
:101E5E00122F117402120AE07521417522047821A5
:101E6E00120BE4790E9011F378211209BFAA21AB5F
:101E7E0022AC23AD24122F117402120AE08E828F2F
:101E8E0083A3A3E4F0F97F08020BA074F3120B3ABC
:101E9E00EAFEEBFF8C258D268E828F83A3A3A3A350
:101EAE00A3A3A3A378211209B09011F778211206EB
:101EBE0015703C8C828D83A3A3A3A3A3E493F97C1A
:101ECE00137D17EE2410F582E43FF583E0FAA3E0CC
:101EDE00FB122E4E852582852683A3A3A3A3A3E4FE
:101EEE00938E828F83A3A3F079007F06020BA090BE
:101EFE0011FB782112061570128C828D83A3A3A379
:101F0E00A3A3E493F97C197D1780B89011FF782173
:101F1E0012061570128C828D83A3A3A3A3A3E49340
:101F2E00F97C1F7D17809C90120378211206157084
:101F3E00128C828D83A3A3A3A3A3E493F97C257DA6
:101F4E0017808090120778211206157040900201BA
:101F5E007442F09004ADE064557006900201740274
:101F6E00F0900380E0A2E35007900201E0D2E4F08B
:101F7E00900201E0C0E0EE2410F582E43FF583E02C
:101F8E00F8A3E0F5838882D0E0F0021EE290120BF7
:101F9E00782112061570138C828D83A3A3A3A3A39D
:101FAE00E493F97C287D17021ED190120F7821122E
:101FBE00061570138C828D83A3A3A3A3A3E493F9B8
:101FCE007C487D17021ED18E828F83A3A3A3A3A369
:101FDE007402F0A3E4F08E828F83A3A304021EF595
:101FEE0074F1120B3A8A218B228C238D24740F12DA
:101FFE000B16782112091D90121378251209BF783D
:10200E00217925120709740F120B1678251209B0C3
:10201E0078217925120822AE21AF22EE24E8FCEFBA
:10202E003403FD7413120B1678211209B08C25EDB2
:10203E00F5263395E0F527F5287821792512082223
:10204E0090121378251209BF78217925120709C03D
:10205E0021C022C023C0247413120B167825120936
:10206E00B08C21EDF5223395E0F523F52478257912
:10207E0021120822A821E875F0E8A4C8AAF075F08C
:10208E0003A42AFA75F0E8E522A42AF9ECFAEDFB8E
:10209E00120A3F88218922E4F523F524D028D0277F
:1020AE00D026D025782579211208B9C025C026C0A2
:1020BE0027C0287521007522007524808C25EDF52A
:1020CE00263395E0F527F528782179251207898E94
:1020DE0025EFF5263395E0F527F528782179251299
:1020EE000709D028D027D026D025782579211209A6
:1020FE0009C025C026C027C0287525007526007585
:10210E0027007528808C21EDF5223395E0F523F517
:10211E002478257921120789A821E875F0E8A4C84A
:10212E00AAF075F003A42AFA75F0E8E522A42AF9BC
:10213E00ECFAEDFB120A3F8821EE88F0A4CEA8F04F
:10214E0089F0A428F88521F0EFA428FFEEF8EFF926
:10215E007AE87B03120A3F88218922E4F523F524CD
:10216E00D028D027D026D02578257921120909AA82
:10217E0025AB26AC27AD287F08020BA074F1120BFD
:10218E003A8A218B228C238D24740F120B16782100
:10219E0012091D90121378251209BF782179251284
:1021AE000709740F120B1678251209B078217925BC
:1021BE00120822E5223395E0F523F52490121778C4
:1021CE00251209BF7821792512070990121B78254F
:1021DE001209BF78217925120822A9217F08020B46
:1021EE00A074F1120B3A74F3120ACAE98531828592
:1021FE003283F07409120B20882189227821120B68
:10220E00E4790490121F78211209BFAA21AB22ACE7
:10221E0023AD241230217402120AE08531828532F8
:10222E0083E070087AE87B107ED680067AE97B1010
:10223E007ED7126E177405120B161209ED74091261
:10224E000B281229EC8A218B228C238D247408787A
:10225E0021120881AA21AB22AC23FD122C3C740161
:10226E00120B161209EDEEFA7B101274FD8A258BF5
:10227E00268C278D288A218B228C238D2490122345
:10228E007821120949E5214522452345246008900D
:10229E0012277825120949AA25AB26AC27AD28129C
:1022AE002C3C853182853283E0702D7405120B161D
:1022BE00120BF57405120B16120BF5121FEE7408A5
:1022CE00120AE08A218B228C238D249004667821B9
:1022DE001209D27525E8802B7405120B16120BF518
:1022EE007405120B16120BF5121FEE7408120AE08B
:1022FE008A218B228C238D2490046A78211209D294
:10230E007525E97526107825120BE4126F63740299
:10231E00120AE0740D120AE07F08020BA074F1128B
:10232E000B3A74EC120ACAE9C0E07401120B16D013
:10233E00E0F07525007526007527007528007410CD
:10234E00120B20882189227821120BE47904901235
:10235E001F78211209BFAA21AB22AC23AD24123063
:10236E00217402120AE07410120B281229EC8A2131
:10237E008B228C238D2474047821120881AA21AB20
:10238E0022AC23AD24122C3C7408120B161209ED4C
:10239E007401120B16E070117406120B1674D1F044
:1023AE00A37410F0900484800F7406120B1674D26E
:1023BE00F0A37410F090048878211209B074087894
:1023CE0021120881740C120B1678211209D2853154
:1023DE0082853283E480647406120B16E0FAA3E061
:1023EE00FB126E177402120B161209ED79141228D5
:1023FE00EA75CEA575CF5A75CEA575CF5A7405124E
:10240E000B16E0C3948040217402120B1678211231
:10241E0009B0782112087190122B78211208DF74FE
:10242E0002120B1678211209D27402120B1678259D
:10243E001208CC853182853283E004F0E0C394101B
:10244E0040957404782512088190122F7821120974
:10245E00BF78257921120709740C120B16782112F8
:10246E0009B07825792112078985252185262285AF
:10247E0027238528247408120B1678211206B374AC
:10248E0002404F120B1678251209B0C025C026C087
:10249E0027C0287408120B1678251209B0782579F2
:1024AE0021120909D024D023D022D02178217925D8
:1024BE001207097408120B1678251209B0782179C3
:1024CE0025120789852125852226852327852428FF
:1024DE00802F120B1678251209B07408120B16787D
:1024EE002112091D782579211207097408120B167D
:1024FE0078211209B07825792112078978251208DA
:10250E00607401120B16E0701890047A7825120987
:10251E00D27521ED7522107821120BE490047A8089
:10252E001690047E78251209D27521EE7522107848
:10253E0021120BE490047E1209E1126F63740212F1
:10254E000AE079517A507B04122DDB9004A1EAF057
:10255E00A3EBF079537C507D047A007B001254E19A
:10256E00127DA17414120AE07F08020BA074F112FE
:10257E000B3A74F8120ACAE9853182853283F074F7
:10258E0001120B20882189227821120BE479039005
:10259E00123378211209BFAA21AB22AC23AD24122B
:1025AE0030217402120AE07401120B2812299912BA
:1025BE002C3C8A218B228C238D248531828532837B
:1025CE00E070087AEB7B107ED980067AEC7B107E69
:1025DE00DA126E177404120B161209EDEEFA7B1056
:1025EE001274FD8A258B268C278D2890123778251C
:1025FE00120949AA25AB26AC27AD28122C3C8531F1
:10260E0082853283E0703D7404120B16120BF5783E
:10261E0021120BE0121FEE7408120AE08A218B229F
:10262E008C238D2490047278211209D2900498780C
:10263E00211209D27521EB7522107821120BE4902C
:10264E000472803B7404120B16120BF57821120BD8
:10265E00E0121FEE7408120AE08A218B228C238D61
:10266E002490047678211209D290049C78211209C4
:10267E00D27521EC7522107821120BE4900476129B
:10268E0009E1126F637402120AE07408120AE07F05
:10269E0008020BA074F1120B3A74F1120ACAA83197
:1026AE00A932882189227821120BE4790390123BFA
:1026BE0078211209BFAA21AB22AC23AD24123021FE
:1026CE007402120AE0AA31AB32122999122C3C8AFA
:1026DE00218B228C238D249011DF78251209BF784F
:1026EE00217925120789740B120B1678211209D243
:1026FE007AEA7B10126E177407120B161209ED7A16
:10270E00D87B101274FD122C3C8A218B228C238DC7
:10271E00249011DF78251209BF7821792512070937
:10272E007403120B1678211209D27407120B1612AB
:10273E000BF5740F120B16120BF5740B120B1612FF
:10274E0009E1121FEE7408120AE08A218B228C23F3
:10275E008D2490046E78211209D27525EA75261003
:10276E007825120BE4126F637402120AE0740F12D2
:10277E000AE07F08020BA074F1120B3A74F7120AEA
:10278E00CAE9853182853283F0E0700A75217B7546
:10279E0022287ED6800875217C7522287ED7782146
:1027AE00120BE490123F78211209BFAA21AB22AC82
:1027BE0023AD24126F637402120AE07405120B200B
:1027CE00882189227821120BE4790490121F782136
:1027DE001209BFAA21AB22AC23AD24123021740200
:1027EE00120AE07405120B281229EC8A218B228C16
:1027FE00238D2474087821120881AA21AB22AC23E0
:10280E00FD122C3C7401120B161209EDEEFA7B1020
:10281E001274FD8A258B268C278D288A218B228C7B
:10282E00238D249012237821120949E52145224552
:10283E0023452460109012277825120949AA25AB4A
:10284E0026AC27AD28122C3C8A258B268C278D286A
:10285E00853182853283E070227401120B16120BC1
:10286E00F5AA25AB26AC27AD2812218A7404120ACC
:10287E00E0E9900482F075217B80207401120B1622
:10288E00120BF5AA25AB26AC27AD2812218A7404AB
:10289E00120AE0E9900483F075217C7522287821D4
:1028AE00120BE4E9FAE4FBFCFD126F637402120AE8
:1028BE00E079517A507B04122DDB9004A1EAF0A34B
:1028CE00EBF079537C507D047A007B001254E112B8
:1028DE007DA17409120AE07F08020BA0C082C0839A
:1028EE00E9FB74FF2B1904601A7A00800808E8C30C
:1028FE00941440F90A900525E0F8EAC39850E1785F
:10290E000080EBD083D08222C082C083EA8C828D7D
:10291E0083F0EBA3F0D083D08222C082C0838A8260
:10292E008B83A3E0F98A828B83E0FAE9FBD083D014
:10293E008222C082C08374FC120ACA85318285321B
:10294E0083EAF0A3EBF0A3ECF0A3EDF07404120B0A
:10295E0016E0F8A3E0F9853182853283E08882891A
:10296E0083F0A3A882A9837401120B16E0888289D2
:10297E0083F0A308A9837402120B16E08882898360
:10298E00F07404120AE0D083D08222C082C0837415
:10299E00FC120ACA8A828B83E0853182853283F0EB
:1029AE008A828B83A3AA82AB83E0C0E07401120BF0
:1029BE0016D0E0F08A828B83A3E0C0E07402120B83
:1029CE0016D0E0F07403120B16E4F08531828532D6
:1029DE00831209E17404120AE0D083D08222C082ED
:1029EE00C08374FC120ACA8A828B83E08531828589
:1029FE003283F08A828B83A3AA82AB83E0C0E07419
:102A0E0001120B16D0E0F08A828B83A30AAB83E00F
:102A1E00C0E07402120B16D0E0F08A828B83A3E022
:102A2E00C0E07403120B16D0E0F08531828532833C
:102A3E001209E17404120AE0D083D0822274F812D3
:102A4E000B3A7F00C3EA9410EB942740077AFF7B82
:102A5E00FF022B0DC3EA9440EB941F400A7F80EADD
:102A6E0024C0FAEB34E0FBC3EA94A0EB940F400CC5
:102A7E0074404FFFEA2460FAEB34F0FBC3EA94D0C3
:102A8E00EB9407400C74204FFFEA2430FAEB34F835
:102A9E00FBC3EA94E8EB9403400C74104FFFEA2456
:102AAE0018FAEB34FCFBC3EA9420EB9403400C744D
:102ABE00084FFFEA24E0FAEB34FCFBC3EA9490EBF8
:102ACE009401400C74044FFFEA2470FAEB34FEFBC1
:102ADE00C3EA94C8EB9400400C74024FFFEA24380A
:102AEE00FAEB34FFFBC3EA9464EB94004008E40471
:102AFE004FFFEA249CFAEAF9122D3BE9FAEFFB7F2D
:102B0E0001020BA074F1120B3A74F4120ACA853149
:102B1E0082853283EAF0A3EBF0A3ECF0A3EDF07420
:102B2E0008120B16E4F0A3F0A3F0A3F0801390129A
:102B3E004378211209BF85318285328378211208AC
:102B4E00F690124778211209BF853182853283783B
:102B5E00211206A350D87525007526B47527C475A5
:102B6E0028047404120B16E4F0A3F0A3F0A37480EF
:102B7E00F0790080087401782512088109E9C39460
:102B8E0010853182853283507478251206A3401F3A
:102B9E007404120B1678211209B07408120B1678F1
:102BAE002112099D8531828532837825120935746B
:102BBE0004120B1678211209B074017821120881C3
:102BCE007404120B1678211209D2E924FD600A242E
:102BDE00FC601424FC601B809C7525007526127504
:102BEE00277A752800809575250075263575270C72
:102BFE0080F075258075263875270180E5782112BD
:102C0E0009B0AA21AB22122A4B8A218B22E4F5238A
:102C1E00F5247408120B16782112099D7408120BF4
:102C2E00161209E1740C120AE07F08020BA074F16F
:102C3E00120B3A74FA120ACA7402120B16EAF0A3B5
:102C4E00EBF0A3ECF0A3EDF07525007526007527CB
:102C5E0000752800A882A983853182853283E8F029
:102C6E00A3E9F07E00804F853182853283E0F8A3A0
:102C7E00E0F5838882E0F9122D1EE9FA853182850E
:102C8E003283E024FFF8A3E034FFF98531828532E8
:102C9E0083E8F0A3E9F090124B78211209BF782552
:102CAE0079211207098A21E4F522F523F5247825E6
:102CBE0079211208B90EEEC3940440ABAA25AB26B7
:102CCE00AC27AD287406120AE07F08020BA074F838
:102CDE00120B3A74FE120ACA853182853283EAF0EB
:102CEE00A3EBF07401120B16E0F9122D1EE975F02C
:102CFE0064A4FEAFF0853182853283E0F9122D1E79
:102D0E00EE29FAE43FFB7402120AE07F01020BA0E7
:102D1E0074F7120B3AE9C3949A400479AA8009E930
:102D2E00F582758303E493F97F02020BA074F71208
:102D3E000B3AE9C39464400479FF800D749C29F525
:102D4E0082E43403F583E493F97F02020BA074F856
:102D5E00120B3AE9F8800EA3AA82AB838C828D8384
:102D6E00A3AC82AD83E8601E188C828D83E0F98A55
:102D7E00828B83E0FEE96E60DEE9C39E500479012A
:102D8E0080067902800279007F01020BA074F8128E
:102D9E000B3AE9F8800EA3AA82AB838C828D83A3B3
:102DAE00AC82AD83E8601F188C828D83E493F98A20
:102DBE00828B83E0FEE96E60DDE9C39E50047901EB
:102DCE0080067902800279007F01020BA074F7124F
:102DDE000B3AEAFCEBFDE9FE7A557B55802FEAF9BA
:102DEE00EBFA8C828D83E0F521EA652125E0FAE489
:102DFE0033FBE42AF58274013BF583E493FAA3E4F2
:102E0E009369FB8C828D83A3AC82AD831EEE70CE54
:102E1E007F02020BA074F8120B3A8A828B83E9FEB2
:102E2E00EEFF74FF2F1E046010E0F9122D1EE9A3B1
:102E3E00C3946440EB7901800279007F01020BA0FC
:102E4E00C082C083801D8C828D83E4938A828B83A3
:102E5E00F08C828D83A3AC82AD838A828B83A3AAEE
:102E6E0082AB83E9F874FF28190470DAD083D0821C
:102E7E0022C082C083801C8C828D83E08A828B83E9
:102E8E00F08C828D83A3AC82AD838A828B83A3AABE
:102E9E0082AB83E9F874FF28190470DBD083D082EB
:102EAE0022C082C083800BE98A828B83F0A3AA8220
:102EBE00AB83ECF874FF281C0470ECD083D0822214
:102ECE0074F7120B3A8A828B83E0F9122D1EE9F504
:102EDE0021A3E0F9122D1EE975F03CA4F8A9F0E546
:102EEE002128FAE439FB7F02020BA0790AE9FA7471
:102EFE00FF2A1904600C7800E8C3941E50EF0008F6
:102F0E0080F62274F1120B3A8A258B268923AE2580
:102F1E00AF26752400EE54F0F8EFF9852321EE2547
:102F2E0021FAE43FFBEA24FF1AEB34FFFBEA54F0EC
:102F3E00687002EB69601AEE540FF87410C398F5BE
:102F4E0025740F120B16E0F8A3E0F98882898380AE
:102F5E000785232580EB0524E524C39403400E90BA
:102F6E000381E04408F079027F08020BA074075F2A
:102F7E00FF12328DEFC33324A0F91231B5E970D6AA
:102F8E00EEF91231B5E970CE858221858322752640
:102F9E00008003A30526E526C395255008E0F91207
:102FAE0031B5E960EEE526C3952550088521828569
:102FBE00228380A21232F7122EF9E525C395234003
:102FCE002F9028DBE0D2E2F09028D9E0C2E2F09018
:102FDE0028AAE0D2E3F09028A9E0C2E3F09028A856
:102FEE00E0C2E3F0900381E054F7F07900022F760F
:102FFE00852521EE2521FEE43FFFE525C5239523FA
:10300E00F523C394114006752510022F66852325DE
:10301E00022F6674F1120B3A74FF120ACAE9853157
:10302E0082853283F08A218B2275260075250080D9
:10303E00020525E525C394035035052685212785F0
:10304E002228AE27E5285407C33324A0F5271232D1
:10305E008DA9271231B5E970D8EEF91231B5E970A4
:10306E00D012328D74012527F91231B5E970C2756F
:10307E0025007410120B16E0FEA3E0FF800E123333
:10308E00C28E828F83A3AE82AF8305258531828562
:10309E003283E0F8E525C3985025123135E98E824A
:1030AE008F83F0852521853182853283E024FFF8D8
:1030BE00E434FFF9E865214970C412336A80C21204
:1030CE0032F7122EF99028DBE0D2E2F09028D9E008
:1030DE00C2E2F09028AAE0D2E3F09028A9E0C2E381
:1030EE00F09028A8E0C2E3F0E526C3940390038194
:1030FE00E040074408F07902800554F7F079007437
:10310E0001120AE07F08020BA074F5120B3A740B41
:10311E00120B16120BF979021230217402120AE008
:10312E0079007F04020BA0C082C0839028AAE0C25F
:10313E00E3F09028A9E0C2E3F09028A8E0C2E3F003
:10314E009028D9E0D2E2F0A3E0D2E2F0900203E4BC
:10315E00F0F8802E00009028AAE0D2E3F09028A983
:10316E00E0C2E3F09028A8E0C2E3F0900203E0C3CF
:10317E0033F09028DCE0A2E25007900203E0D2E0A8
:10318E00F008E8C394089028AAE0C2E3F09028A9BA
:10319E00E0C2E3F09028A8E0C2E3F040B79002034B
:1031AE00E0F9D083D08222C082C083E9900204F07D
:1031BE009028AAE0C2E3F09028A9E0C2E3F090289C
:1031CE00A8E0C2E3F09028DBE0C2E2F09028D9E05C
:1031DE00C2E2F07800802BC2E2F09028D9E0C2E281
:1031EE00F0900204E0C333F000009028AAE0D2E38E
:1031FE00F09028A9E0C2E3F09028A8E0C2E3F00026
:10320E000008E8C394089028AAE0C2E3F09028A929
:10321E00E0C2E3F09028A8E0C2E3F0501090020460
:10322E00E0A2E79028DBE050AED2E280AC00009046
:10323E0028D9E0D2E2F0A3E0D2E2F09028AAE0D2C0
:10324E00E3F09028A9E0C2E3F09028A8E0C2E3F0F2
:10325E0000009028DCE0A2E25004D2F08002C2F01E
:10326E00A2F0E433F99028AAE0C2E3F09028A9E096
:10327E00C2E3F09028A8E0C2E3F0D083D08222C04F
:10328E0082C0839028AAE0C2E3F09028A9E0C2E3AE
:10329E00F09028A8E0C2E3F09028DBE0D2E2F090B4
:1032AE0028D9E0C2E2F09028AAE0D2E3F09028A953
:1032BE00E0C2E3F09028A8E0C2E3F000009028DB23
:1032CE00E0C2E2F09028D9E0C2E2F000009028AA15
:1032DE00E0C2E3F09028A9E0C2E3F09028A8E0C293
:1032EE00E3F00000D083D08222C082C0839028AA4F
:1032FE00E0C2E3F09028A9E0C2E3F09028A8E0C273
:10330E00E3F09028DBE0C2E2F09028D9E0C2E2F0D0
:10331E0000009028AAE0D2E3F09028A9E0C2E3F0E2
:10332E009028A8E0C2E3F000009028DBE0D2E2F0A3
:10333E009028D9E0C2E2F00000E0D2E2F0A3E0D2A1
:10334E00E2F09028AAE0C2E3F09028A9E0C2E3F0F0
:10335E009028A8E0C2E3F0D083D08222C082C0833E
:10336E009028AAE0C2E3F09028A9E0C2E3F09028EA
:10337E00A8E0C2E3F09028DBE0D2E2F09028D9E09A
:10338E00C2E2F09028AAE0D2E3F09028A9E0C2E3CE
:10339E00F09028A8E0C2E3F000009028AAE0C2E373
:1033AE00F09028A9E0C2E3F09028A8E0C2E3F0D0A4
:1033BE0083D08222C082C0839028AAE0C2E3F0901C
:1033CE0028A9E0C2E3F09028A8E0C2E3F09028DB41
:1033DE00E0C2E2F09028D9E0C2E2F09028AAE0D252
:1033EE00E3F09028A9E0C2E3F09028A8E0C2E3F051
:1033FE0000009028AAE0C2E3F09028A9E0C2E3F012
:10340E009028A8E0C2E3F0D083D08222C082C0838D
:10341E00E4800F900206E0640470057900123437E0
:10342E00740160EFD083D0822274F8120B3AE9FE59
:10343E00F875F06FA4C8AAF02AF9740528F58274FD
:10344E000239F583EE60051234998012E4F0AA82F7
:10345E00AB8312A03CE9F4700579001234717F0140
:10346E00020BA0C082C083E9701C90020574FFF0AD
:10347E0090020AE4F0A3F0900209F09002067403A1
:10348E00F0A3E4F0A3F0D083D08222E48007790089
:10349E00123471740160F72274F8120B3AE9FEF8D7
:1034AE0075F06FA4C8AAF02AF9740528F8740239C9
:1034BE00F988828983A37402F088828983A3A3A3E7
:1034CE00A3E4F088828983E0700512BAFF8005EECE
:1034DE00F91234717F01020BA0C082C083E4801BFD
:1034EE00900207E06013E014F0E0700D9002067495
:1034FE0004F0900585E04410F0740160E3D083D0B1
:10350E00822274F8120B3AEAFEEBFF8E828F83A3AF
:10351E00A3A3A3A3A3A3E0640170217906EE241054
:10352E00F582E43FF583E0FCA3E0FD7A807B001298
:10353E0057358E828F83A3A3740680098E828F8364
:10354E00A3A3A3A3E4F079007F01020BA074F512EC
:10355E000B3AEAFEEBFF8E828F83A3A3A3A3A3A352
:10356E00A3E06401600D8E828F83A3A3A3A3E4F076
:10357E00F9806DEE2402F523E43FF524EE2410F5D8
:10358E0021E43FF5227906852182F583E0FAA3E056
:10359E00FB122E23E970317906852182852283E084
:1035AE00FCA3E0FD7A807B001254E179068521822E
:1035BE00852283E0FCA3E0FD7A427B05122E7F85F7
:1035CE002382852483E480158E828F83A3A3A3A3F5
:1035DE00A3E04401F08523828524837401F07900F1
:1035EE007F04020BA074F3120B3AEAFEEBFF752375
:1035FE00008002052390144EE493F8E523C39850FF
:10360E0029EE240BF582E43FF583E0F9852321753D
:10361E00220074027821120AB774362521F58274BD
:10362E00143522F583E4936970C990144EE493F82F
:10363E00E523C398505075240074027823120AB7FC
:10364E0074362523F874143524F988828983A3E40B
:10365E0093F525740193F526EE2408F521E43FF544
:10366E0022852182F5837404120BFD88828983A33F
:10367E00A3A3E493F9AA25AB261242D87404120A26
:10368E00E074FF6970188E828F83A3A3A3A3A37423
:10369E0002F0A3E4F08E828F83A3A302374D8E82B5
:1036AE008F83A3A3A3A3A3A3A3A3A3E0F4700F8E5E
:1036BE00828F83A3A3A3A3A3A3A3E0D2E6F08E825B
:1036CE008F83A3E06414707B852182852283782109
:1036DE001209B0901528782112094990152C7821DD
:1036EE00120615605E90153078211206156054EEA4
:1036FE002402FAE43FFBE975F00DA4FCADF0E525DC
:10370E002CF582E5263DF583A3A3A3A3A3E4937D25
:10371E0000240CFC50010D8A828B83E0F521C3EC52
:10372E009521ED9400A2D265D03350178E828F83EF
:10373E00A3A3A3A3A37401F0A3E4F08A828B830452
:10374E00F0804AE975F00DA4F8A9F0E52528F58278
:10375E00E52639F583AC82AD83EEFAEFFBA3A3A386
:10376E00A3A3A3A3A3E49325E0F8E433F9745928A3
:10377E00F582741239F583E493C0E0740193F583F6
:10378E00D082120B38E9F4700479FF800279007F41
:10379E0006020BA074F1120B3AEAFEEBFFEE2408C0
:1037AE00F525E43FF526EE2410F527E43FF52879BC
:1037BE0004852782F583E0FCA3E0FDAA25AB261243
:1037CE002E7F8E828F83A3A3E0640290037B60031F
:1037DE000238E37455F08E828F83A3A3A3A37401E2
:1037EE00F08E828F83A3A3A3A3A3A3A3A3A3A3E477
:1037FE00F0A3F0F9800109901479E493F8E9C398E5
:10380E0040030238C2E975F006A4FAABF0744F2AF1
:10381E00F52774143BF528852782F583E493F5216B
:10382E00740193F522E4F523F524852582852683FC
:10383E00782112060070BF852782852883A3A3787E
:10384E00211209BF852582852683E521F0A3E52275
:10385E00F0A3E523F0A3E524F08E828F83A3858267
:10386E00218583227411F0EEFAEFFB1235F3E9F4A1
:10387E0070098E828F83A3A37401F08E828F83A32F
:10388E00A3A3A3A3A3A3A3A3A3E4F0A3F0852782DA
:10389E0085288393F8740193F98E828F83A3A3A353
:1038AE00A3A3A3A3A3E8F0A3E9F085218285228335
:1038BE007401801EE493F8E9C39840718E828F8361
:1038CE00A3A3A3A3A37402F0A3E4F08E828F83A319
:1038DE00A304F08058E4F0F980509015347821124A
:1038EE0009BF8525828526837821120600703985C9
:1038FE002782852883E02404F521A3E03400F522F5
:10390E007821120BE4795390123F78211209BFAA45
:10391E0021AB22AC23AD241230217402120AE08EA8
:10392E00828F83A3A37457F07901E960AD79007F8C
:10393E0008020BA074F1120B3A74F4120ACA853104
:10394E0082853283EAF0A3EBF0853182853283E003
:10395E002408F8A3E03400F97402120B16E8F0A361
:10396E00E9F0853182853283E02410F527A3E03417
:10397E0000F5287904852782F583E0FCA3E0FD7429
:10398E0002120B16E0FAA3E0FB122E7F8531828520
:10399E003283E02401F8A3E03400F97404120B160C
:1039AE00E8F0A3E9F07404120B16E0F8A3E0F58337
:1039BE008882E0F8740F686003023AAB90037B7460
:1039CE0055F0853182853283E02402F525A3E0345B
:1039DE0000F526852782852883E0FAA3E0FB12A551
:1039EE0074E9F47003023A89790385278285288366
:1039FE00E02405FCA3E03400FD853182853283E0AE
:103A0E00F8A3E0C82408F582E438F583E089F0A431
:103A1E00ABF0248CFA50010B1254E18527828528D5
:103A2E0083E0F8A3E0F988828983A3A3A3A3A3E08C
:103A3E0088828983A3F0852782852883E0F8A3E016
:103A4E00F988828983A3A3A3A3A3A3E08882898391
:103A5E00A3A3F0852782852883E0F8A3E0F9888266
:103A6E008983A3A3A3A3A3A3A3E088828983A3A38B
:103A7E00A3F0852582852683023D7D8531828532A0
:103A8E0083E0F8A3E0F5838882A3A3A3A3A3740124
:103A9E00F0A3E4F08525828526830242CC74126859
:103AAE007029853182853283E02402F525A3E03426
:103ABE0000F526852582F583E0701090058BE0D207
:103ACE00E3F08525828526830242CB740468900339
:103ADE007B6003023DB07455F0853182853283E000
:103AEE00240AF8A3E03400F97406120B16E8F0A3CA
:103AFE00E9F07406120B16E0F8A3E0F5838882E471
:103B0E00F0A3F0852782852883E0F8A3E0F583886B
:103B1E0082A3A3E0FC853182853283E02403F8A3DF
:103B2E00E03400F9E8FAE9FB90153878211209BF64
:103B3E007402120B16E0F8A3E0F583888278211246
:103B4E0006006003023C21EC8A828B83F060030244
:103B5E003C5E852782852883E0F8A3E0F988828978
:103B6E0083A3A3A3E064116003023C5E8882898371
:103B7E00A3A3A3A3E064116003023C5E8882898341
:103B8E00A3A3A3A3A3E064116003023C5E900548C7
:103B9E00E06455605B7A00790012696E8A218B228F
:103BAE0090153CC082C083900441EB3395E0F52321
:103BBE00F52478211208CCD083D0827821120669A0
:103BCE00502E853182853283E0F8A3E0C82407F5B4
:103BDE0082E438F5837420F0853182853283E0F8F3
:103BEE00A3E0F5838882A3A3A3A3A37401023E4B93
:103BFE00900585E04440F0853182853283E0F8A35C
:103C0E00E0F5838882A3A3E4F07A0D7B04125FF4BF
:103C1E00023E62EC8A828B83F074016C70328527CF
:103C2E0082852883E0FAA3E0FB8A828B83A3A3A379
:103C3E00E06411701B8A828B83A3A3A3A3E064119B
:103C4E00700E8A828B83A3A3A3A3A3E064116019D1
:103C5E00853182853283E0F8A3E0C82407F582E43B
:103C6E0038F5837420F0023E36853182853283E04A
:103C7E002402F525A3E03400F526852582F583E0A0
:103C8E0024FAF9EA2406FCE43BFD122E7F7E008026
:103C9E00010E901479E493F8EEC3984003023D822E
:103CAE00EE75F006A4F8A9F0744F28F527741439B0
:103CBE00F528852782F583E493F521740193F52287
:103CCE00E4F523F5247402120B16E0F8A3E0F58355
:103CDE008882782112060070B8852782852883A3F2
:103CEE00A378211209BF7402120B16E0F8A3E0F5B7
:103CFE00838882E521F0A3E522F0A3E523F0A3E576
:103D0E0024F07404120B16E0F8A3E0F58388827495
:103D1E0014F0853182853283E0FAA3E0FB1235F38D
:103D2E00E9F470098525828526837401F0740612E4
:103D3E000B16E0F8A3E0F5838882E4F0A3F0852764
:103D4E008285288393F8740193F9853182853283B5
:103D5E00E0FAA3E0CA2408F582E43AF583E8F0A37A
:103D6E00E9F07404120B16E0F8A3E0F58388827470
:103D7E0004023E61E493F8EEC39850030242BB8501
:103D8E003182853283E0F8A3E0F5838882A3A3A372
:103D9E00A3A37402F0A3E4F0852582852683040292
:103DAE003E61E4F07402120B16E0F8A3E0F583888E
:103DBE008278211209B090154078211206157008EC
:103DCE0090054874550242BA901544782112061592
:103DDE007007900548E40242BA9015487821120601
:103DEE001570107A037B04125FF4900589E044404D
:103DFE000242BA900548E06455702D7A007900129F
:103E0E00696E8A218B229011D3C082C083900441A7
:103E1E00EB3395E0F523F52478211208CCD083D02E
:103E2E008278211206695031853182853283E0F81D
:103E3E00A3E0F5838882A3A3A3A3A37404F0A3E451
:103E4E00F0853182853283E0F8A3E0F5838882A382
:103E5E00A37401F079000242CE7402120B16E0F840
:103E6E00A3E0F583888278211209B090154C782151
:103E7E001206156003024079853182853283E0F89F
:103E8E00A3E0F5838882A3A3E064236003023FB21C
:103E9E007C5379007A507B04122EAF7903852782EA
:103EAE00852883E02404FCA3E03400FD7408120B83
:103EBE0028122E7F740B120B16E4F07408120B28C6
:103ECE001229EC122C3C900450EAF0A3EBF079048A
:103EDE007C6F7D167A527B04122E4E8527828528A2
:103EEE0083E0241EFAA3E03400FB1229ECEAF8EB7F
:103EFE00F9ECFAEDFB900456120A0590045A74433D
:103F0E00F0A374ADF0A37420F0A37415F0900462C6
:103F1E0074F6F0A374C8F0A374EAF0A37404F085E9
:103F2E002782852883E02419FAA3E03400FB1229A6
:103F3E00EC90045E1209ED852782852883E0240922
:103F4E00FAA3E03400FB1229EC9004841209ED85EB
:103F5E002782852883E0240DFAA3E03400FB122982
:103F6E00EC90048C1209ED852782852883E02411BC
:103F7E00FAA3E03400FB1229EC9004901209ED85AF
:103F8E002782852883E02415FAA3E03400FB12294A
:103F9E00EC9004941209ED7901852782852883E03F
:103FAE00242280517916852782852883E02404FCFB
:103FBE00A3E03400FD7A507B04122E7F7C1E790024
:103FCE007A667B04122EAF7914852782852883E0CA
:103FDE00241AFCA3E03400FD7A847B04122E7F7C2D
:103FEE000879007A987B04122EAF79018527828595
:103FFE002883E0242EFCA3E03400FD7AA07B04127B
:10400E002E7F79517A507B04122DDB9004A1EAF0B9
:10401E00A3EBF07521507522047821120BE479532D
:10402E0090123F78211209BFAA21AB22AC23AD24F6
:10403E00122F117402120AE0752150752204782194
:10404E00120BE4795390155078211209BFAA21ABB7
:10405E0022AC23AD24122F117402120AE07C0679D1
:10406E00007AA37B04122EAF02429590155478214C
:10407E001206157018852782852883E02404FAA37A
:10408E00E03400FB1229EC9004660241A090155812
:10409E0078211206157018852782852883E024045E
:1040AE00FAA3E03400FB1229EC90046A0241A090BE
:1040BE00155C7821120615703F852782852883E0CE
:1040CE002404FAA3E03400FB1229EC90046E1209CA
:1040DE00ED852782852883E02408FAA3E03400FBCF
:1040EE001229EC8A218B228C238D24900472782144
:1040FE001209D2900498802F90156078211206151F
:10410E00702C852782852883E02404FAA3E03400EE
:10411E00FB1229EC8A218B228C238D249004767835
:10412E00211209D290049C78211209D28067901531
:10413E006478211206157018852782852883E0F889
:10414E00A3E0F5838882A3A3A3A3E090048280203A
:10415E009015687821120615701985278285288397
:10416E00E0F8A3E0F5838882A3A3A3A3E0900483E1
:10417E00F0802290156C78211206157076852782B4
:10418E00852883E02404FAA3E03400FB1229EC9086
:10419E00047A1209ED79517A507B04122DDB9004CA
:1041AE00A1EAF0A3EBF07521507522047821120BD1
:1041BE00E4795390123F78211209BFAA21AB22ACA9
:1041CE0023AD24122F117402120AE07521507522AC
:1041DE00047821120BE4795390155078211209BFFF
:1041EE00AA21AB22AC23AD24122F117402120AE0C5
:1041FE000242959015707821120615703885278227
:10420E00852883E02404FAA3E03400FB1229EC9005
:10421E00047E1209ED79517A507B04122DDB900445
:10422E00A1EAF0A3EBF079537C507D047A007B0079
:10423E001254E18052901574782112061570089070
:10424E000589E0448080657E0080027E01EE703438
:10425E0090153478211209BF7402120B16E0F8A3E0
:10426E00E0F5838882782112060070DF7953852766
:10427E0082852883E02404FCA3E03400FD7A007BD1
:10428E00001254E1EE7005900589801D600DC394F7
:10429E00065008900589E044088011EEC39406404C
:1042AE000C900589E04424F0A3E04402F0853182AD
:1042BE00853283E0F8A3E0F5838882A3A3E4F0F9C6
:1042CE00740C120AE07F08020BA074F5120B3AEA86
:1042DE00FEEBFF7B0074FF29FA740E120B16E070D2
:1042EE004990157CC082C083740B120B1678211274
:1042FE0009B09015787821120949D083D08278219F
:10430E00120615604A740C120B16E0F874FF686002
:10431E0006E8C394055038740D120B16E0F8740CB1
:10432E00686017740B68700B8010740C120B16E01B
:10433E00F47007740C120B16E4F08E828F837821C2
:10434E001209BF740B120B1678211206A3500F79A7
:10435E00FF7F04020BA0EA696056740129FB8B23D0
:10436E00E5232AF521E43400F52274017821120A9E
:10437E0098A921E975F00DA4F521E5F0F522EE25B9
:10438E0021F582EF3522F58378211209BF740B12C5
:10439E000B1678211206006017740B120B1678217B
:1043AE001206B350B1EB69600302444DE960011986
:1043BE00E975F00DA4FAABF0EE2AFAEF3BFB8A8218
:1043CE008B83E493FEA3A3A3A3A3A3A3E493F5215A
:1043DE00EE2521FEE43400FF740B120B16E0F521DE
:1043EE00C3EE9521EF9400C365D033500302435DB5
:1043FE008A828B83A3E493FE8A828B83A3A3A3A3D7
:10440E00A3A3E493F521EE2521FEE43400FF740C02
:10441E00120B16E0F521C3EE9521EF9400C365D083
:10442E0033500302435D740D120B16E0F88A828B33
:10443E0083A3A3E493C398500302435D02435F74C6
:10444E00FF29FA02436C74F1120B3AEAFEEBFF8E6F
:10445E00828F83A3A3A3A3A3A3A3E06402600E8E03
:10446E00828F83A3A3A3A3E4F0F90245CBEE240825
:10447E00F525E43FF526EE2410F527E43FF52879DF
:10448E0004852782F583E0FCA3E0FDAA25AB261266
:10449E002E7F852782852883E0FAA3E0FB8A828B14
:1044AE0083A3A3A3A3A3A3A3A3E0F9740269600546
:1044BE007404697034740269701590158078211235
:1044CE0009BF8525828526837821120600701A740D
:1044DE000469702290158478211209BF8525828582
:1044EE0026837821120600600D8E828F83A3A3A3EC
:1044FE00A3A37401802390058CE0A2E05010EA245F
:10450E0004F582E43BF583E0F8E9C39850178E82F8
:10451E008F83A3A3A3A3A37404F0A3E4F08E828FCE
:10452E0083A3A38042AA82AB8312A574E9F88E827C
:10453E008F83A3A3A3F0EE2402F521E43FF52274AA
:10454E00FF6870268E828F83A3A3A3A3A3A3A37455
:10455E0020F08E828F83A3A3A3A3A37404F0A3E4FD
:10456E00F0852182852283048050852782852883C9
:10457E00E0F8A3E0F9888289837903E5822409FCB7
:10458E00E43583FDA3A3A3A3A3A3A3A3E089F0A46F
:10459E00ABF0248CFA50010B1254E185278285284A
:1045AE0083E0FAA3E0FB7904EA2408FCE43BFD1265
:1045BE002E7F8521828522837404F079007F080284
:1045CE000BA074F5120B3AEAFEEBFF8E828F83A3DB
:1045DE00A3A3A3A3A3A3E06402600E8E828F83A382
:1045EE00A3A3A3E4F0F9024699900548E064556050
:1045FE002D7A00790012696E8A218B2290153CC0AB
:10460E0082C083900441EB3395E0F523F5247821A5
:10461E001208CCD083D08278211206694025EE2470
:10462E0010F521E43FF522852182F583E0FAA3E01F
:10463E00FB12A574E9F88E828F83A3A3A3F07402F4
:10464E006860198E828F83A3A3A3A3A37404F0A31F
:10465E00E4F08E828F83A3A304F0802D900585E075
:10466E004440F08E828F83A3A3E4F07904852182E7
:10467E00852283E029FCA3E03400FD7A777B0312C8
:10468E002E7F7A0D7B04125FF479007F04020BA05B
:10469E0079002279002274F1120B3A74F8120ACAC8
:1046AE00EAFEEBFF8E828F83A3E0F8741468700D20
:1046BE008E828F83A3A3A3A3A374048010741268A5
:1046CE008E828F83A3A3A3A3A370107401F0A3E41F
:1046DE00F08E828F83A3A304024A5FA3A3E0A2E617
:1046EE0040030248BF7405120B16E4804E8E828F73
:1046FE0083A3A3A3A3A3A3A3A3A3A3E070139011C7
:10470E00EB78211209BF8531828532837821120917
:10471E00607904AC31AD327406120B16E0FAA3E0E8
:10472E00FBEE2410F582E43FF583E02AFAA3E03B8A
:10473E00FB122E7F7405120B16E004F0E0C39405F5
:10474E0040030248B47404120B16E4F07405120B05
:10475E0016E0F52175220074027821120AB774064C
:10476E00120B16E521F0A3E522F07406120B16C00B
:10477E0082C0838E828F83A3A3A3A3A3A3A3A3A389
:10478E00A3E0F52175220074027821120AB7744154
:10479E002521F874043522F9D083D082E028F8A3BD
:1047AE00E039F9888289831209F98531828532834D
:1047BE00120A057405120B16E0FA8E828F83A3A3DC
:1047CE00A3A3A3A3A3A3A3A3E0F912696E8A218BCB
:1047DE0022EB3395E0F523F52485318285328378FB
:1047EE00211208F67405120B16E0600E85318285D3
:1047FE003283E4F0A3F0A3F0A3F08E828F83A3A301
:10480E00A3A3A3A3A3A3A3A3E07038901588782134
:10481E001209BF85318285328378211206A3402387
:10482E0085318285328378211209B0782112086091
:10483E0085318285328378211209D27404120B16C7
:10484E007401F085318285328378251209B090117A
:10485E00DF78211209BF782579211208228531824D
:10486E0085328378251209D28531828532831209E9
:10487E00E1122B12EAF8EBF9ECFAEDFB85318285A9
:10488E003283120A057404120B16E070030246FB03
:10489E0090158C78211209BF85318285328378215B
:1048AE0012099D02471F8E828F83A3A37414024A9E
:1048BE005F7404120B16E4F09004F5F0EE2409F583
:1048CE0025E43FF526852582F583E0F52175220046
:1048DE0074027821120AB78E828F83A3A3A3A3A397
:1048EE00A3A3A3A3A3E0F5237524007402782312D7
:1048FE000AB774412523F874043524F9E82521F507
:10490E0082E93522F5831209F985318285328312C7
:10491E000A05852582852683E0FA8E828F83A3A3DE
:10492E00A3A3A3A3A3A3A3A3E0F912696E8A218B69
:10493E0022EB3395E0F523F5248531828532837899
:10494E00211208F6852582852683E0600E85318248
:10495E00853283E4F0A3F0A3F0A3F08E828F83A3BD
:10496E00A3A3A3A3A3A3A3A3A3E0F8703F901588CA
:10497E0078211209BF85318285328378211206A3F0
:10498E0040359004F57455F0853182853283782157
:10499E001209B07821120860853182853283782120
:1049AE001209D27404120B167401800A7402687014
:1049BE00069004F57455F085318285328378251280
:1049CE0009B09011DF78211209BF782579211208DC
:1049DE002285318285328378251209D285318285EE
:1049EE0032831209E1122B1285318285328312092C
:1049FE00ED7404120B16E0601590158C78211209D7
:104A0E00BF853182853283782112099D80248E8262
:104A1E008F83A3A3A3A3A3A3A3A3A3A3E070139025
:104A2E0011EB78211209BF853182853283782112EC
:104A3E0009607904AC31AD32EE2410F582E43FF515
:104A4E0083E0FAA3E0FB122E7F8E828F83A3A374E2
:104A5E0004F079007408120AE07F08020BA07900B6
:104A6E002274F1120B3A74F0120ACA7406120B1663
:104A7E00ECF0A3EDF08A258B268A828B83A3AA8283
:104A8E00AB83E0FC7406120B16E02404F8A3E034AA
:104A9E0000F97404120B16E8F0A3E9F07404120B7B
:104AAE0016E0F8A3E0F5838882E493A2E55005743E
:104ABE00146C60387404120B16E0F8A3E0F58388CA
:104ACE0082E493A2E4500574116C602074126C7031
:104ADE0003024E9F7404120B16E0F8A3E0F58388D0
:104AEE0082E493A2E3501574146C701085258285B0
:104AFE002683A3A3A3A3A37404024EAC853182859F
:104B0E003283E4F0A3F0A3F0A3F08A828B83E064F7
:104B1E00116003024D01852582852683A3A3A3A3DD
:104B2E00A3A3A3A378211209B090159078211206A1
:104B3E00157017E5252410F582E43526F583E0F887
:104B4E00A3E0F58388827408802990159478211249
:104B5E000615600A90159878211206157019E5252C
:104B6E002410F582E43526F583E0F8A3E0F583887A
:104B7E00827455F0024F52E5252410FEE43526FFCF
:104B8E009011F77821120615700879067C997D161A
:104B9E0080229011FB7821120615700879067C9FF1
:104BAE007D1680109011FF78211206157029790656
:104BBE007CA57D16740A120B28122E4E740A120B47
:104BCE00208E828F83E8F0A3E9F0852582852683E7
:104BDE00A3A37406024F5C7406120B16E02405F5AF
:104BEE0027A3E03400F528852782F583E493F98E18
:104BFE00828F83E0FCA3E0FD7406120B16E0F8A38F
:104C0E00E0C82409F582E438F583E493FA7401933D
:104C1E00FB1257357404120B16E0F8A3E0F58388E7
:104C2E0082E493A2E64003024CEE85278285288318
:104C3E00E493F874016870268E828F83E0F8A3E007
:104C4E00F5838882E0F9122D3BE9C0E08E828F83D6
:104C5E00E0F8A3E0F5838882D0E0F0024CEE740217
:104C6E006870348E828F83E0FAA3E0FB12292885C8
:104C7E003182853283EAF0A3EBF08531828532836F
:104C8E00E0FAA3E0FB122A4B853182853283EAF0EB
:104C9E00A3EBF07902803974046870448E828F839E
:104CAE00E0FAA3E0FB1229ECEAF8EBF9ECFAEDFBE3
:104CBE00853182853283120A0585318285328312CF
:104CCE0009E1122B128531828532831209ED7904A6
:104CDE00AC31AD328E828F83E0FAA3E0FB122E7FD1
:104CEE00852782852883E493852582852683A3A341
:104CFE00024F5C7406120B16E0240BF8A3E034008E
:104D0E00F97408120B16E8F0A3E9F07406120B16EC
:104D1E00E02405F527A3E03400F528E5252410FE50
:104D2E00E43526FFE5252405F521E43526F5228513
:104D3E002782852883E493FC7408120B16E0F8A3EF
:104D4E00E0F5838882E493F8740193F9E875F00333
:104D5E00A4F8AAF075F003E9A42AF9747A28F5826A
:104D6E00741439F583E493F98E828F83E0FAA3E00D
:104D7E00FB125A4BE9852182852283F0A3E4F0854C
:104D8E002182852283E0F8A3E0F9E8496003024F0F
:104D9E00527404120B16E0F8A3E0F5838882E493B4
:104DAE00A2E64003024E62852782852883E493F8AB
:104DBE0074016870258E828F83E0F8A3E0F58388F6
:104DCE0082E0F9122D1EE9C0E08E828F83E0F8A3F7
:104DDE00E0F5838882D0E0F0807A74026870348EB9
:104DEE00828F83E0FAA3E0FB122928853182853277
:104DFE0083EAF0A3EBF0853182853283E0FAA3E0FB
:104E0E00FB122CDC853182853283EAF0A3EBF0793C
:104E1E00028031740468703C8E828F83E0FAA3E0C6
:104E2E00FB1229EC8531828532831209ED853182A0
:104E3E008532831209E1122C3C8531828532831230
:104E4E0009ED7904AC31AD328E828F83E0FAA3E0A6
:104E5E00FB122E7F8E828F83E0FCA3E0FD901590D7
:104E6E0078211209BF852582852683A3A3A3A3A338
:104E7E00A3A3A3782112060070348C828D83E06484
:104E8E0008700E852582852683A3A3E4F0F9024FD0
:104E9E005F852582852683A3A3A3A3A37401F0A314
:104EAE00E4F0852582852683A3A304024F5C852723
:104EBE0082852883E493F97406120B16E0F8A3E0BA
:104ECE00C82409F582E438F583E493FA740193FB60
:104EDE001254E17408120B16E0F8A3E0F5838882F1
:104EEE00E493C0E0740193F583D082A882A9837401
:104EFE000F684970079003757428803C7404120B78
:104F0E0016E0FAA3E0F5838A82E493A2E7502AE83A
:104F1E0075F003A4F8AAF075F003E9A42AF9747BDE
:104F2E0028F582741439F583E493F8740193F9909B
:104F3E000589E048F0A3E049F0852582852683A304
:104F4E00A3E4800A852582852683A3A37401F079C4
:104F5E00007410120AE07F08020BA074F5120B3ACF
:104F6E0074FC120ACA8C238D248A828B83A3E0F8E8
:104F7E00EA2402F521E43BF522741468700D8A824E
:104F8E008B83A3A3A3A3A374048010741268701957
:104F9E008A828B83A3A3A3A3A37401F0A3E4F08559
:104FAE00218285228304025049853182853283E431
:104FBE00F0A3F0A3F0A3F0EA2410FEE43BFF790285
:104FCE008E828F83E0FCA3E0FD852382852483A35C
:104FDE00A3A3A3A3A3A3A3A3E493FA740193FB1225
:104FEE0057358E828F83E0FAA3E0FB122928853194
:104FFE0082853283EAF0A3EBF0853182853283120B
:10500E0009E1122B12EAF8EBF9ECFAEDFB8531828D
:10501E00853283120A057903AC31AD328E828F83CD
:10502E00E0FAA3E0FB122E7F852382852483A3A3BF
:10503E00A3A3A3E493852182852283F079007404CF
:10504E00120AE07F04020BA079002279002274F587
:10505E00120B3A74FE120ACA8A218B22EA2410F528
:10506E0082E43522F583E0F523A3E0F5248523823F
:10507E00F583A3A3A3E0F8852382852483A3E0F917
:10508E00852382852483E0FA8521828B83A3E064C5
:10509E00117044EA853182853283F0E9C0E07401F3
:1050AE00120B16D0E0F0E8FEC39451504478231250
:1050BE000BE4EEF97402120B16E0F523A3E0AA231B
:1050CE00FBE4FCFD1230217402120AE0EE8521820F
:1050DE00852283A3A38050EA853182853283F0E94D
:1050EE00C0E07401120B16D0E0F0E8FEC3945140FC
:1050FE000479FF8035E5232404F523500205247836
:10510E0023120BE4EEF97402120B16E0F523A3E062
:10511E00AA23FBE4FCFD122F117402120AE0852172
:10512E0082852283A3A3E4F079007402120AE07F41
:10513E0004020BA074F1120B3A74F2120ACA740232
:10514E00120B16ECF0A3EDF08A218B228A828B8350
:10515E00A3E0F8741468700D8A828B83A3A3A3A3B3
:10516E00A37404801074126870198A828B83A3A3AF
:10517E00A3A3A37401F0A3E4F08A828B83A3A304F8
:10518E000254177A008521828B83A3A3A3A3A3A322
:10519E00A3E0A2E650010A7402120B16E0F8A3E097
:1051AE00C8240BF582E438F583E493C0E0740193D0
:1051BE00F583D082A882A983EA75F006A4FCADF02F
:1051CE00E8FAE9FBEA75F006A4FAAEF075F006EB24
:1051DE00A42EFB74DA2AFA74143BFBEA2CFAEB3D8C
:1051EE00FB853182853283EAF0A3EBF0853182852F
:1051FE003283E0FAA3E0F5838A82A3A3A3A3E49308
:10520E006401600302534A853182853283E0F8A33C
:10521E00E0F583888278251209BFAA25AB26127481
:10522E00FDEAF8EBF9ECFAEDFB7406120B16120A16
:10523E000590159C78251209BF853182853283E051
:10524E00F8A3E0F58388827825120615701E900467
:10525E00ADE070047AD68007E06455700F7AD77B84
:10526E00101274FD7406120B161209EDE5212410AE
:10527E00FEE43522FF7402120B16E02405F523A37B
:10528E00E03400F524852382F583E493F974061245
:10529E000B308E828F83E0FAA3E0FB122E7F8521E6
:1052AE0082852283A3A3A3A3A3A3A3E0A2E6400324
:1052BE000253FA852382852483E493F98E828F83A9
:1052CE00E029FAA3E03400FB853182853283E024A5
:1052DE0005F525A3E03400F5267402120B16E0F84E
:1052EE00A3E0C8240BF582E438F583E493FC740143
:1052FE0093FD74056C7001ED601085258285268303
:10530E00E493C399FC79FF0253B17406120B301269
:10531E002E7F852382852483E493FAC333F8852573
:10532E0082852683E493C398FC79FFEA2AE433FB53
:10533E008E828F83E028FAA3E03B8066740868496A
:10534E007066127ABC7404120B16EAF0A3EBF0E549
:10535E00212410FEE43522FF79027404120B308EE4
:10536E00828F83E0FAA3E0FB122E7F8521828522B5
:10537E0083A3A3A3A3A3A3A3E0A2E6506F79027411
:10538E0004120B308E828F83E029FAA3E03400FBE7
:10539E00122E7F7C0479FF8E828F83E02CFAA3E09D
:1053AE003400FB122EAF8044740B6849703E90059A
:1053BE00291209E1122B12740A120B161209ED743E
:1053CE0002120B16E0F8A3E0F5838882A3A3A3A331
:1053DE00A3E493F9740A120B30E5212410F582E44C
:1053EE003522F583E0FAA3E0FB122E7F853182850C
:1053FE003283E0F8A3E0F5838882A3A3A3A3A3E4FA
:10540E0093852182852283A3A3F07900740E120A5C
:10541E00E07F08020BA074F7120B3A8A828B83A3EB
:10542E00E0F8EA2402F521E43BF522EA2405FEE445
:10543E003BFF74146870088E828F837404804674E8
:10544E001268603B8A828B83A3A3A3A3A3A3A3A307
:10545E00A3E0640A7029790C7CC07D11EA2410F552
:10546E0082E43BF583E0FAA3E0FB122E4E8E828F90
:10547E0083E4F0A3F0852182852283740C80118E43
:10548E00828F837401F0A3E4F08521828522830448
:10549E00F079007F02020BA0C021C022C3EA94C0A3
:1054AE00EB9400400479FF800D8A218B22740678DC
:1054BE0021120AA8A921D022D0212274F8120B3A67
:1054CE0090037C74FFF0A3F0A3F0A3740FF07F01A0
:1054DE00020BA074F1120B3A7437120ACA74051239
:1054EE000B16EAF0A3EBF07407120B16ECF0A3ED1B
:1054FE00F0E9C0E07402120B16D0E0F07469120BE2
:10550E00207403120B16E8F0A3E9F07405120B16C3
:10551E00E0FAA3E0FB1254A6E9F87402120B16E0AF
:10552E00700302572BE8C394034003025704E87537
:10553E00F003A4F8A9F074A028F8741539F988823C
:10554E008983E493853182853283F088828983A3AF
:10555E00E493C0E0740193F583D082AE82AF83747E
:10556E0069120B20882189227821120BE474021211
:10557E000B16E0F98E218F22AA21AB22E4FCFD123C
:10558E0030217402120AE0853182E024FEC0E074FC
:10559E0001120B16D0E0F0E0F97469120B28122DEF
:1055AE00DB8A278B28EE24C0F521E43FF522E4F5B3
:1055BE0023F524853182853283E0F87469120B1647
:1055CE00E58228F8E43583F9E824FEFAE934FFFB96
:1055DE00122928EA65277003EB6528607174091299
:1055EE000B20882589267825120BE47402120B16DF
:1055FE00E0F9AA21AB22AC23AD24123021740212A1
:10560E000AE07401120B16E0F97409120B28122D20
:10561E00DB8A278B28853182853283E0F874091264
:10562E000B16E58228F8E43583F9E824FEFAE9340E
:10563E00FFFB122928EA65277003EB6528700F74AB
:10564E0009120B207403120B16E8F0A3E9F0740292
:10565E00120B16E0F97407120B16E0FCA3E0FD74B2
:10566E0005120B16E0C39EFAA3E09FFB7403120B08
:10567E0016E02AFAA3E03BFB122E7F85318285329B
:10568E0083E0F87403120B16E028F8A3E03400F957
:10569E00E824FEFCE934FFFDECC0E0EDC0E074014F
:1056AE00120B16E0F97403120B16E0FAA3E0FB12CC
:1056BE002DDBD0E0FDD0E0FC1229167403120B1680
:1056CE00120BF97402120B16E0F98E258F26AA25FD
:1056DE00AB26E4FCFD122F117402120AE0740312C1
:1056EE000B16120BF97402120B16E0F9AA21AB225B
:1056FE00AC23AD24801F7407120B16120BF9740421
:10570E00120B16E0F97407120B16E0F521A3E0AAAE
:10571E0021FBE4FCFD122F117402120AE074C9126F
:10572E000AE07F08020BA074F2120B3A74FE120A02
:10573E00CA853182853283ECF0A3EDF0EAFEEBFFF1
:10574E0089271254A6E9F525C39403504490037C8F
:10575E0078211209B075260074027825120AB774E2
:10576E00772525F58274193526F583782112094996
:10577E00E5214522452345247017853182853283E4
:10578E00120BF9A927EE24C0F521E43FAA21FB80D4
:10579E0013853182853283120BF9A9278E218F2230
:1057AE00AA21AB22E4FCFD1230217402120AE0742D
:1057BE0002120AE07F07020BA074F8120B3AE9FE00
:1057CE0079008011098A828B83A3AA82AB83EC2491
:1057DE0002FC50010DE9C39E501D8A828B83E0FFAF
:1057EE008C828D83E493F8EFC3984007A3E493C3B0
:1057FE009F50D17901800279007F01020BA0C082F7
:10580E00C083900589E05402600912668DE054FD54
:10581E000258CBE054046005127F19802DE054200D
:10582E0060061286960258C0E0544060127A037BDE
:10583E0004125F59E96003127F78E054BF807EA3A3
:10584E00E05404600A7901126C29E054FB806EE08A
:10585E00540860399004ADE0F91221EF1226A2E04F
:10586E00F912257B79517A507B04122DDB9004A11D
:10587E00EAF0A3EBF079537C507D047A007B0012A2
:10588E0054E1127DA190058AE054F78030E0541067
:10589E0060109004ADE0F912278590058AE054EF70
:1058AE00801BE0542060109004ADE0F912232B9081
:1058BE00058AE054DF8006900589E4F0A3F0D083DA
:1058CE00D0822274F1120B3A8A278B28E9FE7521B9
:1058DE0000122E23E960030259E17F0080010FEFD1
:1058EE00C39E5063EF75F003A4F8A9F0E52728F5E1
:1058FE0025E52839F526852582F583A3A3E0F9C38E
:10590E00941340030259E1E970030259E1122D1E6E
:10591E00852582852683A3E0F874A829F582E434D0
:10592E0015F583E493C39850030259E1E87003021E
:10593E0059E1852582852683E0F8C394095003E852
:10594E00709C79200259E37F008078EF75F003A4F4
:10595E00F8A9F0E52728FAE52839FB8A828B83A37C
:10596E00A3E0F523E52275F003A4F8A9F0E52728B6
:10597E00FCE52839FD8C828D83A3A3E0F8C3952323
:10598E004051E8652370278A828B83A3E0F88C82CE
:10599E008D83A3E0F9C398403AE96870118A828B2F
:1059AE0083E0F88C828D83E0687028752101E521F3
:1059BE0060087903122D5CE970190522E522C39E59
:1059CE0040890FEFC39E500774012FF52280ED79A9
:1059DE0000800279017F08020BA074F8120B3AEADC
:1059EE00FEEBFF8921122E23E9704B7B0080010B09
:1059FE0075F003E52184F8EB985037EB75F003A4AE
:105A0E00F8A9F0EE28F8EF39F988828983A3A3E08C
:105A1E00C39424502188828983A3E0C394605016D6
:105A2E0088828983E0F8C394055003E870C17940F9
:105A3E0080067900800279017F01020BA074F112B9
:105A4E000B3A74F8120ACAEAFEEBFF8C21E97003D6
:105A5E00025B1C120C2601201C5BAA5A285B5E5BA3
:105A6E00725B825BA05BBA5BD25BF05BA05B035C9C
:105A7E000B5C275C695C5E5B745CAB5CB75C145E54
:105A8E00275E335C475E4C5E935E9D5EA75E435B16
:105A9E00035C1C5BCC5EE55E1C5B425F7905EEFC35
:105AAE00EFFD7403120B16AA82AB83122E7F7402C3
:105ABE00120B16E4F07902E9120B2812B764E960B2
:105ACE004D75220080020522E522C39405500F85F4
:105ADE002223EE2523F582E43FF583E060E8E522FC
:105AEE00C39405502975220080020522E522C39435
:105AFE00055011852223EE2523F582E43FF583E040
:105B0E00649960E6E522C394055003025F4E790066
:105B1E007408120AE07F08020BA0A921122E23E9B5
:105B2E006003025F4E8E828F83E06005C394154042
:105B3E00DD791080DBA921122E23E96003025F4E6E
:105B4E008E828F83E06005C3941540C2792080C099
:105B5E008E828F83E07003025F4EC394094003026E
:105B6E005F4E80AA8E828F83E06005C39405409EAF
:105B7E007940809CA921122E23E96003025F4EEE2C
:105B8E00FAEFFB122928122CDCC3EA943DEB9400A9
:105B9E0080CBA921122E23E96003025F4E8E828FE5
:105BAE0083E07003025F4EC3949A80B1A921122E36
:105BBE0023E96003025F4E8E828F83E024FBC39441
:105BCE001C025EDE8E828F83E0F87003025B1C7413
:105BDE0001687003025B1C7402686003025F4E0270
:105BEE005B1C8E828F83E0F86008C394055003021D
:105BFE005B1CE880E5A921122E23E980DD8E828FC1
:105C0E0083E0F8C3940B4003025F4E740368700385
:105C1E00025F4E740768025F178E828F83E0640402
:105C2E007034025B1C75220280020522E522C394A9
:105C3E000650198E828F83E0F8852223746F2523F8
:105C4E00F582E43419F583E4936870DEE522C3949B
:105C5E00065003025B1C7908025B1E8E828F83E066
:105C6E00C39480025B6B7902122E23E96003025FFC
:105C7E004E8E828F83E0F8C39424500EA3E0F9C3B6
:105C8E0094295006E96003025B1C74996860030254
:105C9E005F4E8E828F83A3E06499025BE875F003FA
:105CAE00EC84F91258D1025B1EA9211259E8E9754C
:105CBE0027006003025B1E7522008058C3E89525FD
:105CCE00E995265003025F4EE8C39525FAE995261D
:105CDE00FBC3EA940FEB94005038E865257003E996
:105CEE0065266003025F4E853182853283E0F8A31C
:105CFE00E0F5838882E0F8853182853283E0F9A36E
:105D0E00E0F5838982A3A3A3E0686003025F4E756A
:105D1E0027010522852282A88275F003E5218424BD
:105D2E00FFFAE434FFFBC3E89AE49BA2D265D033BA
:105D3E004003025DCBE875F003A4F8A9F0EE28F855
:105D4E00EF39F9853182853283E8F0A3E9F08531A8
:105D5E0082853283E02401FAA3E03400FB122ECEBA
:105D6E008A258B26853182853283E02404FAA3E0CE
:105D7E003400FB122ECE8A238B24A823A924E527D8
:105D8E007003025CCAE865257003E96526600302AC
:105D9E005F4E853182853283E0F8A3E0F5838882F9
:105DAE00E0F8853182853283E0F9A3E0F5838982BC
:105DBE00A3A3A3E0687003025D20025F4E8E828F64
:105DCE0083A3AA82AB83122ECEEA249FF523EB3453
:105DDE0005F524852125EE2525F8E43FF9E824FE76
:105DEE00FAE934FFFB122ECE8A258B26E523C395C6
:105DFE0025F8E5249526F9C3E8940EE994004003AE
:105E0E00025B1C025F4E8E828F83E0F874306870E6
:105E1E0003025B1C7460025BE77902122E23E960B9
:105E2E0003025F4E8E828F83E0C3945A4003025F5B
:105E3E004EA3E0C39424025B6B7901025C057522CC
:105E4E000080020522E522C39404500F852223EE22
:105E5E002523F582E43FF583E060E8E522C3940450
:105E6E004003025B1C79008E828F83A3AA82AB83D0
:105E7E0012B764E96003025F4E8E828F83E0F8C32F
:105E8E009409025F148E828F83E0547C025BE88E4D
:105E9E00828F83E054FC025BE87905EEFCEFFD7423
:105EAE0003120B16AA82AB83122E7F7402120B16EC
:105EBE00E4F07902E9120B2812B764025C08A921FA
:105ECE00122E23E9707A8E828F83E024FBC3942CEA
:105EDE005003025B1C806974016521700A8E828FEB
:105EEE0083E054F0025BE87402652170237902129C
:105EFE002E23E9704B8E828F83A3E070438E828FA8
:105F0E0083E0F8C394615038E86003025B1C803074
:105F1E0074046521702A7904EEFCEFFD7403120BF4
:105F2E0016AA82AB83122E7F7402120B16E4F07443
