:020000040000FA
:060000000200660281C54A
:03000B000281CDA2
:030013000281D592
:03001B000281DD82
:03002B000281FA55
:03003B00028256E8
:0300430002826ACC
:03004B0002831E0F
:030053000283E441
:03005B000283F32A
:1000630002840275D00075819F75310175320202D9
:10007300CE86E4900201782B790E8002F0A3D8FC9F
:02008300D9FAA8
:1001000000002110422063308440A550C660E77093
:10011000088129914AA16BB18CC1ADD1CEE1EFF13B
:100120003112100273325222B5529442F772D662E3
:10013000399318837BB35AA3BDD39CC3FFF3DEE38B
:100140006224433420040114E664C774A444855433
:100150006AA54BB528850995EEE5CFF5ACC58DD5DB
:100160005336722611163006D776F6669556B44683
:100170005BB77AA719973887DFF7FEE79DD7BCC72B
:10018000C448E5588668A7784008611802282338D3
:10019000CCC9EDD98EE9AFF9488969990AA92BB97B
:1001A000F55AD44AB77A966A711A500A333A122A23
:1001B000FDDBDCCBBFFB9EEB799B588B3BBB1AABCB
:1001C000A66C877CE44CC55C222C033C600C411C73
:1001D000AEED8FFDECCDCDDD2AAD0BBD688D499D1B
:1001E000977EB66ED55EF44E133E322E511E700EC3
:1001F0009FFFBEEFDDDFFCCF1BBF3AAF599F788F6B
:100200008891A981CAB1EBA10CD12DC14EF16FE14A
:100210008010A100C230E320045025404670676082
:10022000B9839893FBA3DAB33DC31CD37FE35EF39A
:10023000B1029012F322D2323542145277625672D2
:10024000EAB5CBA5A89589856EF54FE52CD50DC5EA
:10025000E234C324A0148104667447642454054422
:10026000DBA7FAB79987B8975FE77EF71DC73CD73A
:10027000D326F2369106B016576676761546345672
:100280004CD96DC90EF92FE9C899E9898AB9ABA98A
:100290004458654806782768C018E1088238A328C2
:1002A0007DCB5CDB3FEB1EFBF98BD89BBBAB9ABBDA
:1002B000754A545A376A167AF10AD01AB32A923A12
:1002C0002EFD0FED6CDD4DCDAABD8BADE89DC98D2A
:1002D000267C076C645C454CA23C832CE01CC10C62
:1002E0001FEF3EFF5DCF7CDF9BAFBABFD98FF89F7A
:1002F000176E367E554E745E932EB23ED10EF01EB2
:1003000000010203040506070809AAAAAAAAAAAAC4
:100310000A0B0C0D0E0F10111213AAAAAAAAAAAA50
:100320001415161718191A1B1C1DAAAAAAAAAAAADC
:100330001E1F2021222324252627AAAAAAAAAAAA68
:1003400028292A2B2C2D2E2F3031AAAAAAAAAAAAF4
:1003500032333435363738393A3BAAAAAAAAAAAA80
:100360003C3D3E3F404142434445AAAAAAAAAAAA0C
:10037000464748494A4B4C4D4E4FAAAAAAAAAAAA98
:1003800050515253545556575859AAAAAAAAAAAA24
:0A0390005A5B5C5D5E5F60616263B2
:10039C0000010203040506070809101112131415B5
:1003AC001617181920212223242526272829303115
:1003BC003233343536373839404142434445464769
:1003CC0048495051525354555657585960616263BD
:1003DC00646566676869707172737475767778791D
:1003EC008081828384858687888990919293949565
:1003FC0096979899FFFFFFFFFFFFFFFFFFFFFFFF9F
:10040C00FFFFFFFFFFFFFFFFFFFFFFFFFFFFFFFFF0
:10041C00FFFFFFFFFFFFFFFFFFFFFFFFFFFFFFFFE0
:10042C00FFFFFFFFFFFFFFFFFFFFFFFFFFFFFFFFD0
:10043C00FFFFFFFFFFFFFFFFFFFFFFFFFFFFFFFFC0
:10044C00FFFFFFFFFFFFFFFFFFFFFFFFFFFFFFFFB0
:10045C00FFFFFFFFFFFFFFFFFFFFFFFFFFFFFFFFA0
:10046C00FFFFFFFFFFFFFFFFFFFFFFFFFFFFFFFF90
:10047C00FFFFFFFFFFFFFFFFFFFFFFFFFFFFFFFF80
:10048C00FFFFFFFFFFFFFFFFFFFFFFFFFFFFFFFF70
:10049C00FFFFFFFFFFFFFFFFFFFFFFFFFFFFFFFF60
:1004AC00FFFFFFFFFFFFFFFFFFFFFFFFFFFFFFFF50
:1004BC00FFFFFFFFFFFFFFFFFFFFFFFFFFFFFFFF40
:1004CC00FFFFFFFFFFFFFFFFFFFFFFFFFFFFFFFF30
:1004DC00FFFFFFFFFFFFFFFFFFFFFFFFFFFFFFFF20
:1004EC00FFFFFFFFFFFFFFFFFFFFFFFFFFFFFFFF10
:1004FC00FFFFFFFFFFFFFFFFFFFFFFFFFFFFFFFF00
:10050C00FFFFFFFFFFFFFFFFFFFFFFFFFFFFFFFFEF
:10051C00FFFFFFFFFFFFFFFFFFFFFFFFFFFFFFFFDF
:10052C00FFFFFFFFFFFFFFFFFFFFFFFFFFFFFFFFCF
:10053C00FFFFFFFFFFFFFFFFFFFFFFFFFFFFFFFFBF
:10054C00FFFFFFFFFFFFFFFFFFFFFFFFFFFFFFFFAF
:10055C00FFFFFFFFFFFFFFFFFFFFFFFFFFFFFFFF9F
:10056C00FFFFFFFFFFFFFFFFFFFFFFFFFFFFFFFF8F
:10057C00FFFFFFFFFFFFFFFFFFFFFFFFFFFFFFFF7F
:10058C00FFFFFFFFFFFFFFFFFFFFFFFFFFFFFFFF6F
:10059C00FFFFFFFFFFFFFFFFFFFFFFFFFFFFFFFF5F
:1005AC00FFFFFFFFFFFFFFFFFFFFFFFFFFFFFFFF4F
:1005BC00FFFFFFFFFFFFFFFFFFFFFFFFFFFFFFFF3F
:1005CC00FFFFFFFFFFFFFFFFFFFFFFFFFFFFFFFF2F
:1005DC00FFFFFFFFFFFFFFFFFFFFFFFFFFFFFFFF1F
:1005EC00FFFFFFFFFFFFFFFFFFFFFFFFFFFFFFFF0F
:1005FC00FFFFFFFFE76670100809E766700A08093D
:10060C00E76670040809E76622E066701008A3E04C
:10061C0066700A08A3E066700408A3E06622E493FF
:10062C006670130874019366700C087402936670FC
:10063C0005087403936622C3E09608A3E09608A30A
:10064C00E09608A3E096A2D265D03322C021C3E481
:10065C009396F5210874019396422108740293969F
:10066C00422108740393964221A2D265D033E5212E
:10067C007001D3D02122C3E7960809E7960809E751
:10068C00960809E79622C3E09608A3E09608A3E033
:10069C009608A3E09622C021C3E096F52108A3E0BA
:1006AC0096422108A3E096422108A3E096452170CA
:1006BC0001D3D02122C021C3E49396F52108740103
:1006CC0093964221087402939642210874039396E0
:1006DC0045217001D3D02122080808EAC0E0EBC004
:1006EC00E086F0E7A4FA180986F0E7A42AFA1809BC
:1006FC0086F0E7A42AFA180986F0E7A42AFA1986E4
:10070C00F0E7A4FBE5F02AFA190886F0E7A42BFB26
:10071C00E5F03AFA190886F0E7A42BFBE5F03AFA73
:10072C0018180986F0E7A4C5F02BFBE43AFA19086F
:10073C00E7C5F0C6A426F6E5F03BFBE43AFA1886CA
:10074C00F0E7A4F6E5F00826F6E43B08F6E43A08F0
:10075C00F6D0E0FBD0E0FA22E4CFC0E0E4CEC0E07B
:10076C00E4CDC0E0E4CCC0E075F020E626F608E667
:10077C0033F608E633F608E633F6181818EC33FCB3
:10078C00ED33FDEE33FEEF33FFC3EC9709ED970924
:10079C00EE9709EF97191919400FFFEC97FC09ED2B
:1007AC0097FD09EE97FE191906D5F0BFECF709ED88
:1007BC00F709EEF709EFF7191919D0E0FCD0E0FDB5
:1007CC00D0E0FED0E0FF2212083B18181812076484
:1007DC0012082A1919192212082A191919080808B5
:1007EC00E618181820E7E012076412083B181818CE
:1007FC0022090909E719191920E7DC080808E61885
:10080C00181820E70302076412083B18181812077F
:10081C006412083B18181812082A19191922E4C373
:10082C0097F709E497F709E497F709E497F722E4B7
:10083C00C396F608E496F608E496F608E496F622D3
:10084C00C6F4C608C6F4C608C6F4C608C6F4C62262
:10085C006016080808C6C313C618C613C618C613F4
:10086C00C618C613C6D5E0EA22700908080822602B
:10087C0016181818C6C333C608C633C608C633C6FE
:10088C0008C633C6D5E0EA22E627F60809E637F6AD
:10089C000809E637F60809E637F622E026F608A33B
:1008AC00E036F608A3E036F608A3E036F622E49329
:1008BC0026F60874019336F60874029336F608741B
:1008CC00039336F622E026F008A3E036F008A3E006
:1008DC0036F008A3E036F022C3E697F60809E6974F
:1008EC00F60809E697F60809E697F622C3E0C696DD
:1008FC00F608A3E0C696F608A3E0C696F608A3E0B1
:10090C00C696F622C3E096F008A3E096F008A3E0A2
:10091C0096F008A3E096F022E056F608A3E056F60F
:10092C0008A3E056F608A3E056F622E49356F60820
:10093C0074019356F60874029356F6087403935692
:10094C00F622E056F008A3E056F008A3E056F008B3
:10095C00A3E056F022E647F60809E647F60809E652
:10096C0047F60809E647F622E49346F60874019325
:10097C0046F60874029346F60874039346F622E092
:10098C00F608A3E0F608A3E0F608A3E0F622E49349
:10099C00F608740193F608740293F608740393F640
:1009AC0022E6F008A3E6F008A3E6F008A3E6F0229E
:1009BC00E0FAA3E0FBA3E0FCA3E0FD22EAF0A3EB4A
:1009CC00F0A3ECF0A3EDF022E0FCA3E0FDA3E0FE2D
:1009DC00A3E0FF22E0F8A3E0F9A3E0FAA3E0FB22F6
:1009EC00E8F0A3E9F0A3EAF0A3EBF022CAC0E0E63A
:1009FC00F0A308DAFAD0E0FA22CAC0E0E0A3C5827C
:100A0C00CCC582C583CDC583F0A3C582CCC582C5B8
:100A1C0083CDC583DAE6D0E0CA22CAC0E0E493A352
:100A2C00C582CCC582C583CDC583F0A3C582CCC598
:100A3C0082C583CDC583DAE5D0E0CA22C3E498F839
:100A4C00E499F9120A898026C3E49AFAE49BFBE93B
:100A5C0020E7E9120A89E498F8E499F922C3E498AA
:100A6C00F8E499F9120A89E498F8E499F9C3E49A3C
:100A7C00FAE49BFB22EB20E7CFE920E7E0B900107A
:100A8C00BB0008E88AF084F8AAF022E4FBC8FA223A
:100A9C00EB70227B10C833C8C933C9335007C39AD3
:100AAC00C3DBF280069A50012ADBEAC833F4C8C9CA
:100ABC0033F4C9FA2275F008E4C833C8C933C93312
:100ACC00C99AC99B5004C92AC93BD5F0ECFBC83361
:100ADC00F4C8E4C9FA22600D08C6A2E713C618C60A
:100AEC0013C6D5E0F322600C08C6C313C618C61390
:100AFC00C6D5E0F422700422600D18C6C333C608B4
:100B0C00C633C6D5E0F41822253110AF08F53140B4
:100B1C000C15328008F53140021532D2AF2200C0DC
:100B2C00D0253110AF08F531500C05328008F53165
:100B3C0050020532D2AFD0D0222531F58210AF0849
:100B4C00F531400C15328008F53140021532D2AF28
:100B5C00853283222531F582E43532F58322253125
:100B6C00F8E43532F9222531FAE43532FB2225310D
:100B7C00FCE43532FD22E4732531C582C0E0E53258
:100B8C0034FFC583C0E0E531C3958224F910AF086A
:100B9C008583328582318008858332858231D2AF5C
:100BAC00CEF0A3E520F0A37821E608F0A3DEFAEF5F
:100BBC00F0A3E58124FBF8E608F0A3E608F0A3080F
:100BCC0008E608F0A3E608F0A315811581D0E0FE35
:100BDC00D0E0F815811581E8C0E0EEC0E022853246
:100BEC0083853182E0A3FEE0A3F5207821E0A3F613
:100BFC0008DFFAE0A3FFE0A3C0E0E0A3C0E0E0A3BD
:100C0C00C0E0E0A3C0E010AF08858231858332805C
:100C1C0008858231858332D2AFD083D0822274048E
:100C2C008006740280027401C0E0F404120B45D0FB
:100C3C00E01209F8227404800474028000CCC0E035
:100C4C00EDC0E0E531C39CCCAD3250011D10AF06B8
:100C5C008C318D3280068C318D32D2AF120A05D098
:100C6C00E0FDD0E0FC2274048000CCC0E0EDC0E0DC
:100C7C00E531C39CCCAD3250011D10AF068C318DCB
:100C8C003280068C318D32D2AF120A26D0E0FDD0E4
:030C9C00E0FC2257
:0D11C0004431343346393832315330330076
:1011CE00010A000000600000002001000001000084
:1011DE00000000000064000000E482F282F522D5D7
:1011EE00A2EBA2C00000003F065B4F666D7D077F3D
:1011FE006F777C395E79710006060606FFFFFFFFEA
:10120E0000029000FF0000000F0000000000080028
:10121E0000004000000001001FF100040706060652
:10122E00B83E24031F1C1F1E1F1E1F1F1E1F1E1F26
:10123E000605030006030300050004180000003C29
:10124E000000008051010080D6E3018151010007AA
:10125E00000000E02E0C0110270A01401F08018833
:10126E00130501B80B0301D0070201E8030A0A00B7
:10127E0019400A800C200A6009180A4006100AB0AC
:10128E00040C0A2003080AF401050A9001040AC896
:10129E0000020A6400010A51000000D96204019C98
:1012AE003C1D91BC749388C8000000080000001318
:1012BE00000000050000005F00000070000000103C
:1012CE00000000EAF48F0416322C044006C05D883C
:1012DE0013AC73F802E3244F19001BB70067EBE35E
:1012EE0005000000000000000000000000000000EB
:1012FE000000000000000000000000000000007070
:10130E006562017065620185A3B365CCCC4E1CCCC1
:10131E00CC4E1C00000000000000000C4006C05D1A
:10132E008813AC73F802E3244F19001BB70067EB68
:10133E00E3050000000000000000000000000000B7
:10134E00000000000000000000000000000000008F
:10135E00706562017065620185A3B365CCCC4E1CCD
:10136E00CCCC4E1C00000000000000000C123456C5
:10137E00781111111111110405050204051A3C1EF4
:10138E0000000505143C050250000000000002009C
:10139E0000000000000000CD1300004717000037CA
:1013AE000100000040060004202000014404000259
:1013BE0044040000440400114404001244040010CC
:1013CE00440400214404002244040020440400315B
:1013DE0044040032440400304404004144040042FA
:1013EE004404004044048001A302002C01000006C6
:1013FE000000000020400000000400E0010000009A
:10140E00320000A30B00001A000000120000003290
:10141E000000001F000000E02B3F0010B33C0091C5
:10142E00572C0016000000040C080E060E0A100CB5
:10143E001410160E16121800100000FFFFFF030303
:10144E000E0E050F0E010D0E040810209999999994
:10145E0099996162636465660040000B0040AA8042
:10146E000048474000484FC00EE00E041900061019
:10147E0001204001010156414100F07C7C7CFC7C46
:10148E000807060212000411090103100520480482
:10149E0000BF480440244814412C4811412A4811E9
:1014AE00C12F393F7A5F206F557F10393902F758B7
:1014BE006C2222638387223E3E638387223E213D38
:1014CE003D9291918491912D2D5E605F6C15150961
:1014DE00222270637C803E94947C803E9494020120
:1014EE00021F6C6C637F7878028132787802816398
:1014FE007478780281327478788E8E0281810282BD
:10150E0082022E423B362B1F1F01010005041303DE
:10151E0000003009798D0000C1140302010005039B
:10152E00330300003009798D0000C7140305010054
:10153E00800A000000000F270000000000000306D4
:10154E00010705053B030000A70C998F0000000062
:10155E000308010009053B030000AF0C998F000042
:10156E0000000109010009053B030000B30C998F2F
:10157E0000000000010C0100050733038000300954
:10158E00798D00000000030F010041012B03800044
:10159E00BB0D829000000000030102040501310220
:1015AE000000540EE4900000000003050200050A3E
:1015BE0031020000580EE490000000000307020004
:1015CE000501310200005A0EE490000000000108EF
:1015DE000200050110000000030E200001C00000F3
:1015EE0003010300050111000000100E630001C08D
:1015FE000000030203000501110000005F0E14003D
:10160E0005C00000030303000501110000005D0E7C
:10161E00020000C0000003040300050111000000D9
:10162E005E0E040000C0000003050300050111005A
:10163E000000110E630001C000000306030709231A
:10164E0019000000930C3F420F88000003080300AE
:10165E00050111000000600E1E0005C00000030110
:10166E000400058613030000850C6D8C000000003D
:10167E00030204002986130300007F0C6D8C00000A
:10168E00CF140303040005A012000000120E000088
:10169E0000000000030404078001010180003C1ECD
:1016AE006491000000000309040080130101000191
:1016BE00361E4EBA00000715030B0400808A020185
:1016CE000000411E4EBA00000000030C0400808A88
:1016DE0002010000AB1E4EBA00000000030D040014
:1016EE00809002010000B51E4EBA00000000030EED
:1016FE000400288613030000790C6D8C0000D214B0
:10170E00030F0400050B12000000320E0000000053
:10171E00000003010507800204000000DE0900003E
:10172E000000000003080500800404000000BF0D47
:10173E000000000000000301060005013002000059
:10174E00530E7692000000000301070005011002FF
:10175E0000000D0EF48500000000030307000501D4
:10176E00100200000E0EF4850000000003050700B5
:10177E000501100200000F0EF485000000000301A9
:10178E0008000501300200005B0ECC920000000044
:10179E00030208000501310200005C0ECC9200002D
:1017AE00000003010906050110020000490E3D93D9
:1017BE000000000003010A00050413020000DF0D03
:1017CE00BAB90000000003020A05050A1100000064
:1017DE004F0E3C0001C0000003010B0305821702EF
:1017EE000000E30D88930000DE1403010C050504D0
:1017FE0030038000F70D2386000000000301100265
:10180E000904190047008B0CFFE0F585EC14010369
:10181E001005050419004700C30DFFE0F585000013
:10182E0001061000040418030000A30C91A200008E
:10183E00000001011100050111020000040E359493
:10184E000000000003041100050812000000050E40
:10185E000000000000000301120005051303000044
:10186E00DB0D998F0000000003021200050111022A
:10187E000000420E979400000000030312000502C0
:10188E0013020000E90DCD940000DE1403041200D3
:10189E00808400000000450E0000000000000301DF
:1018AE001400050211000000EB0D0F270080000050
:1018BE0003021400052311000000D70D3F420F80D4
:1018CE00000003031400050211000000ED0D0F27A8
:1018DE000080000003041405050111000000430EF2
:1018EE006300008000000301150080020601000065
:1018FE00CB0CF789000000000302150080020001E6
:10190E000000EE0977A20000000001031500000C94
:10191E0002030000CB0CF78900000000031FF1004A
:10192E008084000100004208BB9500000000032FD8
:10193E00F10001B902020000121E7B9600000000A9
:10194E00033FF10001FA020200004B1E7B960000DD
:10195E000000035FF10001A002020000C91E7B9689
:10196E0000000000036EF100018102000000940BE4
:10197E007B9600000000036FF10001D5020200000B
:10198E00DB0BD99600000000037FF10001900202EC
:10199E000000320CD9960000000003AFF100800465
:1019AE0000000000240800000000000003CEF1003B
:1019BE00010202020000FF0B5B970000000003CF44
:1019CE00F100010202020000030C5B970000000010
:1019DE0003DEF100010202020000010C5B97000021
:1019EE00000003DFF100010202020000050C5B970C
:1019FE000000000003EFF100010202020000070CDC
:101A0E005B97000000000301F30001810202000059
:101A1E00C91E7EB7000000000302F3000186020318
:101A2E0000000000B0B7000000000303F3000186C1
:101A3E0002030000320C63B8000000000304F30040
:101A4E00010211000000380B000000000000030529
:101A5E00F300018402020000730C30B90000000094
:101A6E000306F300410832038000610EEBBA00005A
:101A7E0000000307F300019102020000CB0E82BBAF
:101A8E000000000003010000802301000600050B8A
:101A9E0000000000B91403020000800201000000E3
:101AAE00340B00000000BB1403070000800201008D
:101ABE000001460B00000000D7140308000080024E
:101ACE00010000023A0B00000000DD14030A0000C2
:101ADE00800401008000130D000000000000030BC5
:101AEE0000008004010000047F0D00000000E014DF
:101AFE0001200000800401000004870D000000009A
:101B0E00E11401210000800401000004830D000097
:101B1E000000E114012200238002010100007A0B73
:101B2E00C797000000000301080005021100000025
:101B3E00F30DE80300800000030208000501110008
:101B4E000000400E63000AC00000030110000523D0
:101B5E0011000300D30D3F420F800000030210005E
:101B6E00050111000000410E63000080000003011A
:101B7E00F100050211000000F50D90010080D51452
:101B8E00030AF100050411000000130D0F27008059
:101B9E00D5140300484040044816001A4816800029
:101BAE004840C0004840400448040008483C410CEE
:101BBE00483C410040FF0F08483C410C483C410066
:101BCE0040FFBF004840400448088000480400041D
:101BDE00484040084840C000484040044804800047
:101BEE0048404004480580040040400048404008FA
:101BFE00003C410C003C410040FF0F04483C4108B2
:101C0E00483C410040FF8F00484040044809800492
:101C1E00004040004840401000010008003C410CCC
:101C2E00003C4104483C4108483CC104004040008F
:101C3E0048404008003C410C003CC104202000F408
:101C4E00020400C4100800B8030480004848400491
:101C5E0048344108483C410C483C4110483CC100C6
:101C6E00484040044808400C4801000D4805401209
:101C7E004802401448144116483C411A483C411E43
:101C8E00483CC100483C4108483C4110483C411882
:101C9E00483C4120483CC100483841004838410189
:101CAE0040FF91001100630CC09C03013000166AC6
:101CBE00029D03033000170E099D03043000181017
:101CCE00109D030530001900179D030630001A5EA3
:101CDE005B9E030730001B0B479F030830001C0060
:101CEE004E9F030930001E0B479F030C30001F1040
:101CFE006DA0030D3000533CFAA0030F30000C2AE8
:101D0E000FA2011030000D8A49A201123000120FED
:101D1E004DA1031330000B246FA3010133060900FC
:101D2E0076A3010034000A1368A301003600621D79
:101D3E0054A1030037006114BAA10300A0002406C9
:101D4E00FB9C0301A0002510109D0347638D8F8F10
:101D5E004763758F8F00484D4004483CC1637C7BC0
:101D6E007B777E6363637A7E7E0C04080281327415
:101D7E007C7B7B028132747C7B777E7E0281327427
:101D8E007C7B7A7E7E333345666861605F5F463862
:101D9E00384B5E66605F67672D0A0A00029000038B
:101DAE000102900003010100040302010004030C70
:101DBE0001000403010400040302040004030400F0
:101DCE0080040300FF00000300FF01000300FF0278
:101DDE00000300000B000300000C000300000D00C8
:101DEE000140000000040000003B0000000E000057
:101DFE00000014300300FFFF00000030000101015D
:101E0E00090714034550534F4E31314C2053657022
:101E1E0020313320323031392031323A32323A35B4
:101E2E003700000000600057B004B9009808320077
:101E3E0058021444445A595858582D4D0044445A87
:101E4E00595858582D4D00000000000000000000A9
:101E5E000000000000000000000000000044445A92
:101E6E00595858582D4D0000000000000000000089
:101E7E00000000000000000000000000005858584C
:101E8E0058000000000000000000000000000000EC
:101E9E0000000000000000000000000000323031A1
:101EAE00362D58582D5858444C2F543634352D3223
:101EBE003030372D31340077013355006400000087
:101ECE0078020014122501AAAAAAAAAAAAAAAA00EE
:101EDE0000000000000000000000000000000000F4
:101EEE0000000000000000000000000044445A59A9
:101EFE00585858432D4D44445A59585858432D4D0F
:101F0E0000000000000000000000000000000000C3
:101F1E0000000000000044445A59585858432D4DB3
:101F2E0000000000000000000000000000000000A3
:101F3E0000000000000044445A595858584300000D
:101F4E0044445A59585858430000000000000000FD
:101F5E000000000000000000000000000000000073
:101F6E0044445A59585858430000000000000000DD
:101F7E000000000000000000000000000000000053
:101F8E0044445A595858582D4D0044445A5958589B
:101F9E00582D4D0000000000000000000000000061
:101FAE000000000000000000000044445A59585838
:101FBE00582D4D0000000000000000000000000041
:101FCE000000000000000000000044445A59585818
:101FDE005800000044445A59585858000000000058
:101FEE0000000000000000000000000000000000E3
:101FFE000000000044445A59585858000000000090
:10200E0000000000000000000000000000000000C2
:10201E0000000000341200400000004000000000EC
:10202E000000000000000000000000400000000062
:10203E000000000000000000000000000000000092
:10204E000000000000000000000000000000000082
:10205E000000000000000000000000000000000072
:10206E000000000000000000006000000000000002
:10207E000000000000000000000000000000000052
:10208E00000000007200B1014DE8FFFF6CFDFFFF84
:10209E000000000000000000000000000000000032
:1020AE000000000000000000000000007701335522
:1020BE0000000000000000000000000000011111EF
:1020CE0011111111F4010000640000000100000064
:1020DE0001000000204E0000000000000000000083
:1020EE0000000000000000000000000000000000E2
:1020FE00000080110000001F000000000000000022
:10210E0000000000000000000000000000000000C1
:10211E0000000000000000000000000000000000B1
:10212E0000000000000000000000000000000000A1
:10213E000000000000000000000000000000000091
:10214E000000000000000000000000000000000081
:10215E0000000000000000004088A0004088A000A1
:10216E004088A000000000000000000000000000F9
:10217E000000000000000000000000000000000051
:10218E000000000000000000000000000000000041
:10219E000000000000000000000000000000000031
:1021AE000000000000000000000000000100000020
:1021BE000000000000000000000000000000000011
:1021CE000000000000000000000000000000000001
:1021DE0000000000000000000000000000000000F1
:1021EE0000000000000000000000000000000000E1
:1021FE00000000000010000800000000E8030000CE
:10220E00FFE0F505C8000000000000002C000000F3
:10221E00307500000049D1120000010101009999AA
:10222E00999900000000A00500000000580204016A
:10223E0000000000025634120478563414000004D4
:10224E00100000000200040808071B000000000038
:10225E000000000000000000000000000000000070
:10226E000000000000000000000000000000000060
:10227E000000000000003C3C3C3C0A3C1E1E9999AC
:10228E0012000F83838303830F0F0F0F05020208C3
:10229E00040000007F0102040505FFFFFFFFFFFFA2
:1022AE00FFFF000000000000000000000000000022
:1022BE000000000000000000000000000000000010
:1022CE000000000000000000000000000000000000
:1022DE0000000000000000000000000000000000F0
:1022EE0000000000000000000000000000000000E0
:1022FE0000000000000000000000000000000000D0
:10230E0000000000000000000000000000000000BF
:10231E000000000000161102120C120C120C120C0E
:10232E00120C120C120C120C120C120C120C120CAF
:10233E00120C1102120C120C120C120C120C120CAA
:10234E00120C120C120C120C120C120C120C881312
:10235E0000241300C012005C1200000000000000F8
:10236E00000000000000000000000000000000005F
:10237E00000000000000000000000000000000004F
:10238E00000000000000000000000000000000003F
:10239E00000000000000000000000000000000002F
:1023AE000000000000000000000000000000881384
:1023BE0000241300C012005C120000000000000098
:1023CE0000000000000000000000000000000000FF
:1023DE0000000000000000000000000000000000EF
:1023EE0000000000000000000000000000000000DF
:1023FE0000000000000000000000000000000000CF
:10240E0000000000000000000000000000000100BD
:10241E008216032D8443015A82700387849D849D06
:10242E00849D849D849D849D849D000000000000F9
:10243E00000000000000000000000000000000008E
:10244E00000000000000000000000000000000007E
:10245E00000000000000009999999999999999990D
:10246E00999999000000BE051246843F0569004007
:10247E00BE0340000000000002FA029000000002BD
:10248E009000000000000000000000000006120195
:10249E00010004000201000400200080020000027E
:1024AE0090000000000B0000000000000000000083
:1024BE00000000000000000000000000000000000E
:1024CE00000101000400020100040020008002004F
:1024DE000002900000000000000001000000000E4D
:1024EE00040004010E0400040002040004010204AE
:1024FE0000040000010102000001020200000103BD
:10250E000200010B00040009040004000200800216
:10251E000002140004000314000400000000000078
:10252E00000000000000000000000000000000009D
:10253E00000000000000000000000000000000008D
:10254E00000000000000000000000000000000007D
:10255E00000000000000000000000000000000006D
:10256E00000000000000000000000000000000005D
:10257E00000000000000000000000000000000004D
:10258E000000000000000000000517000000000021
:10259E000001000000000200000000030000000027
:1025AE000400000000000000000000000000000019
:1025BE00000000000000000000000000000000000D
:1025CE0000000001000000000200000000030000F7
:1025DE0000000400000001000000000101000000E6
:1025EE0001020000000103000000010400000002CF
:1025FE0000000000020100000002020000000203C1
:10260E0000000002040000000104000401010400A7
:10261E000400010100040002010004000001010297
:10262E000000010202000001030200000106020088
:10263E00000000000000000000000000000000008C
:10264E00000000000000000000000000000000007C
:10265E00000000000000000000000000000000006C
:10266E00000000000000000000000000000000005C
:10267E00000000000000000000000000000000004C
:10268E0000000000001FF10004070606060002907D
:10269E000015222D3E7F8286898A10110B315C64D3
:1026AE005D654A0200004B0200004D024F025102CE
:1026BE00050404090903039494797D7D7981817958
:1026CE0085851C1C5B5B0193935302560259025C79
:1026DE00025E02600257027C7B7BF40204800006DD
:1026EE00030300050004FFFFFFFFFF9999999999D5
:1026FE0099616263646566000000000000000000DE
:10270E0000805E666861605F673F6B6D5958526C02
:10271E004C46484F4E4D47403A3C4342413B342A8B
:10272E002C3736352B241E202726251F1812141B56
:10273E001A19130C06080F0E0D074944454B51503C
:10274E004A0000000001000000010003000200002A
:10275E0000070040000C0000000703040002003FC9
:10276E00040F03080004003F042F03300002003F53
:10277E00048F03300002003F04EF03300002003FDD
:10278E00044F04300002003F04AF04180014000090
:10279E00008F0614000A000000570722000A0013DB
:1027AE0004AB0820000A000000EB097C000A0000C0
:1027BE0000C30E300003003F04530F300002003FF1
:1027CE0004B30F38000200370423100C0002006F10
:1027DE00043B1010000A009704DB100C0014006F6D
:1027EE0004CB1110001400B7040B1330000A0000C4
:1027FE0000EB1410000A00A7048B150C000A000051
:10280E000003160C000A0000007B1628000A0000C8
:10281E00000B1828000A0000009B190C000A00008B
:10282E0000131A0C000A0000008B1A18000A000090
:10283E00007B1B0C000A000000F31B0C000A0000BA
:10284E00006B1C180014007B044B1E0C0014006F50
:10285E00043B1F0C001400C7042B2004001400744A
:10286E00027B200400050074028F200C000500007E
:10287E0000CB20040002000000F40204001805083A
:10288E0000C4030100C5030500CA030240C41002C0
:10289E0000B80304000144040002440480C4100282
:1028AE0000B40304008F0304002504040001440453
:1028BE0000024404001144040012440400214404A4
:1028CE000022440400314404003244040041440414
:1028DE00004244048000003300014404000244041A
:1028EE0080F4020400014404000244040077040250
:1028FE0000A004030025040300FA030280F402334F
:10290E0000C011040028120100180504C000003395
:10291E000038050400014404000244048000003322
:10292E0000C011040001440400024404808F03041B
:10293E0000014404000244048000400000A0000096
:10294E00400000FEFFFFFF02785634120149D112FB
:10295E0047276267C082C083E9FB74FF2B190460AE
:10296E001A7A00800808E8C3941440F90A900325E7
:10297E00E0F8EAC39850E1780080EBD083D0822251
:10298E00C082C0838A828B83A3E0F98A828B83E024
:10299E00FAE9FBD083D0822274F7120B84EAFCEBA7
:1029AE00FDE9FE7A557B55802FEAF9EBFA8C828D84
:1029BE0083E0F521EA652125E0FAE433FBE42AF50C
:1029CE008274013BF583E493FAA3E49369FB8C8252
:1029DE008D83A3AC82AD831EEE70CE7F02020BEA16
:1029EE00C082C083801C8C828D83E08A828B83F0B0
:1029FE008C828D83A3AC82AD838A828B83A3AA82C1
:102A0E00AB83E9F874FF28190470DBD083D08222DF
:102A1E00C082C083800BE98A828B83F0A3AA82AB2B
:102A2E0083ECF874FF281C0470ECD083D0822279DA
:102A3E0028E9FA74FF2A1904600C7800E8C3941E82
:102A4E0050EF000880F62279002274F1120B847484
:102A5E00FF120B148A218B22853182853283E4F09A
:102A6E00F525F52680080525E52570020526C3E522
:102A7E00259403E52694005034E004F08521278543
:102A8E002228E528547FFF122C0379A0122BA8E9E7
:102A9E0070D4EFF9122BA8E970CCA927122BA8E954
:102AAE0070C4122C0379A1122BA8E970B9752500F8
:102ABE007526007410120B60E0FEA3E0FF74121274
:102ACE000B60E0F521A3E0F5228010122C44A3AE9A
:102ADE0082AF830525E52570020526C3E5259521E0
:102AEE00E52695225022122B6FE98E828F83F0E518
:102AFE002124FFF8E52234FFF9E865257003E96526
:102B0E002670C8122C3580C6122C19122A3D43A6E7
:102B1E000243A604853182853283E0C3940390027A
:102B2E0052E040074408F07902800554F7F079002E
:102B3E007401120B2A7F08020BEA74F3120B8475D0
:102B4E0025027526007825120C2E740F120B6012BA
:102B5E000C45122A587404120B2A79007F06020BB8
:102B6E00EAC082C08353A6FB43A40243A50290028F
:102B7E0001E4F0F88014000043A604E0C333F0E54E
:102B8E00A7A2E15004E0D2E0F008E8C3940853A6EF
:102B9E00FB40E3E0F9D083D08222C082C083E9906B
:102BAE000202F053A6FB53A6FD7800800F53A6FD3C
:102BBE00E0C333F0000043A604000008E8C3940805
:102BCE0053A6FB500AE0A2E750E343A60280E100C1
:102BDE000043A40243A50243A6040000E5A7A2E118
:102BEE005004D2F08002C2F0A2F0E433F953A6FBF7
:102BFE00D083D0822253A6FB43A60243A604000034
:102C0E0053A6FD000053A6FB00002253A6FB53A6BD
:102C1E00FD000043A604000043A602000043A402E8
:102C2E0043A50253A6FB2253A6FB43A60243A604CA
:102C3E00000053A6FB2253A6FB53A6FD43A6040099
:102C4E000053A6FB22C082C083E9701C900203745D
:102C5E00FFF0900208E4F0A3F0900207F090020457
:102C6E007403F0A3E4F0A3F0D083D08222C082C01C
:102C7E0083E4801B900205E06013E014F0E0700D19
:102C8E009002047404F09003C1E04410F0740160EB
:102C9E00E3D083D0822274F8120B8490024D74FF1D
:102CAE00F0A3F0A3F0A3740FF07F01020BEA125110
:102CBE00C9022CC22274F8120B8490027DE4F090AB
:102CCE00026EF0900273F0A3F0A3F0A3F090026FE7
:102CDE00F0A3F0A3F0A3F0900277F0A3F0A3F0A37B
:102CEE00F090027BF0F9122D3A7F01020BEAC082BE
:102CFE00C083C2AF900268E02401F0A3E03400F07C
:102D0E00D2AFD083D08222C082C083900264E024EE
:102D1E0001F0A3E03400F0900268E0F8A3E0F9902F
:102D2E000266E8F0A3E9F0D083D0822274F8120B89
:102D3E0084E970117C0A79007A647B02122A1E9053
:102D4E00027CE4803CC2AF900266E0F8A3E0F9A3F7
:102D5E00C3E098F0A3E099F0900264E4F0A3F0A32E
:102D6E00F0A3F0D2AFA3C3E09409A3E09407400907
:102D7E009002687408F0A314F0A3E4F0A3F0A3F09B
:102D8E00A3F07F01020BEAC082C083902955E0F8C0
:102D9E00900B99E0C398403A90098FE0C413540702
:102DAE00540364017901600512377680081236F3F8
:102DBE00790112360A900978743CF0900E11E09069
:102DCE00097BF09009AE743CF0A3E4F012560F129A
:102DDE00316990098DE054DFF0D083D0822274F3F4
:102DEE00120B8490098FE0FAA3E0FBEAA2E0503CBC
:102DFE00900994E054027039EA5410702F9009AF84
:102E0E00E07029900DBB782112098B852226E526CC
:102E1E0054107010EB5402600BE52154027005EB58
:102E2E00540180069009E2E05410600543A620800C
:102E3E000353A6DF53A5DF53A4DFEAA2E0500890A8
:102E4E000994E054026003022EE9EA541060030272
:102E5E002EE4EAC41354075403707B9009B2E07059
:102E6E00759009AFE0706F9009AEE07069900991AE
:102E7E00E0F521A3E0F52274067821120AF2E5218D
:102E8E0054077052900DA31209E0E8494A4B6006B0
:102E9E00900945E06040900D9F1209E0E8494A4BC9
:102EAE00703490247CC082C0839009DE7821120990
:102EBE008BD083D082E4935521F8A3E4935522F965
:102ECE00E8497012901206782112099A90097178C9
:102EDE0021120615700543A608800353A6F753A5C5
:102EEE00F753A4F77F06020BEAC082C083E9C394AE
:102EFE005750287401C0E0740759F8D0E0B80002AA
:102F0E008004C333D8FCF8E9131313541FFA744624
:102F1E002AF582E43409F583E048F0D083D082228A
:102F2E00C082C083E9C3945750297401C0E074076E
:102F3E0059F8D0E0B800028004C333D8FCF4F8E9A5
:102F4E00131313541FFA74462AF582E43409F583D9
:102F5E00E058F0D083D0822274F3120B8474F529DA
:102F6E00F582E43411F583E493F525EA75F007A4B0
:102F7E00F8A9F0741028FE742739FF752600800515
:102F8E00122F2E0526E526C394075027852621EEFF
:102F9E002521F582E43FF583E493F98525217522F9
:102FAE0000E5267821120AE2E521A2E050D2122E87
:102FBE00F780D07F06020BEA74F7120B849009910A
:102FCE00E05402607BEA4B60777E0080010E743C19
:102FDE002EF8E43406F9E82415FCE93403FD8C825E
:102FEE008D83E0FFE82416F582E93403F583E06F64
:102FFE0070DB8C828D83E0F460010EEEC3941E5064
:10300E003F8A828B83E493FC743C2EF8E43406F9F9
:10301E00ECC0E0E82415F582E93403F583D0E0F046
:10302E008A828B83A3AA82AB83E493FDEC6D70CA74
:10303E00EDC0E0E82416F582E93403F583D0E0F024
:10304E007F02020BEAC082C0838A828B83E4939054
:10305E000976F0A3E4F08A828B83A3AA82AB831253
:10306E002FC6D083D0822274F7120B84E9FE90090A
:10307E0091E0540260299009767449F0A3E4F0EED1
:10308E00C39405501074A329F582E43426F583E425
:10309E0093900951F0122FC67AE57B26122FC67F28
:1030AE0002020BEA74F7120B8474EC120B14A831A3
:1030BE00A93288218922AE21AF22752114752200F2
:1030CE007821120C2EEAFCEBFD7402120B721277B1
:1030DE00717402120B2A853182853283E0700E7470
:1030EE0001120B60E070068048E8FEE9FF8E828FC9
:1030FE0083E0F87401687043A3AE82AF8390098FAA
:10310E00E05401F8A3E05401F97401687001E9601C
:10311E00098E828F83E0F9122EF78E828F83A3A8F9
:10312E0082A9838E828F83E0FA88828983E06A7017
:10313E00B87414120B2A7F02020BEA74026870D163
:10314E00A3AE82AF83E0F8C4540FFA740F58F9742B
:10315E000F6970027910122F6680BF74F1120B8402
:10316E0074F0120B147C0B7D007A467B0912DA6325
:10317E0090120A782112099AAA21AB22AC23AD240F
:10318E0012DCB1E970107C0B7D0079FF7A467B0969
:10319E0012DB8E0235FD90098FE05481F8A3E054C6
:1031AE0001F97481684970030235FD9003ECE53135
:1031BE00F0A3E532F07C207D0079FF7A517B091275
:1031CE00DB8E90098FE054F7F0900976E4F0A3F0CF
:1031DE00900991E04402F07A717B0912A490E054B8
:1031EE00FDF0900977E0F954076006E95407048072
:1031FE000AA8319003ECE0C398C333FF790412DAC6
:10320E0091853182853283782112098B7E00900957
:10321E0076E0F8540714601B14601814605C146098
:10322E00591470030232B81470030232BD146003D5
:10323E000232C2E85408603E900E5DE0F8C394027C
:10324E005034E8FE90120E782512099AAA25AB2664
:10325E00AC27AD2812DCB1E9701890098FE0540844
:10326E007010EE70059012128003901216782112D3
:10327E0008BA740280170E0E8022E85408601B9064
:10328E000E5EE0F8C394045011E8FE7404C39E333E
:10329E003354FC782112085C80027E04900976E09B
:1032AE005440601074012EFF800A0E7F0280050EBE
:1032BE000E0E7F04EE6010749E2EF582E43426F519
:1032CE0083E493F9122EF7900976E05407F86031F3
:1032DE0074FF2825E0F8E433F974B028F5827426DB
:1032EE0039F583E493C0E0740193F583D082AA820A
:1032FE00AB83EA4B600B74742AFA74243BFB1230D6
:10330E00B27E078012EEFAE521540FF9122F667481
:10331E0004782112085C1E74FF2F1F0470E7E5214C
:10332E00452245234524703D90098FE05408604E98
:10333E00900971782112098B7410782112085C742F
:10334E0090652145227032EEFA7910122F66EE75D5
:10335E00F007A4F8A9F0741628F582742739F583BE
:10336E00E493F98016EEFAE521540FF9122F6674E4
:10337E0004782112085C1E80A57930122EF7900970
:10338E008FE0A2E040030234A5900993E054406020
:10339E0055900976E05420704D900D7EE0F8C39460
:1033AE000A502F740128FF7523048022EFC3952342
:1033BE00401A85232174AB2521F582E43426F5834A
:1033CE00E493F9122EF7E523CFC39FFF1523E523D0
:1033DE0070DA7995122EF77AB37B0C12DCF1E97064
:1033EE00057962122EF7900D74E0700302347D9011
:1033FE000976E054107078900830E0F8A3E0F58379
:10340E008882E0F521C394045021900990E0540184
:10341E0070089009EBE05402701174A82521F58212
:10342E00E43426F583E493F9122EF7900C74E064DD
:10343E00016019900E04E0A2E15011795A122EF794
:10344E007AAF7B0C12DCF1E97025801A900DBB78F7
:10345E002112098B90121A7821120937E521452283
:10346E00452345246004796F8002795A122EF79015
:10347E00097EE0602290097DE025E0F8E433F974DE
:10348E00D728F582742639F583E4932474FAA3E4DD
:10349E00933424FB1230B27A517B091230B2900968
:1034AE0045E06018900990E05402603E900DBB78A4
:1034BE002112098BE521540270308033900DA31236
:1034CE0009E0E8494A4B700C900D9F1209E0E8495B
:1034DE004A4B601B90098FE05401F8A3E05401F9A8
:1034EE0074016870037401697005798C122EF7905F
:1034FE0009DFE054406041900991E0F521A3E0F529
:10350E002274067821120AF2E5215407C39404406E
:10351E001A900DBB782112098B90121E7821120978
:10352E0037E5214522452345246008900990E05453
:10353E000160057990122EF77ABF7B0D12DD3AE904
:10354E006005796A122EF79009E0E0A2E050057945
:10355E002F122EF79009E2E054087028900DBB78D8
:10356E002112098B9012227821120937E52145226A
:10357E0045234524600E9009B5E0600D900990E05A
:10358E00540160057972122EF790098FE05401F8FC
:10359E00A3E05401F97401687001E960299009DE15
:1035AE00E0540460057928122EF7900991E0F52178
:1035BE00A3E0F52274067821120AF2E52154076081
:1035CE00057988122EF7900D10E0C39403500EA3C8
:1035DE00E0C394035007A3E0C394C8400579761264
:1035EE002EF77A0890097CE004540FF9122F661218
:1035FE00577F7410120B2A7F08020BEA74F5120B18
:10360E0084E9FE90098FE0547FF090122678211203
:10361E00099AAA21AB22AC23AD2412DCB1E97009C0
:10362E00900975E0C39402403290122A7821120953
:10363E009AAA21AB22AC23AD2412DCB1E9702490FE
:10364E000975E0FA900D74E024FFF8E434FFF9C335
:10365E00EA98E499A2D265D0335008900975E00437
:10366E00F0807D90098FE0C41354075403640170F9
:10367E000AEE700779001236F3802290097CE0047E
:10368E00F090097BE0F8A3E0C3984016EE700E7937
:10369E00001236F39009B2E06003E014F090097C5A
:1036AE00E4F07521057522007821120C2E90097C0C
:1036BE00E075F005A4F8A9F090097FE0FA75F0EF37
:1036CE00A4CAACF02CFB74272AFA74293BFBEA2817
:1036DE00FCEB39FD7A717B0912C1D67402120B2AEA
:1036EE007F04020BEA74F7120B8490098FE0549F4B
:1036FE00FAA3E0FB7403697015EA444090098FF059
:10370E00A3EBF090097A74C7F0A37402804DE9C35D
:10371E009402501C892175220074057821120B0128
:10372E00E5215460FCEA4C90098FF0A3EBF0800C7D
:10373E00EA444090098FF0A3EBF07900E990097A02
:10374E007003E480027463F0741029F582E4340E81
:10375E00F583E090097BF0E990097FF090098FE006
:10376E00547FF07F02020BEA74F8120B841236F3C8
:10377E0090097C7480F0790112360A900E5FE09009
:10378E000978F07F01020BEA74F5120B8490098F11
:10379E00E0FAA2E050559009CFE0FC900E60E025D3
:1037AE00E0F8E433F9EC98E499C365D033502A90ED
:1037BE00122E782112099A90063C78211206156075
:1037CE0018EAC41354075403F87402686003E870CF
:1037DE000890098FE04410805590063C74B8F0A311
:1037EE00743EF0A37424F0A37403F090097EE0609D
:1037FE0003E014F090098CE0602B9009AFE06003B9
:10380E00E014F09009AEE06003E014F0900978E067
:10381E0014F0E07010790012360A900E5FE09009F5
:10382E0078F012560F12316990098FE054EFF012B2
:10383E002DEC7F04020BEA74F5120B8412560F90D6
:10384E00122E782112099A90063C782112061560E4
:10385E000D7C0B7D0079FF7A467B0912DB8E1257A9
:10386E007F79001237769009AEE4F07F04020BEAFE
:10387E0074F5120B8474F8120B14AA31AB32124188
:10388E0038900B92E0A2E150309009DEE0F8A3E010
:10389E004480F99009DEE8F0A3E9F0900DBB7821A1
:1038AE0012098BE5215408700A790712E2A27903F6
:1038BE0012E1B9900944743CF07408120B2A7F048B
:1038CE00020BEA74F8120B8412387E900934E4F07D
:1038DE00A3F0A3F0A3F012BCC57F01020BEA74F1B2
:1038EE00120B8474E5120B14853182853283EAF053
:1038FE00A3EBF0A3ECF0A3EDF085318285328312B9
:10390E000C417C007D00740F120B72123CFF74048C
:10391E00120B2AAA31AB3212E23CE9FE7521037575
:10392E0022007821120C2E7410120B60AC82AD8323
:10393E007406120B7212DC397402120B2A782112E1
:10394E000C2E740D120B7A740A120B60AA82AB83C2
:10395E0012DC397402120B2A752101EE7821120B3A
:10396E00017407120B60E521F0790A12E31D74044D
:10397E00120B721241EB900B92E0C2E1F074041242
:10398E000B60E0F912DCD3E9900944F085318285B1
:10399E003283782112098B90120A78211208BA907C
:1039AE00093878211209AD782112084CA37821121A
:1039BE0009AD8531828532831209E09009301209F2
:1039CE00EC853182853283782512098B900944E08B
:1039DE00F521E4F522F523F524782579211208E462
:1039EE0090093478251209AD7A1F7B0D12DF877A84
:1039FE00237B0D12DF877A277B0D12DF879009DE7E
:103A0E00E0F8A3E0547FF99009DEE8F0A3E9F07442
:103A1E001B120B2A7F08020BEA7C037D007A307B97
:103A2E0009023A3274F1120B8474EE120B14740AFA
:103A3E00120B60ECF0A3EDF0EAFEEBFF740E120B2E
:103A4E0060E4F0A3F0A3F0A3F0740A120B60E0544C
:103A5E0003F521740365217013740C120B7212415D
:103A6E0038740D120B60E0541FF08057EE4F700348
:103A7E00023CED743E2521F582E43412F583E49385
:103A8E00F521F91278BEE964017003023CED75224E
:103A9E0000740A120B60A3E0544078216011120CDE
:103AAE002EEEFCEFFD740E120B7212DC39800F122B
:103ABE000C2EEEFCEFFD740E120B72127771740267
:103ACE00120B2A7521057522007821120C2E7C5AB4
:103ADE007D14740E120B721278807402120B2AEA85
:103AEE004B4C4D700B7AFF7BFF7CFF7DFF023CF54C
:103AFE007E00802A740C120B60E5822EF582E4356E
:103B0E0083F583E0F912DCD3E9C0E07404120B6094
:103B1E00E5822EF582E43583F583D0E0F00EEEC318
:103B2E00940640D07405120B60E014FA7404120B64
:103B3E0060E0FC75F06DA4CCA8F028FDE02403F540
:103B4E0021E43400F52274027821120AE2EC2521D8
:103B5E00F8ED3522F9E8FCE9FD853182853283ECFA
:103B6E00F0A3EDF0A3E4F0A3F0FE804374322EF543
:103B7E0082E43412F583E493F521E4F522F523F57E
:103B8E002485318285328378211208D17404120B78
:103B9E0060E05403701874016E70139011DB78217D
:103BAE0012099A85318285328378211208D10EEE60
:103BBE00C39A40B8853182853283C082C083740631
:103BCE00120B60E0F521E4F522F523F524D083D025
:103BDE008278211208A7901249782512099A782125
:103BEE0079251206E47407120B60E0F525E4F5263C
:103BFE00F527F5287821792512089490124D78250D
:103C0E0012099A782179251206E47408120B60E0E5
:103C1E00F525E4F526F527F528782179251208945F
:103C2E0090124D782512099A782179251206E4749E
:103C3E0009120B60E0F525E4F526F527F528782125
:103C4E00792512089485318285328378211209AD47
:103C5E00853182853283120C417C007D00740812FE
:103C6E000B72123CFF7404120B2A7521067522008A
:103C7E007821120C2E740E120B7A7406120B72121D
:103C8E0078807402120B2AEA4B4C4D7052740A1251
:103C9E000B60E0540CF52160117404652170167CE4
:103CAE003C7D00AA31AB3212D20985318285328336
:103CBE001209BC80327408652170248531828532E8
:103CCE0083782112098B901251782512099A782146
:103CDE007925120764AA21AB22AC23AD2480087A81
:103CEE00007B007C007D007412120B2A7F08020BF1
:103CFE00EA74F2120B8474FA120B148A258B26ECDA
:103D0E00FEEDFFEE5403FCEE1313543F5403F52760
:103D1E0074036C6003023DC2AA31AB321241387497
:103D2E00036527701C7401120B60E0C4135407F86E
:103D3E00C0E07403120B60D0E0F07407687002E408
:103D4E00F07401120B60E0541FF0A827E828F874F5
:103D5E004128FAE43412FB8A828B83A3EF5440602D
:103D6E0029E493F5217522007821120C2E8A828B7C
:103D7E0083E493F87402120B60E58228FCE4358329
:103D8E00FDAA25AB2612DC398027E493F521752296
:103D9E00007821120C2E8A828B83E493F87402121F
:103DAE000B60E58228FCE43583FDAA25AB2612774D
:103DBE007102401D7414120B601209E0E8494A4B5F
:103DCE007018A827E828F87900744228F582E434A0
:103DDE0012F583E493FC7D00802A90120A7821125A
:103DEE00099A7414120B6078211206157020A827F8
:103DFE00E828F8744228F582E43412F583E493FC43
:103E0E007D007999AA25AB2612DB8E024022740220
:103E1E00120B60E4F07403120B60E4F07404120BE6
:103E2E0060E4F07405120B60E4F0EC6005146010B1
:103E3E00803C7C3C7D007414120B7212D209EAF0A5
:103E4E007C3C7D007414120B7212D209EAC0E0742D
:103E5E0004120B60D0E0F07C187D007414120B720B
:103E6E0012D209EAC0E07403120B60D0E0F07414B1
:103E7E00120B601209E0E8494A4B7003023F7A9038
:103E8E00120A782112099A7414120B607821120802
:103E9E00D17CB57D057414120B7212D209741412F2
:103EAE000B60782112098BE521333354FC85318266
:103EBE00853283F0EA4B70117401120B607401F0BD
:103ECE0004120B607401023F8AEA24FF1AEB34FFDE
:103EDE00FB7414120B60EAF0A3EBF0A3E4F0A3F072
:103EEE007C6D7D017414120B7212D2097414120BB4
:103EFE0060782112098B853182853283E02521F08D
:103F0E00E0540370050AEA70010B7401120B60E4B1
:103F1E00800FC3EA98FAEB9400FB7401120B60E079
:103F2E0004F0E0F52174016521701085318285322F
:103F3E0083E05403700575211D800F74322521F521
:103F4E0082E43412F583E493F521852182A882C39D
:103F5E00EA98EB940050BBEA04C0E07402120B60C6
:103F6E00D0E0F07401120B60E00480108531828580
:103F7E003283E4F0A3F07402120B60E4F0752100BA
:103F8E00852123853182853283E5822523F582E4DE
:103F9E003583F583E0F912DCE1E9F00521E521C373
:103FAE00940640DCA827E828F8744128F8E4341277
:103FBE00F9E8FAE9FB8A828B83A3EF54406029E487
:103FCE0093F5217522007821120C2E8A828B83E4C0
:103FDE0093F87402120B60E58228FCE43583FDAA87
:103FEE0025AB2612DC398027E493F5217522007863
:103FFE0021120C2E8A828B83E493F87402120B60CA
:10400E00E58228FCE43583FDAA25AB261277717470
:10401E0002120B2A7406120B2A7F07020BEA74F1A6
:10402E00120B8474FA120B147402120B60EAF0A3D2
:10403E00EBF0A3ECF0A3EDF07402120B60782112FA
:10404E00098B123A278A258B268C278D2878217981
:10405E00251208E47402120B601209BC1238EC909F
:10406E001255782512099A7402120B6078251206E1
:10407E0092500479118002799112E1B985318285CD
:10408E003283749FF0A3740DF07402120B60E4F08F
:10409E00A3F0A3F0A3F08071853182853283E0F81E
:1040AE00A3E0F5838882782512098BE52545264500
:1040BE00274528602890125978251206C1501E787F
:1040CE002579211208947825120C2A7404120B609B
:1040DE00E0FAA3E0FB12DF1C7404120B2A85318276
:1040EE00853283E02404F8A3E03400F9853182851B
:1040FE003283E8F0A3E9F09011DB782512099A7467
:10410E0002120B6078251208D190125D78251209E3
:10411E009A7402120B60782512069250030240A682
:10412E007406120B2A7F08020BEA74F7120B8474C2
:10413E00F8120B14EAFEEBFF125C58900363E08555
:10414E003182853283F0900364E0C0E07401120B7B
:10415E0060D0E0F0900365E0C0E07402120B60D016
:10416E00E0F0900369E0C0E07403120B60D0E0F061
:10417E00900366E0C0E07404120B60D0E0F0900390
:10418E0067E0C0E07405120B60D0E0F0900368E0C9
:10419E00C0E07406120B60D0E0F0752103752200AA
:1041AE007821120C2E7406120B60AC82AD83EEFADF
:1041BE00EFFB12DC397402120B2A7821120C2E74CA
:1041CE0002120B7AEE2403FAE43FFB12DC3974027E
:1041DE00120B2A7408120B2A7F02020BEAC082C04D
:1041EE00838A828B83A3A3A3A3A3E090035FF08AA9
:1041FE00828B83A3A3A3A3E090035EF08A828B83BA
:10420E00A3A3A3E090035DF08A828B83A3A3E09027
:10421E00035CF08A828B83A3E090035BF08A828B2F
:10422E0083E090035AF0125C9BD083D0822274F507
:10423E00120B8474AD120B1475CEA575CF5A752161
:10424E00537522007821120C2E7402120B6A8821EB
:10425E0089227821120C2E9011DF782112099AAA48
:10426E0021AB22AC23AD24122A587404120B2A75EA
:10427E00CEA575CF5A7451120B60AA82AB83122948
:10428E008E8A218B22AE21AF227951AA31AB321206
:10429E0029A6EA6E7002EB6F606275CEA575CF5AD5
:1042AE007521537522007821120C2E7402120B6A9E
:1042BE00882189227821120C2E9011F17821120971
:1042CE009AAA21AB22AC23AD24122A587404120BE5
:1042DE002A75CEA575CF5A7451120B60AA82AB8384
:1042EE0012298E8A218B22AE21AF227951AA31ABAF
:1042FE00321229A6EA6E7002EB6F7009AA31AB3248
:10430E00124340802079517A9D7B021229A68A2180
:10431E008B22A821A9229002EEE0687003A3E06927
:10432E0060031250191250897453120B2A7F040223
:10433E000BEAC082C083789D79027C0080198A8244
:10434E008B83E088828983F0A3A882A9838A828BDB
:10435E0083A3AA82AB830CECC3945340E1D083D0E9
:10436E00822274F5120B8474FE120B14A831A9323A
:10437E00882189227821120C2E9012A578211209FB
:10438E009AAA21AB22AC23AD24122B487402120B35
:10439E002A853182853283E0F8A3E0F99002EEE0BF
:1043AE00687003A3E069702279517A9D7B0212290D
:1043BE00A68A218B22A821A9229002EEE068700322
:1043CE00A3E0697005125089800312423C1243F734
:1043DE007402120B2A7F04020BEAC082C083900281
:1043EE009C7405F0D083D0822274F7120B847C006B
:1043FE0080010CECC3941150468C2175220074027E
:10440E007821120B0174612521F874123522F98876
:10441E00828983E493FA740193FB90029DE06A70A3
:10442E0003A3E06B70CC88828983A3A3E4939002EC
:10443E0080F088828983A3A3A3E493900281F0EC99
:10444E00C39411400A900280740AF0900281F07FAA
:10445E0002020BEA74F5120B84E9FEA2E050297CED
:10446E000479007A827B02122A1E79047A827B02F8
:10447E001229A6900286EAF0A3EBF079067C827DE3
:10448E00027A887B021229EEEEA2E150787C0E7938
:10449E00007A8E7B02122A1E790C7A8E7B021229EA
:1044AE00A690029AEAF0A3EBF075210E7522007821
:1044BE0021120C2E75218E7522027821120C2E904F
:1044CE0011D3782112099AAA21AB22AC23AD241262
:1044DE002A557404120B2A75210E752200782112AA
:1044EE000C2E75218E7522027821120C2E9011D76A
:1044FE00782112099AAA21AB22AC23AD24122A5597
:10450E007404120B2A7F04020BEA74F5120B8474E6
:10451E00F2120B1412464AE9640160030245DA7581
:10452E00210E7522007821120C2E7402120B6A884D
:10453E002189227821120C2E9011D3782112099AFA
:10454E00AA21AB22AC23AD24122A587404120B2AD2
:10455E00790CAA31AB321229A68A218B22A821A965
:10456E0022740C120B60E0687003A3E06960507552
:10457E00210E7522007821120C2E7402120B6A88FD
:10458E002189227821120C2E9011D7782112099AA6
:10459E00AA21AB22AC23AD24122A587404120B2A82
:1045AE00790CAA31AB321229A68A218B22A821A915
:1045BE0022740C120B60E0687003A3E069700D7931
:1045CE000EAC31AD327A8E7B021229EE740E120BC6
:1045DE002A7F04020BEA74F7120B847E0079047AA8
:1045EE00827B021229A68A218B22A821A92290025F
:1045FE0086E0687003A3E069601F0E79047A887BF9
:10460E00021229A68A218B22A821A92290028CE0CF
:10461E00687003A3E06960010EEEA2E0500F790608
:10462E007C887D027A827B021229EE800AC3940274
:10463E00400579011244627F02020BEA74F7120BF5
:10464E0084790C7A8E7B021229A68A218B22A821CC
:10465E00A92290029AE0687003A3E06960047901D0
:10466E00800279007F02020BEA74F8120B84892112
:10467E007E007F001245E474016521700590028270
:10468E00805AE521704D90029CE0A2E05009900204
:10469E0082E0FEA3E08013E0A2E1500F900282E0E0
:1046AE00F8A3E0F9C3E498FEE499FF90029CE0A21F
:1046BE00E2500B900284E02EFEA3E03F8022E0A2A7
:1046CE00E3501E900284E0F8A3E0F9C3EE98FEEFEB
:1046DE0099800D740265217008900284E0FEA3E0BB
:1046EE00FFEEFAEFFB7F01020BEA74F5120B8474F6
:1046FE00F2120B147E0075210E8E227821120C2ED2
:10470E007402120B6A882189227821120C2E9011C4
:10471E00D3782112099AAA21AB22AC23AD24122AF6
:10472E00587404120B2A790CAA31AB321229A68ABC
:10473E00218B22A821A922740C120B60E068700351
:10474E00A3E069604F75210E8E227821120C2E7413
:10475E0002120B6A882189227821120C2E9011D711
:10476E00782112099AAA21AB22AC23AD24122A5821
:10477E007404120B2A790CAA31AB321229A68A21A3
:10478E008B22A821A922740C120B60E0687003A37F
:10479E00E06970010EEE7020790C7A8E7B02122980
:1047AE00A68A218B22A821A92290029AE068700382
:1047BE00A3E06960030248A574016E700D790EAC1A
:1047CE0031AD327A8E7B021229EE7A0079011246D1
:1047DE00778A218B22EB3395E0F523F52490029214
:1047EE0078211208D17A0079001246778A218B221D
:1047FE00EB3395E0F523F52490028E78211208D143
:10480E007A0079021246778A218B22EB3395E0F5F6
:10481E0023F52490029678211208D1790C7A8E7B9A
:10482E00021229A6A3EAF0A3EBF012464AE970673A
:10483E0075210E7522007821120C2E75218E75228F
:10484E00027821120C2E9011D3782112099AAA21E6
:10485E00AB22AC23AD24122A557404120B2A124635
:10486E004AE97033790112446275210E752200787F
:10487E0021120C2E75218E7522027821120C2E908B
:10488E0011D7782112099AAA21AB22AC23AD24129A
:10489E002A557404120B2A740E120B2A7F04020B73
:1048AE00EA74F1120B847AF27B10124A9C8A218BE5
:1048BE00228C238D2490033778211206A290033781
:1048CE00782512098B500A90033BE02AC395258068
:1048DE000BE525F42A04F890033BE028F09003370B
:1048EE0078211209AD90033BE0C313F89002F0E07B
:1048FE0028F090033BE0A2E0E433F0900280E0F871
:10490E009002F0E0984074900280E0F5F09002F092
:10491E00E084F9F5F0900280E0A4F89002F0E098BF
:10492E00F0E9F5F0900281E0A4F890027EE028F024
:10493E00E0F8900282E028F0A3E03400F090027ECE
:10494E00E4F079047A827B021229A6900286EAF0BC
:10495E00A3EBF079067C827D027A887B021229EE27
:10496E00900282C3E094D1A3E09407500BA3C3E05E
:10497E0094D1A3E0940740031246F8126DAC7F0861
:10498E00020BEA74F7120B849002FDE4F0A3F09090
:10499E0002F804F09002A1E0F8A3E0F97AE87B03B4
:1049AE00120A89E8FCE9FD90029FE0F8A3E0F97A8B
:1049BE00647B00120A898821EC88F0A4CCA8F089C7
:1049CE00F0A428F88521F0EDA428FDEC2CFCED33A5
:1049DE00FDECF8EDF97AE87B03120A89E8FCE9FDB3
:1049EE009002F9ECF0A3EDF0A3E4F0A3F09002F442
:1049FE00F0A3F0A3F0A37402F0FF020BEAC082C092
:104A0E0083A28750317800790080060008E8700193
:104A1E0009C3E89409E9940040F178007900800513
:104A2E0008E8700109C3E8944CE99400505B9028A3
:104A3E0085E070EC8053A2807800503079008006BB
:104A4E000008E8700109C3E894F0E9940040F17899
:104A5E00007900C3E89480E99407502D902885E0F2
:104A6E00602708E870ED0980EA007801E860FA78BE
:104A7E00007900800508E8700109C3E89402E99402
:104A8E00005006902885E070ECD083D0822274F11D
:104A9E00120B8490288474CCF0E4F02AF582E43B67
:104AAE00F583E0124A0B902885E0600A7A007B00BD
:104ABE007C007D008058902883E0F525E4F526F5EE
:104ACE0027F52874087825120875902882E0F521BC
:104ADE00E4F522F523F5247825792112096174086D
:104AEE007825120875902881E0F521782579211214
:104AFE00096174087825120875902880E0F52178F0
:104B0E00257921120961AA25AB26AC27AD287F088D
:104B1E00020BEA74F1120B84780090288474CCF0A6
:104B2E00E4F0902885E0600908E8C3942140F38002
:104B3E003BEA902880F0EBA3F0ECA3F0EDA3F07429
:104B4E000F120B60E0F8A3E0F988828983E4F0D2BB
:104B5E0087A28740070AEAC3941F40F500780090A9
:104B6E002885E0600B08E8C3942140F379008002A9
:104B7E0079017F08020BEA74F1120B8478009028F9
:104B8E008474CCF0E4F0902885E0600908E8C394C2
:104B9E002140F3803AEA902880F0EBA3F0ECA3F0EA
:104BAE00EDA3F0C287A28750070AEAC3941F40F50F
:104BBE00740F120B60E0F8A3E0F988828983E4F0A9
:104BCE0000F8902885E0600B08E8C3942140F37943
:104BDE0000800279017F08020BEA74F1120B8478CF
:104BEE000090288474CCF0E4F0902885E0600908E9
:104BFE00E8C3942140F3802DEA902880F0EBA3F0D7
:104C0E00ECA3F0EDA3F0740F120B60E0F8A3E0F943
:104C1E0088828983E4F000F8902885E0600B08E82C
:104C2E00C3942140F37900800279017F08020BEAD8
:104C3E00C082C083902858E4F0A3F0A3F0A3F0A3A1
:104C4E00F0A3F0902863F090286504F0E9902864B2
:104C5E006003E48002740FF0D083D08222D2877872
:104C6E0000A287400708E8C3941540F52274F51298
:104C7E000B84E9FFC28475217D7522287821120CE0
:104C8E002E9011DF782112099AAA21AB22AC23AD06
:104C9E0024124BE87402120B2A752178752228789B
:104CAE0021120C2E9011DF782112099AAA21AB2223
:104CBE00AC23AD24124BE87402120B2A7521F47545
:104CCE0022107821120C2E9012A9782112099AAA7C
:104CDE0021AB22AC23AD24124BE87402120B2A75C1
:104CEE0021FA7522107821120C2E9012A978211219
:104CFE00099AAA21AB22AC23AD24124BE8740212FE
:104D0E000B2AEF7521EF75221078216008120C2EF8
:104D1E009012AD8006120C2E9012B1782112099AC3
:104D2E00AA21AB22AC23AD24124BE87402120B2A3B
:104D3E007E00802B8E21E52124F0F521E43410F540
:104D4E00227821120C2E9011DF782112099AAA21B5
:104D5E00AB22AC23AD24124BE87402120B2A0EEEDA
:104D6E00C3940440CF7E00802B8E21E52124F6F5DE
:104D7E0021E43410F5227821120C2E9011DF7821C7
:104D8E0012099AAA21AB22AC23AD24124BE874026D
:104D9E00120B2A0EEEC3940440CF75217D75222886
:104DAE007821120C2E9012B5782112099AAA21ABF5
:104DBE0022AC23AD24124BE87402120B2A75217D0E
:104DCE007522287821120C2E9012B9782112099A88
:104DDE00AA21AB22AC23AD24124BE87402120B2A8B
:104DEE0075217D7522287821120C2E9011DF7821E5
:104DFE0012099AAA21AB22AC23AD24124BE87402FD
:104E0E00120B2A7E00802B8E21E52124F0F521E461
:104E1E003410F5227821120C2E9011DF7821120910
:104E2E009AAA21AB22AC23AD24124BE87402120BCA
:104E3E002A0EEEC3940440CF7E00802B8E21E521F6
:104E4E0024F6F521E43410F5227821120C2E90115F
:104E5E00DF782112099AAA21AB22AC23AD24124B82
:104E6E00E87402120B2A0EEEC3940440CF7521F59E
:104E7E007522107821120C2E9011DB782112099ACE
:104E8E00AA21AB22AC23AD24124BE87402120B2ADA
:104E9E007521FB7522107821120C2E9011DB7821D2
:104EAE0012099AAA21AB22AC23AD24124BE874024C
:104EBE00120B2AEF7521787522287821602B120C9F
:104ECE002E9012BD782112099AAA21AB22AC23ADE5
:104EDE0024124BE87402120B2A75217E7522287853
:104EEE0021120C2E9012C18029120C2E9012C57810
:104EFE002112099AAA21AB22AC23AD24124BE874DD
:104F0E0002120B2A75217E7522287821120C2E9002
:104F1E0011DF782112099AAA21AB22AC23AD2412FB
:104F2E004BE87402120B2A7521797522287821120A
:104F3E000C2E9011DF782112099AAA21AB22AC23F4
:104F4E00AD24124BE87402120B2A75217A752228B1
:104F5E007821120C2E9012C9782112099AAA21AB2F
:104F6E0022AC23AD24124BE87402120B2A75217D5C
:104F7E007522287821120C2E9011F1782112099A9F
:104F8E00AA21AB22AC23AD24124BE87402120B2AD9
:104F9E0075217B7522287821120C2E9011DF782135
:104FAE0012099AAA21AB22AC23AD24124BE874024B
:104FBE00120B2A75217C7522287821120C2E901145
:104FCE00DF782112099AAA21AB22AC23AD24124B11
:104FDE00E87402120B2A9002F37401F09002F2E4CC
:104FEE00F07F04020BEA7900124C3E124C6B75CE28
:104FFE00A575CF5A7900124C7B75CEA575CF5A0286
:10500E0050101243701243E802451874F7120B84C5
:10501E007521517522007821120C2E7CD97D127AC1
:10502E009D7B021277717402120B2A79517A9D7B45
:10503E00021229A69002EEEAF0A3EBF07F02020B19
:10504E00EAC082C0839002F0E004F0900280E0F8A3
:10505E009002F0E0C398401E900280E0F89002F0BB
:10506E00E0C398F0900281E0F890027EE028F09084
:10507E0003C1E04404F0D083D0822274F5120B8475
:10508E00900325E064017521F475221078217008D3
:10509E00120C2E9002A78006120C2E9002A312095B
:1050AE00BC124BE87402120B2A7521FA7821120CED
:1050BE002E9002A31209BC124BE87402120B2A7531
:1050CE0021F57821120C2E9002AB1209BC124BE87E
:1050DE007402120B2A7521FB7821120C2E9002AB52
:1050EE001209BC124BE87402120B2A7E0080378E16
:1050FE0082858221752200E52124E8F523E434100F
:10510E00F5247823120C2E74027821120B0174B33D
:10511E002521F58274023522F5831209BC124BE863
:10512E007402120B2A0EEEC3940740C3900325E0BF
:10513E00640170457521F47522107821120C2E90A1
:10514E0002A71209BC124BE87402120B2A7521EB4E
:10515E007821120C2E9002E51209BC124BE8740253
:10516E00120B2A7521EC7821120C2E9002E91209ED
:10517E00BC124BE87402120B2A75217B752228781B
:10518E0021120C2E9002CFE0FAE4FBFCFD124BE84C
:10519E007402120B2A75217C7821120C2E9002D0EB
:1051AE00E0FAE4FBFCFD124BE87402120B2A9002AB
:1051BE00EDE0902858F07F04020BEA74F7120B848E
:1051CE0075210F7522007821120C2E7C967D137A94
:1051DE00FF7B021277717402120B2A900307E0F81C
:1051EE0074096860077490686002E4F0790F7AFFC2
:1051FE007B021229A690030EEAF0A3EBF07F0202C7
:10520E000BEA222274F5120B84125E0390122E7892
:10521E002112099A90063C7821120615600B90090E
:10522E0040E4F0A3F0A3F0A3F09012D1782112097C
:10523E009A900940782112061560051238458006AD
:10524E0012560F12577F900B367432F0A3740FF074
:10525E00900C76E0646670091252119009987421D0
:10526E00F01238D19009301209E09009C31209ECFE
:10527E009012D1782112099A9009407821120615C0
:10528E006022900940E4F0A3F0A3F0A3F09009DEB1
:10529E00E0F8A3E054FDF99009DEE8F0A3E9F07917
:1052AE000512E31D123796125E6A90098DE04408CE
:1052BE00F0126615126D659009B47401F0900DBB75
:1052CE00782112098BE52254206027900DA3120934
:1052DE00E0E8494A4B60067AA37B0D8010900DA73B
:1052EE001209E0E8494A4B600C7AA77B0D126D95C6
:1052FE008003125211900C74E06401600575210157
:10530E0080037521007522009009E2E0FAA3E054B3
:10531E00FDFB74097821120B01E5225402F9EAF81B
:10532E00EB49F99009E2E8F0A3E9F0900E8FE0A2C4
:10533E00E050129009EAE0F8A3E04402F99009EA7D
:10534E00E8F0A3E9F090098AE0600312BCC512E20E
:10535E00777AC77B0912D28C900DBB782112098BFC
:10536E00E521A2E0500312E18290098EE04440F064
:10537E007F04020BEAC082C08390098EE054C0F90C
:10538E00E470037440697024900989E4F090098EEA
:10539E00E04480F0900C75E064337009A3E064661D
:1053AE00600312521090098EE0547FF0D083D082A9
:1053BE0022C082C083900984E014F0900B92E0A288
:1053CE00E05007126206E0C2E0F0900992E054EF5E
:1053DE00F0D083D08222C082C08390098AE4F090FC
:1053EE0009CFE0F8C394D25018E8C3941540229028
:1053FE000992E05440701AE04440F0A3E04401806A
:10540E000FE024FEF0900993E054106004E054EF96
:10541E00F01237969009D3E06010E014F0E0700AB5
:10542E0090098DE0440CF0127FF5900993E0540240
:10543E006012900C74E06401600A1263D3900993B9
:10544E00E054FDF0D083D0822279011255DA790131
:10545E002274F5120B8479011255DA43A62053A556
:10546E00DF53A4DF43A60853A5F753A4F712560F34
:10547E0090122E782112099A90063C782112061568
:10548E00700D7C0B7D0079FF7A467B0912DB8E1244
:10549E00577F79017AFA7B001255D790093C782113
:1054AE0012098B782112084C9009387821120615B2
:1054BE006011900930E4F0A37449F0A374D1F0A305
:1054CE007412F07C0F7D007ACC7B0B12DA6390099C
:1054DE00B374C8F0791412E31D7F04020BEA74F55D
:1054EE00120B841255D81258E79003B8E4F09003CB
:1054FE00B9F09012D5782112099A90063C782112B3
:10550E000615602790122E782112099A90063C7883
:10551E002112061560157C907D057A3C7B0612DA09
:10552E00637C0F7D007ACC7B0B800E740E243CFCCA
:10553E0074FC3406FD7A827B0912DA6390093C789A
:10554E002112098B782112084C9009387821120605
:10555E00156011900930E4F0A37449F0A374D1F0F2
:10556E00A37412F0900370E4F0125457E960047AB9
:10557E000180027A0090098FE054FEF8A3E0F9EA68
:10558E005401FAE84A90098FF0A3E9F079FF12E38B
:10559E001D90098FE0A2E0500512545F8003125552
:1055AE00C0799912E31D900B96E4F0D2AF7F0402FE
:1055BE000BEA79000255DAC082C08390098FE0A20F
:1055CE00E0E433F9D083D082222222220255D9C0C0
:1055DE0082C0839028ACE0D2E2F0A3E0D2E2F09059
:1055EE0028ACE0D2E1F0A3E0D2E1F0D083D0822269
:1055FE00C082C083900310EAF0A3EBF0D083D08278
:10560E0022C082C0839028B4E0440FF09028B8E006
:10561E004403F09028BCE074FFF09028D5E0443F9E
:10562E00F09028B5E054F0F09028B9E054FCF090DA
:10563E0028BDE0E4F09028D6E054C0F0C283902854
:10564E005E7404F0902C1E7491F0A3E4F0A374FF2A
:10565E00F0A3747CF0A3E4F0A3F0D083D08222C038
:10566E0082C083125692902C1FE4F0A3F0A3F0A3F5
:10567E00F0A3F07905122962902C1EE4F0D283D0AB
:10568E0083D08222C082C0837C0B7900900310E00D
:10569E00FAA3E0FB122A1E1256C8D083D08222C073
:1056AE0082C0837C0B79FF900310E0FAA3E0FB121B
:1056BE002A1E1256C8D083D08222C082C083900385
:1056CE0010E0FAA3E0FB1256DCD083D08222C08217
:1056DE00C0838A828B83E0902C06F08A828B83A310
:1056EE00E0902C07F08A828B83A3A3E0902C08F025
:1056FE008A828B83A3A3A3E0902C09F08A828B83EA
:10570E00A3A3A3A3E0902C0AF08A828B83A3A3A366
:10571E00A3A3E0902C0BF08A828B83A3A3A3A3A355
:10572E00A3E0902C0DF08A828B83A3A3A3A3A3A343
:10573E00A3E0902C0EF08A828B83A3A3A3A3A3A332
:10574E00A3A3E0902C0FF08A828B83A3A3A3A3A321
:10575E00A3A3A3A3E0902C10F08A828B83A3A3A310
:10576E00A3A3A3A3A3A3A3E0902C11F0D083D08274
:10577E0022C082C083900310E0FAA3E0FB1256DC35
:10578E00D083D08222025796C082C08390031374B6
:10579E0004F0900317F090031404F0900319F0A393
:1057AE00F090031DF0D083D08222C082C083902857
:1057BE00A8E4F0A3F0A3F09028ACF0A3F0A3F0902F
:1057CE0028C5F0A3F0A3F0A3F09028B074FFF0A3C7
:1057DE00E4F09028B4740FF0A3E4F09028B874FFAE
:1057EE00F0A3E4F09028BC74FFF0A3E4F09028C07E
:1057FE0074FFF0A3E4F09028D574FFF0A3E4F090CA
:10580E0028D9F0A3F075A40075A50075A60053A4C1
:10581E00FE53A5FE53A6FE53ADFED083D082224387
:10582E008E085389F0438901758CEF758AFFD28CEF
:10583E00D2A922C28E538EEF5389F7438910EA758F
:10584E00F044A4FAA8F075F044EBA428FB74FFC34F
:10585E009AF874FF9BF58DE8F58BD2AB22538EDF51
:10586E00C2C975CDF575CC54D2CAD2AD227800809E
:10587E000108E8C3941440F92274F8120B84E9FF6E
:10588E007E00800412587B0EEEC39F40F77F01020C
:10589E000BEA74F8120B84E9FEEAFF759096759781
:1058AE005779051258878E9674076E700574404F9F
:1058BE00F5DF79051258877590967597567905120A
:1058CE0058877F01020BEAC082C083D2E990284B31
:1058DE00E0D2E6F0D083D08222C082C083902D0029
:1058EE00E4F0A3F01257B812560F1256AD125AA783
:1058FE0012582D12586B1255DD7A0079031258A0EA
:10590E001258D5D083D08222C082C083E9FA7800A3
:10591E00C286C28574046A9028677007E054FC44FE
:10592E00028003E054FCF0A3E4F0E5A3A2E04009FA
:10593E0008E8C3943340F3800FD2807800A28040F1
:10594E000B08E8C3941540F5790080089003257480
:10595E0004F07901D083D08222C082C083E9FA7824
:10596E0000C286C28590286774C0F0A3E4F0E5A358
:10597E00A2E0400908E8C3943340F38025D2807832
:10598E0000A280400908E8C3941540F5801474FF06
:10599E006A7013D2877800A287400B08E8C394156B
:1059AE0040F57900801E90285FE4F0A37403F0A305
:1059BE007420F0A374C4F09028667480F0900325D0
:1059CE007401F0F9D083D0822274F1120B8474FC2E
:1059DE00120B149028637497F0791E1229627ACEF6
:1059EE007B10124A9C8531828532831209C874035A
:1059FE00120B60E0C3948140238531828532837817
:105A0E002112098B782112084C9011DB7821120893
:105A1E00BA85318285328378211209AD853182852E
:105A2E003283782112098B7410782112085C901140
:105A3E00E3782512099A782179251206E49013A5A8
:105A4E0078211208BA9013A9782512099A7821792B
:105A5E002512076490032978211209AD9013AD78B1
:105A6E002112099A90032978211206929003275049
:105A7E000D745AF0A3F0900252E04404800AE4F050
:105A8E00A3F0900252E054FBF09028637481F074FE
:105A9E0004120B2A7F08020BEAC082C08390024ACE
:105AAE007402F0F912BE067900122C53D083D08204
:105ABE0022C082C0839028A8E0C2E1F09028AAE01C
:105ACE00C2E1F09028ACE0D2E4F0A3E0C2E4F01220
:105ADE00566D9028C9E4F0A3F09028CDF0A3F09075
:105AEE0028B0E04433F0A3E054CCF09028ADE0C2EF
:105AFE00E1F09028ACE0D2E1F09028A8E0D2E1F0FD
:105B0E00A3E0C2E1F0A3E0C2E1F09028A8E0D2E267
:105B1E00F0A3E0C2E2F09028A8E0D2E3F0A3E0C246
:105B2E00E3F043A40153A5FE9028ACE0D2E4F0A329
:105B3E00E0C2E4F09028ACE0C2E3F0A3E0C2E3F0F0
:105B4E009028C77404F0D083D0822275A80075E81F
:105B5E000075910022C082C083902820E4F0902826
:105B6E0028F0902830F0902A05F0D083D08222744D
:105B7E00F5120B84902864E4F075217D7522287847
:105B8E0021120C2E9011DF782112099AAA21AB2234
:105B9E00AC23AD24124BE87402120B2A75217875D2
:105BAE0022287821120C2E9011DF782112099AAA40
:105BBE0021AB22AC23AD24124BE87402120B2A78CF
:105BCE0000800108E8C3941440F9D2847F04020BCC
:105BDE00EAC082C08343A60243A604E5A1A2E04028
:105BEE0021C280A28040FCE5A1A2E0401578008091
:105BFE000108E8C3940340F9902867E4F0E070FDD3
:105C0E00D2817900D083D08222C082C083C286C264
:105C1E0085E5A1A2E0402CE5A1A2E04026C280A22B
:105C2E008040FCE5A1A2E0401A7800800108E8C39C
:105C3E00940340F9902867E4F0E070FDD281790575
:105C4E001258877900D083D08222C082C08374FF1D
:105C5E00120B14E5DA853182853283F079051258FC
:105C6E0087E59A900363F0E59BA3F0E59CA3F0E52E
:105C7E009E900369F0E59D900366F0E59FA3F0E525
:105C8E0093A3F07401120B2AD083D08222C082C05B
:105C9E0083759096759757790512588790035FE034
:105CAE00F59390035EE0F59F90035DE0F59D900304
:105CBE005CE0F59C90035BE0F59B90035AE0F59A4F
:105CCE00900360E0F59E790512588775909675974A
:105CDE00567905125887D083D0822274F1120B8424
:105CEE00E9FE75909675975779021258877594004C
:105CFE007595008E25E4F526F527F5289013B178D5
:105D0E002112099A782579211206E490120A782533
:105D1E001208BA85252185262285272385282474F5
:105D2E0010782112085CE521F5DBE526F5DCE5258A
:105D3E00F5DD79021258877590967597567521077D
:105D4E007522007821120C2E7C0B7D1E7A5A7B0355
:105D5E001277717402120B2A125C9B7F08020BEAF7
:105D6E0074F1120B8474F8120B147521087522004D
:105D7E007821120C2E127A22EAFCEBFD7402120B21
:105D8E00721277717402120B2A7404120B6078254A
:105D9E0012098B8531828532837825120910900E77
:105DAE0053E0FA752100752300752400A2E0500B14
:105DBE00853182853283782112098BEAA2E1500B5C
:105DCE0085318285328378211208F8EAA2E25007E3
:105DDE0078217925120894EAA2E3500778217925D3
:105DEE001208E4AA21AB22AC23AD247408120B2AAC
:105DFE007F08020BEA74F5120B84900C9B7821122B
:105E0E00098B900830E0F8A3E0C8241CF582E43832
:105E1E00F58378211208F89009F078211209AD90D7
:105E2E0009F0782112098B9011DF78211206589013
:105E3E0009F4501078211209ADA3E4F0A3F0A3F0F9
:105E4E00A3F08013E4F0A3F0A3F0A3F078211208DE
:105E5E003BA378211209AD7F04020BEA74F1120BF9
:105E6E0084900DBB782112098B900C74E064017044
:105E7E0003025FBBE52254406004D2F08002C2F000
:105E8E00A2F0E433F5219009F4782512098B900CD9
:105E9E008B78251206924036A3782512069250056D
:105EAE007521018029E5254526452745286005757C
:105EBE002102801A900DC3782112098B9009F8786F
:105ECE002112069250057521038003752104900955
:105EDE0091E0543FFAA3E054FEFB7522007406785D
:105EEE0021120B01A821E5225401F9EA48FAEB49E7
:105EFE00FB900991EAF0A3EBF09009E2E0FCA3E03D
:105F0E0054EFFD9009E2ECF0A3EDF0900DBB78217B
:105F1E0012098B85212585222690121E78211209C1
:105F2E0037E5214522452345246010ECF8ED441059
:105F3E00F99009E2E8F0A3E9F0803C8A218B227403
:105F4E00067821120AF2E5215407FAC39404502F61
:105F5E00852622E52254207026E52554046018EA91
:105F6E00C39403501A9009F0782112098B900DCB2F
:105F7E0078211206435008900990E0440280069062
:105F8E000990E054FDF09009DEE0F8A3E0F99009E5
:105F9E00F81209D4EC4D4E4F6005E944408003E9F8
:105FAE0054BFF99009DEE8F0A3E902603DE5225402
:105FBE00409009916014E0543FF8A3E054FEF9E8D4
:105FCE004440900991F0A3E98008E0543FF0A3E02B
:105FDE0054FEF09009E2E0FAA3E054EFFB9009E2E0
:105FEE00EAF0A3EBF0900DBB782512098B852521E5
:105FFE0085262285272385282490121E78211209B2
:10600E0037E5214522452345246010EAF8EB44107C
:10601E00F99009E2E8F0A3E9F0800EE5265420603D
:10602E0008900990E054FD8006900990E04402F03B
:10603E009009E2E0FAA3E0FB900990E05402602D93
:10604E00EA54BFF8EBF99009E2E8F0A3E9F0900CFE
:10605E0074E06401600E900DBB782112098BE5216E
:10606E00540270177A9F7B0D12DF70800EEA444047
:10607E00F8EBF99009E2E8F0A3E9F0900991E0F568
