:020000040000FA
:06000000020066028462AA
:03000B0002846A02
:03001300028472F2
:03001B0002847AE2
:03002B00028497B5
:03003B000284F349
:030043000285072C
:03004B000285BB70
:03005300028681A1
:03005B000286908A
:1000630002869F75D00075819F753101753202023A
:10007300D6ACE49002017898790D8002F0A3D8FC05
:02008300D9FAA8
:1001000000002110422063308440A550C660E77093
:10011000088129914AA16BB18CC1ADD1CEE1EFF13B
:100120003112100273325222B5529442F772D662E3
:10013000399318837BB35AA3BDD39CC3FFF3DEE38B
:100140006224433420040114E664C774A444855433
:100150006AA54BB528850995EEE5CFF5ACC58DD5DB
:100160005336722611163006D776F6669556B44683
:100170005BB77AA719973887DFF7FEE79DD7BCC72B
:10018000C448E5588668A7784008611802282338D3
:10019000CCC9EDD98EE9AFF9488969990AA92BB97B
:1001A000F55AD44AB77A966A711A500A333A122A23
:1001B000FDDBDCCBBFFB9EEB799B588B3BBB1AABCB
:1001C000A66C877CE44CC55C222C033C600C411C73
:1001D000AEED8FFDECCDCDDD2AAD0BBD688D499D1B
:1001E000977EB66ED55EF44E133E322E511E700EC3
:1001F0009FFFBEEFDDDFFCCF1BBF3AAF599F788F6B
:100200008891A981CAB1EBA10CD12DC14EF16FE14A
:100210008010A100C230E320045025404670676082
:10022000B9839893FBA3DAB33DC31CD37FE35EF39A
:10023000B1029012F322D2323542145277625672D2
:10024000EAB5CBA5A89589856EF54FE52CD50DC5EA
:10025000E234C324A0148104667447642454054422
:10026000DBA7FAB79987B8975FE77EF71DC73CD73A
:10027000D326F2369106B016576676761546345672
:100280004CD96DC90EF92FE9C899E9898AB9ABA98A
:100290004458654806782768C018E1088238A328C2
:1002A0007DCB5CDB3FEB1EFBF98BD89BBBAB9ABBDA
:1002B000754A545A376A167AF10AD01AB32A923A12
:1002C0002EFD0FED6CDD4DCDAABD8BADE89DC98D2A
:1002D000267C076C645C454CA23C832CE01CC10C62
:1002E0001FEF3EFF5DCF7CDF9BAFBABFD98FF89F7A
:1002F000176E367E554E745E932EB23ED10EF01EB2
:1003000000010203040506070809AAAAAAAAAAAAC4
:100310000A0B0C0D0E0F10111213AAAAAAAAAAAA50
:100320001415161718191A1B1C1DAAAAAAAAAAAADC
:100330001E1F2021222324252627AAAAAAAAAAAA68
:1003400028292A2B2C2D2E2F3031AAAAAAAAAAAAF4
:1003500032333435363738393A3BAAAAAAAAAAAA80
:100360003C3D3E3F404142434445AAAAAAAAAAAA0C
:10037000464748494A4B4C4D4E4FAAAAAAAAAAAA98
:1003800050515253545556575859AAAAAAAAAAAA24
:0A0390005A5B5C5D5E5F60616263B2
:10039C0000010203040506070809101112131415B5
:1003AC001617181920212223242526272829303115
:1003BC003233343536373839404142434445464769
:1003CC0048495051525354555657585960616263BD
:1003DC00646566676869707172737475767778791D
:1003EC008081828384858687888990919293949565
:1003FC0096979899FFFFFFFFFFFFFFFFFFFFFFFF9F
:10040C00FFFFFFFFFFFFFFFFFFFFFFFFFFFFFFFFF0
:10041C00FFFFFFFFFFFFFFFFFFFFFFFFFFFFFFFFE0
:10042C00FFFFFFFFFFFFFFFFFFFFFFFFFFFFFFFFD0
:10043C00FFFFFFFFFFFFFFFFFFFFFFFFFFFFFFFFC0
:10044C00FFFFFFFFFFFFFFFFFFFFFFFFFFFFFFFFB0
:10045C00FFFFFFFFFFFFFFFFFFFFFFFFFFFFFFFFA0
:10046C00FFFFFFFFFFFFFFFFFFFFFFFFFFFFFFFF90
:10047C00FFFFFFFFFFFFFFFFFFFFFFFFFFFFFFFF80
:10048C00FFFFFFFFFFFFFFFFFFFFFFFFFFFFFFFF70
:10049C00FFFFFFFFFFFFFFFFFFFFFFFFFFFFFFFF60
:1004AC00FFFFFFFFFFFFFFFFFFFFFFFFFFFFFFFF50
:1004BC00FFFFFFFFFFFFFFFFFFFFFFFFFFFFFFFF40
:1004CC00FFFFFFFFFFFFFFFFFFFFFFFFFFFFFFFF30
:1004DC00FFFFFFFFFFFFFFFFFFFFFFFFFFFFFFFF20
:1004EC00FFFFFFFFFFFFFFFFFFFFFFFFFFFFFFFF10
:1004FC00FFFFFFFFFFFFFFFFFFFFFFFFFFFFFFFF00
:10050C00FFFFFFFFFFFFFFFFFFFFFFFFFFFFFFFFEF
:10051C00FFFFFFFFFFFFFFFFFFFFFFFFFFFFFFFFDF
:10052C00FFFFFFFFFFFFFFFFFFFFFFFFFFFFFFFFCF
:10053C00FFFFFFFFFFFFFFFFFFFFFFFFFFFFFFFFBF
:10054C00FFFFFFFFFFFFFFFFFFFFFFFFFFFFFFFFAF
:10055C00FFFFFFFFFFFFFFFFFFFFFFFFFFFFFFFF9F
:10056C00FFFFFFFFFFFFFFFFFFFFFFFFFFFFFFFF8F
:10057C00FFFFFFFFFFFFFFFFFFFFFFFFFFFFFFFF7F
:10058C00FFFFFFFFFFFFFFFFFFFFFFFFFFFFFFFF6F
:10059C00FFFFFFFFFFFFFFFFFFFFFFFFFFFFFFFF5F
:1005AC00FFFFFFFFFFFFFFFFFFFFFFFFFFFFFFFF4F
:1005BC00FFFFFFFFFFFFFFFFFFFFFFFFFFFFFFFF3F
:1005CC00FFFFFFFFFFFFFFFFFFFFFFFFFFFFFFFF2F
:1005DC00FFFFFFFFFFFFFFFFFFFFFFFFFFFFFFFF1F
:1005EC00FFFFFFFFFFFFFFFFFFFFFFFFFFFFFFFF0F
:1005FC00FFFFFFFFE76670100809E766700A08093D
:10060C00E76670040809E76622E066701008A3E04C
:10061C0066700A08A3E066700408A3E06622E493FF
:10062C006670130874019366700C087402936670FC
:10063C0005087403936622C3E09608A3E09608A30A
:10064C00E09608A3E096A2D265D03322C021C3E481
:10065C009396F5210874019396422108740293969F
:10066C00422108740393964221A2D265D033E5212E
:10067C007001D3D02122C3E7960809E7960809E751
:10068C00960809E79622C3E09608A3E09608A3E033
:10069C009608A3E09622C021C3E096F52108A3E0BA
:1006AC0096422108A3E096422108A3E096452170CA
:1006BC0001D3D02122C021C3E49396F52108740103
:1006CC0093964221087402939642210874039396E0
:1006DC0045217001D3D02122080808EAC0E0EBC004
:1006EC00E086F0E7A4FA180986F0E7A42AFA1809BC
:1006FC0086F0E7A42AFA180986F0E7A42AFA1986E4
:10070C00F0E7A4FBE5F02AFA190886F0E7A42BFB26
:10071C00E5F03AFA190886F0E7A42BFBE5F03AFA73
:10072C0018180986F0E7A4C5F02BFBE43AFA19086F
:10073C00E7C5F0C6A426F6E5F03BFBE43AFA1886CA
:10074C00F0E7A4F6E5F00826F6E43B08F6E43A08F0
:10075C00F6D0E0FBD0E0FA22E4CFC0E0E4CEC0E07B
:10076C00E4CDC0E0E4CCC0E075F020E626F608E667
:10077C0033F608E633F608E633F6181818EC33FCB3
:10078C00ED33FDEE33FEEF33FFC3EC9709ED970924
:10079C00EE9709EF97191919400FFFEC97FC09ED2B
:1007AC0097FD09EE97FE191906D5F0BFECF709ED88
:1007BC00F709EEF709EFF7191919D0E0FCD0E0FDB5
:1007CC00D0E0FED0E0FF2212083B18181812076484
:1007DC0012082A1919192212082A191919080808B5
:1007EC00E618181820E7E012076412083B181818CE
:1007FC0022090909E719191920E7DC080808E61885
:10080C00181820E70302076412083B18181812077F
:10081C006412083B18181812082A19191922E4C373
:10082C0097F709E497F709E497F709E497F722E4B7
:10083C00C396F608E496F608E496F608E496F622D3
:10084C00C6F4C608C6F4C608C6F4C608C6F4C62262
:10085C006016080808C6C313C618C613C618C613F4
:10086C00C618C613C6D5E0EA22700908080822602B
:10087C0016181818C6C333C608C633C608C633C6FE
:10088C0008C633C6D5E0EA22E627F60809E637F6AD
:10089C000809E637F60809E637F622E026F608A33B
:1008AC00E036F608A3E036F608A3E036F622E49329
:1008BC0026F60874019336F60874029336F608741B
:1008CC00039336F622E026F008A3E036F008A3E006
:1008DC0036F008A3E036F022C3E697F60809E6974F
:1008EC00F60809E697F60809E697F622C3E0C696DD
:1008FC00F608A3E0C696F608A3E0C696F608A3E0B1
:10090C00C696F622C3E096F008A3E096F008A3E0A2
:10091C0096F008A3E096F022E056F608A3E056F60F
:10092C0008A3E056F608A3E056F622E49356F60820
:10093C0074019356F60874029356F6087403935692
:10094C00F622E056F008A3E056F008A3E056F008B3
:10095C00A3E056F022E647F60809E647F60809E652
:10096C0047F60809E647F622E49346F60874019325
:10097C0046F60874029346F60874039346F622E092
:10098C0046F008A3E046F008A3E046F008A3E046D2
:10099C00F022E0F608A3E0F608A3E0F608A3E0F6E0
:1009AC0022E493F608740193F608740293F6087423
:1009BC000393F622E6F008A3E6F008A3E6F008A3FA
:1009CC00E6F022E0FAA3E0FBA3E0FCA3E0FD22EAC0
:1009DC00F0A3EBF0A3ECF0A3EDF022E0FCA3E0FD20
:1009EC00A3E0FEA3E0FF22E0F8A3E0F9A3E0FAA362
:1009FC00E0FB22E8F0A3E9F0A3EAF0A3EBF022CAB3
:100A0C00C0E0E6F0A308DAFAD0E0FA22CAC0E0E0CF
:100A1C00A3C582CCC582C583CDC583F0A3C582CCCA
:100A2C00C582C583CDC583DAE6D0E0CA22CAC0E050
:100A3C00E493A3C582CCC582C583CDC583F0A3C581
:100A4C0082CCC582C583CDC583DAE5D0E0CA22C38A
:100A5C00E498F8E499F9120A9C8026C3E49AFAE423
:100A6C009BFBE920E7E9120A9CE498F8E499F92247
:100A7C00C3E498F8E499F9120A9CE498F8E499F91B
:100A8C00C3E49AFAE49BFB22EB20E7CFE920E7E0F2
:100A9C00B90010BB0008E88AF084F8AAF022E4FB45
:100AAC00C8FA22EB70227B10C833C8C933C9335043
:100ABC0007C39AC3DBF280069A50012ADBEAC833DB
:100ACC00F4C8C933F4C9FA2275F008E4C833C8C9AC
:100ADC0033C933C99AC99B5004C92AC93BD5F0EC18
:100AEC00FBC833F4C8E4C9FA22600D08C6A2E713A8
:100AFC00C618C613C6D5E0F322600C08C6C313C6CD
:100B0C0018C613C6D5E0F422700422600D18C6C3B3
:100B1C0033C608C633C6D5E0F41822253110AF0809
:100B2C00F531400C15328008F53140021532D2AF48
:100B3C002200C0D0253110AF08F531500C053280A1
:100B4C0008F53150020532D2AFD0D0222531F582D2
:100B5C0010AF08F531400C15328008F53140021504
:100B6C0032D2AF853283222531F582E43532F583DA
:100B7C00222531F8E43532F9222531FAE43532FBFD
:100B8C00222531FCE43532FD22E4732531C582C0C7
:100B9C00E0E53234FFC583C0E0E531C3958224F92A
:100BAC0010AF088583328582318008858332858237
:100BBC0031D2AFCEF0A3E520F0A37821E608F0A364
:100BCC00DEFAEFF0A3E58124FBF8E608F0A3E608D3
:100BDC00F0A30808E608F0A3E608F0A31581158138
:100BEC00D0E0FED0E0F815811581E8C0E0EEC0E061
:100BFC0022853283853182E0A3FEE0A3F5207821A3
:100C0C00E0A3F608DFFAE0A3FFE0A3C0E0E0A3C096
:100C1C00E0E0A3C0E0E0A3C0E010AF08858231851E
:100C2C0083328008858231858332D2AFD083D082E3
:100C3C002274048006740280027401C0E0F4041271
:100C4C000B58D0E0120A0B2274048004740280004A
:100C5C00CCC0E0EDC0E0E531C39CCCAD3250011D01
:100C6C0010AF068C318D3280068C318D32D2AF12A2
:100C7C000A18D0E0FDD0E0FC2274048000CCC0E067
:100C8C00EDC0E0E531C39CCCAD3250011D10AF0678
:100C9C008C318D3280068C318D32D2AF120A39D024
:100CAC00E0FDD0E0FC22D083D082ECC0E0EDC0E0CF
:100CBC00E493A3FCE493A3FDED4C600D120CFEEC4D
:100CCC0024FFFCED34FFFD80EFE493A3FCE493A33D
:100CDC00FDED4C600D120D3DEC24FFFCED34FFFDE1
:100CEC0080EFD0E0FDD0E0FCE493A3C0E0E493C03F
:100CFC00E022C0E0C3E49396087401939618400F69
:100D0C00E49366700808740193661870007019A358
:100D1C00A3C3E49396087401939618A3A3400DD033
:100D2C00E0D0E0D0E0020CEEA3A3A3A3A3A3D0E0F9
:100D3C0022C0E0C0F088F0E4936670080874019358
:100D4C0066187000A8F0A3A3700BD0F0D0E0D0E030
:0C0D5C00D0E0020CEEA3A3D0F0D0E02207
:0D11C0004431343346393832315330330076
:1011CE000100008000010000000A00000000000085
:1011DE0000001F0AFA00E1F50564000000E482F247
:1011EE0082F522D5A2EBA23F065B4F666D7D077F8F
:1011FE006F777C395E79710006060606FFFFFFFFEA
:10120E0000029000FF0000000F0000000000080028
:10121E0000004000000001001FF100040706060652
:10122E00B83E24031F1C1F1E1F1E1F1F1E1F1E1F26
:10123E000605030006030300050004180000003C29
:10124E000000008051010080D6E3018151010007AA
:10125E00000000E02E0C0110270A01401F08018833
:10126E00130501B80B0301D0070201E8030A0A00B7
:10127E0019400A800C200A6009180A4006100AB0AC
:10128E00040C0A2003080AF401050A9001040AC896
:10129E0000020A6400010AC0000000D96204019C29
:1012AE003C1D91BC749388C8000000080000001318
:1012BE00000000050000005F00000070000000103C
:1012CE00000000FA000000FC000000F80000000022
:1012DE00020000A9ECFFFF63000000941100007DE6
:1012EE00150000EAF48F0416322C044006C05D8807
:1012FE0013AC73F802E3244F19001BB70067EBE33E
:10130E0005000000000000000000000000000000CA
:10131E00000000000000000000000000000000704F
:10132E006562017065620185A3B365CCCC4E1CCCA1
:10133E00CC4E1C00000000000000000C1111111119
:10134E0011110405050204051A3C1E0000050514C2
:10135E003C050250000000000002000000000000EA
:10136E000000CD13000047170000004006000420C7
:10137E00200001440400024404000044040011440F
:10138E0004001244040010440400214404002244CA
:10139E00040020440400314404003244040030446C
:1013AE00040041440400424404004044048001A36C
:1013BE0002002C010000000000800600000000204A
:1013CE0040000000040000320000A30B00001A00D1
:1013DE00000012000000320000001F000000E02B91
:1013EE003F0010B33C0091572C0016000000040C77
:1013FE00080E060E0A100C1410160E1612180010F7
:10140E000000FFFFFF0303790D057A0D01780D042F
:10141E00081020999999999999616263646566009B
:10142E0040000B0040AA800048474000484FC00EC5
:10143E00E00E041900061001204001010156414141
:10144E0000F07C7C7CFC7C0807060212000411096B
:10145E000103100520480400BF48044024481441ED
:10146E002C4811412A4811C12F393F7A5F206F57FE
:10147E007F10393902F7586C2222638387223E3E51
:10148E00638387223E213D3D9291918491912D2D32
:10149E005E605F6C151509222270637C803E949409
:1014AE007C803E94940201021F6C6C637F787802FC
:1014BE008132787802816374787802813274787818
:1014CE008E8E028181028282022E423B362B1F1F9C
:1014DE00010100050413030000CD081690000088DA
:1014EE001403020100050333030000CD081690001B
:1014FE00008E1403050100800A00000000B62600CD
:10150E0000000000000306010705053B0300001262
:10151E000C3692000000000308010009053B030091
:10152E00001A0C3692000000000109010009053B6B
:10153E000300001E0C369200000000010C01000595
:10154E000733038000CD08169000000000030F0142
:10155E000041012B038000260D1F930000000003A5
:10156E00010204050131020000BF0D81930000004D
:10157E000003050200050A31020000C30D8193002D
:10158E0000000003070200050131020000C50D81B5
:10159E009300000000010802000501100000006E1B
:1015AE000D200001C0000003010300050111000021
:1015BE00007B0D630001C000000302030005011152
:1015CE00000000CA0D140005C0000003030300054F
:1015DE000111000000C80D020000C000000304034A
:1015EE0000050111000000C90D040000C000000339
:1015FE000503000501110000007C0D630001C00011
:10160E000003060307092319000000FE0B3F420FDB
:10161E0088000003080300050111000000CB0D1E19
:10162E000005C0000003010400058613030000F04E
:10163E000B0A8F000000000302040029861303002A
:10164E0000EA0B0A8F000096140303040005A01293
:10165E000000007D0D000000000000030404078060
:10166E000101018000E11D01940000000003090446
:10167E0000801301010001DB1DE5BC0000CE140348
:10168E000B0400808A02010000E61DE5BC0000008C
:10169E0000030C0400808A02010000501EE5BC000D
:1016AE00000000030D04008090020100005A1EE5A8
:1016BE00BC00000000030E0400288613030000E4A3
:1016CE000B0A8F00009914030F0400050B12000083
:1016DE00009D0D00000000000003010507800204BC
:1016EE000000007B090000000000000308050080D8
:1016FE0004040000002A0D00000000000003010693
:10170E0000050130020000BE0D139500000000031D
:10171E00010700050110020000780D9188000000FD
:10172E000003030700050110020000790D918800E7
:10173E00000000030507000501100200007A0D915C
:10174E00880000000003010800050130020000C6F9
:10175E000D6995000000000302080005013102002A
:10176E0000C70D6995000000000301090605011070
:10177E00020000B40DDA950000000003010A000516
:10178E0004130200004A0D51BC0000000003020ABF
:10179E0005050A11000000BA0D3C0001C00000034F
:1017AE00010B030582170200004E0D25960000A5C1
:1017BE001403010C05050430038000620DC088007F
:1017CE0000000003011002090419004700F60BFF88
:1017DE00E0F585B314010310050504190047002E2A
:1017EE000DFFE0F58500000106100004041803004B
:1017FE00000E0C2EA50000000001011100050111C4
:10180E000200006F0DD296000000000304110005C7
:10181E000812000000700D0000000000000301120D
:10182E0000050513030000460D369200000000036C
:10183E00021200050111020000AD0D3497000000E8
:10184E000003031200050213020000540D6A9700F4
:10185E0000A51403041200808400000000B00D00E7
:10186E0000000000000301140005021100000056E4
:10187E000D0F270080000003021400052311000045
:10188E0000420D3F420F80000003031400050211B9
:10189E00000000580D0F27008000000304140505FA
:1018AE000111000000AE0D63000080000003011561
:1018BE0000800206010000360C948C00000000032C
:1018CE000215008002000100008B0914A500000023
:1018DE000001031500000C02030000360C948C006E
:1018EE00000000031FF100808400010000DF075894
:1018FE009800000000032FF10001B902020000B7AA
:10190E001D189900000000033FF10001FA020200C9
:10191E0000F01D189900000000035FF10001A00205
:10192E000200006E1E189900000000036FF1000106
:10193E00D702020000440B769900000000037FF1ED
:10194E00000190020200009D0B769900000000033A
:10195E00AFF100800400000000C10700000000008D
:10196E000003CEF100010202020000680BF899009C
:10197E0000000003CFF1000102020200006C0BF820
:10198E00990000000003DEF1000102020200006A6D
:10199E000BF8990000000003DFF1000102020200C3
:1019AE00006E0BF8990000000003EFF10001020237
:1019BE00020000700BF899000000000301F3000113
:1019CE0081020200006E1E15BA000000000302F331
:1019DE0000018602030000000047BA000000000369
:1019EE0003F3000186020300009D0BFABA0000000B
:1019FE00000304F300010211000000D50A000000EC
:101A0E000000000305F300018402020000DE0BC794
:101A1E00BB000000000306F300410832038000CC37
:101A2E000D82BD000000000307F3000191020200C9
:101A3E0000360E19BE0000000003010000802301D5
:101A4E00000600A20A0000000080140302000080BD
:101A5E000201000000D10A000000008214030700FA
:101A6E0000800201000001E30A000000009E140342
:101A7E00080000800201000002D70A00000000A446
:101A8E0014030A00008004010080007E0C00000098
:101A9E00000000030B0000800401000004EA0C00AB
:101AAE00000000A71401200000800401000004F2D1
:101ABE000C00000000A814012100008004010000A9
:101ACE0004EE0C00000000A8140122002380020185
:101ADE00010000070B649A000000000301080005D6
:101AEE0002110000005E0DE80300800000030208F2
:101AFE0000050111000000AB0D63000AC0000003D9
:101B0E000110000523110003003E0D3F420F80001F
:101B1E000003021000050111000000AC0D6300006F
:101B2E008000000301F100050211000000600D901D
:101B3E000100809C14030AF1000504110000007ED0
:101B4E000C0F2700809C14030048404004481600E8
:101B5E001A481680004840C000484040044804001F
:101B6E0008483C410C483C410040FF0F08483C41AE
:101B7E000C483C410040FFBF0048404004480880EC
:101B8E000048040004484040084840C00048404017
:101B9E00044804800048404004480580040040404A
:101BAE000048404008003C410C003C410040FF0F03
:101BBE0004483C4108483C410040FF8F00484040EB
:101BCE0004480980040040400048404010000100D5
:101BDE0008003C410C003C4104483C4108483CC1D3
:101BEE00040040400048404008003C410C003CC10D
:101BFE0004202000F4020400C6100800B80304807C
:101C0E00004848400448344108483C410C483C4197
:101C1E0010483CC100483C4108483C4110483C41FA
:101C2E0018483C4120483CC10048384100483841E2
:101C3E000140FF91001100630C5D9F0301300016FF
:101C4E006A9F9F03033000170EA69F0304300018EF
:101C5E0010AD9F030530001900B49F030630001A23
:101C6E005EF8A0030730001B0BE4A1030830001C34
:101C7E0000EBA1030930001E0BE4A1030C30001F82
:101C8E00100AA3030D3000533C97A3030F30000C32
:101C9E002AACA4011030000D8AE6A4011230001205
:101CAE000FEAA3031330000B240CA601013306091F
:101CBE00000DA6010034000A1305A60100360062CD
:101CCE001DF1A303003700611457A40300A00024E4
:101CDE0006989F0301A0002510AD9F0347638D8FCB
:101CEE008F4763758F8F00484D4004483CC1637C1D
:101CFE007B7B777E6363637A7E7E0C04080281327F
:101D0E00747C7B7B028132747C7B777E7E02813297
:101D1E00747C7B7A7E7E333345666861605F5F4696
:101D2E0038384B5E66605F67672D0A0A00029000C6
:101D3E0003010290000301010004030201000403E9
:101D4E000C01000403010400040302040004030454
:101D5E000080040300FF00000300FF01000300FFEA
:101D6E0002000300000B000300000C000300000D36
:101D7E00000140000000040000003B0000000E00C7
:101D8E0000000014300300FFFF000000300065006B
:101D9E000000285C8F029999991990D003000C00CD
:101DAE000000010101090714034550534F4E313114
:101DBE004C20536570203136203230313920313984
:101DCE003A34373A323400000000600057B004B99C
:101DDE00009808320058021444445A595858582D45
:101DEE004D0044445A595858582D4D0000000000DB
:101DFE0000000000000000000000000000000000D5
:101E0E00000044445A595858582D4D000000000007
:101E1E0000000000000000000000000000000000B4
:101E2E000000585858580000000000000000000044
:101E3E000000000000000000000000000000000094
:101E4E000000323031362D58582D5858444C2F54EE
:101E5E003634352D323030372D313400770133554D
:101E6E00006400000078020014122501AAAAAAAA92
:101E7E00AAAAAAAA000000000000000000000000AC
:101E8E000000000000000000000000000000000044
:101E9E000044445A59585858432D4D44445A5958A1
:101EAE005858432D4D0000000000000000000000B7
:101EBE00000000000000000000000044445A595881
:101ECE005858432D4D000000000000000000000097
:101EDE00000000000000000000000044445A595861
:101EEE00585843000044445A59585858430000006B
:101EFE0000000000000000000000000000000000D4
:101F0E00000000000044445A59585858430000003D
:101F1E0000000000000000000000000000000000B3
:101F2E00000000000044445A595858582D4D0044A2
:101F3E00445A595858582D4D00000000000000001A
:101F4E00000000000000000000000000000000443F
:101F5E00445A595858582D4D0000000000000000FA
:101F6E00000000000000000000000000000000441F
:101F7E00445A5958585800000044445A5958585811
:101F8E000000000000000000000000000000000043
:101F9E0000000000000000000044445A59585858F0
:101FAE000000000000000000000000000000000023
:101FBE00000000000000000000341200400000008D
:101FCE0040000000000000000000000000000000C3
:101FDE0040000000000000000000000000000000B3
:101FEE0000000000000000000000000000000000E3
:101FFE0000000000000000000000000000000000D3
:10200E0000000000000000000000000000000000C2
:10201E006000000000000000000000000000000052
:10202E0000000000000000000000007200B1014D31
:10203E00E8FFFF6CFDFFFF00000000000000000045
:10204E000000000000000000000000000000000082
:10205E000000007701335500000000000000000072
:10206E000000000001111111111111F401000064A2
:10207E000000000100000001000000204E000000E2
:10208E000000000000000000000000000000000042
:10209E0000000000000000000080110000001F0082
:1020AE000000000000000000000000000000000022
:1020BE000000000000000000000000000000000012
:1020CE000000000000000000000000000000000002
:1020DE0000000000000000000000000000000000F2
:1020EE0000000000000000000000000000000000E2
:1020FE000000000000000000000000000000004092
:10210E0088A0004088A0004088A0000000000000C9
:10211E0000000000000000000000000000000000B1
:10212E0000000000000000000000000000000000A1
:10213E000000000000000000000000000000000091
:10214E000000000000000000000000000000000081
:10215E000000000100000000000000000000000070
:10216E000000000000000000000000000000000061
:10217E000000000000000000000000000000000051
:10218E000000000000000000000000000000000041
:10219E000000000000000000000000001000080019
:1021AE00000000E8030000FFE0F505C80000000095
:1021BE000000002C000000307500000049D1120014
:1021CE0000010101009999999900000000A00500F5
:1021DE0000000058020401000000000256341204F0
:1021EE0078563414000004100000000200040808A1
:1021FE00071B0000000000000000000000000000AF
:10220E0000000000000000000000000000000000C0
:10221E00000000000000000000000000003C3C3CFC
:10222E003C0A3C1E1E999912000F83838303830F71
:10223E000F0F0F05020208040000007F01020405C3
:10224E0005FFFFFFFFFFFFFFFF0000000000000083
:10225E000000000000000000000000000000000070
:10226E000000000000000000000000000000000060
:10227E000000000000000000000000000000000050
:10228E000000000000000000000000000000000040
:10229E000000000000000000000000000000000030
:1022AE000000000000000000000000000000000020
:1022BE0000000000000000000000000016110212D5
:1022CE000C120C120C120C120C120C120C120C1210
:1022DE000C120C120C120C120C1102120C120C120B
:1022EE000C120C120C120C120C120C120C120C12F0
:1022FE000C120C120C881300241300C012005C1276
:10230E0000000000000000000000000000000000BF
:10231E0000000000000000000000000000000000AF
:10232E00000000000000000000000000000000009F
:10233E00000000000000000000000000000000008F
:10234E00000000000000000000000000000000007F
:10235E000000000000881300241300C012005C125D
:10236E00000000000000000000000000000000005F
:10237E00000000000000000000000000000000004F
:10238E00000000000000000000000000000000003F
:10239E00000000000000000000000000000000002F
:1023AE00000000000000000000000000000000001F
:1023BE00000000000001008216032D8443015A82A2
:1023CE00700387849D849D849D849D849D849D84BB
:1023DE009D00000000000000000000000000000052
:1023EE0000000000000000000000000000000000DF
:1023FE00000000000000000000000000000099999D
:10240E0099999999999999999999000000BE0512EF
:10241E0046843F05690040BE0340000000000002F4
:10242E00FA02900000000290000000000000000080
:10243E000000000006120101000400020100040069
:10244E002000800200000290000000000B0000003F
:10245E00000000000000000000000000000000006E
:10246E000000000000000000010100040002010055
:10247E000400200080020000029000000000000016
:10248E000001000000000E040004010E0400040010
:10249E000204000401020400040000010102000015
:1024AE00010202000001030200010B0004000904F6
:1024BE000004000200800200021400040003140055
:1024CE0004000000000000000000000000000000FA
:1024DE0000000000000000000000000000000000EE
:1024EE0000000000000000000000000000000000DE
:1024FE0000000000000000000000000000000000CE
:10250E0000000000000000000000000000000000BD
:10251E0000000000000000000000000000000000AD
:10252E00000000000000000000000000000000009D
:10253E00051700000000000001000000000200006E
:10254E000000030000000004000000000000000076
:10255E00000000000000000000000000000000006D
:10256E00000000000000000000000100000000025A
:10257E000000000003000000000400000001000045
:10258E000000010100000001020000000103000034
:10259E000001040000000200000000020100000023
:1025AE00020200000002030000000204000000010D
:1025BE0004000401010400040001010004000201F2
:1025CE0000040000010102000001020200000103EC
:1025DE0002000001060200000000000000000000E2
:1025EE0000000000000000000000000000000000DD
:1025FE0000000000000000000000000000000000CD
:10260E0000000000000000000000000000000000BC
:10261E0000000000000000000000000000000000AC
:10262E000000000000000000000000001FF1000488
:10263E00070606060002900015222D3E7F8286892F
:10264E008A10110B315C645D654A0200004B02007A
:10265E00004D024F0251020504040909030394942C
:10266E00797D7D7981817985851C1C5B5B019393D6
:10267E005302560259025C025E02600257027C7BD4
:10268E007BF40204800006030300050004FFFFFF35
:10269E00FFFF999999999999616263646566000043
:1026AE000000000000000000805E666861605F67E9
:1026BE003F6B6D5958526C4C46484F4E4D47403A01
:1026CE003C4342413B342A2C3736352B241E2027DF
:1026DE0026251F1812141B1A19130C06080F0E0D9F
:1026EE00074944454B51504A0000000001000000CC
:1026FE000100030002000000070040000C00000073
:10270E000703040002001B040F03080004001B044F
:10271E002F03300002001B048F03300002001B0445
:10272E00EF03300002001B044F04300002001B04B4
:10273E00AF041800140000008F0614000A000000F9
:10274E00570722000A001B04AB0820000A000000F5
:10275E00EB097C000A000000C30E300003001B04CE
:10276E00530F300002001B04B30F38000200130495
:10277E0023100C0002004B043B1010000A007304DF
:10278E00DB100C0014004B04CB111000140093044A
:10279E000B1330000A000000EB1410000A00830433
:1027AE008B150C000A00000003160C000A00000036
:1027BE007B1628000A0000000B1828000A000000F3
:1027CE009B190C000A000000131A0C000A000000EE
:1027DE008B1A18000A0000007B1B0C000A00000078
:1027EE00F31B0C000A0000006B1C180014005704A9
:1027FE004B1E0C0014004B043B1F0C001400A304D2
:10280E002B200400140074027B20040005007402C7
:10281E008F200C0005000000CB20040002000000F9
:10282E00C6100200B40304008F0304002504040044
:10283E000144040002440400114404001244040044
:10284E0021440400224404003144040032440400B4
:10285E00414404004244048000003300014404005B
:10286E0002440480F4020400014404000244040003
:10287E0077040200A004030025040300FA0302807B
:10288E00F4023300C21104002A120100180504C01C
:10289E0000003300280504000144040002440480B3
:1028AE0000003300C21104000144040002440480FD
:1028BE008F03040001440400024404800040000021
:1028CE00A00000400000FEFFFFFF02785634120108
:1028DE0049D11247276267C082C083E9FB74FF2B80
:1028EE001904601A7A00800808E8C3941440F90AA3
:1028FE009002AEE0F8EAC39850E1780080EBD08306
:10290E00D0822274F8120B977F00C3EA9410EB94D6
:10291E002740077AFF7BFF0229D3C3EA9440EB944A
:10292E001F400A7F80EA24C0FAEB34E0FBC3EA942E
:10293E00A0EB940F400C74404FFFEA2460FAEB3486
:10294E00F0FBC3EA94D0EB9407400C74204FFFEADF
:10295E002430FAEB34F8FBC3EA94E8EB9403400C12
:10296E0074104FFFEA2418FAEB34FCFBC3EA9420F0
:10297E00EB9403400C74084FFFEA24E0FAEB34FCAE
:10298E00FBC3EA9490EB9401400C74044FFFEA24CD
:10299E0070FAEB34FEFBC3EA94C8EB9400400C745F
:1029AE00024FFFEA2438FAEB34FFFBC3EA9464EBE0
:1029BE0094004008E4044FFFEA249CFAEAF9122B33
:1029CE00BFE9FAEFFB7F01020BFD74F1120B977456
:1029DE00F4120B27853182853283EAF0A3EBF0A344
:1029EE00ECF0A3EDF07408120B73E4F0A3F0A3F077
:1029FE00A3F080139011DF78211209AD8531828505
:102A0E00328378211208D19011E378211209AD8515
:102A1E003182853283782112069250D87525007541
:102A2E0026B47527C47528047404120B73E4F0A33E
:102A3E00F0A3F0A37480F079008008740178251259
:102A4E00085C09E9C394108531828532835074780D
:102A5E0025120692401F7404120B73782112099EE0
:102A6E007408120B73782112098B8531828532839B
:102A7E0078251209107404120B73782112099E74B2
:102A8E0001782112085C7404120B7378211209C0AC
:102A9E00E924FD600A24FC601424FC601B809C75F4
:102AAE00250075261275277A7528008095752500E4
:102ABE0075263575270C80F0752580752638752797
:102ACE000180E5782112099EAA21AB221229118AD2
:102ADE00218B22E4F523F5247408120B737821124E
:102AEE00098B7408120B731209CF740C120B3D7FF5
:102AFE0008020BFD74F1120B9774FA120B27740275
:102B0E00120B73EAF0A3EBF0A3ECF0A3EDF0752536
:102B1E0000752600752700752800A882A9838531C7
:102B2E0082853283E8F0A3E9F07E00804F85318202
:102B3E00853283E0F8A3E0F5838882E0F9122BA2B8
:102B4E00E9FA853182853283E024FFF8A3E034FF71
:102B5E00F9853182853283E8F0A3E9F09011E778A8
:102B6E00211209AD782579211206E48A21E4F52295
:102B7E00F523F524782579211208940EEEC39404DA
:102B8E0040ABAA25AB26AC27AD287406120B3D7FB1
:102B9E0008020BFD74F7120B97E9C3949A4004795F
:102BAE00AA8009E9F582758303E493F97F02020B8B
:102BBE00FD74F7120B97E9C39464400479FF800DFE
:102BCE00749C29F582E43403F583E493F97F0202C1
:102BDE000BFD74F7120B97EAFCEBFDE9FE7A557BC1
:102BEE0055802FEAF9EBFA8C828D83E0F521EA65A8
:102BFE002125E0FAE433FBE42AF58274013BF583E8
:102C0E00E493FAA3E49369FB8C828D83A3AC82AD2B
:102C1E00831EEE70CE7F02020BFDC082C083800B3E
:102C2E00E98A828B83F0A3AA82AB83ECF874FF2827
:102C3E001C0470ECD083D08222C082C083E9701C49
:102C4E0090020174FFF0900206E4F0A3F0900205EA
:102C5E00F09002027403F0A3E4F0A3F0D083D082CC
:102C6E0022C082C083E4801B900203E06013E01454
:102C7E00F0E0700D9002027404F0900348E04410EE
:102C8E00F0740160E3D083D0822274F8120B979017
:102C9E00024B74FFF0A3F0A3F0A3740FF07F0102B8
:102CAE000BFD125352022D39C082C08375CEA5750D
:102CBE00CF5A75CEA575CF5A124A1E75CEA575CFB1
:102CCE005A75CEA575CF5A12BE9475CEA575CF5A2C
:102CDE0075CEA575CF5A12C098900273E0702C90E5
:102CEE0002CAE06450702475CEA575CF5A75CEA574
:102CFE0075CF5A12C47875CEA575CF5A75CEA575F7
:102D0E00CF5A79017A747B0212513E75CEA575CFDA
:102D1E005A75CEA575CF5A12594475CEA575CF5A90
:102D2E0075CEA575CF5AD083D082222274F8120B9D
:102D3E009790026BE4F090025CF0900261F0A3F0C9
:102D4E00A3F0A3F090025DF0A3F0A3F0A3F0900225
:102D5E0065F0A3F0A3F0A3F0900269F0F9122DB183
:102D6E007F01020BFDC082C083C2AF900256E024E9
:102D7E0001F0A3E03400F0D2AFD083D08222C08223
:102D8E00C083900252E02401F0A3E03400F09002E0
:102D9E0056E0F8A3E0F9900254E8F0A3E9F0D083EE
:102DAE00D0822274F8120B97E970117C0A79007A9E
:102DBE00527B02122C2890026AE4803CC2AF900231
:102DCE0054E0F8A3E0F9A3C3E098F0A3E099F090E3
:102DDE000252E4F0A3F0A3F0A3F0D2AFA3C3E094A9
:102DEE0009A3E0940740099002567408F0A314F06A
:102DFE00A3E4F0A3F0A3F0A3F07F01020BFDC082C9
:102E0E00C0839028D8E493F8900B23E0C398403AFF
:102E1E0090092CE0C4135407540364017901600532
:102E2E001237EE800812376B79011236829009152F
:102E3E00743CF0900D7CE0900918F090094B743CB6
:102E4E00F0A3E4F012579B1231E190092AE054DF0F
:102E5E00F0D083D0822274F3120B9790092CE0FAF3
:102E6E00A3E0FBEAA2E0503C900931E05402703935
:102E7E00EA5410702F90094CE07029900D2678219D
:102E8E0012099E852226E52654107010EB5402601E
:102E9E000BE52154027005EB5401800690097FE08A
:102EAE005410600543A620800353A6DF53A5DF53BD
:102EBE00A4DFEAA2E05008900931E0540260030258
:102ECE002F61EA54106003022F5CEAC413540754B6
:102EDE0003707B90094FE0707590094CE0706F9015
:102EEE00094BE0706990092EE0F521A3E0F52274FC
:102EFE00067821120B05E52154077052900D0E1223
:102F0E0009F3E8494A4B60069008E2E06040900DF4
:102F1E000A1209F3E8494A4B7034902423C082C048
:102F2E008390097B782112099ED083D082E4935539
:102F3E0021F8A3E4935522F9E8497012901206780D
:102F4E00211209AD90090E7821120615700543A6BF
:102F5E0008800353A6F753A5F753A4F77F06020B79
:102F6E00FDC082C083E9C3945750287401C0E07439
:102F7E000759F8D0E0B800028004C333D8FCF8E952
:102F8E00131313541FFA74E32AF582E43408F583FD
:102F9E00E048F0D083D08222C082C083E9C3945728
:102FAE0050297401C0E0740759F8D0E0B8000280CF
:102FBE0004C333D8FCF4F8E9131313541FFA74E363
:102FCE002AF582E43408F583E058F0D083D08222CB
:102FDE0074F3120B9774F529F582E43411F583E43A
:102FEE0093F525EA75F007A4F8A9F074B728FE74D6
:102FFE002639FF7526008005122FA60526E526C365
:10300E0094075027852621EE2521F582E43FF5838E
:10301E00E493F9852521752200E5267821120AF51B
:10302E00E521A2E050D2122F6F80D07F06020BFD59
:10303E0074F7120B9790092EE05402607BEA4B60F6
:10304E00777E0080010E74D92EF8E43405F9E82459
:10305E0015FCE93403FD8C828D83E0FFE82416F520
:10306E0082E93403F583E06F70DB8C828D83E0F4AC
:10307E0060010EEEC3941E503F8A828B83E493FC54
:10308E0074D92EF8E43405F9ECC0E0E82415F58285
:10309E00E93403F583D0E0F08A828B83A3AA82AB56
:1030AE0083E493FDEC6D70CAEDC0E0E82416F58262
:1030BE00E93403F583D0E0F07F02020BFDC082C03D
:1030CE00838A828B83E493900913F0A3E4F08A82BF
:1030DE008B83A3AA82AB8312303ED083D08222741C
:1030EE00F7120B97E9FE90092EE054026029900921
:1030FE00137449F0A3E4F0EEC394055010744A29FA
:10310E00F582E43426F583E4939008EEF012303E17
:10311E007A8C7B2612303E7F02020BFD74F7120B67
:10312E009774EC120B27A831A93288218922AE217F
:10313E00AF227521147522007821120C41EAFCEBA6
:10314E00FD7402120B85127A0E7402120B3D85313C
:10315E0082853283E0700E7401120B73E07006806C
:10316E0048E8FEE9FF8E828F83E0F87401687043B1
:10317E00A3AE82AF8390092CE05401F8A3E0540172
:10318E00F97401687001E960098E828F83E0F9128B
:10319E002F6F8E828F83A3A882A9838E828F83E066
:1031AE00FA88828983E06A70B87414120B3D7F022C
:1031BE00020BFD74026870D1A3AE82AF83E0F8C437
:1031CE00540FFA740F58F9740F6970027910122F98
:1031DE00DE80BF74F1120B9774F0120B277C0B7DFF
:1031EE00007AE37B0812E36590120A78211209AD8A
:1031FE00AA21AB22AC23AD2412E5B3E970107C0BEF
:10320E007D0079FF7AE37B0812E49002367590090F
:10321E002CE05481F8A3E05401F9748168497003DD
:10322E00023675900389E531F0A3E532F07C207DFE
:10323E000079FF7AEE7B0812E49090092CE054F7A7
:10324E00F0900913E4F0A3F090092EE04402F07A16
:10325E000E7B0912A727E054FDF0900914E0F954F3
:10326E00076006E9540704800AA831900389E0C379
:10327E0098C333FF790412E39385318285328378C4
:10328E002112099E7E00900913E0F8540714601B6A
:10329E0014601814605C14605914700302333014F7
:1032AE00700302333514600302333AE85408603E6B
:1032BE00900DC8E0F8C394025034E8FE90120E78D8
:1032CE00251209ADAA25AB26AC27AD2812E5B3E928
:1032DE00701890092CE054087010EE7005901212C0
:1032EE00800390121678211208BA740280170E0EFF
:1032FE008022E85408601B900DC9E0F8C394045076
:10330E0011E8FE7404C39E333354FC782112085C1A
:10331E0080027E04900913E05440601074012EFF69
:10332E00800A0E7F0280050E0E0E7F04EE60107472
:10333E00452EF582E43426F583E493F9122F6F902F
:10334E000913E05407F8603174FF2825E0F8E433E0
:10335E00F9745728F582742639F583E493C0E07426
:10336E000193F583D082AA82AB83EA4B600B741B68
:10337E002AFA74243BFB12312A7E078012EEFAE5FC
:10338E0021540FF9122FDE7404782112085C1E747A
:10339E00FF2F1F0470E7E521452245234524703D8C
:1033AE0090092CE05408604E90090E782112099E67
:1033BE007410782112085C7490652145227032EEEB
:1033CE00FA7910122FDEEE75F007A4F8A9F074BD8D
:1033DE0028F582742639F583E493F98016EEFAE522
:1033EE0021540FF9122FDE7404782112085C1E800E
:1033FE00A57930122F6F90092CE0A2E04003023520
:10340E001D900930E054406055900913E05420702F
:10341E004D900CE9E0F8C3940A502F740128FF7503
:10342E0023048022EFC39523401A8523217452254D
:10343E0021F582E43426F583E493F9122F6FE52308
:10344E00CFC39FFF1523E52370DA7995122F6F7A7C
:10345E001E7B0C12E5F3E970057962122F6F900C4A
:10346E00DFE070030234F5900913E0541070789089
:10347E0007CDE0F8A3E0F5838882E0F521C394043C
:10348E00502190092DE054017008900988E05402F3
:10349E007011744F2521F582E43426F583E493F9F7
:1034AE00122F6F900BDFE064016019900D6FE0A298
:1034BE00E15011795A122F6F7A1A7B0C12E5F3E94B
:1034CE007025801A900D26782112099E90121A7876
:1034DE0021120937E5214522452345246004796FE1
:1034EE008002795A122F6F90091BE0602290091A00
:1034FE00E025E0F8E433F9747E28F582742639F578
:10350E0083E493241BFAA3E4933424FB12312A7A26
:10351E00EE7B0812312A9008E2E0601890092DE047
:10352E005402603E900D26782112099EE521540228
:10353E0070308033900D0E1209F3E8494A4B700C2F
:10354E00900D0A1209F3E8494A4B601B90092CE0D2
:10355E005401F8A3E05401F9740168700374016911
:10356E007005798C122F6F90097CE0544060419069
:10357E00092EE0F521A3E0F52274067821120B0541
:10358E00E5215407C39404401A900D2678211209A0
:10359E009E90121E7821120937E5214522452345BA
:1035AE0024600890092DE0540160057990122F6F68
:1035BE007A2A7B0D12E63CE96005796A122F6F902C
:1035CE00097DE0A2E05005792F122F6F90097FE060
:1035DE0054087028900D26782112099E9012227898
:1035EE0021120937E521452245234524600E900915
:1035FE0052E0600D90092DE0540160057972122F92
:10360E006F90092CE05401F8A3E05401F97401689D
:10361E007001E9602990097BE05404600579281255
:10362E002F6F90092EE0F521A3E0F5227406782184
:10363E00120B05E521540760057988122F6F900C47
:10364E007BE0C39403500EA3E0C394035007A3E0A2
:10365E00C394C840057976122F6F7A08900919E045
:10366E0004540FF9122FDE12590B7410120B3D7FFA
:10367E0008020BFD74F5120B97E9FE90092CE0542D
:10368E007FF090122678211209ADAA21AB22AC232D
:10369E00AD2412E5B3E97009900912E0C39402401B
:1036AE003290122A78211209ADAA21AB22AC23AD99
:1036BE002412E5B3E97024900912E0FA900CDFE0D1
:1036CE0024FFF8E434FFF9C3EA98E499A2D265D056
:1036DE00335008900912E004F0807D90092CE0C46C
:1036EE0013540754036401700AEE70077900123701
:1036FE006B8022900919E004F0900918E0F8A3E01D
:10370E00C3984016EE700E790012376B90094FE099
:10371E006003E014F0900919E4F07521057522009C
:10372E007821120C41900919E075F005A4F8A9F062
:10373E0090091CE0FA75F0EFA4CAACF02CFB7429CA
:10374E002AFA74293BFBEA28FCEB39FD7A0E7B0939
:10375E0012C9D07402120B3D7F04020BFD74F712D6
:10376E000B9790092CE0549FFAA3E0FB7403697049
:10377E0015EA444090092CF0A3EBF090091774C79A
:10378E00F0A37402804DE9C39402501C8921752266
:10379E000074057821120B14E5215460FCEA4C905C
:1037AE00092CF0A3EBF0800CEA444090092CF0A316
:1037BE00EBF07900E99009177003E480027463F06E
:1037CE00747B29F582E4340DF583E0900918F0E955
:1037DE0090091CF090092CE0547FF07F02020BFD43
:1037EE0074F8120B9712376B9009197480F07901E7
:1037FE00123682900DCAE0900915F07F01020BFD82
:10380E0074F5120B9790092CE0FAA2E0505590092E
:10381E006CE0FC900DCBE025E0F8E433F9EC98E495
:10382E0099C365D033502A90122E78211209AD908B
:10383E0005D978211206156018EAC41354075403EB
:10384E00F87402686003E8700890092CE044108058
:10385E00559005D974B8F0A3743EF0A37424F0A368
:10386E007403F090091BE06003E014F0900929E066
:10387E00602B90094CE06003E014F090094BE0607F
:10388E0003E014F0900915E014F0E07010790012C6
:10389E003682900DCAE0900915F012579B1231E155
:1038AE0090092CE054EFF0122E647F04020BFD748D
:1038BE00F5120B9712579B90122E78211209AD908C
:1038CE0005D97821120615600D7C0B7D0079FF7AE3
:1038DE00E37B0812E49012590B79001237EE90092F
:1038EE004BE4F07F04020BFD74F5120B9774F81283
:1038FE000B27AA31AB321241B0900B1FE0A2E15060
:10390E003090097BE0F8A3E04480F990097BE8F061
:10391E00A3E9F0900D26782112099EE52154087036
:10392E000A790712EBA4790312EABB9008E1743C02
:10393E00F07408120B3D7F04020BFD74F8120B9706
:10394E001238F69008D1E4F0A3F0A3F0A3F012C45D
:10395E00BF7F01020BFD74F1120B9774E5120B275A
:10396E00853182853283EAF0A3EBF0A3ECF0A3ED70
:10397E00F0853182853283120C547C007D00740FE9
:10398E00120B85123D777404120B3DAA31AB321225
:10399E00EB3EE9FE7521037522007821120C41746D
:1039AE0010120B73AC82AD837406120B8512E53BBD
:1039BE007402120B3D7821120C41740D120B8D7492
:1039CE000A120B73AA82AB8312E53B7402120B3DF3
:1039DE00752101EE7821120B147407120B73E52179
:1039EE00F0790A12EC1F7404120B85124263900BCD
:1039FE001FE0C2E1F07404120B73E0F912E5D5E991
:103A0E009008E1F0853182853283782112099E90EB
:103A1E00120A78211208BA9008D578211209C078B6
:103A2E002112084CA378211209C085318285328378
:103A3E001209F39008CD1209FF8531828532837801
:103A4E002512099E9008E1E0F521E4F522F523F513
:103A5E0024782579211208E49008D178251209C01E
:103A6E007A8A7B0C12E8897A8E7B0C12E8897A921C
:103A7E007B0C12E88990097BE0F8A3E0547FF99063
:103A8E00097BE8F0A3E9F0741B120B3D7F08020BD3
:103A9E00FD7C037D007ACD7B08023AAA74F1120BED
:103AAE009774EE120B27740A120B73ECF0A3EDF061
:103ABE00EAFEEBFF740E120B73E4F0A3F0A3F0A377
:103ACE00F0740A120B73E05403F521740365217030
:103ADE0013740C120B851241B0740D120B73E0545B
:103AEE001FF08057EE4F7003023D65743E2521F5A1
:103AFE0082E43412F583E493F521F9127B5BE964D9
:103B0E00017003023D65752200740A120B73A3E067
:103B1E00544078216011120C41EEFCEFFD740E1230
:103B2E000B8512E53B800F120C41EEFCEFFD740E7F
:103B3E00120B85127A0E7402120B3D752105752239
:103B4E00007821120C417C217D14740E120B85120B
:103B5E007B1D7402120B3DEA4B4C4D700B7AFF7BB2
:103B6E00FF7CFF7DFF023D6D7E00802A740C120BE0
:103B7E0073E5822EF582E43583F583E0F912E5D5FF
:103B8E00E9C0E07404120B73E5822EF582E43583EE
:103B9E00F583D0E0F00EEEC3940640D07405120B00
:103BAE0073E014FA7404120B73E0FC75F06DA4CC80
:103BBE00A8F028FDE02403F521E43400F522740278
:103BCE007821120AF5EC2521F8ED3522F9E8FCE909
:103BDE00FD853182853283ECF0A3EDF0A3E4F0A3F2
:103BEE00F0FE804374322EF582E43412F583E493B2
:103BFE00F521E4F522F523F524853182853283788B
:103C0E00211208D17404120B73E05403701874015E
:103C1E006E70139011D378211209AD8531828532E1
:103C2E008378211208D10EEEC39A40B88531828571
:103C3E003283C082C0837406120B73E0F521E4F563
:103C4E0022F523F524D083D08278211208A7901272
:103C5E004978251209AD782179251206E4740712E8
:103C6E000B73E0F525E4F526F527F528782179255F
:103C7E0012089490124D78251209AD7821792512EB
:103C8E0006E47408120B73E0F525E4F526F527F526
:103C9E00287821792512089490124D78251209ADB5
:103CAE00782179251206E47409120B73E0F525E4E8
:103CBE00F526F527F5287821792512089485318285
:103CCE0085328378211209C0853182853283120CA8
:103CDE00547C007D007408120B85123D777404121B
:103CEE000B3D7521067522007821120C41740E12BF
:103CFE000B8D7406120B85127B1D7402120B3DEA9E
:103D0E004B4C4D7052740A120B73E0540CF521603B
:103D1E00117404652170167C3C7D00AA31AB321201
:103D2E00DB0B8531828532831209CF8032740865B0
:103D3E00217024853182853283782112099E90125A
:103D4E005178251209AD78217925120764AA21AB85
:103D5E0022AC23AD2480087A007B007C007D0074A9
:103D6E0012120B3D7F08020BFD74F2120B9774FAC0
:103D7E00120B278A258B26ECFEEDFFEE5403FCEE8C
:103D8E001313543F5403F52774036C6003023E3A39
:103D9E00AA31AB321241B074036527701C74011244
:103DAE000B73E0C4135407F8C0E07403120B73D006
:103DBE00E0F07407687002E4F07401120B73E054C3
:103DCE001FF0A827E828F8744128FAE43412FB8A79
:103DDE00828B83A3EF54406029E493F52175220072
:103DEE007821120C418A828B83E493F87402120BB1
:103DFE0073E58228FCE43583FDAA25AB2612E53B4C
:103E0E008027E493F5217522007821120C418A82D5
:103E1E008B83E493F87402120B73E58228FCE4356D
:103E2E0083FDAA25AB26127A0E0240957414120B4E
:103E3E00731209F3E8494A4B7018A827E828F87955
:103E4E0000744228F582E43412F583E493FC7D007D
:103E5E00802A90120A78211209AD7414120B73780D
:103E6E00211206157020A827E828F8744228F5823A
:103E7E00E43412F583E493FC7D007999AA25AB26F0
:103E8E0012E49002409A7402120B73E4F07403125F
:103E9E000B73E4F07404120B73E4F07405120B73DD
:103EAE00E4F0EC6005146010803C7C3C7D007414E2
:103EBE00120B8512DB0BEAF07C3C7D007414120BA6
:103ECE008512DB0BEAC0E07404120B73D0E0F07CB9
:103EDE00187D007414120B8512DB0BEAC0E074031C
:103EEE00120B73D0E0F07414120B731209F3E8493D
:103EFE004A4B7003023FF290120A78211209AD74F8
:103F0E0014120B7378211208D17CB57D057414122E
:103F1E000B8512DB0B7414120B73782112099EE5BC
:103F2E0021333354FC853182853283F0EA4B701194
:103F3E007401120B737401F004120B7374010240BE
:103F4E0002EA24FF1AEB34FFFB7414120B73EAF02F
:103F5E00A3EBF0A3E4F0A3F07C6D7D017414120BBF
:103F6E008512DB0B7414120B73782112099E8531A6
:103F7E0082853283E02521F0E0540370050AEA7051
:103F8E00010B7401120B73E4800FC3EA98FAEB94E1
:103F9E0000FB7401120B73E004F0E0F5217401656F
:103FAE00217010853182853283E0540370057521AE
:103FBE001D800F74322521F582E43412F583E493CB
:103FCE00F521852182A882C3EA98EB940050BBEAC2
:103FDE0004C0E07402120B73D0E0F07401120B7384
:103FEE00E0048010853182853283E4F0A3F0740200
:103FFE00120B73E4F0752100852123853182853201
:10400E0083E5822523F582E43583F583E0F912E515
:10401E00E3E9F00521E521C3940640DCA827E82852
:10402E00F8744128F8E43412F9E8FAE9FB8A828B35
:10403E0083A3EF54406029E493F521752200782183
:10404E00120C418A828B83E493F87402120B73E58F
:10405E008228FCE43583FDAA25AB2612E53B80279A
:10406E00E493F5217522007821120C418A828B830C
:10407E00E493F87402120B73E58228FCE43583FD99
:10408E00AA25AB26127A0E7402120B3D7406120B81
:10409E003D7F07020BFD74F1120B9774FA120B277A
:1040AE007402120B73EAF0A3EBF0A3ECF0A3EDF0A5
:1040BE007402120B73782112099E123A9F8A258B75
:1040CE00268C278D28782179251208E47402120B8C
:1040DE00731209CF12396490125578251209AD74F6
:1040EE0002120B7378251206925004791180027910
:1040FE009112EABB853182853283740AF0A3740D66
:10410E00F07402120B73E4F0A3F0A3F0A3F080712D
:10411E00853182853283E0F8A3E0F58388827825A5
:10412E0012099EE5254526452745286028901259F7
:10413E0078251206C1501E7825792112089478250B
:10414E00120C3D7404120B73E0FAA3E0FB12E81E8E
:10415E007404120B3D853182853283E02404F8A36A
:10416E00E03400F9853182853283E8F0A3E9F090DE
:10417E0011D378251209AD7402120B73782512082B
:10418E00D190125D78251209AD7402120B73782549
:10419E00120692500302411E7406120B3D7F080256
:1041AE000BFD74F7120B9774F8120B27EAFEEBFF58
:1041BE00125F7F9002EAE0853182853283F09002B1
:1041CE00EBE0C0E07401120B73D0E0F09002ECE073
:1041DE00C0E07402120B73D0E0F09002F0E0C0E089
:1041EE007403120B73D0E0F09002EDE0C0E07404A3
:1041FE00120B73D0E0F09002EEE0C0E07405120BEB
:10420E0073D0E0F09002EFE0C0E07406120B73D0B2
:10421E00E0F07521037522007821120C417406120C
:10422E000B73AC82AD83EEFAEFFB12E53B74021218
:10423E000B3D7821120C417402120B8DEE2403FA01
:10424E00E43FFB12E53B7402120B3D7408120B3D6A
:10425E007F02020BFDC082C0838A828B83A3A3A33D
:10426E00A3A3E09002E6F08A828B83A3A3A3A3E02C
:10427E009002E5F08A828B83A3A3A3E09002E4F080
:10428E008A828B83A3A3E09002E3F08A828B83A3BE
:10429E00E09002E2F08A828B83E09002E1F0125FFE
:1042AE00C2D083D082221252120242BA74F7120B7B
:1042BE00977C0080010CECC3941150468C21752222
:1042CE000074027821120B1474612521F8741235D2
:1042DE0022F988828983E493FA740193FB900B444C
:1042EE00E06A7003A3E06B70CC88828983A3A3E499
:1042FE009390026EF088828983A3A3A3E493900225
:10430E006FF0ECC39411400A90026E740AF09002A2
:10431E006FF07F02020BFD74F1120B977AF27B1095
:10432E001244C68A218B228C238D249002BE7821C2
:10433E001206A29002BE782512099E500A9002C261
:10434E00E02AC39525800BE525F42A04F89002C2D5
:10435E00E028F09002BE78211209C09002C2E0C39C
:10436E0013F8900270E028F09002C2E0A2E0E4336D
:10437E00F090026EE0F8900270E098402B90026E82
:10438E00E0F5F0900270E084F9F5F090026EE0A492
:10439E00F8900270E098F0E9F5F090026FE0A4F862
:1043AE0090026CE028F0E4F07F08020BFD74F71227
:1043BE000B9790027DE4F0A3F090027804F0900B3E
:1043CE0048E0F8A3E0F97AE87B03120A9CE8FCE9DE
:1043DE00FD900B46E0F8A3E0F97A647B00120A9C8C
:1043EE008821EC88F0A4CCA8F089F0A428F88521C7
:1043FE00F0EDA428FDEC2CFCED33FDECF8EDF97A94
:10440E00E87B03120A9CE8FCE9FD900279ECF0A32C
:10441E00EDF0A3E4F0A3F0900274F0A3F0A3F0A3E8
:10442E007402F0FF020BFDC082C083A28750317868
:10443E0000790080060008E8700109C3E89409E9D4
:10444E00940040F178007900800508E8700109C3F6
:10445E00E8944CE99400505B902885E070EC805312
:10446E00A28078005030790080060008E8700109BB
:10447E00C3E894F0E9940040F178007900C3E89421
:10448E0080E99407502D902885E0602708E870EDAC
:10449E000980EA007801E860FA7800790080050862
:1044AE00E8700109C3E89402E9940050069028854B
:1044BE00E070ECD083D0822274F1120B9790288496
:1044CE0074CCF0E4F02AF582E43BF583E012443537
:1044DE00902885E0600A7A007B007C007D00805881
:1044EE00902883E0F525E4F526F527F5287408785D
:1044FE0025120875902882E0F521E4F522F523F5C2
:10450E00247825792112096174087825120875908E
:10451E002881E0F521782579211209617408782522
:10452E00120875902880E0F521782579211209610D
:10453E00AA25AB26AC27AD287F08020BFD74F1121D
:10454E000B97780090288474CCF0E4F0902885E0E6
:10455E00600908E8C3942140F3803BEA902880F07C
:10456E00EBA3F0ECA3F0EDA3F0740F120B73E0F8D5
:10457E00A3E0F988828983E4F0D287A28740070AF4
:10458E00EAC3941F40F5007800902885E0600B0880
:10459E00E8C3942140F37900800279017F08020B71
:1045AE00FD74F1120B97780090288474CCF0E4F02F
:1045BE00902885E0600908E8C3942140F3803AEA28
:1045CE00902880F0EBA3F0ECA3F0EDA3F0C287A24D
:1045DE008750070AEAC3941F40F5740F120B73E05D
:1045EE00F8A3E0F988828983E4F000F8902885E04A
:1045FE00600B08E8C3942140F37900800279017FB3
:10460E0008020BFD74F1120B97780090288474CC7D
:10461E00F0E4F0902885E0600908E8C3942140F3A7
:10462E00802DEA902880F0EBA3F0ECA3F0EDA3F040
:10463E00740F120B73E0F8A3E0F988828983E4F01B
:10464E0000F8902885E0600B08E8C3942140F379C8
:10465E0000800279017F08020BFDC082C083902882
:10466E0058E4F0A3F0A3F0A3F0A3F0A3F090286316
:10467E00F090286504F0E99028646003E4800274E9
:10468E000FF0D083D08222D2877800A2874007080D
:10469E00E8C3941540F52274F5120B97E9FFC28416
:1046AE0075217D7522287821120C419011DB78211D
:1046BE001209ADAA21AB22AC23AD2412461274020C
:1046CE00120B3D7521787522287821120C4190111C
:1046DE00DB78211209ADAA21AB22AC23AD24124600
:1046EE00127402120B3D7521F47522107821120CF2
:1046FE00419012A978211209ADAA21AB22AC23ADAB
:10470E00241246127402120B3D7521FA752210788E
:10471E0021120C419012A978211209ADAA21AB22C7
:10472E00AC23AD241246127402120B3DEF7521EF2D
:10473E0075221078216008120C419012AD8006127D
:10474E000C419012B178211209ADAA21AB22AC23F3
:10475E00AD241246127402120B3D7E00802B8E2168
:10476E00E52124F0F521E43410F5227821120C41D4
:10477E009011DB78211209ADAA21AB22AC23AD2416
:10478E001246127402120B3D0EEEC3940440CF7EFD
:10479E0000802B8E21E52124F6F521E43410F5223C
:1047AE007821120C419011DB78211209ADAA21ABB0
:1047BE0022AC23AD241246127402120B3D0EEEC330
:1047CE00940440CF75217D7522287821120C4190DA
:1047DE0012B578211209ADAA21AB22AC23AD241259
:1047EE0046127402120B3D75217D75222878211216
:1047FE000C419012B978211209ADAA21AB22AC233B
:10480E00AD241246127402120B3D75217D752228BD
:10481E007821120C419011DB78211209ADAA21AB3F
:10482E0022AC23AD241246127402120B3D7E008080
:10483E002B8E21E52124F0F521E43410F522782188
:10484E00120C419011DB78211209ADAA21AB22ACDA
:10485E0023AD241246127402120B3D0EEEC39404C5
:10486E0040CF7E00802B8E21E52124F6F521E43405
:10487E0010F5227821120C419011DB78211209AD2E
:10488E00AA21AB22AC23AD241246127402120B3DA8
:10489E000EEEC3940440CF7521F5752210782112C7
:1048AE000C419011D378211209ADAA21AB22AC2371
:1048BE00AD241246127402120B3D7521FB752210A7
:1048CE007821120C419011D378211209ADAA21AB97
:1048DE0022AC23AD241246127402120B3DEF752149
:1048EE00787522287821602B120C419012BD782108
:1048FE001209ADAA21AB22AC23AD241246127402CA
:10490E00120B3D75217E7522287821120C419012D2
:10491E00C18029120C419012C578211209ADAA212D
:10492E00AB22AC23AD241246127402120B3D75213C
:10493E007E7522287821120C419011DB7821120904
:10494E00ADAA21AB22AC23AD241246127402120B77
:10495E003D7521797522287821120C419011DB7852
:10496E00211209ADAA21AB22AC23AD24124612743A
:10497E0002120B3D75217A7522287821120C419076
:10498E0012C978211209ADAA21AB22AC23AD241293
:10499E0046127402120B3D75217D75222878211264
:1049AE000C419012A578211209ADAA21AB22AC239D
:1049BE00AD241246127402120B3D75217B7522280E
:1049CE007821120C419011DB78211209ADAA21AB8E
:1049DE0022AC23AD241246127402120B3D75217CBB
:1049EE007522287821120C419011DB78211209AD25
:1049FE00AA21AB22AC23AD241246127402120B3D37
:104A0E009002737401F0900272E4F07F04020BFDC9
:104A1E0074F5120B97900272E070057401024AD081
:104A2E00900273E07003024AD1900272E0700302AA
:104A3E004AD19002CAE0645075217F7522287821F0
:104A4E00602B120C419012CD78211209ADAA21AB28
:104A5E0022AC23AD241246127402120B3D75217D39
:104A6E007522287821120C419012D18039120C41F6
:104A7E009011DB78211209ADAA21AB22AC23AD2413
:104A8E001246127402120B3D900274E064557521A9
:104A9E007D75222878217008120C419012D580065F
:104AAE00120C419012D978211209ADAA21AB22AC79
:104ABE0023AD241246127402120B3D124AD69002F6
:104ACE0073E4F07F04020BFDC082C083D2E890280D
:104ADE0043E0D2E7F09028ACE0C2E3F0A3E0C2E3FB
:104AEE00F09028C77404F0D083D082227900124649
:104AFE006812469575CEA575CF5A79001246A575E2
:104B0E00CEA575CF5A024B42EEC0E0E9FE124668C2
:104B1E0075CEA575CF5A75CEA575CF5AEEF912463C
:104B2E00A575CEA575CF5A75CEA575CF5A1242B4BE
:104B3E00D0E0FE220242B4C082C083900270E00434
:104B4E00F090026EE0F8900270E0C398401E900262
:104B5E006EE0F8900270E0C398F090026FE0F8906B
:104B6E00026CE028F0900348E04404F0D083D08239
:104B7E002274F1120B9774F4120B278A218B227474
:104B8E00D66521700474106522700E900274E06474
:104B9E005570067521D7752210AA21AB221244C674
:104BAE00EAF8EBF9ECFAEDFB8531828532831209D6
:104BBE00FF7821120CB20100D610D710E44B05007D
:104BCE00D310A450D810D74CD910494DDA10034F3A
:104BDE00FD10E74F1F517403120B73E0C394804016
:104BEE0023853182853283782112099E782112081D
:104BFE004C9011D378211208BA8531828532837890
:104C0E00211209C0900B78782112099E7408782120
:104C1E0012085CE52145224523602B8531828532C1
:104C2E0083782512099E74057825120875782579E2
:104C3E002112076474037825120875853182853236
:104C4E008378251209C0900B48E0F8A3E0F97AE8C2
:104C5E007B03120A9CE8FCE9FD900B46E0F8A3E00A
:104C6E00F97A647B00120A9C8821EC88F0A4CCA807
:104C7E00F089F0A428F88521F0EDA428FDEC2CFC99
:104C8E00ED33FDECF8EDF97A647B00120A9C882175
:104C9E008922E4F523F52485318285328378211229
:104CAE000692500302511F8531828532831209CF3D
:104CBE001229D87408120B731209DB90024FE0A26E
:104CCE00E35003024EEE02512C9002AEE0640170EE
:104CDE000F9002CB1209F38531828532831209FFC0
:104CEE00900B80782112099E7410782112085CE5D1
:104CFE002145227003025102853182853283782547
:104D0E0012099E78257921120764853182853283B6
:104D1E0078251209C09012B578211209AD8531821D
:104D2E008532837821120692400302508D9002C97B
:104D3E00E06455600302510202508D9002AEE064B1
:104D4E0001700F9002CF1209F385318285328312E2
:104D5E0009FF900B84782112099E74107821120895
:104D6E005CE5214522700302510285318285328332
:104D7E00782512099E78257921120764853182855E
:104D8E00328378251209C0900B48E0F8A3E0F97A37
:104D9E00E87B03120A9CE828F8E933F98821892276
:104DAE00E4F523F52485318285328378211206922B
:104DBE00500B9002C9E064556003025102853182A6
:104DCE008532831209CF1229D87408120B73120977
:104DDE00DB7AD67B101244C67404120B731209DBF5
:104DEE007407120B73E0C3948040217404120B738A
:104DFE00782112099E782112084C9011D378211235
:104E0E0008BA7404120B7378211209C0900B7878CB
:104E1E002112099E7408782112085CE5214522456D
:104E2E00237003024FD77404120B73782512099E58
:104E3E007405782512087578257921120764740394
:104E4E0078251208757404120B7378251209C09018
:104E5E000B48E0F8A3E0F97AE87B03120A9CE8FC21
:104E6E00E9FD900B46E0F8A3E0F97A647B00120AA4
:104E7E009C8821EC88F0A4CCA8F089F0A428F885B1
:104E8E0021F0EDA428FDEC2CFCED33FDECF8EDF952
:104E9E007A647B00120A9C88218922E4F523F5248A
:104EAE007404120B73782112069250299002C9E0F5
:104EBE00645560219012DD78211209AD7408120B31
:104ECE00737821120692500D7408120B73E4F0A33E
:104EDE00F0A3F0A3F090024FE0A2E3400302512CA6
:104EEE009011CF78211209AD7408120B737821122C
:104EFE00098B02512C900B88782112099E74107820
:104F0E002112085CE521452270030251028531828F
:104F1E00853283782512099E7825792112076485BA
:104F2E00318285328378251209C0900B48E0F8A3B0
:104F3E00E0F97AE87B03120A9CE828F8E933F9884D
:104F4E00218922E4F523F524853182853283782167
:104F5E00120692500B9002C9E06455600302510292
:104F6E008531828532831209CF1229D87408120B2B
:104F7E00731209DB7AD77B101244C67404120B73BA
:104F8E001209DB7407120B73E0C394804021740482
:104F9E00120B73782112099E782112084C9011D3AE
:104FAE0078211208BA7404120B7378211209C0907A
:104FBE000B7C782112099E7408782112085CE52179
:104FCE00452245236003024E347404120B73E4F041
:104FDE00A3F0A3F0A3F0024E5D75210075220075BB
:104FEE0023E2752404853182853283782512099E49
:104FFE0078217925120764853182853283782112D2
:10500E0009C09012E5C082C08385318285328378D3
:10501E002112099E9012E178211208BAD083D08213
:10502E0078211206C1400E8531828532837488F054
:10503E00A3741380449012E978211209AD85318250
:10504E008532837821120692500E85318285328305
:10505E007494F0A3741180219012ED78211209AD91
:10506E0085318285328378211206924012853182F3
:10507E00853283747CF0A37415F0A3E4F0A3F0855D
:10508E0031828532831209CF1229D87408120B731C
:10509E001209DB02512C9002AEE06401700F9002F7
:1050AE00CB1209F38531828532831209FF900B8072
:1050BE00782112099E7410782112085CE521452290
:1050CE006032853182853283782512099E78257962
:1050DE002112076485318285328378251209C090AA
:1050EE0012B578211209AD8531828532837821126D
:1050FE000692500A7A007B007C007D008028853164
:10510E00828532831209F37408120B731209FF8021
:10511E000D7408120B73E4F0A3F0A3F0A3F074085F
:10512E00120B731209CF740C120B3D7F08020BFD8C
:10513E0074F1120B97E9FE8A828B83E070147AD693
:10514E007B101244C68A258B268C278D28900B78CF
:10515E0080127AD77B101244C68A258B268C278D17
:10516E0028900B7C782112099E7408782112085C15
:10517E00E521452245237005790002520D9011DB81
:10518E007825120658404C782512083BEE70477A67
:10519E000074057825120875782579211207647434
:1051AE0003782512087590027978251206925046DA
:1051BE00EA90027E7024E4F090027DE004F090020A
:1051CE0078E0F890027DE0C398402B90024FE0C249
:1051DE00E38022EE70B97A0180B7E004F090027D90
:1051EE00E4F0900278E0F890027EE0C398400790D9
:1051FE00024FE0D2E3F090024FE0A2E3E433F97FF6
:10520E0008020BFD74F5120B979002AEE064017567
:10521E0021F475221078217008120C41900B4E80EB
:10522E0006120C41900B4A1209CF1246127402124A
:10523E000B3D7521FA7821120C41900B4A1209CFC1
:10524E001246127402120B3D7521F57821120C4193
:10525E00900B521209CF1246127402120B3D752199
:10526E00FB7821120C41900B521209CF1246127488
:10527E0002120B3D7E0080378E82858221752200C0
:10528E00E52124E8F523E43410F5247823120C41AB
:10529E0074027821120B14745A2521F582740B3581
:1052AE0022F5831209CF1246127402120B3D0EEE36
:1052BE00C3940740C39002AEE0640170457521F4BB
:1052CE007522107821120C41900B4E1209CF124606
:1052DE00127402120B3D7521EB7821120C41900BCA
:1052EE008C1209CF1246127402120B3D7521EC7806
:1052FE0021120C41900B901209CF12461274021219
:10530E000B3D75217B7522287821120C41900B766E
:10531E00E0FAE4FBFCFD1246127402120B3D7521FD
:10532E007C7821120C41900B77E0FAE4FBFCFD1225
:10533E0046127402120B3D900B94E0902858F07FA9
:10534E0004020BFD74F7120B9775210F752200786E
:10535E0021120C417C617D137A7F7B02127A0E74CE
:10536E0002120B3D900287E0F87409686007749092
:10537E00686002E4F0790F7A7F7B02122BE09002D4
:10538E008EEAF0A3EBF07F02020BFD222274F512DF
:10539E000B9712612A90122E78211209AD9005D921
:1053AE007821120615600B9008DDE4F0A3F0A3F04F
:1053BE00A3F09012F178211209AD9008DD78211238
:1053CE00061560051238BD800612579B12590B90B8
:1053DE000AD37432F0A3740FF0900BE1E0646670A0
:1053EE000912539A9009357421F01239499008CD5B
:1053FE001209F39009601209FF9012F17821120937
:10540E00AD9008DD782112061560229008DDE4F0DB
:10541E00A3F0A3F0A3F090097BE0F8A3E054FDF90C
:10542E0090097BE8F0A3E9F0790512EC1F12380E13
:10543E0012619190092AE04408F012693C12708CB6
:10544E009009517401F0900D26782112099EE522E3
:10545E0054206027900D0E1209F3E8494A4B60065E
:10546E007A0E7B0D8010900D121209F3E8494A4B0B
:10547E00600C7A127B0D1270BC800312539A900B43
:10548E00DFE064016005752101800375210075223E
:10549E000090097FE0FAA3E054FDFB740978211215
:1054AE000B14E5225402F9EAF8EB49F990097FE86A
:1054BE00F0A3E9F0900DFAE0A2E05012900987E017
:1054CE00F8A3E04402F9900987E8F0A3E9F0900907
:1054DE0027E0600312C4BF12EB797A647B0912DBFA
:1054EE008E900D26782112099EE521A2E05003121E
:1054FE00EA8490092BE04440F07F04020BFDC08249
:10550E00C08390092BE054C0F9E4700374406970B5
:10551E0024900926E4F090092BE04480F0900BE0F3
:10552E00E064337009A3E064666003125399900936
:10553E002BE0547FF0D083D08222C082C0839009AA
:10554E0021E014F0900B1FE0A2E0500712652DE051
:10555E00C2E0F090092FE054EFF0D083D08222C049
:10556E0082C083900927E4F090096CE0F8C394D2CE
:10557E005018E8C39415402290092FE05440701A39
:10558E00E04440F0A3E04401800FE024FEF09009D7
:10559E0030E054106004E054EFF012380E900970B1
:1055AE00E06010E014F0E0700A90092AE0440CF07C
:1055BE00128292900930E054026012900BDFE06488
:1055CE0001600A1266FA900930E054FDF012DA76A4
:1055DE00D083D08222790112576679012274F51296
:1055EE000B97790112576643A62053A5DF53A4DF0C
:1055FE0043A60853A5F753A4F712579B90122E7883
:10560E00211209AD9005D97821120615700D7C0B6B
:10561E007D0079FF7AE37B0812E49012590B790131
:10562E007AFA7B001257639008D9782112099E7876
:10563E002112084C9008D578211206156011900899
:10564E00CDE4F0A37449F0A374D1F0A37412F07CEE
:10565E000F7D007A357B0B12E36590095074C8F00C
:10566E00791412EC1F7F04020BFD74F5120B9712C6
:10567E005764125AEA90033FE4F0900340F0901200
:10568E00F578211209AD9005D978211206156027FB
:10569E0090122E78211209AD9005D9782112061597
:1056AE0060157C5C7D057AD97B0512E3657C0F7DE8
:1056BE00007A357B0B800E743D24D9FC74FC3405C6
:1056CE00FD7A1F7B0912E3659008D9782112099E95
:1056DE00782112084C9008D5782112061560119089
:1056EE0008CDE4F0A37449F0A374D1F0A37412F0C2
:1056FE009002F7E4F01255E3E960047A0180027A31
:10570E000090092CE054FEF8A3E0F9EA5401FAE8FF
:10571E004A90092CF0A3E9F079FF12EC1F90092CA6
:10572E00E0A2E050051255EB800312574C79991206
:10573E00EC1F900B33E4F0D2AF7F04020BFD790027
:10574E00025766C082C08390092CE0A2E0E433F9D0
:10575E00D083D08222222222025765C082C083903B
:10576E0028ACE0D2E2F0A3E0D2E2F09028ACE0D296
:10577E00E1F0A3E0D2E1F0D083D08222C082C083D8
:10578E00900290EAF0A3EBF0D083D08222C082C0C8
:10579E00839028B4E0440FF09028B8E04403F090D2
:1057AE0028BCE074FFF09028D5E0443FF09028B577
:1057BE00E054F0F09028B9E054FCF09028BDE0E4FD
:1057CE00F09028D6E054C0F0C28390285E7404F0A6
:1057DE00902C1E7492F0A3E4F0A374FFF0A3747CDB
:1057EE00F0A3E4F0A3F0D083D08222C082C0831253
:1057FE00581E902C1FE4F0A3F0A3F0A3F0A3F079B1
:10580E00051228E5902C1EE4F0D283D083D082229C
:10581E00C082C0837C0B7900900290E0FAA3E0FB7B
:10582E00122C28125854D083D08222C082C0837C7E
:10583E000B79FF900290E0FAA3E0FB122C2812588D
:10584E0054D083D08222C082C083900290E0FAA30B
:10585E00E0FB125868D083D08222C082C0838A8235
:10586E008B83E0902C06F08A828B83A3E0902C072A
:10587E00F08A828B83A3A3E0902C08F08A828B831C
:10588E00A3A3A3E0902C09F08A828B83A3A3A3A3E6
:10589E00E0902C0AF08A828B83A3A3A3A3A3E090AB
:1058AE002C0BF08A828B83A3A3A3A3A3A3E0902C3B
:1058BE000DF08A828B83A3A3A3A3A3A3A3E0902CB2
:1058CE000EF08A828B83A3A3A3A3A3A3A3A3E0902A
:1058DE002C0FF08A828B83A3A3A3A3A3A3A3A3A3BA
:1058EE00E0902C10F08A828B83A3A3A3A3A3A3A37F
:1058FE00A3A3A3E0902C11F0D083D08222C082C04B
:10590E0083900290E0FAA3E0FB125868D083D08215
:10591E0022025922C082C0839002937404F0900236
:10592E0097F090029404F0900299F0A3F090029DEB
:10593E00F0D083D08222C082C083900348E0440816
:10594E00F0900292E06003E014F09002A6E0600690
:10595E00E014F0E070529002A5E0600624FE60486C
:10596E008033900294E09002A6F09002A8E0240109
:10597E00F0A3E03400F09002A8C082C0839002939E
:10598E00E0F8D083D082C3E098A3E0940040199051
:10599E0002A8E48010900294E09002A6F09002A576
:1059AE00E4F09002A8F0A3F0D083D08222C082C08F
:1059BE00839028A8E4F0A3F0A3F09028ACF0A3F015
:1059CE00A3F09028C5F0A3F0A3F0A3F09028B07434
:1059DE00FFF0A3E4F09028B4740FF0A3E4F0902845
:1059EE00B874FFF0A3E4F09028BC74FFF0A3E4F0C9
:1059FE009028C074FFF0A3E4F09028D574FFF0A3B4
:105A0E00E4F09028D9F0A3F075A40075A50075A652
:105A1E000053A4FE53A5FE53A6FE53ADFED083D075
:105A2E008222438E085389F0438901758CEF758A63
:105A3E00FFD28CD2A922C28E538EEF5389F743899F
:105A4E0010EA75F044A4FAA8F075F044EBA428FB14
:105A5E0074FFC39AF874FF9BF58DE8F58BD2AB22D9
:105A6E00538EDFC2C975CDF575CC54D2CAD2AD22D4
:105A7E007800800108E8C3941440F92274F8120BE0
:105A8E0097E9FF7E008004125A7E0EEEC39F40F708
:105A9E007F01020BFD74F8120B97E9FEEAFF759079
:105AAE00967597577905125A8A8E9674076E7005F9
:105ABE0074404FF5DF7905125A8A75909675975690
:105ACE007905125A8A7F01020BFDC082C083D2E98A
:105ADE0090284BE0D2E6F0D083D08222C082C083E1
:105AEE00902D00E4F0A3F01259BB12579B125839B7
:105AFE00125DCE125A30125A6E1257697A0079031D
:105B0E00125AA3125AD8D083D08222C082C083E9FF
:105B1E00FA7800C286C28590286774EAF0A3E4F092
:105B2E00E5A3A2E0400908E8C3943340F38023D2F2
:105B3E00807800A280400908E8C3941540F58012D1
:105B4E00EA6013D2877800A287400B08E8C3941549
:105B5E0040F57900801F90285FE4F0A37403F0A352
:105B6E007420F0A37404F09028667480F09002AE56
:105B7E007404F07901D083D08222C082C083E9FA06
:105B8E007800C286C28574046A9028677007E05454
:105B9E00FC44028003E054FCF0A3E4F0E5A3A2E091
:105BAE00400908E8C3943340F3800FD2807800A2F6
:105BBE0080400B08E8C3941540F5790080089002E8
:105BCE00AE7404F07901D083D08222C082C083E902
:105BDE00FA7800C286C28590286774C0F0A3E4F0FC
:105BEE00E5A3A2E0400908E8C3943340F38025D230
:105BFE00807800A280400908E8C3941540F580140F
:105C0E0074FF6A7013D2877800A287400B08E8C32E
:105C1E00941540F57900801E90285FE4F0A374037C
:105C2E00F0A37420F0A374C4F09028667480F090F2
:105C3E0002AE7401F0F9D083D0822274F1120B9768
:105C4E0074FC120B277ACE7B101244C685318285E6
:105C5E0032831209DB7403120B73E0C39481402369
:105C6E00853182853283782112099E782112084C63
:105C7E009011D378211208BA85318285328378212A
:105C8E001209C0853182853283782112099E7410E3
:105C9E00782112085C9011E778251209AD782179E8
:105CAE00251206E490137078211208BA90137478B6
:105CBE00251209AD78217925120764AA21AB227429
:105CCE0004120B3D7F08020BFDC082C0838A828BBB
:105CDE0083125C49EAF9AA82AB8312DA01AA82AB7B
:105CEE008312DA2CD083D0822274F7120B97EAFE3D
:105CFE00EBFF8E828F83E014602014602414606D9D
:105D0E0014601E147003025DA21460151470030259
:105D1E005DB814600C146049804E902863749280B4
:105D2E00609002B2E0F8A3E0F9900341E0687003DE
:105D3E00A3E0696033900341C082C0839002B2E059
:105D4E00F8A3E0F9D083D082E0C398FAA3E099FBE0
:105D5E0012F17DC3EA9403EB9400A2D265D03340D6
:105D6E00078E828F83E004F07F02020BFD7A617B47
:105D7E0003125CD7E9900AD7F0A3E4F0902863747D
:105D8E0096F0900341E0F8A3E0F99002B2E8F0A398
:105D9E00E9F080CD7A537B03125CD7E9900B2FF09C
:105DAE00A3E4F0902863749780D77A5A7B03125C31
:105DBE00D7E9900B31F0A3E4F0902863748180C191
:105DCE00C082C0839002487402F0F912C6007900B6
:105DDE00122C47D083D08222C082C0839028A8E0A4
:105DEE00C2E1F09028AAE0C2E1F09028ACE0D2E443
:105DFE00F0A3E0C2E4F01257F99028C9E4F0A3F042
:105E0E009028CDF0A3F09028B0E04433F0A3E054F6
:105E1E00CCF09028ADE0C2E1F09028ACE0D2E1F0F9
:105E2E009028A8E0D2E1F0A3E0C2E1F0A3E0C2E145
:105E3E00F09028A8E0D2E2F0A3E0C2E2F09028A809
:105E4E00E0D2E3F0A3E0C2E3F043A40153A5FE9039
:105E5E0028ACE0D2E4F0A3E0C2E4F09028ACE0C2BB
:105E6E00E3F0A3E0C2E3F09028C77404F0D083D02F
:105E7E00822275A80075E80075910022C082C08349
:105E8E00902820E4F0902828F0902830F0902A05F1
:105E9E00F0D083D0822274F5120B97902864E4F030
:105EAE0075217D7522287821120C419011DB782105
:105EBE001209ADAA21AB22AC23AD241246127402F4
:105ECE00120B3D7521787522287821120C41901104
:105EDE00DB78211209ADAA21AB22AC23AD241246E8
:105EEE00127402120B3D7800800108E8C39414402E
:105EFE00F9D2847F04020BFDC082C08343A6024305
:105F0E00A604E5A1A2E04021C280A28040FCE5A14A
:105F1E00A2E040157800800108E8C3940340F99090
:105F2E002867E4F0E070FDD2817900D083D0822220
:105F3E00C082C083C286C285E5A1A2E0402CE5A145
:105F4E00A2E04026C280A28040FCE5A1A2E0401A59
:105F5E007800800108E8C3940340F9902867E4F0C4
:105F6E00E070FDD2817905125A8A7900D083D082F1
:105F7E0022C082C08374FF120B27E5DA8531828539
:105F8E003283F07905125A8AE59A9002EAF0E59B7F
:105F9E00A3F0E59CA3F0E59E9002F0F0E59D900243
:105FAE00EDF0E59FA3F0E593A3F07401120B3DD045
:105FBE0083D08222C082C0837590967597577905DB
