:020000040000FA
:060000000200660272CD51
:03000B000272D5A9
:030013000272DD99
:03001B000272E589
:03002B000273025B
:03003B00027361EC
:03004300027375D0
:03004B0002742913
:030053000274EF45
:03005B000274FE2E
:1000630002750D75D00075819F75310175320202DD
:100073007D22E479337810B800028004F709D8FCB4
:10008300E49002017814790E8002F0A3D8FCD9FA27
:1001000000002110422063308440A550C660E77093
:10011000088129914AA16BB18CC1ADD1CEE1EFF13B
:100120003112100273325222B5529442F772D662E3
:10013000399318837BB35AA3BDD39CC3FFF3DEE38B
:100140006224433420040114E664C774A444855433
:100150006AA54BB528850995EEE5CFF5ACC58DD5DB
:100160005336722611163006D776F6669556B44683
:100170005BB77AA719973887DFF7FEE79DD7BCC72B
:10018000C448E5588668A7784008611802282338D3
:10019000CCC9EDD98EE9AFF9488969990AA92BB97B
:1001A000F55AD44AB77A966A711A500A333A122A23
:1001B000FDDBDCCBBFFB9EEB799B588B3BBB1AABCB
:1001C000A66C877CE44CC55C222C033C600C411C73
:1001D000AEED8FFDECCDCDDD2AAD0BBD688D499D1B
:1001E000977EB66ED55EF44E133E322E511E700EC3
:1001F0009FFFBEEFDDDFFCCF1BBF3AAF599F788F6B
:100200008891A981CAB1EBA10CD12DC14EF16FE14A
:100210008010A100C230E320045025404670676082
:10022000B9839893FBA3DAB33DC31CD37FE35EF39A
:10023000B1029012F322D2323542145277625672D2
:10024000EAB5CBA5A89589856EF54FE52CD50DC5EA
:10025000E234C324A0148104667447642454054422
:10026000DBA7FAB79987B8975FE77EF71DC73CD73A
:10027000D326F2369106B016576676761546345672
:100280004CD96DC90EF92FE9C899E9898AB9ABA98A
:100290004458654806782768C018E1088238A328C2
:1002A0007DCB5CDB3FEB1EFBF98BD89BBBAB9ABBDA
:1002B000754A545A376A167AF10AD01AB32A923A12
:1002C0002EFD0FED6CDD4DCDAABD8BADE89DC98D2A
:1002D000267C076C645C454CA23C832CE01CC10C62
:1002E0001FEF3EFF5DCF7CDF9BAFBABFD98FF89F7A
:1002F000176E367E554E745E932EB23ED10EF01EB2
:1003000000010203040506070809AAAAAAAAAAAAC4
:100310000A0B0C0D0E0F10111213AAAAAAAAAAAA50
:100320001415161718191A1B1C1DAAAAAAAAAAAADC
:100330001E1F2021222324252627AAAAAAAAAAAA68
:1003400028292A2B2C2D2E2F3031AAAAAAAAAAAAF4
:1003500032333435363738393A3BAAAAAAAAAAAA80
:100360003C3D3E3F404142434445AAAAAAAAAAAA0C
:10037000464748494A4B4C4D4E4FAAAAAAAAAAAA98
:1003800050515253545556575859AAAAAAAAAAAA24
:0A0390005A5B5C5D5E5F60616263B2
:10039C0000010203040506070809101112131415B5
:1003AC001617181920212223242526272829303115
:1003BC003233343536373839404142434445464769
:1003CC0048495051525354555657585960616263BD
:1003DC00646566676869707172737475767778791D
:1003EC008081828384858687888990919293949565
:1003FC0096979899FFFFFFFFFFFFFFFFFFFFFFFF9F
:10040C00FFFFFFFFFFFFFFFFFFFFFFFFFFFFFFFFF0
:10041C00FFFFFFFFFFFFFFFFFFFFFFFFFFFFFFFFE0
:10042C00FFFFFFFFFFFFFFFFFFFFFFFFFFFFFFFFD0
:10043C00FFFFFFFFFFFFFFFFFFFFFFFFFFFFFFFFC0
:10044C00FFFFFFFFFFFFFFFFFFFFFFFFFFFFFFFFB0
:10045C00FFFFFFFFFFFFFFFFFFFFFFFFFFFFFFFFA0
:10046C00FFFFFFFFFFFFFFFFFFFFFFFFFFFFFFFF90
:10047C00FFFFFFFFFFFFFFFFFFFFFFFFFFFFFFFF80
:10048C00FFFFFFFFFFFFFFFFFFFFFFFFFFFFFFFF70
:10049C00FFFFFFFFFFFFFFFFFFFFFFFFFFFFFFFF60
:1004AC00FFFFFFFFFFFFFFFFFFFFFFFFFFFFFFFF50
:1004BC00FFFFFFFFFFFFFFFFFFFFFFFFFFFFFFFF40
:1004CC00FFFFFFFFFFFFFFFFFFFFFFFFFFFFFFFF30
:1004DC00FFFFFFFFFFFFFFFFFFFFFFFFFFFFFFFF20
:1004EC00FFFFFFFFFFFFFFFFFFFFFFFFFFFFFFFF10
:1004FC00FFFFFFFFFFFFFFFFFFFFFFFFFFFFFFFF00
:10050C00FFFFFFFFFFFFFFFFFFFFFFFFFFFFFFFFEF
:10051C00FFFFFFFFFFFFFFFFFFFFFFFFFFFFFFFFDF
:10052C00FFFFFFFFFFFFFFFFFFFFFFFFFFFFFFFFCF
:10053C00FFFFFFFFFFFFFFFFFFFFFFFFFFFFFFFFBF
:10054C00FFFFFFFFFFFFFFFFFFFFFFFFFFFFFFFFAF
:10055C00FFFFFFFFFFFFFFFFFFFFFFFFFFFFFFFF9F
:10056C00FFFFFFFFFFFFFFFFFFFFFFFFFFFFFFFF8F
:10057C00FFFFFFFFFFFFFFFFFFFFFFFFFFFFFFFF7F
:10058C00FFFFFFFFFFFFFFFFFFFFFFFFFFFFFFFF6F
:10059C00FFFFFFFFFFFFFFFFFFFFFFFFFFFFFFFF5F
:1005AC00FFFFFFFFFFFFFFFFFFFFFFFFFFFFFFFF4F
:1005BC00FFFFFFFFFFFFFFFFFFFFFFFFFFFFFFFF3F
:1005CC00FFFFFFFFFFFFFFFFFFFFFFFFFFFFFFFF2F
:1005DC00FFFFFFFFFFFFFFFFFFFFFFFFFFFFFFFF1F
:1005EC00FFFFFFFFFFFFFFFFFFFFFFFFFFFFFFFF0F
:1005FC00FFFFFFFFE066701008A3E066700A08A317
:10060C00E066700408A3E06622C3E09608A3E096B7
:10061C0008A3E09608A3E096A2D265D03322C021AD
:10062C00C3E49396F5210874019396422108740251
:10063C009396422108740393964221A2D265D0333B
:10064C00E5217001D3D02122C3E7960809E796086B
:10065C0009E7960809E79622C3E09608A3E09608F6
:10066C00A3E09608A3E09622C021C3E096F52108EA
:10067C00A3E096422108A3E096422108A3E0964508
:10068C00217001D3D02122C021C3E49396F5210817
:10069C0074019396422108740293964221087403C4
:1006AC00939645217001D3D02122080808EAC0E0B6
:1006BC00EBC0E086F0E7A4FA180986F0E7A42AFA62
:1006CC00180986F0E7A42AFA180986F0E7A42AFA92
:1006DC001986F0E7A4FBE5F02AFA190886F0E7A4DE
:1006EC002BFBE5F03AFA190886F0E7A42BFBE5F0B2
:1006FC003AFA18180986F0E7A4C5F02BFBE43AFA8D
:10070C001908E7C5F0C6A426F6E5F03BFBE43AFA77
:10071C001886F0E7A4F6E5F00826F6E43B08F6E4C4
:10072C003A08F6D0E0FBD0E0FA22E4CFC0E0E4CE09
:10073C00C0E0E4CDC0E0E4CCC0E075F020E626F6E5
:10074C0008E633F608E633F608E633F6181818EC24
:10075C0033FCED33FDEE33FEEF33FFC3EC9709EDC5
:10076C009709EE9709EF97191919400FFFEC97FCB1
:10077C0009ED97FD09EE97FE191906D5F0BFECF7B8
:10078C0009EDF709EEF709EFF7191919D0E0FCD0CC
:10079C00E0FDD0E0FED0E0FF2212080D1818181270
:1007AC0007361207FC191919221207FC1919190816
:1007BC000808E618181820E7E012073612080D187A
:1007CC00181822090909E719191920E7DC08080883
:1007DC00E618181820E70302073612080D18181827
:1007EC0012073612080D1818181207FC19191922BD
:1007FC00E4C397F709E497F709E497F709E497F747
:10080C0022E4C396F608E496F608E496F608E49615
:10081C00F622C6F4C608C6F4C608C6F4C608C6F462
:10082C00C6226016080808C6C313C618C613C61815
:10083C00C613C618C613C6D5E0EA22700908080804
:10084C00226016181818C6C333C608C633C608C6A5
:10085C0033C608C633C6D5E0EA22E627F60809E611
:10086C0037F60809E637F60809E637F622E026F6E9
:10087C0008A3E036F608A3E036F608A3E036F62225
:10088C00E49326F60874019336F60874029336F650
:10089C000874039336F622E026F008A3E036F0083D
:1008AC00A3E036F008A3E036F022C3E697F6080979
:1008BC00E697F60809E697F60809E697F622C3E0EC
:1008CC00C696F608A3E0C696F608A3E0C696F60808
:1008DC00A3E0C696F622C3E096F008A3E096F008D3
:1008EC00A3E096F008A3E096F022E056F608A3E009
:1008FC0056F608A3E056F608A3E056F622E4935603
:10090C00F60874019356F60874029356F6087403AD
:10091C009356F622E056F008A3E056F008A3E056F2
:10092C00F008A3E056F022E647F60809E647F60879
:10093C0009E647F60809E647F622E49346F60874FA
:10094C00019346F60874029346F60874039346F630
:10095C0022E0F608A3E0F608A3E0F608A3E0F622EE
:10096C00E493F608740193F608740293F608740382
:10097C0093F622E6F008A3E6F008A3E6F008A3E657
:10098C00F022E0FAA3E0FBA3E0FCA3E0FD22EAF0F6
:10099C00A3EBF0A3ECF0A3EDF022E0FCA3E0FDA3AD
:1009AC00E0FEA3E0FF22E0F8A3E0F9A3E0FAA3E065
:1009BC00FB22E8F0A3E9F0A3EAF0A3EBF022CAC013
:1009CC00E0E6F0A308DAFAD0E0FA22CAC0E0E0A32D
:1009DC00C582CCC582C583CDC583F0A3C582CCC5E9
:1009EC0082C583CDC583DAE6D0E0CA22CAC0E0E472
:1009FC0093A3C582CCC582C583CDC583F0A3C58224
:100A0C00CCC582C583CDC583DAE5D0E0CA22C3E468
:100A1C0098F8E499F9120A5B8026C3E49AFAE49BED
:100A2C00FBE920E7E9120A5BE498F8E499F922C3A0
:100A3C00E498F8E499F9120A5BE498F8E499F9C39C
:100A4C00E49AFAE49BFB22EB20E7CFE920E7E0B93C
:100A5C000010BB0008E88AF084F8AAF022E4FBC876
:100A6C00FA22EB70227B10C833C8C933C933500744
:100A7C00C39AC3DBF280069A50012ADBEAC833F42E
:100A8C00C8C933F4C9FA2275F008E4C833C8C933AD
:100A9C00C933C99AC99B5004C92AC93BD5F0ECFB90
:100AAC00C833F4C8E4C9FA22600D08C6A2E713C61D
:100ABC0018C613C6D5E0F322600C08C6C313C618BB
:100ACC00C613C6D5E0F422700422600D18C6C333D9
:100ADC00C608C633C6D5E0F41822253110AF08F588
:100AEC0031400C15328008F53140021532D2AF225C
:100AFC0000C0D0253110AF08F531500C05328008FC
:100B0C00F53150020532D2AFD0D0222531F582100A
:100B1C00AF08F531400C15328008F5314002153222
:100B2C00D2AF853283222531F582E43532F583222A
:100B3C002531F8E43532F9222531FAE43532FB223D
:100B4C002531FCE43532FD222531C582C0E0E53289
:100B5C0034FFC583C0E0E531C3958224F910AF089A
:100B6C008583328582318008858332858231D2AF8C
:100B7C00CEF0A3E520F0A37821E608F0A3DEFAEF8F
:100B8C00F0A3E58124FBF8E608F0A3E608F0A3083F
:100B9C0008E608F0A3E608F0A315811581D0E0FE65
:100BAC00D0E0F815811581E8C0E0EEC0E022853276
:100BBC0083853182E0A3FEE0A3F5207821E0A3F643
:100BCC0008DFFAE0A3FFE0A3C0E0E0A3C0E0E0A3ED
:100BDC00C0E0E0A3C0E010AF08858231858332808D
:100BEC0008858231858332D2AFD083D082227404BF
:100BFC00800474028000C0E0F404120B17D0E012E1
:100C0C0009CA227404800474028000CCC0E0EDC0D8
:100C1C00E0E531C39CCCAD3250011D10AF068C31D8
:100C2C008D3280068C318D32D2AF1209D7D0E0FDD7
:100C3C00D0E0FC2274048000CCC0E0EDC0E0E531D3
:100C4C00C39CCCAD3250011D10AF068C318D32805F
:100C5C00068C318D32D2AF1209F8D0E0FDD0E0FC19
:010C6C002265
:0D11C0004431343346393832315330330076
:1011CE00010A000000600000002001000001000084
:1011DE00000000000064000000E482F282D522D5F7
:1011EE00A2EBA2C0000000E0010000EA0100003FF7
:1011FE00065B4F666D7D077F6F777C395E79710078
:10120E0006060606FFFFFFFF00029000FF0000002B
:10121E000F00000000000800000040000000010068
:10122E001FF1000407060606B83E24039999999902
:10123E0099991F1C1F1E1F1E1F1F1E1F1E1F0605F6
:10124E00030006030300050004180000003C000024
:10125E00008051010007000000E02E0C0110270A4B
:10126E0001401F080188130501B80B0301D00702C6
:10127E0001E8030A0A0019400A800C200A600918C6
:10128E000A4006100AB0040C0A2003080AF40105ED
:10129E000A9001040AC800020A6400010A51000003
:1012AE0000D96204019C3C1D91BC749388C8000057
:1012BE00000800000013000000050000005F0000A1
:1012CE00007000000010000000EAF48F044006C019
:1012DE005D8813AC73F802E3244F19001BB7006747
:1012EE00EBE305000000000000000000000000001D
:1012FE0000000000000000000000000000000000E0
:10130E0000706562017065620185A3B365CCCC4E39
:10131E001CCCCC4E1C00000000000000000C111173
:10132E00111111110405050204051A3C1E000005D9
:10133E0005143C05025000000000000200000000F1
:10134E0000000000CD130000471700003701000019
:10135E000040060004202000014404000244040062
:10136E00004404001144040012440400104404001C
:10137E0021440400224404002044040031440400AB
:10138E00324404003044040041440400424404004A
:10139E004044048001A302002C010000060000005E
:1013AE00002040000000040000320000A30B0000EB
:1013BE001A00000012000000320000001F000000A2
:1013CE00E02B3F0010B33C0091572C00160000009C
:1013DE00040C080E060E0A100C1410160E16121817
:1013EE00FFFFFF030101010907140334120040003F
:1013FE00000040000000000000000000000000009F
:10140E00000040000000000000000000000000008E
:10141E0000000000000000000000000000000000BE
:10142E00000000000000006000000000000000004E
:10143E00000000000000000000000000000000009E
:10144E0000007200B1014DE8FFFF6CFDFFFF0000D0
:10145E00000000000000000000000000000000007E
:10146E00000000000000000000007701335500006E
:10147E000000000000000000000000011111111119
:10148E001111F401000064000000010000000100D1
:10149E000000204E000000000000000000000000D0
:1014AE00000000000000000000000000000000002E
:1014BE0080110000001F000000000000000000006E
:1014CE00000000000000000000000000000000000E
:1014DE0000000000000000000000000000000000FE
:1014EE0000000000000000000000000000000000EE
:1014FE0000000000000000000000000000000000DE
:10150E0000000000000000000000000000000000CD
:10151E000000000000004088A0004088A000408825
:10152E00A00000000000000000000000000000000D
:10153E00000000000000000000000000000000009D
:10154E00000000000000000000000000000000008D
:10155E00000000000000000000000000000000007D
:10156E00000000000000000000000100000000006C
:10157E00000000000000000000000000000000005D
:10158E00000000000000000000000000000000004D
:10159E00000000000000000000000000000000003D
:1015AE00000000000000000000000000000000002D
:1015BE0000000010000800000000E8030000FFE03B
:1015CE00F505C8000000000000002C00000030757A
:1015DE0000000049D112000001010100999999996A
:1015EE0000000000A00500000000580204010000E9
:1015FE000000025634120478563414000004100011
:10160E0000000200040808071B0000000000000094
:10161E0000000000000000000000000000000000BC
:10162E0000000000000000000000000000000000AC
:10163E00000000003C3C3C3C0A3C1E1E99991200E6
:10164E000F83838303830F0F0F0F0502020804001D
:10165E0000007F0102040505FFFFFFFFFFFFFFFFF4
:10166E00000000000000000000000000000000006C
:10167E00000000000000000000000000000000005C
:10168E00000000000000000000000000000000004C
:10169E00000000000000000000000000000000003C
:1016AE00000000000000000000000000000000002C
:1016BE00000000000000000000000000000000001C
:1016CE0000001600000000000000000000000000F6
:1016DE0000000000BE051246843F05690040BE03AF
:1016EE0040000000000002FA02900000000290008C
:1016FE0000000000000000000000000612010100C2
:10170E00040002010004002000800200000290008C
:10171E000000000B000000000000000000000000B0
:10172E0000000000000000000000000000000001AA
:10173E0001000400020100040020008002000002EB
:10174E00900000000000000001000000000E0400E8
:10175E0004010E040004000204000401020400044B
:10176E00000001010200000102020000010302005C
:10177E00010B0004000904000400020080020002B4
:10178E001400040003140004000000000000000018
:10179E00000000000000000000000000000000003B
:1017AE00000000000000000000000000000000002B
:1017BE00000000000000000000000000000000001B
:1017CE00000000000000000000000000000000000B
:1017DE0000000000000000000000000000000000FB
:1017EE0000000000000000000000000000000000EB
:1017FE0000000000000000051700000000000001BE
:10180E0000000000020000000003000000000400C1
:10181E0000000000000000000000000000000000BA
:10182E0000000000000000000000000000000000AA
:10183E000001000000000200000000030000000094
:10184E000400000001000000000101000000010280
:10185E00000000010300000001040000000200006F
:10186E00000002010000000202000000020300005E
:10187E000002040000000104000401010400040041
:10188E000101000400020100040000010102000039
:10189E000102020000010302000001060200000026
:1018AE00000000000000000000000000000000002A
:1018BE00000000000000000000000000000000001A
:1018CE00000000000000000000000000000000000A
:1018DE0000000000000000000000000000000000FA
:1018EE0000000000000000000000000000000000EA
:1018FE000000001FF1000407060606000290007E9D
:10190E0066564651586080810001070609110A1279
:10191E004A0200004B0200004D024F0251026F6E50
:10192E006E6A6A69696868474F4F475757475F5FE6
:10193E001A1A0808FE77775302560259025C025EA5
:10194E0002600257024A4949F4020480000603036A
:10195E0000050004FFFFFFFFFF999999999999617E
:10196E0062636465660000000000000000000080F5
:10197E000B13150E0D0C141B23251E1D1C242B33AF
:10198E00352E2D2C343B43453E3D3C444B53554E5A
:10199E004D4C545B63655E5D5C64837B7D868584A4
:1019AE007C736B6D7675746C2830312A212029007A
:1019BE000000001000000000202400200000008025
:1019CE002440000C0000008027040002003F048821
:1019DE0027080004003F04A827300002003F040837
:1019EE0028300002003F046828300002003F04C87F
:1019FE0028300002003F04282918001400000008B7
:101A0E002B14000A000000D02B22000A001304241D
:101A1E002D20000A000000642E7C000A0000003C0D
:101A2E0033300003003F04CC3330003C003F040C45
:101A3E003F38003E0037049C4C0C00FE006F0484BF
:101A4E005810000A00970424590C0014006F041457
:101A5E005A10001400B704545B30000A0000003422
:101A6E005D10000A00A704D45D0C000A0000004CB3
:101A7E005E0C000A000000C45E28000A000000543C
:101A8E006028000A000000E4610C000A0000005CFF
:101A9E00620C000A000000D46218000A000000C4A4
:101AAE00630C000A0000003C640C000A000000B445
:101ABE0064180014007B0494660C0014006F0484F8
:101ACE00670C001400C7047468040014007402C488
:101ADE0068040005007402D8680C000500000014AC
:101AEE0069040002000000F402040074050800E41A
:101AFE00030100E5030500EA030240AB100200D823
:101B0E000304000144040002440480AB100200D41C
:101B1E00030400AF03040081040400014404000226
:101B2E004404001144040012440400214404002221
:101B3E004404003144040032440400414404004291
:101B4E00440480000033000144040002440480F485
:101B5E000204000144040002440400D3040200FC09
:101B6E000403008104030056040280F4023300A72C
:101B7E001104000F120100740504C000003300941C
:101B8E00050400014404000244048000003300A751
:101B9E001104000144040002440480AF0304000158
:101BAE004404000244048016322C040149D1124729
:101BBE00276267C082C083E9FB74FF2B1904601A89
:101BCE007A00800808E8C3941440F90A900333E0C1
:101BDE00F8EAC39850E1780080EBD083D08222C01F
:101BEE0082C0838A828B83A3E0F98A828B83E0FA98
:101BFE00E9FBD083D0822274F7120B54EAFCEBFD82
:101C0E00E9FE7A557B55802FEAF9EBFA8C828D83AB
:101C1E00E0F521EA652125E0FAE433FBE42AF582BA
:101C2E0074013BF583E493FAA3E49369FB8C828DF4
:101C3E0083A3AC82AD831EEE70CE7F02020BBAC0C0
:101C4E0082C083801D8C828D83E4938A828B83F085
:101C5E008C828D83A3AC82AD838A828B83A3AA826E
:101C6E00AB83E9F874FF28190470DAD083D082228E
:101C7E00C082C083801C8C828D83E08A828B83F02D
:101C8E008C828D83A3AC82AD838A828B83A3AA823E
:101C9E00AB83E9F874FF28190470DBD083D082225D
:101CAE00C082C083800BE98A828B83F0A3AA82ABA9
:101CBE0083ECF874FF281C0470ECD083D08222C011
:101CCE0082C083801D8C828D83E4938A828B83F005
:101CDE008C828D83A3AC82AD838A828B83A3AA82EE
:101CEE00AB83E9F874FF28190470DAD083D082220E
:101CFE007928E9FA74FF2A1904600C7800E8C39475
:101D0E001E50EF000880F62274F1120B548923EA5C
:101D1E00FEEB541FFF752400EE54E0F8EFF9852317
:101D2E0021EE2521FAE43FFBEA24FF1AEB34FFFBF8
:101D3E00EA54E0687002EB69601AEE541FF87420E2
:101D4E00C398F525740F120B32E0F8A3E0F98882E0
:101D5E008983800785232580EB0524E524C394031E
:101D6E00400E900252E04408F079027F08020BBA4E
:101D7E00121FD879A0121F59E970DEEFF9121F5900
:101D8E00E970D6EEF9121F59E970CE85822185834E
:101D9E00227526008003A30526E526C39525500847
:101DAE00E0F9121F59E960EEE526C3952550088526
:101DBE00218285228380A2122006121CFEE525C3F5
:101DCE009523401A43A60253A4FD43A60453A5FB34
:101DDE0053A4FB900252E054F7F07900808D8525D4
:101DEE0021EE2521FEE43FFFE525C523C39523F50E
:101DFE0023C394214006752520021D6985232502E3
:101E0E001D6974F1120B5474FF120AE6E9853182D2
:101E1E00853283F08A218B2275260075250080027B
:101E2E000525E525C39403503305268521278522F4
:101E3E0028E528541FFF121FD879A0121F59E970E8
:101E4E00DFEFF9121F59E970D7A927121F59E97050
:101E5E00CF121FD879A1121F59E970C475250074CD
:101E6E0010120B32E0FEA3E0FF800E12205E8E8277
:101E7E008F83A3AE82AF830525853182853283E0C1
:101E8E00F8E525C3985025121F0EE98E828F83F038
:101E9E00852521853182853283E024FFF8E434FFE5
:101EAE00F9E865214970C412203A80C21220061248
:101EBE001CFE43A60253A4FD43A60453A5FB53A444
:101ECE00FBE526C39403900252E040074408F079E4
:101EDE0002800554F7F079007401120AFC7F0802A3
:101EEE000BBA74F5120B54740B120B32120C1379CD
:101EFE0002121E107402120AFC79007F04020BBA41
:101F0E00C082C08353A6FB53A5FB53A4FB43A4027C
:101F1E0043A502900201E4F0F8801A000043A604E3
:101F2E0053A5FB53A4FBE0C333F0E5A7A2E1500495
:101F3E00E0D2E0F008E8C3940853A6FB53A5FB5388
:101F4E00A4FB40D7E0F9D083D08222C082C083E9BF
:101F5E00900202F053A6FB53A5FB53A4FB53A6FD20
:101F6E0053A4FD7800801853A6FD53A4FDE0C3339F
:101F7E00F0000043A60453A5FB53A4FB000008E8A1
:101F8E00C3940853A6FB53A5FB53A4FB500AE0A22F
:101F9E00E750D443A60280D2000043A40243A50218
:101FAE0043A60453A5FB53A4FB0000E5A7A2E150F2
:101FBE0004D2F08002C2F0A2F0E433F953A6FB5330
:101FCE00A5FB53A4FBD083D0822253A6FB53A5FBC3
:101FDE0053A4FB43A60253A4FD43A60453A5FB53EF
:101FEE00A4FB000053A6FD53A4FD000053A6FB5313
:101FFE00A5FB53A4FB00002253A6FB53A5FB53A441
:10200E00FB53A6FD53A4FD000043A60453A5FB53AA
:10201E00A4FB000043A60253A4FD000043A4024308
:10202E00A50253A6FB53A5FB53A4FB2253A6FB53B9
:10203E00A5FB53A4FB43A60253A4FD43A60453A53C
:10204E00FB53A4FB000053A6FB53A5FB53A4FB229A
:10205E0053A6FB53A5FB53A4FB53A6FD53A4FD436C
:10206E00A60453A5FB53A4FB000053A6FB53A5FBEC
:10207E0053A4FB22C082C083E9701C90020374FF3C
:10208E00F0900208E4F0A3F0900207F090020474BE
:10209E0003F0A3E4F0A3F0D083D08222C082C083E9
:1020AE00E4801B900205E06013E014F0E0700D90E8
:1020BE0002047404F09003CEE04410F0740160E367
:1020CE00D083D0822274F8120B5490024D74FFF01C
:1020DE00A3F0A3F0A3740FF07F01020BBA1243C258
:1020EE000220F174F5120B5474FE120AE675215497
:1020FE007522027821120BFE790C9011F5782112BF
:10210E00096CAA21AB22AC23AD24121E107402124C
:10211E000AFC7A5E7B02121BED853182853283EAE0
:10212E00F0A3EBF0790A7A547B02121C058A218BFC
:10213E0022A821A922853182853283E0687003A30B
:10214E00E069703279067C547D027A827B02121C21
:10215E007E79027C5A7D027AF07B02121C7E790215
:10216E007C5C7D027A7E7B02121C7EE5A1A2E05091
:10217E001B12392480167C0279007AF07B02121C25
:10218E00AE7C0279007A7E7B02121CAEE5A1A2E043
:10219E005031853182853283E4F0A3F0A831A93223
:1021AE00882189227821120BFE79029011F978216B
:1021BE0012096CAA21AB22AC23AD24121D16740297
:1021CE00120AFC9003D4E054F7F07402120AFC7F5A
:1021DE0004020BBA74F8120B5490027DE4F09002D4
:1021EE006EF0900273F0A3F0A3F0A3F090026FF0E4
:1021FE00A3F0A3F0A3F0900277F0A3F0A3F0A3F066
:10220E0090027BF0F91222597F01020BBAC082C0F4
:10221E0083C2AF900268E02401F0A3E03400F0D254
:10222E00AFD083D08222C082C083900264E02401AA
:10223E00F0A3E03400F0900268E0F8A3E0F9900219
:10224E0066E8F0A3E9F0D083D0822274F8120B5422
:10225E00E970117C0A79007A647B02121CAE90023E
:10226E007CE4803CC2AF900266E0F8A3E0F9A3C321
:10227E00E098F0A3E099F0900264E4F0A3F0A3F0EC
:10228E00A3F0D2AFA3C3E09409A3E0940740099052
:10229E0002687408F0A314F0A3E4F0A3F0A3F0A373
:1022AE00F07F01020BBA74F3120B5490099BE0FA03
:1022BE00A3E0FBEAA2E0503C9009A0E05402703982
:1022CE00EA5410702F9009BBE07029900DDB782135
:1022DE0012095D852226E52654107010EB5402601B
:1022EE000BE52154027005EB540180069009EEE0D7
:1022FE005410600543A620800353A6DF53A5DF5379
:10230E00A4DFEAA2E050089009A0E05402600302A4
:10231E0023B1EA541060030223ACEAC413540754E9
:10232E0003707B9009BEE070759009BBE0706F90F2
:10233E0009BAE0706990099DE0F521A3E0F52274D9
:10234E00067821120AC4E52154077052900DC3126B
:10235E0009B2E8494A4B6006900931E06040900DA1
:10236E00BF1209B2E8494A4B70349016EAC082C0D7
:10237E00839009EA782112095DD083D082E49355C7
:10238E0021F8A3E4935522F9E849701290120E78C1
:10239E002112096C90097E7821120600700543A661
:1023AE0008800353A6F753A5F753A4F77F06020B35
:1023BE00BAC082C0837401C0E0740759F8D0E0B887
:1023CE0000028004C333D8FCF8E9131313541FFA28
:1023DE0074322AF582E43409F583E048F0D083D0D4
:1023EE00822274F1120B5474FE120AE674FD29F562
:1023FE0082E43411F583E493FFEA75F007A4F8A99B
:10240E00F0747E28F8741939F9853182853283E8A3
:10241E00F0A3E9F07E008041752101752200741F42
:10242E00597821120AD3E521F4F521E522F4F5229B
:10243E003395E0F523F524E9C4135407F5257526E5
:10244E000074027825120AD374322525F582E434FD
:10245E0009F58378211209200EEEC39407502BEE56
:10246E00F8853182853283E028FAA3E034008A822F
:10247E00F583E0F98F21752200EE7821120AB4E57A
:10248E0021A2E050931223BF80CE7402120AFC7F69
:10249E0008020BBA74F7120B5474EC120AE6A83148
:1024AE00A93288218922AE21AF227521147522000E
:1024BE007821120BFEEAFCEBFD7402120B4412673C
:1024CE00C07402120AFC853182853283E0700E746C
:1024DE0001120B32E070068048E8FEE9FF8E828F13
:1024EE0083E0F874FE687043A3AE82AF8390099BBD
:1024FE00E05401F8A3E05401F97401687001E96039
:10250E00098E828F83E0F91223BF8E828F83A3A858
:10251E0082A9838E828F83E0FA88828983E06A7033
:10252E00B87414120AFC7F02020BBA74FD6870D1E3
:10253E00A3AE82AF83E0F8C4540FFA740F58F97447
:10254E000F69700279101223F080BF74F1120B54D0
:10255E0074F0120AE67C2C7D007A327B0912872EEB
:10256E00901212782112096CAA21AB22AC23AD2451
:10257E001287FBE970107C2C7D0079FF7A327B0983
:10258E0012876D0229D790099BE05481F8A3E0547D
:10259E0001F97481687001E970030229D79003D89C
:1025AE00E531F0A3E532F07C207D0079FF7A5E7B89
:1025BE000912876D90099BE054F7F0900983E4F0BF
:1025CE00A3F090099DE054FDF0900984E0F95407C2
:1025DE006006E9540704800AA8319003D8E0C39836
:1025EE00C333FF790412875C85318285328378216B
:1025FE0012095D7E00900983E0F8540714601B14E5
:10260E00601814605C14605914700302269F1470D5
:10261E00030226A41460030226A9E85408603E9023
:10262E000E7DE0F8C394025034E8FE901216782521
:10263E0012096CAA25AB26AC27AD281287FBE970D0
:10264E001890099BE054087010EE700590121A80D5
:10265E000390121E782112088C740280170E0E80C1
:10266E0022E85408601B900E7EE0F8C394045011CB
:10267E00E8FE7404C39E333354FC782112082E8076
:10268E00027E04900983E05440601074012EFF8096
:10269E000A0E7F0280050E0E0E7F04EE6010740C83
:1026AE002EF582E43419F583E493F91223BF9009D1
:1026BE0083E05407F8603174FF2825E0F8E433F91D
:1026CE00741E28F582741939F583E493C0E0740101
:1026DE0093F583D082AA82AB83EA4B600B74E22A15
:1026EE00FA74163BFB1224A27E078012EEFAE52145
:1026FE00540FF91223F07404782112082E1E74FF61
:10270E002F1F0470E7E521452245234524703D9097
:10271E00099BE05408604E90097E782112095D7481
:10272E0010782112082E7490652145227032EEFA2F
:10273E0079101223F0EE75F007A4F8A9F07484282E
:10274E00F582741939F583E493F98016EEFAE521D2
:10275E00540FF91223F07404782112082E1E80A54E
:10276E0079051223BF90099BE0A2E0400302288C5A
:10277E0090099FE054406055900983E05420704DBD
:10278E00900D9EE0F8C3940A502F740128FF752314
:10279E00048022EFC39523401A8523217419252125
:1027AE00F582E43419F583E493F91223BFE523CFC0
:1027BE00C39FFF1523E52370DA79021223BF7AD364
:1027CE007B0C12883BE97005790F1223BF900D9494
:1027DE00E07003022864900983E05410707890082A
:1027EE001CE0F8A3E0F5838882E0F521C394045041
:1027FE002190099CE0540170089009F7E054027092
:10280E001174162521F582E43419F583E493F91237
:10281E0023BF900C94E064016019900E24E0A2E1B5
:10282E005011791F1223BF7ACF7B0C12883BE970AF
:10283E0025801A900DDB782112095D9012227821E5
:10284E00120909E521452245234524600479278094
:10285E0002791F1223BF90098BE0602290098AE053
:10286E0025E0F8E433F9744528F582741939F583B7
:10287E00E49324E2FAA3E4933416FB1224A27A5EC4
:10288E007B091224A2900931E0601890099CE05453
:10289E0002603E900DDB782112095DE52154027035
:1028AE00308033900DC31209B2E8494A4B700C9038
:1028BE000DBF1209B2E8494A4B601B90099BE054C8
:1028CE0001F8A3E05401F974016870037401697092
:1028DE000579871223BF9009EBE0544060419009BF
:1028EE009DE0F521A3E0F52274067821120AC4E5D5
:1028FE00215407C39404401A900DDB782112095D10
:10290E009012267821120909E521452245234524F6
:10291E00600890099CE054016005797F1223BF7A0C
:10292E00DF7B0D128884E9600579221223BF90099E
:10293E00ECE0A2E0500579171223BF9009EEE054A7
:10294E00087028900DDB782112095D90122A7821EB
:10295E00120909E521452245234524600E9009C13F
:10296E00E0600D90099CE05401600579371223BF99
:10297E0090099BE05401F8A3E05401F974016870CA
:10298E0001E960299009EAE054046005792F1223C9
:10299E00BF90099DE0F521A3E0F52274067821127F
:1029AE000AC4E5215407600579671223BF900D30E4
:1029BE00E0C39403500EA3E0C394035007A3E0C3F7
:1029CE0094C84005793F1223BF1248907410120A22
:1029DE00FC7F08020BBA74F5120B54E9FE90099BAA
:1029EE00E0547FF090122E782112096CAA21AB22AE
:1029FE00AC23AD241287FBE97009900982E0C394E1
:102A0E00024032901232782112096CAA21AB22AC0C
:102A1E0023AD241287FBE97024900982E0FA900D11
:102A2E0094E024FFF8E434FFF9C3EA98E499A2D2C3
:102A3E0065D0335008900982E004F0807D90099BA8
:102A4E00E0C413540754036401700AEE7007790052
:102A5E00122ACD8022900989E004F0900988E0F8CE
:102A6E00A3E0C3984016EE700E7900122ACD90099D
:102A7E00BEE06003E014F0900989E4F0752105755D
:102A8E0022007821120BFE900989E075F005A4F85A
:102A9E00A9F090098CE0FA75F0EFA4CAACF02CFB0B
:102AAE0074062AFA74743BFBEA28FCEB39FD7A7E35
:102ABE007B091279567402120AFC7F04020BBA7457
:102ACE00F7120B5490099BE0549FFAA3E0FB74039A
:102ADE00697015EA444090099BF0A3EBF0900987CA
:102AEE0074C7F0A37402804DE9C39402501C89216F
:102AFE0075220074057821120AD3E5215460FCEA90
:102B0E004C90099BF0A3EBF0800CEA444090099B9B
:102B1E00F0A3EBF07900E99009877003E48002746A
:102B2E0063F0743029F582E4340EF583E090098861
:102B3E00F0E990098CF090099BE0547FF07F02023F
:102B4E000BBA74F8120B54122ACD9009897480F0C6
:102B5E0079011229E4900E7FE0900985F07F010241
:102B6E000BBA74F5120B5490099BE0FAA2E0505583
:102B7E009009DBE0FC900E80E025E0F8E433F9EC00
:102B8E0098E499C365D033502A90123678211209F1
:102B9E006C90062878211206006018EAC4135407B8
:102BAE005403F87402686003E8700890099BE044CF
:102BBE0010805590062874B8F0A3743EF0A37424C8
:102BCE00F0A37403F090098BE06003E014F0900919
:102BDE0098E0602B9009BBE06003E014F09009BA16
:102BEE00E06003E014F0900985E014F0E0701079D5
:102BFE00001229E4900E7FE0900985F01246F21241
:102C0E00255990099BE054EFF01222B47F04020B79
:102C1E00BA74F5120B541246F2901236782112093C
:102C2E006C9006287821120600600D7C2C7D0079B0
:102C3E00FF7A327B0912876D1248907900122B5061
:102C4E009009BAE4F07F04020BBA74F5120B5474B7
:102C5E00F8120AE6AA31AB321233FB900BDAE0A27D
:102C6E00E150309009EAE0F8A3E04480F99009EAD7
:102C7E00E8F0A3E9F0900DDB782112095DE521540F
:102C8E0008700A7907128D2E7903128C459009303F
:102C9E00743CF07408120AFC7F04020BBA74F8122A
:102CAE000B54122C58900920E4F0A3F0A3F0A3F0DB
:102CBE0012760A7F01020BBA74F1120B5474E512EC
:102CCE000AE6853182853283EAF0A3EBF0A3ECF0BD
:102CDE00A3EDF0853182853283120C0F7C007D00CE
:102CEE00740F120B441230CE7404120AFCAA31ABCC
:102CFE0032128CC8E9FE7521037522007821120B61
:102D0E00FE7410120B32AC82AD837406120B441299
:102D1E0087A57402120AFC7821120BFE740D120B99
:102D2E004C740A120B32AA82AB831287A57402125C
:102D3E000AFC752101EE7821120AD37407120B32A8
:102D4E00E521F0790A128DA97404120B4412345144
:102D5E00900BDAE0C2E1F07404120B32E0F9128843
:102D6E001DE9900930F08531828532837821120970
:102D7E005D901212782112088C9009247821120984
:102D8E007F782112081EA3782112097F8531828552
:102D9E0032831209B290091C1209BE853182853226
:102DAE0083782512095D900930E0F521E4F522F5CE
:102DBE0023F524782579211208B69009207825125A
:102DCE00097F7A3F7B0D128AD17A437B0D128AD10D
:102DDE007A477B0D128AD19009EAE0F8A3E0547F7E
:102DEE00F99009EAE8F0A3E9F0741B120AFC7F08D7
:102DFE00020BBA74F1120B5474EE120AE6740A1234
:102E0E000B32ECF0A3EDF0EAFEEBFF740E120B3278
:102E1E00E4F0A3F0A3F0A3F0740A120B32E0540313
:102E2E00F521740365217013740C120B441233FBDD
:102E3E00740D120B32E0541FF08057EE4F700302E8
:102E4E0030BC744C2521F582E43412F583E493F5FD
:102E5E0021F912689DE9640170030230BC752200ED
:102E6E00740A120B32A3E0544078216011120BFE4B
:102E7E00EEFCEFFD740E120B441287A5800F120BA1
:102E8E00FEEEFCEFFD740E120B441267C0740212BC
:102E9E000AFC7521057522007821120BFE7C3A7D05
:102EAE0012740E120B441268207402120AFCEA4BC2
:102EBE004C4D700B7AFF7BFF7CFF7DFF0230C47E92
:102ECE0000802A740C120B32E5822EF582E43583D3
:102EDE00F583E0F912881DE9C0E07404120B32E5A7
:102EEE00822EF582E43583F583D0E0F00EEEC394A6
:102EFE000640D07405120B32E014FA7404120B3231
:102F0E00E0FC75F06DA4CCA8F028FDE02403F521BB
:102F1E00E43400F52274027821120AB4EC2521F86B
:102F2E00ED3522F9E8FCE9FD853182853283ECF03E
:102F3E00A3EDF0A3E4F0A3F0FE804374402EF582DF
:102F4E00E43412F583E493F521E4F522F523F52418
:102F5E0085318285328378211208A37404120B32D4
:102F6E00E05403701874016E70139011DB78211207
:102F7E00096C85318285328378211208A30EEEC347
:102F8E009A40B8853182853283C082C0837406121E
:102F9E000B32E0F521E4F522F523F524D083D0821F
:102FAE007821120879901257782512096C782179B8
:102FBE00251206B67407120B32E0F525E4F526F558
:102FCE0027F5287821792512086690125B7825124C
:102FDE00096C782179251206B67408120B32E0F5C9
:102FEE0025E4F526F527F52878217925120866902F
:102FFE00125B782512096C782179251206B67409B0
:10300E00120B32E0F525E4F526F527F5287821791F
:10301E0025120866853182853283782112097F85D3
:10302E003182853283120C0F7C007D007408120BE6
:10303E00441230CE7404120AFC75210675220078F3
:10304E0021120BFE740E120B4C7406120B441268F6
:10305E00207402120AFCEA4B4C4D7052740A120B89
:10306E0032E0540CF52160117404652170167C3C1D
:10307E007D00AA31AB32127F4385318285328312B5
:10308E00098E8032740865217024853182853283E1
:10309E00782112095D90125F782512096C782179DA
:1030AE0025120736AA21AB22AC23AD2480087A0064
:1030BE007B007C007D007412120AFC7F08020BBAA2
:1030CE0074F2120B5474FA120AE68A258B26ECFE61
:1030DE00EDFFEE5403FCEE1313543F5403F5277427
:1030EE00036C6003023191AA31AB321233FB7403CD
:1030FE006527701C7401120B32E0C4135407F8C01C
:10310E00E07403120B32D0E0F07407687002E4F042
:10311E007401120B32E0541FF0A827E828F8744F00
:10312E0028FAE43412FB8A828B83A3EF5440602981
:10313E00E493F5217522007821120BFE8A828B838F
:10314E00E493F87402120B32E58228FCE43583FD19
:10315E00AA25AB261287A58027E493F521752200B8
:10316E007821120BFE8A828B83E493F87402120B81
:10317E0032E58228FCE43583FDAA25AB261267C012
:10318E000233EC7414120B321209B2E8494A4B7036
:10319E0018A827E828F87900745028F582E434122C
:1031AE00F583E493FC7D00802A9012127821120997
:1031BE006C7414120B3278211206007020A827E8C6
:1031CE0028F8745028F582E43412F583E493FC7DDC
:1031DE00007999AA25AB2612876D0233F17402127B
:1031EE000B32E4F07403120B32E4F07404120B325F
:1031FE00E4F07405120B32E4F0EC600514601080FC
:10320E003C7C3C7D007414120B44127F43EAF07C2C
:10321E003C7D007414120B44127F43EAC0E0740428
:10322E00120B32D0E0F07C187D007414120B441295
:10323E007F43EAC0E07403120B32D0E0F074141234
:10324E000B321209B2E8494A4B700302334990120D
:10325E0012782112096C7414120B3278211208A301
:10326E007CB57D057414120B44127F437414120B3B
:10327E0032782112095DE521333354FC8531828584
:10328E003283F0EA4B70117401120B327401F004A8
:10329E00120B327401023359EA24FF1AEB34FFFB8E
:1032AE007414120B32EAF0A3EBF0A3E4F0A3F07C5B
:1032BE006D7D017414120B44127F437414120B3281
:1032CE00782112095D853182853283E02521F0E077
:1032DE00540370050AEA70010B7401120B32E4807C
:1032EE000FC3EA98FAEB9400FB7401120B32E00460
:1032FE00F0E0F521740165217010853182853283ED
:10330E00E05403700575211D800F74402521F58250
:10331E00E43412F583E493F521852182A882C3EA71
:10332E0098EB940050BBEA04C0E07402120B32D04A
:10333E00E0F07401120B32E0048010853182853288
:10334E0083E4F0A3F07402120B32E4F075210085D1
:10335E002123853182853283E5822523F582E4356A
:10336E0083F583E0F912882BE9F00521E521C3945A
:10337E000640DCA827E828F8744F28F8E43412F940
:10338E00E8FAE9FB8A828B83A3EF54406029E49329
:10339E00F5217522007821120BFE8A828B83E4932D
:1033AE00F87402120B32E58228FCE43583FDAA255F
:1033BE00AB261287A58027E493F52175220078218C
:1033CE00120BFE8A828B83E493F87402120B32E5A1
:1033DE008228FCE43583FDAA25AB261267C0740251
:1033EE00120AFC7406120AFC7F07020BBA74F8125A
:1033FE000B54EAFEEBFF124DA7900371E08E828F05
:10340E0083F0900372E08E828F83A3F0900373E0BB
:10341E008E828F83A3A3F0900374E08E828F83A39A
:10342E00A3A3F0900375E08E828F83A3A3A3A3F0D2
:10343E00900376E08E828F83A3A3A3A3A3F07F01D4
:10344E00020BBAC082C0838A828B83A3A3A3A3A3D9
:10345E00E090036DF08A828B83A3A3A3A3E0900375
:10346E006CF08A828B83A3A3A3E090036BF08A8215
:10347E008B83A3A3E090036AF08A828B83A3E090F0
:10348E000369F08A828B83E0900368F0124DEAD0D4
:10349E0083D0822274F5120B5474AD120AE675CEE7
:1034AE00A575CF5AA831A932882189227821120B0D
:1034BE00FE79539011DF782112096CAA21AB22AC50
:1034CE0023AD24121E107402120AFC75CEA575CF00
:1034DE005A7451120B32AA82AB83121BED8A218BC6
:1034EE0022AE21AF227951AA31AB32121C05EA6EFF
:1034FE007002EB6F605875CEA575CF5AA831A93200
:10350E00882189227821120BFE79539011F17821AE
:10351E0012096CAA21AB22AC23AD24121E10740228
:10352E00120AFC75CEA575CF5A7451120B32AA82AF
:10353E00AB83121BED8A218B22AE21AF227951AAC9
:10354E0031AB32121C05EA6E7002EB6F7009AA31B4
:10355E00AB32123592802079517A9D7B02121C0576
:10356E008A218B22A821A9229002EEE0687003A383
:10357E00E06960031242211242827453120AFC7FE8
:10358E0004020BBAC082C083789D79027C00801938
:10359E008A828B83E088828983F0A3A882A9838A9A
:1035AE00828B83A3AA82AB830CECC3945340E1D0ED
:1035BE0083D0822274F5120B5474FE120AE6A831DF
:1035CE00A932882189227821120BFE9012AB782124
:1035DE0012096CAA21AB22AC23AD24121EF0740288
:1035EE00120AFC853182853283E0F8A3E0F990025D
:1035FE00EEE0687003A3E069702279517A9D7B0238
:10360E00121C058A218B22A821A9229002EEE068C5
:10361E007003A3E069700512428280031234A21275
:10362E0036497402120AFC7F04020BBAC082C083B0
:10363E0090029C7405F0D083D0822274F7120B5442
:10364E007C0080010CECC3941150468C2175220035
:10365E0074027821120AD374672521F87412352268
:10366E00F988828983E493FA740193FB90029DE0BA
:10367E006A7003A3E06B70CC88828983A3A3E49362
:10368E00900280F088828983A3A3A3E493900281A1
:10369E00F0ECC39411400A900280740AF0900281FB
:1036AE00F07F02020BBA74F5120B54E9FEA2E05041
:1036BE00297C0479007A827B02121CAE79047A820C
:1036CE007B02121C05900286EAF0A3EBF079067CD1
:1036DE00827D027A887B02121C7EEEA2E150667C0D
:1036EE000E79007A8E7B02121CAE790C7A8E7B02DA
:1036FE00121C0590029AEAF0A3EBF075218E75224A
:10370E00027821120BFE790E9011D3782112096CDA
:10371E00AA21AB22AC23AD24121D167402120AFC90
:10372E0075218E7522027821120BFE790E9011D71B
:10373E00782112096CAA21AB22AC23AD24121D16DE
:10374E007402120AFC7F04020BBA74F5120B547445
:10375E00F2120AE6123876E964016003023806A80E
:10376E0031A932882189227821120BFE790E90110F
:10377E00D3782112096CAA21AB22AC23AD24121EE0
:10378E00107402120AFC790CAA31AB32121C058A93
:10379E00218B22A821A922740C120B32E06870032F
:1037AE00A3E0696046A831A93288218922782112C6
:1037BE000BFE790E9011D7782112096CAA21AB223B
:1037CE00AC23AD24121E107402120AFC790CAA311D
:1037DE00AB32121C058A218B22A821A922740C124D
:1037EE000B32E0687003A3E069700D790EAC31AD59
:1037FE00327A8E7B02121C7E740E120AFC7F040239
:10380E000BBA74F7120B547E0079047A827B021283
:10381E001C058A218B22A821A922900286E06870BD
:10382E0003A3E069601F0E79047A887B02121C05DF
:10383E008A218B22A821A92290028CE0687003A312
:10384E00E06960010EEEA2E0500F79067C887D02E1
:10385E007A827B02121C7E800AC394024005790193
:10386E001236B47F02020BBA74F7120B54790C7A2B
:10387E008E7B02121C058A218B22A821A92290027E
:10388E009AE0687003A3E069600479018002790010
:10389E007F02020BBA74F8120B5489217E007F004E
:1038AE00123810740165217005900282805AE5214C
:1038BE00704D90029CE0A2E05009900282E0FEA3BF
:1038CE00E08013E0A2E1500F900282E0F8A3E0F94D
:1038DE00C3E498FEE499FF90029CE0A2E2500B90A4
:1038EE000284E02EFEA3E03F8022E0A2E3501E9071
:1038FE000284E0F8A3E0F9C3EE98FEEF99800D7410
:10390E000265217008900284E0FEA3E0FFEEFAEF5C
:10391E00FB7F01020BBA74F5120B5474F2120AE615
:10392E007E00A831A932882189227821120BFE79D6
:10393E000E9011D3782112096CAA21AB22AC23ADC3
:10394E0024121E107402120AFC790CAA31AB321228
:10395E001C058A218B22A821A922740C120B32E09D
:10396E00687003A3E0696046A831A93288218922D4
:10397E007821120BFE790E9011D7782112096CAABC
:10398E0021AB22AC23AD24121E107402120AFC7954
:10399E000CAA31AB32121C058A218B22A821A92236
:1039AE00740C120B32E0687003A3E06970010EEE26
:1039BE007020790C7A8E7B02121C058A218B22A82C
:1039CE0021A92290029AE0687003A3E069600302C5
:1039DE003AAD74016E700D790EAC31AD327A8E7BCC
:1039EE0002121C7E7A0079011238A38A218B22EBF7
:1039FE003395E0F523F52490029278211208A37AEC
:103A0E000079001238A38A218B22EB3395E0F5233F
:103A1E00F52490028E78211208A37A0079021238CA
:103A2E00A38A218B22EB3395E0F523F524900296A1
:103A3E0078211208A3790C7A8E7B02121C05A3EA58
:103A4E00F0A3EBF0123876E9705575218E752202CF
:103A5E007821120BFE790E9011D3782112096CAADF
:103A6E0021AB22AC23AD24121D167402120AFC12D5
:103A7E003876E9702A79011236B475218E752202D4
:103A8E007821120BFE790E9011D7782112096CAAAB
:103A9E0021AB22AC23AD24121D167402120AFC7443
:103AAE000E120AFC7F04020BBA74F1120B547AF256
:103ABE007B10123CA48A218B228C238D24900345EB
:103ACE007821120674900345782512095D500A90EC
:103ADE000349E02AC39525800BE525F42A04F890C6
:103AEE000349E028F0900345782112097F9003499D
:103AFE00E0C313F89002F0E028F0900349E0A2E052
:103B0E00E433F0900280E0F89002F0E09840749078
:103B1E000280E0F5F09002F0E084F9F5F09002807A
:103B2E00E0A4F89002F0E098F0E9F5F0900281E060
:103B3E00A4F890027EE028F0E0F8900282E028F0EF
:103B4E00A3E03400F090027EE4F079047A827B02E6
:103B5E00121C05900286EAF0A3EBF079067C827DBA
:103B6E00027A887B02121C7E900282C3E094D1A35B
:103B7E00E09407500BA3C3E094D1A3E09407400355
:103B8E00123924125ECB7F08020BBA74F7120B5453
:103B9E009002FDE4F0A3F09002F804F09002A1E090
:103BAE00F8A3E0F97AE87B03120A5BE8FCE9FD90E2
:103BBE00029FE0F8A3E0F97A647B00120A5B882189
:103BCE00EC88F0A4CCA8F089F0A428F88521F0EDBB
:103BDE00A428FDEC2CFCED33FDECF8EDF97AE87B36
:103BEE0003120A5BE8FCE9FD9002F9ECF0A3EDF09C
:103BFE00A3E4F0A3F09002F4F0A3F0A3F0A37402F8
:103C0E00F0FF020BBAC082C083A2875031780079D0
:103C1E000080060008E8700109C3E89409E99400E1
:103C2E0040F178007900800508E8700109C3E89436
:103C3E004CE99400505B902885E070EC8053A28094
:103C4E0078005030790080060008E8700109C3E85A
:103C5E0094F0E9940040F178007900C3E89480E98B
:103C6E009407502D902885E0602708E870ED0980B4
:103C7E00EA007801E860FA78007900800508E870BB
:103C8E000109C3E89402E994005006902885E0707B
:103C9E00ECD083D0822274F1120B5490288474CC11
:103CAE00F0E4F02AF582E43BF583E0123C13902811
:103CBE0085E0600A7A007B007C007D0080589028A9
:103CCE0083E0F525E4F526F527F528740878251206
:103CDE000847902882E0F521E4F522F523F52478B3
:103CEE002579211209337408782512084790288106
:103CFE00E0F5217825792112093374087825120808
:103D0E0047902880E0F52178257921120933AA25DC
:103D1E00AB26AC27AD287F08020BBA74F1120B54F8
:103D2E00780090288474CCF0E4F0902885E0600947
:103D3E0008E8C3942140F3803BEA902880F0EBA37F
:103D4E00F0ECA3F0EDA3F0740F120B32E0F8A3E049
:103D5E00F988828983E4F0D287A28740070AEAC3F2
:103D6E00941F40F5007800902885E0600B08E8C3AA
:103D7E00942140F37900800279017F08020BBA7416
:103D8E00F1120B54780090288474CCF0E4F0902853
:103D9E0085E0600908E8C3942140F3803AEA902850
:103DAE0080F0EBA3F0ECA3F0EDA3F0C287A2875056
:103DBE00070AEAC3941F40F5740F120B32E0F8A302
:103DCE00E0F988828983E4F000F8902885E0600BA2
:103DDE0008E8C3942140F37900800279017F08023C
:103DEE000BBA74F1120B54780090288474CCF0E462
:103DFE00F0902885E0600908E8C3942140F3802DF7
:103E0E00EA902880F0EBA3F0ECA3F0EDA3F0740F92
:103E1E00120B32E0F8A3E0F988828983E4F000F80F
:103E2E00902885E0600B08E8C3942140F379008068
:103E3E000279017F08020BBAC082C083902858E431
:103E4E00F0A3F0A3F0A3F0A3F0A3F0902863F090FA
:103E5E00286504F0E99028646003E48002740FF092
:103E6E00D083D08222D2877800A287400708E8C389
:103E7E00941540F52274F5120B54E9FFC284752196
:103E8E007D7522287821120BFE9011DF7821120900
:103E9E006CAA21AB22AC23AD24123DF07402120A9F
:103EAE00FC7521787522287821120BFE9011DF788F
:103EBE002112096CAA21AB22AC23AD24123DF07461
:103ECE0002120AFC7521F47522107821120BFE9055
:103EDE0012AF782112096CAA21AB22AC23AD2412A9
:103EEE003DF07402120AFC7521FA75221078211227
:103EFE000BFE9012AF782112096CAA21AB22AC23D3
:103F0E00AD24123DF07402120AFCEF7521EF7522FA
:103F1E001078216008120BFE9012B38006120BFE71
:103F2E009012B7782112096CAA21AB22AC23AD24D2
:103F3E00123DF07402120AFC7E00802B8E21E521C8
:103F4E0024F0F521E43410F5227821120BFE9011A5
:103F5E00DF782112096CAA21AB22AC23AD24123DCD
:103F6E00F07402120AFC0EEEC3940440CF7E008061
:103F7E002B8E21E52124F6F521E43410F52278214B
:103F8E00120BFE9011DF782112096CAA21AB22AC24
:103F9E0023AD24123DF07402120AFC0EEEC39404FB
:103FAE0040CF75217D7522287821120BFE9012BB11
:103FBE00782112096CAA21AB22AC23AD24123DF05C
:103FCE007402120AFC75217D7522287821120BFECF
:103FDE009012BF782112096CAA21AB22AC23AD241A
:103FEE00123DF07402120AFC75217D75222878218B
:103FFE00120BFE9011DF782112096CAA21AB22ACB4
:10400E0023AD24123DF07402120AFC7E00802B8E2A
:10401E0021E52124F0F521E43410F5227821120B4C
:10402E00FE9011DF782112096CAA21AB22AC23ADD0
:10403E0024123DF07402120AFC0EEEC3940440CF1B
:10404E007E00802B8E21E52124F6F521E43410F537
:10405E00227821120BFE9011DF782112096CAA2111
:10406E00AB22AC23AD24123DF07402120AFC0EEE0C
:10407E00C3940440CF7521F57522107821120BFEE2
:10408E009011DB782112096CAA21AB22AC23AD244E
:10409E00123DF07402120AFC7521FB752210782174
:1040AE00120BFE9011DB782112096CAA21AB22AC07
:1040BE0023AD24123DF07402120AFCEF75217875BF
:1040CE0022287821602B120BFE9012C37821120940
:1040DE006CAA21AB22AC23AD24123DF07402120A5D
:1040EE00FC75217E7522287821120BFE9012C78056
:1040FE0029120BFE9012CB782112096CAA21AB2249
:10410E00AC23AD24123DF07402120AFC75217E75AB
:10411E0022287821120BFE9011DF782112096CAA49
:10412E0021AB22AC23AD24123DF07402120AFC75B1
:10413E0021797522287821120BFE9011DF78211239
:10414E00096CAA21AB22AC23AD24123DF0740212ED
:10415E000AFC75217A7522287821120BFE9012CF57
:10416E00782112096CAA21AB22AC23AD24123DF0AA
:10417E007402120AFC75217D7522287821120BFE1D
:10418E009011F1782112096CAA21AB22AC23AD2437
:10419E00123DF07402120AFC75217B7522287821DB
:1041AE00120BFE9011DF782112096CAA21AB22AC02
:1041BE0023AD24123DF07402120AFC75217C752287
:1041CE00287821120BFE9011DF782112096CAA219A
:1041DE00AB22AC23AD24123DF07402120AFC900205
:1041EE00F37401F09002F2E4F07F04020BBA79004E
:1041FE00123E46123E7375CEA575CF5A7900123E09
:10420E008375CEA575CF5A0242181235C212363AB0
:10421E00023758C082C08379517CDB7D127A9D7B38
:10422E0002121C4D79517A9D7B02121C059002EEF2
:10423E00EAF0A3EBF0D083D08222C082C08390023A
:10424E00F0E004F0900280E0F89002F0E0C39840B5
:10425E001E900280E0F89002F0E0C398F090028188
:10426E00E0F890027EE028F09003CEE04404F0D017
:10427E0083D0822274F5120B54900333E0640175DF
:10428E0021F475221078217008120BFE9002A7807F
:10429E0006120BFE9002A312098E123DF07402124A
:1042AE000AFC7521FA7821120BFE9002A312098ED8
:1042BE00123DF07402120AFC7521F57821120BFEE4
:1042CE009002AB12098E123DF07402120AFC752197
:1042DE00FB7821120BFE9002AB12098E123DF07488
:1042EE0002120AFC7E0080378E82858221752200A2
:1042FE00E52124E8F523E43410F5247823120BFE8F
:10430E0074027821120AD374B32521F58274023512
:10431E0022F58312098E123DF07402120AFC0EEE83
:10432E00C3940740C3900333E0640170457521F4D4
:10433E007522107821120BFE9002A712098E123DE3
:10434E00F07402120AFC7521EB7821120BFE90021A
:10435E00E512098E123DF07402120AFC7521EC78FA
:10436E0021120BFE9002E912098E123DF074021218
:10437E000AFC75217B7522287821120BFE9002CF44
:10438E00E0FAE4FBFCFD123DF07402120AFC75210A
:10439E007C7821120BFE9002D0E0FAE4FBFCFD12B9
:1043AE003DF07402120AFC9002EDE0902858F07F66
:1043BE0004020BBAC082C083790F7C437D137AFF4F
:1043CE007B02121C4D900307E0F8740968600774B5
:1043DE0090686002E4F0790F7AFF7B02121C059060
:1043EE00030EEAF0A3EBF0D083D08222222274F5E2
:1043FE00120B54124F44901236782112096C90060B
:10440E00287821120600600B90092CE4F0A3F0A38B
:10441E00F0A3F09012D7782112096C90092C782114
:10442E001206006005122C1F80061246F2124890EA
:10443E00900B7E7432F0A3740FF0900C96E06466CD
:10444E0070091243FB9009A47421F0122CAB900951
:10445E001C1209B29009CF1209BE9012D778211200
:10446E00096C90092C7821120600602290092CE428
:10447E00F0A3F0A3F0A3F09009EAE0F8A3E054FD56
:10448E00F99009EAE8F0A3E9F07905128DA9122B4B
:10449E0070124FAB900999E04408F0125738125E33
:1044AE00849009C07401F0900DDB782112095DE54E
:1044BE002254206027900DC31209B2E8494A4B607E
:1044CE00067AC37B0D8010900DC71209B2E8494AD7
:1044DE004B600C7AC77B0D125EB480031243FB90C7
:1044EE000C94E0640160057521018003752100754F
:1044FE0022009009EEE0FAA3E054FDFB7409782146
:10450E00120AD3E5225402F9EAF8EB49F99009EEC2
:10451E00E8F0A3E9F0900EAFE0A2E050129009F699
:10452E00E0F8A3E04402F99009F6E8F0A3E9F09070
:10453E000996E0600312760A128D037AD37B091274
:10454E007FC6900DDB782112095DE521A2E05003B4
:10455E00128C0E90099AE04440F07F04020BBAC010
:10456E0082C08390099AE054C0F9E47003744069E4
:10457E007024900995E4F090099AE04480F0900C34
:10458E0095E064337009A3E0646660031243FA9009
:10459E00099AE0547FF0D083D08222C082C08390EB
:1045AE000991E014F0900BDAE0A2E05007125347A5
:1045BE00E0C2E0F090099EE054EFF0D083D082226A
:1045CE00C082C083900996E4F09009DBE0F8C394B2
:1045DE00D25018E8C39415402290099EE0544070C2
:1045EE001AE04440F0A3E04401800FE024FEF09076
:1045FE00099FE054106004E054EFF0122B70900904
:10460E00DFE06010E014F0E0700A900999E0440CCD
:10461E00F0126FA290099FE054026012900C94E089
:10462E006401600A12551490099FE054FDF0D08386
:10463E00D08222C082C0839028A8E0D2E0F0A3E00E
:10464E00D2E0F078008019E833333354F82433FA8B
:10465E0074042AF977010977000977C809770008E9
:10466E00E8C3940240E1D083D08222C082C08390FE
:10467E0028AFE0A2E17835404B7937C3E6970809B9
:10468E00E6974017181818E67011900325E090036E
:10469E0010F09003D1E0D2E0F076017833E66402B8
:1046AE00600A0808E62401F608E436F6783509C3F0
:1046BE00E6970809E6974016181818E66401700E7A
:1046CE007602800A76000876001818187600D083D5
:1046DE00D08222C082C083900311EAF0A3EBF0D007
:1046EE0083D08222C082C0839028B4E0440FF09021
:1046FE0028B8E04403F09028BCE074FFF09028D571
:10470E00E0443FF09028B5E054F0F09028B9E05422
:10471E00FCF09028BDE0E4F09028D6E054C0F0C242
:10472E008390285E7404F0902C1E7491F0A3E4F034
:10473E00A374FFF0A3747CF0A3E4F0A3F0D083D0B5
:10474E008222C082C083124775902C1FE4F0A3F022
:10475E00A3F0A3F0A3F07905121BC1902C1EE4F078
:10476E00D283D083D08222C082C0837C0B7900900A
:10477E000311E0FAA3E0FB121CAE1247ABD083D0BC
:10478E008222C082C0837C0B79FF900311E0FAA3D2
:10479E00E0FB121CAE1247ABD083D08222C082C087
:1047AE0083900311E0FAA3E0FB1247BFD083D082BF
:1047BE002274F7120B5474F5120AE67800801385F2
:1047CE003182853283E58228F582E43583F583E4F0
:1047DE00F008E8C3940B40E77401C0E0900EFDE0D2
:1047EE005407F8D0E0B800028004C333D8FCFAE0D6
:1047FE00131313541FF8853182853283E58228F511
:10480E0082E43583F583E04AF0853182853283E098
:10481E00902C06F07401120B32E0902C07F074020B
:10482E00120B32E0902C08F07403120B32E0902C35
:10483E0009F07404120B32E0902C0AF07405120B7E
:10484E0032E0902C0BF07406120B32E0902C0DF02F
:10485E007407120B32E0902C0EF07408120B32E03B
:10486E00902C0FF07409120B32E0902C10F0740A99
:10487E00120B32E0902C11F0740B120AFC7F020224
:10488E000BBAC082C083900311E0FAA3E0FB12477B
:10489E00BFD083D0822274F8120B541248D89003E2
:1048AE0022E0900310F0900314E4F0A3F0A3F0A321
:1048BE00F090032DF0A3F090032A7403F0900322DE
:1048CE00E090032BF07F01020BBAC082C0839003ED
:1048DE00187404F090031CF090031904F090031E5A
:1048EE00F0A3F0900322F0D083D08222C082C08346
:1048FE009028A8E4F0A3F0A3F09028ACF0A3F0A3C6
:10490E00F09028C5F0A3F0A3F0A3F09028B074FFA8
:10491E00F0A3E4F09028B4740FF0A3E4F09028B85C
:10492E0074FFF0A3E4F09028BC74FFF0A3E4F090C1
:10493E0028C074FFF0A3E4F09028D574FFF0A3E430
:10494E00F09028D9F0A3F075A40075A50075A60007
:10495E0053A4FE53A5FE53A6FE53ADFED083D082C4
:10496E0022438E085389F0438901758CEF758AFFB7
:10497E00D28CD2A922C28E538EEF5389F74389105F
:10498E00EA75F044A4FAA8F075F044EBA428FB7481
:10499E00FFC39AF874FF9BF58DE8F58BD2AB2253CB
:1049AE008EDFC2C975CDF575CC54D2CAD2AD227880
:1049BE0000800108E8C3941440F92274F8120B54D5
:1049CE00E9FF7E0080041249BD0EEEC39F40F77FC3
:1049DE0001020BBA74F8120B54E9FEEAFF759096B9
:1049EE0075975779051249C98E9674076E700574BE
:1049FE00404FF5DF79051249C9759096759756792E
:104A0E00051249C97F01020BBAC082C083D2E99058
:104A1E00284BE0D2E6F0D083D08222C082C08390B1
:104A2E002D00E4F0A3F01248FA1246F2124790124B
:104A3E004BE912496F1249AD1246417A00790312C1
:104A4E0049E2124A17D083D08222C082C083E9FA8B
:104A5E007800C286C28574046A9028677007E05495
:104A6E00FC44028003E054FCF0A3E4F0E5A3A2E0D2
:104A7E00400908E8C3943340F3800FD2807800A237
:104A8E0080400B08E8C3941540F579008008900328
:104A9E00337404F07901D083D08222C082C083E9BE
:104AAE00FA7800C286C28590286774C0F0A3E4F03D
:104ABE00E5A3A2E0400908E8C3943340F38025D271
:104ACE00807800A280400908E8C3941540F5801450
:104ADE0074FF6A7013D2877800A287400B08E8C370
:104AEE00941540F57900801E90285FE4F0A37403BE
:104AFE00F0A37420F0A374C4F09028667480F09034
:104B0E0003337401F0F9D083D0822274F1120B5466
:104B1E0074FC120AE69028637497F0791E121BC17A
:104B2E007ACE7B10123CA485318285328312099A8B
:104B3E007403120B32E0C394814023853182853297
:104B4E0083782112095D782112081E9011DB7821DD
:104B5E0012088C853182853283782112097F853146
:104B6E0082853283782112095D7410782112082E05
:104B7E009011E3782512096C782179251206B690EA
:104B8E001352782112088C901356782512096C78DE
:104B9E00217925120736900337782112097F901359
:104BAE005A782112096C900337782112066490030B
:104BBE0035500D745AF0A3F0900252E04404800A6E
:104BCE00E4F0A3F0900252E054FBF090286374815D
:104BDE00F07404120AFC7F08020BBAC082C08390E4
:104BEE00024A7402F0F912774B7900122082D083B8
:104BFE00D08222C082C0839028A8E0C2E1F0902823
:104C0E00AAE0C2E1F09028ACE0D2E4F0A3E0C2E466
:104C1E00F01247509028C9E4F0A3F09028CDF0A3ED
:104C2E00F09028B0E04433F0A3E054CCF09028ADDF
:104C3E00E0C2E1F09028ACE0D2E1F09028A8E0D2FA
:104C4E00E1F0A3E0C2E1F0A3E0C2E1F09028A8E019
:104C5E00D2E2F0A3E0C2E2F09028A8E0D2E3F0A303
:104C6E00E0C2E3F043A40153A5FE9028ACE0D2E4E9
:104C7E00F0A3E0C2E4F09028ACE0C2E3F0A3E0C2FF
:104C8E00E3F09028C77404F0D083D0822275A80078
:104C9E0075E80075910022C082C083902820E4F050
:104CAE00902828F0902830F0902A05F0D083D082FA
:104CBE002274F5120B54902864E4F075217D752250
:104CCE00287821120BFE9011DF782112096CAA218F
:104CDE00AB22AC23AD24123DF07402120AFC7521F6
:104CEE00787522287821120BFE9011DF7821120997
:104CFE006CAA21AB22AC23AD24123DF07402120A31
:104D0E00FC7800800108E8C3941440F9D2847F0433
:104D1E00020BBAC082C0837833760043A60253A436
:104D2E00FD43A60453A5FB53A4FBE5A1A2E040213D
:104D3E00C280A28040FCE5A1A2E04015780080016F
:104D4E0008E8C3940340F9902867E4F0E070FDD2C0
:104D5E00817900D083D08222C082C083C286C28570
:104D6E00E5A1A2E0402CE5A1A2E04026C280A280EF
:104D7E0040FCE5A1A2E0401A7800800108E8C39447
:104D8E000340F9902867E4F0E070FDD281790512B6
:104D9E0049C97900D083D08222C082C08374FF12A9
:104DAE000AE6E5DA853182853283F079051249C942
:104DBE00E59A900371F0E59BA3F0E59CA3F0E59EC8
:104DCE00900377F0E59D900374F0E59FA3F0E593D3
:104DDE00A3F07401120AFCD083D08222C082C08359
:104DEE0075909675975779051249C990036DE0F540
:104DFE009390036CE0F59F90036BE0F59D90036A32
:104E0E00E0F59C900369E0F59B900368E0F59A90BD
:104E1E00036EE0F59E79051249C975909675975601
:104E2E0079051249C9D083D0822274F1120B54E94C
:104E3E00FE75909675975779021249C9759400754B
:104E4E0095008E25E4F526F527F52890135E78213A
:104E5E0012096C782579211206B690121278251255
:104E6E00088C8525218526228527238528247410E4
:104E7E00782112082EE521F5DBE526F5DCE525F592
:104E8E00DD79021249C975909675975679077CF2AD
:104E9E007D137A687B03121C4D124DEA7F08020BBC
:104EAE00BA74F1120B5474F8120AE67521087522C1
:104EBE00007821120BFE126A07EAFCEBFD74021257
:104ECE000B441267C07402120AFC7404120B32787F
:104EDE002512095D85318285328378251208E2908C
:104EEE000E73E0FA752100752300752400A2E050C0
:104EFE000B853182853283782112095DEAA2E15059
:104F0E000B85318285328378211208CAEAA2E250DB
:104F1E000778217925120866EAA2E35007782179ED
:104F2E00251208B6AA21AB22AC23AD247408120AAE
:104F3E00FC7F08020BBA74F5120B54900CBB78214F
:104F4E0012095D90081CE0F8A3E0C8241CF582E469
:104F5E0038F58378211208CA9009FC782112097F4E
:104F6E009009FC782112095D9011DF782112062A32
:104F7E00900A005010782112097FA3E4F0A3F0A349
:104F8E00F0A3F08013E4F0A3F0A3F0A3F0782112C5
:104F9E00080DA3782112097F7F04020BBA74F11257
:104FAE000B54900DDB782112095D900C94E0640196
:104FBE0070030250FCE52254406004D2F08002C21D
:104FCE00F0A2F0E433F521900A00782512095D90E5
:104FDE000CAB78251206644036A378251206645071
:104FEE00057521018029E5254526452745286005BB
:104FFE00752102801A900DE3782112095D900A0442
:10500E0078211206645005752103800375210490E2
:10501E00099DE0543FFAA3E054FEFB75220074068E
:10502E007821120AD3A821E5225401F9EA48FAEBB5
:10503E0049FB90099DEAF0A3EBF09009EEE0FCA38A
:10504E00E054EFFD9009EEECF0A3EDF0900DDB785F
:10505E002112095D8521258522269012267821129E
:10506E000909E5214522452345246010ECF8ED445D
:10507E0010F99009EEE8F0A3E9F0803C8A218B222A
:10508E0074067821120AC4E5215407FAC394045019
:10509E002F852622E52254207026E525540460181B
:1050AE00EAC39403501A9009FC782112095D900D01
:1050BE00EB7821120615500890099CE044028006F8
:1050CE0090099CE054FDF09009EAE0F8A3E0F99015
:1050DE000A041209A6EC4D4E4F6005E944408003C8
:1050EE00E954BFF99009EAE8F0A3E902517EE522FE
:1050FE00544090099D6014E0543FF8A3E054FEF92B
:10510E00E8444090099DF0A3E98008E0543FF0A3E5
:10511E00E054FEF09009EEE0FAA3E054EFFB9009A4
:10512E00EEEAF0A3EBF0900DDB782512095D8525F4
:10513E002185262285272385282490122678211260
:10514E000909E5214522452345246010EAF8EB4480
:10515E0010F99009EEE8F0A3E9F0800EE526542050
:10516E00600890099CE054FD800690099CE0440282
:10517E00F09009EEE0FAA3E0FB90099CE054026087
:10518E002DEA54BFF8EBF99009EEE8F0A3E9F090A0
:10519E000C94E06401600E900DDB782112095DE540
:1051AE0021540270177ABF7B0D128ABA800EEA4420
:1051BE0040F8EBF99009EEE8F0A3E9F090099DE0D4
:1051CE00F521A3E0F52274067821120AC4E52154D4
:1051DE0007FA9009EEE0F8A3E0F9EA6005E84480EA
:1051EE008003E8547F9009EEF0A3E9F0EAC394033C
:1051FE0050057986128C457F08020BBA74F5120B96
:10520E0054900E0DE0F8A3E0F9E849602B900DF7ED
:10521E001209B2E8494A4B601F900B2412098E12F4
:10522E0092D58A218B228C238D24900DF778211212
:10523E00066450047900800279017F04020BBA746F
:10524E00F5120B548A828B83782112095DE5214574
:10525E00224523452460269013A2C082C083900964
:10526E001C78211208CA901212782112088CD08351
:10527E00D082782112069350047900800279017F42
:10528E0004020BBA74F1120B54900C96E064666033
:10529E005D12520AE97057900DBF1209B2E8494AE1
:1052AE004B704190091CC082C083900E0DE0F52119
:1052BE00A3E0F522E4F523F52490125B782512097C
:1052CE006C782179251206B6D083D0827821120807
:1052DE00797821120BFA7ABF7B0D128A667404124A
:1052EE000AFC80507ABF7B0D12524DE97046900D2C
:1052FE0095E0F521603790091CC082C083E4F52249
:10530E00F523F5249013A6782512096C78217925BA
:10531E001206B6D083D08278211208797821120B2A
:10532E00FA7AC77B0D128A667404120AFC7ABF7B66
:10533E000D128ABA7F08020BBAC082C083124FAB1D
:10534E0090099CE0540260077982128C458003120A
:10535E005292D083D0822274F1120B5474A0120A8E
:10536E00E67408120B32E4F0A3F0A3F0A3F085313B
:10537E0082853283F0A3F0A3F0A3F0752103F5220A
:10538E007821120BFE90081CE0F8A3E0F5838882CA
:10539E00E075F003A4F8A9F074D428FC746F39FDFD
:1053AE00740A120B32AA82AB831279567402120A55
:1053BE00FC1209B27404120B321209BE75213C782C
:1053CE0021120BFE7C947D707426120B44127956BA
:1053DE007402120AFC79187424120B441268D2E972
:1053EE0070030254ED7900124EAF8A218B228C236A
:1053FE008D24900DDB782512095DE525548070050E
:10540E00900D378003900D3B78211208CA9011DF62
:10541E00782112062A400C75210075220075230092
:10542E007524007525187526007825120BFE742636
:10543E00120B4C740E120B441267C07402120AFC4B
:10544E007A0080010A8A82AE82EAC3940650418EA7
:10545E002575260074027825120AD3740C120B32AD
:10546E00E5822525FCE5833526FD8C828D83782506
:10547E0012095D782579211206544014EA60C5ECB4
:10548E0024FCF582ED34FFF583782512066440B4D2
:10549E00EAF97A9E7B0D128A9675210375220078A1
:1054AE0021120BFEEE75F003A4FEAFF074AC2EFCD1
:1054BE0074703FFD7402120B441279567402120A74
:1054CE00FC853182853283782112095D7408120BB6
:1054DE003278211208A390099FE04440F08010908A
:1054EE00099FE054BFF079007A9E7B0D128A96795F
:1054FE000CAC31AD327A9F7B0D1269397460120A91
:10550E00FC7F08020BBA74F1120B5474FC120AE6FB
:10551E0090099DE0F521A3E0F52274067821120A88
:10552E00C4E5215407FE124FAB90099DE0F521A36F
:10553E00E0F52274067821120AC4E5215407F8C357
:10554E00940450030255F9900DDB1209B285318295
:10555E008532831209BE8531828532837821120904
:10556E005DE5225410703190081CE0F8A3E0C824C9
:10557E0010F582E438F583782112095D9011CF7809
:10558E002512096C78217925120736E52545264521
:10559E00274528600302563485318285328378216F
:1055AE0012095D9013AA7821120946AA21AB22ACEA
:1055BE0023AD24128CA5900DDB782112095D90127B
:1055CE00267821120909E5214522452345247056E6
:1055DE00900BBC74FFF0A3F0A3F0A3F0128AFF129D
:1055EE00529290099CE054FDF0803BEE686037E8E3
:1055FE00C394024031900DDB782112095D9013AEF9
:10560E007821120909E5214522452345247012907F
:10561E000BBC74FFF0A3F0A3F0A3F0128AFF12529A
:10562E00927901128C459009EBE054406018900D70
:10563E00DB782112095DE5215440700A7906128C3F
:10564E00457909128D2E7404120AFC7F08020BBADA
:10565E0074F5120B547A627B131286F27ADC7B039A
:10566E00127FC679027ADC7B03126DE59003E8782F
:10567E002112095D900D3778211208CA90041C780A
:10568E002112097F79037A1C7B04126DE59003E8E1
:10569E00120C0F7A377B0D128A667404120AFC7F85
:1056AE0004020BBA74F7120B5474F7120AE6853122
:1056BE00828532837401F07404120B32E4F0FE80A2
:1056CE00010EEEC394045056752103752200782105
:1056DE00120BFEEE75F003A4F8A9F074C128FC7449
:1056EE007039FD7403120B32AA82AB831279567491
:1056FE0002120AFC7C017D00AA31AB32122E01EAA5
:10570E00F8EBF9ECFAEDFB7405120B321209BE74CC
:10571E0005120B4412883BE970A7790080027901CB
:10572E007409120AFC7F02020BBA74F5120B547440
:10573E00F4120AE6AA31AB32127FC67900124EAFCE
:10574E007404120B3212099A1256B2E9900DDB78DC
:10575E0021605612095DE5215480700302582F74A2
:10576E0004120B321209B27408120B321209BE90D7
:10577E000D3B782112095D7404120B327821120848
:10578E00E27904AA31AB32126DE57987128C45129B
:10579E00565E853182853283120C0F7A437B0D1251
:1057AE008A667404120AFC806412095DE521548035
:1057BE00702890099CE04480F07907128C451256AF
:1057CE005E853182853283120C0F7A437B0D128AED
:1057DE00667404120AFC7404803590099FE0540428
:1057EE00603F7404120B321209B27408120B32129B
:1057FE0009BE900D3B782112095D7404120B3278AC
:10580E00211208E27904AA31AB32126DE574081246
:10581E000B32120C0F7A3B7B0D128A667404120A3D
:10582E00FC90099FE054FBF0740C120AFC7F0402FA
:10583E000BBAC082C083E9F8900E77E0F9C39405E5
:10584E0040047A048002E9FAE86005EAC39850043D
:10585E007900800474FF28F9D083D0822274F51267
:10586E000B549009EEE0FAA3E0FB900DDB782112C9
:10587E00095D9013B27821120909E52145224523CD
:10588E0045246005EA44208003EA54DFF8EBF990E2
:10589E0009EEE8F0A3E9F09009EEE0FAA3E0FB9040
:1058AE000DDB782112095D9012227821120909E58B
:1058BE00214522452345246005EA44018003EA542C
:1058CE00FEF8EBF99009EEE8F0A3E9F07F04020B85
:1058DE00BA74F3120B547442120AE67525C7752674
:1058EE000C7AD77B09127FC67E000259C175210C36
:1058FE007522007821120BFE7CC17D707418120B7C
:10590E00441279567402120AFC7821120BFE7CFDA9
:10591E007D70740C120B441279567402120AFC78C4
:10592E0021120BFE740C120B4C7418120B441268DD
:10593E00207402120AFCEA4B4C4D600A90099FE05B
:10594E004404F01257387821120BFE7CC17D70741E
:10595E000C120B441279D57402120AFC75213C7894
:10596E0021120BFE7CD07D707484120B441279567A
:10597E007402120AFC7821120BFE7C947D707484E2
:10598E00120B441279D57402120AFC74122EF912FB
:10599E008C4574036E7003125738AA25AB26128AF3
:1059AE00BA74052EF9128B1AE5252404F52550023A
:1059BE0005260EEEC394044003025A6C852582859B
:1059CE002683782112095DE5214522452345246071
:1059DE00D790091C782112066440CDEEC394025074
:1059EE004074122EF9900DDB75210075220075237F
:1059FE0004752400EE782112084778211208F6E586
:105A0E00214522452345246004748049F9128C45B2
:105A1E0090099BE0540260829009AE7408F002591E
:105A2E00A874026E60030258FB752160752200781F
:105A3E0021120BFE7C347D707424120B44127956A5
:105A4E007402120AFC7821120BFE7CD47D6F742432
:105A5E00120B441279D57402120AFC0259A812587C
:105A6E006B900E77E0701179007A947B0D128A9606
:105A7E007901125840025E7A7C0B7D007A007B0021
:105A8E00122E01853182853283EAF0A3EBF0900D60
:105A9E0093E0FF853182853283E0F8A3E0F9900927
:105AAE00CDE0687003A3E069700B900999E054088B
:105ABE007003025B9B853182853283E0F8A3E0F9A7
:105ACE009009CDE8F0A3E9F09009B2E4F0FE800170
:105ADE000E900E78E0F8EEC398506475210375228F
:105AEE00007821120BFEEE75F003A4F8A9F0740CE9
:105AFE0028FC747139FD7409120B44127956740224
:105B0E00120AFC7521027821120BFE7402120B4C44
:105B1E007409120B441268207402120AFCEA4B4CF0
:105B2E004D70AD7409120B32E0FA900E75E0C39A07
:105B3E0095E0400BEA60089009B27401F0EAFF901C
:105B4E0009B2E070489011DF120C407C0F7D00749A
:105B5E0006120B441230CE7404120AFC7521017524
:105B6E0022007405120B32E07821120AD3900E7BBC
:105B7E00E055217018A3E0FA900E75E0C39A95E0F7
:105B8E00400BEA60089009B27401F0EAFF9011DF51
:105B9E00120C407C0B7D007406120B441230CE7436
:105BAE0004120AFC900DDB782112095D9013B27875
:105BBE0021120909E52145224523452475211C752D
:105BCE00220078216007120BFE7CF88005120BFE76
:105BDE007CDC7D6D7A2C7B061279567402120AFCDF
:105BEE009009B2E06003025CE47403120B32E0F938
:105BFE0012881DE9F52174057821120AD374041256
:105C0E000B32E0F912881DE52129F8E43522F985D9
:105C1E003182853283E8F0A3E9F07E00801285316F
:105C2E0082853283C3E09AA3E09B4003025CC90ED7
:105C3E008E82AA82EA2AF8E433F9742828F87406C8
:105C4E0039F9E8FCE9FDEC2404F8E43DF9882389F0
:105C5E0024900E74E024FFF8E434FFF9C3EA98E4CC
:105C6E0099A2D265D0335064852382852483E0F5D2
:105C7E0021A3E0F52274047821120AC4AA21AB22D2
:105C8E008C828D83A3A3A3A3A3A3E0F521A3E0F5A8
:105C9E002274047821120AC4A821A922C3EA98EB1F
:105CAE00995003025C2CC3E89AE99B50828531829D
:105CBE00853283C3E09AA3E09B50118531828532F1
:105CCE0083C3E098A3E0994003025C3D852382855F
:105CDE002483E0540FFF900E75E0C39F4003EF70D6
:105CEE00027F01EFF97A937B0D128A96EF75F01C05
:105CFE00A4FAABF0900DDB782112095D9012227898
:105D0E0021120909E52145224523452475211C75DB
:105D1E00220078216007120BFE74F48005120BFE30
:105D2E0074142AF8746E3BF9E824E4FCE934FFFDA0
:105D3E007A2C7B061279567402120AFC7405120B29
:105D4E0032E0F912881DE975F03CA4FEAFF074063E
:105D5E00120B32E0F912881DEE29F8E43FF9853175
:105D6E0082853283E8F0A3E9F07FFF7E00802485F0
:105D7E003182853283C3E09AA3E09B500E85318237
:105D8E00853283C3E098A3E099500774FF6F7002C9
:105D9E00EEFF0E8E82A882900E76E024FFFAE43497
:105DAE00FFFBC3E89AE49BA2D265D0335071E8287A
:105DBE00F8E433F9742828F8740639F9E8FCE9FD9B
:105DCE008C828D83A3A3A3A3E0F521A3E0F5227417
:105DDE00057821120AC4AA21AB228C828D83A3A33B
:105DEE00A3A3A3A3E0FCA3E0FD8C218D2274057870
:105DFE0021120AC4A821A922EC541F6022C3EA98DA
:105E0E00EB995011853182853283C3E09AA3E09BD2
:105E1E004080025D8BC3E89AE99B5003025D7D745E
:105E2E00012EF97A947B0D128A9674FF6F7002EE32
:105E3E00FFEF25E0F8E433F9742828F5827406396B
:105E4E00F583A3A3A3A3E0541FF9125840E9FEEF74
:105E5E00C454F04EFF9009AFE06F6010EFF0900960
:105E6E009BE0540260069009AE7408F074BE120AEC
:105E7E00FC7F06020BBAC082C0831258DF90081C4A
:105E8E00E0F8A3E0F5838882E0696003126B1B9053
:105E9E000C94E064016003125365900999E054F785
:105EAE00F0D083D08222C082C0839011DB120C40CE
:105EBE00128A667404120AFCD083D0822274F51200
:105ECE000B5474FE120AE679067C827D027A547BAC
:105EDE0002121C7E79027CF07D027A5A7B02121C21
:105EEE007E79027C7E7D027A5C7B02121C7E790AB0
:105EFE007A547B02121C05853182853283EAF0A327
:105F0E00EBF07902AC31AD327A5E7B02121C7E75FB
:105F1E0021547522027821120BFE790C9011F5781E
:105F2E002112096CAA21AB22AC23AD24121D1674CA
:105F3E0002120AFC7402120AFC7F04020BBA74F1FC
:105F4E00120B54902862E0543FF0902867E054C33F
:105F5E004428F0900341782112095D9013B67825FC
:105F6E0012096C782179251207369013BA7825120A
:105F7E00096C782179251206B69003417821120911
:105F8E007F7521FC7522107821120BFE90034112B1
:105F9E00098E123D297402120AFC7521EF78211226
:105FAE000BFE9012B7782112096CAA21AB22AC23FA
:105FBE00AD24123DF07402120AFC7521867522285A
:105FCE007821120BFE9011DF782112096CAA21ABF9
:105FDE0022AC23AD24123DF07402120AFC75217D11
:105FEE007522287821120BFE9013BE782112096CAF
:105FFE00AA21AB22AC23AD24123DF07402120AFC8E
:10600E0075217F7522287821120BFE9012D37821EC
:10601E0012096CAA21AB22AC23AD24123DF07402FE
:10602E00120AFC75217A7522287821120BFE901126
:10603E00DF782112096CAA21AB22AC23AD24123DCC
:10604E00F07402120AFC9002EDE0902858F07901EB
:10605E00124A589002F4E090286470137401F0759F
:10606E0021787522287821120BFE9013C2801174AC
:10607E0002F07521787522287821120BFE9013C636
:10608E00782112096CAA21AB22AC23AD24123DF06B
:10609E007402120AFC75217E7522287821120BFEDD
:1060AE009012C7782112096CAA21AB22AC23AD2421
