:020000040000FA
:0600000002060002327D41
:03000B0002329A24
:030013000232A214
:03001B000232BFEF
:03002B000232E5B9
:03003B0002333558
:030043000233493C
:03004B000233FC81
:030053000234C2B2
:03005B0002354229
:03006300023588DB
:1001000000002110422063308440A550C660E77093
:10011000088129914AA16BB18CC1ADD1CEE1EFF13B
:100120003112100273325222B5529442F772D662E3
:10013000399318837BB35AA3BDD39CC3FFF3DEE38B
:100140006224433420040114E664C774A444855433
:100150006AA54BB528850995EEE5CFF5ACC58DD5DB
:100160005336722611163006D776F6669556B44683
:100170005BB77AA719973887DFF7FEE79DD7BCC72B
:10018000C448E5588668A7784008611802282338D3
:10019000CCC9EDD98EE9AFF9488969990AA92BB97B
:1001A000F55AD44AB77A966A711A500A333A122A23
:1001B000FDDBDCCBBFFB9EEB799B588B3BBB1AABCB
:1001C000A66C877CE44CC55C222C033C600C411C73
:1001D000AEED8FFDECCDCDDD2AAD0BBD688D499D1B
:1001E000977EB66ED55EF44E133E322E511E700EC3
:1001F0009FFFBEEFDDDFFCCF1BBF3AAF599F788F6B
:100200008891A981CAB1EBA10CD12DC14EF16FE14A
:100210008010A100C230E320045025404670676082
:10022000B9839893FBA3DAB33DC31CD37FE35EF39A
:10023000B1029012F322D2323542145277625672D2
:10024000EAB5CBA5A89589856EF54FE52CD50DC5EA
:10025000E234C324A0148104667447642454054422
:10026000DBA7FAB79987B8975FE77EF71DC73CD73A
:10027000D326F2369106B016576676761546345672
:100280004CD96DC90EF92FE9C899E9898AB9ABA98A
:100290004458654806782768C018E1088238A328C2
:1002A0007DCB5CDB3FEB1EFBF98BD89BBBAB9ABBDA
:1002B000754A545A376A167AF10AD01AB32A923A12
:1002C0002EFD0FED6CDD4DCDAABD8BADE89DC98D2A
:1002D000267C076C645C454CA23C832CE01CC10C62
:1002E0001FEF3EFF5DCF7CDF9BAFBABFD98FF89F7A
:1002F000176E367E554E745E932EB23ED10EF01EB2
:1003000000010203040506070809AAAAAAAAAAAAC4
:100310000A0B0C0D0E0F10111213AAAAAAAAAAAA50
:100320001415161718191A1B1C1DAAAAAAAAAAAADC
:100330001E1F2021222324252627AAAAAAAAAAAA68
:1003400028292A2B2C2D2E2F3031AAAAAAAAAAAAF4
:1003500032333435363738393A3BAAAAAAAAAAAA80
:100360003C3D3E3F404142434445AAAAAAAAAAAA0C
:10037000464748494A4B4C4D4E4FAAAAAAAAAAAA98
:1003800050515253545556575859AAAAAAAAAAAA24
:0A0390005A5B5C5D5E5F60616263B2
:10039C0000010203040506070809101112131415B5
:1003AC001617181920212223242526272829303115
:1003BC003233343536373839404142434445464769
:1003CC0048495051525354555657585960616263BD
:1003DC00646566676869707172737475767778791D
:1003EC008081828384858687888990919293949565
:1003FC0096979899FFFFFFFFFFFFFFFFFFFFFFFF9F
:10040C00FFFFFFFFFFFFFFFFFFFFFFFFFFFFFFFFF0
:10041C00FFFFFFFFFFFFFFFFFFFFFFFFFFFFFFFFE0
:10042C00FFFFFFFFFFFFFFFFFFFFFFFFFFFFFFFFD0
:10043C00FFFFFFFFFFFFFFFFFFFFFFFFFFFFFFFFC0
:10044C00FFFFFFFFFFFFFFFFFFFFFFFFFFFFFFFFB0
:10045C00FFFFFFFFFFFFFFFFFFFFFFFFFFFFFFFFA0
:10046C00FFFFFFFFFFFFFFFFFFFFFFFFFFFFFFFF90
:10047C00FFFFFFFFFFFFFFFFFFFFFFFFFFFFFFFF80
:10048C00FFFFFFFFFFFFFFFFFFFFFFFFFFFFFFFF70
:10049C00FFFFFFFFFFFFFFFFFFFFFFFFFFFFFFFF60
:1004AC00FFFFFFFFFFFFFFFFFFFFFFFFFFFFFFFF50
:1004BC00FFFFFFFFFFFFFFFFFFFFFFFFFFFFFFFF40
:1004CC00FFFFFFFFFFFFFFFFFFFFFFFFFFFFFFFF30
:1004DC00FFFFFFFFFFFFFFFFFFFFFFFFFFFFFFFF20
:1004EC00FFFFFFFFFFFFFFFFFFFFFFFFFFFFFFFF10
:1004FC00FFFFFFFFFFFFFFFFFFFFFFFFFFFFFFFF00
:10050C00FFFFFFFFFFFFFFFFFFFFFFFFFFFFFFFFEF
:10051C00FFFFFFFFFFFFFFFFFFFFFFFFFFFFFFFFDF
:10052C00FFFFFFFFFFFFFFFFFFFFFFFFFFFFFFFFCF
:10053C00FFFFFFFFFFFFFFFFFFFFFFFFFFFFFFFFBF
:10054C00FFFFFFFFFFFFFFFFFFFFFFFFFFFFFFFFAF
:10055C00FFFFFFFFFFFFFFFFFFFFFFFFFFFFFFFF9F
:10056C00FFFFFFFFFFFFFFFFFFFFFFFFFFFFFFFF8F
:10057C00FFFFFFFFFFFFFFFFFFFFFFFFFFFFFFFF7F
:10058C00FFFFFFFFFFFFFFFFFFFFFFFFFFFFFFFF6F
:10059C00FFFFFFFFFFFFFFFFFFFFFFFFFFFFFFFF5F
:1005AC00FFFFFFFFFFFFFFFFFFFFFFFFFFFFFFFF4F
:1005BC00FFFFFFFFFFFFFFFFFFFFFFFFFFFFFFFF3F
:1005CC00FFFFFFFFFFFFFFFFFFFFFFFFFFFFFFFF2F
:1005DC00FFFFFFFFFFFFFFFFFFFFFFFFFFFFFFFF1F
:1005EC00FFFFFFFFFFFFFFFFFFFFFFFFFFFFFFFF0F
:1005FC00FFFFFFFF75D00075818F753131753203A8
:10060C0075A001023A34F5F0E5A0C394015403C07F
:10061C00E0E5A0C3940154FC45F0C32401F5A0E42B
:10062C0073D0E0F5F0E5A0C3940154FC45F0C3246D
:10063C0001F5A022D083D082E5A0C394015403C05D
:10064C00E0E493C0E0740193C0E07402935403F5AA
:10065C00F0E5A0C3940154FC45F02401F5A022E47C
:10066C009003317848790D8002F0A3D8FCD9FA7A3E
:10067C00787B0F9006A1780379018015E493A3ADE4
:10068C0082AE838A828B83F0A3AA82AB838D828E07
:10069C0083D8E9D9E7810D1206409CDF0012064091
:1006AC00CADF0012064091E000120640BBE10012C6
:1006BC0006405BE20012064078E20012064099E226
:1006CC0000120640E1E2001206401BE30012064055
:1006DC0076F20012064087F2001206400CF300126C
:1006EC00064084F000120640BDF000120640D8F01F
:1006FC0000120640DCF1001206403BF200120640EC
:10070C009796021206405B9702120640E39702127C
:10071C0006401C9802120640569802120640B698E3
:10072C0002120640439902120640679902120640D3
:10073C00A49902120640579A02120640AB9E02126E
:10074C000640929F02120640FA9F021206407DA0BC
:10075C00021206409DA002120640BAA002120640E8
:10076C0069A102120640A2A1021206400FF3001268
:10077C000640606F00120640D76F00120640F26F01
:10078C00001206402971001206403F71001206400B
:10079C000C74001206404D77001206405978001276
:1007AC000640697A00120640517B00120640BAEEF0
:1007BC0000120640CBEE0012064036EF0012064047
:1007CC009E9100120640189200120640AB92001245
:1007DC000640359300120640649300120640C893FD
:1007EC00001206402B9400120640B79400120640EB
:1007FC00EF94001206401E95001206403095001230
:10080C000640A9980012064061990012064087998B
:10081C0000120640C29900120640F19900120640DF
:10082C00FF9900120640D59F00120640A9A00012A5
:10083C000640E9A10012064057A200120640C2A2CF
:10084C0000120640ECA20012064093F30012064080
:10085C002ED2001206407CD300120640ACD30012FC
:10086C000640DAD30012064006D40012064009D422
:10087C00001206403ED400120640A7D400120640D7
:10088C00A4D600120640C9D6001206403CE3001262
:10089C00064099E30012064030E4001206404CE595
:1008AC00001206405CE5001206407EE50012064090
:1008BC0081E50012064084E50012064087E500122F
:1008CC0006408AE500120640FCE500120640B4E939
:1008DC0000120640B7E9001206400AEA0012064070
:1008EC0031EA001206404AEA0012064063EA00129E
:1008FC00064075EA001206401AEB00120640B9CC0D
:10090C00001206402ACD0012064040CD00120640CF
:10091C006CCD001206407ECD001206408CCD00122C
:10092C000640A5CD00120640DACD00120640EECDF1
:10093C000012064034CE00120640A5CE001206402E
:10094C00F8CE0012064072CF0012064075CF00128E
:10095C00064006D0001206401FD0001206403BD0C5
:10096C00001206409DD000120640DDD00012064059
:10097C0032D10012064077D100120640C7D10012C6
:10098C0006400080021206409580021206409880B4
:10099C00021206409B8002120640E08002120640C2
:1009AC00E38002120640F180021206406B870212AD
:1009BC0006406E8702120640C28702120640488823
:1009CC00021206405089021206407D89021206402E
:1009DC00F189021206409D8F02120640C48F02124A
:1009EC0006405F9102120640509202120640699234
:1009FC000212064092960212064018C000120640DF
:100A0C00D5C5001206409FB700120640B8B70012B9
:100A1C000640FAB7001206403DB8001206407FB8F7
:100A2C0000120640BDB80012064025B9001206405F
:100A3C008EB900120640CCB90012064000BA001262
:100A4C0006403CBA00120640F1BA001206400CBB3C
:100A5C00001206404ABB001206408FBB0012064033
:100A6C00EABB0012064031BC0012064042BC001228
:100A7C000640BABC0012064000BD0012064089BDFB
:100A8C000012064061BE001206409EBE00120640D7
:100A9C00E5BE0012064037BF001206408FBF0012A1
:100AAC00064015C000120640213C00120640243CB2
:100ABC0000120640883C00120640173D001206400A
:100ACC00593D00120640773E00120640AB3E001224
:100ADC0006400D3F001206405D3F00120640953F58
:100AEC0000120640B93F001206407A43001206403D
:100AFC00E84500120640EB45001206402246001263
:100B0C0006402C4600120640AA4600120640F1464A
:100B1C0000120640FC4A00120640424B00120640EE
:100B2C00754C00120640934C00120640A54C001266
:100B3C000640E74C00120640344D00120640604D52
:100B4C0000120640A24D00120640BA4D001206409B
:100B5C00384E00120640654E00120640684E0012D8
:100B6C0006407E4F00120640814F00120640BC4FDB
:100B7C0000120640CE4F00120640E04F0012064015
:100B8C00F24F001206400450001206404851001269
:100B9C0006404B51001206405D5100120640605158
:100BAC0000120640ED510012064040520012064061
:100BBC00525200120640B852001206400D53001259
:100BCC000640C15300120640E961001206404E6314
:100BDC000012064051640012064061640012064087
:100BEC00BE6500120640F866001206408A670012C5
:100BFC000640FB6800120640306900120640356959
:100C0C00001206403C6B001206406E6D001206404E
:100C1C00316E00120640B3A10212064071A60212F8
:100C2C00064013AB02120640C1AB02120640B8C616
:100C3C0000120640E5C60012064028C70012064006
:100C4C0058C7001206408EC700120640E6C70012B5
:100C5C0006402DC80012064091C8001206409FC9DC
:100C6C00001206406CCA0012064072CC00120640FC
:100C7C0034E80012064071E800120640A9E80012A0
:100C8C00064012E90012064057E9001206407EE9C0
:100C9C000012064011E60012064032E60012064031
:100CAC0050E600120640B0E600120640D3E60012F1
:100CBC0006403BE70012064002E800120640A6ED93
:100CCC00001206402BEE0012064056EE00120640B3
:100CDC0092EC0012064014ED0012064017ED0012C3
:100CEC00064042ED00120640B37B00120640CF7B5B
:100CFC0000120640F87B00120640977C001206405A
:100D0C003F7D00120640807D00120640897E001255
:100D1C00064085AE00120640C7AE00120640DDAE9E
:100D2C0000120640EBAE00120640A7B000120640BF
:100D3C002EB10012064069B2001206402EB300120A
:100D4C0006408BB3001206409FB30012064006B457
:100D5C000012064080B40012064094B40012064003
:100D6C00DEB40012064002B500120640FCB50012BB
:100D7C0006406BB600120640D0B60012064036B7DD
:100D8C000012064072B700120640F0DB001206405B
:100D9C00ADDC0012064042DE00120640C7DE001237
:100DAC0006405FDF0012064033F10012064087F167
:100DBC0000120640A3F10012064016A300120640D2
:100DCC005FA300120640A2A300120640D4A4001296
:100DDC000640EAA40012064026A5001206404BA5C8
:100DEC000012064075A500120640B8A50012064078
:100DFC005BA60012064039A70012064091A700120C
:100E0C00064070A80012064030A9001206407BA9CB
:100E1C0000120640E0A90012064084AD0012064004
:100E2C00F4AD001206400EAE0012064028AE0012C1
:100E3C000640927F00120640A27F001206400080FE
:100E4C00001206406980001206409E800012064087
:100E5C002181001206406181001206407F81001240
:100E6C000640B68100120640ED81001206401D823C
:100E7C0000120640088600120640878800120640C1
:100E8C00CC8800120640DC88001206400089001253
:100E9C000640118900120640228900120640518931
:100EAC000012064063890012064074890012064045
:100EBC004A8A00120640848A00120640BE8A00123A
:100ECC000640F78A00120640358B00120640528B02
:100EDC00001206406F8B001206408C8B00120640ED
:100EEC00AE8B00120640BE8B00120640D08B001257
:100EFC0006400C8C00120640558C001206402B8DBF
:100F0C0000120640DE8D00120640F28D00120640E3
:100F1C001B8E00120640418E001206405A8E0012A3
:100F2C000640738E00120640A18E00120640048FFC
:100F3C0000120640368F0012064025900012064023
:100F4C00B19000120640B49000120640B790001207
:100F5C00064017910012064052910012064055911E
:100F6C0000120640589100120640CAEF00120640CB
:100F7C001DF00012064031F00012064041F0001244
:100F8C000640BEB0021206405FB4021206402CEBC3
:100F9C00001206405EEB0012064070EB0012064099
:100FAC0089EB00120640FBEB0012064072EC0012BB
:100FBC00064088EC001206408DEC00120640C4ABD3
:100FCC0002120640FBAB021206409EAC0212064017
:100FDC00AAAD02120640F9AE0212064022AF02126E
:100FEC000640F4AF0212064005B00212064015B0DE
:100FFC00021206403FD70012064089D70012064065
:10100C00FED800120640E8DA0012064026DB001279
:10101C0006409ADB0012064019F400120640DAF37F
:01102C0000C3
:0D11C0004431343346393832315330330076
:1011CE0001E76670100809E766700A0809E766709D
:1011DE00040809E76622E066701008A3E066700A4C
:1011EE0008A3E066700408A3E06622E49366701319
:1011FE000874019366700C08740293667005087487
:10120E0003936622C3E7960809E7960809E796084E
:10121E0009E796A2D265D03322C3E09608A3E096E2
:10122E0008A3E09608A3E096A2D265D03322C0218F
:10123E00C3E49396F5210874019396422108740233
:10124E009396422108740393964221A2D265D0331D
:10125E00E5217001D3D02122C3E7960809E796084D
:10126E0009E7960809E79622C3E09608A3E09608D8
:10127E00A3E09608A3E09622C021C3E096F52108CC
:10128E00A3E096422108A3E096422108A3E09645EA
:10129E00217001D3D02122C021C3E49396F52108F9
:1012AE0074019396422108740293964221087403A6
:1012BE00939645217001D3D02122080808EAC0E098
:1012CE00EBC0E086F0E7A4FA180986F0E7A42AFA44
:1012DE00180986F0E7A42AFA180986F0E7A42AFA74
:1012EE001986F0E7A4FBE5F02AFA190886F0E7A4C0
:1012FE002BFBE5F03AFA190886F0E7A42BFBE5F094
:10130E003AFA18180986F0E7A4C5F02BFBE43AFA6E
:10131E001908E7C5F0C6A426F6E5F03BFBE43AFA59
:10132E001886F0E7A4F6E5F00826F6E43B08F6E4A6
:10133E003A08F6D0E0FBD0E0FA22E4CFC0E0E4CEEB
:10134E00C0E0E4CDC0E0E4CCC0E075F020E626F6C7
:10135E0008E633F608E633F608E633F6181818EC06
:10136E0033FCED33FDEE33FEEF33FFC3EC9709EDA7
:10137E009709EE9709EF97191919400FFFEC97FC93
:10138E0009ED97FD09EE97FE191906D5F0BFECF79A
:10139E0009EDF709EEF709EFF7191919D0E0FCD0AE
:1013AE00E0FDD0E0FED0E0FF2212141F1818181234
:1013BE00134812140E1919192212140E191919089C
:1013CE000808E618181820E7E012134812141F1820
:1013DE00181822090909E719191920E7DC08080865
:1013EE00E618181820E70302134812141F181818CD
:1013FE0012134812141F18181812140E1919192244
:10140E00E4C397F709E497F709E497F709E497F728
:10141E0022E4C396F608E496F608E496F608E496F7
:10142E00F622C6F4C608C6F4C608C6F4C608C6F444
:10143E00C6226016080808C6C313C618C613C618F7
:10144E00C613C618C613C6D5E0EA227009080808E6
:10145E00226016181818C6C333C608C633C608C687
:10146E0033C608C633C6D5E0EA22E627F60809E6F3
:10147E0037F60809E637F60809E637F622E026F6CB
:10148E0008A3E036F608A3E036F608A3E036F62207
:10149E00E49326F60874019336F60874029336F632
:1014AE000874039336F622E026F008A3E036F0081F
:1014BE00A3E036F008A3E036F022C3E697F608095B
:1014CE00E697F60809E697F60809E697F622C3E0CE
:1014DE00C696F608A3E0C696F608A3E0C696F608EA
:1014EE00A3E0C696F622C3E096F008A3E096F008B5
:1014FE00A3E096F008A3E096F022E657F60809E678
:10150E0057F60809E657F60809E657F622E056F6AA
:10151E0008A3E056F608A3E056F608A3E056F62216
:10152E00E49356F60874019356F60874029356F631
:10153E000874039356F622E056F008A3E056F0081E
:10154E00A3E056F008A3E056F022E647F60809E6B7
:10155E0047F60809E647F60809E647F622E49346F9
:10156E00F60874019346F60874029346F60874035F
:10157E009346F622E046F008A3E046F008A3E046C4
:10158E00F008A3E046F022E0F608A3E0F608A3E098
:10159E00F608A3E0F622E493F608740193F60874B5
:1015AE000293F608740393F622E6F008A3E6F00819
:1015BE00A3E6F008A3E6F022E0FAA3E0FBA3E0FC2A
:1015CE00A3E0FD22EAF0A3EBF0A3ECF0A3EDF022F2
:1015DE00E0FCA3E0FDA3E0FEA3E0FF22ECF0A3ED10
:1015EE00F0A3EEF0A3EFF022E0F8A3E0F9A3E0FA07
:1015FE00A3E0FB22E8F0A3E9F0A3EAF0A3EBF022CC
:10160E00CAC0E0E6F0A308DAFAD0E0FA22CAC0E0D7
:10161E00E0A3C582CCC582C583CDC583F0A3C582A8
:10162E00CCC582C583CDC583DAE6D0E0CA22CAC056
:10163E00E0E493A3C582CCC582C583CDC583F0A358
:10164E00C582CCC582C583CDC583DAE5D0E0CA227A
:10165E00C58224FDC582C58334FFC58322C3E498A9
:10166E00F8E499F91216AC8026C3E49AFAE49BFBCF
:10167E00E920E7E91216ACE498F8E499F922C3E4FC
:10168E0098F8E499F91216ACE498F8E499F9C3E4E1
:10169E009AFAE49BFB22EB20E7CFE920E7E0B900C2
:1016AE0010BB0008E88AF084F8AAF022E4FBC8FA1E
:1016BE0022EB70227B10C833C8C933C9335007C31D
:1016CE009AC3DBF280069A50012ADBEAC833F4C8CB
:1016DE00C933F4C9FA2275F008E4C833C8C933C94E
:1016EE0033C99AC99B5004C92AC93BD5F0ECFBC833
:1016FE0033F4C8E4C9FA22600D08C6A2E713C6186F
:10170E00C613C6D5E0F322600C08C6C313C618C6AE
:10171E0013C6D5E0F422700422600D18C6C333C67A
:10172E0008C633C6D5E0F41822253110AF08F531BE
:10173E00400C15328008F53140021532D2AF22002E
:10174E00C0D0253110AF08F531500C05328008F5A8
:10175E003150020532D2AFD0D0222531F58210AFF2
:10176E0008F531400C15328008F53140021532D2A1
:10177E00AF85328322C5822531C582C583353210AD
:10178E00AF07F5328582318007F532858231D2AFCF
:10179E00C583222531F582E43532F583222531F8D1
:1017AE00E43532F9222531FAE43532FB222531FCBB
:1017BE00E43532FD22E4732531C582C0E0E53234D2
:1017CE00FFC583C0E0E531C3958224F810AF0885CC
:1017DE0083328582318008858332858231D2AFCEC5
:1017EE00F0A3E520F0A37821E608F0A3DEFAEFF0EF
:1017FE00A3E58124FAF8E608F0A3E608F0A3E608CC
:10180E00F0A30808E608F0A3E608F0A315811581F9
:10181E00D0E0FED0E0F8158115811581E8C0E0EE2C
:10182E00C0E0222531C582C0E0E53234FFC583C059
:10183E00E0E531C3958224F910AF088583328582A5
:10184E00318008858332858231D2AFCEF0A3E52078
:10185E00F0A37821E608F0A3DEFAEFF0A3E58124E9
:10186E00FBF8E608F0A3E608F0A30808E608F0A3E4
:10187E00E608F0A315811581D0E0FED0E0F81581C1
:10188E001581E8C0E0EEC0E022853283853182E02A
:10189E00A3FEE0A3F5207821E0A3F608DFFAE0A38B
:1018AE00FFE0A3C0E0E0A3C0E0E0A3C0E0E0A3C07F
:1018BE00E0E0A3C0E010AF08858231858332800856
:1018CE00858231858332D2AFD083D08202062D85B8
:1018DE003283853182E0A3FEE0A3F5207821E0A3D8
:1018EE00F608DFFAE0A3FFE0A3C0E0E0A3C0E0E06B
:1018FE00A3C0E0E0A3C0E010AF088582318583323B
:10190E008008858231858332D2AFD083D082227413
:10191E00048006740280027401C0E0F40412176899
:10192E00D0E012160E227404800474028000CCC023
:10193E00E0EDC0E0E531C39CCCAD3250011D10AFDF
:10194E00068C318D3280068C318D32D2AF12161B41
:10195E00D0E0FDD0E0FC2274048000CCC0E0EDC0ED
:10196E00E0E531C39CCCAD3250011D10AF068C3179
:10197E008D3280068C318D32D2AF12163CD0E0FD06
:10198E00D0E0FC22D083D082E9C0E0E493A3C386EA
:10199E00F0C5F095F0F908E493A386F0C5F095F044
:1019AE00700BE493A3C3994005E9048002A3E47588
:1019BE00F002A42582F582E5F03583F583D0E0F9B7
:1019CE00E493A3C0E0E493C0E022D083D082ECC0C5
:1019DE00E0EDC0E0E493A3FCE493A3FDED4C600DB9
:1019EE00121A24EC24FFFCED34FFFD80EFE493A3E8
:1019FE00FCE493A3FDED4C600D121A63EC24FFFC86
:101A0E00ED34FFFD80EFD0E0FDD0E0FCE493A3C009
:101A1E00E0E493C0E022C0E0C3E49396087401931F
:101A2E009618400FE4936670080874019366187058
:101A3E00007019A3A3C3E49396087401939618A398
:101A4E00A3400DD0E0D0E0D0E0021A14A3A3A3A3CC
:101A5E00A3A3D0E022C0E0C0F088F0E49366700843
:101A6E000874019366187000A8F0A3A3700BD0F051
:101A7E00D0E0D0E0D0E0021A14A3A3D0F0D0E02240
:101A8E00001F0AFA00E1F5056400000000000000E6
:101A9E000A0000003F065B4F666D7D077F6F777C07
:101AAE00395E79710006060606FFFFFFFF00029001
:101ABE0000FF0000000F00000000000800000040C2
:101ACE0000000001001FF1000407060606B83E24C0
:101ADE00031F1C1F1E1F1E1F1F1E1F1E1F0605037A
:101AEE00000603030005000416322C04010000005A
:101AFE00180000003C0000008051010080D6E30178
:101B0E008151010007000000C4FFFFFFE02E0C0111
:101B1E0010270A01401F080188130501B80B0301A5
:101B2E00D0070201E8030A0A0019400A800C200AB5
:101B3E006009180A4006100AB0040C0A2003080AAD
:101B4E00F401050A9001040AC800020A6400010AA1
:101B5E00C000000000020202040206040A040E0481
:101B6E00120416041A041E04220426042A042E0447
:101B7E0032013301340438043C0440044404480464
:101B8E004C0450015102D96204019C3C1D91BC745D
:101B9E009388C80000000800000013000000050034
:101BAE0000005F0000007000000010000000FA004E
:101BBE000000FC000000F8000000300000000002F1
:101BCE00000000008000A9ECFFFF630000009411EC
:101BDE0000007D150000E8030000510CA309550C10
:101BEE00B509EAF48F04B004D859881354627C0105
:101BFE0013C4704964C1FE0013C4704991E2A9EF89
:101C0E00E83A64EF63041303F2388C06418432061B
:101C1E000000000000000000000031F4840031F4E8
:101C2E008400B290625F99999D3899999D38F238E7
:101C3E008C06418432061211111111111104050581
:101C4E000204051A3C1E00000505143C0502500056
:101C5E0000000000020000000000000000CD130094
:101C6E000047170000004006000420200001440435
:101C7E000002440400004404001144040012440411
:101C8E0000104404002144040022440400204404B3
:101C9E000031440400324404003044040041440442
:101CAE00004244040040440480CD0B0202030CD1D8
:101CBE000B0103040501A30200000000800D0000CB
:101CCE00000000040060FAFFFFA0050000003200D3
:101CDE0000A30B00001A00000012000000320000EA
:101CEE00001F000000E02B3F0010B33C0091572C6A
:101CFE00001C492C1C492C1C652C1C652C1C652CAD
:101D0E001C652C1C652C1C652C1C652C1C652C1C48
:101D1E00652C1C652C1C652C1C652C1C652C1C65EF
:101D2E002C1C652C1C652C60812C60812C3CE12CBC
:101D3E003CE12C00100000FFFFFF03030501999901
:101D4E0099999999616263646566123003010191F4
:101D5E000C0202030048474000484FC00807060225
:101D6E0012000411090103100520480400BF4804A5
:101D7E0040244814412C4811412A4811C1393902D6
:101D8E00F7586C2222638387223E3E638387223E6E
:101D9E00213D3D9291918491912D2D5E605F6C1548
:101DAE0015092222637F7878028132787802816366
:101DBE007478780281327478788E8E022E423B3699
:101DCE002B1F1F010100050413030000A208A535F7
:101DDE000000931D03020100050333030000A20857
:101DEE00A5350000991D03050100800A00000000C2
:101DFE001C300000000000000306010705053B0330
:101E0E000000550B504900000000030801000905B1
:101E1E003B0300005D0B504900000000010901006A
:101E2E0009053B030000610B504900000000010C46
:101E3E000100050733038000A208A535000000004D
:101E4E00030F010041012B038000690C554900006E
:101E5E00000003010204050131020000020DB94920
:101E6E000000000003050200050A31020000060D05
:101E7E00B94900000000030702000501310200000D
:101E8E00080DB9490000000001080200050110000C
:101E9E000000B10C200001C0000003010300050189
:101EAE0011000000BE0C630001C00000030203001D
:101EBE000501110000000D0D140005C00000030304
:101ECE0003000501110000000B0D020000C0000010
:101EDE00030403000501110000000C0D040000C0F6
:101EEE00000003050300050111000000BF0C630094
:101EFE0001C0000003060307092319000000410B6F
:101F0E003F420F8800000308030005011100000086
:101F1E000E0D1E0005C0000003010400058613030C
:101F2E000000330B27460000000003020400298640
:101F3E00130300002D0B27460000A11D0303040010
:101F4E0005A012000000C00C0000000000000304F9
:101F5E0004078001010180006F26BE4900000000C9
:101F6E00030904008013010100016926946D00002D
:101F7E00C71D030B0400808A020100007426946DB5
:101F8E0000000000030C0400808A02010000DE261F
:101F9E00946D00000000030D04008090020100000B
:101FAE00E826946D00000000030E0400288613033B
:101FBE000000270B27460000A41D030F0400050B8D
:101FCE0012000000E00C00000000000003010507F5
:101FDE008002040000004809000000000000030811
:101FEE0005008004040000006D0C000000000000DD
:101FFE0003010600050130020000010DC349000077
:10200E00000003010700050110020000BB0C7C3E1E
:10201E000000000003030700050110020000BC0CC5
:10202E007C3E0000000003050700050110020000C1
:10203E00BD0C7C3E000000000301080005013002CB
:10204E000000090D194A00000000030208000501F6
:10205E00310200000A0D194A0000000003010906B2
:10206E00050110020000F70C1E4A000000000301DB
:10207E000A000504130200008D0C696D00000000BB
:10208E0003020A05050A11000000FD0C3C0001C008
:10209E00000003010B03058217020000910C234A76
:1020AE000000B01D03010C05050430038000A50CD3
:1020BE00083F00000000030111000501110200009D
:1020CE00B20C284A0000000003041100050812009B
:1020DE000000B30C00000000000003011200050513
:1020EE0013030000890C5049000000000302120087
:1020FE00050111020000F00C824A000000000303EB
:10210E001200050213020000970CB84A0000B01D21
:10211E0003041200808400000000F30C0000000095
:10212E00000003011400050211000000990C0F2796
:10213E000080000003021400052311000000850C2E
:10214E003F420F800000030314000502110000003F
:10215E009B0C0F27008000000304140505011100DD
:10216E000000F10C630000800000030115008002E6
:10217E0006010000790B2246000000000303150043
:10218E00000C02030000790B224600000000031F22
:10219E00F100808400010000B407A64B000000008F
:1021AE00032FF10001B9020200004526664C000023
:1021BE000000033FF10001FA020200007E26664C89
:1021CE0000000000035FF10001A002020000FC26E7
:1021DE00664C00000000036FF10001D70202000000
:1021EE00870A6B4C00000000037FF1000190020291
:1021FE000000E00A6B4C0000000003AFF100800409
:10220E000000000096070000000000000301F3002C
:10221E00018102020000FC26AC6B000000000302EC
:10222E00F3000186020300000000E06B00000000D6
:10223E000303F300018602030000E00A936C000022
:10224E0000000304F3000102110000003F0A000029
:10225E00000000000305F300018402020000210BC0
:10226E00646D000000000306F30041083203800095
:10227E000F0D796E000000000307F30001930202B8
:10228E0000006D0D106F000000000300F4190184B2
:10229E00020300006D0DC537000000000300F500BD
:1022AE000181020300006D0DAB38000000000378C1
:1022BE00F5900184020300006D0DDA380000000075
:1022CE000300F6FE0184020300006D0D3639000096
:1022DE0000000300F7FE0184020300006D0D363985
:1022EE0000000000030100008023010006001A0A0E
:1022FE00000000008B1D03020000800201000000A0
:10230E003B0A000000008D1D030700008002010043
:10231E000001450A00000000A91D0308000080020C
:10232E0001000002410A00000000AF1D030A000078
:10233E00800401008000C10B000000000000032299
:10234E000023800201010000590A704C00000000B9
:10235E0003010800050211000000A10CE803008033
:10236E00000003020800050111000000EE0C6300DE
:10237E000AC0000003011000052311000300810CA8
:10238E003F420F8000000302100005011100000003
:10239E00EF0C6300008000000301F1000502110044
:1023AE000000A30C90010080A71D030AF100050494
:1023BE0011000000C10B0F270080A71D030048402D
:1023CE00C0004840400448040008483C410C483CCA
:1023DE00410040FF0F08483C410C483C410040FF83
:1023EE00BF004840400448088000480400044840AC
:1023FE0040084840C000484040044804800048401F
:10240E004004480580040040400048404008003C1D
:10241E00410C003C410040FF0F04483C4108483C41
:10242E00410040FF8F0048404004480980040040AE
:10243E0040004840401000010008003C410C003CA8
:10244E004104483C4108483CC1040040400048401B
:10245E004008003C410C003CC100483C4108483C4F
:10246E004110483C4118483C4120483CC100483886
:10247E0041004838410140FF910011005C0C710B86
:10248E00030130000F6A7D0B03033000100E830B27
:10249E00030430001110890B0305300012008F0B5E
:1024AE0003063000135E950B03073000140B9B0BD5
:1024BE00030830001500A10B03093000170B9B0B0E
:1024CE00030C30001810A70B030D30004C3CAD0B65
:1024DE00031230000B0FB30B030036005B1DB90B5C
:1024EE00030037005A14BF0B0300A0001D06770B24
:1024FE000301A0001E10890B03637C7B7B777E6338
:10250E0063637A7E7E0C0408028132747C7B7B02CC
:10251E008132747C7B777E7E028132747C7B7A7E04
:10252E007E333345666861605F5F4638384B385E90
:10253E0066605F67674B395E66605F67672D0A0A84
:10254E00FF0011035C03FF0030030E03FF04300392
:10255E001103FF0530031203FF0630031303FF07B9
:10256E0030031403FF0830031503FF09300317036C
:10257E00FF0C30031803FF0D30034C03FF12300322
:10258E000B03FF0036035B03FF0037035A03FF0004
:10259E00001D4D03FF01001D4D03FFFF001D4D03E8
:1025AE00FF00001D4D03FF01001E4D03FFFF001E27
:1025BE004D03FF00001E4D03FF0001191903FF011B
:1025CE0001191903FFFF0119190300000000000093
:1025DE000A000806170B16040B0B1701D50AFFFF8E
:1025EE00FFFFFFFFFFFFFFFFFF07FF3F0000FFFFA3
:1025FE0000002D0100000000810000FFFF00000020
:10260E003000000000040003040465000000285C94
:10261E008F029999991990D003000C00000000596F
:10262E000059002301310112009900060101010930
:10263E000714031C0400004550534F4E3131462001
:10264E004F637420323020323031392031373A30F6
:10265E00353A343200000000600057B004B900FC77
:10266E00083200E8031444445A595858582D4D0066
:10267E0044445A595858582D4D000000000000008F
:10268E00000000000000000000000000000000003C
:10269E0044445A595858582D4D000000000000006F
:1026AE00000000000000000000000000000000001C
:1026BE0058585858000000000000000000000000AC
:1026CE0000000000000000000000000000000000FC
:1026DE00323031362D58582D5858444C2F543634EC
:1026EE00352D323030372D313400770133550064BB
:1026FE0000000078020014122501AAAAAAAAAAAA0A
:10270E00AAAA0000000000000000000000000B0755
:10271E004A012C01B6034512E0029B039B030059AC
:10272E001744445A59585858432D4D44445A5958F1
:10273E005858432D4D00000000000000000000001E
:10274E00000000000000000000000044445A5958E8
:10275E005858432D4D0000000000000000000000FE
:10276E00000000000000000000000044445A5958C8
:10277E00585843000044445A5958585843000000D2
:10278E00000000000000000000000000000000003B
:10279E00000000000044445A5958585843000000A5
:1027AE00000000000000000000000000000000001B
:1027BE00000000000044445A595858582D4D00440A
:1027CE00445A595858582D4D000000000000000082
:1027DE0000000000000000000000000000000044A7
:1027EE00445A595858582D4D000000000000000062
:1027FE000000000000000000000000000000004487
:10280E00445A5958585800000044445A5958585878
:10281E0000000000000000000000000000000000AA
:10282E0000000000000000000044445A5958585857
:10283E00000000000000000000000000000000008A
:10284E0000000000000000000034120040000000F4
:10285E00400000000000000000000000000000002A
:10286E00400000000000000000000000000000001A
:10287E00000000000000000000000000000000004A
:10288E00000000000000000000000000000000003A
:10289E00000000000000000000000000000000002A
:1028AE0060000000000000000000000000000000BA
:1028BE0000000000000000000000007200B1014D99
:1028CE00E8FFFF6CFDFFFF000000000000000000AD
:1028DE0000000000000000000000000000000000EA
:1028EE0000000077013355000000000000000000DA
:1028FE000000000001111111111111F4010000640A
:10290E000000000100000001000000204E00000049
:10291E0000000000000000000000000000000000A9
:10292E0000000000000000000080110000001F00E9
:10293E000000000000000000000000000000000089
:10294E000000000000000000000000000000000079
:10295E000000000000000000000000000000000069
:10296E000000000000000000000000000000000059
:10297E000000000000000000000000000000000049
:10298E0000000000000000000000000000000040F9
:10299E0088A0004088A0004088A000000000000031
:1029AE000000000000000000000000000000000019
:1029BE000000000000000000000000000000000009
:1029CE0000000000000000000000000000000000F9
:1029DE0000000000000000000000000000000000E9
:1029EE0000000001000000000000000000000000D8
:1029FE0000000000000000000000000000000000C9
:102A0E0000000000000000000000000000000000B8
:102A1E0000000000000000000000000000000000A8
:102A2E000000000000000000000000001000080080
:102A3E00000000E8030000FFE0F505C800000000FC
:102A4E000000002C000000307500000049D112007B
:102A5E0000010101009999999900000000A005005C
:102A6E00000000E8030401000000000256341204C6
:102A7E007856341400000410000000020004080808
:102A8E00050A000000000000000000000000000029
:102A9E000000000000000000000000000000000028
:102AAE00000000000000000000000000003C3C3C64
:102ABE003C0A3C1E1E999912000F83838303830FD9
:102ACE000F0F0F05020208040000007F010204052B
:102ADE0005FFFFFFFFFFFFFFFF00000000000000EB
:102AEE0000000000000000000000000000000000D8
:102AFE0000000000000000000000000000000000C8
:102B0E0000000000000000000000000000000000B7
:102B1E0000000000000000000000000000000000A7
:102B2E000000000000000000000000000000000097
:102B3E000000000000000000000000000000000087
:102B4E000000161102120C120C120C120C120C12A6
:102B5E000C120C120C120C120C120C120C120C1178
:102B6E0002120C120C120C120C120C120C120C1271
:102B7E000C120C120C120C120C120C8813002413D3
:102B8E0000C012005C1200000000000000000000F7
:102B9E000000000000000000000000000000000027
:102BAE000000000000000000000000000000000017
:102BBE000000000000000000000000000000000007
:102BCE0000000000000000000000000000000000F7
:102BDE000000000000000000000000881300241315
:102BEE0000C012005C120000000000000000000097
:102BFE0000000000000000000000000000000000C7
:102C0E0000000000000000000000000000000000B6
:102C1E0000000000000000000000000000000000A6
:102C2E000000000000000000000000000000000096
:102C3E0000000000000000000000001102120C1243
:102C4E000C120C120C120C120C120C120C120C1286
:102C5E000C120C120C120C01008216032D8443016F
:102C6E005A82700387849D849D849D849D849D8457
:102C7E009D849D881300241300C012005C12000076
:102C8E000000000000000000000000000000000036
:102C9E000000000000000000000000000000000026
:102CAE000000000000000000000000000000000016
:102CBE000000000000000000000000000000000006
:102CCE0000000000000000000000000000000000F6
:102CDE0000000000000000000000000000000000E6
:102CEE0000000000000000000000000000000000D6
:102CFE0000000000000000000000000000000000C6
:102D0E00999999999999999999999999000000BECB
:102D1E00051246843F05690040BE034000000000D6
:102D2E000002FA0290000000029000000000000075
:102D3E000000000000000612010100040002010064
:102D4E0004002000800200000290000000000B0032
:102D5E000000000000000000000000000000000065
:102D6E000000000000000000000000000000000055
:102D7E000000000000000000000000000000000045
:102D8E000000000000000000000000000000000035
:102D9E000000000000000000000000000000000025
:102DAE000000000000000000000000000000000015
:102DBE000000000000000000000000000000000005
:102DCE0000000000000000000000000000000101F3
:102DDE0000040002010004002000800200000290A6
:102DEE000000000000000001000000000E040004BE
:102DFE00010E040004000204000401020400040099
:102E0E0000010102000001020200000103020001A4
:102E1E000B000400090400040002008002000214EA
:102E2E000004000314000400000000000000000075
:102E3E000000000000000000000000000000000084
:102E4E000000000000000000000000000000000074
:102E5E000000000000000000000000000000000064
:102E6E000000000005080000000000000100000046
:102E7E00000200000000030000000004000000003B
:102E8E000000000000000000000000000000000034
:102E9E000000000000000000000000000000000024
:102EAE000000000000000000000000000000000014
:102EBE000000000000000000000000000000000004
:102ECE0000000000000000000000000000000000F4
:102EDE0000000000000000000000000000000000E4
:102EEE0000000000000000000000000000000000D4
:102EFE0000000000000000000000000001010004BE
:102F0E00000201000400000103020000020302009F
:102F1E000001010200000102020001008002000017
:102F2E000000000001010004000201000400000185
:102F3E00010200000102020000010302000001066E
:102F4E000200000000000000000000000000000071
:102F5E000000000000000000000000000000000063
:102F6E000000000000000000000000000000000053
:102F7E000000000000000000000000000000000043
:102F8E000000000000000000000000000000000033
:102F9E0000001FF10004070606060002900015222D
:102FAE002D3E7F8286898A10110B315C645D65AE81
:102FBE00020000AF020000B102B302B50205040424
:102FCE00090903039494797D7D7981817985851C26
:102FDE001C5B5B019393B702BA02BD02C002C20230
:102FEE00C402BB027C7B7BDE01048000060303006F
:102FFE00050004FFFFFFFFFF999999999999616266
:10300E006364656600000000000000000000805E42
:10301E00666861605F673F6B6D5958526C4C4648ED
:10302E004F4E4D47403A3C4342413B342A2C3736B3
:10303E00352B241E202726251F1812141B1A191390
:10304E000C06080F0E0D074944454B51504A00001F
:10305E000000010000000100030002000000070054
:10306E0040000C00000007030400020047040F0399
:10307E000800040047042F033000020047048F03AA
:10308E00300002004704EF033000030047047F04C2
:10309E00300002004704DF04380002003F044F05F1
:1030AE000C0002007704670510000A0000000706F6
:1030BE000C0014007704F70610001400AF04370854
:1030CE0030000A000000170A10000A009F04B70A19
:1030DE000C000A0000002F0B0C000A000000A70BCA
:1030EE0028000A000000370D28000A000000C70E55
:1030FE000C000A0000003F0F0C000A000000B70F82
:10310E0018000A000000A7100C000A0000001F1192
:10311E000C000A00000097111800140083047713A6
:10312E000C001400770467140C001400BF0457152C
:10313E0004001400D802A71504000500D802BB1520
:10314E000C0005000000F715040002000000C61078
:10315E0002009602040071020400F202040001440F
:10316E0004000244040011440400124404002144EB
:10317E00040022440400314404003244040041445B
:10318E000400424404800000330001440400024461
:10319E000480DE0104000144040002440400240300
:1031AE0002003D030300F2020300D702028000007A
:1031BE0033008F0304000144040002440480000025
:1031CE003300C21104000144040002440480710261
:1031DE000400014404000244048000400000A000EA
:1031EE004000000000400000FEFFFFFF02640520CB
:1031FE0006BD063007EC09050AA109BA097856344E
:10320E00120149D11247276267000080FFDD0500D9
:10321E0000181E000000782879287A287B287C2840
:10322E007D287E287F288628F420FA20F520FB2092
:10323E00E820E920EA20EB20EC20ED20EE20EF2024
:10324E00F020F120F220F320F620F720F820F920CC
:10325E00FEFE0068001600F282D982FC82EBA2F517
:10326E00A2FBA2C782E482F282D522D5A2EBA2C033
:10327E00E0C0D075D010C082C083C0F07909120FA3
:10328E00A3D0F0D083D082D0D0D0E032C0D075D0D1
:10329E0010D0D032C0E0C0D075D010C082C083C074
:1032AE00F0790B120FA3D0F0D083D082D0D0D0E023
:1032BE0032C0E0C0D075D010C082C083C0F0C28FC3
:1032CE00900375E4F0C28E790C120FA3D0F0D08368
:1032DE00D082D0D0D0E032C0E0C0D075D010C08245
:1032EE00C083C0F0C2CF9008FB7401F0120DF390B2
:1032FE000374E06401700B75CDFD75CC541239A2C8
:10330E00801A75CDF575CC54120CDF90034FE00486
:10331E00F0E0C394194005E4F01206F1D0F0D0832A
:10332E00D082D0D0D0E032C0D075D010A2C0500222
:10333E00C2C0A2C15002C2C1D0D032C0E0C0D0754E
:10334E00D010C021C082C083C0F0902840E0F5218B
:10335E00902843E05221E521A2E7500C902840E04E
:10336E00C2E7F07904120FA3E521A2E450079028DA
:10337E0040E0C2E4F0E521A2E55007902840E0C20B
:10338E00E5F0E521A2E25011902836E0C2E1F0907E
:10339E002840E0C2E2F0120CEBE521A2E3501190BE
:1033AE002836E0C2E0F0902840E0C2E3F0120CE5CF
:1033BE00E521A2E05011902826E0C2E1F0902840CD
:1033CE00E0C2E0F0120CD3E521A2E15011902826C4
:1033DE00E0C2E0F0902840E0C2E1F0120CCD539133
:1033EE00EFD0F0D083D082D021D0D0D0E032C0E068
:1033FE00C0D075D010C021C082C083902848E0F59F
:10340E002190284BE05221E521A2E6501490054868
:10341E00E0D2E0F0902848E0C2E6F0900530E004FB
:10342E00F0E521A2E2500E90283EE0C2E1F0902895
:10343E0048E0C2E2F0E521A2E3500E90283EE0C241
:10344E00E0F0902848E0C2E3F0E521A2E4500790B6
:10345E002848E0C2E4F0E521A2E55015902848E0A6
:10346E00C2E5F090284BE0C2E5F0902838E0C2E0CB
:10347E00F0E521A2E75007902848E0C2E7F0E521E9
:10348E00A2E0500E90282EE0C2E1F0902848E0C253
:10349E00E0F0E521A2E1500E90282EE0C2E0F0907F
:1034AE002848E0C2E1F05391DFD083D082D021D002
:1034BE00D0D0E032C0E0C0D075D010C021C082C0E4
:1034CE0083C0F0902850E0F521902853E05221530C
:1034DE0091BF7913120FA3E521A2E3502290053775
:1034EE00E02401F0A3E03400F090321FE493F87969
:1034FE0000900A6AF0A3E4F0902850E0C2E3F0E5F1
:10350E0021A2E2502290053BE02401F0A3E034001A
:10351E00F090321FE493F87900900A6AF0A3E4F079
:10352E00902850E0C2E2F0D0F0D083D082D021D0EB
:10353E00D0D0E032C0E0C0D075D010C021C082C063
:10354E0083C0F09028A2E0F5219028A5E0522179C1
:10355E0014120FA3E521A2E15010120CB59028A26F
:10356E00E0C2E1F09029047410F053917FD0F0D0B6
:10357E0083D082D021D0D0D0E032C0E0C0D075D080
:10358E0010C082C083C0F07915120FA3D0F0D08383
:10359E00D082D0D0D0E03274F112183174EA121702
:1035AE00378A828B837825121595E525F527900AA3
:1035BE0086E070767401652770487C4F7D40AA3195
:1035CE00AB32120E77900902E0548070030237B9C5
:1035DE0090058CE024FDFCA3E034FFFD90058CE00B
:1035EE0024FCFAA3E034FFFB120ED190058CE024EC
:1035FE00FFF8A3E034FFF990058CE8F0A3E9F002A0
:10360E0037B974026527700E7C477D40AA31AB3204
:10361E00120E770237B990058EE531F0A3E532F040
:10362E007A627B1D120E830237B99008A2121934EA
:10363E007C037D0074041217B312079974041217D9
:10364E004D900A7CE0F8A3E0C82409F582E438F531
:10365E0083E02406FEA3E03400FF74016527702783
:10366E0075210375220078211219218E828F83A372
:10367E00AC82AD8374021217B3120ECB7402121702
:10368E004D8E828F838068740265277022752503A4
:10369E007526007825121921EEFCEFFD7405121720
:1036AE00A1AA82AB83120ECB740212174D804875FD
:1036BE0021037522007821121921EE2404FCE43F27
:1036CE00FD74021217B3120ECB740212174D78212D
:1036DE00121921EEFCEFFD74051217A1AA82AB831D
:1036EE00120ECB740212174D8E828F83A3A3A3E00A
:1036FE00F521E4F523F5247C007D00AA31AB3212CE
:10370E000793EAF8EBF9ECFAEDFB74061217A11227
:10371E00160274061217A11215F6E8494A4B6027D5
:10372E00900922E070287402652760227406121731
:10373E00B3120F5BE9F525E4F526F527F528782574
:10374E0079211211CF60077901120ABD805F900AAC
:10375E00531215F6740A1217A11216029008A2122D
:10376E0015F6740E1217A112160274061217A11274
:10377E0015C612079F7934120F679008A21215F61C
:10378E0074121217A11216027911740A1217B312BB
:10379E000AA590093D7402F0900C697821121595D6
:1037AE00E521540860057983120F557900741612BD
:1037BE00174D7F080218DD74F512183174F71217C1
:1037CE00378A828B837821121595853182853283D3
:1037DE00E521F0900A7CE0F8A3E0C82409F582E424
:1037EE0038F583E02406F521A3E03400F522900A93
:1037FE0086E0AA31AB32607012084D8A238B24AE5C
:10380E0023AF24EE4F60438E828F83A3E493F98916
:10381E00237524007823121921E9F8C3E498F8954A
:10382E00E0F9E52128F8E52239F9E82404FCE43929
:10383E00FD74031217B3120ECB740212174D7401DE
:10384E001217BBEEFAEFFB120847900A7CE0F8A3C2
:10385E00E0C82409F582E438F583E0F8A3E0F583A7
:10386E008882A3E4F0F9802B12084D8A218B22AEB8
:10387E0021AF22EE4F601A8E828F83A3E493F98ECE
:10388E00828F83E493FA74872AFAE4340AFB120EC9
:10389E00657900740912174D7F040218DDC082C0CD
:1038AE0083900A86E0601E120DC9900A7CE0F8A390
:1038BE00E0C82409F582E438F583E0F8A3E0F58347
:1038CE008882A3E4F07900D083D0822274F5121896
:1038DE003174FC121737900A86E0601E900A7CE065
:1038EE00F8A3E0C82409F582E438F583E0F8A3E0F4
:1038FE00F5838882A3E4F0F980248A828B83782171
:10390E00121595AA217B281207DB85318285328319
:10391E001215D27904AA31AB32120E6579007404F5
:10392E0012174D7F040218DD74F512183174FC1253
:10393E0017378A828B837821121595A821E5225498
:10394E000F64077006E8FA7B288004E8FA7B209063
:10395E000A86E0601E900A7CE0F8A3E0C82409F510
:10396E0082E438F583E0F8A3E0F5838882A3E4F0DF
:10397E00F980171207DB8531828532831215D279D1
:10398E0004AA31AB32120E657900740412174D7F02
:10399E00040218DDC082C083900477E054056405EC
:1039AE00707F900478E004F0E0C394384073E4F044
:1039BE00900477E0640570197AD37B201207DB90B0
:1039CE00046B1215D27904120C49900477740A8094
:1039DE004FE0645570267AD47B201207DB90046F7B
:1039EE001215D27A417B201207DB9004791215D280
:1039FE007901120C49900477745A80247AD57B2071
:103A0E001207DB9004731215D27A487B201207DB63
:103A1E0090047D1215D27902120C4990047774AA83
:103A2E00F0D083D082227921120FA3120F9D120F94
:103A3E00BB120E3B120CA3120CF1900EE57401F0AA
:103A4E00900EE6E4F0120FB5900EC77487F0A374D3
:103A5E000AF0E5A1A2E05006900EE5E070137900A1
:103A6E00120949E960EC75CEA575CF5A120A0950B4
:103A7E00E175CEA575CF5A120DBD8B22EA45226097
:103A8E00D17900120949E960C97AC87B00120F6D1D
:103A9E0075CEA575CF5A120DB7120DB11206D97586
:103AAE00CEA575CF5A900A757405F0790A120C5B83
:103ABE001208A1900A75E0F9120E35900A75E064AD
:103ACE000A7003120F8B120DCF120817120859909D
:103ADE0008FFE04404F0900904E04410F09008FC64
:103AEE00E4F0900A75E064507003120CAF9004B7C6
:103AFE007402F0A3E4F0900A75E0900A74F0900F4F
:103B0E00787481F0A3740D803F9008FFE05420700C
:103B1E000F900E24E0541F60079008FFE04420F041
:103B2E009008FFE0541060031206FD9008FFE05469
:103B3E002060031207039008FFE054406003120850
:103B4E008F900A75E0900A74F09004B7E0F8A3E045
:103B5E00F9E84960067AE87B0380047AC87B001294
:103B6E000F6D120D15E5A1A2E05006900EE5E07066
:103B7E00049028AFE0120E23E9F8900A75F0745005
:103B8E00687003120CBB9008FBE0F8701EA3E07087
:103B9E001A900D81E0A2E74012900E24E0A2E740B9
:103BAE000A9008FEE070049008F8E0E8600312083E
:103BBE005F9008F8E060031208659008FCE060234F
:103BCE0012086B7ACB7B0E1207AB120E0B9008FF0E
:103BDE00E0540860031209DF900904E054106003FA
:103BEE001209EB9008FEE060061206DF12088390C1
:103BFE0008FFE054046003120889900D81E0A2E7EB
:103C0E00400B900E24E0A2E74003023B17120C2B50
:103C1E00023B2E02062D74F21217C574FB121737D3
:103C2E00E9FE604CA831A93288258926782512191B
:103C3E0021120F01740212174D900901E05402F87F
:103C4E00A3E05480F974026849701C853182853274
:103C5E0083E5822EF8E43583F9E824FFF582E93412
:103C6E00FFF583E0D2E7F0EEF9AA31AB32120E6522
:103C7E00740512174D7F06021897C082C083E9FCA7
:103C8E00900902E054807078900A7CE02404F8A336
:103C9E00E03400F988828983E01313543F5407C33C
:103CAE0094024004E04480F0900A7CE0F8A3E0C85F
:103CBE002409F582E438F583E0F8A3E0F5838882E1
:103CCE00E044C0F0900A7CE0F8A3E0C82409F58235
:103CDE00E438F583E0F8A3E0F5838882A37401F05D
:103CEE00ECC0E0900A7CE0F8A3E0C82409F582E479
:103CFE0038F583E0F8A3E0F5838882A3A3D0E0F043
:103D0E007901D083D08202062DC082C083900A7CB6
:103D1E00E0F8A3E0C82409F582E438F583E0240234
:103D2E00FAA3E03400FB120F49900A7CE0F8A3E0FE
:103D3E00C82409F582E438F583E0F8A3E0F583881A
:103D4E0082A3E4F0D083D08202062D74F61217C53A
:103D5E00E9FEEAFF900A7CE0F8A3E0F9EE60148831
:103D6E00828983A3A3A3A3E01313543F54076003D4
:103D7E00023E6988828983A3A3A3A3A3A3A3A3A3BB
:103D8E00E0F8A3E0F9EE601788828983A3A3A3A3CA
:103D9E00A3A3E064997008EEA2E3401D023E69EE13
:103DAE00601A88828983A3A3A3A3A3A3E064987057
:103DBE000BEEA2E35003023E69023E6288828983C3
:103DCE00A3E0FCEA240CFAE43400FBEA6C4B60033B
:103DDE00023E6DE8240AFCE439FD7A537B0A120E8A
:103DEE00D174035E64017070120C198A218B22AC9F
:103DFE0021AD227521087522007821121921900A11
:103E0E007CE0F8A3E0C82409F582E438F583E024C9
:103E1E0006FAA3E03400FB120A39740212174D9011
:103E2E000A7CE0F8A3E0C82409F582E438F583E0C3
:103E3E00FAA3E0FB8F217522007821121921EA24C2
:103E4E000EFCE43BFDEA2406FA50010B120A27741D
:103E5E000212174D7900800CEE60C479048002794D
:103E6E0001120ABD7F02021897790002062D74F422
:103E7E001217C5EAFCEBFD900A787821121595AA67
:103E8E00218C828D837821121595A921120ACFE9F2
:103E9E0070047900800279017F0402189774F4127D
:103EAE0017C5900A7CE0F8A3E0F9E82409FEE4398E
:103EBE00FF8E828F83E0FAA3E0F5838A82A3A3E0CC
:103ECE00FC7A0B7B001216ACE8947FF8E99400F9AB
:103EDE00744928F582741D39F583E493F9ECFA12CE
:103EEE000ACFE970108E828F83E0F8A3E0F5838805
:103EFE0082A37401F07F04021897790002062D74D4
:103F0E00F61217C5EAFEEBFF752106752200782121
:103F1E001219217C4C7D1D120A39740212174DEABA
:103F2E004B4C4D70047900802178211219217C525E
:103F3E007D1DEEFAEFFB120A39740212174DEA4B91
:103F4E004C4D70047901800279027F02021897C0ED
:103F5E0082C083900A7CE02404F8A3E03400F98840
:103F6E00828983E01313543F5407FA600974026A7E
:103F7E007008E04480F079008006E04480F079011A
:103F8E00D083D08202062DC082C083900A7CE0646A
:103F9E00817004A3E064057A0570047B0480027BC3
:103FAE000312075DD083D08202062D74F01217C55E
:103FBE0074FC121737853182853283EAF0A3EBF059
:103FCE00853182853283E02403FCA3E03400FD8C2E
:103FDE00828D83E493A2E750030240C7900A7CE0EF
:103FEE00F8A3E0C82409F582E438F583E02406F549
:103FFE0025A3E03400F526853182853283E0F8A3CF
:10400E00E0F5838882A3A3A3A3E493C0E074019395
:10401E00F583D082AA82AB83900A817821121595FE
:10402E00853182853283E0F8A3E0F5838882E493BC
:10403E00F8740193F9E521C398F521E52299F5224B
:10404E008A238B24740A7823121715E523540378D8
:10405E0021121724853182853283E0F8A3E0C8242B
:10406E0009F582E438F583E4932521F8A3E493352A
:10407E0022F974021217A1E8F0A3E9F0EB5403C37E
:10408E009402EA4004547F80025407FE7F00EEFA49
:10409E008C828D83E493F9120AC9E9701C853182F2
:1040AE00853283E0F8A3E0C82411F582E438F58365
:1040BE00E493F9120C13E9600579040242E88531A4
:1040CE0082853283E0F8A3E0F5838882A3A3A3A3BD
:1040DE00E4A3935401600FEEF9AA25AB26120A3F12
:1040EE00E960030242E6900A78E4F0A3F0A3F0A39D
:1040FE00F0853182853283E0F8A3E0C8240BF58287
:10410E00E438F58378211215A4853182853283E057
:10411E00F8A3E0F5838882A3A3A3A3E493C0E0747D
:10412E000193F583D082A882A9838531828532835B
:10413E00E0FAA3E0CA2406F582E43AF583E493A2FA
:10414E00E15076E85480F8E95402F97480687003FF
:10415E00740269700BEEFC7D00AA25AB26120E4789
:10416E00C3EE940595E050198E218F2278211219F5
:10417E0021AC25AD267A787B0A120A277402121713
:10418E004D74021217A1E0FCA3E0FD7A817B0A8533
:10419E003182853283E0F8A3E0C8240BF582E4383F
:1041AE00F58378211215A48521828522831217C3E7
:1041BE00E97003024319024370E95403C3940240A9
:1041CE00030242F6C3EE940595E040030242E6E890
:1041DE0054808E278F2878276010121921AC25ADB8
:1041EE00267A787B0A120ECB800E121921AC25ADE1
:1041FE00267A787B0A120A27740212174D853182AD
:10420E00853283E0F8A3E0F5838882A3A3A3A37489
:10421E000193540364017023900A781215C6120F8D
:10422E0007EAC0E0EBC0E0ECC0E0ED900A78FBD00E
:10423E00E0FAD0E0F9D0E0F812160285318285322C
:10424E0083E0F8A3E0F5838882A3A3A3A3E49313EA
:10425E001313541F540FFA7002EEFA85212585228E
:10426E002685232785242874187825121440E525E1
:10427E0054F8F87480687005752500800874886895
:10428E0070087525019025F48024E8C394C040255C
:10429E0085212585222685232785242874107825B7
:1042AE001214409025F8782512152E9025FC7821B1
:1042BE0012152E800F7525007521FF7522FF7523AF
:1042CE00FF7524FF900A787825121276400A900A1C
:1042DE0078782112128640087901120ABD024370C5
:1042EE00EAF97C787D0A8016E85480600BEEFC7D3E
:1042FE0000AA25AB26120E47EEF9AC25AD267402A8
:10430E001217A1E0FAA3E0FB120A4B853182853227
:10431E0083E0F8A3E0F5838882A3A3A3A3E4A39389
:10432E0054106003120AC3900A7CE0F8A3E0C8247C
:10433E0009F582E438F583E0F8A3E0F5838882A3DB
:10434E00E4F0853182853283E0F8A3E0F58388823C
:10435E00A3A3A3A3E4A393542060079008FFE04413
:10436E0008F0740412174D7F0802189774F0121794
:10437E00C574F7121737853182853283EAF0A3EBC5
:10438E00F08C218D22853182853283E0F8A3E0F511
:10439E0083888278251215958C828D83E493F87428
:1043AE000193F9E525C398FEE52699FFEC2404F563
:1043BE0023E43522F5248E278F28852382F583E486
:1043CE0093F525740193F526740A7825121715E5D1
:1043DE0025540378271217248C828D83A3A3A3A3BD
:1043EE00A3A3A3A3A3932527F525A3E4933528F52B
:1043FE0026EC2411F582E43522F583E493F9120CB0
:10440E0013E960087904120ABD0245DE900902E044
:10441E0054806059852182852283A3A3A3A3A3A3DD
:10442E00A3E493C0E0740193F583D082A882A9839C
:10443E00E8548060030245DEE84960089008E8E829
:10444E00F0A3E9F0E521240FF582E43522F583E4AB
:10445E0093FA740193FBEA4B6013120727EE4F6039
:10446E000C9008C3E064027004A3E02EF085218254
:10447E00852283A3A3A3A3A3A3E493A2E0502BAC12
:10448E0025AD26853182853283E0FAA3E0FBE52156
:10449E00240BF582E43522F58378211215A48521AB
:1044AE00828522831217C30245DE852382852483EB
:1044BE00E493C0E0740193D082A8825403FAC394AB
:1044CE0002E84005547FFE800F5407FEE8131313D5
:1044DE00541F540FFF7002EEFFEAC3940240030212
:1044EE0045B774021217A1E4F0A3F0A3F0A3F08F66
:1044FE0021F5227821121921AC25AD26740412174C
:10450E00B3120A27740212174D74026F70237403CC
:10451E001217A1E0A2E75019852382852483740126
:10452E009354036401700A74041217A174FFF0A36C
:10453E00F085238285248374019354036401704BA8
:10454E0074021217AB882189227821121921740462
:10455E001217A11215C6120F01740212174D9009EF
:10456E0001E05402F8A3E05480F974026849701B0C
:10457E0074021217A1E5822EF8E43583F9E824FFC0
:10458E00F582E934FFF583E0D2E7F08523828524B6
:10459E0083E49354806009EEF974021217B38022FB
:1045AE00EEF974021217B38024900902E054806071
:1045BE0006EEC394055019E85480600BEEF9AA2557
:1045CE00AB26120E6B8009EEF9AA25AB26120E65EC
:1045DE00740912174D7F0802189702062D74F612F1
:1045EE0017C574F812173775210875220078211235
:1045FE001921EAFCEBFD74021217B3120A2774029A
:10460E0012174DAA31AB32120AF9740812174D7FE8
:10461E0002021897790002062D790002062D74F712
:10462E001217C5900A7CE0F8A3E0C82409F582E4CD
:10463E0038F583E02402FEA3E03400FF120AE1E91C
:10464E0070557904EEFAEFFB120A3FE96007790123
:10465E00120ABD80427A357B09120E597C4C7D1DA3
:10466E00EEFAEFFB120EDDEA4B4C4D700779071296
:10467E000F318014EEFAEFFB120EA77904EEFCEF69
:10468E00FD7AF37B0C120A4BEE24FFF582EF34FF1A
:10469E00F583E4F0120AE77F0102189774F41217FB
:1046AE00C5902600C082C0838A828B837821121522
:1046BE00958C828D8378211214DCAA21AB22AC2337
:1046CE00AD241210278A218B228C238D24D083D0E7
:1046DE0082782112123C40047900800279017F0415
:1046EE0002189774F01217C574DC121737900A7CF3
:1046FE00E0F8A3E0C82409F582E438F583E0F52755
:10470E00A3E0F528120AE1E960030249467C007D28
:10471E0040E5272402FAE43528FB120793740812A9
:10472E0017A11215D2901A9A1219657C0B7D00747E
:10473E00161217B3120799740412174D7C037D00DD
:10474E007A007B001207938531828532831215D24F
:10475E0074081217B3120EFBE960030248DF9026AD
:10476E0004C082C083900C6978211215959026049E
:10477E00782112152ED083D08278211211F9700370
:10478E000248DF75255875261D7E00024885741275
:10479E001217A11215F6740C1217A112160274102C
:1047AE001217A1E4F0A3F0852582852683A3A3A387
:1047BE0093FAE5252402F523E43526F5248A21759E
:1047CE0022007821121921EF8AF0A4F8A9F085258C
:1047DE0082852683E49328FCA3E49339FD85238206
:1047EE00852483E493F8740E1217A1E58228FAE467
:1047FE003583FB120A27740212174D7C007D00745C
:10480E000C1217B3120793EAF8EBF9ECFAEDFB74FE
:10481E00041217A1121602AC31AD3274041217B382
:10482E00120B11E970030248DF852382852483E48D
:10483E009364037021901B0678211215A474041240
:10484E0017A178211214B5AC31AD3274041217B31E
:10485E00120B11E9607B0F852582852683A3A3A306
:10486E00A3E493F8EFC398500302479CE525240573
:10487E00F525500205260EEEC3940250047F0080EB
:10488E00D67E00801D8E21752200740278211217AB
:10489E002474552521FA740B3522FB120B11E96095
:1048AE00300EEEC39404AC31AD3240D974081217F9
:1048BE00B3120B11E96021900C69782112159590B5
:1048CE001ACF782112152EE5214522452345246065
:1048DE00077901120ABD8060900A53E4F0A3F0A399
:1048EE00F0A3F074181217A1E4F0A3F0A3F0A3F054
:1048FE009008A21215F6741C1217A1121602740853
:10490E001217A11215C612079F7917120F5590088C
:10491E00A21215F674201217A1121602791E74181F
:10492E001217B3120AA590093D7401F085278285EE
:10493E002883A3E4F0120AE7742412174D7F0802AD
:10494E001897790002062DC082C083ECFAEDFB9019
:10495E000A86E070077904120E658046900A7CE0A4
:10496E00F8A3E0C82409F582E438F583E0F8A3E063
:10497E00C82406F582E438F583E0FA900955E05430
:10498E0002700BEA7008900922740AF08014EA9003
:10499E0009226006E4F0791080057401F079901216
:1049AE000F557900D083D08202062D790002062D94
:1049BE00790002062D74F41217C5900A7878211228
:1049CE001595E521C3941040077901120ABD803672
:1049DE007C787D0A900D01E0FA7917120F43793930
:1049EE00120F67900A787821121595900D01E065E7
:1049FE00216011900A787821121595A9217A017BF0
:104A0E000D120F1979007F04021897790002062DF6
:104A1E00790002062D790002062D74F41217C5ECEA
:104A2E00FAEDFB900A787821121595E52154027063
:104A3E0028900B24E06466600E900A787821121597
:104A4E0095E521A2E04012901BA478211215A490A6
:104A5E000A78782112127640077901120ABD800F6A
:104A6E00900A787821121595A921120F1979007FD5
:104A7E000402189774F41217C5900A78782112154B
:104A8E0095A921120EE9743C69600A741E696005CD
:104A9E00740F69700B7AF07B0C120F197900800578
:104AAE007901120ABD7F0402189774F41217C5908B
:104ABE000A787821121595E522C394245026900A7F
:104ACE00787821121595E521C3945A5017900A78DB
:104ADE007821121595AC21AD227A977B0C120F130B
:104AEE00790080057901120ABD7F0402189774F6C9
:104AFE001217C574FD121737752102752200782121
:104B0E00121921EAFCEBFD74021217B3120A277474
:104B1E000212174D74011217A1E0F875F00A8531D3
:104B2E0082853283E0A42824F0F9740312174D7F96
:104B3E000202189774F61217C574FD1217377521F5
:104B4E00027522007821121921EAFCEBFD74021283
:104B5E0017B3120A27740212174D74021217A1E02E
:104B6E0024ADF8E434FFF974011217A1E0249F5428
:104B7E00FCFA7B00E8C39AF8E99400F97A0312165E
:104B8E00A4746A28F582E4341DF583E493F9740362
:104B9E0012174D7F0202189774F51217C574F8128A
:104BAE00173790058E7445F0A37426F07A777B1D27
:104BBE00120E8390058CE024F8F521A3E034FFF566
:104BCE00227A577B26120B1D120EEFE98521828564
:104BDE002283A3A3A3F07A4E7B26120B23E9852111
:104BEE0082852283A3A3F0902652E4938531828599
:104BFE003283F0902653E493C0E074011217A1D0D3
:104C0E00E0F0853182853283E0642070037430F0E9
:104C1E00AA31AB32120B1D120EEFE98521828522CD
:104C2E0083A3F07A5A7B26120B1DE9F52375F00645
:104C3E00C0F07A5D7B26120B1DE9D0F084F875F07A
:104C4E000AE523A428852182852283F07900740841
:104C5E0012174D7F03021897790002062D79000274
:104C6E00062D790002062D74F71217C5900907E07C
:104C7E005404600CEA4B6005120E9B8003120E95D5
:104C8E007F01021897C082C0837C407D40120E7750
:104C9E00D083D08202062D74F41217C58A218B227E
:104CAE00EA540FF9120E718521238522247404789B
:104CBE0023121715852321852422E521541FF9126D
:104CCE000EEF120E7174057821121715A921120E0E
:104CDE00EF120E717F0402189774F61217C5EAFED2
:104CEE00EBFFEE541FF9120EEF120E718E218F2272
:104CFE0074057821121715AE21AF22EEF8EFF97A6E
:104D0E003C7B001216ACEAF9120EEF120E71EEF8A1
:104D1E00EFF97A3C7B001216ACE8F9120EEF120E88
:104D2E00717F0202189774F71217C5EAFE7C4E7D4A
:104D3E0040120E77EE2402C0E090058CE0F8A3E05E
:104D4E00C824FCF582E834FFF583D0E0F07F010241
:104D5E001897C082C083E9F8900A7FE0F9C3985093
:104D6E0025900A7CE0F9A3E0C92409F582E439F51F
:104D7E0083E0F9A3E0F5838982E0D2E5F07900D0F3
:104D8E0083D08202062DE8C39950F2E8900A7EF095
:104D9E00790180EBC082C083900907E0540460055E
:104DAE0079AA120E71D083D08202062D74F01217DA
:104DBE00C58A278B2889258C22EDFF74101217A126
:104DCE00E0F521FC7D00120E897E008041A3A3A395
:104DDE00A3A3A3A3A3E0FAC39F40328F82A8828528
:104DEE002123E82523FCE43400FDEA9CE49DC36501
:104DFE00D033501974012EC0E0EAC398F895E0F94B
:104E0E00E52728F582E52839F583D0E0F00EEEC3CC
:104E1E0095225011EEFAA925120A878A828B83E514
:104E2E0082458370A87F08021897C082C083E9FA72
:104E3E00900902E054807016900907E05404600E49
:104E4E0074026A600574036A700479008002790145
:104E5E00D083D08202062D02062D74F01217C58A59
:104E6E00828B837825121595E526F521E52514FA12
:104E7E00E521C3942150117959120A878A238B2474
:104E8E00AE23AF24780080157999120A878A238B76
:104E9E0024AE23AF2474E02521F521780174016539
:104EAE0021700AEEFAEFFB120B2F024F79E521C3A8
:104EBE009404400974FA2521C3940250257C3C7D4C
:104ECE0041E521A2E0E433F5217522007402782138
:104EDE00121724EE2521F8E43FF9E82404FAE43908
:104EEE008048740168607B740A652170097C147DAA
:104EFE0041EE240C803174F52521C39402501C7CA4
:104F0E00287D41E52175F003A4F8A9F0EE28F8EF0D
:104F1E0039F9E824EDFAE934FF800F740E6521703B
:104F2E000F7C147D41EE2CFAE43FFB120E77803B92
:104F3E00E521C3940A402BE52124F6F8E434FFF969
:104F4E007A097B001216A4EAF52160067404652125
:104F5E0070047902800EEA6009C394045004790348
:104F6E0080027904EEFAEFFB120B297F08021897E4
:104F7E0002062D74F01217C58A218B228923900503
:104F8E008EE0FAA3E0FB120B2F8521828522837817
:104F9E0025121595E52514FA74BF55234480F91290
:104FAE000A877C407D40120E777F08021897C082D8
:104FBE00C0837ACB7B23120E83D083D08202062D40
:104FCE00C082C0837ACF7B23120E83D083D082021D
:104FDE00062DC082C0837AEF7B23120E83D083D03E
:104FEE008202062DC082C0837AF77B23120E83D0F5
:104FFE0083D08202062D74F41217C5741E12173751
:10500E00EAFEEBFF7907120B47E9600302513E906F
:10501E000A7FE0FA900A7EF090058EE0F8A3E0F9A0
:10502E00E849700FEA7004795E80027954120E9589
:10503E0002513EEA70077A037B24120E8375210219
:10504E007821121925900A7EE0C333FD8E828F835C
:10505E007821121595AC21791274011217B3120B27
:10506E0053740112174D7E008025EF25E0F8E433CE
:10507E00F974C428F582740639F583A3A3A3A3E0BB
:10508E00FAA3E0FB120B3B0FEFC3940E40DC0EEEC7
:10509E00C39402400302513E8E82AA8285318285DC
:1050AE003283E5822AF582E43583F583E0F86015D4
:1050BE0074FF28FA7912120A878B22EA2409FCE47B
:1050CE003522FD804F7521E07522007821121921BD
:1050DE00900A7EE025E02A540775F01CA4F8A9F08A
:1050EE00E0A2E2E43375F0E0A4FAABF074082AFA19
:1050FE00741B3BFBEA28FCEB39FD74041217B31248
:10510E000D33740212174D74021217AB88218922C7
:10511E00AC21AD2275211C75220078211219217A3D
:10512E00C87B06120A27740212174D7F0002509692
:10513E0074E212174D7F0402189702062DC082C02A
:10514E00837A0B7B24120E83D083D08202062D022B
:10515E00062D74F41217C574FD12173775210378D6
:10516E00211219257D008A828B837821121595AC28
:10517E0021791874011217B3120B53740112174DC3
:10518E007A037B24120E837F0080147902EA2AFAB6
:10519E00E433FB74912AFA740C3BFB120E6B0FEF87
:1051AE00C3940350308F82AA82853182853283E583
:1051BE00822AF582E43583F583E0F860CE74FF2809
:1051CE00FA7918120A878B22EA2409FAE43522FBAF
:1051DE007402F980C6740312174D7F040218977477
:1051EE00F41217C5EAFEEBFF75210C75220078212B
:1051FE0012192190058EE0FCA3E0FD7AC87B061201
:10520E000A27740212174D8E828F837821121595FC
:10521E00E52114FAE522247F4480F9120A879005CD
:10522E008EEAF0A3EBF07A137B24120E837F040236
:10523E001897C082C0837A337B24120E83D083D01A
:10524E008202062D74F01217C5EAFEEBFF89217556
:10525E00230C752400782312192190058EE0FCA3EF
:10526E00E0FD7AC87B06120A27740212174D9006CB
:10527E00C8E0A2E09006D4500474018001E4F08EE0
:10528E00828F837825121595E52514FA74BF552162
:10529E004480F9120A8790058EEAF0A3EBF07A3B70
:1052AE007B24120E837F0802189774F01217C5EA3A
:1052BE00FEEBFF892175230C75240078231219212A
:1052CE0090058EE0FCA3E0FD7AC87B06120A2774D7
:1052DE000212174D8E828F837825121595E52514AF
:1052EE00FA74BF55214480F9120A8790058EEAF0B0
:1052FE00A3EBF07A577B24120E837F080218977463
:10530E00F61217C5E9FEECFFEE700F7C497D4012D8
:10531E000E77120B4D7F02021897C39403506890BC
:10532E000D05E0F5216005C3940440037521047456
:10533E00016E700AEFA2E050D9EA24088008EFA2AD
:10534E00E150CFEA240CF8E43BF990058EE8F0A387
:10535E00E9F07A677B24120E837404C39521F5213C
:10536E0095E0F52274027821121724C39521F8E4F2
:10537E009522F990058CE028F8A3E039F990058C78
:10538E00E8F0A3E9F0808BEEC3940B408574106EA9
:10539E007083EFA2E74003025320EA2404F8E43BB3
:1053AE00F990058EE8F0A3E9F07A7B7B24120E8348
:1053BE0002532074F01217C574EC121737EAFEEB85
:1053CE00FF74041217A1E4F0A3F0A3F0A3F0EEFC17
:1053DE00EFFDAA31AB32120ED17521007522007588
:1053EE002300752400901AB778251215A48E828F8B
:1053FE008378251211E47010900902E05480600841
:10540E007901120E9502559774031217A1E0FA60F6
:10541E000302578A74021217A1E0F87490687003A1
:10542E0002558A740B6860030254F174011217A1BD
:10543E00E0600302558A853182853283E0C394068B
:10544E00400302558AE0FA7902120A878A218B22DA
:10545E00AE21AF22EE4F6014EE240CF582E43FF540
:10546E00831215F674041217A11216028531828565
:10547E003283E0701474011217A1E0F912098B8ABD
:10548E00218B228C238D248022E014FA7902120AB9
:10549E00878A218B22AE21AF22EE4F6022EE240CA2
:1054AE00F582E43FF583782112159574041217A145
:1054BE0078211214DC74041217A178211215B790FA
:1054CE000902E0548070030255878531828532834C
:1054DE00E0790570077AB27B1D02556E7AB67B1D98
:1054EE00025577740C6860030255A174011217A15E
:1054FE00E0600302558A853182853283E0C39402CF
:10550E00507AE07021790012098B8A218B228C232C
:10551E008D24900BC578211214DC74041217A17817
:10552E00211215B78023E014FA7903120A878A2113
:10553E008B22AE21AF22EE4F600F8E828F8312151B
:10554E00F674041217A1121602900902E05480603C
:10555E0028853182853283E0790570097ABB7B1DFF
:10556E0012073380147AC17B1D1207338531828571
:10557E003283E044809008C4F0752104A92174049C
:10558E001217A11215C6120AB7741412174D7F08FE
:10559E0002189774FE68702874011217A1E070DC6F
:1055AE00853182853283E060D3E0C3940D50CDE027
:1055BE0014FA7902120A877C4D7D40120E7780BC58
:1055CE00853182853283E060030256A2E8702A7428
:1055DE00011217A1E0F9C3940550A112098B7404AE
:1055EE001217A11215D275210474011217A1E0F938
:1055FE007A077B2512073380837401687059740112
:10560E001217A1E0F9C39405400302558A752108CB
:10561E007821121921120A57EAFCEBFD740E1217AB
:10562E00B3120A27740212174D740C1217A17821A7
:10563E0012159574101217A178211214DC7404122D
:10564E0017A178211215B775210474011217A1E064
:10565E00F97A0B7B25809D740268600302558A746B
:10566E00011217A1E0F9C39405400302558A120AEC
:10567E00578B22EA2404FCE43522FD74041217B37E
:10568E00120ED175210474011217A1E0F97A0F7B65
:10569E0025025602E0C3940D400302558AE8C394D6
:1056AE0003400302558A74011217A1E0C39405400A
:1056BE0003025597853182853283E014FA790212FE
:1056CE000A878A218B22AE21AF2274021217A1E023
:1056DE00F8741328F582E43425F583E493FA740103
:1056EE001217A1E075F00CA4F8A9F0EE28F8EF3926
:1056FE00F9E82AFCE439FD74041217B3120ED1EE48
:10570E004F700D74041217A1E4F0A3F0A3F0A3F0F0
:10571E00752104900902E05480700302558A7402C8
:10572E001217A1E0F8700D74011217A1E0F97A16A4
:10573E007B25801D740168700D74011217A1E0F9AC
:10574E007A1D7B25800B74011217A1E0F97A267B56
:10575E0025120733853182853283E0C3940AE050E7
:10576E000944809008C5F002558A24F644809008BA
:10577E00C5F07A2F7B2512072702558A74026A60BC
:10578E000302592574021217A1E0F8740168703FE4
:10579E00853182853283E0600302558A74011217C7
:1057AE00A1E0F9740169701B9009E81215F67404F2
:1057BE001217A11216027521027A317B2512072DBE
:1057CE0002558A120B59E9600302558A0258FA747F
:1057DE000268703A853182853283E0600302558A11
:1057EE0074011217A1E0F97401697017900A011281
:1057FE0015F674041217A11216027521037A387B5E
:10580E002580BA120B59E9600302558A805B740336
:10581E0068705E853182853283E0600302558A743A
:10582E00011217A1E0F9C3940250189009B612158F
:10583E00F674041217A11216027521037A3B7B250A
:10584E000257CB74026970189009CF1215F67404C2
:10585E001217A11216027521037A437B250257CB2C
:10586E00120B59E9600302558A7903120E9B0255F9
:10587E0097740468702B853182853283E060030251
:10588E00558A74011217A1E0600302558A90099D92
:10589E001215F674041217A1121602752103025581
:1058AE008A740668704B853182853283E06003020C
:1058BE00558A74011217A1E0F9C39402502590097C
:1058CE009BE0FCA3E0FD3395E0FE74041217A1ECFF
:1058DE00F0A3EDF0A3EEF0A3F07521027A4B7B2539
:1058EE00025784120B59E9600302558A7902025855
:1058FE0079748068600302558A7525067825121919
:10590E002579128E828F837825121595AC25AD26BA
:10591E007AF37B22025B5374036A6003025B277582
:10592E002510782512192579088E828F83782512F5
:10593E001595E97825121440AC25AD267A877B247F
:10594E00120EB3740112174D74081217A1EAF0A3C8
:10595E00EBF074081217A1E0F8A3E0F9E849700320
:10596E00025AF774081217A1E0F8A3E0C82407F54D
:10597E0082E438F583E493F9120C13E96008790494
:10598E00120ABD02559774081217A1E02403F8A35A
:10599E00E03400F9740A1217A1E8F0A3E9F0740AD2
:1059AE001217A1E0F8A3E0F5838882E493FC743F1C
:1059BE005CC39420400302558A853182853283E090
:1059CE007030900907E05404600302558A740A127D
:1059DE0017A1E0F8A3E0F5838882E493F9120A99FF
:1059EE0074041217A1EAF0A3EBF0A3E4F0A3F00203
:1059FE0058A98C8285822174C05C6036EC543FF5C8
:105A0E00217403782112172474602521F5827430D5
:105A1E003522F583E493F8A3E4935403F97A027BD9
:105A2E00001216A48821E9F5223395E0F523F5241A
:105A3E00801E7403782112172474602521F5827458
:105A4E00303522F583E493F521A3E4935403F52234
:105A5E00853182853283E0F525E4F526F527782514
:105A6E0079211212665003025597900902E0548074
:105A7E007074853182853283E014FAECF9120A874C
:105A8E0090058EEAF0A3EBF090058EE0F8A3E0F916
:105A9E00E849701B74081217A1E0F8A3E0F583889B
:105AAE0082A3A3A3A3E493F96005120E9580347428
:105ABE000A1217A1E0F8A3E0F5838882E493F9EEC9
:105ACE00FAEFFB74081217A1E0F8A3E0F5838882C1
:105ADE00A3A3A3A3A3E493C0E0740193F583D082A0
:105AEE001217C302559702559790260CC082C08399
:105AFE008E828F837825121595902608782512159B
:105B0E002ED083D08278251211F9600302558AEEC9
:105B1E00FAEFFB120B5F02559774046A6003025E84
:105B2E007074021217A1E0F97035752549782512A7
:105B3E00192579128E828F837825121595AC25AD95
:105B4E00267AD17B1D120EB3740112174D8A258B46
:105B5E0026AC25AD26EC4D700302558A025E047408
:105B6E00016960087402696003025CD37401121744
:105B7E00A1E0600302558A853182853283E060039D
:105B8E00025C2475251C7526007825121921E975ED
:105B9E00F01CA4F8A9F074D028F8741A39F9E82486
:105BAE00E4FCE934FFFD7AC87B06120D3374021251
:105BBE00174D8049900902E0548060148E828F83C5
:105BCE00A3A3A3A3E0F525782579211211CF702583
:105BDE008521258522267401782512172474C42563
:105BEE0025F58274063526F583A3A3A3A3E0FAA3B5
:105BFE00E0FB120B35901AFA782112149E900D02CA
:105C0E00E0F525E4F526F527F528782579211212F9
:105C1E006640A1025597E0C39409400302558A7568
:105C2E00251C752600782512192174021217A1E081
:105C3E0075F01CA4FAABF0E975F0E0A4F8A9F074C5
:105C4E000828F8741B39F9E82AF8E93BF9E8240426
:105C5E00FCE934FFFD7AC87B06120D33740212176D
:105C6E004D8049900902E0548060148E828F83A388
:105C7E00A3A3A3E0F525782579211211CF702585F0
:105C8E0021258522267401782512172474C4252512
:105C9E00F58274063526F583A3A3A3A3E0FAA3E049
:105CAE00FB120B3B901AFA782112149E900D04E011
:105CBE00F525E4F526F527F52878257921121266C3
:105CCE0040A1025597740369705D74011217A1E02B
:105CDE00600302558A853182853283E07003025556
:105CEE008AE0C3941A400302558A75250275260070
:105CFE00782512192174021217A1E075F003A4F889
:105D0E00AAF0E42AF9741E39F9E824FDFCE934FFFF
