:020000040000FA
:060000000206000232AD11
:03000B000232CAF4
:030013000232D2E4
:03001B000232EFBF
:03002B0002331588
:03003B0002336528
:030043000233790C
:03004B0002342C50
:030053000234F282
:03005B00023572F9
:030063000235B8AB
:1001000000002110422063308440A550C660E77093
:10011000088129914AA16BB18CC1ADD1CEE1EFF13B
:100120003112100273325222B5529442F772D662E3
:10013000399318837BB35AA3BDD39CC3FFF3DEE38B
:100140006224433420040114E664C774A444855433
:100150006AA54BB528850995EEE5CFF5ACC58DD5DB
:100160005336722611163006D776F6669556B44683
:100170005BB77AA719973887DFF7FEE79DD7BCC72B
:10018000C448E5588668A7784008611802282338D3
:10019000CCC9EDD98EE9AFF9488969990AA92BB97B
:1001A000F55AD44AB77A966A711A500A333A122A23
:1001B000FDDBDCCBBFFB9EEB799B588B3BBB1AABCB
:1001C000A66C877CE44CC55C222C033C600C411C73
:1001D000AEED8FFDECCDCDDD2AAD0BBD688D499D1B
:1001E000977EB66ED55EF44E133E322E511E700EC3
:1001F0009FFFBEEFDDDFFCCF1BBF3AAF599F788F6B
:100200008891A981CAB1EBA10CD12DC14EF16FE14A
:100210008010A100C230E320045025404670676082
:10022000B9839893FBA3DAB33DC31CD37FE35EF39A
:10023000B1029012F322D2323542145277625672D2
:10024000EAB5CBA5A89589856EF54FE52CD50DC5EA
:10025000E234C324A0148104667447642454054422
:10026000DBA7FAB79987B8975FE77EF71DC73CD73A
:10027000D326F2369106B016576676761546345672
:100280004CD96DC90EF92FE9C899E9898AB9ABA98A
:100290004458654806782768C018E1088238A328C2
:1002A0007DCB5CDB3FEB1EFBF98BD89BBBAB9ABBDA
:1002B000754A545A376A167AF10AD01AB32A923A12
:1002C0002EFD0FED6CDD4DCDAABD8BADE89DC98D2A
:1002D000267C076C645C454CA23C832CE01CC10C62
:1002E0001FEF3EFF5DCF7CDF9BAFBABFD98FF89F7A
:1002F000176E367E554E745E932EB23ED10EF01EB2
:1003000000010203040506070809AAAAAAAAAAAAC4
:100310000A0B0C0D0E0F10111213AAAAAAAAAAAA50
:100320001415161718191A1B1C1DAAAAAAAAAAAADC
:100330001E1F2021222324252627AAAAAAAAAAAA68
:1003400028292A2B2C2D2E2F3031AAAAAAAAAAAAF4
:1003500032333435363738393A3BAAAAAAAAAAAA80
:100360003C3D3E3F404142434445AAAAAAAAAAAA0C
:10037000464748494A4B4C4D4E4FAAAAAAAAAAAA98
:1003800050515253545556575859AAAAAAAAAAAA24
:0A0390005A5B5C5D5E5F60616263B2
:10039C0000010203040506070809101112131415B5
:1003AC001617181920212223242526272829303115
:1003BC003233343536373839404142434445464769
:1003CC0048495051525354555657585960616263BD
:1003DC00646566676869707172737475767778791D
:1003EC008081828384858687888990919293949565
:1003FC0096979899FFFFFFFFFFFFFFFFFFFFFFFF9F
:10040C00FFFFFFFFFFFFFFFFFFFFFFFFFFFFFFFFF0
:10041C00FFFFFFFFFFFFFFFFFFFFFFFFFFFFFFFFE0
:10042C00FFFFFFFFFFFFFFFFFFFFFFFFFFFFFFFFD0
:10043C00FFFFFFFFFFFFFFFFFFFFFFFFFFFFFFFFC0
:10044C00FFFFFFFFFFFFFFFFFFFFFFFFFFFFFFFFB0
:10045C00FFFFFFFFFFFFFFFFFFFFFFFFFFFFFFFFA0
:10046C00FFFFFFFFFFFFFFFFFFFFFFFFFFFFFFFF90
:10047C00FFFFFFFFFFFFFFFFFFFFFFFFFFFFFFFF80
:10048C00FFFFFFFFFFFFFFFFFFFFFFFFFFFFFFFF70
:10049C00FFFFFFFFFFFFFFFFFFFFFFFFFFFFFFFF60
:1004AC00FFFFFFFFFFFFFFFFFFFFFFFFFFFFFFFF50
:1004BC00FFFFFFFFFFFFFFFFFFFFFFFFFFFFFFFF40
:1004CC00FFFFFFFFFFFFFFFFFFFFFFFFFFFFFFFF30
:1004DC00FFFFFFFFFFFFFFFFFFFFFFFFFFFFFFFF20
:1004EC00FFFFFFFFFFFFFFFFFFFFFFFFFFFFFFFF10
:1004FC00FFFFFFFFFFFFFFFFFFFFFFFFFFFFFFFF00
:10050C00FFFFFFFFFFFFFFFFFFFFFFFFFFFFFFFFEF
:10051C00FFFFFFFFFFFFFFFFFFFFFFFFFFFFFFFFDF
:10052C00FFFFFFFFFFFFFFFFFFFFFFFFFFFFFFFFCF
:10053C00FFFFFFFFFFFFFFFFFFFFFFFFFFFFFFFFBF
:10054C00FFFFFFFFFFFFFFFFFFFFFFFFFFFFFFFFAF
:10055C00FFFFFFFFFFFFFFFFFFFFFFFFFFFFFFFF9F
:10056C00FFFFFFFFFFFFFFFFFFFFFFFFFFFFFFFF8F
:10057C00FFFFFFFFFFFFFFFFFFFFFFFFFFFFFFFF7F
:10058C00FFFFFFFFFFFFFFFFFFFFFFFFFFFFFFFF6F
:10059C00FFFFFFFFFFFFFFFFFFFFFFFFFFFFFFFF5F
:1005AC00FFFFFFFFFFFFFFFFFFFFFFFFFFFFFFFF4F
:1005BC00FFFFFFFFFFFFFFFFFFFFFFFFFFFFFFFF3F
:1005CC00FFFFFFFFFFFFFFFFFFFFFFFFFFFFFFFF2F
:1005DC00FFFFFFFFFFFFFFFFFFFFFFFFFFFFFFFF1F
:1005EC00FFFFFFFFFFFFFFFFFFFFFFFFFFFFFFFF0F
:1005FC00FFFFFFFF75D00075818F753131753203A8
:10060C0075A001023AF5F5F0E5A0C394015403C0BE
:10061C00E0E5A0C3940154FC45F0C32401F5A0E42B
:10062C0073D0E0F5F0E5A0C3940154FC45F0C3246D
:10063C0001F5A022D083D082E5A0C394015403C05D
:10064C00E0E493C0E0740193C0E07402935403F5AA
:10065C00F0E5A0C3940154FC45F02401F5A022E47C
:10066C00900331784C790D8002F0A3D8FCD9FA7A3A
:10067C007C7B0F9006A1780379018015E493A3ADE0
:10068C0082AE838A828B83F0A3AA82AB838D828E07
:10069C0083D8E9D9E7850D12064018E4001206400C
:1006AC0046E4001206400DE50012064037E6001243
:1006BC000640D7E600120640F4E60012064015E7A5
:1006CC00001206405DE70012064097E70012064054
:1006DC006EF3001206407FF30012064004F4001281
:1006EC0006404A7F00120640837F001206409E7F20
:1006FC0000120640D4F20012064033F300120640FA
:10070C009896021206405C9702120640E497021279
:10071C0006401D9802120640579802120640B798E0
:10072C0002120640449902120640689902120640D1
:10073C008E9902120640419A021206404D9E0212F8
:10074C000640349F021206409C9F021206401FA0D6
:10075C00021206403FA0021206405CA002120640A4
:10076C000BA10212064044A10212064007F400122B
:10077C000640227000120640997000120640B470B8
:10078C0000120640EB710012064001720012064086
:10079C00CE74001206400F78001206401B7900122E
:1007AC0006402B7B00120640137C0012064061F0C1
:1007BC000012064072F000120640DDF000120640F6
:1007CC009E9100120640189200120640AB92001245
:1007DC000640359300120640649300120640C893FD
:1007EC00001206402B9400120640B79400120640EB
:1007FC00EF94001206401E95001206403095001230
:10080C000640A9980012064061990012064087998B
:10081C0000120640C29900120640F19900120640DF
:10082C00FF9900120640D59F00120640A9A00012A5
:10083C000640E9A10012064057A200120640C2A2CF
:10084C0000120640ECA200120640E0F40012064032
:10085C00CBD20012064019D40012064049D4001223
:10086C00064077D400120640A3D400120640A6D44A
:10087C0000120640DBD40012064044D5001206409C
:10088C0041D70012064066D700120640757C001254
:10089C000640D27C00120640697D00120640857E1F
:1008AC0000120640957E00120640B77E00120640EC
:1008BC00BA7E00120640BD7E00120640C07E0012B9
:1008CC000640C37E00120640357F001206405BEBEB
:1008DC00001206405EEB00120640B1EB001206401F
:1008EC00D8EB00120640F1EB001206400AEC0012A5
:1008FC0006401CEC00120640C1EC0012064087CDED
:10090C0000120640F8CD001206400ECE0012064032
:10091C003ACE001206404CCE001206405ACE0012BF
:10092C00064073CE00120640A8CE00120640BCCE84
:10093C000012064002CF0012064076CF001206408D
:10094C00C9CF0012064046D00012064049D0001212
:10095C000640DAD000120640F3D0001206400FD148
:10096C000012064071D100120640B1D100120640AF
:10097C0006D2001206404BD2001206409BD2001247
:10098C0006400080021206409580021206409880B4
:10099C00021206409B8002120640E08002120640C2
:1009AC00E38002120640F180021206406B870212AD
:1009BC0006406E8702120640C28702120640488823
:1009CC00021206405089021206407D89021206402E
:1009DC00F189021206409E8F02120640C58F021248
:1009EC0006406091021206405192021206406A9231
:1009FC0002120640939602120640E6C00012064010
:100A0C00A3C6001206406DB80012064086B800124C
:100A1C000640C8B8001206400BB9001206404DB98A
:100A2C00001206408BB900120640F3B900120640C2
:100A3C005CBA001206409ABA00120640CEBA0012F6
:100A4C0006400ABB00120640BFBB00120640DABBD0
:100A5C000012064018BC001206405DBC0012064095
:100A6C00B8BC00120640FFBC0012064010BD0012BC
:100A7C00064088BD00120640CEBD0012064057BE8F
:100A8C00001206402FBF001206406CBF0012064039
:100A9C00B3BF0012064005C0001206405DC0001234
:100AAC000640E3C000120640E23C00120640E53C62
:100ABC0000120640493D00120640D83D0012064087
:100ACC001A3E00120640383F001206406C3F0012DE
:100ADC000640CE3F001206401E4000120640564013
:100AEC00001206407A40001206403B4400120640B9
:100AFC00A94600120640AC4600120640E34600121E
:100B0C000640ED46001206406B4700120640B24705
:100B1C0000120640BD4B00120640034C001206406A
:100B2C00364D00120640544D00120640664D001220
:100B3C000640A84D00120640F54D00120640214E0D
:100B4C0000120640634E001206407B4E0012064017
:100B5C00F94E00120640264F00120640294F001293
:100B6C0006403F50001206404250001206407D5095
:100B7C00001206408F5000120640A1500012064091
:100B8C00B35000120640C550001206400952001224
:100B9C0006400C52001206401E5200120640215212
:100BAC0000120640AE5200120640015300120640DD
:100BBC00135300120640795300120640CE53001214
:100BCC000640825400120640AB62001206401064CC
:100BDC000012064013650012064023650012064001
:100BEC00806600120640BA67001206404C6800127C
:100BFC000640BD6900120640F26900120640F76912
:100C0C0000120640FE6B00120640306E00120640C9
:100C1C00F36E0012064055A10212064013A60212F2
:100C2C000640B5AA0212064063AB0212064086C704
:100C3C0000120640B3C700120640F6C70012064069
:100C4C0026C8001206405CC800120640B4C8001248
:100C5C000640FBC8001206405FC9001206406DCA70
:100C6C00001206403ACB0012064040CD001206405E
:100C7C00DBE90012064018EA0012064050EA0012A6
:100C8C000640B9EA00120640FEEA0012064025EBC7
:100C9C0000120640B8E700120640D9E700120640E1
:100CAC00F7E70012064057E8001206407AE80012F7
:100CBC000640E2E800120640A9E9001206404DEF9A
:100CCC0000120640D2EF00120640FDEF0012064063
:100CDC0039EE00120640BBEE00120640BEEE0012CA
:100CEC000640E9EE001206408DDC00120640A9DC3D
:100CFC0000120640D2DC0012064071DD00120640E4
:100D0C0019DE001206405ADE0012064063DF0012A4
:100D1C00064053AF0012064095AF00120640ABAF31
:100D2C0000120640B9AF0012064075B10012064021
:100D3C00FCB10012064037B300120640FCB300129F
:100D4C00064059B4001206406DB400120640D4B4EB
:100D5C00001206404EB50012064062B50012064065
:100D6C00ACB500120640D0B500120640CAB600124F
:100D7C00064039B7001206409EB70012064004B870
:100D8C000012064040B8001206406CE0001206400B
:100D9C0029E100120640BEE20012064043E30012B5
:100DAC000640DBE3001206402BF2001206407FF2F5
:100DBC00001206409BF20012064016A300120640D9
:100DCC005FA300120640A2A300120640D4A4001296
:100DDC000640EAA40012064026A5001206404BA5C8
:100DEC000012064075A500120640B8A50012064078
:100DFC005BA60012064039A70012064091A700120C
:100E0C00064070A80012064030A9001206407BA9CB
:100E1C0000120640E0A90012064084AD0012064004
:100E2C00F4AD001206400EAE0012064028AE0012C1
:100E3C00064085AE00120640E9AE001206408BF467
:100E4C00001206409BF4001206400080001206407F
:100E5C006980001206409E8000120640218100121B
:100E6C0006406181001206407F8100120640B68167
:100E7C0000120640ED81001206401D820012064051
:100E8C00088600120640878800120640CC880012A3
:100E9C000640DC88001206400089001206401189C9
:100EAC0000120640228900120640518900120640A9
:100EBC006389001206407489001206404A8A0012A7
:100ECC000640848A00120640BE8A00120640F78A49
:100EDC0000120640358B00120640528B0012064061
:100EEC006F8B001206408C8B00120640AE8B0012EA
:100EFC000640BE8B00120640D08B001206400C8CB4
:100F0C0000120640558C001206402B8D0012064034
:100F1C00DE8D00120640F28D001206401B8E001270
:100F2C000640418E001206405A8E00120640738E07
:100F3C0000120640A18E00120640048F00120640DB
:100F4C00368F00120640259000120640B190001218
:100F5C000640B49000120640B7900012064017915C
:100F6C0000120640529100120640559100120640A4
:100F7C0058910012064071F100120640C4F10012A3
:100F8C000640D8F100120640E8F10012064060B0AD
:100F9C000212064001B402120640D3EC00120640C5
:100FAC0005ED0012064017ED0012064030ED001260
:100FBC000640A2ED0012064019EE001206402FEE7C
:100FCC000012064034EE0012064066AB02120640D8
:100FDC009DAB0212064040AC021206404CAD021210
:100FEC0006409BAE02120640C4AE0212064096AFFB
:100FFC0002120640A7AF02120640B7AF021206401B
:10100C00DCD70012064026D8001206409BD90012ED
:10101C00064085DB00120640C3DB0012064037DCBD
:0D102C000012064066F50012064027F50090
:0D11C0004431343346393832315330330076
:1011CE0001E76670100809E766700A0809E766709D
:1011DE00040809E76622E066701008A3E066700A4C
:1011EE0008A3E066700408A3E06622E49366701319
:1011FE000874019366700C08740293667005087487
:10120E0003936622C3E7960809E7960809E796084E
:10121E0009E796A2D265D03322C3E09608A3E096E2
:10122E0008A3E09608A3E096A2D265D03322C0218F
:10123E00C3E49396F5210874019396422108740233
:10124E009396422108740393964221A2D265D0331D
:10125E00E5217001D3D02122C3E7960809E796084D
:10126E0009E7960809E79622C3E09608A3E09608D8
:10127E00A3E09608A3E09622C021C3E096F52108CC
:10128E00A3E096422108A3E096422108A3E09645EA
:10129E00217001D3D02122C021C3E49396F52108F9
:1012AE0074019396422108740293964221087403A6
:1012BE00939645217001D3D02122080808EAC0E098
:1012CE00EBC0E086F0E7A4FA180986F0E7A42AFA44
:1012DE00180986F0E7A42AFA180986F0E7A42AFA74
:1012EE001986F0E7A4FBE5F02AFA190886F0E7A4C0
:1012FE002BFBE5F03AFA190886F0E7A42BFBE5F094
:10130E003AFA18180986F0E7A4C5F02BFBE43AFA6E
:10131E001908E7C5F0C6A426F6E5F03BFBE43AFA59
:10132E001886F0E7A4F6E5F00826F6E43B08F6E4A6
:10133E003A08F6D0E0FBD0E0FA22E4CFC0E0E4CEEB
:10134E00C0E0E4CDC0E0E4CCC0E075F020E626F6C7
:10135E0008E633F608E633F608E633F6181818EC06
:10136E0033FCED33FDEE33FEEF33FFC3EC9709EDA7
:10137E009709EE9709EF97191919400FFFEC97FC93
:10138E0009ED97FD09EE97FE191906D5F0BFECF79A
:10139E0009EDF709EEF709EFF7191919D0E0FCD0AE
:1013AE00E0FDD0E0FED0E0FF2212141F1818181234
:1013BE00134812140E1919192212140E191919089C
:1013CE000808E618181820E7E012134812141F1820
:1013DE00181822090909E719191920E7DC08080865
:1013EE00E618181820E70302134812141F181818CD
:1013FE0012134812141F18181812140E1919192244
:10140E00E4C397F709E497F709E497F709E497F728
:10141E0022E4C396F608E496F608E496F608E496F7
:10142E00F622C6F4C608C6F4C608C6F4C608C6F444
:10143E00C6226017080808C6A2E713C618C613C648
:10144E0018C613C618C613C6D5E0E92260160808DA
:10145E0008C6C313C618C613C618C613C618C613B5
:10146E00C6D5E0EA22700908080822601618181876
:10147E00C6C333C608C633C608C633C608C633C687
:10148E00D5E0EA22E627F60809E637F60809E63738
:10149E00F60809E637F622E026F608A3E036F60847
:1014AE00A3E036F608A3E036F622E49326F6087497
:1014BE00019336F60874029336F60874039336F6E3
:1014CE0022E026F008A3E036F008A3E036F008A3E9
:1014DE00E036F022C3E697F60809E697F60809E625
:1014EE0097F60809E697F622C3E0C696F608A3E03B
:1014FE00C696F608A3E0C696F608A3E0C696F622B0
:10150E00C3E096F008A3E096F008A3E096F008A3D7
:10151E00E096F022E657F60809E657F60809E65770
:10152E00F60809E657F622E056F608A3E056F60846
:10153E00A3E056F608A3E056F622E49356F6087496
:10154E00019356F60874029356F60874039356F6F2
:10155E0022E056F008A3E056F008A3E056F008A3E8
:10156E00E056F022E647F60809E647F60809E64790
:10157E00F60809E647F622E49346F6087401934608
:10158E00F60874029346F60874039346F622E04674
:10159E00F008A3E046F008A3E046F008A3E046F00A
:1015AE0022E0F608A3E0F608A3E0F608A3E0F62290
:1015BE00E493F608740193F608740293F608740324
:1015CE0093F622E6F008A3E6F008A3E6F008A3E6F9
:1015DE00F022E0FAA3E0FBA3E0FCA3E0FD22EAF098
:1015EE00A3EBF0A3ECF0A3EDF022E0FCA3E0FDA34F
:1015FE00E0FEA3E0FF22ECF0A3EDF0A3EEF0A3EFEC
:10160E00F022E0F8A3E0F9A3E0FAA3E0FB22E8F071
:10161E00A3E9F0A3EAF0A3EBF022CAC0E0E6F0A340
:10162E0008DAFAD0E0FA22CAC0E0E0A3C582CCC53F
:10163E0082C583CDC583F0A3C582CCC582C583CDBB
:10164E00C583DAE6D0E0CA22CAC0E0E493A3C5821D
:10165E00CCC582C583CDC583F0A3C582CCC582C55A
:10166E0083CDC583DAE5D0E0CA22C58224FDC582CA
:10167E00C58334FFC58322C3E498F8E499F91216A2
:10168E00C68026C3E49AFAE49BFBE920E7E912162A
:10169E00C6E498F8E499F922C3E498F8E499F912AB
:1016AE0016C6E498F8E499F9C3E49AFAE49BFB228F
:1016BE00EB20E7CFE920E7E0B90010BB0008E88A8D
:1016CE00F084F8AAF022E4FBC8FA22EB70227B1019
:1016DE00C833C8C933C9335007C39AC3DBF2800677
:1016EE009A50012ADBEAC833F4C8C933F4C9FA2286
:1016FE0075F008E4C833C8C933C933C99AC99B50B9
:10170E0004C92AC93BD5F0ECFBC833F4C8E4C9FAC6
:10171E0022600D08C6A2E713C618C613C6D5E0F39D
:10172E0022600C08C6C313C618C613C6D5E0F42231
:10173E00700422600D18C6C333C608C633C6D5E082
:10174E00F41822253110AF08F531400C15328008FF
:10175E00F53140021532D2AF2200C0D0253110AF84
:10176E0008F531500C05328008F53150020532D2A1
:10177E00AFD0D0222531F58210AF08F531400C15CF
:10178E00328008F53140021532D2AF85328322C540
:10179E00822531C582C583353210AF07F532858279
:1017AE00318007F532858231D2AFC583222531F5DE
:1017BE0082E43532F583222531F8E43532F92225DB
:1017CE0031FAE43532FB222531FCE43532FD22E4D8
:1017DE00732531C582C0E0E53234FFC583C0E0E534
:1017EE0031C3958224F810AF08858332858231800B
:1017FE0008858332858231D2AFCEF0A3E520F0A3E7
:10180E007821E608F0A3DEFAEFF0A3E58124FAF8DA
:10181E00E608F0A3E608F0A3E608F0A30808E60839
:10182E00F0A3E608F0A315811581D0E0FED0E0F814
:10183E00158115811581E8C0E0EEC0E0222531C585
:10184E0082C0E0E53234FFC583C0E0E531C3958246
:10185E0024F910AF08858332858231800885833262
:10186E00858231D2AFCEF0A3E520F0A37821E60831
:10187E00F0A3DEFAEFF0A3E58124FBF8E608F0A36F
:10188E00E608F0A30808E608F0A3E608F0A3158121
:10189E001581D0E0FED0E0F815811581E8C0E0EEAC
:1018AE00C0E022853283853182E0A3FEE0A3F520DD
:1018BE007821E0A3F608DFFAE0A3FFE0A3C0E0E0A2
:1018CE00A3C0E0E0A3C0E0E0A3C0E0E0A3C0E0104E
:1018DE00AF088582318583328008858231858332D7
:1018EE00D2AFD083D08202062D853283853182E03D
:1018FE00A3FEE0A3F5207821E0A3F608DFFAE0A32B
:10190E00FFE0A3C0E0E0A3C0E0E0A3C0E0E0A3C01E
:10191E00E010AF088582318583328008858231855B
:10192E008332D2AFD083D0822274048006740280B8
:10193E00027401C0E0F404121782D0E012162822BD
:10194E007404800474028000CCC0E0EDC0E0E53188
:10195E00C39CCCAD3250011D10AF068C318D328040
:10196E00068C318D32D2AF121635D0E0FDD0E0FCB0
:10197E002274048000CCC0E0EDC0E0E531C39CCC05
:10198E00AD3250011D10AF068C318D3280068C3178
:10199E008D32D2AF121656D0E0FDD0E0FC22D083AD
:1019AE00D082E9C0E0E493A3C386F0C5F095F0F9C8
:1019BE0008E493A386F0C5F095F0700BE493A3C3EF
:1019CE00994005E9048002A3E475F002A42582F58E
:1019DE0082E5F03583F583D0E0F9E493A3C0E0E42B
:1019EE0093C0E022D083D082ECC0E0EDC0E0E4935F
:1019FE00A3FCE493A3FDED4C600D121A3EEC24FF04
:101A0E00FCED34FFFD80EFE493A3FCE493A3FDED26
:101A1E004C600D121A7DEC24FFFCED34FFFD80EFBF
:101A2E00D0E0FDD0E0FCE493A3C0E0E493C0E0225C
:101A3E00C0E0C3E49396087401939618400FE493A4
:101A4E0066700808740193661870007019A3A3C31A
:101A5E00E49396087401939618A3A3400DD0E0D09A
:101A6E00E0D0E0021A2EA3A3A3A3A3A3D0E022C02A
:101A7E00E0C0F088F0E4936670080874019366186D
:101A8E007000A8F0A3A3700BD0F0D0E0D0E0D0E0AF
:101A9E00021A2EA3A3D0F0D0E022001F0AFA00E112
:101AAE00F50564000000000000000A0000003F067B
:101ABE005B4F666D7D077F6F777C395E79710006AF
:101ACE00060606FFFFFFFF00029000FF0000000F5A
:101ADE0000000000004000000001001FF10004079C
:101AEE00060606B83E24031F1C1F1E1F1E1F1F1EA8
:101AFE001F1E1F0605030006030300050004163211
:101B0E002C0401000000180000003C000000805171
:101B1E00010080D6E3018151010007000000C4FFDF
:101B2E00FFFFE02E0C0110270A01401F0801881349
:101B3E000501B80B0301D0070201E8030A0A0019D8
:101B4E00400A800C200A6009180A4006100AB004E8
:101B5E000C0A2003080AF401050A9001040AC800C1
:101B6E00020A6400010AC000000000020202040220
:101B7E0006040A040E04120416041A041E04220497
:101B8E0026042A042E0432013301340438043C04A2
:101B9E004004440448044C0450015102D96204012B
:101BAE009C3C1D91BC749388C80000000800000086
:101BBE0013000000050000005F0000007000000030
:101BCE0010000000FA000000FC000000F800000009
:101BDE00300000000002000000008000A9ECFFFFB2
:101BEE0063000000941100007D150000E803000062
:101BFE00550CA309590CB509EAF48F04B004D85951
:101C0E00881354627C0113C4704964C1FE0013C46E
:101C1E00704991E2A9EFE83A64EF63041303F238D6
:101C2E008C06418432060000000000000000000017
:101C3E0031F4840031F48400B290625F99999D383A
:101C4E0099999D38F2388C06418432061211111181
:101C5E001111110405050204051A3C1E00000505AC
:101C6E00143C0502500000000000020000000000BD
:101C7E00000000CD130000471700000420200001D3
:101C8E004404000244040000440400114404001201
:101C9E0044040010440400214404002244040020A3
:101CAE004404003144040032440400304404004132
:101CBE004404004244040040440480D10B02020359
:101CCE000CD50B0103040501A30200000000800DDA
:101CDE00000000000004000000080060FAFFFFA0F2
:101CEE0005000000320000A30B00001A00000012D5
:101CFE00000000320000001F000000E02B3F00102B
:101D0E00B33C0091572C001C752C1C752C1C912C6F
:101D1E001C912C1C912C1C912C1C912C1C912C1C5C
:101D2E00912C1C912C1C912C1C912C1C912C1C91D7
:101D3E002C1C912C1C912C1C912C1C912C60AD2CCC
:101D4E0060AD2C3C0D2D3C0D2D00100000FFFFFF53
:101D5E00030305019999999999996162636465667E
:101D6E003E30030101950C02020300484740004833
:101D7E004FC00807060212000411090103100520C6
:101D8E00480400BF480440244814412C4811412AFD
:101D9E004811C1393902F7586C2222638387223EDB
:101DAE003E638387223E213D3D9291918491912DF8
:101DBE002D5E605F6C1515092222637F7878028193
:101DCE003278780281637478780281327478788EF2
:101DDE008E022E423B362B1F1F01010005041303FA
:101DEE000000A208D5350000A91D0302010005035D
:101DFE0033030000A208D5350000AF1D0305010016
:101E0E00800A0000000048300000000000000306B9
:101E1E00010705053B030000590B114A00000000A5
:101E2E000308010009053B030000610B114A000085
:101E3E0000000109010009053B030000650B114A72
:101E4E0000000000010C0100050733038000A2080A
:101E5E00D53500000000030F010041012B03800067
:101E6E006D0C164A00000000030102040501310248
:101E7E000000060D7A4A0000000003050200050A64
:101E8E00310200000A0D7A4A00000000030702002A
:101E9E000501310200000C0D7A4A00000000010815
:101EAE000200050110000000B50C200001C000006A
:101EBE0003010300050111000000C20C630001C004
:101ECE00000003020300050111000000110D1400B3
:101EDE0005C00000030303000501110000000F0DF3
:101EEE00020000C000000304030005011100000001
:101EFE00100D040000C000000305030005011100D1
:101F0E000000C30C630001C0000003060307092391
:101F1E0019000000450B3F420F8800000308030024
:101F2E00050111000000120D1E0005C00000030186
:101F3E000400058613030000370BE846000000007E
:101F4E0003020400298613030000310BE84600004B
:101F5E00B71D0303040005A012000000C40C00000E
:101F6E000000000003040407800101018000972691
:101F7E007F4A0000000003090400801301010001E4
:101F8E009126566E0000DD1D030B0400808A0201AF
:101F9E0000009C26566E00000000030C0400808A90
:101FAE00020100000627566E00000000030D04001B
:101FBE008090020100001027566E00000000030EF4
:101FCE0004002886130300002B0BE8460000BA1D00
:101FDE00030F0400050B12000000E40C00000000CB
:101FEE0000000301050780020400000048090000FC
:101FFE000000000003080500800404000000710CBE
:10200E000000000000000301060005013002000080
:10201E00050D844A000000000301070005011002AF
:10202E000000BF0C3D3F0000000003030700050148
:10203E0010020000C00C3D3F000000000305070029
:10204E00050110020000C10C3D3F0000000003011D
:10205E0008000501300200000D0DDA4A00000000F4
:10206E00030208000501310200000E0DDA4A0000DD
:10207E00000003010906050110020000FB0CDF4AF7
:10208E000000000003010A00050413020000910C79
:10209E002B6E0000000003020A05050A1100000065
:1020AE00010D3C0001C0000003010B030582170265
:1020BE000000950CE44A0000C61D03010C05050442
:1020CE0030038000A90CC93F00000000030111007D
:1020DE00050111020000B60CE94A000000000304DD
:1020EE001100050812000000B70C000000000000EF
:1020FE00030112000505130300008D0C114A0000A8
:10210E00000003021200050111020000F40C434B03
:10211E0000000000030312000502130200009B0CD6
:10212E00794B0000C61D03041200808400000000DD
:10213E00F70C00000000000003011400050211005E
:10214E0000009D0C0F2700800000030214000523E1
:10215E0011000000890C3F420F80000003031400A1
:10216E000502110000009F0C0F27008000000304E1
:10217E001405050111000000F50C6300008000003D
:10218E00030115008002060100007D0BE3460000EE
:10219E00000003031500000C020300007D0BE34654
:1021AE0000000000031FF100808400010000B4074E
:1021BE00674C00000000032FF10001B9020200007D
:1021CE006D26274D00000000033FF10001FA0202C8
:1021DE000000A626274D00000000035FF10001A0BD
:1021EE00020200002427274D00000000036FF100BB
:1021FE0001D702020000870A2C4D00000000037F69
:10220E00F100019002020000E40A2C4D00000000D3
:10221E0003AFF100800400000000960700000000EC
:10222E0000000301F30001810202000024276E6CFE
:10223E00000000000302F30001860203000000000C
:10224E00A26C000000000303F300018602030000ED
:10225E00E40A556D000000000304F30001021100B2
:10226E0000003F0A0000000000000305F300018497
:10227E0002020000250B266E000000000306F3008C
:10228E00410832038000130D3B6F0000000003076E
:10229E00F300019302020000710DD26F00000000E6
:1022AE000308F300018402030000DE0AD2390000A5
:1022BE0000000300F419018402030000710DF537CC
:1022CE00000000000300F500018102030000710D03
:1022DE00DB38000000000378F59001840203000053
:1022EE00710D0A39000000000300F6FE018402039E
:1022FE000000710D6639000000000300F7FE018436
:10230E0002030000710D6639000000000301000099
:10231E008023010006001A0A00000000A11D03021E
:10232E0000008002010000003B0A00000000A31D17
:10233E0003070000800201000001450A00000000B2
:10234E00BF1D03080000800201000002410A0000C8
:10235E000000C51D030A0000800401008000C50BAB
:10236E000000000000000322002380020101000093
:10237E00590A314D0000000003010800050211004A
:10238E000000A50CE8030080000003020800050110
:10239E0011000000F20C63000AC0000003011000DF
:1023AE00052311000300850C3F420F80000003023D
:1023BE001000050111000000F30C63000080000006
:1023CE000301F100050211000000A70C900100802E
:1023DE00BD1D030AF100050411000000C50B0F27F7
:1023EE000080BD1D03004840C00048404004480422
:1023FE000008483C410C483C410040FF0F08483C57
:10240E00410C483C410040FFBF0048404004480892
:10241E00800048040004484040084840C00048403E
:10242E0040044804800048404004480580040040B1
:10243E00400048404008003C410C003C410040FF39
:10244E000F04483C4108483C410040FF8F00484083
:10245E0040044809800400404000484040100001FC
:10246E000008003C410C003C4104483C4108483CFB
:10247E00C1040040400048404008003C410C003C74
:10248E00C100483C4108483C4110483C4118483C7A
:10249E004120483CC100483841004838410140FFC6
:1024AE00910011005C0C710B030130000F6A7D0B63
:1024BE0003033000100E830B030430001110890B40
:1024CE000305300012008F0B03063000135E950BD0
:1024DE0003073000140B9B0B030830001500A10BF3
:1024EE0003093000170B9B0B030C30001810A70BC1
:1024FE00030D30004C3CAD0B031230000B0FB30B31
:10250E00030036005B1DB90B030037005A14BF0BD6
:10251E000300A0001D06770B0301A0001E10890BFF
:10252E0003637C7B7B777E6363637A7E7E0C040819
:10253E00028132747C7B7B028132747C7B777E7E5F
:10254E00028132747C7B7A7E7E33334566686160AD
:10255E005F5F4638384B385E66605F67674B395E43
:10256E0066605F67672D0A0AFF0011035C03FF00B8
:10257E0030030E03FF0430031103FF053003120373
:10258E00FF0630031303FF0730031403FF08300365
:10259E001503FF0930031703FF0C30031803FF0D5B
:1025AE0030034C03FF1230030B03FF0036035B03B3
:1025BE00FF0037035A03FF00001D4D03FF01001DEE
:1025CE004D03FFFF001D4D03FF00001D4D03FF01D6
:1025DE00001E4D03FFFF001E4D03FF00001E4D03A6
:1025EE00FF0001191903FF0101191903FFFF01195A
:1025FE0019030000000000000A000806170B16045D
:10260E000B0B1701D50AFFFFFFFFFFFFFFFFFFFFB9
:10261E00FF07FF3F0000FFFF00002D01000000003C
:10262E00810000FFFF0000003000000000040003E6
:10263E00040465000000285C8F029999991990D0C6
:10264E0003000C0000000059005900230131011253
:10265E0000990006010101090714031C040000453E
:10266E0050534F4E313146204F6374203231203259
:10267E003031392031343A30383A343400000000E9
:10268E00600057B004B900FC083200E8031444445B
:10269E005A595858582D4D0044445A595858582D87
:1026AE004D000000000000000000000000000000CF
:1026BE00000000000000000044445A595858582D9C
:1026CE004D000000000000000000000000000000AF
:1026DE00000000000000000058585858000000008C
:1026EE0000000000000000000000000000000000DC
:1026FE000000000000000000323031362D58582DF9
:10270E005858444C2F543634352D323030372D3105
:10271E003400770133550064000000780200141273
:10272E002501AAAAAAAAAAAAAAAA00000000000025
:10273E000000000000000B074A012C01B6034512F1
:10274E00E0029B039B0300591744445A59585858AA
:10275E00432D4D44445A59585858432D4D000000AE
:10276E00000000000000000000000000000000005B
:10277E0000000044445A59585858432D4D0000004B
:10278E00000000000000000000000000000000003B
:10279E0000000044445A5958585843000044445AC3
:1027AE005958585843000000000000000000000077
:1027BE000000000000000000000000000044445A29
:1027CE005958585843000000000000000000000057
:1027DE000000000000000000000000000044445A09
:1027EE00595858582D4D0044445A595858582D4D43
:1027FE0000000000000000000000000000000000CB
:10280E000000000000000044445A595858582D4DFD
:10281E0000000000000000000000000000000000AA
:10282E000000000000000044445A59585858000057
:10283E000044445A59585858000000000000000047
:10284E00000000000000000000000000000000007A
:10285E000044445A59585858000000000000000027
:10286E00000000000000000000000000000000005A
:10287E000034120040000000400000000000000084
:10288E0000000000000000004000000000000000FA
:10289E00000000000000000000000000000000002A
:1028AE00000000000000000000000000000000001A
:1028BE00000000000000000000000000000000000A
:1028CE000000000000000000FFFF18006000000084
:1028DE0000000000000000000000000000000000EA
:1028EE00000000000000007200B1014DE8FFFF6C17
:1028FE00FDFFFF00000000000000000000000000CF
:10290E000000000000000000000000000000007742
:10291E000133550000000000000000000000000020
:10292E0001111111111111F40100006400000001D8
:10293E0000000001000000204E000000000000001A
:10294E000000000000000000000000000000000079
:10295E00000000000080110000001F0000000000B9
:10296E000000000000000000000000000000000059
:10297E000000000000000000000000000000000049
:10298E000000000000000000000000000000000039
:10299E000000000000000000000000000000000029
:1029AE000000000000000000000000000000000019
:1029BE0000000000000000000000004088A0004061
:1029CE0088A0004088A00000000000000000000069
:1029DE0000000000000000000000000000000000E9
:1029EE0000000000000000000000000000000000D9
:1029FE0000000000000000000000000000000000C9
:102A0E0000000000000000000000000000000001B7
:102A1E0000000000000000000000000000000000A8
:102A2E000000000000000000000000000000000098
:102A3E000000000000000000000000000000000088
:102A4E000000000000000000000000000000000078
:102A5E00000000000000000010000800000000E868
:102A6E00030000FFE0F505C8000000000000002C88
:102A7E00000000307500000049D112000001010174
:102A8E00009999999900000000A00500000000E847
:102A9E000304010000000002563412047856341468
:102AAE00000004100000000200040808050A0000DF
:102ABE000000000000000000000000000000000008
:102ACE0000000000000000000000000000000000F8
:102ADE000000000000000000003C3C3C3C0A3C1E94
:102AEE001E999912000F83838303830F0F0F0F0517
:102AFE00020208040000007F0102040505FFFFFF2B
:102B0E00FFFFFFFFFF0000000000000000000000BC
:102B1E0000000000000000000000000000000000A7
:102B2E000000000000000000000000000000000097
:102B3E000000000000000000000000000000000087
:102B4E000000000000000000000000000000000077
:102B5E000000000000000000000000000000000067
:102B6E000000000000000000000000000000161130
:102B7E0002120C120C120C120C120C120C120C1261
:102B8E000C120C120C120C120C120C1102120C1252
:102B9E000C120C120C120C120C120C120C120C1237
:102BAE000C120C120C120C881300241300C012000D
:102BBE005C12000000000000000000000000000099
:102BCE0000000000000000000000000000000000F7
:102BDE0000000000000000000000000000000000E7
:102BEE0000000000000000000000000000000000D7
:102BFE0000000000000000000000000000000000C7
:102C0E0000000000000000881300241300C0120012
:102C1E005C12000000000000000000000000000038
:102C2E000000000000000000000000000000000096
:102C3E000000000000000000000000000000000086
:102C4E000000000000000000000000000000000076
:102C5E000000000000000000000000000000000066
:102C6E00000000000000001102120C120C120C12D7
:102C7E000C120C120C120C120C120C120C120C1256
:102C8E000C120C01008216032D8443015A8270032C
:102C9E0087849D849D849D849D849D849D849D8830
:102CAE001300241300C012005C120000000000008C
:102CBE000000000000000000000000000000000006
:102CCE0000000000000000000000000000000000F6
:102CDE0000000000000000000000000000000000E6
:102CEE0000000000000000000000000000000000D6
:102CFE0000000000000000000000000000000000C6
:102D0E0000000000000000000000000000000000B5
:102D1E0000000000000000000000000000000000A5
:102D2E000000000000000000000000009999999931
:102D3E009999999999999999000000BE051246841E
:102D4E003F05690040BE0340000000000002FA0289
:102D5E009000000002900000000000000000000043
:102D6E000000061201010004000201000400200010
:102D7E00800200000290000000000B000000000026
:102D8E000000000000000000000000000000000035
:102D9E000000000000000000000000000000000025
:102DAE000000000000000000000000000000000015
:102DBE000000000000000000000000000000000005
:102DCE0000000000000000000000000000000000F5
:102DDE0000000000000000000000000000000000E5
:102DEE0000000000000000000000000000000000D5
:102DFE0000000000000000000000010100040002BD
:102E0E00010004002000800200000290000000007B
:102E1E0000000001000000000E040004010E04007A
:102E2E000400020400040102040004000001010277
:102E3E000000010202000001030200010B00040069
:102E4E0009040004000200800200021400040003C2
:102E5E00140004000000000000000000000000004C
:102E6E000000000000000000000000000000000054
:102E7E000000000000000000000000000000000044
:102E8E000000000000000000000000000000000034
:102E9E000508000000000000010000000002000014
:102EAE00000003000000000400000000000000000D
:102EBE000000000000000000000000000000000004
:102ECE0000000000000000000000000000000000F4
:102EDE0000000000000000000000000000000000E4
:102EEE0000000000000000000000000000000000D4
:102EFE0000000000000000000000000000000000C4
:102F0E0000000000000000000000000000000000B3
:102F1E0000000000000000000000000000000000A3
:102F2E00000000000000000001010004000201008A
:102F3E00040000010302000002030200000101026E
:102F4E0000000102020001008002000000000000EB
:102F5E000101000400020100040000010102000052
:102F6E00010202000001030200000106020000003F
:102F7E000000000000000000000000000000000043
:102F8E000000000000000000000000000000000033
:102F9E000000000000000000000000000000000023
:102FAE000000000000000000000000000000000013
:102FBE0000000000000000000000000000001FF1F3
:102FCE000004070606060002900015222D3E7F82A1
:102FDE0086898A10110B315C645D65AE020000AF0C
:102FEE00020000B102B302B502050404090903038D
:102FFE009494797D7D7981817985851C1C5B5B013B
:10300E009393B702BA02BD02C002C202C402BB024F
:10301E007C7B7BDE0104800006030300050004FFB9
:10302E00FFFFFFFF999999999999616263646566AB
:10303E0000000000000000000000805E6668616015
:10304E005F673F6B6D5958526C4C46484F4E4D471B
:10305E00403A3C4342413B342A2C3736352B241E12
:10306E00202726251F1812141B1A19130C06080FD9
:10307E000E0D074944454B51504A00000000010017
:10308E0000000100030002000000070040000C00D9
:10309E00000007030400020047040F0308000400A9
:1030AE0047042F033000020047048F033000020054
:1030BE004704EF033000030047047F043000020092
:1030CE004704DF04380002003F044F050C000200E5
:1030DE007704670510000A00000007060C001400B4
:1030EE007704F70610001400AF04370830000A000A
:1030FE000000170A10000A009F04B70A0C000A000D
:10310E0000002F0B0C000A000000A70B28000A007D
:10311E000000370D28000A000000C70E0C000A0040
:10312E0000003F0F0C000A000000B70F18000A0045
:10313E000000A7100C000A0000001F110C000A006E
:10314E000000971118001400830477130C0014006C
:10315E00770467140C001400BF0457150400140004
:10316E00D802A71504000500D802BB150C000500F7
:10317E000000F715040002000000CA1002009602BB
:10318E00040071020400F20204000144040002442F
:10319E00040011440400124404002144040022449B
:1031AE00040031440400324404004144040042440B
:1031BE000480000033000144040002440480DE0158
:1031CE0004000144040002440400240302003D03F1
:1031DE000300F2020300D7020280000033008F03C7
:1031EE000400014404000244048000003300C611B0
:1031FE0004000144040002440480710204000144EE
:10320E0004000244048000400000A00040000000C2
:10321E0000400000FEFFFFFF0264052006BD0630E1
:10322E0007EC09050AA109BA09785634120149D1E9
:10323E001247276267000080FFDD0500000100E7EE
:10324E00FF181E000000782879287A287B287C2811
:10325E007D287E287F288628F420FA20F520FB2062
:10326E00E820E920EA20EB20EC20ED20EE20EF20F4
:10327E00F020F120F220F320F620F720F820F9209C
:10328E00FEFE0068001600F282D982FC82EBA2F5E7
:10329E00A2FBA2C782E482F282D522D5A2EBA2C003
:1032AE00E0C0D075D010C082C083C0F07909120F73
:1032BE00AFD0F0D083D082D0D0D0E032C0D075D095
:1032CE0010D0D032C0E0C0D075D010C082C083C044
:1032DE00F0790B120FAFD0F0D083D082D0D0D0E0E7
:1032EE0032C0E0C0D075D010C082C083C0F0C28F93
:1032FE00900375E4F0C28E790C120FAFD0F0D0832C
:10330E00D082D0D0D0E032C0E0C0D075D010C08214
:10331E00C083C0F0C2CF9008FB7401F0120DF39081
:10332E000374E06401700B75CDFD75CC54123A63D5
:10333E00801A75CDF575CC54120CDF90034FE00456
:10334E00F0E0C394194005E4F01206F1D0F0D083FA
:10335E00D082D0D0D0E032C0D075D010A2C05002F2
:10336E00C2C0A2C15002C2C1D0D032C0E0C0D0751E
:10337E00D010C021C082C083C0F0902840E0F5215B
:10338E00902843E05221E521A2E7500C902840E01E
:10339E00C2E7F07904120FAFE521A2E4500790289E
:1033AE0040E0C2E4F0E521A2E55007902840E0C2DB
:1033BE00E5F0E521A2E25011902836E0C2E1F0904E
:1033CE002840E0C2E2F0120CEBE521A2E35011908E
:1033DE002836E0C2E0F0902840E0C2E3F0120CE59F
:1033EE00E521A2E05011902826E0C2E1F09028409D
:1033FE00E0C2E0F0120CD3E521A2E1501190282694
:10340E00E0C2E0F0902840E0C2E1F0120CCD539102
:10341E00EFD0F0D083D082D021D0D0D0E032C0E037
:10342E00C0D075D010C021C082C083902848E0F56E
:10343E002190284BE05221E521A2E6501490054838
:10344E00E0D2E0F0902848E0C2E6F0900530E004CB
:10345E00F0E521A2E2500E90283EE0C2E1F0902865
:10346E0048E0C2E2F0E521A2E3500E90283EE0C211
:10347E00E0F0902848E0C2E3F0E521A2E450079086
:10348E002848E0C2E4F0E521A2E55015902848E076
:10349E00C2E5F090284BE0C2E5F0902838E0C2E09B
:1034AE00F0E521A2E75007902848E0C2E7F0E521B9
:1034BE00A2E0500E90282EE0C2E1F0902848E0C223
:1034CE00E0F0E521A2E1500E90282EE0C2E0F0904F
:1034DE002848E0C2E1F05391DFD083D082D021D0D2
:1034EE00D0D0E032C0E0C0D075D010C021C082C0B4
:1034FE0083C0F0902850E0F521902853E0522153DC
:10350E0091BF7913120FAFE521A2E3502290053738
:10351E00E02401F0A3E03400F090324FE493F87908
:10352E0000900A6AF0A3E4F0902850E0C2E3F0E5C0
:10353E0021A2E2502290053BE02401F0A3E03400EA
:10354E00F090324FE493F87900900A6AF0A3E4F019
:10355E00902850E0C2E2F0D0F0D083D082D021D0BB
:10356E00D0D0E032C0E0C0D075D010C021C082C033
:10357E0083C0F09028A2E0F5219028A5E052217991
:10358E0014120FAFE521A2E15010120CB59028A233
:10359E00E0C2E1F09029047410F053917FD0F0D086
:1035AE0083D082D021D0D0D0E032C0E0C0D075D050
:1035BE0010C082C083C0F07915120FAFD0F0D08347
:1035CE00D082D0D0D0E03274F112184B74EA1217B8
:1035DE00518A828B8378251215AFE525F527900A3F
:1035EE0086E070767401652770487C4F7D40AA3165
:1035FE00AB32120E83900902E0548070030237E959
:10360E0090058CE024FDFCA3E034FFFD90058CE0DA
:10361E0024FCFAA3E034FFFB120EDD90058CE024AF
:10362E00FFF8A3E034FFF990058CE8F0A3E9F0026F
:10363E0037E974026527700E7C477D40AA31AB32A4
:10364E00120E830237E990058EE531F0A3E532F0D4
:10365E007A787B1D120E8F0237E99008A212194E4E
:10366E007C037D0074041217CD120799740412178F
:10367E0067900A7CE0F8A3E0C82409F582E438F5E7
:10368E0083E02406FEA3E03400FF74016527702753
:10369E00752103752200782112193B8E828F83A328
:1036AE00AC82AD8374021217CD120ED774021217AC
:1036BE00678E828F8380687402652770227525035A
:1036CE00752600782512193BEEFCEFFD74051217D6
:1036DE00BBAA82AB83120ED774021217678048758D
:1036EE002103752200782112193BEE2404FCE43FDD
:1036FE00FD74021217CD120ED774021217677821BD
:10370E0012193BEEFCEFFD74051217BBAA82AB83B8
:10371E00120ED774021217678E828F83A3A3A3E0B3
:10372E00F521E4F523F5247C007D00AA31AB32129D
:10373E000793EAF8EBF9ECFAEDFB74061217BB12DD
:10374E00161C74061217BB121610E8494A4B602756
:10375E00900922E070287402652760227406121701
:10376E00CD120F67E9F525E4F526F527F52878251E
:10377E0079211211CF60077901120ABD805F900A7C
:10378E0053121610740A1217BB12161C9008A212AE
:10379E001610740E1217BB12161C74061217BB12DB
:1037AE0015E012079F7934120F739008A2121610AB
:1037BE0074121217BB12161C7911740A1217CD123D
:1037CE000AA590093D7402F0900C6D78211215AF88
:1037DE00E521540860057983120F61790074161281
:1037EE0017677F080218F774F512184B74F7121743
:1037FE00518A828B8378211215AF8531828532836F
:10380E00E521F0900A7CE0F8A3E0C82409F582E4F3
:10381E0038F583E02406F521A3E03400F522900A62
:10382E0086E0AA31AB32607012084D8A238B24AE2B
:10383E0023AF24EE4F60438E828F83A3E493F989E6
:10384E0023752400782312193BE9F8C3E498F89500
:10385E00E0F9E52128F8E52239F9E82404FCE439F9
:10386E00FD74031217CD120ED7740212176774016E
:10387E001217D5EEFAEFFB120847900A7CE0F8A378
:10388E00E0C82409F582E438F583E0F8A3E0F58377
:10389E008882A3E4F0F9802B12084D8A218B22AE88
:1038AE0021AF22EE4F601A8E828F83A3E493F98E9E
:1038BE00828F83E493FA74872AFAE4340AFB120E99
:1038CE0071790074091217677F040218F7C082C05D
:1038DE0083900A86E0601E120DC9900A7CE0F8A360
:1038EE00E0C82409F582E438F583E0F8A3E0F58317
:1038FE008882A3E4F07900D083D0822274F5121866
:10390E004B74FC121751900A86E0601E900A7CE000
:10391E00F8A3E0C82409F582E438F583E0F8A3E0C3
:10392E00F5838882A3E4F0F980248A828B83782140
:10393E001215AFAA217B281207DB853182853283CF
:10394E001215EC7904AA31AB32120E71790074049F
:10395E001217677F040218F774F512184B74FC12D5
:10396E0017518A828B8378211215AFA821E5225434
:10397E000F64077006E8FA7B288004E8FA7B209033
:10398E000A86E0601E900A7CE0F8A3E0C82409F5E0
:10399E0082E438F583E0F8A3E0F5838882A3E4F0AF
:1039AE00F980171207DB8531828532831215EC7987
:1039BE0004AA31AB32120E71790074041217677FAC
:1039CE00040218F774F712184B74F8121751900A74
:1039DE0086E0606C752104752200782112193B90E7
:1039EE000A7CE0F8A3E0C82409F582E438F583E008
:1039FE002406FCA3E03400FD74021217CD120ED77C
:103A0E00740212176785318285328312194E7ADE5F
:103A1E007B0A120F197404121767900ADE1215E052
:103A2E00120E41900A7CE0F8A3E0C82409F582E466
:103A3E0038F583E0F8A3E0F5838882A3E4F08009EB
:103A4E0079047ADE7B0A120E7179007408121767F8
:103A5E007F020218F7C082C083900477E054056499
:103A6E0005707F900478E004F0E0C394384073E46E
:103A7E00F0900477E0640570197AD37B201207DB8F
:103A8E0090046B1215EC7904120C49900477740AA9
:103A9E00804FE0645570267AD47B201207DB9004A9
:103AAE006F1215EC7A417B201207DB900479121508
:103ABE00EC7901120C49900477745A80247AD57BE4
:103ACE00201207DB9004731215EC7A487B20120744
:103ADE00DB90047D1215EC7902120C499004777478
:103AEE00AAF0D083D082227921120FAF120FA91221
:103AFE000FC7120E47120CA3120CF1900EE97401AF
:103B0E00F0900EEAE4F0120FC1900ECB7487F0A382
:103B1E00740AF0E5A1A2E05006900EE9E070137968
:103B2E0000120949E960EC75CEA575CF5A120A0943
:103B3E0050E175CEA575CF5A120DBD8B22EA4522E6
:103B4E0060D17900120949E960C97AC87B00120F69
:103B5E007975CEA575CF5A120DB7120DB11206D9C1
:103B6E0075CEA575CF5A900A757405F0790A120CA8
:103B7E005B1208A1900A75E0F9120E35900A75E0F5
:103B8E00640A7003120F97120DCF120817120859FC
:103B9E009008FFE04404F0900904E04410F090080F
:103BAE00FCE4F0900A75E064507003120CAF9004C0
:103BBE00B77402F0A3E4F0900A75E0900A74F090E6
:103BCE000F7C7485F0A3740D803F9008FFE05420A5
:103BDE00700F900E28E0541F60079008FFE04420FD
:103BEE00F09008FFE0541060031206FD9008FFE00D
:103BFE00542060031207039008FFE0544060031244
:103C0E00088F900A75E0900A74F09004B7E0F8A35C
:103C1E00E0F9E84960067AE87B0380047AC87B0005
:103C2E00120F79120D15E5A1A2E05006900EE9E0F3
:103C3E0070049028AFE0120E23E9F8900A75F07424
:103C4E0050687003120CBB9008FBE0F8701EA3E0E6
:103C5E00701A900D85E0A2E74012900E28E0A2E7C0
:103C6E00400A9008FEE070049008F8E0E860031245
:103C7E00085F9008F8E060031208659008FCE060A9
:103C8E002312086B7ACF7B0E1207AB120E0B900825
:103C9E00FFE0540860031209DF900904E05410603D
:103CAE00031209EB9008FEE060061206DF1208838D
:103CBE009008FFE054046003120889900D85E0A27D
:103CCE00E7400B900E28E0A2E74003023BD8120C0F
:103CDE002B023BEF02062D74F21217DF74FB121744
:103CEE0051E9FE604CA831A9328825892678251223
:103CFE00193B120F0D7402121767900901E054025E
:103D0E00F8A3E05480F974026849701C85318285ED
:103D1E003283E5822EF8E43583F9E824FFF582E953
:103D2E0034FFF583E0D2E7F0EEF9AA31AB32120E92
:103D3E007174051217677F060218B1C082C083E93D
:103D4E00FC900902E054807078900A7CE02404F81C
:103D5E00A3E03400F988828983E01313543F54079B
:103D6E00C394024004E04480F0900A7CE0F8A3E0A3
:103D7E00C82409F582E438F583E0F8A3E0F58388DA
:103D8E0082E044C0F0900A7CE0F8A3E0C82409F574
:103D9E0082E438F583E0F8A3E0F5838882A374010A
:103DAE00F0ECC0E0900A7CE0F8A3E0C82409F582AC
:103DBE00E438F583E0F8A3E0F5838882A3A3D0E08E
:103DCE00F07901D083D08202062DC082C083900A82
:103DDE007CE0F8A3E0C82409F582E438F583E024FA
:103DEE0002FAA3E03400FB120F55900A7CE0F8A310
:103DFE00E0C82409F582E438F583E0F8A3E0F58302
:103E0E008882A3E4F0D083D08202062D74F61217B6
:103E1E00DFE9FEEAFF900A7CE0F8A3E0F9EE601419
:103E2E0088828983A3A3A3A3E01313543F5407608E
:103E3E0003023F2A88828983A3A3A3A3A3A3A3A3D8
:103E4E00A3E0F8A3E0F9EE601788828983A3A3A309
:103E5E00A3A3A3E064997008EEA2E3401D023F2ADB
:103E6E00EE601A88828983A3A3A3A3A3A3E0649818
:103E7E00700BEEA2E35003023F2A023F2388828991
:103E8E0083A3E0FCEA240CFAE43400FBEA6C4B60FA
:103E9E0003023F2EE8240AFCE439FD7A537B0A1212
:103EAE000EDD74035E64017070120C198A218B2270
:103EBE00AC21AD22752108752200782112193B9094
:103ECE000A7CE0F8A3E0C82409F582E438F583E023
:103EDE002406FAA3E03400FB120A397402121767A3
:103EEE00900A7CE0F8A3E0C82409F582E438F58353
:103EFE00E0FAA3E0FB8F21752200782112193BEA2C
:103F0E00240EFCE43BFDEA2406FA50010B120A27AC
:103F1E0074021217677900800CEE60C47904800277
:103F2E007901120ABD7F020218B1790002062D74C2
:103F3E00F41217DFEAFCEBFD900A7878211215AF28
:103F4E00AA218C828D8378211215AFA921120ACF56
:103F5E00E970047900800279017F040218B174F4CB
:103F6E001217DF900A7CE0F8A3E0F9E82409FEE4DA
:103F7E0039FF8E828F83E0FAA3E0F5838A82A3A3B2
:103F8E00E0FC7A0B7B001216C6E8947FF8E99400E9
:103F9E00F9745F28F582741D39F583E493F9ECFA10
:103FAE00120ACFE970108E828F83E0F8A3E0F583BA
:103FBE008882A37401F07F040218B1790002062DE5
:103FCE0074F61217DFEAFEEBFF75210675220078F4
:103FDE002112193B7C627D1D120A39740212176779
:103FEE00EA4B4C4D700479008021782112193B7CEC
:103FFE00687D1DEEFAEFFB120A397402121767EA9A
:10400E004B4C4D70047901800279027F020218B187
:10401E00C082C083900A7CE02404F8A3E03400F947
:10402E0088828983E01313543F5407FA600974029F
:10403E006A7008E04480F079008006E04480F079F0
:10404E0001D083D08202062DC082C083900A7CE00C
:10405E0064817004A3E064057A0570047B04800219
:10406E007B0312075DD083D08202062D74F01217E7
:10407E00DF74FC121751853182853283EAF0A3EB8F
:10408E00F0853182853283E02403FCA3E03400FD09
:10409E008C828D83E493A2E75003024188900A7CC0
:1040AE00E0F8A3E0C82409F582E438F583E024069D
:1040BE00F525A3E03400F526853182853283E0F8BC
:1040CE00A3E0F5838882A3A3A3A3E493C0E07401C5
:1040DE0093F583D082AA82AB83900A817821121540
:1040EE00AF853182853283E0F8A3E0F5838882E4E0
:1040FE0093F8740193F9E521C398F521E52299F51A
:10410E00228A238B24740A782312172FE523540353
:10411E00782112173E853182853283E0F8A3E0C8FC
:10412E002409F582E438F583E4932521F8A3E4937A
:10413E003522F974021217BBE8F0A3E9F0EB540331
:10414E00C39402EA4004547F80025407FE7F00EEBF
:10415E00FA8C828D83E493F9120AC9E9701C8531B9
:10416E0082853283E0F8A3E0C82411F582E438F5A5
:10417E0083E493F9120C13E9600579040243A985CF
:10418E003182853283E0F8A3E0F5838882A3A3A36E
:10419E00A3E4A3935401600FEEF9AA25AB26120AED
:1041AE003FE960030243A7900A78E4F0A3F0A3F07E
:1041BE00A3F0853182853283E0F8A3E0C8240BF5A5
:1041CE0082E438F58378211215BE853182853283DB
:1041DE00E0F8A3E0F5838882A3A3A3A3E493C0E051
:1041EE00740193F583D082A882A9838531828532AA
:1041FE0083E0FAA3E0CA2406F582E43AF583E49359
:10420E00A2E15076E85480F8E95402F9748068709F
:10421E0003740269700BEEFC7D00AA25AB26120E0C
:10422E0053C3EE940595E050198E218F22782112FA
:10423E00193BAC25AD267A787B0A120A2774021236
:10424E00176774021217BBE0FCA3E0FD7A817B0AAC
:10425E00853182853283E0F8A3E0C8240BF582E431
:10426E0038F58378211215BE852182852283121797
:10427E00DDE970030243DA024431E95403C39402C8
:10428E0040030243B7C3EE940595E040030243A7F3
:10429E00E854808E278F287827601012193BAC25A2
:1042AE00AD267A787B0A120ED7800E12193BAC25FA
:1042BE00AD267A787B0A120A2774021217678531A7
:1042CE0082853283E0F8A3E0F5838882A3A3A3A3BB
:1042DE00740193540364017023900A781215E0124E
:1042EE000F13EAC0E0EBC0E0ECC0E0ED900A78FB03
:1042FE00D0E0FAD0E0F9D0E0F812161C85318285B4
:10430E003283E0F8A3E0F5838882A3A3A3A3E4930A
:10431E00131313541F540FFA7002EEFA85212585DC
:10432E0022268523278524287418782512145AE509
:10433E002554F8F874806870057525008008748817
:10434E0068700875250190261C8024E8C394C0402F
:10435E0025852125852226852327852428741078F6
:10436E002512145A90262078251215489026247866
:10437E0021121548800F7525007521FF7522FF75D6
:10438E0023FF7524FF900A787825121276400A9042
:10439E000A78782112128640087901120ABD024469
:1043AE0031EAF97C787D0A8016E85480600BEEFCC9
:1043BE007D00AA25AB26120E53EEF9AC25AD267460
:1043CE00021217BBE0FAA3E0FB120A4B853182857D
:1043DE003283E0F8A3E0F5838882A3A3A3A3E4A32A
:1043EE009354106003120AC3900A7CE0F8A3E0C84D
:1043FE002409F582E438F583E0F8A3E0F58388829A
:10440E00A3E4F0853182853283E0F8A3E0F583885A
:10441E0082A3A3A3A3E4A393542060079008FFE014
:10442E004408F074041217677F080218B174F01272
:10443E0017DF74F7121751853182853283EAF0A3A4
:10444E00EBF08C218D22853182853283E0F8A3E05A
:10445E00F583888278251215AF8C828D83E493F8CC
:10446E00740193F9E525C398FEE52699FFEC240423
:10447E00F523E43522F5248E278F28852382F583B4
:10448E00E493F525740193F526740A782512172FF7
:10449E00E5255403782712173E8C828D83A3A3A3A0
:1044AE00A3A3A3A3A3A3932527F525A3E4933528BC
:1044BE00F526EC2411F582E43522F583E493F91206
:1044CE000C13E960087904120ABD02469F90090296
:1044DE00E054806059852182852283A3A3A3A3A3E0
:1044EE00A3A3E493C0E0740193F583D082A882A9BC
:1044FE0083E85480600302469FE84960089008E80C
:10450E00E8F0A3E9F0E521240FF582E43522F583E6
:10451E00E493FA740193FBEA4B6013120727EE4FF4
:10452E00600C9008C3E064027004A3E02EF08521B5
:10453E0082852283A3A3A3A3A3A3E493A2E0502B7B
:10454E00AC25AD26853182853283E0FAA3E0FBE50A
:10455E0021240BF582E43522F58378211215BE85D0
:10456E0021828522831217DD02469F8523828524B0
:10457E0083E493C0E0740193D082A8825403FAC3FB
:10458E009402E84005547FFE800F5407FEE8131393
:10459E0013541F540FFF7002EEFFEAC39402400340
:1045AE0002467874021217BBE4F0A3F0A3F0A3F056
:1045BE008F21F522782112193BAC25AD26740412F9
:1045CE0017CD120A27740212176774026F702374C4
:1045DE00031217BBE0A2E75019852382852483744A
:1045EE00019354036401700A74041217BB74FFF034
:1045FE00A3F0852382852483740193540364017090
:10460E004B74021217C588218922782112193B7426
:10461E00041217BB1215E0120F0D740212176790D9
:10462E000901E05402F8A3E05480F974026849705D
:10463E001B74021217BBE5822EF8E43583F9E824C9
:10464E00FFF582E934FFF583E0D2E7F0852382851A
:10465E002483E49354806009EEF974021217CD801E
:10466E0022EEF974021217CD8024900902E05480D4
:10467E006006EEC394055019E85480600BEEF9AA5B
:10468E0025AB26120E778009EEF9AA25AB26120E5F
:10469E007174091217677F080218B102062D74F69D
:1046AE001217DF74F8121751752108752200782140
:1046BE0012193BEAFCEBFD74021217CD120A277495
:1046CE0002121767AA31AB32120AF9740812176771
:1046DE007F020218B1790002062D790002062D74B0
:1046EE00F71217DF900A7CE0F8A3E0C82409F582E0
:1046FE00E438F583E02402FEA3E03400FF120AE161
:10470E00E970557904EEFAEFFB120A3FE96007797A
:10471E0001120ABD80427A357B09120E657C627DDC
:10472E001DEEFAEFFB120EE9EA4B4C4D70077907BE
:10473E00120F3D8014EEFAEFFB120EB37904EEFC6D
:10474E00EFFD7AF77B0C120A4BEE24FFF582EF3465
:10475E00FFF583E4F0120AE77F010218B174F41238
:10476E0017DF902628C082C0838A828B837821121D
:10477E0015AF8C828D8378211214F6AA21AB22AC50
:10478E0023AD241210338A218B228C238D24D083C7
:10479E00D082782112123C40047900800279017F88
:1047AE00040218B174F01217DF74DC121751900A5C
:1047BE007CE0F8A3E0C82409F582E438F583E0F53F
:1047CE0027A3E0F528120AE1E96003024A077C00FC
:1047DE007D40E5272402FAE43528FB12079374087E
:1047EE001217BB1215EC901AB412197F7C0B7D00B8
:1047FE0074161217CD12079974041217677C037D75
:10480E00007A007B00120793853182853283121560
:10481E00EC74081217CD120F07E960030249A0903D
:10482E00262CC082C083900C6D78211215AF902675
:10483E002C7821121548D083D08278211211F9706C
:10484E00030249A075256E75261D7E000249467429
:10485E00121217BB121610740C1217BB12161C7400
:10486E00101217BBE4F0A3F0852582852683A3A33F
:10487E00A393FAE5252402F523E43526F5248A21AF
:10488E00752200782112193BEF8AF0A4F8A9F08561
:10489E002582852683E49328FCA3E49339FD8523A2
:1048AE0082852483E493F8740E1217BBE58228FAEE
:1048BE00E43583FB120A2774021217677C007D0011
:1048CE00740C1217CD120793EAF8EBF9ECFAEDFB24
:1048DE0074041217BB12161CAC31AD3274041217CD
:1048EE00CD120B11E970030249A085238285248322
:1048FE00E49364037021901B1C78211215BE74047E
:10490E001217BB78211214CFAC31AD3274041217CA
:10491E00CD120B11E9607B0F852582852683A3A31B
:10492E00A3A3E493F8EFC398500302485DE5252452
:10493E0005F525500205260EEEC3940250047F00A5
:10494E0080D67E00801D8E21752200740278211281
:10495E00173E74592521FA740B3522FB120B11E9FF
:10496E0060300EEEC39404AC31AD3240D9740812EF
:10497E0017CD120B11E96021900C6D78211215AF35
:10498E00901AE57821121548E52145224523452444
:10499E0060077901120ABD8060900A53E4F0A3F01B
:1049AE00A3F0A3F074181217BBE4F0A3F0A3F0A3C6
:1049BE00F09008A2121610741C1217BB12161C745B
:1049CE00081217BB1215E012079F7917120F61908C
:1049DE0008A212161074201217BB12161C791E7420
:1049EE00181217CD120AA590093D7401F085278281
:1049FE00852883A3E4F0120AE774241217677F0850
:104A0E000218B1790002062DC082C083ECFAEDFBCC
:104A1E00900A86E070077904120E718046900A7C27
:104A2E00E0F8A3E0C82409F582E438F583E0F8A3A2
:104A3E00E0C82406F582E438F583E0FA900955E0E3
:104A4E005402700BEA7008900922740AF08014EA7E
:104A5E009009226006E4F0791080057401F07990D7
:104A6E00120F617900D083D08202062D79000206E2
:104A7E002D790002062D74F41217DF900A78782132
:104A8E001215AFE521C3941040077901120ABD80BB
:104A9E00367C787D0A900D05E0FA7917120F4F7962
:104AAE0039120F73900A7878211215AF900D05E028
:104ABE0065216011900A7878211215AFA9217A0527
:104ACE007B0D120F2579007F040218B179000206C2
:104ADE002D790002062D790002062D74F41217DFCF
:104AEE00ECFAEDFB900A7878211215AFE52154020D
:104AFE007028900B28E06466600E900A7878211278
:104B0E0015AFE521A2E04012901BBA78211215BE16
:104B1E00900A78782112127640077901120ABD8028
:104B2E000F900A7878211215AFA921120F2579005E
:104B3E007F040218B174F41217DF900A78782112EC
:104B4E0015AFA921120EF5743C69600A741E6960D6
:104B5E0005740F69700B7AF47B0C120F25790080A7
:104B6E00057901120ABD7F040218B174F41217DF21
:104B7E00900A7878211215AFE522C394245026901E
:104B8E000A7878211215AFE521C3945A5017900A6E
:104B9E007878211215AFAC21AD227A9B7B0C120FC7
:104BAE001F790080057901120ABD7F040218B174C5
:104BBE00F61217DF74FD1217517521027522007857
:104BCE002112193BEAFCEBFD74021217CD120A27D3
:104BDE00740212176774011217BBE0F875F00A859C
:104BEE003182853283E0A42824F0F974031217670A
:104BFE007F020218B174F61217DF74FD1217517589
:104C0E002102752200782112193BEAFCEBFD740299
:104C1E001217CD120A27740212176774021217BBED
:104C2E00E024ADF8E434FFF974011217BBE0249FC1
:104C3E0054FCFA7B00E8C39AF8E99400F97A03125F
:104C4E0016BE748028F582E4341DF583E493F9745E
:104C5E00031217677F020218B174F51217DF74F88A
:104C6E0012175190058E746DF0A37426F07A8D7B19
:104C7E001D120E8F90058CE024F8F521A3E034FF71
:104C8E00F5227A7F7B26120B1D120EFBE9852182FF
:104C9E00852283A3A3A3F07A767B26120B23E985C4
:104CAE002182852283A3A3F090267AE49385318214
:104CBE00853283F090267BE493C0E074011217BB1B
:104CCE00D0E0F0853182853283E064207003743049
:104CDE00F0AA31AB32120B1D120EFBE98521828533
:104CEE002283A3F07A827B26120B1DE9F52375F041
:104CFE0006C0F07A857B26120B1DE9D0F084F8757C
:104D0E00F00AE523A428852182852283F079007498
:104D1E00081217677F030218B1790002062D790079
:104D2E0002062D790002062D74F71217DF9009077F
:104D3E00E05404600CEA4B6005120EA78003120EBD
:104D4E00A17F010218B1C082C0837C407D40120E4B
:104D5E0083D083D08202062D74F41217DF8A218B42
:104D6E0022EA540FF9120E7D852123852224740424
:104D7E00782312172F852321852422E521541FF92C
:104D8E00120EFB120E7D7405782112172FA9211217
:104D9E000EFB120E7D7F040218B174F61217DFEAB5
:104DAE00FEEBFFEE541FF9120EFB120E7D8E218FBD
:104DBE00227405782112172FAE21AF22EEF8EFF9EB
:104DCE007A3C7B001216C6EAF9120EFB120E7DEE2D
:104DDE00F8EFF97A3C7B001216C6E8F9120EFB12B8
:104DEE000E7D7F020218B174F71217DFEAFE7C4EB9
:104DFE007D40120E83EE2402C0E090058CE0F8A3F5
:104E0E00E0C824FCF582E834FFF583D0E0F07F01A2
:104E1E000218B1C082C083E9F8900A7FE0F9C39806
:104E2E005025900A7CE0F9A3E0C92409F582E43903
:104E3E00F583E0F9A3E0F5838982E0D2E5F079000D
:104E4E00D083D08202062DE8C39950F2E8900A7EF4
:104E5E00F0790180EBC082C083900907E0540460B2
:104E6E000579AA120E7DD083D08202062D74F0121F
:104E7E0017DF8A278B2889258C22EDFF74101217D5
:104E8E00BBE0F521FC7D00120E957E008041A3A3B0
:104E9E00A3A3A3A3A3A3E0FAC39F40328F82A88249
:104EAE00852123E82523FCE43400FDEA9CE49DC320
:104EBE0065D033501974012EC0E0EAC398F895E01E
:104ECE00F9E52728F582E52839F583D0E0F00EEED6
:104EDE00C395225011EEFAA925120A878A828B8376
:104EEE00E582458370A87F080218B1C082C083E9AD
:104EFE00FA900902E054807016900907E05404609D
:104F0E000E74026A600574036A7004790080027977
:104F1E0001D083D08202062D02062D74F01217DF07
:104F2E008A828B8378251215AFE526F521E52514A7
:104F3E00FAE521C3942150117959120A878A238BDD
:104F4E0024AE23AF24780080157999120A878A231C
:104F5E008B24AE23AF2474E02521F5217801740152
:104F6E006521700AEEFAEFFB120B2F02503AE52183
:104F7E00C39404400974FA2521C3940250257C3C45
:104F8E007D41E521A2E0E433F5217522007402781B
:104F9E002112173EEE2521F8E43FF9E82404FAE445
:104FAE00398048740168607B740A652170097C142D
:104FBE007D41EE240C803174F52521C39402501CE2
:104FCE007C287D41E52175F003A4F8A9F0EE28F8C0
:104FDE00EF39F9E824EDFAE934FF800F740E6521FC
:104FEE00700F7C147D41EE2CFAE43FFB120E838091
:104FFE003BE521C3940A402BE52124F6F8E434FF67
:10500E00F97A097B001216BEEAF521600674046572
:10501E002170047902800EEA6009C3940450047969
:10502E000380027904EEFAEFFB120B297F080218B7
:10503E00B102062D74F01217DF8A218B228923907C
:10504E00058EE0FAA3E0FB120B2F852182852283C9
:10505E0078251215AFE52514FA74BF55234480F94F
:10506E00120A877C407D40120E837F080218B1C061
:10507E0082C0837AF37B23120E8FD083D0820206F6
:10508E002DC082C0837AF77B23120E8FD083D082FD
:10509E0002062DC082C0837A177B24120E8FD08316
:1050AE00D08202062DC082C0837A1F7B24120E8FFF
:1050BE00D083D08202062D74F41217DF741E1217DD
:1050CE0051EAFEEBFF7907120B47E960030251FF2D
:1050DE00900A7FE0FA900A7EF090058EE0F8A3E049
:1050EE00F9E849700FEA7004795E80027954120E65
:1050FE00A10251FFEA70077A2B7B24120E8F7521C5
:10510E0002782112193F900A7EE0C333FD8E828F02
:10511E008378211215AFAC21791274011217CD12BA
:10512E000B5374011217677E008025EF25E0F8E41B
:10513E0033F974C428F582740639F583A3A3A3A3A7
:10514E00E0FAA3E0FB120B3B0FEFC3940E40DC0E14
:10515E00EEC3940240030251FF8E82AA82853182F1
:10516E00853283E5822AF582E43583F583E0F860A3
:10517E001574FF28FA7912120A878B22EA2409FC89
:10518E00E43522FD804F7521E07522007821121939
:10519E003B900A7EE025E02A540775F01CA4F8A97E
:1051AE00F0E0A2E2E43375F0E0A4FAABF0740C2A5E
:1051BE00FA741B3BFBEA28FCEB39FD74041217CD85
:1051CE00120D33740212176774021217C5882189E3
:1051DE0022AC21AD2275211C752200782112193BBB
:1051EE007AC87B06120A2774021217677F000251D3
:1051FE005774E21217677F040218B102062DC0829F
:10520E00C0837A337B24120E8FD083D08202062D78
:10521E0002062D74F41217DF74FD12175175210357
:10522E00782112193F7D008A828B8378211215AF67
:10523E00AC21791874011217CD120B537401121789
:10524E00677A2B7B24120E8F7F0080147902EA2A54
:10525E00FAE433FB74952AFA740C3BFB120E770FAB
:10526E00EFC3940350308F82AA82853182853283B8
:10527E00E5822AF582E43583F583E0F860CE74FF8B
:10528E0028FA7918120A878B22EA2409FAE43522C1
:10529E00FB7402F980C674031217677F040218B1FB
:1052AE0074F41217DFEAFEEBFF75210C75220078FD
:1052BE002112193B90058EE0FCA3E0FD7AC87B0617
:1052CE00120A2774021217678E828F8378211215A5
:1052DE00AFE52114FAE522247F4480F9120A879063
:1052EE00058EEAF0A3EBF07A3B7B24120E8F7F043F
:1052FE000218B1C082C0837A5B7B24120E8FD083DA
:10530E00D08202062D74F01217DFEAFEEBFF892120
:10531E0075230C752400782312193B90058EE0FC42
:10532E00A3E0FD7AC87B06120A2774021217679053
:10533E0006C8E0A2E09006D4500474018001E4F0A7
:10534E008E828F8378251215AFE52514FA74BF551A
:10535E00214480F9120A8790058EEAF0A3EBF07AC9
:10536E00637B24120E8F7F080218B174F01217DFC0
:10537E00EAFEEBFF892175230C75240078231219A0
:10538E003B90058EE0FCA3E0FD7AC87B06120A274F
:10539E0074021217678E828F8378251215AFE5255A
:1053AE0014FA74BF55214480F9120A8790058EEACB
:1053BE00F0A3EBF07A7F7B24120E8F7F080218B1D8
:1053CE0074F61217DFE9FEECFFEE700F7C497D409C
:1053DE00120E83120B4D7F020218B1C39403506854
:1053EE00900D09E0F5216005C39404400375210476
:1053FE0074016E700AEFA2E050D9EA24088008EF1B
:10540E00A2E150CFEA240CF8E43BF990058EE8F0C7
:10541E00A3E9F07A8F7B24120E8F7404C39521F5C5
:10542E002195E0F5227402782112173EC39521F8DA
:10543E00E49522F990058CE028F8A3E039F990055F
:10544E008CE8F0A3E9F0808BEEC3940B40857410CA
:10545E006E7083EFA2E740030253E1EA2404F8E4FE
:10546E003BF990058EE8F0A3E9F07AA37B24120EA7
:10547E008F0253E174F01217DF74EC121751EAFE2B
:10548E00EBFF74041217BBE4F0A3F0A3F0A3F0EE4D
:10549E00FCEFFDAA31AB32120EDD75210075220034
:1054AE00752300752400901AD178251215BE8E82B0
:1054BE008F8378251211E47010900902E0548060F9
:1054CE00087901120EA102565874031217BBE0FAA6
:1054DE00600302584B74021217BBE0F874906870A8
:1054EE000302564B740B6860030255B27401121717
:1054FE00BBE0600302564B853182853283E0C39454
:10550E0006400302564BE0FA7902120A878A218B73
:10551E0022AE21AF22EE4F6014EE240CF582E43F52
:10552E00F58312161074041217BB12161C853182E5
:10553E00853283E0701474011217BBE0F912098BE7
:10554E008A218B228C238D248022E014FA79021278
:10555E000A878A218B22AE21AF22EE4F6022EE24E3
:10556E000CF582E43FF58378211215AF74041217FF
:10557E00BB78211214F674041217BB78211215D1C0
:10558E00900902E0548070030256488531828532BC
:10559E0083E0790570077AC87B1D02562F7ACC7B83
:1055AE001D025638740C686003025662740112179D
:1055BE00BBE0600302564B853182853283E0C39493
:1055CE0002507AE07021790012098B8A218B228C8D
:1055DE00238D24900BC978211214F674041217BB74
:1055EE0078211215D18023E014FA7903120A878AE2
:1055FE00218B22AE21AF22EE4F600F8E828F83124F
:10560E00161074041217BB12161C900902E0548077
:10561E006028853182853283E0790570097AD17BE5
:10562E001D12073380147AD77B1D12073385318202
:10563E00853283E044809008C4F0752104A921745A
:10564E00041217BB1215E0120AB774141217677FF3
:10565E00080218B174FE68702874011217BBE0704E
:10566E00DC853182853283E060D3E0C3940D50CD6A
:10567E00E014FA7902120A877C4D7D40120E838067
:10568E00BC853182853283E06003025763E8702A5D
:10569E0074011217BBE0F9C3940550A112098B7463
:1056AE00041217BB1215EC75210474011217BBE01E
:1056BE00F97A2F7B25120733808374016870597431
:1056CE00011217BBE0F9C39405400302564B752136
:1056DE0008782112193B120A57EAFCEBFD740E12E0
:1056EE0017CD120A277402121767740C1217BB78A3
:1056FE00211215AF74101217BB78211214F6740410
:10570E001217BB78211215D175210474011217BB23
:10571E00E0F97A337B25809D740268600302564B54
:10572E0074011217BBE0F9C39405400302564B12E5
:10573E000A578B22EA2404FCE43522FD7404121766
:10574E00CD120EDD75210474011217BBE0F97A3704
:10575E007B250256C3E0C3940D400302564BE8C3AB
:10576E009403400302564B74011217BBE0C3940519
:10577E004003025658853182853283E014FA79024D
:10578E00120A878A218B22AE21AF2274021217BB16
:10579E00E0F8743B28F582E43425F583E493FA743B
:1057AE00011217BBE075F00CA4F8A9F0EE28F8EF83
:1057BE0039F9E82AFCE439FD74041217CD120EDD16
:1057CE00EE4F700D74041217BBE4F0A3F0A3F0A318
:1057DE00F0752104900902E05480700302564B7458
:1057EE00021217BBE0F8700D74011217BBE0F97AC4
:1057FE003E7B25801D740168700D74011217BBE08D
:10580E00F97A457B25800B74011217BBE0F97A4EAD
:10581E007B25120733853182853283E0C3940AE0FB
:10582E00500944809008C5F002564B24F6448090EF
:10583E0008C5F07A577B2512072702564B74026A69
:10584E0060030259E674021217BBE0F87401687027
:10585E003F853182853283E0600302564B7401121C
:10586E0017BBE0F9740169701B9009E812161074E9
:10587E00041217BB12161C7521027A597B251207CA
:10588E002D02564B120B59E9600302564B0259BBBF
:10589E00740268703A853182853283E06003025665
:1058AE004B74011217BBE0F97401697017900A016D
:1058BE0012161074041217BB12161C7521037A608F
:1058CE007B2580BA120B59E9600302564B805B743C
:1058DE000368705E853182853283E0600302564B29
:1058EE0074011217BBE0F9C3940250189009B61256
:1058FE00161074041217BB12161C7521037A637BE3
:10590E002502588C74026970189009CF1216107403
:10591E00041217BB12161C7521037A6B7B250258D5
:10592E008C120B59E9600302564B7903120EA70233
:10593E005658740468702B853182853283E060037B
:10594E0002564B74011217BBE0600302564B9009CE
:10595E009D12161074041217BB12161C7521030229
:10596E00564B740668704B853182853283E0600336
:10597E0002564B74011217BBE0F9C39402502590E6
:10598E00099BE0FCA3E0FD3395E0FE74041217BB07
:10599E00ECF0A3EDF0A3EEF0A3F07521027A737B89
:1059AE0025025845120B59E9600302564B79020243
:1059BE00593A748068600302564B75250678251295
:1059CE00193F79128E828F8378251215AFAC25ADD3
:1059DE00267A1B7B23025C1474036A6003025BE865
:1059EE00752510782512193F79088E828F837825B8
:1059FE001215AFE9782512145AAC25AD267AAF7B75
:105A0E0024120EBF740112176774081217BBEAF046
:105A1E00A3EBF074081217BBE0F8A3E0F9E84970A5
:105A2E0003025BB874081217BBE0F8A3E0C82407A2
:105A3E00F582E438F583E493F9120C13E9600879E2
:105A4E0004120ABD02565874081217BBE02403F85C
:105A5E00A3E03400F9740A1217BBE8F0A3E9F0745E
:105A6E000A1217BBE0F8A3E0F5838882E493FC7476
:105A7E003F5CC39420400302564B853182853283AE
:105A8E00E07030900907E05404600302564B740A2C
:105A9E001217BBE0F8A3E0F5838882E493F9120AAB
:105AAE009974041217BBEAF0A3EBF0A3E4F0A3F091
:105ABE0002596A8C8285822174C05C6036EC543F38
:105ACE00F5217403782112173E748C2521F582740A
:105ADE00303522F583E493F8A3E4935403F97A0264
:105AEE007B001216BE8821E9F5223395E0F523F5E9
:105AFE0024801E7403782112173E748C2521F582A2
:105B0E0074303522F583E493F521A3E4935403F521
:105B1E0022853182853283E0F525E4F526F5277856
:105B2E002579211212665003025658900902E0544C
:105B3E00807074853182853283E014FAECF9120A92
:105B4E008790058EEAF0A3EBF090058EE0F8A3E0C7
:105B5E00F9E849701B74081217BBE0F8A3E0F5834F
:105B6E008882A3A3A3A3E493F96005120EA1803447
:105B7E00740A1217BBE0F8A3E0F5838882E493F968
:105B8E00EEFAEFFB74081217BBE0F8A3E0F583887A
:105B9E0082A3A3A3A3A3E493C0E0740193F583D0DF
:105BAE00821217DD025658025658902634C082C013
:105BBE00838E828F8378251215AF9026307825122A
:105BCE001548D083D08278251211F9600302564B06
:105BDE00EEFAEFFB120B5F02565874046A60030272
:105BEE005F3274021217BBE0F9703575254A7825BD
:105BFE0012193F79128E828F8378251215AFAC253C
:105C0E00AD267AE77B1D120EBF74011217678A2527
:105C1E008B26AC25AD26EC4D700302564B025EC6AC
:105C2E0074016960087402696003025D9474011264
:105C3E0017BBE0600302564B853182853283E060EC
:105C4E0003025CE575251C752600782512193BE9C3
:105C5E0075F01CA4F8A9F074D428F8741A39F9E870
:105C6E0024E4FCE934FFFD7AC87B06120D3374027E
:105C7E001217678049900902E0548060148E828F5B
:105C8E0083A3A3A3A3E0F525782579211211CF7064
:105C9E00258521258522267401782512173E74C488
:105CAE002525F58274063526F583A3A3A3A3E0FA72
:105CBE00A3E0FB120B35901B1078211214B8900D37
:105CCE0006E0F525E4F526F527F528782579211245
:105CDE00126640A1025658E0C39409400302564B87
:105CEE0075251C752600782512193B74021217BBF8
:105CFE00E075F01CA4FAABF0E975F0E0A4F8A9F099
:105D0E00740C28F8741B39F9E82AF8E93BF9E824F1
