:020000040000FA
:0600000002060002375E5B
:03000B0002377B3E
:030013000237832E
:03001B000237A009
:03002B000237C6D3
:03003B0002382266
:030043000238364A
:03004B000238E98F
:030053000239AFC0
:03005B00023A2F37
:03006300023A75E9
:1001000000002110422063308440A550C660E77093
:10011000088129914AA16BB18CC1ADD1CEE1EFF13B
:100120003112100273325222B5529442F772D662E3
:10013000399318837BB35AA3BDD39CC3FFF3DEE38B
:100140006224433420040114E664C774A444855433
:100150006AA54BB528850995EEE5CFF5ACC58DD5DB
:100160005336722611163006D776F6669556B44683
:100170005BB77AA719973887DFF7FEE79DD7BCC72B
:10018000C448E5588668A7784008611802282338D3
:10019000CCC9EDD98EE9AFF9488969990AA92BB97B
:1001A000F55AD44AB77A966A711A500A333A122A23
:1001B000FDDBDCCBBFFB9EEB799B588B3BBB1AABCB
:1001C000A66C877CE44CC55C222C033C600C411C73
:1001D000AEED8FFDECCDCDDD2AAD0BBD688D499D1B
:1001E000977EB66ED55EF44E133E322E511E700EC3
:1001F0009FFFBEEFDDDFFCCF1BBF3AAF599F788F6B
:100200008891A981CAB1EBA10CD12DC14EF16FE14A
:100210008010A100C230E320045025404670676082
:10022000B9839893FBA3DAB33DC31CD37FE35EF39A
:10023000B1029012F322D2323542145277625672D2
:10024000EAB5CBA5A89589856EF54FE52CD50DC5EA
:10025000E234C324A0148104667447642454054422
:10026000DBA7FAB79987B8975FE77EF71DC73CD73A
:10027000D326F2369106B016576676761546345672
:100280004CD96DC90EF92FE9C899E9898AB9ABA98A
:100290004458654806782768C018E1088238A328C2
:1002A0007DCB5CDB3FEB1EFBF98BD89BBBAB9ABBDA
:1002B000754A545A376A167AF10AD01AB32A923A12
:1002C0002EFD0FED6CDD4DCDAABD8BADE89DC98D2A
:1002D000267C076C645C454CA23C832CE01CC10C62
:1002E0001FEF3EFF5DCF7CDF9BAFBABFD98FF89F7A
:1002F000176E367E554E745E932EB23ED10EF01EB2
:1003000000010203040506070809AAAAAAAAAAAAC4
:100310000A0B0C0D0E0F10111213AAAAAAAAAAAA50
:100320001415161718191A1B1C1DAAAAAAAAAAAADC
:100330001E1F2021222324252627AAAAAAAAAAAA68
:1003400028292A2B2C2D2E2F3031AAAAAAAAAAAAF4
:1003500032333435363738393A3BAAAAAAAAAAAA80
:100360003C3D3E3F404142434445AAAAAAAAAAAA0C
:10037000464748494A4B4C4D4E4FAAAAAAAAAAAA98
:1003800050515253545556575859AAAAAAAAAAAA24
:0A0390005A5B5C5D5E5F60616263B2
:10039C0000010203040506070809101112131415B5
:1003AC001617181920212223242526272829303115
:1003BC003233343536373839404142434445464769
:1003CC0048495051525354555657585960616263BD
:1003DC00646566676869707172737475767778791D
:1003EC008081828384858687888990919293949565
:1003FC0096979899FFFFFFFFFFFFFFFFFFFFFFFF9F
:10040C00FFFFFFFFFFFFFFFFFFFFFFFFFFFFFFFFF0
:10041C00FFFFFFFFFFFFFFFFFFFFFFFFFFFFFFFFE0
:10042C00FFFFFFFFFFFFFFFFFFFFFFFFFFFFFFFFD0
:10043C00FFFFFFFFFFFFFFFFFFFFFFFFFFFFFFFFC0
:10044C00FFFFFFFFFFFFFFFFFFFFFFFFFFFFFFFFB0
:10045C00FFFFFFFFFFFFFFFFFFFFFFFFFFFFFFFFA0
:10046C00FFFFFFFFFFFFFFFFFFFFFFFFFFFFFFFF90
:10047C00FFFFFFFFFFFFFFFFFFFFFFFFFFFFFFFF80
:10048C00FFFFFFFFFFFFFFFFFFFFFFFFFFFFFFFF70
:10049C00FFFFFFFFFFFFFFFFFFFFFFFFFFFFFFFF60
:1004AC00FFFFFFFFFFFFFFFFFFFFFFFFFFFFFFFF50
:1004BC00FFFFFFFFFFFFFFFFFFFFFFFFFFFFFFFF40
:1004CC00FFFFFFFFFFFFFFFFFFFFFFFFFFFFFFFF30
:1004DC00FFFFFFFFFFFFFFFFFFFFFFFFFFFFFFFF20
:1004EC00FFFFFFFFFFFFFFFFFFFFFFFFFFFFFFFF10
:1004FC00FFFFFFFFFFFFFFFFFFFFFFFFFFFFFFFF00
:10050C00FFFFFFFFFFFFFFFFFFFFFFFFFFFFFFFFEF
:10051C00FFFFFFFFFFFFFFFFFFFFFFFFFFFFFFFFDF
:10052C00FFFFFFFFFFFFFFFFFFFFFFFFFFFFFFFFCF
:10053C00FFFFFFFFFFFFFFFFFFFFFFFFFFFFFFFFBF
:10054C00FFFFFFFFFFFFFFFFFFFFFFFFFFFFFFFFAF
:10055C00FFFFFFFFFFFFFFFFFFFFFFFFFFFFFFFF9F
:10056C00FFFFFFFFFFFFFFFFFFFFFFFFFFFFFFFF8F
:10057C00FFFFFFFFFFFFFFFFFFFFFFFFFFFFFFFF7F
:10058C00FFFFFFFFFFFFFFFFFFFFFFFFFFFFFFFF6F
:10059C00FFFFFFFFFFFFFFFFFFFFFFFFFFFFFFFF5F
:1005AC00FFFFFFFFFFFFFFFFFFFFFFFFFFFFFFFF4F
:1005BC00FFFFFFFFFFFFFFFFFFFFFFFFFFFFFFFF3F
:1005CC00FFFFFFFFFFFFFFFFFFFFFFFFFFFFFFFF2F
:1005DC00FFFFFFFFFFFFFFFFFFFFFFFFFFFFFFFF1F
:1005EC00FFFFFFFFFFFFFFFFFFFFFFFFFFFFFFFF0F
:1005FC00FFFFFFFF75D00075818F753131753203A8
:10060C0075A001023FB2F5F0E5A0C394015403C0FC
:10061C00E0E5A0C3940154FC45F0C32401F5A0E42B
:10062C0073D0E0F5F0E5A0C3940154FC45F0C3246D
:10063C0001F5A022D083D082E5A0C394015403C05D
:10064C00E0E493C0E0740193C0E07402935403F5AA
:10065C00F0E5A0C3940154FC45F02401F5A022E47C
:10066C00900331785C790C8002F0A3D8FCD9FA7A2B
:10067C008C7B0E9006A1780379018015E493A3ADD1
:10068C0082AE838A828B83F0A3AA82AB838D828E07
:10069C0083D8E9D9E79B0C12064054D600120640C9
:1006AC0082D60012064049D70012064073D80012B9
:1006BC00064013D90012064030D90012064051D919
:1006CC000012064090D900120640D0D90012064004
:1006DC0018DA0012064052DA0012064073DA0012E1
:1006EC000640DADA001206404EDB0012064074DBDC
:1006FC0000120640008001120640358001120640AF
:10070C0033F900120640D5F900120640EFF9001239
:10071C00064038FA001206409DFB00120640AEFB64
:10072C000012064017FC001206401AFC001206408C
:10073C009FFC001206405CFD0012064095FD001265
:10074C000640B0FD00120640B4FE0012064013FF36
:10075C00001206409396021206405797021206406A
:10076C00909702120640CA97021206402A9802126B
:10077C000640B79802120640DB9802120640019917
:10078C0002120640B49902120640C09D02120640A5
:10079C00A79E021206402A9F021206404A9F02128E
:1007AC000640F99F0212064032A002120640747FE6
:1007BC0000120640A8A2001206401FA30012064019
:1007CC003AA30012064071A40012064087A400123E
:1007DC00064054A70012064095AA00120640A1AB91
:1007EC0000120640B1AD0012064099AE0012064050
:1007FC008DFA001206409EFA0012064009FB001208
:10080C0006400080001206407A80001206400D81DE
:10081C0000120640978100120640C6810012064065
:10082C002A82001206408D820012064019830012A3
:10083C0006405183001206408083001206409283CA
:10084C00001206400B8700120640C38700120640B8
:10085C00E9870012064024880012064053880012D3
:10086C000640618800120640378E001206400B8F3E
:10087C00001206404B9000120640B9900012064040
:10088C002491001206404E9100120640C8800112BD
:10089C000640A8DB00120640EBDC001206401BDD14
:1008AC000012064049DD0012064075DD00120640BC
:1008BC0078DD00120640ADDD0012064016DE001297
:1008CC00064013E00012064038E00012064009EC26
:1008DC000012064066EC00120640FDEC00120640C9
:1008EC0019EE0012064029EE001206404BEE0012E3
:1008FC0006404EEE0012064051EE0012064054EE39
:10090C000012064057EE00120640C9EE00120640D7
:10091C00EDF400120640F0F40012064043F500120C
:10092C0006406AF50012064083F5001206409CF55D
:10093C0000120640AEF50012064053F600120640B7
:10094C00F0D00012064061D10012064077D100129F
:10095C000640A3D100120640B5D100120640C3D107
:10096C0000120640DCD10012064011D200120640E3
:10097C0025D2001206406BD200120640DFD20012C4
:10098C00064032D300120640AFD300120640D2D339
:10099C000012064063D4001206407CD400120640BC
:1009AC0098D400120640FAD4001206403AD5001230
:1009BC0006408FD500120640D4D50012064024D62E
:1009CC00001206400080021206409580021206407A
:1009DC009880021206409B8002120640E0800212B0
:1009EC000640E38002120640F180021206406B873B
:1009FC00021206406E8702120640C287021206409F
:100A0C004888021206405089021206407D89021263
:100A1C000640F189021206409E8F02120640C58FD5
:100A2C0002120640609102120640519202120640D8
:100A3C006A92021206404FC4001206400CCA001201
:100A4C00064065F60012064006F700120640A1F7B4
:100A5C00001206402B61001206407B61001206401A
:100A6C00C56100120640E561001206405A62001290
:100A7C0006403063001206409B6300120640A063E0
:100A8C0000120640FF640012064067660012064022
:100A9C009A6700120640DF6800120640456A001291
:100AAC000640756C00120640926C00120640916D67
:100ABC00001206408C6E00120640736F0012064046
:100ACC00827000120640F27100120640CF720012C2
:100ADC0006406774001206407477001206407F7758
:100AEC0000120640987700120640DA770012064092
:100AFC001D78001206405F78001206409D780012A7
:100B0C0006400579001206406E7900120640AC7959
:100B1C0000120640E079001206401C7A00120640D2
:100B2C00D17A00120640EC7A001206402A7B0012A1
:100B3C0006406F7B00120640CA7B00120640117CF7
:100B4C0000120640227C001206409A7C00120640DD
:100B5C00E07C00120640697D00120640417E0012C6
:100B6C000640937E00120640EB7E00120640717F19
:100B7C00001206407E4100120640E241001206407F
:100B8C00714200120640AA4200120640184500129B
:100B9C000640D146001206401747001206404A484C
:100BAC00001206406848001206407A4800120640BF
:100BBC00BC48001206400949001206403549001293
:100BCC0006407749001206408F49001206400D4A34
:100BDC00001206403A4A001206403D4A00120640F6
:100BEC00534B00120640564B00120640914B00121C
:100BFC000640A34B00120640B54B00120640C74BF3
:100C0C0000120640D94B001206401D4D0012064042
:100C1C00204D00120640324D00120640354D001298
:100C2C000640C24D00120640154E00120640274EDB
:100C3C00001206408D4E00120640E24E0012064095
:100C4C00964F00120640815F00120640EFCA001258
:100C5C0006401CCB001206405FCB001206408FCB27
:100C6C0000120640C5CB001206401DCC00120640F7
:100C7C0064CC00120640C8CC00120640D6CD00123F
:100C8C000640A3CE00120640A9D0001206408DE407
:100C9C0000120640CAE40012064002E500120640AB
:100CAC006BE500120640BFE500120640B8E60012E4
:100CBC000640FDE60012064024E7001206405AE703
:100CCC00001206406BE700120640DEEE00120640F2
:100CDC00FFEE001206401DEF001206407DEF0012E1
:100CEC000640A0EF0012064008F000120640CFF0BC
:100CFC000012064006F3001206408BF30012064069
:100D0C0022F40012064059F40012064001F10012C0
:100D1C00064083F100120640BAF10012064045F27B
:100D2C00001206407CF200120640AEE000120640B3
:100D3C00CAE000120640F3E00012064092E10012F5
:100D4C0006403AE2001206407BE20012064084E3C1
:100D5C000012064035BB0012064077BB001206405D
:100D6C008DBB001206409BBB0012064057BD001203
:100D7C000640DEBD0012064019BF00120640DEBF61
:100D8C00001206403BC0001206404FC00012064045
:100D9C00B6C00012064030C10012064044C1001219
:100DAC0006408EC100120640B2C100120640ACC211
:100DBC00001206401BC30012064080C300120640FE
:100DCC00E6C30012064022C4001206405DE8001281
:100DDC0006401AE900120640AFEA0012064034EB56
:100DEC0000120640CCEB001206400BFE001206402F
:100DFC005FFE001206407BFE00120640FBAE0012A6
:100E0C00064044AF0012064087AF00120640B9B04E
:100E1C0000120640CFB0001206400BB10012064083
:100E2C0030B1001206405AB1001206409DB10012BA
:100E3C0006403DB2001206401BB30012064073B3CD
:100E4C000012064052B40012064012B500120640C1
:100E5C005DB500120640C2B50012064066B900121C
:100E6C000640D6B900120640F0B9001206400ABA84
:100E7C000012064067BA00120640CBBA00120640B8
:100E8C007380011206408380011206407891001293
:100E9C000640E1910012064016920012064099920B
:100EAC0000120640D99200120640F792001206403A
:100EBC002E93001206406593001206409593001283
:100ECC000640809700120640FF9900120640449A93
:100EDC0000120640549A00120640789A00120640FE
:100EEC00899A001206409A9A00120640C99A00127A
:100EFC000640DA9A00120640B09B00120640EA9BAC
:100F0C0000120640249C001206405D9C0012064014
:100F1C009B9C00120640B89C00120640D59C001207
:100F2C000640F79C00120640079D00120640199DD2
:100F3C0000120640629D00120640389E00120640C8
:100F4C00EB9E00120640FF9E00120640289F0012E6
:100F5C0006404E9F00120640679F00120640809F7D
:100F6C0000120640AE9F0012064011A0001206406F
:100F7C0043A00012064032A100120640BEA100128E
:100F8C000640C1A10012064021A2001206405CA23C
:100F9C00001206405FA20012064062A20012064038
:100FAC00A2FC00120640F5FC0012064009FD0012DE
:100FBC00064019FD001206403DA502120640DEA8AF
:100FCC0002120640CDF700120640FFF70012064051
:100FDC0011F8001206402AF8001206409CF8001284
:100FEC00064013F90012064029F9001206402EF9AA
:100FFC000012064043A0021206407AA002120640DC
:10100C001DA10212064029A20212064078A3021268
:10101C000640A1A30212064073A40212064084A447
:10102C000212064094A4021206404EFF0012064023
:10103C0069FF00120640A8FF00120640E1FF0012F3
:05104C0006400F8101C8
:0D11C0004431343346393832315330330076
:1011CE0001E76670100809E766700A0809E766709D
:1011DE00040809E76622E066701008A3E066700A4C
:1011EE0008A3E066700408A3E06622E49366701319
:1011FE000874019366700C08740293667005087487
:10120E0003936622C3E7960809E7960809E796084E
:10121E0009E796A2D265D03322C3E09608A3E096E2
:10122E0008A3E09608A3E096A2D265D03322C0218F
:10123E00C3E49396F5210874019396422108740233
:10124E009396422108740393964221A2D265D0331D
:10125E00E5217001D3D02122C3E7960809E796084D
:10126E0009E7960809E79622C3E09608A3E09608D8
:10127E00A3E09608A3E09622C021C3E096F52108CC
:10128E00A3E096422108A3E096422108A3E09645EA
:10129E00217001D3D02122C021C3E49396F52108F9
:1012AE0074019396422108740293964221087403A6
:1012BE00939645217001D3D02122080808EAC0E098
:1012CE00EBC0E086F0E7A4FA180986F0E7A42AFA44
:1012DE00180986F0E7A42AFA180986F0E7A42AFA74
:1012EE001986F0E7A4FBE5F02AFA190886F0E7A4C0
:1012FE002BFBE5F03AFA190886F0E7A42BFBE5F094
:10130E003AFA18180986F0E7A4C5F02BFBE43AFA6E
:10131E001908E7C5F0C6A426F6E5F03BFBE43AFA59
:10132E001886F0E7A4F6E5F00826F6E43B08F6E4A6
:10133E003A08F6D0E0FBD0E0FA22E4CFC0E0E4CEEB
:10134E00C0E0E4CDC0E0E4CCC0E075F020E626F6C7
:10135E0008E633F608E633F608E633F6181818EC06
:10136E0033FCED33FDEE33FEEF33FFC3EC9709EDA7
:10137E009709EE9709EF97191919400FFFEC97FC93
:10138E0009ED97FD09EE97FE191906D5F0BFECF79A
:10139E0009EDF709EEF709EFF7191919D0E0FCD0AE
:1013AE00E0FDD0E0FED0E0FF2212141F1818181234
:1013BE00134812140E1919192212140E191919089C
:1013CE000808E618181820E7E012134812141F1820
:1013DE00181822090909E719191920E7DC08080865
:1013EE00E618181820E70302134812141F181818CD
:1013FE0012134812141F18181812140E1919192244
:10140E00E4C397F709E497F709E497F709E497F728
:10141E0022E4C396F608E496F608E496F608E496F7
:10142E00F622C6F4C608C6F4C608C6F4C608C6F444
:10143E00C6226017080808C6A2E713C618C613C648
:10144E0018C613C618C613C6D5E0E92260160808DA
:10145E0008C6C313C618C613C618C613C618C613B5
:10146E00C6D5E0EA22700908080822601618181876
:10147E00C6C333C608C633C608C633C608C633C687
:10148E00D5E0EA22E627F60809E637F60809E63738
:10149E00F60809E637F622E026F608A3E036F60847
:1014AE00A3E036F608A3E036F622E49326F6087497
:1014BE00019336F60874029336F60874039336F6E3
:1014CE0022E026F008A3E036F008A3E036F008A3E9
:1014DE00E036F022C3E697F60809E697F60809E625
:1014EE0097F60809E697F622C3E0C696F608A3E03B
:1014FE00C696F608A3E0C696F608A3E0C696F622B0
:10150E00C3E096F008A3E096F008A3E096F008A3D7
:10151E00E096F022E657F60809E657F60809E65770
:10152E00F60809E657F622E056F608A3E056F60846
:10153E00A3E056F608A3E056F622E49356F6087496
:10154E00019356F60874029356F60874039356F6F2
:10155E0022E056F008A3E056F008A3E056F008A3E8
:10156E00E056F022E647F60809E647F60809E64790
:10157E00F60809E647F622E49346F6087401934608
:10158E00F60874029346F60874039346F622E04674
:10159E00F008A3E046F008A3E046F008A3E046F00A
:1015AE0022E0F608A3E0F608A3E0F608A3E0F62290
:1015BE00E493F608740193F608740293F608740324
:1015CE0093F622E6F008A3E6F008A3E6F008A3E6F9
:1015DE00F022E0FAA3E0FBA3E0FCA3E0FD22EAF098
:1015EE00A3EBF0A3ECF0A3EDF022E0FCA3E0FDA34F
:1015FE00E0FEA3E0FF22ECF0A3EDF0A3EEF0A3EFEC
:10160E00F022E0F8A3E0F9A3E0FAA3E0FB22E8F071
:10161E00A3E9F0A3EAF0A3EBF022CAC0E0E6F0A340
:10162E0008DAFAD0E0FA22CAC0E0E0A3C582CCC53F
:10163E0082C583CDC583F0A3C582CCC582C583CDBB
:10164E00C583DAE6D0E0CA22CAC0E0E493A3C5821D
:10165E00CCC582C583CDC583F0A3C582CCC582C55A
:10166E0083CDC583DAE5D0E0CA22C58224FDC582CA
:10167E00C58334FFC58322C3E498F8E499F91216A2
:10168E00C68026C3E49AFAE49BFBE920E7E912162A
:10169E00C6E498F8E499F922C3E498F8E499F912AB
:1016AE0016C6E498F8E499F9C3E49AFAE49BFB228F
:1016BE00EB20E7CFE920E7E0B90010BB0008E88A8D
:1016CE00F084F8AAF022E4FBC8FA22EB70227B1019
:1016DE00C833C8C933C9335007C39AC3DBF2800677
:1016EE009A50012ADBEAC833F4C8C933F4C9FA2286
:1016FE0075F008E4C833C8C933C933C99AC99B50B9
:10170E0004C92AC93BD5F0ECFBC833F4C8E4C9FAC6
:10171E0022600D08C6A2E713C618C613C6D5E0F39D
:10172E0022600C08C6C313C618C613C6D5E0F42231
:10173E00700422600D18C6C333C608C633C6D5E082
:10174E00F41822253110AF08F531400C15328008FF
:10175E00F53140021532D2AF2200C0D0253110AF84
:10176E0008F531500C05328008F53150020532D2A1
:10177E00AFD0D0222531F58210AF08F531400C15CF
:10178E00328008F53140021532D2AF8532832225E0
:10179E0031F582E43532F583222531F8E43532F91C
:1017AE00222531FAE43532FB222531FCE43532FDB7
:1017BE0022E4732531C582C0E0E53234FFC583C013
:1017CE00E0E531C3958224F810AF08858332858217
:1017DE00318008858332858231D2AFCEF0A3E520E9
:1017EE00F0A37821E608F0A3DEFAEFF0A3E581245A
:1017FE00FAF8E608F0A3E608F0A3E608F0A3080856
:10180E00E608F0A3E608F0A315811581D0E0FED01E
:10181E00E0F8158115811581E8C0E0EEC0E02225C3
:10182E0031C582C0E0E53234FFC583C0E0E531C387
:10183E00958224F910AF0885833285823180088520
:10184E008332858231D2AFCEF0A3E520F0A378218A
:10185E00E608F0A3DEFAEFF0A3E58124FBF8E60834
:10186E00F0A3E608F0A30808E608F0A3E608F0A344
:10187E0015811581D0E0FED0E0F815811581E8C004
:10188E00E0EEC0E022853283853182E0A3FEE0A344
:10189E00F5207821E0A3F608DFFAE0A3FFE0A3C06D
:1018AE00E0E0A3C0E0E0A3C0E0E0A3C0E0E0A3C09E
:1018BE00E010AF08858231858332800885823185BC
:1018CE008332D2AFD083D08202062D85328385310A
:1018DE0082E0A3FEE0A3F5207821E0A3F608DFFA6C
:1018EE00E0A3FFE0A3C0E0E0A3C0E0E0A3C0E0E01F
:1018FE00A3C0E010AF0885823185833280088582CF
:10190E0031858332D2AFD083D082227404800674A4
:10191E000280027401C0E0F404121782D0E01216A5
:10192E0028227404800474028000CCC0E0EDC0E074
:10193E00E531C39CCCAD3250011D10AF068C318DFC
:10194E003280068C318D32D2AF121635D0E0FDD0FA
:10195E00E0FC2274048000CCC0E0EDC0E0E531C3B1
:10196E009CCCAD3250011D10AF068C318D328006ED
:10197E008C318D32D2AF121656D0E0FDD0E0FC2263
:10198E00D083D082ECC0E0EDC0E0E493A3FCE493FE
:10199E00A3FDED4C600D1219DAEC24FFFCED34FFC3
:1019AE00FD80EFE493A3FCE493A3FDED4C600D12D8
:1019BE001A19EC24FFFCED34FFFD80EFD0E0FDD0D2
:1019CE00E0FCE493A3C0E0E493C0E022C0E0C3E4F3
:1019DE009396087401939618400FE4936670080866
:1019EE00740193661870007019A3A3C3E49396084C
:1019FE007401939618A3A3400DD0E0D0E0D0E0027E
:101A0E0019CAA3A3A3A3A3A3D0E022C0E0C0F08869
:101A1E00F0E4936670080874019366187000A8F0DD
:101A2E00A3A3700BD0F0D0E0D0E0D0E00219CAA38F
:101A3E00A3D0F0D0E022001F0AFA00E1F505640001
:101A4E000000000000000A0000003F065B4F666DBC
:101A5E007D077F6F777C395E79710006060606FF7B
:101A6E00FFFFFF00029000FF0000000F00000000CB
:101A7E00004000000001001FF1000407060606B832
:101A8E003E24031F1C1F1E1F1E1F1F1E1F1E1F0670
:101A9E000503000603030005000416322C040100A2
:101AAE000000180000003C0000008051010080D6AC
:101ABE00E3018151010007000000C4FFFFFFE02E8B
:101ACE000C0110270A01401F080188130501B80BED
:101ADE000301D0070201E8030A0A0019400A800C2C
:101AEE00200A6009180A4006100AB0040C0A2003E6
:101AFE00080AF401050A9001040AC800020A6400EB
:101B0E00010AC000000000020202040206040A04D8
:101B1E000E04120416041A041E04220426042A04B7
:101B2E002E0432013301340438043C0440044404CE
:101B3E0048044C0450015102D96204019C3C1D9191
:101B4E00BC749388C8000000080000001300000059
:101B5E00050000005F000000700000001000000093
:101B6E00FA000000FC000000F80000003000000049
:101B7E000002000000008000A9ECFFFF63000000DF
:101B8E00941100007D150000E80300006B0BE509C1
:101B9E006F0BF709EAF48F04B004D8598813546216
:101BAE007C0113C4704964C1FE0013C4704991E2F4
:101BBE00A9EFE83A64EF63041303F2388C0641840C
:101BCE0032060000000000000000000031F4840026
:101BDE0031F48400B290625F99999D3899999D383D
:101BEE00F2388C06418432061211111111111104B2
:101BFE0005050204051A3C1E00000505143C0502ED
:101C0E00500000000000020000000000000000CDA7
:101C1E0013000047170000042020000144040002B6
:101C2E004404000044040011440400124404001053
:101C3E0044040021440400224404002044040031E2
:101C4E004404003244040030440400414404004281
:101C5E0044040040440480E70A0202030CEB0A012C
:101C6E0003040501A30200000000800D0000000027
:101C7E000004000000080060FAFFFFA0050000004D
:101C8E00320000A30B00001A000000120000003208
:101C9E000000001F000000E02B3F0010B33C00913D
:101CAE00572C00C90ACF0AC30ADB0A0142300301CE
:101CBE0057AA02015232022F3F210D0A2F3FAAAA24
:101CCE00AAAAAAAAAAAA210D0A2F4C554E303C3117
:101CDE003E4C554E3130063030AA0D0A01503002BE
:101CEE00282903600150AA0228AAAAAAAAAAAAAA67
:101CFE00AA290301564702434C522D30300360FB94
:101D0E001F0120002000092001200120000F2001CA
:101D1E0020022000152001200020011D200120019D
:101D2E002001252001200220012D20012003200169
:101D3E00352001200420013D2001200520014520F1
:101D4E0001200620014D20012007200155200120F1
:101D5E000820015D200120092001652001200A20B4
:101D6E00016D2001200B2001752001200C20017D2A
:101D7E002001200D2001852001200E20018D200143
:101D8E00200F2001952001201020019D20012011FF
:101D9E002001A5200120122001AD200120132001D9
:101DAE00B5200120142001BD200120152001C520E1
:101DBE000120162001CD200120172001D520012061
:101DCE00182001DD200120192001E52001201A2014
:101DDE0001ED2001201B2001F62001201C2001FF17
:101DEE002001201D2001082101201E2001112101AA
:101DFE00201F20011A210120202001232101202152
:101E0E0020012C2101202220013521012023200137
:101E1E003E214421002002462144211020024E2161
:101E2E004421202002562144213020025E214421EB
:101E3E00402002662144215020026E214421602060
:101E4E0002762144217020027E21442180200286C8
:101E5E002144219020028E214421A020029721446A
:101E6E0021B02002A0214421C02002A9214421FE3C
:101E7E002003AF214421002003B52144210120037A
:101E8E00BD214421022003C5214421032003CD217D
:101E9E004421042003D5214421052003DD214421C2
:101EAE00062003E5214421072003ED2144210820CB
:101EBE0003F5214421092003FD2144210A200306B4
:101ECE002244210B20030F2244210C20031822440C
:101EDE00210020041F224421012004292244210232
:101EEE002004332244210320043D224421042004F3
:101EFE0047224421052004512244210620045B225E
:101F0E004421072004652244210820046F22442125
:101F1E00092004792244210A2004842244210060ED
:101F2E00058A224421016005922244210260059A0D
:101F3E00224421036005A222A822046005AE224499
:101F4E0021052005B5224421062005BC2244210787
:101F5E002005C322A822086005CA22442109400593
:101F6E00D22244210A4005DA2244210B2005E12227
:101F7E0044210C6005E72244210D6005ED22442129
:101F8E000E6005F32244210F6005F92244211060F2
:101F9E0005FF224421116005052344210160060B33
:101FAE002344210060061123442102600617231EDC
:101FBE0023012007222329230220072D2344210059
:101FCE00400834234421014009870A8D0A930A9F51
:101FDE000AB70AA50A990AB10AAB0AE10A4D0A40E4
:101FEE0004AB0B4002AD0B4002AF0B4002312E385A
:101FFE002E30002A6B5768290D0A00312E382E31EB
:10200E0000312E382E3200312E382E302A3100314A
:10201E002E382E312A3100312E382E322A3100310F
:10202E002E382E302A3200312E382E312A320031FF
:10203E002E382E322A3200312E382E302A330031ED
:10204E002E382E312A3300312E382E322A330031DB
:10205E002E382E302A3400312E382E312A340031CB
:10206E002E382E322A3400312E382E302A350031B9
:10207E002E382E312A3500312E382E322A350031A7
:10208E002E382E302A3600312E382E312A36003197
:10209E002E382E322A3600312E382E302A37003185
:1020AE002E382E312A3700312E382E322A37003173
:1020BE002E382E302A3800312E382E312A38003163
:1020CE002E382E322A3800312E382E302A39003151
:1020DE002E382E312A3900312E382E322A3900313F
:1020EE002E382E302A313000312E382E312A313012
:1020FE0000312E382E322A313000312E382E302A31
:10210E00313100312E382E312A313100312E382E18
:10211E00322A313100312E382E302A313200312E12
:10212E00382E312A313200312E382E322A313200F9
:10213E00312E362E30002900312E362E302A310027
:10214E00312E362E302A3200312E362E302A3300E2
:10215E00312E362E302A3400312E362E302A3500CE
:10216E00312E362E302A3600312E362E302A3700BA
:10217E00312E362E302A3800312E362E302A3900A6
:10218E00312E362E302A313000312E362E302A3175
:10219E003100312E362E302A31320039362E37307C
:1021AE000039362E37310039362E37312A31003983
:1021BE00362E37312A320039362E37312A3300394E
:1021CE00362E37312A340039362E37312A3500393A
:1021DE00362E37312A360039362E37312A37003926
:1021EE00362E37312A380039362E37312A39003912
:1021FE00362E37312A31300039362E37312A3131E9
:10220E000039362E37312A31320039362E372E31FB
:10221E000039362E37372E312A310039362E3737E0
:10222E002E312A320039362E37372E312A330039E5
:10223E00362E37372E312A340039362E37372E3197
:10224E002A350039362E37372E312A360039362EBA
:10225E0037372E312A370039362E37372E312A3876
:10226E000039362E37372E312A390039362E373788
:10227E002E312A313000302E302E300039362E39A4
:10228E00372E310039362E39372E320039362E3967
:10229E00372E3300302E382E30002A6D696E29000D
:1022AE0039362E312E330039362E322E3500393650
:1022BE002E322E320039362E382E300039362E3947
:1022CE00362E310039362E39362E320039362E362C
:1022DE002E310039362E35300039362E3531003953
:1022EE00362E35320039362E36300039362E36310E
:1022FE000039362E363200302E392E3100302E393E
:10230E002E3200302E392E350033322E372E30003D
:10231E002A56290033312E372E30002A4129004605
:10232E00462E302E300046462E302E310000000054
:10233E0000000000000000010D300300000011033A
:10234E0000FFFFFF7F00100000FFFFFF0399999928
:10235E009999990048474000484FC0080706021255
:10236E00000411090103100520480400BF48044071
:10237E00244814412C4811412A4811C1393902F719
:10238E00586C2222638387223E3E638387223E213E
:10239E003D3D9291918491912D2D5E605F6C15154E
:1023AE00092222637F787802813278780281637401
:1023BE0078780281327478788E8E022E423B362BDC
:1023CE001F1F010100050413030000B807923A0015
:1023DE0000922303020100050333030000B80792A5
:1023EE003A0000982303050100800A000000000057
:1023FE00350000000000000306010705053B030041
:10240E00006F0A2545000000000308010009053B86
:10241E00030000770A2545000000000109010009AC
:10242E00053B0300007B0A254500000000010C015E
:10243E0000050733038000B807923A00000000033E
:10244E000F010041012B038000830B2A4500000081
:10245E0000030102040501310200001C0C8E450030
:10246E0000000003050200050A31020000200C8E58
:10247E0045000000000307020005013102000022A2
:10248E000C8E45000000000108020005011000003E
:10249E0000CB0B200001C000000301030005011159
:1024AE00000000D80B630001C0000003020300050A
:1024BE000111000000270C140005C00000030303E7
:1024CE0000050111000000250C020000C0000003F1
:1024DE00040300050111000000260C040000C000DA
:1024EE000003050300050111000000D90B63000174
:1024FE00C00000030603070923190000005B0A3F12
:10250E00420F880000030803000501110000002897
:10251E000C1E0005C0000003010400058613030015
:10252E00004D0A2045000000000302040029861316
:10253E00030000470A20450000A023030304000502
:10254E00A012000000DA0B000000000000030404DB
:10255E0007800101018000CB2B9345000000000392
:10256E00090400801301010001C52BA75F0000C6FE
:10257E0023030B0400808A02010000D02BA75F000A
:10258E00000000030C0400808A020100003A2CA710
:10259E005F00000000030D04008090020100004463
:1025AE002CA75F00000000030E0400288613030012
:1025BE0000410A20450000A323030F0400050B125F
:1025CE00000000FA0B000000000000030105078068
:1025DE0002040000005E0800000000000003080571
:1025EE0000800404000000870B00000000000003C0
:1025FE000106000501300200001B0C98450000008A
:10260E000003010700050110020000D50B76420001
:10261E0000000003030700050110020000D60B7630
:10262E00420000000003050700050110020000D75C
:10263E000B76420000000003010800050130020085
:10264E0000230CEE450000000003020800050131D6
:10265E00020000240CEE45000000000301090605EF
:10266E000110020000110CF3450000000003010AE6
:10267E0000050413020000A70B7C5F00000000039E
:10268E00020A05050A11000000170C3C0001C000EB
:10269E000003010B03058217020000AB0BF8450087
:1026AE0000AF2303010C05050430038000BF0BA50A
:1026BE00420000000003011100050111020000CCD0
:1026CE000BFD450000000003041100050812000078
:1026DE0000CD0B00000000000003011200050513E1
:1026EE00030000A30B2545000000000302120005A5
:1026FE0001110200000A0C574600000000030312ED
:10270E0000050213020000B10B8D460000AF23033B
:10271E000412008084000000000D0C000000000078
:10272E000003011400050211000000B30B0F270077
:10273E00800000030214000523110000009F0B3FD0
:10274E00420F80000003031400050211000000B5C3
:10275E000B0F270080000003041405050111000073
:10276E00000B0C63000080000003011500800206C0
:10277E00010000930A1B4500000000030315000032
:10278E000C02030000930A1B4500000000031FF11A
:10279E0000808400010000CA067B47000000000391
:1027AE002FF10001B902020000A12B3B48000000EE
:1027BE0000033FF10001FA02020000DA2B3B480051
:1027CE00000000035FF10001A002020000582C3B44
:1027DE004800000000036FF10001D7020200009DC7
:1027EE0009404800000000037FF100019002020042
:1027FE0000FA0940480000000003AFF10080040019
:10280E00000000AC060000000000000301F3000110
:10281E008102020000582CBF5D000000000302F38D
:10282E00000186020300000000F35D0000000003BB
:10283E0003F300018602030000FA09A65E00000001
:10284E00000304F30001021100000055090000000E
:10285E000000000305F3000184020200003B0A772A
:10286E005F000000000306F30041083203800029D8
:10287E000C4460000000000307F300019302020005
:10288E0000870CDB60000000000308F300018402E7
:10289E00030000F4098F3E000000000300F419014C
:1028AE008402030000870CB23C000000000300F518
:1028BE0000018102030000870C983D000000000318
:1028CE0078F590018402030000870CC73D000000DC
:1028DE00000300F6FE018402030000870C233E0075
:1028EE000000000300F7FE018402030000870C23A2
:1028FE003E000000000301000080230100060030AE
:10290E0009000000008A230302000080020100007B
:10291E00005109000000008C230307000080020113
:10292E000000015B0900000000A8230308000080DE
:10293E000201000002570900000000AE23030A0046
:10294E0000800401008000DB0A000000000000038C
:10295E002200238002010100006F0945480000009B
:10296E000003010800050211000000BB0BE8030084
:10297E0080000003020800050111000000080C632E
:10298E00000AC00000030110000523110003009B84
:10299E000B3F420F800000030210000501110000E2
:1029AE0000090C6300008000000301F10005021114
:1029BE00000000BD0B90010080A623030AF1000564
:1029CE000411000000DB0A0F270080A62303004835
:1029DE0040C0004840400448040008483C410C48B0
:1029EE003C410040FF0F08483C410C483C41004030
:1029FE00FFBF0048404004480880004804000448D7
:102A0E004040084840C00048404004480480004808
:102A1E004040044805800400404000484040080003
:102A2E003C410C003C410040FF0F04483C4108482B
:102A3E003C410040FF8F004840400448098004009C
:102A4E004040004840401000010008003C410C008E
:102A5E003C4104483C4108483CC104004040004809
:102A6E00404008003C410C003CC100483C41084835
:102A7E003C4110483C4118483C4120483CC100486C
:102A8E003841004838410140FF910011005C0CEFC5
:102A9E000B030130000F6AFB0B03033000100E0115
:102AAE000C030430001110070C0305300012000D4A
:102ABE000C03063000135E130C03073000140B19C1
:102ACE000C0308300015001F0C03093000170B19FA
:102ADE000C030C30001810250C030D30004C3C2B51
:102AEE000C031230000B0F310C030036005B1D3748
:102AFE000C030037005A143D0C0300A0001D06F510
:102B0E000B0301A0001E10070C03637C7B7B777EFA
:102B1E006363637A7E7E0C0408028132747C7B7B55
:102B2E00028132747C7B777E7E028132747C7B7A6A
:102B3E007E7E333345666861605F5F4638384B385A
:102B4E005E66605F67674B395E66605F67672D0A1A
:102B5E000A00FFFF000000300065000000285C8FB7
:102B6E00029999991990D003000C000000005900A9
:102B7E0059002301310112009900060006020306D6
:102B8E000104060205000305010101090714031CD7
:102B9E000400004550534F4E313146204F63742090
:102BAE00323120323031392031343A31313A343702
:102BBE0000000000600057B004B900FC083200E8C5
:102BCE00031444445A595858582D4D0044445A59E8
:102BDE005858582D4D000000000000000000000065
:102BEE0000000000000000000000000044445A599C
:102BFE005858582D4D000000000000000000000045
:102C0E000000000000000000000000005858585856
:102C1E0000000000000000000000000000000000A6
:102C2E0000000000000000000000000032303136CD
:102C3E002D58582D5858444C2F543634352D32308B
:102C4E0030372D31340077013355006400000078A1
:102C5E00020014122501AAAAAAAAAAAAAAAA0000C8
:102C6E00000000000000000000000B074A012C01CC
:102C7E00B6034512E0029B039B0300591744445AC6
:102C8E0059585858432D4D44445A59585858432D65
:102C9E004D000000000000000000000000000000D9
:102CAE000000000000000044445A59585858432D63
:102CBE004D000000000000000000000000000000B9
:102CCE000000000000000044445A59585858430070
:102CDE000044445A59585858430000000000000060
:102CEE0000000000000000000000000000000000D6
:102CFE000044445A59585858430000000000000040
:102D0E0000000000000000000000000000000000B5
:102D1E000044445A595858582D4D0044445A595855
:102D2E0058582D4D0000000000000000000000006B
:102D3E00000000000000000000000044445A5958F2
:102D4E0058582D4D0000000000000000000000004B
:102D5E00000000000000000000000044445A5958D2
:102D6E00585800000044445A595858580000000062
:102D7E000000000000000000000000000000000045
:102D8E00000000000044445A5958585800000000F2
:102D9E000000000000000000000000000000000025
:102DAE00000000000034120040000000400000004F
:102DBE0000000000000000000000000040000000C5
:102DCE0000000000000000000000000000000000F5
:102DDE0000000000000000000000000000000000E5
:102DEE0000000000000000000000000000000000D5
:102DFE00000000000000000000000000FFFF1800AF
:102E0E006000000000000000000000000000000054
:102E1E0000000000000000000000007200B1014D33
:102E2E00E8FFFF6CFDFFFF00000000000000000047
:102E3E000000000000000000000000000000000084
:102E4E000000007701335500000000000000000074
:102E5E000000000001111111111111F401000064A4
:102E6E000000000100000001000000204E000000E4
:102E7E000000000000000000000000000000000044
:102E8E0000000000000000000080110000001F0084
:102E9E000000000000000000000000000000000024
:102EAE000000000000000000000000000000000014
:102EBE000000000000000000000000000000000004
:102ECE0000000000000000000000000000000000F4
:102EDE0000000000000000000000000000000000E4
:102EEE000000000000000000000000000000004094
:102EFE0088A0004088A0004088A0000000000000CC
:102F0E0000000000000000000000000000000000B3
:102F1E0000000000000000000000000000000000A3
:102F2E000000000000000000000000000000000093
:102F3E000000000000000000000000000000000083
:102F4E000000000100000000000000000000000072
:102F5E000000000000000000000000000000000063
:102F6E000000000000000000000000000000000053
:102F7E000000000000000000000000000000000043
:102F8E00000000000000000000000000100008001B
:102F9E00000000E8030000FFE0F505C80000000097
:102FAE000000002C000000307500000049D1120016
:102FBE0000010101009999999900000000A00500F7
:102FCE00000000E803040100000000025634120461
:102FDE0078563414000004100000000200040808A3
:102FEE00050A0000000000000000000000000000C4
:102FFE0000000000000000000000000000000000C3
:10300E00000000000000000000000000003C3C3CFE
:10301E003C0A3C1E1E999912000F83838303830F73
:10302E000F0F0F05020208040000007F01020405C5
:10303E0005FFFFFFFFFFFFFFFF0000000000000085
:10304E000000000000000000000000000000000072
:10305E000000000000000000000000000000000062
:10306E000000000000000000000000000000000052
:10307E000000000000000000000000000000000042
:10308E000000000000000000000000000000000032
:10309E000000000000000000000000000000000022
:1030AE000000161102120C120C120C120C120C1241
:1030BE000C120C120C120C120C120C120C120C1113
:1030CE0002120C120C120C120C120C120C120C120C
:1030DE000C120C120C120C120C120C88130024136E
:1030EE0000C012005C120000000000000000000092
:1030FE0000000000000000000000000000000000C2
:10310E0000000000000000000000000000000000B1
:10311E0000000000000000000000000000000000A1
:10312E000000000000000000000000000000000091
:10313E0000000000000000000000008813002413AF
:10314E0000C012005C120000000000000000000031
:10315E000000000000000000000000000000000061
:10316E000000000000000000000000000000000051
:10317E000000000000000000000000000000000041
:10318E000000000000000000000000000000000031
:10319E000000000000000000000000010082160385
:1031AE002D8443015A82700387849D849D849D845F
:1031BE009D849D849D849D00000000000000000001
:1031CE0000000000000000000000000000000000F1
:1031DE0000000000000000000000000000000000E1
:1031EE0000000000999999999999999999999999A5
:1031FE00000000BE051246843F05690040BE034034
:10320E00000000000002FA02900000000290000090
:10321E000000000000000000000006120101000482
:10322E000002010004002000800200000290000055
:10323E0000000B0000000000000000000000000075
:10324E000000000000000000000000000000000070
:10325E000000000000000000000000000000000060
:10326E000000000000000000000000000000000050
:10327E000000000000000000000000000000000040
:10328E000000000000000000000000000000000030
:10329E000000000000000000000000000000000020
:1032AE000000000000000000000000000000000010
:1032BE000000010100040002010004002000800251
:1032CE00000002900000000000000001000000005D
:1032DE000E040004010E04000400020400040102A6
:1032EE0004000400000101020000010202000001BE
:1032FE00030200010B000400090400040002008018
:10330E000200021400040003140004000000000078
:10331E00000000000000000000000000000000009F
:10332E00000000000000000000000000000000008F
:10333E00000000000000000000000000000000007F
:10334E000000000000000000050800000000000062
:10335E000100000000020000000003000000000455
:10336E00000000000000000000000000000000004F
:10337E00000000000000000000000000000000003F
:10338E00000000000000000000000000000000002F
:10339E00000000000000000000000000000000001F
:1033AE00000000000000000000000000000000000F
:1033BE0000000000000000000000000000000000FF
:1033CE0000000000000000000000000000000000EF
:1033DE0000000000000000000000000000000000DF
:1033EE0001010004000201000400000103020000BC
:1033FE0002030200000101020000010202000100AE
:10340E008002000000000000010100040002010023
:10341E00040000010102000001020200000103028B
:10342E000000010602000000000000000000000085
:10343E00000000000000000000000000000000007E
:10344E00000000000000000000000000000000006E
:10345E00000000000000000000000000000000005E
:10346E00000000000000000000000000000000004E
:10347E000000000000001FF100040706060600020F
:10348E00900015222D3E7F8286898A10110B315CA9
:10349E00645D65AE020000AF020000B102B302B57A
:1034AE0002050404090903039494797D7D798181D1
:1034BE007985851C1C5B5B019393B702BA02BD0232
:1034CE00C002C202C402BB027C7B7BDE0104800010
:1034DE0006030300050004FFFFFFFFFF999999996A
:1034EE009999616263646566000000000000000047
:1034FE000000805E666861605F673F6B6D59585271
:10350E006C4C46484F4E4D47403A3C4342413B344B
:10351E002A2C3736352B241E202726251F18121449
:10352E001B1A19130C06080F0E0D074944454B5173
:10353E00504A0000000001000000010003000200DC
:10354E000000070040000C0000000703040002000A
:10355E0047040F030800040047042F033000020045
:10356E0047048F03300002004704EF0330000300CE
:10357E0047047F04300002004704DF0438000200D5
:10358E003F044F050C0002007704670510000A0087
:10359E00000007060C0014007704F7061000140054
:1035AE00AF04370830000A000000170A10000A00A6
:1035BE009F04B70A0C000A0000002F0B0C000A0033
:1035CE000000A70B28000A000000370D28000A0093
:1035DE000000C70E0C000A0000003F0F0C000A008E
:1035EE000000B70F18000A000000A7100C000A0018
:1035FE0000001F110C000A000000971118001400A3
:10360E00830477130C001400770467140C00140065
:10361E00BF04571504001400D802A71504000500B6
:10362E00D802BB150C0005000000F71504000200BF
:10363E000000CA1002009602040071020400F20299
:10364E000400014404000244040011440400124426
:10365E000400214404002244040031440400324496
:10366E00040041440400424404800000330001443D
:10367E00040002440480DE010400014404000244FC
:10368E000400240302003D030300F2020300D702EC
:10369E000280000033008F03040001440400024442
:1036AE00048000003300C6110400014404000244EB
:1036BE0004807102040001440400024404800040AE
:1036CE000000A0004000000000400000FEFFFFFFD1
:1036DE000264052006BD06300702091B09B708D093
:1036EE0008785634120149D11247276267000080CC
:1036FE00FFDD0500000100E7FF181E00000078281E
:10370E0079287A287B287C287D287E287F28862881
:10371E00F420FA20F520FB20E820E920EA20EB2017
:10372E00EC20ED20EE20EF20F020F120F220F3200F
:10373E00F620F720F820F920F282D982FC82EBA243
:10374E00F5A2FBA2C782E482F282D522D5A2EBA219
:10375E00C0E0C0D075D010C082C083C0F07909120D
:10376E000FD9D0F0D083D082D0D0D0E032C0D07577
:10377E00D010D0D032C0E0C0D075D010C082C0837F
:10378E00C0F0790B120FD9D0F0D083D082D0D0D028
:10379E00E032C0E0C0D075D010C082C083C0F0C28D
:1037AE008F90037FE4F0C28E790C120FD9D0F0D037
:1037BE0083D082D0D0D0E032C0E0C0D075D010C05F
:1037CE0082C083C0F0C2CF9008117401F0120E3582
:1037DE0090037EE06401700B75CDFD75CC54123FE5
:1037EE0020802675CDF575CC54120D1B12071B903B
:1037FE000332E06003E014F0900359E004F0E0C3FC
:10380E0094194005E4F0120745D0F0D083D082D051
:10381E00D0D0E032C0D075D010A2C05002C2C0A22B
:10382E00C15002C2C1D0D032C0E0C0D075D010C0DD
:10383E0021C082C083C0F0902840E0F5219028433B
:10384E00E05221E521A2E7500C902840E0C2E7F0BB
:10385E007904120FD9E521A2E45007902840E0C266
:10386E00E4F0E521A2E55007902840E0C2E5F0E53E
:10387E0021A2E25011902836E0C2E1F0902840E0FB
:10388E00C2E2F0120D2DE521A2E35011902836E090
:10389E00C2E0F0902840E0C2E3F0120D27E521A22D
:1038AE00E05011902826E0C2E1F0902840E0C2E0FE
:1038BE00F0120D0FE521A2E15011902826E0C2E092
:1038CE00F0902840E0C2E1F0120D095391EFD0F0D4
:1038DE00D083D082D021D0D0D0E032C0E0C0D0751D
:1038EE00D010C021C082C083902848E0F5219028D6
:1038FE004BE05221E521A2E6501490047CE0D2E088
:10390E00F0902848E0C2E6F0900464E004F0E5216F
:10391E00A2E2500E90283EE0C2E1F0902848E0C2AC
:10392E00E2F0E521A2E3500E90283EE0C2E0F090D6
:10393E002848E0C2E3F0E521A2E45007902848E0D1
:10394E00C2E4F0E521A2E55015902848E0C2E5F06A
:10395E0090284BE0C2E5F0902838E0C2E0F0E52177
:10396E00A2E75007902848E0C2E7F0E521A2E05018
:10397E000E90282EE0C2E1F0902848E0C2E0F0E57B
:10398E0021A2E1500E90282EE0C2E0F0902848E0EF
:10399E00C2E1F05391DFD083D082D021D0D0D0E0DD
:1039AE0032C0E0C0D075D010C021C082C083C0F03C
:1039BE00902850E0F521902853E052215391BF7981
:1039CE0013120FD9E521A2E3502290046BE02401DB
:1039DE00F0A3E03400F0903707E493F879009009F3
:1039EE0080F0A3E4F0902850E0C2E3F0E521A2E2DB
:1039FE00502290046FE02401F0A3E03400F09037E1
:103A0E0007E493F87900900980F0A3E4F090285031
:103A1E00E0C2E2F0D0F0D083D082D021D0D0D0E07E
:103A2E0032C0E0C0D075D010C021C082C083C0F0BB
:103A3E009028A2E0F5219028A5E052217914120FCA
:103A4E00D9E521A2E15010120CEB9028A2E0C2E1C0
:103A5E00F09029047410F053917FD0F0D083D0826F
:103A6E00D021D0D0D0E032C0E0C0D075D010C0820E
:103A7E00C083C0F07915120FD9D0F0D083D082D088
:103A8E00D0D0E03274F112182D74EA1217518A82D6
:103A9E008B8378251215AFE525F52790099CE070EC
:103AAE00767401652770487C4F7D40AA31AB321287
:103ABE000EC5900818E054807003023CA69004AA2C
:103ACE00E024FDFCA3E034FFFD9004AAE024FCFA00
:103ADE00A3E034FFFB120F199004AAE024FFF8A311
:103AEE00E034FFF99004AAE8F0A3E9F0023CA674D2
:103AFE00026527700E7C477D40AA31AB32120EC58F
:103B0E00023CA69004ACE531F0A3E532F07A617B7D
:103B1E0023120ED1023CA69007B81219307C037DF9
:103B2E000074041217AF1207DB74041217679009A2
:103B3E0092E0F8A3E0C82409F582E438F583E02486
:103B4E0006FEA3E03400FF7401652770277521037C
:103B5E00752200782112191D8E828F83A3AC82AD3F
:103B6E008374021217AF120F1374021217678E822C
:103B7E008F83806874026527702275250375260071
:103B8E00782512191DEEFCEFFD740512179DAA8201
:103B9E00AB83120F137402121767804875210375D9
:103BAE002200782112191DEE2404FCE43FFD74025C
:103BBE001217AF120F137402121767782112191D04
:103BCE00EEFCEFFD740512179DAA82AB83120F1344
:103BDE0074021217678E828F83A3A3A3E0F521E4EC
:103BEE00F523F5247C007D00AA31AB321207D5EA0D
:103BFE00F8EBF9ECFAEDFB740612179D12161C7415
:103C0E000612179D121610E8494A4B602790083885
:103C1E00E0702874026527602274061217AF120F27
:103C2E0091E9F525E4F526F527F528782579211271
:103C3E0011CF60077901120B83805F90096912160C
:103C4E0010740A12179D12161C9007B812161074D3
:103C5E000E12179D12161C740612179D1215E012E5
:103C6E0007E17934120F9D9007B8121610741212D4
:103C7E00179D12161C7911740A1217AF120B719040
:103C8E0008537402F0900B8378211215AFE521547E
:103C9E000860057983120F8B790074161217677FEF
:103CAE00080218D974F512182D74F71217518A825A
:103CBE008B8378211215AF853182853283E521F011
:103CCE00900992E0F8A3E0C82409F582E438F58360
:103CDE00E02406F521A3E03400F52290099CE0AA29
:103CEE0031AB32607012088F8A238B24AE23AF243F
:103CFE00EE4F60438E828F83A3E493F9892375245C
:103D0E0000782312191DE9F8C3E498F895E0F9E557
:103D1E002128F8E52239F9E82404FCE439FD74037E
:103D2E001217AF120F13740212176774011217B71E
:103D3E00EEFAEFFB120889900992E0F8A3E0C8248E
:103D4E0009F582E438F583E0F8A3E0F5838882A3D1
:103D5E00E4F0F9802B12088F8A218B22AE21AF223C
:103D6E00EE4F601A8E828F83A3E493F98E828F8337
:103D7E00E493FA749D2AFAE43409FB120EB3790027
:103D8E0074091217677F040218D9C082C083900984
:103D9E009CE0601E120E0B900992E0F8A3E0C8247E
:103DAE0009F582E438F583E0F8A3E0F5838882A371
:103DBE00E4F07900D083D0822274F512182D74FCB1
:103DCE0012175190099CE0601E900992E0F8A3E052
:103DDE00C82409F582E438F583E0F8A3E0F583887A
:103DEE0082A3E4F0F980248A828B8378211215AFA6
:103DFE00AA217B2812081D8531828532831215EC8B
:103E0E007904AA31AB32120EB3790074041217671B
:103E1E007F040218D974F512182D74FC1217518AEA
:103E2E00828B8378211215AFA821E522540F6407E7
:103E3E007006E8FA7B288004E8FA7B2090099CE063
:103E4E00601E900992E0F8A3E0C82409F582E438D8
:103E5E00F583E0F8A3E0F5838882A3E4F0F98017F8
:103E6E0012081D8531828532831215EC7904AA3130
:103E7E00AB32120EB3790074041217677F04021866
:103E8E00D974F712182D74F812175190099CE0602E
:103E9E006C752104752200782112191D900992E08B
:103EAE00F8A3E0C82409F582E438F583E02406FC83
:103EBE00A3E03400FD74021217AF120F1374021236
:103ECE0017678531828532831219307AF47B091295
:103EDE000F4974041217679009F41215E0120E833D
:103EEE00900992E0F8A3E0C82409F582E438F5833E
:103EFE00E0F8A3E0F5838882A3E4F0800979047AE0
:103F0E00F47B09120EB3790074081217677F020250
:103F1E0018D9C082C0839003A9E054056405707F50
:103F2E009003AAE004F0E0C394384073E4F09003E9
:103F3E00A9E0640570197AD37B2012081D90039DA9
:103F4E001215EC7904120C679003A9740A804FE0E5
:103F5E00645570267AD47B2012081D9003A1121589
:103F6E00EC7A417B2012081D9003AB1215EC7901FF
:103F7E00120C679003A9745A80247AD57B201208FC
:103F8E001D9003A51215EC7A487B2012081D900394
:103F9E00AF1215EC7902120C679003A974AAF0D037
:103FAE0083D082227921120FD9120FD3120FF11260
:103FBE000E89120CD9120D33900DFF7401F0900E74
:103FCE0000E4F0120FEB900DE1749DF0A37409F074
:103FDE00E5A1A2E05006900DFFE0701379001209E2
:103FEE008BE960EC75CEA575CF5A120A4550E17576
:103FFE00CEA575CF5A120DFF8B22EA452260D179DC
:10400E000012098BE960C97AC87B00120FA375CE26
:10401E00A575CF5A120DF9120DF312072175CEA503
:10402E0075CF5A90098B7405F0790A120C79120823
:10403E00E390098BE0F9120E7790098BE0640A7019
:10404E0003120FC1120E1112085912089B90081577
:10405E00E04404F090081AE04410F0900812E4F0E6
:10406E00900BD5F012070F90098BE064507003127D
:10407E000CE59003E97402F0A3E4F090098BE09054
:10408E00098AF0900E8C749BF0A3740C0241677A2F
:10409E00C87B00120FA3120D57E5A1A2E0500690A7
:1040AE000DFFE070049028AFE0120E65E9F890095C
:1040BE008BF07450687003120CF1900811E0F870D8
:1040CE001EA3E0701A900C9BE0A2E74012900D3EEA
:1040DE00E0A2E7400A900814E0700490080EE0E8B1
:1040EE0060031208A190080EE060031208A7900862
:1040FE0012E060231208AD7AE57B0D1207ED120E69
:10410E004D900815E054086003120A2190081AE039
:10411E0054106003120A2D900814E0600612073343
:10412E001208C5900815E0540460031208CB12065D
:10413E00FD900815E054106003120751900815E029
:10414E0054206003120757900815E0544060031284
:10415E0008D190098BE090098AF09003E9E0F8A36A
:10416E00E0F9E849700302409D7AE87B030240A122
:10417E0074F21217C174FB121751E9FE604CA8318C
:10418E00A93288258926782512191D120F3D740231
:10419E00121767900817E05402F8A3E05480F974E0
:1041AE00026849701C853182853283E5822EF8E4DF
:1041BE003583F9E824FFF582E934FFF583E0D2E791
:1041CE00F0EEF9AA31AB32120EB374051217677FF7
:1041DE0006021893C082C083E9FC900818E0548050
:1041EE007078900992E02404F8A3E03400F98882F4
:1041FE008983E01313543F5407C394024004E044F0
:10420E0080F0900992E0F8A3E0C82409F582E43822
:10421E00F583E0F8A3E0F5838882E044C0F09009CE
:10422E0092E0F8A3E0C82409F582E438F583E0F8BB
:10423E00A3E0F5838882A37401F0ECC0E0900992AC
:10424E00E0F8A3E0C82409F582E438F583E0F8A38A
:10425E00E0F5838882A3A3D0E0F07901D083D082E9
:10426E0002062D790002062D74F41217C1EAFCEB3A
:10427E00FD90098E78211215AFAA218C828D83783C
:10428E00211215AFA921120B89E970047900800261
:10429E0079017F04021893790002062D74F012172B
:1042AE00C174F7121751853182853283EAF0A3EB80
:1042BE00F08C218D22853182853283E0F8A3E0F5E2
:1042CE0083888278251215AF8C828D83E493F874DF
:1042DE000193F9E525C398FEE52699FFEC2404F534
:1042EE0023E43522F5248E278F28852382F583E457
:1042FE0093F525740193F526740A782512172FE588
:10430E00255403782712173E8C828D83A3A3A3A373
:10431E00A3A3A3A3A3932527F525A3E4933528F5FB
:10432E0026EC2411F582E43522F583E493F9120C80
:10433E004FE960087904120B8302450E900818E0CD
:10434E0054806059852182852283A3A3A3A3A3A3AE
:10435E00A3E493C0E0740193F583D082A882A9836D
:10436E00E85480600302450EE84960089007FEE8B5
:10437E00F0A3E9F0E521240FF582E43522F583E47C
:10438E0093FA740193FBEA4B6013120775EE4F60BC
:10439E000C9007D9E064027004A3E02EF085218210
:1043AE00852283A3A3A3A3A3A3E493A2E0502BACE3
:1043BE0025AD26853182853283E0FAA3E0FBE52127
:1043CE00240BF582E43522F58378211215BE852162
:1043DE00828522831217BF02450E85238285248390
:1043EE00E493C0E0740193D082A8825403FAC3947C
:1043FE0002E84005547FFE800F5407FEE8131313A6
:10440E00541F540FFF7002EEFFEAC39402400302E2
:10441E0044E7740212179DE4F0A3F0A3F0A3F08F0B
:10442E0021F522782112191DAC25AD267404121720
:10443E00AF120AFF740212176774026F70237403AF
:10444E0012179DE0A2E750198523828524837401FB
:10445E009354036401700A740412179D74FFF0A341
:10446E00F085238285248374019354036401704B79
:10447E0074021217A788218922782112191D74043B
:10448E0012179D1215E0120F3D7402121767900855
:10449E0017E05402F8A3E05480F974026849701BC7
:1044AE00740212179DE5822EF8E43583F9E824FF95
:1044BE00F582E934FFF583E0D2E7F0852382852487
:1044CE0083E49354806009EEF974021217AF8022D0
:1044DE00EEF974021217AF8024900818E054806031
:1044EE0006EEC394055019E85480600BEEF9AA2528
:1044FE00AB26120EB98009EEF9AA25AB26120EB321
:10450E0074091217677F0802189302062D790002AC
:10451E00062D790002062D790002062DC082C08379
:10452E00ECFAEDFB90099CE070077904120EB38053
:10453E0046900992E0F8A3E0C82409F582E438F524
:10454E0083E0F8A3E0C82406F582E438F583E0FAA8
:10455E0090086BE05402700BEA7008900838740AE9
:10456E00F08014EA9008386006E4F0791080057443
:10457E0001F07990120F8B7900D083D08202062D34
:10458E00790002062D790002062D74F41217C190DF
:10459E00098E78211215AFE521C3941040077901D9
:1045AE00120B8380367C8E7D09900C1BE0FA7917F6
:1045BE00120F7F7939120F9D90098E78211215AF47
:1045CE00900C1BE06521601190098E78211215AFB9
:1045DE00A9217A1B7B0C120F5579007F04021893C8
:1045EE00790002062D790002062D790002062D743F
:1045FE00F41217C1ECFAEDFB90098E78211215AF6B
:10460E00E52154027028900A3EE06466600E90091F
:10461E008E78211215AFE521A2E04012901B56783C
:10462E00211215BE90098E7821121276400779015B
:10463E00120B83800F90098E78211215AFA92112CB
:10464E000F5579007F0402189374F41217C1900964
:10465E008E78211215AFA921120F2B743C69600AB6
:10466E00741E696005740F69700B7A0A7B0C120F49
:10467E0055790080057901120B837F04021893741B
:10468E00F41217C190098E78211215AFE522C3944A
:10469E0024502690098E78211215AFE521C3945A25
:1046AE00501790098E78211215AFAC21AD227AB138
:1046BE007B0B120F4F790080057901120B837F045B
:1046CE0002189374F61217C174FD12175175210258
:1046DE00752200782112191DEAFCEBFD74021217E7
:1046EE00AF120AFF7402121767740112179DE0F8D9
:1046FE0075F00A853182853283E0A42824F0F9749E
:10470E00031217677F0202189374F61217C174FD15
:10471E00121751752102752200782112191DEAFC1B
:10472E00EBFD74021217AF120AFF740212176774B0
:10473E000212179DE024ADF8E434FFF9740112174C
:10474E009DE0249F54FCFA7B00E8C39AF8E994009C
:10475E00F97A031216BE746928F582E43423F583C0
:10476E00E493F974031217677F0202189374F5121B
:10477E0017C174F81217519004AC74A1F0A3742BE6
:10478E00F07A767B23120ED19004AAE024F8F5215C
:10479E00A3E034FFF5227AB37B2B120B9B120F3161
:1047AE00E9852182852283A3A3A3F07AAA7B2B120B
:1047BE000BA1E9852182852283A3A3F0902BAEE481
:1047CE0093853182853283F0902BAFE493C0E074F1
:1047DE000112179DD0E0F0853182853283E064208E
:1047EE0070037430F0AA31AB32120B9B120F31E909
:1047FE00852182852283A3F07AB67B2B120B9BE94F
:10480E00F52375F006C0F07AB97B2B120B9BE9D01D
:10481E00F084F875F00AE523A42885218285228389
:10482E00F0790074081217677F030218937900025B
:10483E00062D790002062D790002062D74F7121747
:10484E00C190081DE05404600CEA4B6005120EE99D
:10485E008003120EE37F01021893C082C0837C4056
:10486E007D40120EC5D083D08202062D74F412172D
:10487E00C18A218B22EA540FF9120EBF852123859E
:10488E0022247404782312172F852321852422E5F0
:10489E0021541FF9120F31120EBF74057821121711
:1048AE002FA921120F31120EBF7F0402189374F636
:1048BE001217C1EAFEEBFFEE541FF9120F31120E62
:1048CE00BF8E218F227405782112172FAE21AF22B1
:1048DE00EEF8EFF97A3C7B001216C6EAF9120F31A8
:1048EE00120EBFEEF8EFF97A3C7B001216C6E8F90D
:1048FE00120F31120EBF7F0202189374F71217C1F6
:10490E00EAFE7C4E7D40120EC5EE2402C0E09004FD
:10491E00AAE0F8A3E0C824FCF582E834FFF583D0C2
:10492E00E0F07F01021893C082C083E9F8900995E8
:10493E00E0F9C3985025900992E0F9A3E0C9240943
:10494E00F582E439F583E0F9A3E0F5838982E0D2BC
:10495E00E5F07900D083D08202062DE8C39950F29B
:10496E00E8900994F0790180EBC082C08390081D15
:10497E00E05404600579AA120EBFD083D0820206DD
:10498E002D74F01217C18A278B2889258C22EDFFF2
:10499E00741012179DE0F521FC7D00120ED77E00DB
:1049AE008041A3A3A3A3A3A3A3A3E0FAC39F403272
:1049BE008F82A882852123E82523FCE43400FDEABA
:1049CE009CE49DC365D033501974012EC0E0EAC338
:1049DE0098F895E0F9E52728F582E52839F583D092
:1049EE00E0F00EEEC395225011EEFAA925120B5FE0
:1049FE008A828B83E582458370A87F08021893C054
:104A0E0082C083E9FA900818E05480701690081D51
:104A1E00E05404600E74026A600574036A700479CF
:104A2E000080027901D083D08202062D02062D74F9
:104A3E00F01217C18A828B8378251215AFE526F501
:104A4E0021E52514FAE521C3942150117959120B51
:104A5E005F8A238B24AE23AF2478008015799912B8
:104A6E000B5F8A238B24AE23AF2474E02521F5211E
:104A7E00780174016521700AEEFAEFFB120BAD029C
:104A8E004B4EE521C39404400974FA2521C39402C8
:104A9E0050257C3C7D41E521A2E0E433F5217522D1
:104AAE00007402782112173EEE2521F8E43FF9E852
:104ABE002404FAE4398048740168607B740A652125
:104ACE0070097C147D41EE240C803174F52521C3D0
:104ADE009402501C7C287D41E52175F003A4F8A9B1
:104AEE00F0EE28F8EF39F9E824EDFAE934FF800FFB
:104AFE00740E6521700F7C147D41EE2CFAE43FFBA1
:104B0E00120EC5803BE521C3940A402BE52124F605
:104B1E00F8E434FFF97A097B001216BEEAF521603B
:104B2E00067404652170047902800EEA6009C3944C
:104B3E00045004790380027904EEFAEFFB120BA7FE
:104B4E007F0802189302062D74F01217C18A218B6A
:104B5E002289239004ACE0FAA3E0FB120BAD852171
:104B6E008285228378251215AFE52514FA74BF5578
:104B7E00234480F9120B5F7C407D40120EC57F08E6
:104B8E00021893C082C0837ADC7B29120ED1D083A7
:104B9E00D08202062DC082C0837AE07B29120ED10C
:104BAE00D083D08202062DC082C0837A007B2A1267
:104BBE000ED1D083D08202062DC082C0837A087BAC
:104BCE002A120ED1D083D08202062D74F41217C190
:104BDE00741E121751EAFEEBFF7907120BC5E9603E
:104BEE0003024D13900995E0FA900994F09004ACED
:104BFE00E0F8A3E0F9E849700FEA7004795E8002EC
:104C0E007954120EE3024D13EA70077A147B2A12BE
:104C1E000ED17521027821121921900994E0C33327
:104C2E00FD8E828F8378211215AFAC21791274011B
:104C3E001217AF120BD174011217677E008025EF89
:104C4E0025E0F8E433F974DA28F582740539F58332
:104C5E00A3A3A3A3E0FAA3E0FB120BB90FEFC39437
:104C6E000E40DC0EEEC394024003024D138E82AA58
:104C7E0082853182853283E5822AF582E43583F599
:104C8E0083E0F8601574FF28FA7912120B5F8B22FD
:104C9E00EA2409FCE43522FD804F7521E0752200DF
:104CAE00782112191D900994E025E02A540775F019
:104CBE001CA4F8A9F0E0A2E2E43375F0E0A4FAAB8C
:104CCE00F0740C2AFA741B3BFBEA28FCEB39FD74DA
:104CDE00041217AF120D75740212176774021217B1
:104CEE00A788218922AC21AD2275211C752200785E
:104CFE002112191D7ADE7B05120AFF740212176744
:104D0E007F00024C6B74E21217677F040218930245
:104D1E00062DC082C0837A1C7B2A120ED1D083D07E
:104D2E008202062D02062D74F41217C174FD12179D
:104D3E005175210378211219217D008A828B837887
:104D4E00211215AFAC21791874011217AF120BD1C5
:104D5E0074011217677A147B2A120ED17F00801409
:104D6E007902EA2AFAE433FB74AB2AFA740B3BFBA2
:104D7E00120EB90FEFC3940350308F82AA82853181
:104D8E0082853283E5822AF582E43583F583E0F865
:104D9E0060CE74FF28FA7918120B5F8B22EA240971
:104DAE00FAE43522FB7402F980C674031217677F8A
:104DBE000402189374F41217C1EAFEEBFF75210C6E
:104DCE00752200782112191D9004ACE0FCA3E0FDC1
:104DDE007ADE7B05120AFF74021217678E828F83AA
:104DEE0078211215AFE52114FAE522247F4480F9CB
:104DFE00120B5F9004ACEAF0A3EBF07A247B2A123C
:104E0E000ED17F04021893C082C0837A447B2A128B
:104E1E000ED1D083D08202062D74F01217C1EAFE95
:104E2E00EBFF892175230C752400782312191D9030
:104E3E0004ACE0FCA3E0FD7ADE7B05120AFF7402EF
:104E4E001217679005DEE0A2E09005EA50047401A7
:104E5E008001E4F08E828F8378251215AFE525143C
:104E6E00FA74BF55214480F9120B5F9004ACEAF03E
:104E7E00A3EBF07A4C7B2A120ED17F0802189374A2
:104E8E00F01217C1EAFEEBFF892175230C75240081
:104E9E00782312191D9004ACE0FCA3E0FD7ADE7BB2
:104EAE0005120AFF74021217678E828F83782512FD
:104EBE0015AFE52514FA74BF55214480F9120B5F26
:104ECE009004ACEAF0A3EBF07A687B2A120ED17F45
:104EDE000802189374F61217C1E9FEECFFEE700F7C
:104EEE007C497D40120EC5120BCB7F02021893C374
:104EFE0094035068900C1FE0F5216005C3940440A4
:104F0E000375210474016E700AEFA2E050D9EA24F1
:104F1E00088008EFA2E150CFEA240CF8E43BF990A8
:104F2E0004ACE8F0A3E9F07A787B2A120ED174046F
:104F3E00C39521F52195E0F5227402782112173ED2
:104F4E00C39521F8E49522F99004AAE028F8A3E08D
:104F5E0039F99004AAE8F0A3E9F0808BEEC3940B24
:104F6E00408574106E7083EFA2E74003024EF5EA9F
:104F7E002404F8E43BF99004ACE8F0A3E9F07A8C51
:104F8E007B2A120ED1024EF574F01217C174EC1278
:104F9E001751EAFEEBFF740412179DE4F0A3F0A381
:104FAE00F0A3F0EEFCEFFDAA31AB32120F19752112
:104FBE0000752200752300752400901A6D78251255
:104FCE0015BE8E828F8378251211E470109008180A
:104FDE00E0548060087901120EE302516C740312E2
:104FEE00179DE0FA600302535F740212179DE0F8FA
:104FFE00749068700302515F740B6860030250C6B0
:10500E00740112179DE0600302515F853182853273
:10501E0083E0C39406400302515FE0FA7902120B5B
:10502E005F8A218B22AE21AF22EE4F6014EE240C4C
:10503E00F582E43FF583121610740412179D1216B2
:10504E001C853182853283E07014740112179DE045
:10505E00F91209CD8A218B228C238D248022E01413
:10506E00FA7902120B5F8A218B22AE21AF22EE4F0C
:10507E006022EE240CF582E43FF58378211215AF01
:10508E00740412179D78211214F6740412179D7869
:10509E00211215D1900818E05480700302515C85DE
:1050AE003182853283E0790570077AB17B23025114
:1050BE00437AB57B2302514C740C6860030251761F
:1050CE00740112179DE0600302515F8531828532B3
:1050DE0083E0C39402507AE0702179001209CD8AE0
:1050EE00218B228C238D24900ADF78211214F674E2
:1050FE000412179D78211215D18023E014FA79033A
:10510E00120B5F8A218B22AE21AF22EE4F600F8EE3
:10511E00828F83121610740412179D12161C90089B
:10512E0018E054806028853182853283E0790570DD
:10513E00097ABA7B2312078180147AC07B23120767
:10514E0081853182853283E044809007DAF07521C3
:10515E0004A921740412179D1215E0120B7D74140C
:10516E001217677F0802189374FE68702874011274
:10517E00179DE070DC853182853283E060D3E0C319
:10518E00940D50CDE014FA7902120B5F7C4D7D40E8
:10519E00120EC580BC853182853283E060030252D7
:1051AE0077E8702A740112179DE0F9C3940550A197
:1051BE001209CD740412179D1215EC752104740199
:1051CE0012179DE0F97A187B2B12078180837401E8
:1051DE00687059740112179DE0F9C39405400302DB
:1051EE00515F752108782112191D120B2FEAFCEB65
:1051FE00FD740E1217AF120AFF7402121767740CA9
:10520E0012179D78211215AF741012179D78211266
:10521E0014F6740412179D78211215D17521047499
:10522E000112179DE0F97A1C7B2B809D7402686039
:10523E000302515F740112179DE0F9C394054003F8
:10524E0002515F120B2F8B22EA2404FCE43522FD5F
:10525E0074041217AF120F19752104740112179DE1
:10526E00E0F97A207B2B0251D7E0C3940D40030264
:10527E00515FE8C39403400302515F740112179DFE
:10528E00E0C39405400302516C853182853283E080
:10529E0014FA7902120B5F8A218B22AE21AF22748F
:1052AE000212179DE0F8742428F582E4342BF5835E
:1052BE00E493FA740112179DE075F00CA4F8A9F0AE
:1052CE00EE28F8EF39F9E82AFCE439FD74041217D8
:1052DE00AF120F19EE4F700D740412179DE4F0A368
:1052EE00F0A3F0A3F0752104900818E05480700329
:1052FE0002515F740212179DE0F8700D74011217BF
:10530E009DE0F97A277B2B801D740168700D740166
:10531E0012179DE0F97A2E7B2B800B740112179DCC
:10532E00E0F97A377B2B120781853182853283E053
:10533E00C3940AE0500944809007DBF002515F24C9
:10534E00F644809007DBF07A407B2B1207750251F2
:10535E005F74026A60030254FA740212179DE0F839
:10536E00740168703F853182853283E0600302519B
:10537E005F740112179DE0F9740169701B9008FEAD
:10538E00121610740412179D12161C7521027A4201
:10539E007B2B12077B02515F120BD7E96003025180
:1053AE005F0254CF740268703A853182853283E091
:1053BE00600302515F740112179DE0F97401697068
:1053CE0017900917121610740412179D12161C75D9
:1053DE0021037A497B2B80BA120BD7E96003025165
:1053EE005F805B740368705E853182853283E06016
:1053FE000302515F740112179DE0F9C39402501815
:10540E009008CC121610740412179D12161C7521DA
:10541E00037A4C7B2B0253A074026970189008E536
:10542E00121610740412179D12161C7521037A544D
:10543E007B2B0253A0120BD7E9600302515F790355
:10544E00120EE902516C740468702B85318285321C
:10545E0083E0600302515F740112179DE060030246
:10546E00515F9008B3121610740412179D12161C79
:10547E0075210302515F740668704B853182853247
:10548E0083E0600302515F740112179DE0F9C3942B
:10549E000250259008B1E0FCA3E0FD3395E0FE74C8
:1054AE000412179DECF0A3EDF0A3EEF0A3F075211E
:1054BE00027A5C7B2B025359120BD7E9600302511F
:1054CE005F790202544E748068600302515F752545
:1054DE0006782512192179128E828F83782512155E
:1054EE00AFAC25AD267A047B2902572874036A6077
:1054FE00030256FC752510782512192179088E8223
:10550E008F8378251215AFE9782512145AAC25AD84
:10551E00267A987B2A120EFB7401121767740812F2
:10552E00179DEAF0A3EBF0740812179DE0F8A3E0C4
:10553E00F9E84970030256CC740812179DE0F8A3DF
:10554E00E0C82407F582E438F583E493F9120C4F92
:10555E00E960087904120B8302516C740812179DCE
:10556E00E02403F8A3E03400F9740A12179DE8F062
:10557E00A3E9F0740A12179DE0F8A3E0F583888280
:10558E00E493FC743F5CC39420400302515F853169
:10559E0082853283E0703090081DE054046003026F
:1055AE00515F740A12179DE0F8A3E0F5838882E438
:1055BE0093F9120B65740412179DEAF0A3EBF0A396
:1055CE00E4F0A3F002547E8C8285822174C05C606C
:1055DE0036EC543FF5217403782112173E7444259E
:1055EE0021F58274353522F583E493F8A3E49354C0
:1055FE0003F97A027B001216BE8821E9F522339553
:10560E00E0F523F524801E7403782112173E7444AE
:10561E002521F58274353522F583E493F521A3E433
:10562E00935403F522853182853283E0F525E4F526
:10563E0026F52778257921121266500302516C90B7
:10564E000818E054807074853182853283E014FA34
:10565E00ECF9120B5F9004ACEAF0A3EBF09004AC03
:10566E00E0F8A3E0F9E849701B740812179DE0F802
:10567E00A3E0F5838882A3A3A3A3E493F9600512A4
:10568E000EE38034740A12179DE0F8A3E0F58388C8
:10569E0082E493F9EEFAEFFB740812179DE0F8A37B
:1056AE00E0F5838882A3A3A3A3A3E493C0E07401CF
:1056BE0093F583D0821217BF02516C02516C902B5E
:1056CE0063C082C0838E828F8378251215AF902B94
:1056DE005F7825121548D083D08278251211F96093
:1056EE000302515FEEFAEFFB120BDD02516C7404F4
:1056FE006A6003025A46740212179DE0F9703575FE
:10570E00254A782512192179128E828F83782512D7
:10571E0015AFAC25AD267AD07B23120EFB74011289
:10572E0017678A258B26AC25AD26EC4D70030251EA
:10573E005F0259DA740169600874026960030258E5
:10574E00A8740112179DE0600302515F85318285B6
:10575E003283E060030257F975251C752600782503
:10576E0012191DE975F01CA4F8A9F074D428F87468
:10577E001A39F9E824E4FCE934FFFD7ADE7B0512E0
:10578E000D7574021217678049900818E0548060F6
:10579E00148E828F83A3A3A3A3E0F5257825792108
:1057AE001211CF70258521258522267401782512A8
:1057BE00173E74DA2525F58274053526F583A3A3E5
:1057CE00A3A3E0FAA3E0FB120BB3901AAC7821125C
:1057DE0014B8900C1CE0F525E4F526F527F528788D
:1057EE0025792112126640A102516CE0C394094042
:1057FE000302515F75251C752600782512191D743C
:10580E000212179DE075F01CA4FAABF0E975F0E0FA
:10581E00A4F8A9F0740C28F8741B39F9E82AF8E9F1
:10582E003BF9E82404FCE934FFFD7ADE7B05120D1A
:10583E007574021217678049900818E0548060143E
:10584E008E828F83A3A3A3A3E0F525782579211259
:10585E0011CF7025852125852226740178251217F2
:10586E003E74DA2525F58274053526F583A3A3A3A8
:10587E00A3E0FAA3E0FB120BB9901AAC7821121434
:10588E00B8900C1EE0F525E4F526F527F5287825C9
:10589E00792112126640A102516C740369705E7414
:1058AE000112179DE0600302515F853182853283BC
:1058BE00E0700302515FE0C3941A400302515F751A
:1058CE002502752600782512191D740212179DE007
:1058DE0075F003A4F8A9F0740428F8741E39F9E8D9
:1058EE0024FDFCE934FFFD7ADE7B05120D75740292
:1058FE001217677ADE7B05120BBF02515F740469C3
:10590E00600302599C740112179DE0F87003025156
:10591E005FC39403400302515F853182853283E079
:10592E00700302515F8882AA82853182E0F874D7B3
:10593E002AF582E4340BF583E0C398500302515FDD
:10594E00752505752600782512191D740212179DEE
:10595E00E075F005A4F8A9F0EA75F096A4FAABF09C
:10596E00744F2AFA741E3BFBEA28F8EB39F9E82447
:10597E0065FCE934FFFD7ADE7B05120D75740212AB
:10598E00176779057ADE7B05120EB302515F740636
:10599E0069700302515F740969703B75250678259D
:1059AE00121921791290099778251215AFAC25ADF1
:1059BE00267A707B29120EFB74011217678A258BCB
:1059CE0026AC25AD26EC4D700302515FEEFAEFFBCF
:1059DE00120B8F02516C748069600302515F740167
:1059EE0012179DE0600302515F900818E05480602A
:1059FE000302515F853182853283E06025E0C394D6
:105A0E0004501F7920E0F5257526007405782512BF
:105A1E00173E74BA2525FA742B3526FB120EB902E1
:105A2E00515FE06404600302515F79087B2B74A11F
:105A3E0024C3FA50E70B80E474056A6003025BB975
:105A4E00900818E054806003025BB9740212179D2F
:105A5E00E0F8701C853182853283E0700302515F5D
:105A6E00E0C39403400302515F7908900C12804505
:105A7E00740168701C853182853283E07003025197
:105A8E005FE0C39404400302515F7907900C1380CA
:105A9E00247402686005740368704485318285320F
:105AAE0083E064016008E06402600302515F7403E6
:105ABE0028F9900C14E0F521853182853283E014AB
:105ACE00FA120B5F8A238B24AE23AF24AC21740110
:105ADE0012179DE0F9EEFAEFFB120C4302516C74B3
:105AEE0004686003025B80853182853283E0700337
:105AFE0002515FE0C39403400302515FE014FA7950
:105B0E000A120B5F8A258B26AE25AF26740112175B
:105B1E009DE0F870097C487D40120EC5804E7401E0
:105B2E00687012900C15E0A2E05041EE4F60318E7D
:105B3E00828F83801C740268600302515F900C1583
:105B4E00E0A2E15027EE4F60178E828F83A3A3A3AE
:105B5E00A3A3A3A3A3121610740412179D12161C4E
:105B6E007904E912179D1215E0120B7D120BCB0270
:105B7E00516C740668600302515F853182853283F1
:105B8E00E0700302515FE0C39403400302515FE0F3
:105B9E0014FA7909120B5F8B22AF22EA2406FE500B
:105BAE00010F900C16E0F521025ADA74066A705550
:105BBE00900818E05480700302515F8E828F8378B4
:105BCE00251215AF7408782512145A7406652570BF
:105BDE000474066526600302515F85318285328327
:105BEE00E06406600302515F900854E0FC740412F6
:105BFE00179DECF0A3E4F0A3F0A3F07521017AC891
:105C0E007B2302535974196A6003025CBB7402123F
:105C1E00179DE064016003025CBB900818E054809D
:105C2E006003025CBB740112179DE0705990081D51
:105C3E00E05404600302515F853182853283E06453
:105C4E0001700579590255C0E06402600302515F8C
:105C5E00900B5B121610740412179D12161C900BEB
:105C6E007F121610E8494A4B60197A7F7B0B120F90
:105C7E00738A218B228C238D24740412179D782114
:105C8E001214CF02547EC39432400302515F853109
:105C9E0082853283E0700302515FE0C3940B4003B0
:105CAE0002515FEEFAEFFB120BE302515F741D6AB5
:105CBE006008741E6A6003025D97900818E05480B5
:105CCE006003025D97740212179DE0600302515F3C
:105CDE00740112179DE0F8704390081DE0540660A1
:105CEE000302515F853182853283E0C39402400303
