:020000040000FA
:06000000020066028158B7
:03000B000281600F
:03001300028168FF
:03001B00028170EF
:03002B0002818DC2
:03003B000281E956
:030043000281FD3A
:03004B000282B17D
:03005300028377AE
:03005B0002838697
:1000630002839575D00075819F7531017532020247
:10007300CDF2E490020178FD790D8002F0A3D8FC63
:02008300D9FAA8
:1001000000002110422063308440A550C660E77093
:10011000088129914AA16BB18CC1ADD1CEE1EFF13B
:100120003112100273325222B5529442F772D662E3
:10013000399318837BB35AA3BDD39CC3FFF3DEE38B
:100140006224433420040114E664C774A444855433
:100150006AA54BB528850995EEE5CFF5ACC58DD5DB
:100160005336722611163006D776F6669556B44683
:100170005BB77AA719973887DFF7FEE79DD7BCC72B
:10018000C448E5588668A7784008611802282338D3
:10019000CCC9EDD98EE9AFF9488969990AA92BB97B
:1001A000F55AD44AB77A966A711A500A333A122A23
:1001B000FDDBDCCBBFFB9EEB799B588B3BBB1AABCB
:1001C000A66C877CE44CC55C222C033C600C411C73
:1001D000AEED8FFDECCDCDDD2AAD0BBD688D499D1B
:1001E000977EB66ED55EF44E133E322E511E700EC3
:1001F0009FFFBEEFDDDFFCCF1BBF3AAF599F788F6B
:100200008891A981CAB1EBA10CD12DC14EF16FE14A
:100210008010A100C230E320045025404670676082
:10022000B9839893FBA3DAB33DC31CD37FE35EF39A
:10023000B1029012F322D2323542145277625672D2
:10024000EAB5CBA5A89589856EF54FE52CD50DC5EA
:10025000E234C324A0148104667447642454054422
:10026000DBA7FAB79987B8975FE77EF71DC73CD73A
:10027000D326F2369106B016576676761546345672
:100280004CD96DC90EF92FE9C899E9898AB9ABA98A
:100290004458654806782768C018E1088238A328C2
:1002A0007DCB5CDB3FEB1EFBF98BD89BBBAB9ABBDA
:1002B000754A545A376A167AF10AD01AB32A923A12
:1002C0002EFD0FED6CDD4DCDAABD8BADE89DC98D2A
:1002D000267C076C645C454CA23C832CE01CC10C62
:1002E0001FEF3EFF5DCF7CDF9BAFBABFD98FF89F7A
:1002F000176E367E554E745E932EB23ED10EF01EB2
:1003000000010203040506070809AAAAAAAAAAAAC4
:100310000A0B0C0D0E0F10111213AAAAAAAAAAAA50
:100320001415161718191A1B1C1DAAAAAAAAAAAADC
:100330001E1F2021222324252627AAAAAAAAAAAA68
:1003400028292A2B2C2D2E2F3031AAAAAAAAAAAAF4
:1003500032333435363738393A3BAAAAAAAAAAAA80
:100360003C3D3E3F404142434445AAAAAAAAAAAA0C
:10037000464748494A4B4C4D4E4FAAAAAAAAAAAA98
:1003800050515253545556575859AAAAAAAAAAAA24
:0A0390005A5B5C5D5E5F60616263B2
:10039C0000010203040506070809101112131415B5
:1003AC001617181920212223242526272829303115
:1003BC003233343536373839404142434445464769
:1003CC0048495051525354555657585960616263BD
:1003DC00646566676869707172737475767778791D
:1003EC008081828384858687888990919293949565
:1003FC0096979899FFFFFFFFFFFFFFFFFFFFFFFF9F
:10040C00FFFFFFFFFFFFFFFFFFFFFFFFFFFFFFFFF0
:10041C00FFFFFFFFFFFFFFFFFFFFFFFFFFFFFFFFE0
:10042C00FFFFFFFFFFFFFFFFFFFFFFFFFFFFFFFFD0
:10043C00FFFFFFFFFFFFFFFFFFFFFFFFFFFFFFFFC0
:10044C00FFFFFFFFFFFFFFFFFFFFFFFFFFFFFFFFB0
:10045C00FFFFFFFFFFFFFFFFFFFFFFFFFFFFFFFFA0
:10046C00FFFFFFFFFFFFFFFFFFFFFFFFFFFFFFFF90
:10047C00FFFFFFFFFFFFFFFFFFFFFFFFFFFFFFFF80
:10048C00FFFFFFFFFFFFFFFFFFFFFFFFFFFFFFFF70
:10049C00FFFFFFFFFFFFFFFFFFFFFFFFFFFFFFFF60
:1004AC00FFFFFFFFFFFFFFFFFFFFFFFFFFFFFFFF50
:1004BC00FFFFFFFFFFFFFFFFFFFFFFFFFFFFFFFF40
:1004CC00FFFFFFFFFFFFFFFFFFFFFFFFFFFFFFFF30
:1004DC00FFFFFFFFFFFFFFFFFFFFFFFFFFFFFFFF20
:1004EC00FFFFFFFFFFFFFFFFFFFFFFFFFFFFFFFF10
:1004FC00FFFFFFFFFFFFFFFFFFFFFFFFFFFFFFFF00
:10050C00FFFFFFFFFFFFFFFFFFFFFFFFFFFFFFFFEF
:10051C00FFFFFFFFFFFFFFFFFFFFFFFFFFFFFFFFDF
:10052C00FFFFFFFFFFFFFFFFFFFFFFFFFFFFFFFFCF
:10053C00FFFFFFFFFFFFFFFFFFFFFFFFFFFFFFFFBF
:10054C00FFFFFFFFFFFFFFFFFFFFFFFFFFFFFFFFAF
:10055C00FFFFFFFFFFFFFFFFFFFFFFFFFFFFFFFF9F
:10056C00FFFFFFFFFFFFFFFFFFFFFFFFFFFFFFFF8F
:10057C00FFFFFFFFFFFFFFFFFFFFFFFFFFFFFFFF7F
:10058C00FFFFFFFFFFFFFFFFFFFFFFFFFFFFFFFF6F
:10059C00FFFFFFFFFFFFFFFFFFFFFFFFFFFFFFFF5F
:1005AC00FFFFFFFFFFFFFFFFFFFFFFFFFFFFFFFF4F
:1005BC00FFFFFFFFFFFFFFFFFFFFFFFFFFFFFFFF3F
:1005CC00FFFFFFFFFFFFFFFFFFFFFFFFFFFFFFFF2F
:1005DC00FFFFFFFFFFFFFFFFFFFFFFFFFFFFFFFF1F
:1005EC00FFFFFFFFFFFFFFFFFFFFFFFFFFFFFFFF0F
:1005FC00FFFFFFFFE76670100809E766700A08093D
:10060C00E76670040809E76622E066701008A3E04C
:10061C0066700A08A3E066700408A3E06622E493FF
:10062C006670130874019366700C087402936670FC
:10063C0005087403936622C3E09608A3E09608A30A
:10064C00E09608A3E096A2D265D03322C021C3E481
:10065C009396F5210874019396422108740293969F
:10066C00422108740393964221A2D265D033E5212E
:10067C007001D3D02122C3E7960809E7960809E751
:10068C00960809E79622C3E09608A3E09608A3E033
:10069C009608A3E09622C021C3E096F52108A3E0BA
:1006AC0096422108A3E096422108A3E096452170CA
:1006BC0001D3D02122C021C3E49396F52108740103
:1006CC0093964221087402939642210874039396E0
:1006DC0045217001D3D02122080808EAC0E0EBC004
:1006EC00E086F0E7A4FA180986F0E7A42AFA1809BC
:1006FC0086F0E7A42AFA180986F0E7A42AFA1986E4
:10070C00F0E7A4FBE5F02AFA190886F0E7A42BFB26
:10071C00E5F03AFA190886F0E7A42BFBE5F03AFA73
:10072C0018180986F0E7A4C5F02BFBE43AFA19086F
:10073C00E7C5F0C6A426F6E5F03BFBE43AFA1886CA
:10074C00F0E7A4F6E5F00826F6E43B08F6E43A08F0
:10075C00F6D0E0FBD0E0FA22E4CFC0E0E4CEC0E07B
:10076C00E4CDC0E0E4CCC0E075F020E626F608E667
:10077C0033F608E633F608E633F6181818EC33FCB3
:10078C00ED33FDEE33FEEF33FFC3EC9709ED970924
:10079C00EE9709EF97191919400FFFEC97FC09ED2B
:1007AC0097FD09EE97FE191906D5F0BFECF709ED88
:1007BC00F709EEF709EFF7191919D0E0FCD0E0FDB5
:1007CC00D0E0FED0E0FF2212083B18181812076484
:1007DC0012082A1919192212082A191919080808B5
:1007EC00E618181820E7E012076412083B181818CE
:1007FC0022090909E719191920E7DC080808E61885
:10080C00181820E70302076412083B18181812077F
:10081C006412083B18181812082A19191922E4C373
:10082C0097F709E497F709E497F709E497F722E4B7
:10083C00C396F608E496F608E496F608E496F622D3
:10084C00C6F4C608C6F4C608C6F4C608C6F4C62262
:10085C006016080808C6C313C618C613C618C613F4
:10086C00C618C613C6D5E0EA22700908080822602B
:10087C0016181818C6C333C608C633C608C633C6FE
:10088C0008C633C6D5E0EA22E627F60809E637F6AD
:10089C000809E637F60809E637F622E026F608A33B
:1008AC00E036F608A3E036F608A3E036F622E49329
:1008BC0026F60874019336F60874029336F608741B
:1008CC00039336F622E026F008A3E036F008A3E006
:1008DC0036F008A3E036F022C3E697F60809E6974F
:1008EC00F60809E697F60809E697F622C3E0C696DD
:1008FC00F608A3E0C696F608A3E0C696F608A3E0B1
:10090C00C696F622C3E096F008A3E096F008A3E0A2
:10091C0096F008A3E096F022E056F608A3E056F60F
:10092C0008A3E056F608A3E056F622E49356F60820
:10093C0074019356F60874029356F6087403935692
:10094C00F622E056F008A3E056F008A3E056F008B3
:10095C00A3E056F022E647F60809E647F60809E652
:10096C0047F60809E647F622E49346F60874019325
:10097C0046F60874029346F60874039346F622E092
:10098C00F608A3E0F608A3E0F608A3E0F622E49349
:10099C00F608740193F608740293F608740393F640
:1009AC0022E6F008A3E6F008A3E6F008A3E6F0229E
:1009BC00E0FAA3E0FBA3E0FCA3E0FD22EAF0A3EB4A
:1009CC00F0A3ECF0A3EDF022E0FCA3E0FDA3E0FE2D
:1009DC00A3E0FF22E0F8A3E0F9A3E0FAA3E0FB22F6
:1009EC00E8F0A3E9F0A3EAF0A3EBF022CAC0E0E63A
:1009FC00F0A308DAFAD0E0FA22CAC0E0E0A3C5827C
:100A0C00CCC582C583CDC583F0A3C582CCC582C5B8
:100A1C0083CDC583DAE6D0E0CA22CAC0E0E493A352
:100A2C00C582CCC582C583CDC583F0A3C582CCC598
:100A3C0082C583CDC583DAE5D0E0CA22C3E498F839
:100A4C00E499F9120A898026C3E49AFAE49BFBE93B
:100A5C0020E7E9120A89E498F8E499F922C3E498AA
:100A6C00F8E499F9120A89E498F8E499F9C3E49A3C
:100A7C00FAE49BFB22EB20E7CFE920E7E0B900107A
:100A8C00BB0008E88AF084F8AAF022E4FBC8FA223A
:100A9C00EB70227B10C833C8C933C9335007C39AD3
:100AAC00C3DBF280069A50012ADBEAC833F4C8C9CA
:100ABC0033F4C9FA2275F008E4C833C8C933C93312
:100ACC00C99AC99B5004C92AC93BD5F0ECFBC83361
:100ADC00F4C8E4C9FA22600D08C6A2E713C618C60A
:100AEC0013C6D5E0F322600C08C6C313C618C61390
:100AFC00C6D5E0F422700422600D18C6C333C608B4
:100B0C00C633C6D5E0F41822253110AF08F53140B4
:100B1C000C15328008F53140021532D2AF2200C0DC
:100B2C00D0253110AF08F531500C05328008F53165
:100B3C0050020532D2AFD0D0222531F58210AF0849
:100B4C00F531400C15328008F53140021532D2AF28
:100B5C00853283222531F582E43532F58322253125
:100B6C00F8E43532F9222531FAE43532FB2225310D
:100B7C00FCE43532FD22E4732531C582C0E0E53258
:100B8C0034FFC583C0E0E531C3958224F910AF086A
:100B9C008583328582318008858332858231D2AF5C
:100BAC00CEF0A3E520F0A37821E608F0A3DEFAEF5F
:100BBC00F0A3E58124FBF8E608F0A3E608F0A3080F
:100BCC0008E608F0A3E608F0A315811581D0E0FE35
:100BDC00D0E0F815811581E8C0E0EEC0E022853246
:100BEC0083853182E0A3FEE0A3F5207821E0A3F613
:100BFC0008DFFAE0A3FFE0A3C0E0E0A3C0E0E0A3BD
:100C0C00C0E0E0A3C0E010AF08858231858332805C
:100C1C0008858231858332D2AFD083D0822274048E
:100C2C008006740280027401C0E0F404120B45D0FB
:100C3C00E01209F8227404800474028000CCC0E035
:100C4C00EDC0E0E531C39CCCAD3250011D10AF06B8
:100C5C008C318D3280068C318D32D2AF120A05D098
:100C6C00E0FDD0E0FC2274048000CCC0E0EDC0E0DC
:100C7C00E531C39CCCAD3250011D10AF068C318DCB
:100C8C003280068C318D32D2AF120A26D0E0FDD0E4
:030C9C00E0FC2257
:0D11C0004431343346393832315330330076
:1011CE00010A000000600000002001000001000084
:1011DE00000000000064000000E482F282D522D5F7
:1011EE00A2EBA2C00000003F065B4F666D7D077F3D
:1011FE006F777C395E79710006060606FFFFFFFFEA
:10120E0000029000FF0000000F0000000000080028
:10121E0000004000000001001FF100040706060652
:10122E00B83E24031F1C1F1E1F1E1F1F1E1F1E1F26
:10123E000605030006030300050004180000003C29
:10124E000000008051010080D6E3018151010007AA
:10125E00000000E02E0C0110270A01401F08018833
:10126E00130501B80B0301D0070201E8030A0A00B7
:10127E0019400A800C200A6009180A4006100AB0AC
:10128E00040C0A2003080AF401050A9001040AC896
:10129E0000020A6400010A51000000D96204019C98
:1012AE003C1D91BC749388C8000000080000001318
:1012BE00000000050000005F00000070000000103C
:1012CE00000000EAF48F0416322C044006C05D883C
:1012DE0013AC73F802E3244F19001BB70067EBE35E
:1012EE0005000000000000000000000000000000EB
:1012FE000000000000000000000000000000007070
:10130E006562017065620185A3B365CCCC4E1CCCC1
:10131E00CC4E1C00000000000000000C1111111139
:10132E0011110405050204051A3C1E0000050514E2
:10133E003C0502500000000000020000000000000A
:10134E000000CD13000047170000370100000040D9
:10135E00060004202000014404000244040000445E
:10136E0004001144040012440400104404002144FB
:10137E00040022440400204404003144040032449A
:10138E00040030440400414404004244040040443C
:10139E00048001A302002C010000060000000020C2
:1013AE00400000000400E001000000320000A30B2A
:1013BE0000001A00000012000000320000001F00A2
:1013CE000000E02B3F0010B33C0091572C0016009C
:1013DE000000040C080E060E0A100C1410160E1641
:1013EE00121800100000FFFFFF0303F50D05F60DA8
:1013FE0001F40D04081020999999999999616263E5
:10140E006465660040000B0040AA8000484740001B
:10141E00484FC00EE00E04190006100120400101D5
:10142E000156414100F07C7C7CFC7C0807060212D0
:10143E00000411090103100520480400BF480440B0
:10144E00244814412C4811412A4811C12F393F7AA2
:10145E005F206F3C7F10393902F7586C222263836C
:10146E0087223E3E638387223E213D3D92919184A9
:10147E0091912D2D5E605F6C151509222270637C93
:10148E00803E94947C803E94940201021F6C6C63A7
:10149E007F7878028132787802816374787802815D
:1014AE00327478788E8E028181028282022E423BC5
:1014BE00362B1F1F01010005041303000030090C19
:1014CE008D00006C1403020100050333030000308D
:1014DE00090C8D0000721403050100800A00000043
:1014EE0000A1260000000000000306010705053BD1
:1014FE000300008E0C2C8F00000000030801000971
:10150E00053B030000960C2C8F0000000001090122
:10151E000009053B0300009A0C2C8F00000000010F
:10152E000C010005073303800030090C8D0000000C
:10153E0000030F010041012B038000A20D15900046
:10154E00000000030102040501310200003B0E778A
:10155E00900000000003050200050A310200003F62
:10156E000E77900000000003070200050131020013
:10157E0000410E77900000000001080200050110E6
:10158E00000000EA0D200001C00000030103000569
:10159E000111000000F70D630001C00000030203FB
:1015AE0000050111000000460E140005C0000003E6
:1015BE00030300050111000000440E020000C000EC
:1015CE000003040300050111000000450E04000095
:1015DE00C0000003050300050111000000F80D63B3
:1015EE000001C00000030603070923190000007A5A
:1015FE000C3F420F88000003080300050111000094
:10160E0000470E1E0005C0000003010400058613EE
:10161E000300006C0C008C00000000030204002983
:10162E008613030000660C008C00007A140303047A
:10163E000005A012000000F90D00000000000003DC
:10164E00040407800101018000E71DF790000000EF
:10165E000003090400801301010001E11DE1B9003E
:10166E0000B214030B0400808A02010000EC1DE19D
:10167E00B900000000030C0400808A02010000562D
:10168E001EE1B900000000030D040080900201006D
:10169E0000601EE1B900000000030E04002886134E
:1016AE00030000600C008C00007D14030F04000585
:1016BE000B12000000190E000000000000030105CF
:1016CE0007800204000000DE090000000000000395
:1016DE00080500800404000000A60D0000000000B4
:1016EE0000030106000501300200003A0E099200C7
:1016FE0000000003010700050110020000F40D8731
:10170E00850000000003030700050110020000F52C
:10171E000D8785000000000305070005011002007B
:10172E0000F60D878500000000030108000501305A
:10173E00020000420E5F9200000000030208000546
:10174E000131020000430E5F920000000003010908
:10175E0006050110020000300ED0920000000003BA
:10176E00010A00050413020000C60D4DB900000069
:10177E000003020A05050A11000000360E3C0001A6
:10178E00C0000003010B03058217020000CA0D1BE7
:10179E00930000891403010C05050430038000DE5C
:1017AE000DB6850000000003011002090419004760
:1017BE0000720CFFE0F5859714010310050504195E
:1017CE00004700AA0DFFE0F5850000010610000499
:1017DE0004180300008A0C24A2000000000101116D
:1017EE0000050111020000EB0DC89300000000037C
:1017FE00041100050812000000EC0D0000000000AE
:10180E000003011200050513030000C20D2C8F000A
:10181E0000000003021200050111020000290E2A29
:10182E00940000000003031200050213020000D012
:10183E000D609400008914030412008084000000DF
:10184E00002C0E0000000000000301140005021120
:10185E00000000D20D0F27008000000302140005C7
:10186E002311000000BE0D3F420F80000003031441
:10187E0000050211000000D40D0F270080000003A8
:10188E000414050501110000002A0E6300008000FB
:10189E000003011500800206010000B20C8A8900C7
:1018AE0000000003021500800200010000EE090A8C
:1018BE00A20000000001031500000C02030000B29C
:1018CE000C8A8900000000031FF1008084000100D3
:1018DE000042084E9500000000032FF10001B902EE
:1018EE00020000BD1D0E9600000000033FF1000136
:1018FE00FA02020000F61D0E9600000000035FF1D2
:10190E000001A002020000741E0E960000000003EB
:10191E006EF100018102000000940B0E9600000093
:10192E0000036FF10001BC02020000DB0B6C96009D
:10193E00000000037FF100019002020000190C6C00
:10194E00960000000003AFF10080040000000024A8
:10195E000800000000000003CEF1000102020200A8
:10196E0000FF0BEE960000000003CFF10001020213
:10197E00020000030CEE960000000003DEF10001F1
:10198E000202020000010CEE960000000003DFF1DF
:10199E0000010202020000050CEE9600000000039A
:1019AE00EFF100010202020000070CEE96000000AB
:1019BE00000301F300018102020000741E11B70042
:1019CE000000000302F30001860203000000004342
:1019DE00B7000000000303F30001860203000019A4
:1019EE000CF6B7000000000304F300010211000022
:1019FE0000380B0000000000000305F30001840214
:101A0E000200005A0CC3B8000000000306F30041A8
:101A1E000832038000480E7EBA000000000307F370
:101A2E0000019102020000B20E15BB00000000037F
:101A3E00010000802301000600050B000000006479
:101A4E001403020000800201000000340B000000AD
:101A5E0000661403070000800201000001460B001F
:101A6E000000008214030800008002010000023A08
:101A7E000B000000008814030A000080040100809F
:101A8E0000FA0C000000000000030B0000800401AF
:101A9E00000004660D000000008B14012000008081
:101AAE0004010000046E0D000000008C14012100E2
:101ABE00008004010000046A0D000000008C140177
:101ACE002200238002010100007A0B5A97000000C9
:101ADE000003010800050211000000DA0DE8030002
:101AEE0080000003020800050111000000270E63AC
:101AFE00000AC0000003011000052311000300BA04
:101B0E000D3F420F8000000302100005011100007E
:101B1E0000280E6300008000000301F10005021191
:101B2E00000000DC0D900100808014030AF1000516
:101B3E000411000000FA0C0F2700808014030048E7
:101B4E004040044816001A481680004840C000481D
:101B5E0040400448040008483C410C483C410040C9
:101B6E00FF0F08483C410C483C410040FFBF004875
:101B7E00404004480880004804000448404008489B
:101B8E0040C000484040044804800048404004489B
:101B9E000580040040400048404008003C410C00D5
:101BAE003C410040FF0F04483C4108483C41004086
:101BBE00FF8F004840400448098004004040004820
:101BCE0040401000010008003C410C003C4104481C
:101BDE003C4108483CC104004040004840400800D9
:101BEE003C410C003CC104202000F4020400AB1068
:101BFE000800B803048000484840044834410848AF
:101C0E003C410C483C4110483CC10048404004480F
:101C1E0008400C4801000D48054012480240144887
:101C2E00144116483C411A483C411E483CC10048EC
:101C3E003C4108483C4110483C4118483C41204832
:101C4E003CC100483841004838410140FF91001125
:101C5E0000630C539C03013000166A959C030330FD
:101C6E0000170E9C9C030430001810A39C03053033
:101C7E00001900AA9C030630001A5EEE9D03073081
:101C8E00001B0BDA9E030830001C00E19E03093096
:101C9E00001E0BDA9E030C30001F1000A0030D3047
:101CAE0000533C8DA0030F30000C2AA2A10110306E
:101CBE00000D8ADCA101123000120FE0A0031330D8
:101CCE00000B2402A301013306090009A30100340D
:101CDE00000A13FBA201003600621DE7A0030037C5
:101CEE000061144DA10300A00024068E9C0301A0E8
:101CFE00002510A39C0347638D8F8F4763758F8FCD
:101D0E0000484D4004483CC1637C7B7B777E636317
:101D1E00637A7E7E0C0408028132747C7B7B0281A6
:101D2E0032747C7B777E7E028132747C7B7A7E7EFF
:101D3E00333345666861605F5F4638384B5E666078
:101D4E005F67672D0A0A00029000030102900003EC
:101D5E00010100040302010004030C01000403014D
:101D6E00040004030204000403040080040300FFC3
:101D7E0000000300FF01000300FF02000300000B40
:101D8E00000300000C000300000D000140000000E5
:101D9E00040000003B0000000E00000000143003A1
:101DAE0000FFFF0000003000010101090714034588
:101DBE0050534F4E31314C2053657020313120320B
:101DCE003031392031393A35313A3335000000009F
:101DDE00600057B004B90098083200580214444409
:101DEE005A595858582D4D0044445A595858582D40
:101DFE004D00000000000000000000000000000088
:101E0E00000000000000000044445A595858582D54
:101E1E004D00000000000000000000000000000067
:101E2E000000000000000000585858580000000044
:101E3E000000000000000000000000000000000094
:101E4E000000000000000000323031362D58582DB1
:101E5E005858444C2F543634352D323030372D31BE
:101E6E00340077013355006400000078020014122C
:101E7E002501AAAAAAAAAAAAAAAA000000000000DE
:101E8E000000000000000000000000000000000044
:101E9E000000000000000044445A59585858432D81
:101EAE004D44445A59585858432D4D0000000000D7
:101EBE000000000000000000000000000000000014
:101ECE000044445A59585858432D4D000000000004
:101EDE0000000000000000000000000000000000F4
:101EEE000044445A5958585843000044445A5958CB
:101EFE0058584300000000000000000000000000E1
:101F0E00000000000000000000000044445A595830
:101F1E0058584300000000000000000000000000C0
:101F2E00000000000000000000000044445A595810
:101F3E0058582D4D0044445A595858582D4D0000AC
:101F4E000000000000000000000000000000000083
:101F5E00000000000044445A595858582D4D0000B6
:101F6E000000000000000000000000000000000063
:101F7E00000000000044445A5958585800000044CC
:101F8E00445A595858580000000000000000000044
:101F9E0000000000000000000000000000000044EF
:101FAE00445A595858580000000000000000000024
:101FBE0000000000000000000000000000000034DF
:101FCE001200400000004000000000000000000071
:101FDE0000000000000040000000000000000000B3
:101FEE0000000000000000000000000000000000E3
:101FFE000000000000000000000000600000000073
:10200E0000000000000000000000000000000000C2
:10201E000000000000007200B1014DE8FFFF6CFDF2
:10202E00FFFF0000000000000000000000000000A4
:10203E00000000000000000000000000000077011A
:10204E0033550000000000000000000000000001F9
:10205E00111111111111F4010000640000000100B2
:10206E00000001000000204E0000000000000000F3
:10207E000000000000000000000000000000000052
:10208E000000000080110000001F00000000000092
:10209E000000000000000000000000000000000032
:1020AE000000000000000000000000000000000022
:1020BE000000000000000000000000000000000012
:1020CE000000000000000000000000000000000002
:1020DE0000000000000000000000000000000000F2
:1020EE00000000000000000000004088A0004088B2
:1020FE00A0004088A00000000000000000000000CA
:10210E0000000000000000000000000000000000C1
:10211E0000000000000000000000000000000000B1
:10212E0000000000000000000000000000000000A1
:10213E000000000000000000000000000000010090
:10214E000000000000000000000000000000000081
:10215E000000000000000000000000000000000071
:10216E000000000000000000000000000000000061
:10217E000000000000000000000000000000000051
:10218E000000000000000010000800000000E8033E
:10219E000000FFE0F505C8000000000000002C0064
:1021AE000000307500000049D1120000010101004D
:1021BE009999999900000000A005000000005802AE
:1021CE000401000000000256341204785634140044
:1021DE000004100000000200040808071B000000A5
:1021EE0000000000000000000000000000000000E1
:1021FE0000000000000000000000000000000000D1
:10220E0000000000000000003C3C3C3C0A3C1E1E4E
:10221E00999912000F83838303830F0F0F0F05020B
:10222E000208040000007F0102040505FFFFFFFF06
:10223E00FFFFFFFF00000000000000000000000094
:10224E000000000000000000000000000000000080
:10225E000000000000000000000000000000000070
:10226E000000000000000000000000000000000060
:10227E000000000000000000000000000000000050
:10228E000000000000000000000000000000000040
:10229E000000000000000000000000000000000030
:1022AE0000000000000000161102120C120C120C9D
:1022BE00120C120C120C120C120C120C120C120C20
:1022CE00120C120C1102120C120C120C120C120C1B
:1022DE00120C120C120C120C120C120C120C120C00
:1022EE00881300241300C012005C120000000000CE
:1022FE0000000000000000000000000000000000D0
:10230E0000000000000000000000000000000000BF
:10231E0000000000000000000000000000000000AF
:10232E00000000000000000000000000000000009F
:10233E00000000000000000000000000000000008F
:10234E00881300241300C012005C1200000000006D
:10235E00000000000000000000000000000000006F
:10236E00000000000000000000000000000000005F
:10237E00000000000000000000000000000000004F
:10238E00000000000000000000000000000000003F
:10239E00000000000000000000000000000000002F
:1023AE0001008216032D8443015A82700387849D97
:1023BE00849D849D849D849D849D849D0000000049
:1023CE0000000000000000000000000000000000FF
:1023DE0000000000000000000000000000000000EF
:1023EE0000000000000000000099999999999999B0
:1023FE009999999999000000BE051246843F056986
:10240E000040BE0340000000000002FA02900000EF
:10241E000002900000000000000000000000000616
:10242E0012010100040002010004002000800200DD
:10243E00000290000000000B0000000000000000F1
:10244E00000000000000000000000000000000007E
:10245E0000000001010004000201000400200080C1
:10246E0002000002900000000000000001000000C9
:10247E00000E040004010E04000400020400040116
:10248E00020400040000010102000001020200002B
:10249E0001030200010B0004000904000400020005
:1024AE008002000214000400031400040000000067
:1024BE00000000000000000000000000000000000E
:1024CE0000000000000000000000000000000000FE
:1024DE0000000000000000000000000000000000EE
:1024EE0000000000000000000000000000000000DE
:1024FE0000000000000000000000000000000000CE
:10250E0000000000000000000000000000000000BD
:10251E000000000000000000000000051700000091
:10252E000000000100000000020000000003000097
:10253E000000040000000000000000000000000089
:10254E00000000000000000000000000000000007D
:10255E000000000000010000000002000000000367
:10256E000000000004000000010000000001010056
:10257E000000010200000001030000000104000041
:10258E000002000000000201000000020200000034
:10259E000203000000020400000001040004010117
:1025AE000400040001010004000201000400000107
:1025BE0001020000010202000001030200000106F8
:1025CE0002000000000000000000000000000000FB
:1025DE0000000000000000000000000000000000ED
:1025EE0000000000000000000000000000000000DD
:1025FE0000000000000000000000000000000000CD
:10260E0000000000000000000000000000000000BC
:10261E00000000000000001FF1000407060606007F
:10262E0002900015222D3E7F8286898A10110B3171
:10263E005C645D654A0200004B0200004D024F02D1
:10264E005102050404090903039494797D7D79816F
:10265E00817985851C1C5B5B01939353025602594D
:10266E00025C025E02600257027C7B7BF4020480F5
:10267E000006030300050004FFFFFFFFFF99999971
:10268E00999999616263646566000000000000001C
:10269E00000000805E666861605F673F6B6D595831
:1026AE00526C4C46484F4E4D47403A3C4342413B9C
:1026BE00342A2C3736352B241E202726251F181298
:1026CE00141B1A19130C06080F0E0D074944454B1F
:1026DE0051504A00000000010000000100030002FA
:1026EE00000000070040000C000000070304000279
:1026FE00003F040F03080004003F042F03300002C4
:10270E00003F048F03300002003F04EF033000024D
:10271E00003F044F04300002003F04AF04180014C1
:10272E000000008F0614000A000000570722000A5E
:10273E00001304AB0820000A000000EB097C000A1D
:10274E00000000C30E300003003F04530F300002A0
:10275E00003F04B30F38000200370423100C0002B0
:10276E00006F043B1010000A009704DB100C0014DD
:10277E00006F04CB1110001400B7040B1330000AC5
:10278E00000000EB1410000A00A7048B150C000AC1
:10279E0000000003160C000A0000007B1628000A39
:1027AE000000000B1828000A0000009B190C000AFC
:1027BE00000000131A0C000A0000008B1A18000A01
:1027CE000000007B1B0C000A000000F31B0C000A2B
:1027DE000000006B1C180014007B044B1E0C001430
:1027EE00006F043B1F0C001400C7042B20040014C0
:1027FE000074027B200400050074028F200C00057B
:10280E00000000CB20040002000000F402040018B7
:10281E00050800C4030100C5030500CA030240AB4E
:10282E00100200B80304000144040002440480AB0B
:10283E00100200B40304008F0304002504040001F9
:10284E004404000244040011440400124404002114
:10285E004404002244040031440400324404004184
:10286E00440400424404800000330001440400028A
:10287E00440480F40204000144040002440400777E
:10288E00040200A004030025040300FA030280F4EE
:10289E00023300A71104000F120100180504C00036
:1028AE000033003805040001440400024404800093
:1028BE00003300A711040001440400024404808F79
:1028CE00030400014404000244048000400000A000
:1028DE000000400000FEFFFFFF030149D112472711
:1028EE006267C082C083E9FB74FF2B1904601A7AF9
:1028FE0000800808E8C3941440F90A900325E0F814
:10290E00EAC39850E1780080EBD083D08222C08257
:10291E00C0838A828B83A3E0F98A828B83E0FAE9F3
:10292E00FBD083D0822274F7120B84EAFCEBFDE914
:10293E00FE7A557B55802FEAF9EBFA8C828D83E077
:10294E00F521EA652125E0FAE433FBE42AF58274E9
:10295E00013BF583E493FAA3E49369FB8C828D83A8
:10296E00A3AC82AD831EEE70CE7F02020BEAC08254
:10297E00C083801D8C828D83E4938A828B83F08C3E
:10298E00828D83A3AC82AD838A828B83A3AA82AB12
:10299E0083E9F874FF28190470DAD083D08222C03C
:1029AE0082C083801C8C828D83E08A828B83F08C24
:1029BE00828D83A3AC82AD838A828B83A3AA82ABE2
:1029CE0083E9F874FF28190470DBD083D08222C00B
:1029DE0082C083800BE98A828B83F0A3AA82AB83A9
:1029EE00ECF874FF281C0470ECD083D08222792876
:1029FE00E9FA74FF2A1904600C7800E8C3941E509B
:102A0E00EF000880F62279002274F1120B8474FF15
:102A1E00120B148A218B22853182853283E4F0F5E4
:102A2E0025F52680080525E52570020526C3E52532
:102A3E009403E52694005034E004F0852127852286
:102A4E0028E528547FFF122BC279A0122B67E9705C
:102A5E00D4EFF9122B67E970CCA927122B67E97016
:102A6E00C4122BC279A1122B67E970B975250075B6
:102A7E0026007410120B60E0FEA3E0FF7412120B1E
:102A8E0060E0F521A3E0F5228010122C03A3AE82A4
:102A9E00AF830525E52570020526C3E5259521E5BD
:102AAE002695225022122B2EE98E828F83F0E5215D
:102ABE0024FFF8E52234FFF9E865257003E9652661
:102ACE0070C8122BF480C6122BD81229FC43A60212
:102ADE0043A604853182853283E0C394039002526B
:102AEE00E040074408F07902800554F7F07900744D
:102AFE0001120B2A7F08020BEA74F3120B84752560
:102B0E00027526007825120C2E740F120B60120C13
:102B1E0045122A177404120B2A79007F06020BEA5B
:102B2E00C082C08353A6FB43A40243A502900201B8
:102B3E00E4F0F88014000043A604E0C333F0E5A7E8
:102B4E00A2E15004E0D2E0F008E8C3940853A6FBDB
:102B5E0040E3E0F9D083D08222C082C083E99002A4
:102B6E0002F053A6FB53A6FD7800800F53A6FDE09E
:102B7E00C333F0000043A604000008E8C3940853D2
:102B8E00A6FB500AE0A2E750E343A60280E1000054
:102B9E0043A40243A50243A6040000E5A7A2E15008
:102BAE0004D2F08002C2F0A2F0E433F953A6FBD0B7
:102BBE0083D0822253A6FB43A60243A604000053F1
:102BCE00A6FD000053A6FB00002253A6FB53A6FD54
:102BDE00000043A604000043A602000043A40243E3
:102BEE00A50253A6FB2253A6FB43A60243A604004E
:102BFE000053A6FB2253A6FB53A6FD43A6040000DA
:102C0E0053A6FB22C082C083E9701C90020374FF9E
:102C1E00F0900208E4F0A3F0900207F09002047422
:102C2E0003F0A3E4F0A3F0D083D08222C082C0834D
:102C3E00E4801B900205E06013E014F0E0700D904C
:102C4E0002047404F09003C1E04410F0740160E3D8
:102C5E00D083D0822274F8120B8490024D74FFF050
:102C6E00A3F0A3F0A3740FF07F01020BEA125179C7
:102C7E00022C812274F8120B8490027DE4F09002F3
:102C8E006EF0900273F0A3F0A3F0A3F090026FF039
:102C9E00A3F0A3F0A3F0900277F0A3F0A3F0A3F0BB
:102CAE0090027BF0F9122CF97F01020BEAC082C070
:102CBE0083C2AF900268E02401F0A3E03400F0D2AA
:102CCE00AFD083D08222C082C083900264E0240100
:102CDE00F0A3E03400F0900268E0F8A3E0F990026F
:102CEE0066E8F0A3E9F0D083D0822274F8120B8448
:102CFE00E970117C0A79007A647B021229DD900258
:102D0E007CE4803CC2AF900266E0F8A3E0F9A3C376
:102D1E00E098F0A3E099F0900264E4F0A3F0A3F041
:102D2E00A3F0D2AFA3C3E09409A3E09407400990A7
:102D3E0002687408F0A314F0A3E4F0A3F0A3F0A3C8
:102D4E00F07F01020BEAC082C0839028E7E0F89082
:102D5E000B99E0C398403A90098FE0C4135407547E
:102D6E000364017901600512373580081236B27995
:102D7E00011235C9900978743CF0900DF8E0900975
:102D8E007BF09009AE743CF0A3E4F01255B0123112
:102D9E002890098DE054DFF0D083D0822274F31294
:102DAE000B8490098FE0FAA3E0FBEAA2E0503C907E
:102DBE000994E054027039EA5410702F9009AFE074
:102DCE007029900DA2782112098B852226E52654B2
:102DDE00107010EB5402600BE52154027005EB5499
:102DEE000180069009E2E05410600543A62080039E
:102DFE0053A6DF53A5DF53A4DFEAA2E050089009E3
:102E0E0094E054026003022EA8EA54106003022ECE
:102E1E00A3EAC41354075403707B9009B2E0707593
:102E2E009009AFE0706F9009AEE07069900991E083
:102E3E00F521A3E0F52274067821120AF2E5215459
:102E4E00077052900D8A1209E0E8494A4B600690CD
:102E5E000945E06040900D861209E0E8494A4B7042
:102E6E003490240EC082C0839009DE782112098B23
:102E7E00D083D082E4935521F8A3E4935522F9E848
:102E8E00497012901206782112099A9009717821D0
:102E9E00120615700543A608800353A6F753A5F72F
:102EAE0053A4F77F06020BEAC082C083E9C394578E
:102EBE0050287401C0E0740759F8D0E0B8000280C1
:102ECE0004C333D8FCF8E9131313541FFA74462ABB
:102EDE00F582E43409F583E048F0D083D08222C035
:102EEE0082C083E9C3945750297401C0E074075916
:102EFE00F8D0E0B800028004C333D8FCF4F8E9132C
:102F0E001313541FFA74462AF582E43409F583E04C
:102F1E0058F0D083D0822274F3120B8474F529F505
:102F2E0082E43411F583E493F525EA75F007A4F8ED
:102F3E00A9F074A228FE742639FF752600800512AA
:102F4E002EED0526E526C394075027852621EE256E
:102F5E0021F582E43FF583E493F98525217522005E
:102F6E00E5267821120AE2E521A2E050D2122EB611
:102F7E0080D07F06020BEA74F7120B84900991E061
:102F8E005402607BEA4B60777E0080010E743C2E0B
:102F9E00F8E43406F9E82415FCE93403FD8C828D3F
:102FAE0083E0FFE82416F582E93403F583E06F70C1
:102FBE00DB8C828D83E0F460010EEEC3941E503FD5
:102FCE008A828B83E493FC743C2EF8E43406F9EC8D
:102FDE00C0E0E82415F582E93403F583D0E0F08AE9
:102FEE00828B83A3AA82AB83E493FDEC6D70CAED52
:102FFE00C0E0E82416F582E93403F583D0E0F07FD3
:10300E0002020BEAC082C0838A828B83E49390090A
:10301E0076F0A3E4F08A828B83A3AA82AB83122F6D
:10302E0085D083D0822274F7120B84E9FE90099129
:10303E00E0540260299009767449F0A3E4F0EEC3DF
:10304E0094055010743529F582E43426F583E49303
:10305E00900951F0122F857A777B26122F857F02E9
:10306E00020BEA74F7120B8474EC120B14A831A93C
:10307E003288218922AE21AF227521147522007863
:10308E0021120C2EEAFCEBFD7402120B7212770465
:10309E007402120B2A853182853283E0700E740120
:1030AE00120B60E070068048E8FEE9FF8E828F8387
:1030BE00E0F87401687043A3AE82AF8390098FE08D
:1030CE005401F8A3E05401F97401687001E9600934
:1030DE008E828F83E0F9122EB68E828F83A3A88202
:1030EE00A9838E828F83E0FA88828983E06A70B822
:1030FE007414120B2A7F02020BEA74026870D1A3B9
:10310E00AE82AF83E0F8C4540FFA740F58F9740FFF
:10311E006970027910122F2580BF74F1120B84741E
:10312E00F0120B147C0B7D007A467B0912D9CE90DF
:10313E00120A782112099AAA21AB22AC23AD2412CD
:10314E00DC1CE970107C0B7D0079FF7A467B09123E
:10315E00DAF90235BC90098FE05481F8A3E05401EE
:10316E00F97481684970030235BC9003ECE531F0C7
:10317E00A3E532F07C207D0079FF7A517B0912DACB
:10318E00F990098FE054F7F0900976E4F0A3F090EF
:10319E000991E04402F07A717B0912A423E054FDF8
:1031AE00F0900977E0F954076006E9540704800AA5
:1031BE00A8319003ECE0C398C333FF790412D9FC15
:1031CE00853182853283782112098B7E00900976B3
:1031DE00E0F8540714601B14601814605C146059F6
:1031EE0014700302327714700302327C14600302EF
:1031FE003281E85408603E900E44E0F8C3940250C9
:10320E0034E8FE90120E782512099AAA25AB26AC48
:10321E0027AD2812DC1CE9701890098FE054087055
:10322E0010EE70059012128003901216782112087B
:10323E00BA740280170E0E8022E85408601B900E9E
:10324E0045E0F8C394045011E8FE7404C39E333372
:10325E0054FC782112085C80027E04900976E054BA
:10326E0040601074012EFF800A0E7F0280050E0E44
:10327E000E7F04EE601074302EF582E43426F58352
:10328E00E493F9122EB6900976E05407F860317483
:10329E00FF2825E0F8E433F9744228F582742639C4
:1032AE00F583E493C0E0740193F583D082AA82ABD8
:1032BE0083EA4B600B74062AFA74243BFB123071BE
:1032CE007E078012EEFAE521540FF9122F257404B1
:1032DE00782112085C1E74FF2F1F0470E7E521454C
:1032EE002245234524703D90098FE05408604E908E
:1032FE000971782112098B7410782112085C749070
:10330E00652145227032EEFA7910122F25EE75F0F6
:10331E0007A4F8A9F074A828F582742639F583E479
:10332E0093F98016EEFAE521540FF9122F25740445
:10333E00782112085C1E80A57930122EB690098F66
:10334E00E0A2E04003023464900993E054406055DB
:10335E00900976E05420704D900D65E0F8C3940A04
:10336E00502F740128FF7523048022EFC39523404C
:10337E001A852321743D2521F582E43426F583E454
:10338E0093F9122EB6E523CFC39FFF1523E52370C5
:10339E00DA7995122EB67A9A7B0C12DC5CE97005FE
:1033AE007962122EB6900D5BE0700302343C9009E8
:1033BE0076E054107078900830E0F8A3E0F583883A
:1033CE0082E0F521C394045021900990E0540170DD
:1033DE00089009EBE054027011743A2521F582E44D
:1033EE003426F583E493F9122EB6900C5BE064015B
:1033FE006019900DEBE0A2E15011795A122EB67AB7
:10340E00967B0C12DC5CE97025801A900DA2782157
:10341E0012098B90121A7821120937E5214522459F
:10342E002345246004796F8002795A122EB69009D2
:10343E007EE0602290097DE025E0F8E433F97469BE
:10344E0028F582742639F583E4932406FAA3E493CF
:10345E003424FB1230717A517B0912307190094578
:10346E00E06018900990E05402603E900DA2782121
:10347E0012098BE521540270308033900D8A1209A7
:10348E00E0E8494A4B700C900D861209E0E8494A73
:10349E004B601B90098FE05401F8A3E05401F974BE
:1034AE00016870037401697005798C122EB690094B
:1034BE00DFE054406041900991E0F521A3E0F52250
:1034CE0074067821120AF2E5215407C39404401AB7
:1034DE00900DA2782112098B90121E7821120937B5
:1034EE00E5214522452345246008900990E05401CA
:1034FE0060057990122EB67AA67B0D12DCA5E960D6
:10350E0005796A122EB69009E0E0A2E05005792FF7
:10351E00122EB69009E2E054087028900DA2782180
:10352E0012098B9012227821120937E52145224586
:10353E00234524600E9009B5E0600D900990E0548B
:10354E000160057972122EB690098FE05401F8A32E
:10355E00E05401F97401687001E960299009DEE018
:10356E00540460057928122EB6900991E0F521A336
:10357E00E0F52274067821120AF2E521540760055F
:10358E007988122EB6900CF7E0C39403500EA3E088
:10359E00C394035007A3E0C394C840057976122E56
:1035AE00B67A0890097CE004540FF9122F251257B1
:1035BE00207410120B2A7F08020BEA74F5120B848A
:1035CE00E9FE90098FE0547FF090122678211209BF
:1035DE009AAA21AB22AC23AD2412DC1CE97009900F
:1035EE000975E0C39402403290122A782112099A8A
:1035FE00AA21AB22AC23AD2412DC1CE97024900965
:10360E0075E0FA900D5BE024FFF8E434FFF9C3EAAD
:10361E0098E499A2D265D0335008900975E004F071
:10362E00807D90098FE0C413540754036401700A1F
:10363E00EE700779001236B2802290097CE004F019
:10364E0090097BE0F8A3E0C3984016EE700E790067
:10365E001236B29009B2E06003E014F090097CE4F7
:10366E00F07521057522007821120C2E90097CE050
:10367E0075F005A4F8A9F090097FE0FA75F0EFA4B3
:10368E00CAACF02CFB740E2AFA74293BFBEA28FC18
:10369E00EB39FD7A717B0912C1777402120B2A7F06
:1036AE0004020BEA74F7120B8490098FE0549FFA10
:1036BE00A3E0FB7403697015EA444090098FF0A3F0
:1036CE00EBF090097A74C7F0A37402804DE9C394AD
:1036DE0002501C892175220074057821120B01E518
:1036EE00215460FCEA4C90098FF0A3EBF0800CEAB9
:1036FE00444090098FF0A3EBF07900E990097A70BD
:10370E0003E480027463F074F729F582E4340DF556
:10371E0083E090097BF0E990097FF090098FE054E7
:10372E007FF07F02020BEA74F8120B841236B2900D
:10373E00097C7480F079011235C9900E46E090092B
:10374E0078F07F01020BEA74F5120B8490098FE07A
:10375E00FAA2E050559009CFE0FC900E47E025E02C
:10376E00F8E433F9EC98E499C365D033502A9012FB
:10377E002E782112099A90063C78211206156018AF
:10378E00EAC41354075403F87402686003E870081F
:10379E0090098FE04410805590063C74B8F0A374E5
:1037AE003EF0A37424F0A37403F090097EE060034E
:1037BE00E014F090098CE0602B9009AFE06003E01C
:1037CE0014F09009AEE06003E014F0900978E01474
:1037DE00F0E0701079001235C9900E46E09009782D
:1037EE00F01255B012312890098FE054EFF0122DDF
:1037FE00AB7F04020BEA74F5120B841255B09012D3
:10380E002E782112099A90063C7821120615600D29
:10381E007C0B7D0079FF7A467B0912DAF91257206C
:10382E0079001237359009AEE4F07F04020BEA748A
:10383E00F5120B8474F8120B14AA31AB321240F746
:10384E00900B92E0A2E150309009DEE0F8A3E04444
:10385E0080F99009DEE8F0A3E9F0900DA27821122C
:10386E00098BE5215408700A790712E20D790312CB
:10387E00E124900944743CF07408120B2A7F040270
:10388E000BEA74F8120B8412383D900934E4F0A35D
:10389E00F0A3F0A3F012BC587F01020BEA74F112F0
:1038AE000B8474E5120B14853182853283EAF0A302
:1038BE00EBF0A3ECF0A3EDF0853182853283120C90
:1038CE00417C007D00740F120B72123CBE74041208
:1038DE000B2AAA31AB3212E1A7E9FE75210375223C
:1038EE00007821120C2E7410120B60AC82AD837412
:1038FE0006120B7212DBA47402120B2A7821120C20
:10390E002E740D120B7A740A120B60AA82AB8312FC
:10391E00DBA47402120B2A752101EE7821120B0121
:10392E007407120B60E521F0790A12E28874041212
:10393E000B721241AA900B92E0C2E1F07404120BCA
:10394E0060E0F912DC3EE9900944F085318285325F
:10395E0083782112098B90120A78211208BA9009E5
:10396E003878211209AD782112084CA3782112095A
:10397E00AD8531828532831209E09009301209EC4F
:10398E00853182853283782512098B900944E0F5C2
:10399E0021E4F522F523F524782579211208E49007
:1039AE00093478251209AD7A067B0D12DEF27A0AF9
:1039BE007B0D12DEF27A0E7B0D12DEF29009DEE046
:1039CE00F8A3E0547FF99009DEE8F0A3E9F0741B48
:1039DE00120B2A7F08020BEA7C037D007A307B09EA
:1039EE000239F174F1120B8474EE120B14740A1274
:1039FE000B60ECF0A3EDF0EAFEEBFF740E120B6021
:103A0E00E4F0A3F0A3F0A3F0740A120B60E05403E9
:103A1E00F521740365217013740C120B721240F7AA
:103A2E00740D120B60E0541FF08057EE4F700302BE
:103A3E003CAC743E2521F582E43412F583E493F513
:103A4E0021F9127851E964017003023CAC75220031
:103A5E00740A120B60A3E0544078216011120C2EF0
:103A6E00EEFCEFFD740E120B7212DBA4800F120C23
:103A7E002EEEFCEFFD740E120B721277047402120E
:103A8E000B2A7521057522007821120C2E7C057DDE
:103A9E0014740E120B721278137402120B2AEA4B64
:103AAE004C4D700B7AFF7BFF7CFF7DFF023CB47E9A
:103ABE0000802A740C120B60E5822EF582E43583A9
:103ACE00F583E0F912DC3EE9C0E07404120B60E508
:103ADE00822EF582E43583F583D0E0F00EEEC394AA
:103AEE000640D07405120B60E014FA7404120B60D9
:103AFE00E0FC75F06DA4CCA8F028FDE02403F521C0
:103B0E00E43400F52274027821120AE2EC2521F841
:103B1E00ED3522F9E8FCE9FD853182853283ECF042
:103B2E00A3EDF0A3E4F0A3F0FE804374322EF582F1
:103B3E00E43412F583E493F521E4F522F523F5241C
:103B4E0085318285328378211208D17404120B607C
:103B5E00E05403701874016E70139011DB7821120B
:103B6E00099A85318285328378211208D10EEEC3EF
:103B7E009A40B8853182853283C082C08374061222
:103B8E000B60E0F521E4F522F523F524D083D082F5
:103B9E0078211208A7901249782512099A7821796E
:103BAE00251206E47407120B60E0F525E4F526F500
:103BBE0027F5287821792512089490124D78251230
:103BCE00099A782179251206E47408120B60E0F543
:103BDE0025E4F526F527F528782179251208949005
:103BEE00124D782512099A782179251206E4740966
:103BFE00120B60E0F525E4F526F527F528782179F6
:103C0E002512089485318285328378211209AD857B
:103C1E003182853283120C417C007D007408120BB8
:103C2E0072123CBE7404120B2A752106752200789E
:103C3E0021120C2E740E120B7A7406120B7212785D
:103C4E00137402120B2AEA4B4C4D7052740A120B6B
:103C5E0060E0540CF52160117404652170167C3CF3
:103C6E007D00AA31AB3212D1748531828532831236
:103C7E0009BC8032740865217024853182853283B7
:103C8E00782112098B901251782512099A78217990
:103C9E0025120764AA21AB22AC23AD2480087A003A
:103CAE007B007C007D007412120B2A7F08020BEA47
:103CBE0074F2120B8474FA120B148A258B26ECFE06
:103CCE00EDFFEE5403FCEE1313543F5403F527742B
:103CDE00036C6003023D81AA31AB321240F77403CC
:103CEE006527701C7401120B60E0C4135407F8C0F2
:103CFE00E07403120B60D0E0F07407687002E4F019
:103D0E007401120B60E0541FF0A827E828F87441E4
:103D1E0028FAE43412FB8A828B83A3EF5440602985
:103D2E00E493F5217522007821120C2E8A828B8362
:103D3E00E493F87402120B60E58228FCE43583FDEF
:103D4E00AA25AB2612DBA48027E493F52175220069
:103D5E007821120C2E8A828B83E493F87402120B54
:103D6E0060E58228FCE43583FDAA25AB2612770494
:103D7E00023FDC7414120B601209E0E8494A4B70E2
:103D8E0018A827E828F87900744228F582E434123E
:103D9E00F583E493FC7D00802A90120A78211209A3
:103DAE009A7414120B6078211206157020A827E859
:103DBE0028F8744228F582E43412F583E493FC7DEE
:103DCE00007999AA25AB2612DAF9023FE1740212A4
:103DDE000B60E4F07403120B60E4F07404120B60D9
:103DEE00E4F07405120B60E4F0EC600514601080D2
:103DFE003C7C3C7D007414120B7212D174EAF07C80
:103E0E003C7D007414120B7212D174EAC0E074047B
:103E1E00120B60D0E0F07C187D007414120B72123D
:103E2E00D174EAC0E07403120B60D0E0F074141287
:103E3E000B601209E0E8494A4B7003023F399012B9
:103E4E000A782112099A7414120B6078211208D183
:103E5E007CB57D057414120B7212D1747414120B8E
:103E6E0060782112098BE521333354FC853182852C
:103E7E003283F0EA4B70117401120B607401F0047E
:103E8E00120B607401023F49EA24FF1AEB34FFFB68
:103E9E007414120B60EAF0A3EBF0A3E4F0A3F07C31
:103EAE006D7D017414120B7212D1747414120B60A6
:103EBE00782112098B853182853283E02521F0E04D
:103ECE00540370050AEA70010B7401120B60E48052
:103EDE000FC3EA98FAEB9400FB7401120B60E00436
:103EEE00F0E0F521740165217010853182853283F1
:103EFE00E05403700575211D800F74322521F58263
:103F0E00E43412F583E493F521852182A882C3EA75
:103F1E0098EB940050BBEA04C0E07402120B60D020
:103F2E00E0F07401120B60E004801085318285325E
:103F3E0083E4F0A3F07402120B60E4F075210085A7
:103F4E002123853182853283E5822523F582E4356E
:103F5E0083F583E0F912DC4CE9F00521E521C394E9
:103F6E000640DCA827E828F8744128F8E43412F952
:103F7E00E8FAE9FB8A828B83A3EF54406029E4932D
:103F8E00F5217522007821120C2E8A828B83E49300
:103F9E00F87402120B60E58228FCE43583FDAA2535
:103FAE00AB2612DBA48027E493F52175220078213D
:103FBE00120C2E8A828B83E493F87402120B60E546
:103FCE008228FCE43583FDAA25AB26127704740201
:103FDE00120B2A7406120B2A7F07020BEA74F112D7
:103FEE000B8474FA120B147402120B60EAF0A3EB3A
:103FFE00F0A3ECF0A3EDF07402120B60782112091D
:10400E008B1239E68A258B268C278D2878217925E7
:10401E001208E47402120B601209BC1238AB901233
:10402E0055782512099A7402120B607825120692A1
:10403E00500479118002799112E124853182853202
:10404E00837486F0A3740DF07402120B60E4F0A377
:10405E00F0A3F0A3F08071853182853283E0F8A35E
:10406E00E0F5838882782512098BE52545264527BC
:10407E004528602890125978251206C1501E7825C1
:10408E0079211208947825120C2A7404120B60E020
:10409E00FAA3E0FB12DE877404120B2A85318285A7
:1040AE003283E02404F8A3E03400F98531828532AE
:1040BE0083E8F0A3E9F09011DB782512099A7402D7
:1040CE00120B6078251208D190125D782512099A8C
:1040DE007402120B6078251206925003024065742A
:1040EE0006120B2A7F08020BEA74F7120B8474F87F
:1040FE00120B14EAFEEBFF125BF9900363E08531BD
:10410E0082853283F0900364E0C0E07401120B608C
:10411E00D0E0F0900365E0C0E07402120B60D0E0D6
:10412E00F0900369E0C0E07403120B60D0E0F090F1
:10413E000366E0C0E07404120B60D0E0F0900367F9
:10414E00E0C0E07405120B60D0E0F0900368E0C0B0
:10415E00E07406120B60D0E0F07521037522007832
:10416E0021120C2E7406120B60AC82AD83EEFAEFA8
:10417E00FB12DBA47402120B2A7821120C2E74028D
:10418E00120B7AEE2403FAE43FFB12DBA474021244
:10419E000B2A7408120B2A7F02020BEAC082C0831C
:1041AE008A828B83A3A3A3A3A3E090035FF08A82EA
:1041BE008B83A3A3A3A3E090035EF08A828B83A3D9
:1041CE00A3A3E090035DF08A828B83A3A3E0900308
:1041DE005CF08A828B83A3E090035BF08A828B83F0
:1041EE00E090035AF0125C3CD083D0822274F51218
:1041FE000B8474AD120B1475CEA575CF5A75215361
:10420E007522007821120C2E7402120B6A882189F5
:10421E00227821120C2E9011DF782112099AAA21F0
:10422E00AB22AC23AD24122A177404120B2A75CEBE
:10423E00A575CF5A7451120B60AA82AB8312291C3A
:10424E008A218B22AE21AF227951AA31AB321229AB
:10425E0034EA6E7002EB6F606275CEA575CF5A753B
:10426E0021537522007821120C2E7402120B6A88CB
:10427E002189227821120C2E9011F1782112099A9F
:10428E00AA21AB22AC23AD24122A177404120B2AD6
:10429E0075CEA575CF5A7451120B60AA82AB8312DC
:1042AE00291C8A218B22AE21AF227951AA31AB3241
:1042BE00122934EA6E7002EB6F7009AA31AB32121A
:1042CE0042FF802079517A9D7B021229348A218BFC
:1042DE0022A821A9229002EEE0687003A3E0696093
:1042EE0003124FD81250397453120B2A7F04020B4B
:1042FE00EAC082C083789D79027C0080198A828B05
:10430E0083E088828983F0A3A882A9838A828B8323
:10431E00A3AA82AB830CECC3945340E1D083D0822A
:10432E002274F5120B8474FE120B14A831A9328874
:10433E002189227821120C2E9012A5782112099A29
:10434E00AA21AB22AC23AD24122B077402120B2A26
:10435E00853182853283E0F8A3E0F99002EEE068C1
:10436E007003A3E069702279517A9D7B0212293481
:10437E008A218B22A821A9229002EEE0687003A365
:10438E00E069700512503980031241FB1243B67476
:10439E0002120B2A7F04020BEAC082C08390029C99
:1043AE007405F0D083D0822274F7120B847C0080C7
:1043BE00010CECC3941150468C21752200740278C6
:1043CE0021120B0174612521F874123522F98882AD
:1043DE008983E493FA740193FB90029DE06A700363
:1043EE00A3E06B70CC88828983A3A3E493900280B0
:1043FE00F088828983A3A3A3E493900281F0ECC397
:10440E009411400A900280740AF0900281F07F02AB
:10441E00020BEA74F5120B84E9FEA2E050297C042B
:10442E0079007A827B021229DD79047A827B02126C
:10443E002934900286EAF0A3EBF079067C827D02A5
:10444E007A887B021229ADEEA2E150787C0E7900BB
:10445E007A8E7B021229DD790C7A8E7B0212293438
:10446E0090029AEAF0A3EBF075210E7522007821E6
:10447E00120C2E75218E7522027821120C2E90119F
:10448E00D3782112099AAA21AB22AC23AD24122A89
:10449E00147404120B2A75210E7522007821120C49
:1044AE002E75218E7522027821120C2E9011D7783E
:1044BE002112099AAA21AB22AC23AD24122A14741C
:1044CE0004120B2A7F04020BEA74F5120B8474F2A9
:1044DE00120B14124609E964016003024599752115
:1044EE000E7522007821120C2E7402120B6A88218E
:1044FE0089227821120C2E9011D3782112099AAAB2
:10450E0021AB22AC23AD24122A177404120B2A7984
:10451E000CAA31AB321229348A218B22A821A9226E
:10452E00740C120B60E0687003A3E0696050752193
:10453E000E7522007821120C2E7402120B6A88213D
:10454E0089227821120C2E9011D7782112099AAA5D
:10455E0021AB22AC23AD24122A177404120B2A7934
:10456E000CAA31AB321229348A218B22A821A9221E
:10457E00740C120B60E0687003A3E069700D790E85
:10458E00AC31AD327A8E7B021229AD740E120B2A2B
:10459E007F04020BEA74F7120B847E0079047A8290
:1045AE007B021229348A218B22A821A9229002860D
:1045BE00E0687003A3E069601F0E79047A887B02BD
:1045CE001229348A218B22A821A92290028CE0681C
:1045DE007003A3E06960010EEEA2E0500F79067C35
:1045EE00887D027A827B021229AD800AC394024032
:1045FE000579011244217F02020BEA74F7120B8433
:10460E00790C7A8E7B021229348A218B22A821A959
:10461E002290029AE0687003A3E069600479018039
:10462E000279007F02020BEA74F8120B8489217E54
:10463E00007F001245A374016521700590028280EF
:10464E005AE521704D90029CE0A2E0500990028242
:10465E00E0FEA3E08013E0A2E1500F900282E0F8AA
:10466E00A3E0F9C3E498FEE499FF90029CE0A2E275
:10467E00500B900284E02EFEA3E03F8022E0A2E3E6
:10468E00501E900284E0F8A3E0F9C3EE98FEEF9975
:10469E00800D740265217008900284E0FEA3E0FF95
:1046AE00EEFAEFFB7F01020BEA74F5120B8474F243
:1046BE00120B147E0075210E8E227821120C2E7490
:1046CE0002120B6A882189227821120C2E9011D3A6
:1046DE00782112099AAA21AB22AC23AD24122A17F3
:1046EE007404120B2A790CAA31AB321229348A21A6
:1046FE008B22A821A922740C120B60E0687003A310
:10470E00E069604F75210E8E227821120C2E7402F4
:10471E00120B6A882189227821120C2E9011D778DB
:10472E002112099AAA21AB22AC23AD24122A1774A6
:10473E0004120B2A790CAA31AB321229348A218B3E
:10474E0022A821A922740C120B60E0687003A3E06A
:10475E006970010EEE7020790C7A8E7B021229346C
:10476E008A218B22A821A92290029AE0687003A3C5
:10477E00E069600302486474016E700D790EAC310D
:10478E00AD327A8E7B021229AD7A0079011246364D
:10479E008A218B22EB3395E0F523F5249002927853
:1047AE00211208D17A0079001246368A218B22EB2B
:1047BE003395E0F523F52490028E78211208D17AF4
:1047CE000079021246368A218B22EB3395E0F523CF
:1047DE00F52490029678211208D1790C7A8E7B02FC
:1047EE00122934A3EAF0A3EBF0124609E9706775BB
:1047FE00210E7522007821120C2E75218E75220243
:10480E007821120C2E9011D3782112099AAA21AB7D
:10481E0022AC23AD24122A147404120B2A12460958
:10482E00E97033790112442175210E752200782129
:10483E00120C2E75218E7522027821120C2E9011DB
:10484E00D7782112099AAA21AB22AC23AD24122AC1
:10485E00147404120B2A740E120B2A7F04020BEA34
:10486E0074F1120B847AF27B10124A5B8A218B222E
:10487E008C238D2490033778211206A2900337786B
:10488E002512098B500A90033BE02AC39525800B15
:10489E00E525F42A04F890033BE028F090033778DE
:1048AE00211209AD90033BE0C313F89002F0E0280B
:1048BE00F090033BE0A2E0E433F0900280E0F89049
:1048CE0002F0E0984074900280E0F5F09002F0E083
:1048DE0084F9F5F0900280E0A4F89002F0E098F0F0
:1048EE00E9F5F0900281E0A4F890027EE028F0E075
:1048FE00F8900282E028F0A3E03400F090027EE40B
:10490E00F079047A827B02122934900286EAF0A3AF
:10491E00EBF079067C827D027A887B021229AD90BB
:10492E000282C3E094D1A3E09407500BA3C3E0949A
:10493E00D1A3E0940740031246B7126D3F7F0802E1
:10494E000BEA74F7120B849002FDE4F0A3F09002D0
:10495E00F804F09002A1E0F8A3E0F97AE87B0312E4
:10496E000A89E8FCE9FD90029FE0F8A3E0F97A6479
:10497E007B00120A898821EC88F0A4CCA8F089F07B
:10498E00A428F88521F0EDA428FDEC2CFCED33FDD8
:10499E00ECF8EDF97AE87B03120A89E8FCE9FD9060
:1049AE0002F9ECF0A3EDF0A3E4F0A3F09002F4F022
:1049BE00A3F0A3F0A37402F0FF020BEAC082C0833F
:1049CE00A28750317800790080060008E87001094E
:1049DE00C3E89409E9940040F17800790080050855
:1049EE00E8700109C3E8944CE99400505B90288567
:1049FE00E070EC8053A28078005030790080060081
:104A0E0008E8700109C3E894F0E9940040F17800D9
:104A1E007900C3E89480E99407502D902885E060D2
:104A2E002708E870ED0980EA007801E860FA78005E
:104A3E007900800508E8700109C3E89402E9940042
:104A4E005006902885E070ECD083D0822274F1124B
:104A5E000B8490288474CCF0E4F02AF582E43BF5C4
:104A6E0083E01249CA902885E0600A7A007B007CB8
:104A7E00007D008058902883E0F525E4F526F52783
:104A8E00F52874087825120875902882E0F521E43F
:104A9E00F522F523F5247825792112096174087819
:104AAE0025120875902881E0F521782579211209C3
:104ABE006174087825120875902880E0F521782514
:104ACE007921120961AA25AB26AC27AD287F0802F1
:104ADE000BEA74F1120B84780090288474CCF0E405
:104AEE00F0902885E0600908E8C3942140F3803BEC
:104AFE00EA902880F0EBA3F0ECA3F0EDA3F0740F96
:104B0E00120B60E0F8A3E0F988828983E4F0D28783
:104B1E00A28740070AEAC3941F40F5007800902848
:104B2E0085E0600B08E8C3942140F3790080027998
:104B3E00017F08020BEA74F1120B8478009028842E
:104B4E0074CCF0E4F0902885E0600908E8C3942165
:104B5E0040F3803AEA902880F0EBA3F0ECA3F0ED5E
:104B6E00A3F0C287A28750070AEAC3941F40F574C8
:104B7E000F120B60E0F8A3E0F988828983E4F0005D
:104B8E00F8902885E0600B08E8C3942140F3790083
:104B9E00800279017F08020BEA74F1120B8478000F
:104BAE0090288474CCF0E4F0902885E0600908E841
:104BBE00C3942140F3802DEA902880F0EBA3F0EC13
:104BCE00A3F0EDA3F0740F120B60E0F8A3E0F988E8
:104BDE00828983E4F000F8902885E0600B08E8C332
:104BEE00942140F37900800279017F08020BEAC01C
:104BFE0082C083902858E4F0A3F0A3F0A3F0A3F0B2
:104C0E00A3F0902863F090286504F0E99028646082
:104C1E0003E48002740FF0D083D08222D287780012
:104C2E00A287400708E8C3941540F52274F5120BCD
:104C3E0084E9FFC28475217D7522287821120C2EFD
:104C4E009011DF782112099AAA21AB22AC23AD2450
:104C5E00124BA77402120B2A75217875222878211F
:104C6E00120C2E9011DF782112099AAA21AB22ACD8
:104C7E0023AD24124BA77402120B2A7521F4752250
:104C8E00107821120C2E9012A9782112099AAA21BD
:104C9E00AB22AC23AD24124BA77402120B2A752142
:104CAE00FA7522107821120C2E9012A97821120971
:104CBE009AAA21AB22AC23AD24124BA77402120B7D
:104CCE002AEF7521EF75221078216008120C2E90B4
:104CDE0012AD8006120C2E9012B1782112099AAAEA
:104CEE0021AB22AC23AD24124BA77402120B2A7EE9
:104CFE0000802B8E21E52124F0F521E43410F522DD
:104D0E007821120C2E9011DF782112099AAA21AB6C
:104D1E0022AC23AD24124BA77402120B2A0EEEC343
:104D2E00940440CF7E00802B8E21E52124F6F521C0
:104D3E00E43410F5227821120C2E9011DF78211216
:104D4E00099AAA21AB22AC23AD24124BA7740212EE
:104D5E000B2A0EEEC3940440CF75217D7522287860
:104D6E0021120C2E9012B5782112099AAA21AB228B
:104D7E00AC23AD24124BA77402120B2A75217D753C
:104D8E0022287821120C2E9012B9782112099AAA93
:104D9E0021AB22AC23AD24124BA77402120B2A7541
:104DAE00217D7522287821120C2E9011DF78211288
:104DBE00099AAA21AB22AC23AD24124BA77402127E
:104DCE000B2A7E00802B8E21E52124F0F521E43480
:104DDE0010F5227821120C2E9011DF782112099AEB
:104DEE00AA21AB22AC23AD24124BA77402120B2ABC
:104DFE000EEEC3940440CF7E00802B8E21E521243D
:104E0E00F6F521E43410F5227821120C2E9011DFE4
:104E1E00782112099AAA21AB22AC23AD24124BA7FA
:104E2E007402120B2A0EEEC3940440CF7521F57551
:104E3E0022107821120C2E9011DB782112099AAAD9
:104E4E0021AB22AC23AD24124BA77402120B2A7590
:104E5E0021FB7522107821120C2E9011DB78211275
:104E6E00099AAA21AB22AC23AD24124BA7740212CD
:104E7E000B2AEF7521787522287821602B120C2EC3
:104E8E009012BD782112099AAA21AB22AC23AD242F
:104E9E00124BA77402120B2A75217E7522287821D7
:104EAE00120C2E9012C18029120C2E9012C5782150
:104EBE0012099AAA21AB22AC23AD24124BA774027D
:104ECE00120B2A75217E7522287821120C2E901134
:104EDE00DF782112099AAA21AB22AC23AD24124B02
:104EEE00A77402120B2A7521797522287821120CCB
:104EFE002E9011DF782112099AAA21AB22AC23AD94
:104F0E0024124BA77402120B2A75217A7522287867
:104F1E0021120C2E9012C9782112099AAA21AB22C5
:104F2E00AC23AD24124BA77402120B2A75217D758A
:104F3E0022287821120C2E9011F1782112099AAAAA
:104F4E0021AB22AC23AD24124BA77402120B2A758F
:104F5E00217B7522287821120C2E9011DF782112D8
:104F6E00099AAA21AB22AC23AD24124BA7740212CC
:104F7E000B2A75217C7522287821120C2E9011DFB8
:104F8E00782112099AAA21AB22AC23AD24124BA789
:104F9E007402120B2A9002F37401F09002F2E4F004
:104FAE007F04020BEA7900124BFD124C2A75CEA536
:104FBE0075CF5A7900124C3A75CEA575CF5A024F5D
:104FCE00CF12432F1243A70244D7C082C083795118
:104FDE007CD97D127A9D7B0212297C79517A9D7B38
:104FEE00021229349002EEEAF0A3EBF0D083D082C5
:104FFE0022C082C0839002F0E004F0900280E0F8BC
:10500E009002F0E0C398401E900280E0F89002F00B
:10501E00E0C398F0900281E0F890027EE028F090D4
:10502E0003C1E04404F0D083D0822274F5120B84C5
:10503E00900325E064017521F47522107821700823
:10504E00120C2E9002A78006120C2E9002A31209AB
:10505E00BC124BA77402120B2A7521FA7821120C7E
:10506E002E9002A31209BC124BA77402120B2A75C2
:10507E0021F57821120C2E9002AB1209BC124BA70F
:10508E007402120B2A7521FB7821120C2E9002ABA2
:10509E001209BC124BA77402120B2A7E0080378EA7
:1050AE0082858221752200E52124E8F523E434105F
:1050BE00F5247823120C2E74027821120B0174B38E
:1050CE002521F58274023522F5831209BC124BA7F5
:1050DE007402120B2A0EEEC3940740C3900325E010
:1050EE00640170457521F47522107821120C2E90F2
:1050FE0002A71209BC124BA77402120B2A7521EBE0
:10510E007821120C2E9002E51209BC124BA77402E4
:10511E00120B2A7521EC7821120C2E9002E912093D
:10512E00BC124BA77402120B2A75217B75222878AC
:10513E0021120C2E9002CFE0FAE4FBFCFD124BA7DD
:10514E007402120B2A75217C7821120C2E9002D03B
:10515E00E0FAE4FBFCFD124BA77402120B2A90023C
:10516E00EDE0902858F07F04020BEAC082C08379EC
:10517E000F7C417D137AFF7B0212297C900307E09E
:10518E00F874096860077490686002E4F0790F7A29
:10519E00FF7B0212293490030EEAF0A3EBF0D083CA
:1051AE00D08222222274F5120B84125D9690122E5A
:1051BE00782112099A90063C7821120615600B9000
:1051CE000940E4F0A3F0A3F0A3F09012D1782112DD
:1051DE00099A90094078211206156005123804804C
:1051EE00061255B0125720900B367432F0A3740F7E
:1051FE00F0900C5DE0646670091251B290099874DB
:10520E0021F01238909009301209E09009C312096A
:10521E00EC9012D1782112099A9009407821120649
:10522E00156022900940E4F0A3F0A3F0A3F09009DA
:10523E00DEE0F8A3E054FDF99009DEE8F0A3E9F012
:10524E00790512E288123755125DFD90098DE04402
:10525E0008F01265A8126CF89009B47401F0900D64
:10526E00A2782112098BE52254206027900D8A1214
:10527E0009E0E8494A4B60067A8A7B0D8010900D52
:10528E008E1209E0E8494A4B600C7A8E7B0D126D46
:10529E002880031251B2900C5BE064016005752109
:1052AE000180037521007522009009E2E0FAA3E067
:1052BE0054FDFB74097821120B01E5225402F9EA20
:1052CE00F8EB49F99009E2E8F0A3E9F0900E76E0E8
:1052DE00A2E050129009EAE0F8A3E04402F9900926
:1052EE00EAE8F0A3E9F090098AE0600312BC5812D4
:1052FE00E1E27AC77B0912D1F7900DA2782112094B
:10530E008BE521A2E0500312E0ED90098EE04440BF
:10531E00F07F04020BEAC082C08390098EE054C075
:10532E00F9E470037440697024900989E4F09009DF
:10533E008EE04480F0900C5CE064337009A3E0646E
:10534E006660031251B190098EE0547FF0D083D085
:10535E008222C082C083900984E014F0900B92E008
:10536E00A2E05007126199E0C2E0F0900992E05479
:10537E00EFF0D083D08222C082C08390098AE4F0FD
:10538E009009CFE0F8C394D25018E8C39415402288
:10539E00900992E05440701AE04440F0A3E04401BA
:1053AE00800FE024FEF0900993E054106004E05466
:1053BE00EFF01237559009D3E06010E014F0E07072
:1053CE000A90098DE0440CF0127F88900993E05406
:1053DE00026012900C5BE06401600A126366900931
:1053EE0093E054FDF0D083D08222790112557B795F
:1053FE00012274F5120B84790112557B43A62053BA
:10540E00A5DF53A4DF43A60853A5F753A4F71255FF
:10541E00B090122E782112099A90063C782112062D
:10542E0015700D7C0B7D0079FF7A467B0912DAF937
:10543E0012572079017AFA7B0012557890093C7840
:10544E002112098B782112084C9009387821120606
:10545E00156011900930E4F0A37449F0A374D1F0F3
:10546E00A37412F07C0F7D007ACC7B0B12D9CE90F8
:10547E0009B374C8F0791412E2887F04020BEA743F
:10548E00F5120B841255791258889003B8E4F090F7
:10549E0003B9F09012D5782112099A90063C782122
:1054AE00120615602790122E782112099A90063C4A
:1054BE00782112061560157C907D057A3C7B0612CC
:1054CE00D9CE7C0F7D007ACC7B0B800E740E243CE3
:1054DE00FC74FC3406FD7A827B0912D9CE90093C0D
:1054EE00782112098B782112084C900938782112F4
:1054FE0006156011900930E4F0A37449F0A374D13D
:10550E00F0A37412F0900370E4F01253F8E9600403
:10551E007A0180027A0090098FE054FEF8A3E0F938
:10552E00EA5401FAE84A90098FF0A3E9F079FF12E4
:10553E00E28890098FE0A2E0500512540080031219
:10554E005561799912E288900B96E4F0D2AF7F0400
:10555E00020BEA790002557BC082C08390098FE06E
:10556E00A2E0E433F9D083D0822222222202557A9D
:10557E00C082C0839028ACE0D2E2F0A3E0D2E2F089
:10558E009028ACE0D2E1F0A3E0D2E1F0D083D0825B
:10559E0022C082C083900310EAF0A3EBF0D083D038
:1055AE008222C082C0839028B4E0440FF09028B8C5
:1055BE00E04403F09028BCE074FFF09028D5E0445E
:1055CE003FF09028B5E054F0F09028B9E054FCF08C
:1055DE009028BDE0E4F09028D6E054C0F0C283904D
:1055EE00285E7404F0902C1E7491F0A3E4F0A37462
:1055FE00FFF0A3747CF0A3E4F0A3F0D083D082225A
:10560E00C082C083125633902C1FE4F0A3F0A3F097
:10561E00A3F0A3F079051228F0902C1EE4F0D283AB
:10562E00D083D08222C082C0837C0B79009003107D
:10563E00E0FAA3E0FB1229DD125669D083D0822254
:10564E00C082C0837C0B79FF900310E0FAA3E0FBCD
:10565E001229DD125669D083D08222C082C0839077
:10566E000310E0FAA3E0FB12567DD083D08222C055
:10567E0082C0838A828B83E0902C06F08A828B8391
:10568E00A3E0902C07F08A828B83A3A3E0902C08D2
:10569E00F08A828B83A3A3A3E0902C09F08A828BDD
:1056AE0083A3A3A3A3E0902C0AF08A828B83A3A3E7
:1056BE00A3A3A3E0902C0BF08A828B83A3A3A3A3B6
:1056CE00A3A3E0902C0DF08A828B83A3A3A3A3A3A4
:1056DE00A3A3E0902C0EF08A828B83A3A3A3A3A393
:1056EE00A3A3A3E0902C0FF08A828B83A3A3A3A382
:1056FE00A3A3A3A3A3E0902C10F08A828B83A3A371
:10570E00A3A3A3A3A3A3A3A3E0902C11F0D083D0B3
:10571E008222C082C083900310E0FAA3E0FB1256EF
:10572E007DD083D08222025737C082C0839003136C
:10573E007404F0900317F090031404F0900319F022
:10574E00A3F090031DF0D083D08222C082C083903C
:10575E0028A8E4F0A3F0A3F09028ACF0A3F0A3F0F7
:10576E009028C5F0A3F0A3F0A3F09028B074FFF03A
:10577E00A3E4F09028B4740FF0A3E4F09028B8746A
:10578E00FFF0A3E4F09028BC74FFF0A3E4F090289F
:10579E00C074FFF0A3E4F09028D574FFF0A3E4F0FA
:1057AE009028D9F0A3F075A40075A50075A6005336
:1057BE00A4FE53A5FE53A6FE53ADFED083D0822287
:1057CE00438E085389F0438901758CEF758AFFD299
:1057DE008CD2A922C28E538EEF5389F7438910EAD9
:1057EE0075F044A4FAA8F075F044EBA428FB74FFFE
:1057FE00C39AF874FF9BF58DE8F58BD2AB22538ECE
:10580E00DFC2C975CDF575CC54D2CAD2AD2278009F
:10581E00800108E8C3941440F92274F8120B84E94D
:10582E00FF7E00800412581C0EEEC39F40F77F01CE
:10583E00020BEA74F8120B84E9FEEAFF7590967576
:10584E00975779051258288E9674076E7005744016
:10585E004FF5DF790512582875909675975679058C
:10586E001258287F01020BEAC082C083D2E9902829
:10587E004BE0D2E6F0D083D08222C082C083902D3E
:10588E0000E4F0A3F01257591255B012564E125AA8
:10589E00481257CE12580C12557E7A0079031258C0
:1058AE0041125876D083D08222C082C083E9FA7822
:1058BE0000C286C28574046A9028677007E054FCA3
:1058CE0044028003E054FCF0A3E4F0E5A3A2E04020
:1058DE000908E8C3943340F3800FD2807800A28089
:1058EE00400B08E8C3941540F57900800890032515
:1058FE007404F07901D083D08222C082C083E9FA89
:10590E007800C286C28590286774C0F0A3E4F0E5E3
:10591E00A3A2E0400908E8C3943340F38025D28067
:10592E007800A280400908E8C3941540F5801474ED
:10593E00FF6A7013D2877800A287400B08E8C394E1
:10594E001540F57900801E90285FE4F0A37403F0F3
:10595E00A37420F0A374C4F09028667480F09003B2
:10596E00257401F0F9D083D0822274F1120B847465
:10597E00FC120B149028637497F0791E1228F07A9B
:10598E00CE7B10124A5B8531828532831209C87430
:10599E0003120B60E0C394814023853182853283EC
:1059AE00782112098B782112084C9011DB78211284
:1059BE0008BA85318285328378211209AD8531820C
:1059CE00853283782112098B7410782112085C902D
:1059DE0011E3782512099A782179251206E490139D
:1059EE005078211208BA901354782512099A78210A
:1059FE00792512076490032978211209AD90135866
:105A0E00782112099A900329782112069290032781
:105A1E00500D745AF0A3F0900252E04404800AE450
:105A2E00F0A3F0900252E054FBF09028637481F0E2
:105A3E007404120B2A7F08020BEAC082C083900204
:105A4E004A7402F0F912BD997900122C12D083D04B
:105A5E008222C082C0839028A8E0C2E1F09028AADA
:105A6E00E0C2E1F09028ACE0D2E4F0A3E0C2E4F0B2
:105A7E0012560E9028C9E4F0A3F09028CDF0A3F0B2
:105A8E009028B0E04433F0A3E054CCF09028ADE081
:105A9E00C2E1F09028ACE0D2E1F09028A8E0D2E18B
:105AAE00F0A3E0C2E1F0A3E0C2E1F09028A8E0D2BA
:105ABE00E2F0A3E0C2E2F09028A8E0D2E3F0A3E087
:105ACE00C2E3F043A40153A5FE9028ACE0D2E4F06B
:105ADE00A3E0C2E4F09028ACE0C2E3F0A3E0C2E39E
:105AEE00F09028C77404F0D083D0822275A8007578
:105AFE00E80075910022C082C083902820E4F090C7
:105B0E002828F0902830F0902A05F0D083D08222F9
:105B1E0074F5120B84902864E4F075217D752228AB
:105B2E007821120C2E9011DF782112099AAA21AB3E
:105B3E0022AC23AD24124BA77402120B2A752178C6
:105B4E007522287821120C2E9011DF782112099AD5
:105B5E00AA21AB22AC23AD24124BA77402120B2A3E
:105B6E007800800108E8C3941440F9D2847F0402BF
:105B7E000BEAC082C08343A60243A604E5A1A2E0BD
:105B8E004021C280A28040FCE5A1A2E04015780031
:105B9E00800108E8C3940340F9902867E4F0E070B0
:105BAE00FDD2817900D083D08222C082C083C2868A
:105BBE00C285E5A1A2E0402CE5A1A2E04026C2806C
:105BCE00A28040FCE5A1A2E0401A7800800108E81E
:105BDE00C3940340F9902867E4F0E070FDD2817918
:105BEE00051258287900D083D08222C082C08374D7
:105BFE00FF120B14E5DA853182853283F0790512B6
:105C0E005828E59A900363F0E59BA3F0E59CA3F07A
:105C1E00E59E900369F0E59D900366F0E59FA3F085
:105C2E00E593A3F07401120B2AD083D08222C08296
:105C3E00C083759096759757790512582890035F13
:105C4E00E0F59390035EE0F59F90035DE0F59D9087
:105C5E00035CE0F59C90035BE0F59B90035AE0F546
:105C6E009A900360E0F59E79051258287590967506
:105C7E0097567905125828D083D0822274F1120BD0
:105C8E0084E9FE7590967597577902125828759487
:105C9E00007595008E25E4F526F527F52890135C02
:105CAE00782112099A782579211206E490120A7841
:105CBE00251208BA852521852622852723852824A5
:105CCE007410782112085CE521F5DBE526F5DCE59C
:105CDE0025F5DD7902125828759096759756790735
:105CEE007CB67D1D7A5A7B0312297C125C3C7F08A0
:105CFE00020BEA74F1120B8474F8120B147521085E
:105D0E007522007821120C2E1279B5EAFCEBFD7487
:105D1E0002120B721277047402120B2A7404120B05
:105D2E0060782512098B8531828532837825120998
:105D3E0010900E3AE0FA752100752300752400A22A
:105D4E00E0500B853182853283782112098BEAA2CD
:105D5E00E1500B85318285328378211208F8EAA250
:105D6E00E2500778217925120894EAA2E3500778C9
:105D7E002179251208E4AA21AB22AC23AD247408A4
:105D8E00120B2A7F08020BEA74F5120B84900C8218
:105D9E00782112098B900830E0F8A3E0C8241CF596
:105DAE0082E438F58378211208F89009F0782112F0
:105DBE0009AD9009F0782112098B9011DF7821122C
:105DCE0006589009F4501078211209ADA3E4F0A3FF
:105DDE00F0A3F0A3F08013E4F0A3F0A3F0A3F07807
:105DEE002112083BA378211209AD7F04020BEA743D
:105DFE00F1120B84900DA2782112098B900C5BE0AE
:105E0E0064017003025F4EE52254406004D2F080BC
:105E1E0002C2F0A2F0E433F5219009F478251209BC
:105E2E008B900C7278251206924036A378251206B6
:105E3E009250057521018029E525452645274528DF
:105E4E006005752102801A900DAA782112098B9097
:105E5E0009F87821120692500575210380037521E9
:105E6E0004900991E0543FFAA3E054FEFB75220022
:105E7E0074067821120B01A821E5225401F9EA4893
:105E8E00FAEB49FB900991EAF0A3EBF09009E2E0FE
:105E9E00FCA3E054EFFD9009E2ECF0A3EDF0900DC1
:105EAE00A2782112098B85212585222690121E7833
:105EBE0021120937E5214522452345246010ECF8CF
:105ECE00ED4410F99009E2E8F0A3E9F0803C8A2154
:105EDE008B2274067821120AF2E5215407FAC39434
:105EEE0004502F852622E52254207026E5255404E1
:105EFE006018EAC39403501A9009F0782112098BA6
:105F0E00900DB278211206435008900990E0440299
:105F1E008006900990E054FDF09009DEE0F8A3E0D1
:105F2E00F99009F81209D4EC4D4E4F6005E9444042
:105F3E008003E954BFF99009DEE8F0A3E9025FD0CF
:105F4E00E52254409009916014E0543FF8A3E054C8
:105F5E00FEF9E84440900991F0A3E98008E0543F2F
:105F6E00F0A3E054FEF09009E2E0FAA3E054EFFB58
:105F7E009009E2EAF0A3EBF0900DA2782512098BBE
:105F8E0085252185262285272385282490121E7893
:105F9E0021120937E5214522452345246010EAF8F0
:105FAE00EB4410F99009E2E8F0A3E9F0800EE52643
:105FBE0054206008900990E054FD8006900990E00E
:105FCE004402F09009E2E0FAA3E0FB900990E0545D
:105FDE0002602DEA54BFF8EBF99009E2E8F0A3E96C
:105FEE00F0900C5BE06401600E900DA27821120916
:105FFE008BE521540270177A867B0D12DEDB800E44
:10600E00EA4440F8EBF99009E2E8F0A3E9F09009D0
:10601E0091E0F521A3E0F52274067821120AF2E54B
:10602E00215407FA9009E2E0F8A3E0F9EA6005E8E6
:10603E0044808003E8547F9009E2F0A3E9F0EAC3BC
:10604E0094035005798612E1247F08020BEA74F559
:10605E00120B84900DD4E0F8A3E0F9E849602B9080
:10606E000DBE1209E0E8494A4B601F900ADC120986
:10607E00BC12E7BE8A218B228C238D24900DBE7814
