:020000040000FA
:0600000002006602789D7B
:03000B000278A5D3
:030013000278ADC3
:03001B000278B5B3
:03002B000278D286
:03003B0002792E19
:03004300027942FD
:03004B000279F641
:03005300027ABC72
:03005B00027ACB5B
:10006300027ADA75D00075819F753101753202020B
:10007300C58AE490020178AE790D8002F0A3D8FC22
:02008300D9FAA8
:1001000000002110422063308440A550C660E77093
:10011000088129914AA16BB18CC1ADD1CEE1EFF13B
:100120003112100273325222B5529442F772D662E3
:10013000399318837BB35AA3BDD39CC3FFF3DEE38B
:100140006224433420040114E664C774A444855433
:100150006AA54BB528850995EEE5CFF5ACC58DD5DB
:100160005336722611163006D776F6669556B44683
:100170005BB77AA719973887DFF7FEE79DD7BCC72B
:10018000C448E5588668A7784008611802282338D3
:10019000CCC9EDD98EE9AFF9488969990AA92BB97B
:1001A000F55AD44AB77A966A711A500A333A122A23
:1001B000FDDBDCCBBFFB9EEB799B588B3BBB1AABCB
:1001C000A66C877CE44CC55C222C033C600C411C73
:1001D000AEED8FFDECCDCDDD2AAD0BBD688D499D1B
:1001E000977EB66ED55EF44E133E322E511E700EC3
:1001F0009FFFBEEFDDDFFCCF1BBF3AAF599F788F6B
:100200008891A981CAB1EBA10CD12DC14EF16FE14A
:100210008010A100C230E320045025404670676082
:10022000B9839893FBA3DAB33DC31CD37FE35EF39A
:10023000B1029012F322D2323542145277625672D2
:10024000EAB5CBA5A89589856EF54FE52CD50DC5EA
:10025000E234C324A0148104667447642454054422
:10026000DBA7FAB79987B8975FE77EF71DC73CD73A
:10027000D326F2369106B016576676761546345672
:100280004CD96DC90EF92FE9C899E9898AB9ABA98A
:100290004458654806782768C018E1088238A328C2
:1002A0007DCB5CDB3FEB1EFBF98BD89BBBAB9ABBDA
:1002B000754A545A376A167AF10AD01AB32A923A12
:1002C0002EFD0FED6CDD4DCDAABD8BADE89DC98D2A
:1002D000267C076C645C454CA23C832CE01CC10C62
:1002E0001FEF3EFF5DCF7CDF9BAFBABFD98FF89F7A
:1002F000176E367E554E745E932EB23ED10EF01EB2
:1003000000010203040506070809AAAAAAAAAAAAC4
:100310000A0B0C0D0E0F10111213AAAAAAAAAAAA50
:100320001415161718191A1B1C1DAAAAAAAAAAAADC
:100330001E1F2021222324252627AAAAAAAAAAAA68
:1003400028292A2B2C2D2E2F3031AAAAAAAAAAAAF4
:1003500032333435363738393A3BAAAAAAAAAAAA80
:100360003C3D3E3F404142434445AAAAAAAAAAAA0C
:10037000464748494A4B4C4D4E4FAAAAAAAAAAAA98
:1003800050515253545556575859AAAAAAAAAAAA24
:0A0390005A5B5C5D5E5F60616263B2
:10039C0000010203040506070809101112131415B5
:1003AC001617181920212223242526272829303115
:1003BC003233343536373839404142434445464769
:1003CC0048495051525354555657585960616263BD
:1003DC00646566676869707172737475767778791D
:1003EC008081828384858687888990919293949565
:1003FC0096979899FFFFFFFFFFFFFFFFFFFFFFFF9F
:10040C00FFFFFFFFFFFFFFFFFFFFFFFFFFFFFFFFF0
:10041C00FFFFFFFFFFFFFFFFFFFFFFFFFFFFFFFFE0
:10042C00FFFFFFFFFFFFFFFFFFFFFFFFFFFFFFFFD0
:10043C00FFFFFFFFFFFFFFFFFFFFFFFFFFFFFFFFC0
:10044C00FFFFFFFFFFFFFFFFFFFFFFFFFFFFFFFFB0
:10045C00FFFFFFFFFFFFFFFFFFFFFFFFFFFFFFFFA0
:10046C00FFFFFFFFFFFFFFFFFFFFFFFFFFFFFFFF90
:10047C00FFFFFFFFFFFFFFFFFFFFFFFFFFFFFFFF80
:10048C00FFFFFFFFFFFFFFFFFFFFFFFFFFFFFFFF70
:10049C00FFFFFFFFFFFFFFFFFFFFFFFFFFFFFFFF60
:1004AC00FFFFFFFFFFFFFFFFFFFFFFFFFFFFFFFF50
:1004BC00FFFFFFFFFFFFFFFFFFFFFFFFFFFFFFFF40
:1004CC00FFFFFFFFFFFFFFFFFFFFFFFFFFFFFFFF30
:1004DC00FFFFFFFFFFFFFFFFFFFFFFFFFFFFFFFF20
:1004EC00FFFFFFFFFFFFFFFFFFFFFFFFFFFFFFFF10
:1004FC00FFFFFFFFFFFFFFFFFFFFFFFFFFFFFFFF00
:10050C00FFFFFFFFFFFFFFFFFFFFFFFFFFFFFFFFEF
:10051C00FFFFFFFFFFFFFFFFFFFFFFFFFFFFFFFFDF
:10052C00FFFFFFFFFFFFFFFFFFFFFFFFFFFFFFFFCF
:10053C00FFFFFFFFFFFFFFFFFFFFFFFFFFFFFFFFBF
:10054C00FFFFFFFFFFFFFFFFFFFFFFFFFFFFFFFFAF
:10055C00FFFFFFFFFFFFFFFFFFFFFFFFFFFFFFFF9F
:10056C00FFFFFFFFFFFFFFFFFFFFFFFFFFFFFFFF8F
:10057C00FFFFFFFFFFFFFFFFFFFFFFFFFFFFFFFF7F
:10058C00FFFFFFFFFFFFFFFFFFFFFFFFFFFFFFFF6F
:10059C00FFFFFFFFFFFFFFFFFFFFFFFFFFFFFFFF5F
:1005AC00FFFFFFFFFFFFFFFFFFFFFFFFFFFFFFFF4F
:1005BC00FFFFFFFFFFFFFFFFFFFFFFFFFFFFFFFF3F
:1005CC00FFFFFFFFFFFFFFFFFFFFFFFFFFFFFFFF2F
:1005DC00FFFFFFFFFFFFFFFFFFFFFFFFFFFFFFFF1F
:1005EC00FFFFFFFFFFFFFFFFFFFFFFFFFFFFFFFF0F
:1005FC00FFFFFFFFE76670100809E766700A08093D
:10060C00E76670040809E76622E066701008A3E04C
:10061C0066700A08A3E066700408A3E06622E493FF
:10062C006670130874019366700C087402936670FC
:10063C0005087403936622C3E09608A3E09608A30A
:10064C00E09608A3E096A2D265D03322C021C3E481
:10065C009396F5210874019396422108740293969F
:10066C00422108740393964221A2D265D033E5212E
:10067C007001D3D02122C3E7960809E7960809E751
:10068C00960809E79622C3E09608A3E09608A3E033
:10069C009608A3E09622C021C3E096F52108A3E0BA
:1006AC0096422108A3E096422108A3E096452170CA
:1006BC0001D3D02122C021C3E49396F52108740103
:1006CC0093964221087402939642210874039396E0
:1006DC0045217001D3D02122080808EAC0E0EBC004
:1006EC00E086F0E7A4FA180986F0E7A42AFA1809BC
:1006FC0086F0E7A42AFA180986F0E7A42AFA1986E4
:10070C00F0E7A4FBE5F02AFA190886F0E7A42BFB26
:10071C00E5F03AFA190886F0E7A42BFBE5F03AFA73
:10072C0018180986F0E7A4C5F02BFBE43AFA19086F
:10073C00E7C5F0C6A426F6E5F03BFBE43AFA1886CA
:10074C00F0E7A4F6E5F00826F6E43B08F6E43A08F0
:10075C00F6D0E0FBD0E0FA22E4CFC0E0E4CEC0E07B
:10076C00E4CDC0E0E4CCC0E075F020E626F608E667
:10077C0033F608E633F608E633F6181818EC33FCB3
:10078C00ED33FDEE33FEEF33FFC3EC9709ED970924
:10079C00EE9709EF97191919400FFFEC97FC09ED2B
:1007AC0097FD09EE97FE191906D5F0BFECF709ED88
:1007BC00F709EEF709EFF7191919D0E0FCD0E0FDB5
:1007CC00D0E0FED0E0FF2212083B18181812076484
:1007DC0012082A1919192212082A191919080808B5
:1007EC00E618181820E7E012076412083B181818CE
:1007FC0022090909E719191920E7DC080808E61885
:10080C00181820E70302076412083B18181812077F
:10081C006412083B18181812082A19191922E4C373
:10082C0097F709E497F709E497F709E497F722E4B7
:10083C00C396F608E496F608E496F608E496F622D3
:10084C00C6F4C608C6F4C608C6F4C608C6F4C62262
:10085C006016080808C6C313C618C613C618C613F4
:10086C00C618C613C6D5E0EA22700908080822602B
:10087C0016181818C6C333C608C633C608C633C6FE
:10088C0008C633C6D5E0EA22E627F60809E637F6AD
:10089C000809E637F60809E637F622E026F608A33B
:1008AC00E036F608A3E036F608A3E036F622E49329
:1008BC0026F60874019336F60874029336F608741B
:1008CC00039336F622E026F008A3E036F008A3E006
:1008DC0036F008A3E036F022C3E697F60809E6974F
:1008EC00F60809E697F60809E697F622C3E0C696DD
:1008FC00F608A3E0C696F608A3E0C696F608A3E0B1
:10090C00C696F622C3E096F008A3E096F008A3E0A2
:10091C0096F008A3E096F022E056F608A3E056F60F
:10092C0008A3E056F608A3E056F622E49356F60820
:10093C0074019356F60874029356F6087403935692
:10094C00F622E056F008A3E056F008A3E056F008B3
:10095C00A3E056F022E647F60809E647F60809E652
:10096C0047F60809E647F622E49346F60874019325
:10097C0046F60874029346F60874039346F622E092
:10098C00F608A3E0F608A3E0F608A3E0F622E49349
:10099C00F608740193F608740293F608740393F640
:1009AC0022E6F008A3E6F008A3E6F008A3E6F0229E
:1009BC00E0FAA3E0FBA3E0FCA3E0FD22EAF0A3EB4A
:1009CC00F0A3ECF0A3EDF022E0FCA3E0FDA3E0FE2D
:1009DC00A3E0FF22E0F8A3E0F9A3E0FAA3E0FB22F6
:1009EC00E8F0A3E9F0A3EAF0A3EBF022CAC0E0E63A
:1009FC00F0A308DAFAD0E0FA22CAC0E0E0A3C5827C
:100A0C00CCC582C583CDC583F0A3C582CCC582C5B8
:100A1C0083CDC583DAE6D0E0CA22CAC0E0E493A352
:100A2C00C582CCC582C583CDC583F0A3C582CCC598
:100A3C0082C583CDC583DAE5D0E0CA22C3E498F839
:100A4C00E499F9120A898026C3E49AFAE49BFBE93B
:100A5C0020E7E9120A89E498F8E499F922C3E498AA
:100A6C00F8E499F9120A89E498F8E499F9C3E49A3C
:100A7C00FAE49BFB22EB20E7CFE920E7E0B900107A
:100A8C00BB0008E88AF084F8AAF022E4FBC8FA223A
:100A9C00EB70227B10C833C8C933C9335007C39AD3
:100AAC00C3DBF280069A50012ADBEAC833F4C8C9CA
:100ABC0033F4C9FA2275F008E4C833C8C933C93312
:100ACC00C99AC99B5004C92AC93BD5F0ECFBC83361
:100ADC00F4C8E4C9FA22600D08C6A2E713C618C60A
:100AEC0013C6D5E0F322600C08C6C313C618C61390
:100AFC00C6D5E0F422700422600D18C6C333C608B4
:100B0C00C633C6D5E0F41822253110AF08F53140B4
:100B1C000C15328008F53140021532D2AF2200C0DC
:100B2C00D0253110AF08F531500C05328008F53165
:100B3C0050020532D2AFD0D0222531F58210AF0849
:100B4C00F531400C15328008F53140021532D2AF28
:100B5C00853283222531F582E43532F58322253125
:100B6C00F8E43532F9222531FAE43532FB2225310D
:100B7C00FCE43532FD22E4732531C582C0E0E53258
:100B8C0034FFC583C0E0E531C3958224F910AF086A
:100B9C008583328582318008858332858231D2AF5C
:100BAC00CEF0A3E520F0A37821E608F0A3DEFAEF5F
:100BBC00F0A3E58124FBF8E608F0A3E608F0A3080F
:100BCC0008E608F0A3E608F0A315811581D0E0FE35
:100BDC00D0E0F815811581E8C0E0EEC0E022853246
:100BEC0083853182E0A3FEE0A3F5207821E0A3F613
:100BFC0008DFFAE0A3FFE0A3C0E0E0A3C0E0E0A3BD
:100C0C00C0E0E0A3C0E010AF08858231858332805C
:100C1C0008858231858332D2AFD083D0822274048E
:100C2C008006740280027401C0E0F404120B45D0FB
:100C3C00E01209F8227404800474028000CCC0E035
:100C4C00EDC0E0E531C39CCCAD3250011D10AF06B8
:100C5C008C318D3280068C318D32D2AF120A05D098
:100C6C00E0FDD0E0FC2274048000CCC0E0EDC0E0DC
:100C7C00E531C39CCCAD3250011D10AF068C318DCB
:100C8C003280068C318D32D2AF120A26D0E0FDD0E4
:030C9C00E0FC2257
:0D11C0004431343346393832315330330076
:1011CE0001010000000A00000000000000640000A1
:1011DE0000E482F282F522D5A2EBA23F065B4F66B7
:1011EE006D7D077F6F777C395E7971000606060686
:1011FE00FFFFFFFF00029000FF0000000F00000045
:10120E000000080000004000000001001FF1000473
:10121E0007060606B83E24031F1C1F1E1F1E1F1F97
:10122E001E1F1E1F060503000603030005000418FB
:10123E000000003C0000008051010080D6E30181D7
:10124E0051010007000000E02E0C0110270A01409A
:10125E001F080188130501B80B0301D0070201E82E
:10126E00030A0A0019400A800C200A6009180A4075
:10127E0006100AB0040C0A2003080AF401050A90AD
:10128E0001040AC800020A6400010AC0000000D965
:10129E006204019C3C1D91BC749388C80000000838
:1012AE0000000013000000050000005F0000007049
:1012BE0000000010000000EAF48F0416322C0440E7
:1012CE0006C05D8813AC73F802E3244F19001BB7F8
:1012DE000067EBE3050000000000000000000000C6
:1012EE0000000000000000000000000000000000F0
:1012FE00000000706562017065620185A3B365CC64
:10130E00CC4E1CCCCC4E1C00000000000000000C8B
:10131E001111111111110405050204051A3C1E00CC
:10132E00000505143C0502500000000000020000FC
:10133E00000000000000CD13000047170000004021
:10134E00060004202000014404000244040000446E
:10135E00040011440400124404001044040021440B
:10136E0004002244040020440400314404003244AA
:10137E00040030440400414404004244040040444C
:10138E00048001A302002C010000060000000020D2
:10139E0040000000040000320000A30B00001A0001
:1013AE00000012000000320000001F000000E02BC1
:1013BE003F0010B33C0091572C0016000000040CA7
:1013CE00080E060E0A100C1410160E161218001027
:1013DE000000FFFFFF03038F0D05900D018E0D041E
:1013EE0008102099999999999961626364656600CC
:1013FE0040000B0040AA800048474000484FC00EF6
:10140E00E00E041900061001204001010156414171
:10141E0000F07C7C7CFC7C0807060212000411099B
:10142E000103100520480400BF480440244814411D
:10143E002C4811412A4811C12F393F7A5F206F572E
:10144E007F10393902F7586C2222638387223E3E81
:10145E00638387223E213D3D9291918491912D2D62
:10146E005E605F6C151509222270637C803E949439
:10147E007C803E94940201021F6C6C637F7878022C
:10148E008132787802816374787802813274787848
:10149E008E8E028181028282022E423B362B1F1FCC
:1014AE00010100050413030000AF08518400005829
:1014BE001403020100050333030000AF085184003A
:1014CE00005E1403050100800A00000000A826003B
:1014DE0000000000000306010705053B030000287D
:1014EE000C7186000000000308010009053B030093
:1014FE0000300C7186000000000109010009053B57
:10150E00030000340C718600000000010C01000580
:10151E000733038000AF08518400000000030F0161
:10152E000041012B0380003C0D5A87000000000390
:10153E00010204050131020000D50DBC8700000038
:10154E000003050200050A31020000D90DBC870018
:10155E0000000003070200050131020000DB0DBC94
:10156E008700000000010802000501100000008441
:10157E000D200001C0000003010300050111000051
:10158E0000910D630001C00000030203000501116C
:10159E00000000E00D140005C00000030303000569
:1015AE000111000000DE0D020000C0000003040364
:1015BE0000050111000000DF0D040000C000000353
:1015CE00050300050111000000920D630001C0002B
:1015DE000003060307092319000000140C3F420FF5
:1015EE0088000003080300050111000000E10D1E34
:1015FE000005C00000030104000586130300000669
:10160E000C4583000000000302040029861303002A
:10161E0000000C4583000066140303040005A012AD
:10162E00000000930D00000000000003040407807A
:10163E000101018000D31D3C880000000003090455
:10164E0000801301010001CD1D26B100009E140380
:10165E000B0400808A02010000D81D26B100000094
:10166E0000030C0400808A02010000421E26B10015
:10167E00000000030D04008090020100004C1E26A5
:10168E00B100000000030E0400288613030000FAC8
:10169E000B458300006914030F0400050B120000B4
:1016AE0000B30D00000000000003010507800204D6
:1016BE000000005D09000000000000030805008026
:1016CE000404000000400D000000000000030106AD
:1016DE0000050130020000D40D4E89000000000309
:1016EE000107000501100200008E0DCC7C000000E9
:1016FE0000030307000501100200008F0DCC7C00D3
:10170E0000000003050700050110020000900DCC3B
:10171E007C0000000003010800050130020000DC1F
:10172E000DA489000000000302080005013102002B
:10173E0000DD0DA48900000000030109060501105B
:10174E00020000CA0D158A0000000003010A000500
:10175E000413020000600D92B00000000003020AA4
:10176E0005050A11000000D00D3C0001C000000369
:10177E00010B03058217020000640D608A000075DC
:10178E001403010C05050430038000780DFB7C006A
:10179E00000000030110020904190047000C0CFFA1
:1017AE00E0F5858314010310050504190047004474
:1017BE000DFFE0F58500000106100004041803007B
:1017CE0000240C69990000000001011100050111AF
:1017DE00020000850D0D8B000000000304110005B2
:1017EE000812000000860D00000000000003011228
:1017FE00000505130300005C0D7186000000000358
:10180E00021200050111020000C30D6F8B000000D3
:10181E0000030312000502130200006A0DA58B00DF
:10182E0000751403041200808400000000C60D0031
:10183E000000000000030114000502110000006CFE
:10184E000D0F270080000003021400052311000075
:10185E0000580D3F420F80000003031400050211D3
:10186E000000006E0D0F2700800000030414050514
:10187E000111000000C40D6300008000000301157B
:10188E00008002060100004C0CCF80000000000317
:10189E000215008002000100006D094F9900000042
:1018AE000001031500000C020300004C0CCF800059
:1018BE00000000031FF100808400010000C10793A7
:1018CE008C00000000032FF10001B902020000A9F4
:1018DE001D538D00000000033FF10001FA020200CB
:1018EE0000E21D538D00000000035FF10001A00215
:1018FE00020000601E538D00000000036EF1000117
:10190E008102000000130B538D00000000036FF1E5
:10191E000001D7020200005A0BB18D000000000337
:10192E007FF100019002020000B30BB18D000000A8
:10193E000003AFF100800400000000A307000000C8
:10194E0000000003CEF1000102020200007E0B3304
:10195E008E0000000003CFF100010202020000829F
:10196E000B338E0000000003DEF1000102020200C4
:10197E0000800B338E0000000003DFF10001020235
:10198E00020000840B338E0000000003EFF1000113
:10199E000202020000860B338E000000000301F3EA
:1019AE0000018102020000601E56AE00000000031E
:1019BE0002F300018602030000000088AE00000062
:1019CE00000303F300018602030000B30B3BAF00DC
:1019DE000000000304F300010211000000B70A002A
:1019EE0000000000000305F300018402020000F471
:1019FE000B08B0000000000306F30041083203801C
:101A0E0000E20DC3B1000000000307F300019102D4
:101A1E000200004C0E5AB2000000000301000080CC
:101A2E002301000600840A00000000501403020087
:101A3E0000800201000000B30A00000000521403EF
:101A4E00070000800201000001C50A000000006EC0
:101A5E001403080000800201000002B90A00000011
:101A6E00007414030A0000800401008000940C002E
:101A7E000000000000030B000080040100000400C1
:101A8E000D0000000077140120000080040100000A
:101A9E0004080D00000000781401210000800401EC
:101AAE00000004040D0000000078140122002380C1
:101ABE000201010000F90A9F8E00000000030108D8
:101ACE0000050211000000740DE803008000000301
:101ADE00020800050111000000C10D63000AC000DC
:101AEE000003011000052311000300540D3F420FA7
:101AFE0080000003021000050111000000C20D63FA
:101B0E0000008000000301F10005021100000076C4
:101B1E000D900100806C14030AF100050411000001
:101B2E0000940C0F2700806C1403004840400448BA
:101B3E0016001A481680004840C00048404004482D
:101B4E00040008483C410C483C410040FF0F084847
:101B5E003C410C483C410040FFBF00484040044817
:101B6E0008800048040004484040084840C000482F
:101B7E00404004480480004840400448058004006A
:101B8E0040400048404008003C410C003C410040B1
:101B9E00FF0F04483C4108483C410040FF8F00487D
:101BAE004040044809800400404000484040100076
:101BBE00010008003C410C003C4104483C410848EF
:101BCE003CC1040040400048404008003C410C002D
:101BDE003CC104202000F4020400C6100800B80323
:101BEE000480004848400448344108483C410C48B1
:101BFE003C4110483CC100484040044808400C4855
:101C0E0001000D4805401248024014481441164880
:101C1E003C411A483C411E483CC100483C410848E2
:101C2E003C4110483C4118483C4120483CC10048CA
:101C3E003841004838410140FF91001100630C9873
:101C4E009303013000166ADA9303033000170EE196
:101C5E0093030430001810E893030530001900EFC9
:101C6E0093030630001A5E3395030730001B0B1FDB
:101C7E0096030830001C002696030930001E0B1F29
:101C8E0096030C30001F104597030D3000533CD2C5
:101C9E0097030F30000C2AE798011030000D8A21AF
:101CAE009901123000120F2598031330000B2447B0
:101CBE009A0101330609004E9A010034000A1340BE
:101CCE009A01003600621D2C9803003700611492B1
:101CDE00980300A0002406D3930301A0002510E86A
:101CEE00930347638D8F8F4763758F8F00484D40E9
:101CFE0004483CC1637C7B7B777E6363637A7E7E24
:101D0E000C0408028132747C7B7B028132747C7BF2
:101D1E00777E7E028132747C7B7A7E7E333345669B
:101D2E006861605F5F4638384B5E66605F67672D3F
:101D3E000A0A000290000301029000030101000450
:101D4E000302010004030C01000403010400040358
:101D5E000204000403040080040300FF00000300DB
:101D6E00FF01000300FF02000300000B0003000050
:101D7E000C000300000D00014000000004000000F4
:101D8E003B0000000E0000000014300300FFFF00B7
:101D9E0000003000010101090714034550534F4E56
:101DAE0031314C205365702031352032303139209D
:101DBE0031323A31373A323300000000600057B00A
:101DCE0004B9009808320058021444445A5958581D
:101DDE00582D4D0044445A595858582D4D00000066
:101DEE0000000000000000000000000000000000E5
:101DFE000000000044445A595858582D4D00000018
:101E0E0000000000000000000000000000000000C4
:101E1E000000000058585858000000000000000054
:101E2E0000000000000000000000000000000000A4
:101E3E0000000000323031362D58582D5858444C81
:101E4E002F543634352D323030372D313400770162
:101E5E003355006400000078020014122501AAAA6E
:101E6E00AAAAAAAAAAAA0000000000000000000068
:101E7E000000000000000000000000000000000054
:101E8E0000000044445A59585858432D4D44445A62
:101E9E0059585858432D4D00000000000000000016
:101EAE000000000000000000000000000044445A42
:101EBE0059585858432D4D000000000000000000F6
:101ECE000000000000000000000000000044445A22
:101EDE005958585843000044445A595858584300CA
:101EEE0000000000000000000000000000000000E4
:101EFE000000000000000044445A5958585843004E
:101F0E0000000000000000000000000000000000C3
:101F1E000000000000000044445A595858582D4DF6
:101F2E000044445A595858582D4D000000000000E6
:101F3E000000000000000000000000000000000093
:101F4E000044445A595858582D4D000000000000C6
:101F5E000000000000000000000000000000000073
:101F6E000044445A5958585800000044445A59588D
:101F7E0058580000000000000000000000000000A3
:101F8E00000000000000000000000044445A5958B0
:101F9E005858000000000000000000000000000083
:101FAE00000000000000000000000034120040009D
:101FBE0000004000000000000000000000000000D3
:101FCE0000004000000000000000000000000000C3
:101FDE0000000000000000000000000000000000F3
:101FEE0000000000000000000000000000000000E3
:101FFE0000000000000000000000000000000000D3
:10200E000000600000000000000000000000000062
:10201E00000000000000000000000000007200B18F
:10202E00014DE8FFFF6CFDFFFF0000000000000007
:10203E000000000000000000000000000000000092
:10204E000000000000770133550000000000000082
:10205E0000000000000001111111111111F4010016
:10206E0000640000000100000001000000204E008E
:10207E000000000000000000000000000000000052
:10208E0000000000000000000000008011000000B1
:10209E001F00000000000000000000000000000013
:1020AE000000000000000000000000000000000022
:1020BE000000000000000000000000000000000012
:1020CE000000000000000000000000000000000002
:1020DE0000000000000000000000000000000000F2
:1020EE0000000000000000000000000000000000E2
:1020FE00004088A0004088A0004088A0000000009A
:10210E0000000000000000000000000000000000C1
:10211E0000000000000000000000000000000000B1
:10212E0000000000000000000000000000000000A1
:10213E000000000000000000000000000000000091
:10214E000000000000010000000000000000000080
:10215E000000000000000000000000000000000071
:10216E000000000000000000000000000000000061
:10217E000000000000000000000000000000000051
:10218E000000000000000000000000000000100031
:10219E000800000000E8030000FFE0F505C800009D
:1021AE0000000000002C000000307500000049D136
:1021BE00120000010101009999999900000000A0F8
:1021CE000500000000580204010000000002563411
:1021DE0012047856341400000410000000020004AB
:1021EE000808071B000000000000000000000000AF
:1021FE0000000000000000000000000000000000D1
:10220E000000000000000000000000000000003C84
:10221E003C3C3C0A3C1E1E999912000F838383039B
:10222E00830F0F0F0F05020208040000007F01024A
:10223E00040505FFFFFFFFFFFFFFFF00000000008A
:10224E000000000000000000000000000000000080
:10225E000000000000000000000000000000000070
:10226E000000000000000000000000000000000060
:10227E000000000000000000000000000000000050
:10228E000000000000000000000000000000000040
:10229E000000000000000000000000000000000030
:1022AE0000000000000000000000000000001611F9
:1022BE0002120C120C120C120C120C120C120C122A
:1022CE000C120C120C120C120C120C1102120C121B
:1022DE000C120C120C120C120C120C120C120C1200
:1022EE000C120C120C120C881300241300C01200D6
:1022FE005C12000000000000000000000000000062
:10230E0000000000000000000000000000000000BF
:10231E0000000000000000000000000000000000AF
:10232E00000000000000000000000000000000009F
:10233E00000000000000000000000000000000008F
:10234E0000000000000000881300241300C01200DB
:10235E005C12000000000000000000000000000001
:10236E00000000000000000000000000000000005F
:10237E00000000000000000000000000000000004F
:10238E00000000000000000000000000000000003F
:10239E00000000000000000000000000000000002F
:1023AE000000000000000001008216032D8443018E
:1023BE005A82700387849D849D849D849D849D8410
:1023CE009D849D0000000000000000000000000041
:1023DE0000000000000000000000000000000000EF
:1023EE0000000000000000000000000000000000DF
:1023FE00999999999999999999999999000000BEE5
:10240E00051246843F05690040BE034000000000EF
:10241E000002FA029000000002900000000000008E
:10242E00000000000000061201010004000201007D
:10243E0004002000800200000290000000000B004B
:10244E00000000000000000000000000000000007E
:10245E000000000000000000000001010004000266
:10246E000100040020008002000002900000000025
:10247E0000000001000000000E040004010E040024
:10248E000400020400040102040004000001010221
:10249E000000010202000001030200010B00040013
:1024AE00090400040002008002000214000400036C
:1024BE0014000400000000000000000000000000F6
:1024CE0000000000000000000000000000000000FE
:1024DE0000000000000000000000000000000000EE
:1024EE0000000000000000000000000000000000DE
:1024FE0000000000000000000000000000000000CE
:10250E0000000000000000000000000000000000BD
:10251E0000000000000000000000000000000000AD
:10252E00000005170000000000000100000000027E
:10253E000000000003000000000400000000000086
:10254E00000000000000000000000000000000007D
:10255E00000000000000000000000000010000006C
:10256E000002000000000300000000040000000153
:10257E000000000001010000000102000000010344
:10258E000000000104000000020000000002010033
:10259E00000002020000000203000000020400001E
:1025AE000001040004010104000400010100040004
:1025BE0002010004000001010200000102020000FD
:1025CE0001030200000106020000000000000000EE
:1025DE0000000000000000000000000000000000ED
:1025EE0000000000000000000000000000000000DD
:1025FE0000000000000000000000000000000000CD
:10260E0000000000000000000000000000000000BC
:10261E0000000000000000000000000000001FF19C
:10262E000004070606060002900015222D3E7F824A
:10263E0086898A10110B315C645D654A0200004B7D
:10264E000200004D024F0251020504040909030362
:10265E009494797D7D7981817985851C1C5B5B01E4
:10266E0093935302560259025C025E0260025702B5
:10267E007C7B7BF40204800006030300050004FF4C
:10268E00FFFFFFFF99999999999961626364656655
:10269E0000000000000000000000805E66686160BF
:1026AE005F673F6B6D5958526C4C46484F4E4D47C5
:1026BE00403A3C4342413B342A2C3736352B241EBC
:1026CE00202726251F1812141B1A19130C06080F83
:1026DE000E0D074944454B51504A000000000100C1
:1026EE0000000100030002000000070040000C0083
:1026FE0000000703040002003F040F03080004005B
:10270E003F042F03300002003F048F03300002000D
:10271E003F04EF03300002003F044F04300002007C
:10272E003F04AF041800140000008F0614000A00C6
:10273E000000570722000A001304AB0820000A000D
:10274E000000EB097C000A000000C30E30000300FD
:10275E003F04530F300002003F04B30F3800020055
:10276E00370423100C0002006F043B1010000A0007
:10277E009704DB100C0014006F04CB111000140032
:10278E00B7040B1330000A000000EB1410000A000F
:10279E00A7048B150C000A00000003160C000A009B
:1027AE0000007B1628000A0000000B1828000A0003
:1027BE0000009B190C000A000000131A0C000A00FE
:1027CE0000008B1A18000A0000007B1B0C000A0088
:1027DE000000F31B0C000A0000006B1C1800140014
:1027EE007B044B1E0C0014006F043B1F0C001400E6
:1027FE00C7042B200400140074027B200400050083
:10280E0074028F200C0005000000CB200400020093
:10281E000000F402040018050800C4030100C503FB
:10282E000500CA030240C6100200B80304000144AA
:10283E00040002440480C6100200B40304008F0397
:10284E000400250404000144040002440400114461
:10285E0004001244040021440400224404003144C4
:10286E000400324404004144040042440480000049
:10287E0033000144040002440480F40204000144C5
:10288E0004000244040077040200A004030025049F
:10289E000300FA030280F4023300C21104002A126C
:1028AE000100180504C0000033003805040001447F
:1028BE0004000244048000003300C21104000144ED
:1028CE000400024404808F03040001440400024407
:1028DE00048000400000A00000400000FEFFFFFF4B
:1028EE0002785634120149D11247276267C082C05E
:1028FE0083E9FB74FF2B1904601A7A00800808E83C
:10290E00C3941440F90A9002A5E0F8EAC39850E186
:10291E00780080EBD083D0822274F7120B84EAFC0D
:10292E00EBFDE9FE7A557B55802FEAF9EBFA8C82A6
:10293E008D83E0F521EA652125E0FAE433FBE42AF4
:10294E00F58274013BF583E493FAA3E49369FB8C5F
:10295E00828D83A3AC82AD831EEE70CE7F02020BFE
:10296E00EAC082C083800BE98A828B83F0A3AA829D
:10297E00AB83ECF874FF281C0470ECD083D0822259
:10298E00C082C083E9701C90020174FFF0900206B1
:10299E00E4F0A3F0900205F09002027403F0A3E4B9
:1029AE00F0A3F0D083D08222C082C083E4801B903B
:1029BE000203E06013E014F0E0700D900202740464
:1029CE00F090033FE04410F0740160E3D083D082B6
:1029DE002274F8120B8490024B74FFF0A3F0A3F054
:1029EE00A3740FF07F01020BEA12487A0229FD222E
:1029FE0074F8120B8490026BE4F090025CF090027B
:102A0E0061F0A3F0A3F0A3F090025DF0A3F0A3F0A9
:102A1E00A3F0900265F0A3F0A3F0A3F0900269F08A
:102A2E00F9122A757F01020BEAC082C083C2AF90F1
:102A3E000256E02401F0A3E03400F0D2AFD083D0F0
:102A4E008222C082C083900252E02401F0A3E034BF
:102A5E0000F0900256E0F8A3E0F9900254E8F0A3DB
:102A6E00E9F0D083D0822274F8120B84E970117CC5
:102A7E000A79007A527B0212296F90026AE4803C36
:102A8E00C2AF900254E0F8A3E0F9A3C3E098F0A31C
:102A9E00E099F0900252E4F0A3F0A3F0A3F0D2AFCD
:102AAE00A3C3E09409A3E09407400990025674086A
:102ABE00F0A314F0A3E4F0A3F0A3F0A3F07F0102BF
:102ACE000BEAC082C0839028EEE0F8900B18E0C3AA
:102ADE0098403A90090EE0C41354075403640179E8
:102AEE000160051234B1800812342E79011233457B
:102AFE009008F7743CF0900D92E09008FAF090096F
:102B0E002D743CF0A3E4F0124CC0122EA490090CCC
:102B1E00E054DFF0D083D0822274F3120B8490093C
:102B2E000EE0FAA3E0FBEAA2E0503C900913E05459
:102B3E00027039EA5410702F90092EE07029900D12
:102B4E003C782112098B852226E52654107010EB55
:102B5E005402600BE52154027005EB54018006907F
:102B6E000961E05410600543A620800353A6DF538D
:102B7E00A5DF53A4DFEAA2E05008900913E0540247
:102B8E006003022C24EA54106003022C1FEAC413C3
:102B9E0054075403707B900931E0707590092EE054
:102BAE00706F90092DE07069900910E0F521A3E097
:102BBE00F52274067821120AF2E52154077052901C
:102BCE000D241209E0E8494A4B60069008C4E06003
:102BDE0040900D201209E0E8494A4B7034902415BC
:102BEE00C082C08390095D782112098BD083D08278
:102BFE00E4935521F8A3E4935522F9E84970129015
:102C0E0011FA782112099A9008F07821120615709F
:102C1E000543A608800353A6F753A5F753A4F77FE1
:102C2E0006020BEAC082C083E9C394575028740190
:102C3E00C0E0740759F8D0E0B800028004C333D85E
:102C4E00FCF8E9131313541FFA74C52AF582E43401
:102C5E0008F583E048F0D083D08222C082C083E999
:102C6E00C3945750297401C0E0740759F8D0E0B8E6
:102C7E0000028004C333D8FCF4F8E9131313541F75
:102C8E00FA74C52AF582E43408F583E058F0D0834F
:102C9E00D0822274F3120B8474E929F582E4341184
:102CAE00F583E493F525EA75F007A4F8A9F074A965
:102CBE0028FE742639FF7526008005122C6905261C
:102CCE00E526C394075027852621EE2521F582E4BB
:102CDE003FF583E493F9852521752200E5267821B9
:102CEE00120AE2E521A2E050D2122C3280D07F06E9
:102CFE00020BEA74F7120B84900910E05402607B09
:102D0E00EA4B60777E0080010E74BB2EF8E434052A
:102D1E00F9E82415FCE93403FD8C828D83E0FFE88D
:102D2E002416F582E93403F583E06F70DB8C828D17
:102D3E0083E0F460010EEEC3941E503F8A828B83B3
:102D4E00E493FC74BB2EF8E43405F9ECC0E0E824FF
:102D5E0015F582E93403F583D0E0F08A828B83A3E4
:102D6E00AA82AB83E493FDEC6D70CAEDC0E0E8245B
:102D7E0016F582E93403F583D0E0F07F02020BEA08
:102D8E00C082C0838A828B83E4939008F5F0A3E41B
:102D9E00F08A828B83A3AA82AB83122D01D083D0BB
:102DAE00822274F7120B84E9FE900910E05402603F
:102DBE00299008F57449F0A3E4F0EEC39405501081
:102DCE00743C29F582E43426F583E4939008D0F020
:102DDE00122D017A7E7B26122D017F02020BEA74E0
:102DEE00F7120B8474EC120B14A831A932882189C6
:102DFE0022AE21AF227521147522007821120C2EDD
:102E0E00EAFCEBFD7402120B72126E497402120B85
:102E1E002A853182853283E0700E7401120B60E0D8
:102E2E0070068048E8FEE9FF8E828F83E0F8740119
:102E3E00687043A3AE82AF8390090EE05401F8A3ED
:102E4E00E05401F97401687001E960098E828F8384
:102E5E00E0F9122C328E828F83A3A882A9838E82F0
:102E6E008F83E0FA88828983E06A70B87414120B3B
:102E7E002A7F02020BEA74026870D1A3AE82AF837E
:102E8E00E0F8C4540FFA740F58F9740F6970027990
:102E9E0010122CA180BF74F1120B8474F0120B145B
:102EAE007C0B7D007AC57B0812D1729011FE7821C1
:102EBE0012099AAA21AB22AC23AD2412D3C0E97019
:102ECE00107C0B7D0079FF7AC57B0812D29D0233F0
:102EDE003890090EE05481F8A3E05401F97481682A
:102EEE0049700302333890036BE531F0A3E532F0FD
:102EFE007C207D0079FF7AD07B0812D29D90090E3E
:102F0E00E054F7F09008F5E4F0A3F0900910E044D7
:102F1E0002F07AF07B08129B68E054FDF09008F600
:102F2E00E0F954076006E9540704800AA8319003BB
:102F3E006BE0C398C333FF790412D1A0853182852B
:102F4E003283782112098B7E009008F5E0F8540741
:102F5E0014601B14601814605C1460591470030222
:102F6E002FF3147003022FF8146003022FFDE854A0
:102F7E0008603E900DDEE0F8C394025034E8FE90F7
:102F8E001202782512099AAA25AB26AC27AD281273
:102F9E00D3C0E9701890090EE054087010EE700559
:102FAE00901206800390120A78211208BA740280D9
:102FBE00170E0E8022E85408601B900DDFE0F8C358
:102FCE0094045011E8FE7404C39E333354FC7821EC
:102FDE0012085C80027E049008F5E0544060107484
:102FEE00012EFF800A0E7F0280050E0E0E7F04EE6C
:102FFE00601074372EF582E43426F583E493F912CB
:10300E002C329008F5E05407F8603174FF2825E063
:10301E00F8E433F9744928F582742639F583E4937C
:10302E00C0E0740193F583D082AA82AB83EA4B6031
:10303E000B740D2AFA74243BFB122DED7E078012C1
:10304E00EEFAE521540FF9122CA17404782112081E
:10305E005C1E74FF2F1F0470E7E5214522452345B2
:10306E0024703D90090EE05408604E9008F07821CF
:10307E0012098B7410782112085C74906521452218
:10308E007032EEFA7910122CA1EE75F007A4F8A9A1
:10309E00F074AF28F582742639F583E493F980161F
:1030AE00EEFAE521540FF9122CA1740478211208BE
:1030BE005C1E80A57930122C3290090EE0A2E04001
:1030CE00030231E0900912E0544060559008F5E09B
:1030DE005420704D900CFFE0F8C3940A502F7401E9
:1030EE0028FF7523048022EFC39523401A852321E0
:1030FE0074442521F582E43426F583E493F9122CE9
:10310E0032E523CFC39FFF1523E52370DA7995129D
:10311E002C327A347B0C12D400E970057962122CB1
:10312E0032900CF5E070030231B89008F5E05410BF
:10313E0070789007AFE0F8A3E0F5838882E0F52180
:10314E00C39404502190090FE05401700890096A4D
:10315E00E05402701174412521F582E43426F58382
:10316E00E493F9122C32900BF5E064016019900D86
:10317E0085E0A2E15011795A122C327A307B0C1272
:10318E00D400E97025801A900D3C782112098B909D
:10319E00120E7821120937E5214522452345246078
:1031AE0004796F8002795A122C329008FDE0602269
:1031BE009008FCE025E0F8E433F9747028F5827489
:1031CE002639F583E493240DFAA3E4933424FB12F9
:1031DE002DED7AD07B08122DED9008C4E06018908A
:1031EE00090FE05402603E900D3C782112098BE5E8
:1031FE0021540270308033900D241209E0E8494AC0
:10320E004B700C900D201209E0E8494A4B601B9060
:10321E00090EE05401F8A3E05401F974016870033B
:10322E007401697005798C122C3290095EE054405D
:10323E006041900910E0F521A3E0F5227406782193
:10324E00120AF2E5215407C39404401A900D3C78FB
:10325E002112098B9012127821120937E52145228D
:10326E0045234524600890090FE0540160057990CC
:10327E00122C327A407B0D12D449E96005796A121C
:10328E002C3290095FE0A2E05005792F122C32907B
:10329E000961E054087028900D3C782112098B903A
:1032AE0012167821120937E521452245234524605F
:1032BE000E900934E0600D90090FE054016005791D
:1032CE0072122C3290090EE05401F8A3E05401F969
:1032DE007401687001E9602990095DE0540460058D
:1032EE007928122C32900910E0F521A3E0F5227412
:1032FE00067821120AF2E521540760057988122C0E
:10330E0032900C91E0C39403500EA3E0C39403508B
:10331E0007A3E0C394C840057976122C327A089040
:10332E0008FBE004540FF9122CA1124E3074101247
:10333E000B2A7F08020BEA74F5120B84E9FE900942
:10334E000EE0547FF090121A782112099AAA21AB3E
:10335E0022AC23AD2412D3C0E970099008F4E0C367
:10336E009402403290121E782112099AAA21AB22A1
:10337E00AC23AD2412D3C0E970249008F4E0FA9087
:10338E000CF5E024FFF8E434FFF9C3EA98E499A2BF
:10339E00D265D03350089008F4E004F0807D900997
:1033AE000EE0C413540754036401700AEE700779DB
:1033BE000012342E80229008FBE004F09008FAE010
:1033CE00F8A3E0C3984016EE700E790012342E90DA
:1033DE000931E06003E014F09008FBE4F07521057C
:1033EE007522007821120C2E9008FBE075F005A4D2
:1033FE00F8A9F09008FEE0FA75F0EFA4CAACF02C34
:10340E00FB74292AFA74293BFBEA28FCEB39FD7A76
:10341E00F07B0812B8AE7402120B2A7F04020BEA7C
:10342E0074F7120B8490090EE0549FFAA3E0FB741C
:10343E0003697015EA444090090EF0A3EBF0900872
:10344E00F974C7F0A37402804DE9C39402501C892D
:10345E002175220074057821120B01E5215460FCC0
:10346E00EA4C90090EF0A3EBF0800CEA4440900970
:10347E000EF0A3EBF07900E99008F97003E48002F6
:10348E007463F0749129F582E4340DF583E09008AD
:10349E00FAF0E99008FEF090090EE0547FF07F02FA
:1034AE00020BEA74F8120B8412342E9008FB74800F
:1034BE00F07901123345900DE0E09008F7F07F01AE
:1034CE00020BEA74F5120B8490090EE0FAA2E0509A
:1034DE005590094EE0FC900DE1E025E0F8E433F95B
:1034EE00EC98E499C365D033502A901222782112B9
:1034FE00099A9005BB78211206156018EAC4135478
:10350E00075403F87402686003E8700890090EE02F
:10351E00441080559005BB74B8F0A3743EF0A374AC
:10352E0024F0A37403F09008FDE06003E014F09023
:10353E00090BE0602B90092EE06003E014F0900977
:10354E002DE06003E014F09008F7E014F0E0701046
:10355E007900123345900DE0E09008F7F0124CC060
:10356E00122EA490090EE054EFF0122B277F0402C6
:10357E000BEA74F5120B84124CC0901222782112B1
:10358E00099A9005BB7821120615600D7C0B7D0003
:10359E0079FF7AC57B0812D29D124E307900123413
:1035AE00B190092DE4F07F04020BEA74F5120B843E
:1035BE0074F8120B14AA31AB32123E73900B11E059
:1035CE00A2E1503090095DE0F8A3E04480F9900943
:1035DE005DE8F0A3E9F0900D3C782112098BE5210E
:1035EE005408700A790712D9B1790312D8C8900815
:1035FE00C3743CF07408120B2A7F04020BEA74F8B1
:10360E00120B841235B99008B3E4F0A3F0A3F0A323
:10361E00F012B39D7F01020BEA74F1120B8474E574
:10362E00120B14853182853283EAF0A3EBF0A3EC02
:10363E00F0A3EDF0853182853283120C417C007D42
:10364E0000740F120B72123A3A7404120B2AAA313A
:10365E00AB3212D94BE9FE75210375220078211287
:10366E000C2E7410120B60AC82AD837406120B72AA
:10367E0012D3487402120B2A7821120C2E740D12DA
:10368E000B7A740A120B60AA82AB8312D3487402AF
:10369E00120B2A752101EE7821120B017407120B01
:1036AE0060E521F0790A12DA2C7404120B72123FC3
:1036BE0026900B11E0C2E1F07404120B60E0F912D7
:1036CE00D3E2E99008C3F0853182853283782112E6
:1036DE00098B9011FE78211208BA9008B778211242
:1036EE0009AD782112084CA378211209AD853182DB
:1036FE008532831209E09008AF1209EC853182857C
:10370E003283782512098B9008C3E0F521E4F52267
:10371E00F523F524782579211208E49008B378254D
:10372E001209AD7AA07B0C12D6967AA47B0C12D617
:10373E00967AA87B0C12D69690095DE0F8A3E05419
:10374E007FF990095DE8F0A3E9F0741B120B2A7F54
:10375E0008020BEA7C037D007AAF7B0802376D749A
:10376E00F1120B8474EE120B14740A120B60ECF04F
:10377E00A3EDF0EAFEEBFF740E120B60E4F0A3F083
:10378E00A3F0A3F0740A120B60E05403F521740346
:10379E0065217013740C120B72123E73740D120BA2
:1037AE0060E0541FF08057EE4F7003023A287432D7
:1037BE002521F582E43412F583E493F521F9126F95
:1037CE0096E964017003023A28752200740A120BFE
:1037DE0060A3E0544078216011120C2EEEFCEFFD38
:1037EE00740E120B7212D348800F120C2EEEFCEFD9
:1037FE00FD740E120B72126E497402120B2A752191
:10380E00057522007821120C2E7CF17D13740E1298
:10381E000B72126F587402120B2AEA4B4C4D700B3E
:10382E007AFF7BFF7CFF7DFF023A307E00802A7498
:10383E000C120B60E5822EF582E43583F583E0F9F8
:10384E0012D3E2E9C0E07404120B60E5822EF58219
:10385E00E43583F583D0E0F00EEEC3940640D074C9
:10386E0005120B60E014FA7404120B60E0FC75F0A4
:10387E006DA4CCA8F028FDE02403F521E43400F576
:10388E002274027821120AE2EC2521F8ED3522F994
:10389E00E8FCE9FD853182853283ECF0A3EDF0A3DF
:1038AE00E4F0A3F0FE804374262EF582E43412F584
:1038BE0083E493F521E4F522F523F5248531828501
:1038CE00328378211208D17404120B60E054037015
:1038DE001874016E70139011CF782112099A8531E8
:1038EE008285328378211208D10EEEC39A40B885B4
:1038FE003182853283C082C0837406120B60E0F57C
:10390E0021E4F522F523F524D083D0827821120804
:10391E00A790123D782512099A782179251206E48E
:10392E007407120B60E0F525E4F526F527F52878E7
:10393E00217925120894901241782512099A78213E
:10394E0079251206E47408120B60E0F525E4F526DD
:10395E00F527F528782179251208949012417825BB
:10396E0012099A782179251206E47409120B60E087
:10397E00F525E4F526F527F5287821792512089402
:10398E0085318285328378211209AD853182853267
:10399E0083120C417C007D007408120B72123A3AAD
:1039AE007404120B2A7521067522007821120C2E32
:1039BE00740E120B7A7406120B72126F5874021276
:1039CE000B2AEA4B4C4D7052740A120B60E0540CE9
:1039DE00F52160117404652170167C3C7D00AA31BE
:1039EE00AB3212C9188531828532831209BC8032FE
:1039FE0074086521702485318285328378211209FD
:103A0E008B901245782512099A7821792512076430
:103A1E00AA21AB22AC23AD2480087A007B007C0067
:103A2E007D007412120B2A7F08020BEA74F2120B3D
:103A3E008474FA120B148A258B26ECFEEDFFEE54DD
:103A4E0003FCEE1313543F5403F52774036C600309
:103A5E00023AFDAA31AB32123E7374036527701C15
:103A6E007401120B60E0C4135407F8C0E074031223
:103A7E000B60D0E0F07407687002E4F07401120B72
:103A8E0060E0541FF0A827E828F8743528FAE434CB
:103A9E0012FB8A828B83A3EF54406029E493F521B5
:103AAE007522007821120C2E8A828B83E493F8748F
:103ABE0002120B60E58228FCE43583FDAA25AB26B5
:103ACE0012D3488027E493F5217522007821120C39
:103ADE002E8A828B83E493F87402120B60E582289F
:103AEE00FCE43583FDAA25AB26126E49023D5874BF
:103AFE0014120B601209E0E8494A4B7018A827E827
:103B0E0028F87900743628F582E43412F583E493AC
:103B1E00FC7D00802A9011FE782112099A741412ED
:103B2E000B6078211206157020A827E828F8743645
:103B3E0028F582E43412F583E493FC7D007999AA8A
:103B4E0025AB2612D29D023D5D7402120B60E4F08D
:103B5E007403120B60E4F07404120B60E4F074054D
:103B6E00120B60E4F0EC6005146010803C7C3C7D30
:103B7E00007414120B7212C918EAF07C3C7D0074AA
:103B8E0014120B7212C918EAC0E07404120B60D042
:103B9E00E0F07C187D007414120B7212C918EAC082
:103BAE00E07403120B60D0E0F07414120B60120973
:103BBE00E0E8494A4B7003023CB59011FE782112A1
:103BCE00099A7414120B6078211208D17CB57D0508
:103BDE007414120B7212C9187414120B607821121D
:103BEE00098BE521333354FC853182853283F0EA2B
:103BFE004B70117401120B607401F004120B60749F
:103C0E0001023CC5EA24FF1AEB34FFFB7414120BBD
:103C1E0060EAF0A3EBF0A3E4F0A3F07C6D7D0174F9
:103C2E0014120B7212C9187414120B607821120937
:103C3E008B853182853283E02521F0E054037005B7
:103C4E000AEA70010B7401120B60E4800FC3EA984C
:103C5E00FAEB9400FB7401120B60E004F0E0F52126
:103C6E00740165217010853182853283E0540370B2
:103C7E000575211D800F74262521F582E43412F579
:103C8E0083E493F521852182A882C3EA98EB940000
:103C9E0050BBEA04C0E07402120B60D0E0F0740175
:103CAE00120B60E0048010853182853283E4F0A32C
:103CBE00F07402120B60E4F075210085212385312A
:103CCE0082853283E5822523F582E43583F583E010
:103CDE00F912D3F0E9F00521E521C3940640DCA8E2
:103CEE0027E828F8743528F8E43412F9E8FAE9FBE5
:103CFE008A828B83A3EF54406029E493F5217522C9
:103D0E00007821120C2E8A828B83E493F8740212AF
:103D1E000B60E58228FCE43583FDAA25AB2612D381
:103D2E00488027E493F5217522007821120C2E8A03
:103D3E00828B83E493F87402120B60E58228FCE414
:103D4E003583FDAA25AB26126E497402120B2A7416
:103D5E0006120B2A7F07020BEA74F1120B8474FA17
:103D6E00120B147402120B60EAF0A3EBF0A3ECF04A
:103D7E00A3EDF07402120B60782112098B123762D8
:103D8E008A258B268C278D28782179251208E474B4
:103D9E0002120B601209BC123627901249782512B6
:103DAE00099A7402120B607825120692500479114A
:103DBE008002799112D8C88531828532837420F0C1
:103DCE00A3740DF07402120B60E4F0A3F0A3F0A341
:103DDE00F08071853182853283E0F8A3E0F5838827
:103DEE0082782512098BE52545264527452860282A
:103DFE0090124D78251206C1501E78257921120891
:103E0E00947825120C2A7404120B60E0FAA3E0FBDE
:103E1E0012D62B7404120B2A853182853283E0244C
:103E2E0004F8A3E03400F9853182853283E8F0A3EB
:103E3E00E9F09011CF782512099A7402120B60786E
:103E4E00251208D1901251782512099A7402120B7C
:103E5E006078251206925003023DE17406120B2A79
:103E6E007F08020BEA74F7120B8474F8120B14EA33
:103E7E00FEEBFF1253BA9002E1E085318285328368
:103E8E00F09002E2E0C0E07401120B60D0E0F0901E
:103E9E0002E3E0C0E07402120B60D0E0F09002E7A3
:103EAE00E0C0E07403120B60D0E0F09002E4E0C0DA
:103EBE00E07404120B60D0E0F09002E5E0C0E07414
:103ECE0005120B60D0E0F09002E6E0C0E07406123E
:103EDE000B60D0E0F07521037522007821120C2EB4
:103EEE007406120B60AC82AD83EEFAEFFB12D34870
:103EFE007402120B2A7821120C2E7402120B7AEE17
:103F0E002403FAE43FFB12D3487402120B2A7408FE
:103F1E00120B2A7F02020BEAC082C0838A828B8335
:103F2E00A3A3A3A3A3E09002DDF08A828B83A3A3B5
:103F3E00A3A3E09002DCF08A828B83A3A3A3E0907C
:103F4E0002DBF08A828B83A3A3E09002DAF08A82EE
:103F5E008B83A3E09002D9F08A828B83E09002D803
:103F6E00F01253FDD083D0822212473A023F7D7465
:103F7E00F7120B847C0080010CECC3941150468C1C
:103F8E002175220074027821120B0174552521F837
:103F9E0074123522F988828983E493FA740193FBB3
:103FAE00900B5AE06A7003A3E06B70CC8882898311
:103FBE00A3A3E49390026EF088828983A3A3A3E463
:103FCE009390026FF0ECC39411400A90026E740A43
:103FDE00F090026FF07F02020BEA74F1120B847AFA
:103FEE00F27B101241898A218B228C238D24900220
:103FFE00B578211206A29002B5782512098B500AC7
:10400E009002B9E02AC39525800BE525F42A04F821
:10401E009002B9E028F09002B578211209AD900215
:10402E00B9E0C313F8900270E028F09002B9E0A254
:10403E00E0E433F090026EE0F8900270E098402BCE
:10404E0090026EE0F5F0900270E084F9F5F09002C7
:10405E006EE0A4F8900270E098F0E9F5F090026F2F
:10406E00E0A4F890026CE028F0E4F07F08020BEA7E
:10407E0074F7120B8490027DE4F0A3F090027804A2
:10408E00F0900B5EE0F8A3E0F97AE87B03120A8960
:10409E00E8FCE9FD900B5CE0F8A3E0F97A647B00A4
:1040AE00120A898821EC88F0A4CCA8F089F0A42803
:1040BE00F88521F0EDA428FDEC2CFCED33FDECF899
:1040CE00EDF97AE87B03120A89E8FCE9FD900279A2
:1040DE00ECF0A3EDF0A3E4F0A3F0900274F0A3F0E3
:1040EE00A3F0A37402F0FF020BEAC082C083A28782
:1040FE0050317800790080060008E8700109C3E8A5
:10410E009409E9940040F178007900800508E87080
:10411E000109C3E8944CE99400505B902885E07047
:10412E00EC8053A28078005030790080060008E8B9
:10413E00700109C3E894F0E9940040F17800790029
:10414E00C3E89480E99407502D902885E0602708F5
:10415E00E870ED0980EA007801E860FA78007900ED
:10416E00800508E8700109C3E89402E9940050063E
:10417E00902885E070ECD083D0822274F1120B84EB
:10418E0090288474CCF0E4F02AF582E43BF583E0C9
:10419E001240F8902885E0600A7A007B007C007D52
:1041AE00008058902883E0F525E4F526F527F528BC
:1041BE0074087825120875902882E0F521E4F5221E
:1041CE00F523F524782579211209617408782512D2
:1041DE000875902881E0F5217825792112096174FE
:1041EE00087825120875902880E0F5217825792128
:1041FE00120961AA25AB26AC27AD287F08020BEA6F
:10420E0074F1120B84780090288474CCF0E4F09052
:10421E002885E0600908E8C3942140F3803BEA90CA
:10422E002880F0EBA3F0ECA3F0EDA3F0740F120BCB
:10423E0060E0F8A3E0F988828983E4F0D287A28750
:10424E0040070AEAC3941F40F5007800902885E0E5
:10425E00600B08E8C3942140F37900800279017F56
:10426E0008020BEA74F1120B84780090288474CC47
:10427E00F0E4F0902885E0600908E8C3942140F34B
:10428E00803AEA902880F0EBA3F0ECA3F0EDA3F0D7
:10429E00C287A28750070AEAC3941F40F5740F1213
:1042AE000B60E0F8A3E0F988828983E4F000F890CF
:1042BE002885E0600B08E8C3942140F37900800262
:1042CE0079017F08020BEA74F1120B8478009028B2
:1042DE008474CCF0E4F0902885E0600908E8C3947B
:1042EE002140F3802DEA902880F0EBA3F0ECA3F0B0
:1042FE00EDA3F0740F120B60E0F8A3E0F988828949
:10430E0083E4F000F8902885E0600B08E8C3942160
:10431E0040F37900800279017F08020BEAC082C067
:10432E0083902858E4F0A3F0A3F0A3F0A3F0A3F039
:10433E00902863F090286504F0E99028646003E407
:10434E008002740FF0D083D08222D2877800A287A9
:10435E00400708E8C3941540F52274F5120B84E962
:10436E00FFC28475217D7522287821120C2E9011A2
:10437E00D7782112099AAA21AB22AC23AD2412427E
:10438E00D57402120B2A7521787522287821120C09
:10439E002E9011D7782112099AAA21AB22AC23AD07
:1043AE00241242D57402120B2A7521F4752210784C
:1043BE0021120C2E90129D782112099AAA21AB225D
:1043CE00AC23AD241242D57402120B2A7521FA7554
:1043DE0022107821120C2E90129D782112099AAA81
:1043EE0021AB22AC23AD241242D57402120B2AEF5C
:1043FE007521EF75221078216008120C2E9012A1F3
:10440E008006120C2E9012A5782112099AAA21ABC1
:10441E0022AC23AD241242D57402120B2A7E0080E8
:10442E002B8E21E52124F0F521E43410F52278219C
:10443E00120C2E9011D7782112099AAA21AB22AC18
:10444E0023AD241242D57402120B2A0EEEC394042D
:10445E0040CF7E00802B8E21E52124F6F521E43419
:10446E0010F5227821120C2E9011D7782112099A6C
:10447E00AA21AB22AC23AD241242D57402120B2A10
:10448E000EEEC3940440CF75217D7522287821123B
:10449E000C2E9012A9782112099AAA21AB22AC23D4
:1044AE00AD241242D57402120B2A75217D75222875
:1044BE007821120C2E9012AD782112099AAA21ABF6
:1044CE0022AC23AD241242D57402120B2A75217D23
:1044DE007522287821120C2E9011D7782112099A64
:1044EE00AA21AB22AC23AD241242D57402120B2AA0
:1044FE007E00802B8E21E52124F0F521E43410F589
:10450E00227821120C2E9011D7782112099AAA2105
:10451E00AB22AC23AD241242D57402120B2A0EEE3E
:10452E00C3940440CF7E00802B8E21E52124F6F526
:10453E0021E43410F5227821120C2E9011D7782117
:10454E0012099AAA21AB22AC23AD241242D57402D1
:10455E00120B2A0EEEC3940440CF7521F57522106E
:10456E007821120C2E9011CF782112099AAA21AB24
:10457E0022AC23AD241242D57402120B2A7521FBF4
:10458E007522107821120C2E9011CF782112099AD3
:10459E00AA21AB22AC23AD241242D57402120B2AEF
:1045AE00EF7521787522287821602B120C2E90122F
:1045BE00B1782112099AAA21AB22AC23AD24124262
:1045CE00D57402120B2A75217E7522287821120CC1
:1045DE002E9012B58029120C2E9012B97821120944
:1045EE009AAA21AB22AC23AD241242D57402120B2F
:1045FE002A75217E7522287821120C2E9011D778DB
:10460E002112099AAA21AB22AC23AD241242D574F1
:10461E0002120B2A7521797522287821120C2E9000
:10462E0011D7782112099AAA21AB22AC23AD2412FC
:10463E0042D57402120B2A75217A7522287821121E
:10464E000C2E9012BD782112099AAA21AB22AC230E
:10465E00AD241242D57402120B2A75217D752228C3
:10466E007821120C2E901299782112099AAA21AB58
:10467E0022AC23AD241242D57402120B2A75217B73
:10468E007522287821120C2E9011D7782112099AB2
:10469E00AA21AB22AC23AD241242D57402120B2AEE
:1046AE0075217C7522287821120C2E9011D7782135
:1046BE0012099AAA21AB22AC23AD241242D5740260
:1046CE00120B2A9002737401F0900272E4F07F04D0
:1046DE00020BEA790012432B12435875CEA575CF03
:1046EE005A790012436875CEA575CF5A0246FD025F
:1046FE003F77C082C083900270E004F090026EE0BB
:10470E00F8900270E0C398401E90026EE0F890029E
:10471E0070E0C398F090026FE0F890026CE028F021
:10472E0090033FE04404F0D083D0822274F5120B44
:10473E00849002A5E064017521F475221078217031
:10474E0008120C2E900B648006120C2E900B601229
:10475E0009BC1242D57402120B2A7521FA78211265
:10476E000C2E900B601209BC1242D57402120B2A49
:10477E007521F57821120C2E900B681209BC12428D
:10478E00D57402120B2A7521FB7821120C2E900B78
:10479E00681209BC1242D57402120B2A7E008037B1
:1047AE008E82858221752200E52124E8F523E434EA
:1047BE0010F5247823120C2E74027821120B01743A
:1047CE00702521F582740B3522F5831209BC124235
:1047DE00D57402120B2A0EEEC3940740C39002A5A5
:1047EE00E0640170457521F47522107821120C2EAB
:1047FE00900B641209BC1242D57402120B2A752159
:10480E00EB7821120C2E900BA21209BC1242D57419
:10481E0002120B2A7521EC7821120C2E900BA61287
:10482E0009BC1242D57402120B2A75217B752228FF
:10483E007821120C2E900B8CE0FAE4FBFCFD124258
:10484E00D57402120B2A75217C7821120C2E900B36
:10485E008DE0FAE4FBFCFD1242D57402120B2A9095
:10486E000BAAE0902858F07F04020BEA74F7120BA3
:10487E008475210F7522007821120C2E7C357D1344
:10488E007A7F7B02126E497402120B2A900287E025
:10489E00F874096860077490686002E4F0790F7A22
:1048AE007F7B0212292790028EEAF0A3EBF07F02A3
:1048BE00020BEA222274F5120B8412556590122215
:1048CE00782112099A9005BB7821120615600B907B
:1048DE0008BFE4F0A3F0A3F0A3F09012C578211264
:1048EE00099A9008BF78211206156005123580804E
:1048FE0006124CC0124E30900AB57432F0A3740FEB
:10490E00F0900BF7E0646670091248C290091774B4
:10491E0021F012360C9008AF1209E09009421209EC
:10492E00EC9012C5782112099A9008BF78211206D0
:10493E001560229008BFE4F0A3F0A3F0A3F0900955
:10494E005DE0F8A3E054FDF990095DE8F0A3E9F00D
:10495E00790512DA2C1234D11255CC90090CE044A0
:10496E0008F0125D771264C79009337401F0900D50
:10497E003C782112098BE52254206027900D2412D9
:10498E0009E0E8494A4B60067A247B0D8010900DB1
:10499E00281209E0E8494A4B600C7A287B0D126414
:1049AE00F780031248C2900BF5E064016005752193
:1049BE00018003752100752200900961E0FAA3E0E1
:1049CE0054FDFB74097821120B01E5225402F9EA19
:1049DE00F8EB49F9900961E8F0A3E9F0900E10E0C8
:1049EE00A2E05012900969E0F8A3E04402F99009A0
:1049FE0069E8F0A3E9F0900909E0600312B39D1293
:104A0E00D9867A467B0912C99B900D3C78211209F2
:104A1E008BE521A2E0500312D89190090DE044409D
:104A2E00F07F04020BEAC082C08390090DE054C0EF
:104A3E00F9E470037440697024900908E4F0900959
:104A4E000DE04480F0900BF6E064337009A3E0644F
:104A5E006660031248C190090DE0547FF0D083D0F8
:104A6E008222C082C083900903E014F0900B11E003
:104A7E00A2E05007125968E0C2E0F0900911E0542C
:104A8E00EFF0D083D08222C082C083900909E4F077
:104A9E0090094EE0F8C394D25018E8C39415402202
:104AAE00900911E05440701AE04440F0A3E0440134
:104ABE00800FE024FEF0900912E054106004E054E0
:104ACE00EFF01234D1900952E06010E014F0E07073
:104ADE000A90090CE0440CF01276CD900912E054C5
:104AEE00026012900BF5E06401600A125B359009CA
:104AFE0012E054FDF0D083D082227901124C8B79D2
:104B0E00012274F5120B847901124C8B43A62053AB
:104B1E00A5DF53A4DF43A60853A5F753A4F7124C01
:104B2E00C0901222782112099A9005BB78211206A4
:104B3E0015700D7C0B7D0079FF7AC57B0812D29D16
:104B4E00124E3079017AFA7B00124C889008BB78AD
:104B5E002112098B782112084C9008B77821120681
:104B6E001560119008AFE4F0A37449F0A374D1F06E
:104B7E00A37412F07C0F7D007A4B7B0B12D17290D6
:104B8E00093274C8F0791412DA2C7F04020BEA741D
:104B9E00F5120B84124C89124F98900336E4F09064
:104BAE000337F09012C9782112099A9005BB78212B
:104BBE001206156027901222782112099A9005BBD1
:104BCE00782112061560157C907D057ABB7B051247
:104BDE00D1727C0F7D007A4B7B0B800E748F24BBC1
:104BEE00FC74FC3405FD7A017B0912D1729008BB6E
:104BFE00782112098B782112084C9008B77821126F
:104C0E00061560119008AFE4F0A37449F0A374D1B7
:104C1E00F0A37412F09002EEE4F0124B08E9600477
:104C2E007A0180027A0090090EE054FEF8A3E0F9B2
:104C3E00EA5401FAE84A90090EF0A3E9F079FF125E
:104C4E00DA2C90090EE0A2E05005124B10800312F0
:104C5E004C71799912DA2C900B15E4F0D2AF7F04D7
:104C6E00020BEA7900024C8BC082C08390090EE0E1
:104C7E00A2E0E433F9D083D08222222222024C8A8F
:104C8E00C082C0839028ACE0D2E2F0A3E0D2E2F082
:104C9E009028ACE0D2E1F0A3E0D2E1F0D083D08254
:104CAE0022C082C083900290EAF0A3EBF0D083D0B2
:104CBE008222C082C0839028B4E0440FF09028B8BE
:104CCE00E04403F09028BCE074FFF09028D5E04457
:104CDE003FF09028B5E054F0F09028B9E054FCF085
:104CEE009028BDE0E4F09028D6E054C0F0C2839046
:104CFE00285E7404F0902C1E7491F0A3E4F0A3745B
:104D0E00FFF0A3747CF0A3E4F0A3F0D083D0822252
:104D1E00C082C083124D43902C1FE4F0A3F0A3F089
:104D2E00A3F0A3F079051228FB902C1EE4F0D28399
:104D3E00D083D08222C082C0837C0B7900900290F7
:104D4E00E0FAA3E0FB12296F124D79D083D08222B4
:104D5E00C082C0837C0B79FF900290E0FAA3E0FB47
:104D6E0012296F124D79D083D08222C082C08390D7
:104D7E000290E0FAA3E0FB124D8DD083D08222C0C8
:104D8E0082C0838A828B83E0902C06F08A828B838A
:104D9E00A3E0902C07F08A828B83A3A3E0902C08CB
:104DAE00F08A828B83A3A3A3E0902C09F08A828BD6
:104DBE0083A3A3A3A3E0902C0AF08A828B83A3A3E0
:104DCE00A3A3A3E0902C0BF08A828B83A3A3A3A3AF
:104DDE00A3A3E0902C0DF08A828B83A3A3A3A3A39D
:104DEE00A3A3E0902C0EF08A828B83A3A3A3A3A38C
:104DFE00A3A3A3E0902C0FF08A828B83A3A3A3A37B
:104E0E00A3A3A3A3A3E0902C10F08A828B83A3A369
:104E1E00A3A3A3A3A3A3A3A3E0902C11F0D083D0AC
:104E2E008222C082C083900290E0FAA3E0FB124D72
:104E3E008DD083D08222024E47C082C083900293CF
:104E4E007404F0900297F090029404F0900299F09E
:104E5E00A3F090029DF0D083D08222C082C08390B6
:104E6E0028A8E4F0A3F0A3F09028ACF0A3F0A3F0F0
:104E7E009028C5F0A3F0A3F0A3F09028B074FFF033
:104E8E00A3E4F09028B4740FF0A3E4F09028B87463
:104E9E00FFF0A3E4F09028BC74FFF0A3E4F0902898
:104EAE00C074FFF0A3E4F09028D574FFF0A3E4F0F3
:104EBE009028D9F0A3F075A40075A50075A600532F
:104ECE00A4FE53A5FE53A6FE53ADFED083D0822280
:104EDE00438E085389F0438901758CEF758AFFD292
:104EEE008CD2A922C28E538EEF5389F7438910EAD2
:104EFE0075F044A4FAA8F075F044EBA428FB74FFF7
:104F0E00C39AF874FF9BF58DE8F58BD2AB22538EC6
:104F1E00DFC2C975CDF575CC54D2CAD2AD22780098
:104F2E00800108E8C3941440F92274F8120B84E946
:104F3E00FF7E008004124F2C0EEEC39F40F77F01C0
:104F4E00020BEA74F8120B84E9FEEAFF759096756F
:104F5E0097577905124F388E9674076E7005744008
:104F6E004FF5DF7905124F3875909675975679057E
:104F7E00124F387F01020BEAC082C083D2E990281B
:104F8E004BE0D2E6F0D083D08222C082C083902D37
:104F9E0000E4F0A3F0124E69124CC0124D5E125294
:104FAE0009124EDE124F1C124C8E7A007903124FEC
:104FBE0051124F86D083D08222C082C083E9FA7804
:104FCE0000C286C28574046A9028677007E054FC9C
:104FDE0044028003E054FCF0A3E4F0E5A3A2E04019
:104FEE000908E8C3943340F3800FD2807800A28082
:104FFE00400B08E8C3941540F5790080089002A58F
:10500E007404F07901D083D08222C082C083E9FA81
:10501E007800C286C28590286774C0F0A3E4F0E5DC
:10502E00A3A2E0400908E8C3943340F38025D28060
:10503E007800A280400908E8C3941540F5801474E6
:10504E00FF6A7013D2877800A287400B08E8C394DA
:10505E001540F57900801E90285FE4F0A37403F0EC
:10506E00A37420F0A374C4F09028667480F09002AC
:10507E00A57401F0F9D083D08222C082C083900340
:10508E0049E0C39405502F7CB97D0A7A497B0312FF
:10509E0050C99002D8E064057007900349740180EE
:1050AE0014E064076005E06408700B902863E06408
:1050BE008160037481F0D083D0822274F1120B844C
:1050CE0074FA120B147404120B60ECF0A3EDF0EAF8
:1050DE00FEEBFF8E828F83E0F814600F14602414B1
:1050EE00606C1470030251FB0251FF90286374929E
:1050FE00F0900338E0F8A3E0F99002A9E8F0A3E9F4
:10510E000251F39002A9E0F8A3E0F9900338E068A9
:10511E007003A3E06970030251FF900338C082C090
:10512E00839002A9E0F8A3E0F9D083D082E0C3987F
:10513E00FAA3E099FB12DF8AC3EA9403EB9400A270
:10514E00D265D03340088E828F83E0C333F07ACE9F
:10515E007B10124189EAF8EBF9ECFAEDFB8531820E
:10516E008532831209EC7403120B60E0C394814004
:10517E0023853182853283782112098B782112089A
:10518E004C9011CF78211208BA85318285328378FE
:10519E00211209AD853182853283782112098B74F3
:1051AE0010782112085C9011DB782512099A78216B
:1051BE0079251206E490134478211208BA90134808
:1051CE00782512099A782179251207647404120B36
:1051DE0060E0F8A3E0F5838882E521F0A3E522F0F4
:1051EE009028637481F08E828F83E08001E8C33350
:1051FE00F07406120B2A7F08020BEAC082C083905D
:10520E0002487402F0F912B4DE790012298ED083AE
:10521E00D08222C082C0839028A8E0C2E1F09028FC
:10522E00AAE0C2E1F09028ACE0D2E4F0A3E0C2E440
:10523E00F0124D1E9028C9E4F0A3F09028CDF0A3F3
:10524E00F09028B0E04433F0A3E054CCF09028ADB9
:10525E00E0C2E1F09028ACE0D2E1F09028A8E0D2D4
:10526E00E1F0A3E0C2E1F0A3E0C2E1F09028A8E0F3
:10527E00D2E2F0A3E0C2E2F09028A8E0D2E3F0A3DD
:10528E00E0C2E3F043A40153A5FE9028ACE0D2E4C3
:10529E00F0A3E0C2E4F09028ACE0C2E3F0A3E0C2D9
:1052AE00E3F09028C77404F0D083D0822275A80052
:1052BE0075E80075910022C082C083902820E4F02A
:1052CE00902828F0902830F0902A05F0D083D082D4
:1052DE002274F5120B84902864E4F075217D7522FA
:1052EE00287821120C2E9011D7782112099AAA2112
:1052FE00AB22AC23AD241242D57402120B2A7521B7
:10530E00787522287821120C2E9011D77821120947
:10531E009AAA21AB22AC23AD241242D57402120BF1
:10532E002A7800800108E8C3941440F9D2847F04DF
:10533E00020BEAC082C08343A60243A604E5A1A2E3
:10534E00E04021C280A28040FCE5A1A2E040157899
:10535E0000800108E8C3940340F9902867E4F0E068
:10536E0070FDD2817900D083D08222C082C083C2E8
:10537E0086C285E5A1A2E0402CE5A1A2E04026C2AE
:10538E0080A28040FCE5A1A2E0401A7800800108CE
:10539E00E8C3940340F9902867E4F0E070FDD281F1
:1053AE007905124F387900D083D08222C082C08313
:1053BE0074FF120B14E5DA853182853283F079059C
:1053CE00124F38E59A9002E1F0E59BA3F0E59CA31D
:1053DE00F0E59E9002E7F0E59D9002E4F0E59FA3D4
:1053EE00F0E593A3F07401120B2AD083D08222C071
:1053FE0082C0837590967597577905124F38900233
:10540E00DDE0F5939002DCE0F59F9002DBE0F59D88
:10541E009002DAE0F59C9002D9E0F59B9002D8E07C
:10542E00F59A9002DEE0F59E7905124F387590964A
:10543E007597567905124F38D083D0822274F112A7
:10544E000B84E9FE7590967597577902124F387551
:10545E0094007595008E25E4F526F527F528901312
:10546E004C782112099A782579211206E49011FEC2
:10547E0078251208BA852521852622852723852899
:10548E00247410782112085CE521F5DBE526F5DCA5
:10549E00E525F5DD7902124F38759096759756759C
:1054AE0021077522007821120C2E7CA27D1D7AD840
:1054BE007B02126E497402120B2A1253FD7F0802F0
:1054CE000BEA74F1120B8474F8120B147521087523
:1054DE0022007821120C2E1270FAEAFCEBFD7402F7
:1054EE00120B72126E497402120B2A7404120B60A4
:1054FE00782512098B853182853283782512091021
:10550E00900DD4E0FA752100752300752400A2E0F9
:10551E00500B853182853283782112098BEAA2E104
:10552E00500B85318285328378211208F8EAA2E287
:10553E00500778217925120894EAA2E350077821C2
:10554E0079251208E4AA21AB22AC23AD24740812EB
:10555E000B2A7F08020BEA74F5120B84900C1C7850
:10556E002112098B9007AFE0F8A3E0C8241CF58246
:10557E00E438F58378211208F890096F7821120922
:10558E00AD90096F782112098B9011D778211206F0
:10559E0058900973501078211209ADA3E4F0A3F0CE
:1055AE00A3F0A3F08013E4F0A3F0A3F0A3F078210E
:1055BE0012083BA378211209AD7F04020BEA74F1A5
:1055CE00120B84900D3C782112098B900BF5E06440
:1055DE0001700302571DE52254406004D2F0800290
:1055EE00C2F0A2F0E433F521900973782512098BED
:1055FE00900C0C78251206924036A378251206924E
:10560E0050057521018029E5254526452745286049
:10561E0005752102801A900D44782112098B90098C
:10562E0077782112069250057521038003752104A7
:10563E00900910E0543FFAA3E054FEFB752200746B
:10564E00067821120B01A821E5225401F9EA48FA45
:10565E00EB49FB900910EAF0A3EBF0900961E0FC36
:10566E00A3E054EFFD900961ECF0A3EDF0900D3C3A
:10567E00782112098B8521258522269012127821F8
:10568E00120937E5214522452345246010ECF8ED3B
:10569E004410F9900961E8F0A3E9F0803C8A218B6F
:1056AE002274067821120AF2E5215407FAC39404F3
:1056BE00502F852622E52254207026E525540460BD
:1056CE0018EAC39403501A90096F782112098B902F
:1056DE000D4C7821120643500890090FE0440280C9
:1056EE000690090FE054FDF090095DE0F8A3E0F993
:1056FE009009771209D4EC4D4E4F6005E944408075
:10570E0003E954BFF990095DE8F0A3E902579FE55C
:10571E002254409009106014E0543FF8A3E054FE68
:10572E00F9E84440900910F0A3E98008E0543FF0F6
:10573E00A3E054FEF0900961E0FAA3E054EFFB9071
:10574E000961EAF0A3EBF0900D3C782512098B85E8
:10575E00252185262285272385282490121278213B
:10576E00120937E5214522452345246010EAF8EB5E
:10577E004410F9900961E8F0A3E9F0800EE5265493
:10578E0020600890090FE054FD800690090FE04458
:10579E0002F0900961E0FAA3E0FB90090FE05402D9
:1057AE00602DEA54BFF8EBF9900961E8F0A3E9F037
:1057BE00900BF5E06401600E900D3C782112098B80
:1057CE00E521540270177A207B0D12D67F800EEAE7
:1057DE004440F8EBF9900961E8F0A3E9F090091064
:1057EE00E0F521A3E0F52274067821120AF2E521F4
:1057FE005407FA900961E0F8A3E0F9EA6005E8447D
:10580E00808003E8547F900961F0A3E9F0EAC39425
:10581E00035005798612D8C87F08020BEA74F51278
:10582E000B84900D6EE0F8A3E0F9E849602B900D23
:10583E00581209E0E8494A4B601F900A5B1209BCF6
:10584E0012DFA68A218B228C238D24900D5878216D
:10585E0012069250047900800279017F04020BEA4D
:10586E0074F5120B848A828B83782112098BE521C1
:10587E004522452345246026901390C082C0839014
:10588E0008AF78211208F89011FE78211208BAD0CC
:10589E0083D08278211206C15004790080027901EA
:1058AE007F04020BEA74F1120B84900BF7E064662E
:1058BE00605D12582BE97057900D201209E0E849EF
:1058CE004A4B70419008AFC082C083900D6EE0F5D8
:1058DE0021A3E0F522E4F523F52490124178251258
:1058EE00099A782179251206E4D083D08278211284
:1058FE0008A77821120C2A7A207B0D12D62B74045D
:10590E00120B2A80507A207B0D12586EE970469049
:10591E000CF6E0F52160379008AFC082C083E4F545
:10592E0022F523F524901394782512099A7821797B
:10593E00251206E4D083D08278211208A77821128E
:10594E000C2A7A287B0D12D62B7404120B2A7A207D
:10595E007B0D12D67F7F08020BEAC082C0831255E0
:10596E00CC90090FE054026007798212D8C88003E8
:10597E001258B3D083D0822274F1120B8474A01209
:10598E000B147408120B60E4F0A3F0A3F0A3F085DF
:10599E003182853283F0A3F0A3F0A3F0752103F5D5
:1059AE00227821120C2E9007AFE0F8A3E0F5838841
:1059BE0082E075F003A4F8A9F074A628FC742739C8
:1059CE00FD740A120B60AA82AB8312B8AE74021277
:1059DE000B2A1209E07404120B601209EC75213CBB
:1059EE007821120C2E7C667D287426120B7212B84A
:1059FE00AE7402120B2A79187424120B72126FC82D
:105A0E00E97003025B0E79001254D08A218B228C2E
:105A1E00238D24900D3C782512098BE5255480703A
:105A2E0005900C988003900C9C78211208F8901128
:105A3E00D77821120658400C752100752200752367
:105A4E00007524007525187526007825120C2E7405
:105A5E0026120B7A740E120B72126E497402120B0E
:105A6E002A7A0080010A8A82AE82EAC394065041E5
:105A7E008E2575260074027825120B01740C120BFC
:105A8E0060E5822525FCE5833526FD8C828D8378A5
:105A9E002512098B782579211206824014EA60C5F9
:105AAE00EC24FCF582ED34FFF58378251206924046
:105ABE00B4EAF97AFF7B0C12D65B752103752200CE
:105ACE007821120C2EEE75F003A4FEAFF0747E2E2C
:105ADE00FC74283FFD7402120B7212B8AE740212DF
:105AEE000B2A853182853283782112098B74081234
:105AFE000B6078211208D1900912E04440F080101A
:105B0E00900912E054BFF079007AFF7B0C12D65B3D
:105B1E00790CAC31AD327A007B0D12702C746012A0
:105B2E000B2A7F08020BEA74F1120B8474FC120B21
:105B3E0014900910E0F521A3E0F5227406782112E5
:105B4E000AF2E5215407FE1255CC900910E0F5211A
:105B5E00A3E0F52274067821120AF2E5215407F823
:105B6E00C394045003025C1A900D3C1209E0853177
:105B7E00828532831209EC85318285328378211237
:105B8E00098BE522541070319007AFE0F8A3E0C8FE
:105B9E002410F582E438F583782112098B9011D305
:105BAE00782512099A78217925120764E52545266C
:105BBE00452745286003025C5585318285328378FE
:105BCE002112098B9013987821120974AA21AB2205
:105BDE00AC23AD2412D928900D3C782112098B905C
:105BEE0012127821120937E52145224523452470EA
:105BFE0056900AF374FFF0A3F0A3F0A3F012D6C4EC
:105C0E001258B390090FE054FDF0803BEE686037F8
:105C1E00E8C394024031900D3C782112098B901309
:105C2E009C7821120937E52145224523452470121F
:105C3E00900AF374FFF0A3F0A3F0A3F012D6C412EF
:105C4E0058B3790112D8C890095EE054406018909C
:105C5E000D3C782112098BE5215440700A79061209
:105C6E00D8C8790912D9B17404120B2A7F08020B15
:105C7E00EA74F5120B847A507B1312D0F57A6F7B8F
:105C8E000312C99B79027A6F7B0312751090037B06
:105C9E00782112098B900C9878211208F89003AF96
:105CAE0078211209AD79037AAF7B03127510900338
:105CBE007B120C417A987B0C12D62B7404120B2A91
:105CCE007F04020BEA74F5120B84125C7F900D3C7C
:105CDE00782112098BE521548070031259867F04B6
:105CEE00020BEA74F7120B8474F7120B14853182CF
:105CFE008532837401F07404120B60E4F0FE8001AF
:105D0E000EEEC394045056752103752200782112AD
:105D1E000C2EEE75F003A4F8A9F0749328FC7428E9
:105D2E0039FD7403120B60AA82AB8312B8AE7402F3
:105D3E00120B2A7C017D00AA31AB3212376DEAF8C4
:105D4E00EBF9ECFAEDFB7405120B601209EC74051D
:105D5E00120B7212D400E970A779008002790174D7
:105D6E0009120B2A7F02020BEA74F5120B8474F4EB
:105D7E00120B14AA31AB3212C99B79001254D07493
:105D8E0004120B601209C8125CF1E9900D3C7821E7
:105D9E00605612098BE52154807003025E6E740406
:105DAE00120B601209E07408120B601209EC900CD1
:105DBE009C782112098B7404120B60782112091041
:105DCE007904AA31AB32127510798712D8C8125CD9
:105DDE007F853182853283120C417AA47B0C12D6D8
:105DEE002B7404120B2A806412098BE521548070E7
:105DFE002890090FE04480F0790712D8C8125C7F12
:105E0E00853182853283120C417AA47B0C12D62BFB
:105E1E007404120B2A74048035900912E054046045
:105E2E003F7404120B601209E07408120B60120921
:105E3E00EC900C9C782112098B7404120B60782163
:105E4E001209107904AA31AB321275107408120BB4
:105E5E0060120C417A9C7B0C12D62B7404120B2A06
:105E6E00900912E054FBF0740C120B2A7F04020B03
:105E7E00EAC082C083E9F8900DD8E0F9C3940540DA
:105E8E00047A048002E9FAE86005EAC398500479BE
:105E9E0000800474FF28F9D083D0822274F5120B8F
:105EAE0084900961E0FAA3E0FB900D3C7821120981
:105EBE008B9013A07821120937E521452245234501
:105ECE00246005EA44208003EA54DFF8EBF99009D8
:105EDE0061E8F0A3E9F0900961E0FAA3E0FB900D10
:105EEE003C782112098B90120E7821120937E52188
:105EFE004522452345246005EA44018003EA54FE09
:105F0E00F8EBF9900961E8F0A3E9F07F04020BEADF
:105F1E0074F3120B847442120B1475252875260C1B
:105F2E007A4A7B0912C99B7E0002600075210C75AE
:105F3E0022007821120C2E7C937D287418120B727D
:105F4E0012B8AE7402120B2A7821120C2E7CCF7D61
:105F5E0028740C120B7212B8AE7402120B2A78212E
:105F6E00120C2E740C120B7A7418120B72126F58CC
:105F7E007402120B2AEA4B4C4D600A900912E0444F
:105F8E0004F0125D777821120C2E7C937D28740C10
:105F9E00120B7212BA6A7402120B2A75213C782106
:105FAE00120C2E7CA27D287484120B7212B8AE7461
:105FBE0002120B2A7821120C2E7C667D2874841214
:105FCE000B7212BA6A7402120B2A74122EF912D8BC
:105FDE00C874036E7003125D77AA25AB2612D67FA6
:105FEE0074052EF912D6DFE5252404F52550020599
:105FFE00260EEEC3940440030260AB8525828526EF
:10600E0083782112098BE52145224523452460D74B
:10601E009008AF782112069240CDEEC39402504004
:10602E0074122EF9900D3C75210075220075230413
:10603E00752400EE78211208757821120924E521C5
:10604E004522452345246004748049F912D8C8902E
:10605E00090EE0540260829009217408F0025FE795
:10606E0074026E6003025F3A75216075220078211A
:10607E00120C2E7C067D287424120B7212B8AE748C
