:020000040000FA
:0600000002060002372E8B
:03000B0002374B6E
:030013000237535E
:03001B0002377039
:03002B0002379603
:03003B000237F297
:030043000238067A
:03004B000238B9BF
:0300530002397FF0
:03005B000239FF68
:03006300023A4519
:1001000000002110422063308440A550C660E77093
:10011000088129914AA16BB18CC1ADD1CEE1EFF13B
:100120003112100273325222B5529442F772D662E3
:10013000399318837BB35AA3BDD39CC3FFF3DEE38B
:100140006224433420040114E664C774A444855433
:100150006AA54BB528850995EEE5CFF5ACC58DD5DB
:100160005336722611163006D776F6669556B44683
:100170005BB77AA719973887DFF7FEE79DD7BCC72B
:10018000C448E5588668A7784008611802282338D3
:10019000CCC9EDD98EE9AFF9488969990AA92BB97B
:1001A000F55AD44AB77A966A711A500A333A122A23
:1001B000FDDBDCCBBFFB9EEB799B588B3BBB1AABCB
:1001C000A66C877CE44CC55C222C033C600C411C73
:1001D000AEED8FFDECCDCDDD2AAD0BBD688D499D1B
:1001E000977EB66ED55EF44E133E322E511E700EC3
:1001F0009FFFBEEFDDDFFCCF1BBF3AAF599F788F6B
:100200008891A981CAB1EBA10CD12DC14EF16FE14A
:100210008010A100C230E320045025404670676082
:10022000B9839893FBA3DAB33DC31CD37FE35EF39A
:10023000B1029012F322D2323542145277625672D2
:10024000EAB5CBA5A89589856EF54FE52CD50DC5EA
:10025000E234C324A0148104667447642454054422
:10026000DBA7FAB79987B8975FE77EF71DC73CD73A
:10027000D326F2369106B016576676761546345672
:100280004CD96DC90EF92FE9C899E9898AB9ABA98A
:100290004458654806782768C018E1088238A328C2
:1002A0007DCB5CDB3FEB1EFBF98BD89BBBAB9ABBDA
:1002B000754A545A376A167AF10AD01AB32A923A12
:1002C0002EFD0FED6CDD4DCDAABD8BADE89DC98D2A
:1002D000267C076C645C454CA23C832CE01CC10C62
:1002E0001FEF3EFF5DCF7CDF9BAFBABFD98FF89F7A
:1002F000176E367E554E745E932EB23ED10EF01EB2
:1003000000010203040506070809AAAAAAAAAAAAC4
:100310000A0B0C0D0E0F10111213AAAAAAAAAAAA50
:100320001415161718191A1B1C1DAAAAAAAAAAAADC
:100330001E1F2021222324252627AAAAAAAAAAAA68
:1003400028292A2B2C2D2E2F3031AAAAAAAAAAAAF4
:1003500032333435363738393A3BAAAAAAAAAAAA80
:100360003C3D3E3F404142434445AAAAAAAAAAAA0C
:10037000464748494A4B4C4D4E4FAAAAAAAAAAAA98
:1003800050515253545556575859AAAAAAAAAAAA24
:0A0390005A5B5C5D5E5F60616263B2
:10039C0000010203040506070809101112131415B5
:1003AC001617181920212223242526272829303115
:1003BC003233343536373839404142434445464769
:1003CC0048495051525354555657585960616263BD
:1003DC00646566676869707172737475767778791D
:1003EC008081828384858687888990919293949565
:1003FC0096979899FFFFFFFFFFFFFFFFFFFFFFFF9F
:10040C00FFFFFFFFFFFFFFFFFFFFFFFFFFFFFFFFF0
:10041C00FFFFFFFFFFFFFFFFFFFFFFFFFFFFFFFFE0
:10042C00FFFFFFFFFFFFFFFFFFFFFFFFFFFFFFFFD0
:10043C00FFFFFFFFFFFFFFFFFFFFFFFFFFFFFFFFC0
:10044C00FFFFFFFFFFFFFFFFFFFFFFFFFFFFFFFFB0
:10045C00FFFFFFFFFFFFFFFFFFFFFFFFFFFFFFFFA0
:10046C00FFFFFFFFFFFFFFFFFFFFFFFFFFFFFFFF90
:10047C00FFFFFFFFFFFFFFFFFFFFFFFFFFFFFFFF80
:10048C00FFFFFFFFFFFFFFFFFFFFFFFFFFFFFFFF70
:10049C00FFFFFFFFFFFFFFFFFFFFFFFFFFFFFFFF60
:1004AC00FFFFFFFFFFFFFFFFFFFFFFFFFFFFFFFF50
:1004BC00FFFFFFFFFFFFFFFFFFFFFFFFFFFFFFFF40
:1004CC00FFFFFFFFFFFFFFFFFFFFFFFFFFFFFFFF30
:1004DC00FFFFFFFFFFFFFFFFFFFFFFFFFFFFFFFF20
:1004EC00FFFFFFFFFFFFFFFFFFFFFFFFFFFFFFFF10
:1004FC00FFFFFFFFFFFFFFFFFFFFFFFFFFFFFFFF00
:10050C00FFFFFFFFFFFFFFFFFFFFFFFFFFFFFFFFEF
:10051C00FFFFFFFFFFFFFFFFFFFFFFFFFFFFFFFFDF
:10052C00FFFFFFFFFFFFFFFFFFFFFFFFFFFFFFFFCF
:10053C00FFFFFFFFFFFFFFFFFFFFFFFFFFFFFFFFBF
:10054C00FFFFFFFFFFFFFFFFFFFFFFFFFFFFFFFFAF
:10055C00FFFFFFFFFFFFFFFFFFFFFFFFFFFFFFFF9F
:10056C00FFFFFFFFFFFFFFFFFFFFFFFFFFFFFFFF8F
:10057C00FFFFFFFFFFFFFFFFFFFFFFFFFFFFFFFF7F
:10058C00FFFFFFFFFFFFFFFFFFFFFFFFFFFFFFFF6F
:10059C00FFFFFFFFFFFFFFFFFFFFFFFFFFFFFFFF5F
:1005AC00FFFFFFFFFFFFFFFFFFFFFFFFFFFFFFFF4F
:1005BC00FFFFFFFFFFFFFFFFFFFFFFFFFFFFFFFF3F
:1005CC00FFFFFFFFFFFFFFFFFFFFFFFFFFFFFFFF2F
:1005DC00FFFFFFFFFFFFFFFFFFFFFFFFFFFFFFFF1F
:1005EC00FFFFFFFFFFFFFFFFFFFFFFFFFFFFFFFF0F
:1005FC00FFFFFFFF75D00075818F753131753203A8
:10060C0075A001023EF1F5F0E5A0C394015403C0BE
:10061C00E0E5A0C3940154FC45F0C32401F5A0E42B
:10062C0073D0E0F5F0E5A0C3940154FC45F0C3246D
:10063C0001F5A022D083D082E5A0C394015403C05D
:10064C00E0E493C0E0740193C0E07402935403F5AA
:10065C00F0E5A0C3940154FC45F02401F5A022E47C
:10066C009003317858790C8002F0A3D8FCD9FA7A2F
:10067C00887B0E9006A1780379018015E493A3ADD5
:10068C0082AE838A828B83F0A3AA82AB838D828E07
:10069C0083D8E9D9E7970C12064092D40012064091
:1006AC00C0D40012064087D500120640B1D6001205
:1006BC00064051D7001206406ED7001206408FD765
:1006CC0000120640CED7001206400ED8001206408B
:1006DC0056D80012064090D800120640B1D800122D
:1006EC00064018D9001206408CD900120640B2D927
:1006FC0000120640A3FE00120640D8FE001206406F
:10070C0071F70012064013F8001206402DF8001283
:10071C00064076F800120640DBF900120640ECF9B0
:10072C000012064055FA0012064058FA0012064014
:10073C00DDFA001206409AFB00120640D3FB0012B1
:10074C000640EEFB00120640F2FC0012064051FD82
:10075C00001206409296021206405697021206406C
:10076C008F9702120640C99702120640299802126E
:10077C000640B69802120640DA9802120640179903
:10078C0002120640CA99021206401E9E0212064030
:10079C00059F02120640889F02120640A89F021273
:1007AC00064057A00212064090A0021206401FFEFF
:1007BC0000120640A8A2001206401FA30012064019
:1007CC003AA30012064071A40012064087A400123E
:1007DC00064054A70012064095AA00120640A1AB91
:1007EC0000120640B1AD0012064099AE0012064050
:1007FC00CBF800120640DCF80012064047F9001254
:10080C0006400080001206407A80001206400D81DE
:10081C0000120640978100120640C6810012064065
:10082C002A82001206408D820012064019830012A3
:10083C0006405183001206408083001206409283CA
:10084C00001206400B8700120640C38700120640B8
:10085C00E9870012064024880012064053880012D3
:10086C000640618800120640378E001206400B8F3E
:10087C00001206404B9000120640B9900012064040
:10088C002491001206404E91001206406BFF00129C
:10089C000640E6D90012064029DB0012064059DB5F
:1008AC000012064087DB00120640B3DB0012064044
:1008BC00B6DB00120640EBDB0012064054DC0012E3
:1008CC00064051DE0012064076DE0012064047EA72
:1008DC0000120640A4EA001206403BEB0012064050
:1008EC0057EC0012064067EC0012064089EC00122F
:1008FC0006408CEC001206408FEC0012064092EC85
:10090C000012064095EC0012064007ED001206405E
:10091C002BF3001206402EF30012064081F3001256
:10092C000640A8F300120640C1F300120640DAF3A9
:10093C0000120640ECF30012064091F4001206403F
:10094C00FDCE001206406ECF0012064084CF00127E
:10095C000640B0CF00120640C2CF00120640D0CFE6
:10096C0000120640E9CF001206401ED000120640CD
:10097C0032D00012064078D000120640E9D00012A6
:10098C0006403CD100120640B6D100120640D9D127
:10099C00001206406AD20012064083D200120640B2
:1009AC009FD20012064001D30012064041D3001220
:1009BC00064096D300120640DBD3001206402BD41F
:1009CC00001206400080021206409580021206407A
:1009DC009880021206409B8002120640E0800212B0
:1009EC000640E38002120640F180021206406B873B
:1009FC00021206406E8702120640C287021206409F
:100A0C004888021206405089021206407D89021263
:100A1C000640F189021206409D8F02120640C48FD7
:100A2C00021206405F9102120640509202120640DA
:100A3C006992021206405CC20012064019C80012EC
:100A4C000640A3F40012064044F500120640DFF500
:100A5C0000120640696000120640B96000120640A0
:100A6C0003610012064023610012064098610012D7
:100A7C0006406E6200120640D96200120640DE6229
:100A8C00001206403D6400120640A56500120640A7
:100A9C00D866001206401D680012064083690012D9
:100AAC000640B36B00120640D06B00120640CF6CB0
:100ABC0000120640CA6D00120640B16E00120640CC
:100ACC00C06F001206403071001206400D72001209
:100ADC000640A57300120640B2760012064067BAB3
:100AEC000012064080BA00120640C2BA001206403C
:100AFC0005BB0012064047BB0012064085BB001226
:100B0C000640EDBB0012064056BC0012064094BCD9
:100B1C0000120640C8BC0012064004BD001206407C
:100B2C00B9BD00120640D4BD0012064012BE001220
:100B3C00064057BE00120640B2BE00120640F9BE77
:100B4C00001206400ABF0012064082BF0012064087
:100B5C00C8BF0012064051C00012064029C1001245
:100B6C0006407BC100120640D3C10012064059C298
:100B7C0000120640BD400012064021410012064002
:100B8C00B04100120640E9410012064057440012E1
:100B9C000640104600120640564600120640894791
:100BAC0000120640A74700120640B9470012064043
:100BBC00FB470012064048480012064074480012D9
:100BCC000640B64800120640CE48001206404C497A
:100BDC00001206407949001206407C49001206407A
:100BEC00924A00120640954A00120640D04A001262
:100BFC000640E24A00120640F44A00120640064B38
:100C0C0000120640184B001206405C4C00120640C5
:100C1C005F4C00120640714C00120640744C0012DE
:100C2C000640014D00120640544D00120640664D20
:100C3C0000120640CC4D00120640214E0012064018
:100C4C00D54E00120640BF5E00120640FCC80012D2
:100C5C00064029C9001206406CC9001206409CC906
:100C6C0000120640D2C9001206402ACA00120640E1
:100C7C0071CA00120640D5CA00120640E3CB00121E
:100C8C000640B0CC00120640B6CE00120640CBE2B5
:100C9C000012064008E30012064040E30012064032
:100CAC00A9E300120640FDE300120640F6E4001230
:100CBC0006403BE50012064062E50012064098E54E
:100CCC0000120640A9E5001206401CED0012064079
:100CDC003DED001206405BED00120640BBED00122C
:100CEC000640DEED0012064046EE001206400DEF07
:100CFC000012064044F100120640C9F100120640F1
:100D0C0060F20012064097F2001206403FEF00120C
:100D1C000640C1EF00120640F8EF0012064083F0C7
:100D2C0000120640BAF000120640ECDE001206403B
:100D3C0008DF0012064031DF00120640D0DF00123F
:100D4C00064078E000120640B9E000120640C2E10D
:100D5C0000120640BD7600120640FF7600120640D7
:100D6C00157700120640237700120640DF78001238
:100D7C000640667900120640A17A00120640667B96
:100D8C0000120640C37B00120640D77B00120640BF
:100D9C003E7C00120640B87C00120640CC7C00124F
:100DAC000640167D001206403A7D00120640347E45
:100DBC0000120640A37E00120640087F0012064077
:100DCC006E7F00120640AA7F001206409BE60012BE
:100DDC00064058E700120640EDE80012064072E9A2
:100DEC00001206400AEA0012064049FC00120640B6
:100DFC009DFC00120640B9FC00120640FBAE00122E
:100E0C00064044AF0012064087AF00120640B9B04E
:100E1C0000120640CFB0001206400BB10012064083
:100E2C0030B1001206405AB1001206409DB10012BA
:100E3C0006403DB2001206401BB30012064073B3CD
:100E4C000012064052B40012064012B500120640C1
:100E5C005DB500120640C2B50012064066B900121C
:100E6C000640D6B900120640F0B9001206400ABA84
:100E7C000012064016FF0012064026FF0012064024
:100E8C00789100120640E191001206401692001271
:100E9C000640999200120640D99200120640F79231
:100EAC00001206402E930012064065930012064075
:100EBC00959300120640809700120640FF9900128D
:100ECC000640449A00120640549A00120640789A42
:100EDC0000120640899A001206409A9A00120640A7
:100EEC00C99A00120640DA9A00120640B09B001212
:100EFC000640EA9B00120640249C001206405D9CB2
:100F0C00001206409B9C00120640B89C0012064042
:100F1C00D59C00120640F79C00120640079D00125B
:100F2C000640199D00120640629D00120640389E34
:100F3C0000120640EB9E00120640FF9E0012064077
:100F4C00289F001206404E9F00120640679F001219
:100F5C000640809F00120640AE9F0012064011A072
:100F6C000012064043A00012064032A100120640B7
:100F7C00BEA100120640C1A10012064021A200121F
:100F8C0006405CA2001206405FA20012064062A25C
:100F9C0000120640E0FA0012064033FB0012064035
:100FAC0047FB0012064057FB001206409BA502129D
:100FBC0006403CA9021206400BF6001206403DF614
:100FCC00001206404FF60012064068F6001206406A
:100FDC00DAF60012064051F70012064067F70012CD
:100FEC0006406CF700120640A1A002120640D8A0E1
:100FFC00021206407BA10212064087A20212064092
:10100C00D6A302120640FFA302120640D1A402127C
:10101C000640E2A402120640F2A4021206408CFD25
:10102C0000120640A7FD00120640E6FD0012064025
:09103C00D77F00120640B2FF004C
:0D11C0004431343346393832315330330076
:1011CE0001E76670100809E766700A0809E766709D
:1011DE00040809E76622E066701008A3E066700A4C
:1011EE0008A3E066700408A3E06622E49366701319
:1011FE000874019366700C08740293667005087487
:10120E0003936622C3E7960809E7960809E796084E
:10121E0009E796A2D265D03322C3E09608A3E096E2
:10122E0008A3E09608A3E096A2D265D03322C0218F
:10123E00C3E49396F5210874019396422108740233
:10124E009396422108740393964221A2D265D0331D
:10125E00E5217001D3D02122C3E7960809E796084D
:10126E0009E7960809E79622C3E09608A3E09608D8
:10127E00A3E09608A3E09622C021C3E096F52108CC
:10128E00A3E096422108A3E096422108A3E09645EA
:10129E00217001D3D02122C021C3E49396F52108F9
:1012AE0074019396422108740293964221087403A6
:1012BE00939645217001D3D02122080808EAC0E098
:1012CE00EBC0E086F0E7A4FA180986F0E7A42AFA44
:1012DE00180986F0E7A42AFA180986F0E7A42AFA74
:1012EE001986F0E7A4FBE5F02AFA190886F0E7A4C0
:1012FE002BFBE5F03AFA190886F0E7A42BFBE5F094
:10130E003AFA18180986F0E7A4C5F02BFBE43AFA6E
:10131E001908E7C5F0C6A426F6E5F03BFBE43AFA59
:10132E001886F0E7A4F6E5F00826F6E43B08F6E4A6
:10133E003A08F6D0E0FBD0E0FA22E4CFC0E0E4CEEB
:10134E00C0E0E4CDC0E0E4CCC0E075F020E626F6C7
:10135E0008E633F608E633F608E633F6181818EC06
:10136E0033FCED33FDEE33FEEF33FFC3EC9709EDA7
:10137E009709EE9709EF97191919400FFFEC97FC93
:10138E0009ED97FD09EE97FE191906D5F0BFECF79A
:10139E0009EDF709EEF709EFF7191919D0E0FCD0AE
:1013AE00E0FDD0E0FED0E0FF2212141F1818181234
:1013BE00134812140E1919192212140E191919089C
:1013CE000808E618181820E7E012134812141F1820
:1013DE00181822090909E719191920E7DC08080865
:1013EE00E618181820E70302134812141F181818CD
:1013FE0012134812141F18181812140E1919192244
:10140E00E4C397F709E497F709E497F709E497F728
:10141E0022E4C396F608E496F608E496F608E496F7
:10142E00F622C6F4C608C6F4C608C6F4C608C6F444
:10143E00C6226016080808C6C313C618C613C618F7
:10144E00C613C618C613C6D5E0EA227009080808E6
:10145E00226016181818C6C333C608C633C608C687
:10146E0033C608C633C6D5E0EA22E627F60809E6F3
:10147E0037F60809E637F60809E637F622E026F6CB
:10148E0008A3E036F608A3E036F608A3E036F62207
:10149E00E49326F60874019336F60874029336F632
:1014AE000874039336F622E026F008A3E036F0081F
:1014BE00A3E036F008A3E036F022C3E697F608095B
:1014CE00E697F60809E697F60809E697F622C3E0CE
:1014DE00C696F608A3E0C696F608A3E0C696F608EA
:1014EE00A3E0C696F622C3E096F008A3E096F008B5
:1014FE00A3E096F008A3E096F022E657F60809E678
:10150E0057F60809E657F60809E657F622E056F6AA
:10151E0008A3E056F608A3E056F608A3E056F62216
:10152E00E49356F60874019356F60874029356F631
:10153E000874039356F622E056F008A3E056F0081E
:10154E00A3E056F008A3E056F022E647F60809E6B7
:10155E0047F60809E647F60809E647F622E49346F9
:10156E00F60874019346F60874029346F60874035F
:10157E009346F622E046F008A3E046F008A3E046C4
:10158E00F008A3E046F022E0F608A3E0F608A3E098
:10159E00F608A3E0F622E493F608740193F60874B5
:1015AE000293F608740393F622E6F008A3E6F00819
:1015BE00A3E6F008A3E6F022E0FAA3E0FBA3E0FC2A
:1015CE00A3E0FD22EAF0A3EBF0A3ECF0A3EDF022F2
:1015DE00E0FCA3E0FDA3E0FEA3E0FF22ECF0A3ED10
:1015EE00F0A3EEF0A3EFF022E0F8A3E0F9A3E0FA07
:1015FE00A3E0FB22E8F0A3E9F0A3EAF0A3EBF022CC
:10160E00CAC0E0E6F0A308DAFAD0E0FA22CAC0E0D7
:10161E00E0A3C582CCC582C583CDC583F0A3C582A8
:10162E00CCC582C583CDC583DAE6D0E0CA22CAC056
:10163E00E0E493A3C582CCC582C583CDC583F0A358
:10164E00C582CCC582C583CDC583DAE5D0E0CA227A
:10165E00C58224FDC582C58334FFC58322C3E498A9
:10166E00F8E499F91216AC8026C3E49AFAE49BFBCF
:10167E00E920E7E91216ACE498F8E499F922C3E4FC
:10168E0098F8E499F91216ACE498F8E499F9C3E4E1
:10169E009AFAE49BFB22EB20E7CFE920E7E0B900C2
:1016AE0010BB0008E88AF084F8AAF022E4FBC8FA1E
:1016BE0022EB70227B10C833C8C933C9335007C31D
:1016CE009AC3DBF280069A50012ADBEAC833F4C8CB
:1016DE00C933F4C9FA2275F008E4C833C8C933C94E
:1016EE0033C99AC99B5004C92AC93BD5F0ECFBC833
:1016FE0033F4C8E4C9FA22600D08C6A2E713C6186F
:10170E00C613C6D5E0F322600C08C6C313C618C6AE
:10171E0013C6D5E0F422700422600D18C6C333C67A
:10172E0008C633C6D5E0F41822253110AF08F531BE
:10173E00400C15328008F53140021532D2AF22002E
:10174E00C0D0253110AF08F531500C05328008F5A8
:10175E003150020532D2AFD0D0222531F58210AFF2
:10176E0008F531400C15328008F53140021532D2A1
:10177E00AF853283222531F582E43532F583222579
:10178E0031F8E43532F9222531FAE43532FB2225DF
:10179E0031FCE43532FD22E4732531C582C0E0E52B
:1017AE003234FFC583C0E0E531C3958224F810AF13
:1017BE00088583328582318008858332858231D2D5
:1017CE00AFCEF0A3E520F0A37821E608F0A3DEFA71
:1017DE00EFF0A3E58124FAF8E608F0A3E608F0A3FB
:1017EE00E608F0A30808E608F0A3E608F0A31581C2
:1017FE001581D0E0FED0E0F8158115811581E8C085
:10180E00E0EEC0E0222531C582C0E0E53234FFC5EE
:10181E0083C0E0E531C3958224F910AF0885833289
:10182E008582318008858332858231D2AFCEF0A396
:10183E00E520F0A37821E608F0A3DEFAEFF0A3E5A9
:10184E008124FBF8E608F0A3E608F0A30808E608F2
:10185E00F0A3E608F0A315811581D0E0FED0E0F8E4
:10186E0015811581E8C0E0EEC0E022853283853116
:10187E0082E0A3FEE0A3F5207821E0A3F608DFFACC
:10188E00E0A3FFE0A3C0E0E0A3C0E0E0A3C0E0E07F
:10189E00A3C0E0E0A3C0E010AF088582318583329B
:1018AE008008858231858332D2AFD083D082020602
:1018BE002D853283853182E0A3FEE0A3F5207821C9
:1018CE00E0A3F608DFFAE0A3FFE0A3C0E0E0A3C0C8
:1018DE00E0E0A3C0E0E0A3C0E010AF088582318550
:1018EE0083328008858231858332D2AFD083D08215
:1018FE002274048006740280027401C0E0F40412A3
:10190E001768D0E012160E22740480047402800050
:10191E00CCC0E0EDC0E0E531C39CCCAD3250011D32
:10192E0010AF068C318D3280068C318D32D2AF12D3
:10193E00161BD0E0FDD0E0FC2274048000CCC0E089
:10194E00EDC0E0E531C39CCCAD3250011D10AF06A9
:10195E008C318D3280068C318D32D2AF12163CD046
:10196E00E0FDD0E0FC22D083D082ECC0E0EDC0E000
:10197E00E493A3FCE493A3FDED4C600D1219C0ECAF
:10198E0024FFFCED34FFFD80EFE493A3FCE493A36E
:10199E00FDED4C600D1219FFEC24FFFCED34FFFD44
:1019AE0080EFD0E0FDD0E0FCE493A3C0E0E493C070
:1019BE00E022C0E0C3E49396087401939618400F9A
:1019CE00E49366700808740193661870007019A38A
:1019DE00A3C3E49396087401939618A3A3400DD065
:1019EE00E0D0E0D0E00219B0A3A3A3A3A3A3D0E05C
:1019FE0022C0E0C0F088F0E493667008087401938A
:101A0E0066187000A8F0A3A3700BD0F0D0E0D0E061
:101A1E00D0E00219B0A3A3D0F0D0E022001F0AFA42
:101A2E0000E1F50564000000000000000A0000005F
:101A3E003F065B4F666D7D077F6F777C395E7971F0
:101A4E000006060606FFFFFFFF00029000FF0000E3
:101A5E00000F000000000008000000400000000120
:101A6E00001FF1000407060606B83E24031F1C1FC4
:101A7E001E1F1E1F1F1E1F1E1F060503000603032B
:101A8E000005000416322C040100000018000000AE
:101A9E003C0000008051010080D6E301815101001D
:101AAE0007000000C4FFFFFFE02E0C0110270A0103
:101ABE00401F080188130501B80B0301D00702016E
:101ACE00E8030A0A0019400A800C200A6009180A65
:101ADE004006100AB0040C0A2003080AF401050A95
:101AEE009001040AC800020A6400010AC000000046
:101AFE0000020202040206040A040E041204160472
:101B0E001A041E04220426042A042E043201330170
:101B1E00340438043C044004440448044C0450018A
:101B2E005102D96204019C3C1D91BC749388C8007B
:101B3E0000000800000013000000050000005F0018
:101B4E0000007000000010000000FA000000FC0011
:101B5E000000F8000000300000000002000000004D
:101B6E008000A9ECFFFF63000000941100007D15BA
:101B7E000000E8030000670BE5096B0BF709EAF4B8
:101B8E008F04B004D859881354627C0113C4704971
:101B9E0064C1FE0013C4704991E2A9EFE83A64EF04
:101BAE0063041303F2388C064184320600000000F1
:101BBE0000000000000031F4840031F48400B29083
:101BCE00625F99999D3899999D38F2388C064184B7
:101BDE003206121111111111110405050204051A14
:101BEE003C1E00000505143C0502500000000000DC
:101BFE00020000000000000000CD13000047170097
:101C0E0000004006000420200001440400024404A9
:101C1E000000440400114404001244040010440463
:101C2E0000214404002244040020440400314404F2
:101C3E000032440400304404004144040042440491
:101C4E000040440480E30A0202030CE70A01030485
:101C5E000501A30200000000800D0000000000043A
:101C6E000060FAFFFFA005000000320000A30B0089
:101C7E00001A00000012000000320000001F0000D9
:101C8E0000E02B3F0010B33C0091572C00C90ACF47
:101C9E000AC30ADB0A014230030157AA020152327B
:101CAE00022F3F210D0A2F3FAAAAAAAAAAAAAAAAC0
:101CBE00210D0A2F4C554E303C313E4C554E313095
:101CCE00063030AA0D0A0150300228290360015057
:101CDE00AA0228AAAAAAAAAAAAAAAA290301564708
:101CEE0002434C522D30300360E51FEB1F002000E5
:101CFE00F31FEB1F012000F91FEB1F022000FF1F37
:101D0E00EB1F0020010720EB1F0120010F20EB1F0E
:101D1E000220011720EB1F0320011F20EB1F0420C0
:101D2E00012720EB1F0520012F20EB1F0620013776
:101D3E0020EB1F0720013F20EB1F0820014720EB5F
:101D4E001F0920014F20EB1F0A20015720EB1F0B0C
:101D5E0020015F20EB1F0C20016720EB1F0D2001DF
:101D6E006F20EB1F0E20017720EB1F0F20017F202D
:101D7E00EB1F1020018720EB1F1120018F20EB1F7E
:101D8E001220019720EB1F1320019F20EB1F142020
:101D9E0001A720EB1F152001AF20EB1F162001B766
:101DAE0020EB1F172001BF20EB1F182001C720EBCF
:101DBE001F192001CF20EB1F1A2001D720EB1F1B6C
:101DCE002001E020EB1F1C2001E920EB1F1D20014C
:101DDE00F220EB1F1E2001FB20EB1F1F2001042110
:101DEE00EB1F2020010D21EB1F2120011621EB1FDF
:101DFE002220011F21EB1F23200128212E2100204C
:101E0E000230212E2110200238212E2120200240C6
:101E1E00212E2130200248212E2140200250212E39
:101E2E002150200258212E2160200260212E217087
:101E3E00200268212E2180200270212E2190200266
:101E4E0078212E21A0200281212E21B020028A216C
:101E5E002E21C0200293212E21FE200399212E2116
:101E6E000020039F212E21012003A7212E210220D5
:101E7E0003AF212E21032003B7212E21042003BFFF
:101E8E00212E21052003C7212E21062003CF212E2E
:101E9E0021072003D7212E21082003DF212E21091F
:101EAE002003E7212E210A2003F0212E210B2003EF
:101EBE00F9212E210C200302222E210020040922BA
:101ECE002E2101200413222E210220041D222E2158
:101EDE0003200427222E2104200431222E21052046
:101EEE00043B222E2106200445222E210720044FDA
:101EFE00222E2108200459222E2109200463222E8D
:101F0E00210A20046E222E2100600574222E21014A
:101F1E0060057C222E2102600584222E210360059D
:101F2E008C22922204600598222E210520059F22E4
:101F3E002E21062005A6222E21072005AD22922253
:101F4E00086005B4222E21094005BC222E210A402C
:101F5E0005C4222E210B2005CB222E210C6005D18B
:101F6E00222E210D6005D7222E210E6005DD222E98
:101F7E00210F6005E3222E21106005E9222E21118A
:101F8E006005EF222E21016006F5222E210060064B
:101F9E00FB222E21026006012308230120070C23B9
:101FAE00132302200717232E210040081E232E2163
:101FBE00014009870A8D0A930A9F0AB70AA50A9952
:101FCE000AB10AAB0AE10A490A4004A70B4002A96A
:101FDE000B4002AB0B4002312E382E30002A6B57CD
:101FEE0068290D0A00312E382E3100312E382E324E
:101FFE0000312E382E302A3100312E382E312A3132
:10200E0000312E382E322A3100312E382E302A321F
:10201E0000312E382E312A3200312E382E322A320D
:10202E0000312E382E302A3300312E382E312A33FD
:10203E0000312E382E322A3300312E382E302A34EB
:10204E0000312E382E312A3400312E382E322A34D9
:10205E0000312E382E302A3500312E382E312A35C9
:10206E0000312E382E322A3500312E382E302A36B7
:10207E0000312E382E312A3600312E382E322A36A5
:10208E0000312E382E302A3700312E382E312A3795
:10209E0000312E382E322A3700312E382E302A3883
:1020AE0000312E382E312A3800312E382E322A3871
:1020BE0000312E382E302A3900312E382E312A3961
:1020CE0000312E382E322A3900312E382E302A3158
:1020DE003000312E382E312A313000312E382E324A
:1020EE002A313000312E382E302A313100312E383F
:1020FE002E312A313100312E382E322A3131003133
:10210E002E382E302A313200312E382E312A3132ED
:10211E0000312E382E322A313200312E362E30003A
:10212E002900312E362E302A3100312E362E302A0D
:10213E003200312E362E302A3300312E362E302AF2
:10214E003400312E362E302A3500312E362E302ADE
:10215E003600312E362E302A3700312E362E302ACA
:10216E003800312E362E302A3900312E362E302AB6
:10217E00313000312E362E302A313100312E362EAE
:10218E00302A31320039362E37300039362E37317B
:10219E000039362E37312A310039362E37312A3270
:1021AE000039362E37312A330039362E37312A345C
:1021BE000039362E37312A350039362E37312A3648
:1021CE000039362E37312A370039362E37312A3834
:1021DE000039362E37312A390039362E37312A3129
:1021EE00300039362E37312A31310039362E37311B
:1021FE002A31320039362E372E310039362E373706
:10220E002E312A310039362E37372E312A32003907
:10221E00362E37372E312A330039362E37372E31B8
:10222E002A340039362E37372E312A350039362EDC
:10223E0037372E312A360039362E37372E312A3798
:10224E000039362E37372E312A380039362E3737A9
:10225E002E312A390039362E37372E312A313000B9
:10226E00302E302E300039362E39372E3100393699
:10227E002E39372E320039362E39372E3300302E86
:10228E00382E30002A6D696E290039362E312E33E4
:10229E000039362E322E350039362E322E32003996
:1022AE00362E382E300039362E39362E310039364C
:1022BE002E39362E320039362E362E310039362E44
:1022CE0035300039362E35310039362E353200395B
:1022DE00362E36300039362E36310039362E36321D
:1022EE0000302E392E3100302E392E3200302E395C
:1022FE002E350033322E372E30002A562900333138
:10230E002E372E30002A41290046462E302E300020
:10231E0046462E302E310000000000000000000066
:10232E0000010D3003000000110300FFFFFF7F00CE
:10233E00100000FFFFFF039999999999990048475A
:10234E004000484FC008070602120004110901039D
:10235E00100520480400BF480440244814412C486E
:10236E0011412A4811C1393902F7586C2222638370
:10237E0087223E3E638387223E213D3D929191848A
:10238E0091912D2D5E605F6C1515092222637F7869
:10239E00780281327878028163747878028132749F
:1023AE0078788E8E022E423B362B1F1F01010005C0
:1023BE000413030000B807623A00007C23030201F5
:1023CE0000050333030000B807623A0000822303BE
:1023DE00050100800A00000000D434000000000057
:1023EE00000306010705053B0300006B0A64440069
:1023FE000000000308010009053B030000730A6496
:10240E0044000000000109010009053B03000077AC
:10241E000A644400000000010C010005073303802C
:10242E0000B807623A00000000030F010041012BC3
:10243E000380007F0B6944000000000301020405C5
:10244E000131020000180CCD44000000000305020B
:10245E0000050A310200001C0CCD440000000003F0
:10246E000702000501310200001E0CCD44000000E1
:10247E000001080200050110000000C70B2000013A
:10248E00C0000003010300050111000000D40B631E
:10249E000001C0000003020300050111000000232B
:1024AE000C140005C0000003030300050111000019
:1024BE0000210C020000C0000003040300050111FE
:1024CE00000000220C040000C000000305030005FC
:1024DE000111000000D50B630001C00000030603CC
:1024EE0007092319000000570A3F420F8800000316
:1024FE00080300050111000000240C1E0005C00099
:10250E000003010400058613030000490A5F44001E
:10251E0000000003020400298613030000430A5F33
:10252E004400008A230303040005A012000000D615
:10253E000B0000000000000304040780010101806D
:10254E0000A32BD2440000000003090400801301F5
:10255E000100019D2BE55E0000B023030B040080FB
:10256E008A02010000A82BE55E00000000030C04A7
:10257E0000808A02010000122CE55E0000000003BC
:10258E000D04008090020100001C2CE55E0000008E
:10259E0000030E04002886130300003D0A5F44006A
:1025AE00008D23030F0400050B12000000F60B0034
:1025BE000000000000030105078002040000005E19
:1025CE00080000000000000308050080040400005D
:1025DE0000830B000000000000030106000501301F
:1025EE00020000170CD7440000000003010700058D
:1025FE000110020000D10BB54100000000030307DB
:10260E0000050110020000D20BB5410000000003CE
:10261E00050700050110020000D30BB541000000B4
:10262E0000030108000501300200001F0C2D4500BB
:10263E0000000003020800050131020000200C2DED
:10264E004500000000030109060501100200000DFF
:10265E000C32450000000003010A000504130200BD
:10266E0000A30BBA5E0000000003020A05050A1162
:10267E00000000130C3C0001C0000003010B030519
:10268E008217020000A70B37450000992303010CA7
:10269E0005050430038000BB0BE44100000000037D
:1026AE00011100050111020000C80B3C450000009D
:1026BE000003041100050812000000C90B00000001
:1026CE00000000030112000505130300009F0B64B8
:1026DE004400000000030212000501110200000672
:1026EE000C964500000000030312000502130200C1
:1026FE0000AD0BCC4500009923030412008084002A
:10270E00000000090C000000000000030114000589
:10271E000211000000AF0B0F27008000000302140F
:10272E00000523110000009B0B3F420F80000003A9
:10273E00031400050211000000B10B0F27008000EA
:10274E000003041405050111000000070C630000CE
:10275E00800000030115008002060100008F0A5A56
:10276E00440000000003031500000C020300008F5C
:10277E000A5A4400000000031FF10080840001008B
:10278E0000CA06BA4600000000032FF10001B9028C
:10279E00020000792B7A4700000000033FF1000190
:1027AE00FA02020000B22B7A4700000000035FF12C
:1027BE000001A002020000302C7A47000000000346
:1027CE006FF10001D7020200009D097F4700000053
:1027DE0000037FF100019002020000F6097F47001E
:1027EE0000000003AFF100800400000000AC060002
:1027FE0000000000000301F300018102020000301E
:10280E002CFD5C000000000302F3000186020300B1
:10281E00000000315D000000000303F3000186029A
:10282E00030000F609E45D000000000304F300015C
:10283E00021100000055090000000000000305F31E
:10284E0000018402020000370AB55E00000000039A
:10285E0006F300410832038000250C825F00000061
:10286E00000307F300019302020000830C196000BD
:10287E000000000300F419018402030000830C829F
:10288E003C000000000300F50001810203000083FC
:10289E000C683D000000000378F5900184020300EF
:1028AE0000830C973D000000000300F6FE01840239
:1028BE00030000830CF33D000000000300F7FE014F
:1028CE008402030000830CF33D00000000030100AE
:1028DE00008023010006003009000000007423036D
:1028EE000200008002010000005109000000007685
:1028FE0023030700008002010000015B09000000B5
:10290E000092230308000080020100000257090014
:10291E000000009823030A0000800401008000D705
:10292E000A000000000000032200238002010100C3
:10293E00006F098447000000000301080005021122
:10294E00000000B70BE8030080000003020800053A
:10295E000111000000040C63000AC0000003011006
:10296E0000052311000300970B3F420F8000000368
:10297E00021000050111000000050C63000080002C
:10298E00000301F100050211000000B90B900100D7
:10299E00809023030AF100050411000000D70A0FEE
:1029AE00270080902303004840C000484040044860
:1029BE00040008483C410C483C410040FF0F0848C9
:1029CE003C410C483C410040FFBF00484040044899
:1029DE0008800048040004484040084840C00048B1
:1029EE0040400448048000484040044805800400EC
:1029FE0040400048404008003C410C003C41004033
:102A0E00FF0F04483C4108483C410040FF8F0048FE
:102A1E0040400448098004004040004840401000F7
:102A2E00010008003C410C003C4104483C41084870
:102A3E003CC1040040400048404008003C410C00AE
:102A4E003CC100483C4108483C4110483C411848B4
:102A5E003C4120483CC100483841004838410140C3
:102A6E00FF910011005C0CEF0B030130000F6AFBAD
:102A7E000B03033000100E010C030430001110077D
:102A8E000C0305300012000D0C03063000135E130C
:102A9E000C03073000140B190C0308300015001F2F
:102AAE000C03093000170B190C030C3000181025FD
:102ABE000C030D30004C3C2B0C031230000B0F316D
:102ACE000C030036005B1D370C030037005A143D13
:102ADE000C0300A0001D06F50B0301A0001E10073D
:102AEE000C03637C7B7B777E6363637A7E7E0C0450
:102AFE0008028132747C7B7B028132747C7B777E10
:102B0E007E028132747C7B7A7E7E333345666861C9
:102B1E00605F5F4638384B385E66605F67674B397B
:102B2E005E66605F67672D0A0A00FFFF00000030D7
:102B3E000065000000285C8F029999991990D003C6
:102B4E00000C000000005900590023013101120051
:102B5E00990006000602030601040602050003059D
:102B6E00010101090714031C0400004550534F4E88
:102B7E00313146204F6374203230203230313920CB
:102B8E0031373A31303A353800000000600057B026
:102B9E0004B900FC083200E8031444445A5958584A
:102BAE00582D4D0044445A595858582D4D00000088
:102BBE000000000000000000000000000000000007
:102BCE000000000044445A595858582D4D0000003A
:102BDE0000000000000000000000000000000000E7
:102BEE000000000058585858000000000000000077
:102BFE0000000000000000000000000000000000C7
:102C0E0000000000323031362D58582D5858444CA3
:102C1E002F543634352D323030372D313400770184
:102C2E003355006400000078020014122501AAAA90
:102C3E00AAAAAAAAAAAA000000000000000000008A
:102C4E0000000B074A012C01B6034512E0029B035C
:102C5E009B0300591744445A59585858432D4D4414
:102C6E00445A59585858432D4D000000000000009A
:102C7E000000000000000000000000000000004402
:102C8E00445A59585858432D4D000000000000007A
:102C9E0000000000000000000000000000000044E2
:102CAE00445A5958585843000044445A5958585891
:102CBE0043000000000000000000000000000000C3
:102CCE0000000000000000000044445A59585858B3
:102CDE0043000000000000000000000000000000A3
:102CEE0000000000000000000044445A5958585893
:102CFE002D4D0044445A595858582D4D000000008F
:102D0E0000000000000000000000000000000000B5
:102D1E0000000044445A595858582D4D00000000E8
:102D2E000000000000000000000000000000000095
:102D3E0000000044445A5958585800000044445A60
:102D4E005958585800000000000000000000000014
:102D5E000000000000000000000000000044445A83
:102D6E0059585858000000000000000000000000F4
:102D7E0000000000000000000000000000341200FF
:102D8E0040000000400000000000000000000000B5
:102D9E0000000000400000000000000000000000E5
:102DAE000000000000000000000000000000000015
:102DBE000000000000000000000000000000000005
:102DCE0000000000000000000000000000000000F5
:102DDE000000000060000000000000000000000085
:102DEE000000000000000000000000000000007263
:102DFE0000B1014DE8FFFF6CFDFFFF000000000079
:102E0E0000000000000000000000000000000000B4
:102E1E0000000000000000770133550000000000A4
:102E2E00000000000000000001111111111111F439
:102E3E0001000064000000010000000100000020FD
:102E4E004E00000000000000000000000000000026
:102E5E0000000000000000000000000000801100D3
:102E6E0000001F0000000000000000000000000035
:102E7E000000000000000000000000000000000044
:102E8E000000000000000000000000000000000034
:102E9E000000000000000000000000000000000024
:102EAE000000000000000000000000000000000014
:102EBE000000000000000000000000000000000004
:102ECE000000004088A0004088A0004088A00000BC
:102EDE0000000000000000000000000000000000E4
:102EEE0000000000000000000000000000000000D4
:102EFE0000000000000000000000000000000000C4
:102F0E0000000000000000000000000000000000B3
:102F1E0000000000000000010000000000000000A2
:102F2E000000000000000000000000000000000093
:102F3E000000000000000000000000000000000083
:102F4E000000000000000000000000000000000073
:102F5E000000000000000000000000000000000063
:102F6E0010000800000000E8030000FFE0F505C8AF
:102F7E00000000000000002C000000307500000072
:102F8E0049D11200000101010099999999000000A0
:102F9E0000A00500000000E803040100000000028C
:102FAE005634120478563414000004100000000247
:102FBE0000040808050A00000000000000000000E0
:102FCE0000000000000000000000000000000000F3
:102FDE0000000000000000000000000000000000E3
:102FEE00003C3C3C3C0A3C1E1E999912000F838308
:102FFE008303830F0F0F0F05020208040000007FEA
:10300E000102040505FFFFFFFFFFFFFFFF000000A9
:10301E0000000000000000000000000000000000A2
:10302E000000000000000000000000000000000092
:10303E000000000000000000000000000000000082
:10304E000000000000000000000000000000000072
:10305E000000000000000000000000000000000062
:10306E000000000000000000000000000000000052
:10307E00000000000000161102120C120C120C12AD
:10308E000C120C120C120C120C120C120C120C1242
:10309E000C120C1102120C120C120C120C120C123D
:1030AE000C120C120C120C120C120C120C120C88AC
:1030BE001300241300C012005C1200000000000078
:1030CE0000000000000000000000000000000000F2
:1030DE0000000000000000000000000000000000E2
:1030EE0000000000000000000000000000000000D2
:1030FE0000000000000000000000000000000000C2
:10310E000000000000000000000000000000008829
:10311E001300241300C012005C1200000000000017
:10312E000000000000000000000000000000000091
:10313E000000000000000000000000000000000081
:10314E000000000000000000000000000000000071
:10315E000000000000000000000000000000000061
:10316E000000000000000000000000000000000150
:10317E00008216032D8443015A82700387849D8436
:10318E009D849D849D849D849D849D0000000000EF
:10319E000000000000000000000000000000000021
:1031AE000000000000000000000000000000000011
:1031BE000000000000000000999999999999999939
:1031CE0099999999000000BE051246843F05690041
:1031DE0040BE0340000000000002FA029000000012
:1031EE000290000000000000000000000000061227
:1031FE000101000400020100040020008002000012
:10320E000290000000000B00000000000000000013
:10321E0000000000000000000000000000000000A0
:10322E000000000000000000000000000000000090
:10323E000000000000000000000000000000000080
:10324E000000000000000000000000000000000070
:10325E000000000000000000000000000000000060
:10326E000000000000000000000000000000000050
:10327E000000000000000000000000000000000040
:10328E000000000000000101000400020100040023
:10329E0020008002000002900000000000000001EB
:1032AE00000000000E040004010E040004000204DD
:1032BE0000040102040004000001010200000102EA
:1032CE0002000001030200010B00040009040004C7
:1032DE000002008002000214000400031400040027
:1032EE0000000000000000000000000000000000D0
:1032FE0000000000000000000000000000000000C0
:10330E0000000000000000000000000000000000AF
:10331E000000000000000000000000000508000092
:10332E000000000001000000000200000000030089
:10333E00000000040000000000000000000000007B
:10334E00000000000000000000000000000000006F
:10335E00000000000000000000000000000000005F
:10336E00000000000000000000000000000000004F
:10337E00000000000000000000000000000000003F
:10338E00000000000000000000000000000000002F
:10339E00000000000000000000000000000000001F
:1033AE00000000000000000000000000000000000F
:1033BE0000000000010100040002010004000001F1
:1033CE0003020000020302000001010200000102DC
:1033DE000200010080020000000000000101000454
:1033EE0000020100040000010102000001020200BF
:1033FE0000010302000001060200000000000000B0
:10340E0000000000000000000000000000000000AE
:10341E00000000000000000000000000000000009E
:10342E00000000000000000000000000000000008E
:10343E00000000000000000000000000000000007E
:10344E00000000000000000000001FF1000407064D
:10345E0006060002900015222D3E7F8286898A1074
:10346E00110B315C645D65AE020000AF020000B16D
:10347E0002B302B502050404090903039494797D8D
:10348E007D7981817985851C1C5B5B019393B702E5
:10349E00BA02BD02C002C202C402BB027C7B7BDE4A
:1034AE000104800006030300050004FFFFFFFFFF79
:1034BE009999999999996162636465660000000013
:1034CE00000000000000805E666861605F673F6B11
:1034DE006D5958526C4C46484F4E4D47403A3C43FE
:1034EE0042413B342A2C3736352B241E20272625E5
:1034FE001F1812141B1A19130C06080F0E0D07496C
:10350E0044454B51504A00000000010000000100EC
:10351E00030002000000070040000C00000007033B
:10352E000400020047040F030800040047042F03A1
:10353E003000020047048F03300002004704EF03FF
:10354E003000030047047F04300002004704DF040C
:10355E00380002003F044F050C0002007704670597
:10356E0010000A00000007060C0014007704F7068E
:10357E0010001400AF04370830000A000000170ACC
:10358E0010000A009F04B70A0C000A0000002F0B5F
:10359E000C000A000000A70B28000A000000370DDF
:1035AE0028000A000000C70E0C000A0000003F0FA2
:1035BE000C000A000000B70F18000A000000A71048
:1035CE000C000A0000001F110C000A0000009711E9
:1035DE0018001400830477130C001400770467148A
:1035EE000C001400BF04571504001400D802A715D0
:1035FE0004000500D802BB150C0005000000F715ED
:10360E00040002000000C6100200960204007102BF
:10361E000400F202040001440400024404001144B8
:10362E0004001244040021440400224404003144E6
:10363E00040032440400414404004244048000006B
:10364E0033000144040002440480DE0104000144FE
:10365E00040002440400240302003D030300F202AE
:10366E000300D7020280000033008F0304000144E0
:10367E0004000244048000003300C211040001441F
:10368E000400024404807102040001440400024458
:10369E00048000400000A000400000000040000038
:1036AE00FEFFFFFF0264052006BD06300702091B60
:1036BE0009B708D008785634120149D1124727624B
:1036CE0067000080FFDD050000181E00000078284E
:1036DE0079287A287B287C287D287E287F288628B2
:1036EE00F420FA20F520FB20E820E920EA20EB2048
:1036FE00EC20ED20EE20EF20F020F120F220F32040
:10370E00F620F720F820F920F282D982FC82EBA273
:10371E00F5A2FBA2C782E482F282D522D5A2EBA249
:10372E00C0E0C0D075D010C082C083C0F07909123D
:10373E000FCDD0F0D083D082D0D0D0E032C0D075B3
:10374E00D010D0D032C0E0C0D075D010C082C083AF
:10375E00C0F0790B120FCDD0F0D083D082D0D0D064
:10376E00E032C0E0C0D075D010C082C083C0F0C2BD
:10377E008F90037FE4F0C28E790C120FCDD0F0D073
:10378E0083D082D0D0D0E032C0E0C0D075D010C08F
:10379E0082C083C0F0C2CF9008117401F0120E35B2
:1037AE0090037EE06401700B75CDFD75CC54123E16
:1037BE005F802675CDF575CC54120D1B12071B902C
:1037CE000332E06003E014F0900359E004F0E0C32C
:1037DE0094194005E4F0120745D0F0D083D082D082
:1037EE00D0D0E032C0D075D010A2C05002C2C0A25C
:1037FE00C15002C2C1D0D032C0E0C0D075D010C00E
:10380E0021C082C083C0F0902840E0F5219028436B
:10381E00E05221E521A2E7500C902840E0C2E7F0EB
:10382E007904120FCDE521A2E45007902840E0C2A2
:10383E00E4F0E521A2E55007902840E0C2E5F0E56E
:10384E0021A2E25011902836E0C2E1F0902840E02B
:10385E00C2E2F0120D2DE521A2E35011902836E0C0
:10386E00C2E0F0902840E0C2E3F0120D27E521A25D
:10387E00E05011902826E0C2E1F0902840E0C2E02E
:10388E00F0120D0FE521A2E15011902826E0C2E0C2
:10389E00F0902840E0C2E1F0120D095391EFD0F004
:1038AE00D083D082D021D0D0D0E032C0E0C0D0754D
:1038BE00D010C021C082C083902848E0F521902806
:1038CE004BE05221E521A2E6501490047CE0D2E0B8
:1038DE00F0902848E0C2E6F0900464E004F0E521A0
:1038EE00A2E2500E90283EE0C2E1F0902848E0C2DD
:1038FE00E2F0E521A2E3500E90283EE0C2E0F09007
:10390E002848E0C2E3F0E521A2E45007902848E001
:10391E00C2E4F0E521A2E55015902848E0C2E5F09A
:10392E0090284BE0C2E5F0902838E0C2E0F0E521A7
:10393E00A2E75007902848E0C2E7F0E521A2E05048
:10394E000E90282EE0C2E1F0902848E0C2E0F0E5AB
:10395E0021A2E1500E90282EE0C2E0F0902848E01F
:10396E00C2E1F05391DFD083D082D021D0D0D0E00D
:10397E0032C0E0C0D075D010C021C082C083C0F06C
:10398E00902850E0F521902853E052215391BF79B1
:10399E0013120FCDE521A2E3502290046BE0240117
:1039AE00F0A3E03400F09036D7E493F87900900954
:1039BE0080F0A3E4F0902850E0C2E3F0E521A2E20B
:1039CE00502290046FE02401F0A3E03400F0903612
:1039DE00D7E493F87900900980F0A3E4F090285092
:1039EE00E0C2E2F0D0F0D083D082D021D0D0D0E0AF
:1039FE0032C0E0C0D075D010C021C082C083C0F0EC
:103A0E009028A2E0F5219028A5E052217914120FFA
:103A1E00CDE521A2E15010120CEB9028A2E0C2E1FC
:103A2E00F09029047410F053917FD0F0D083D0829F
:103A3E00D021D0D0D0E032C0E0C0D075D010C0823E
:103A4E00C083C0F07915120FCDD0F0D083D082D0C4
:103A5E00D0D0E03274F112181374EA1217378A823A
:103A6E008B837825121595E525F52790099CE07036
:103A7E00767401652770487C4F7D40AA31AB3212B7
:103A8E000EB9900818E054807003023C769004AA98
:103A9E00E024FDFCA3E034FFFD9004AAE024FCFA30
:103AAE00A3E034FFFB120F0D9004AAE024FFF8A34D
:103ABE00E034FFF99004AAE8F0A3E9F0023C767432
:103ACE00026527700E7C477D40AA31AB32120EB9CB
:103ADE00023C769004ACE531F0A3E532F07A4B7BF4
:103AEE0023120EC5023C769007B81219167C037D80
:103AFE000074041217951207DB740412174D900907
:103B0E0092E0F8A3E0C82409F582E438F583E024B6
:103B1E0006FEA3E03400FF740165277027752103AC
:103B2E0075220078211219038E828F83A3AC82AD89
:103B3E00837402121795120F07740212174D8E829C
:103B4E008F838068740265277022752503752600A1
:103B5E007825121903EEFCEFFD7405121783AA8265
:103B6E00AB83120F07740212174D8048752103752F
:103B7E0022007821121903EE2404FCE43FFD7402A6
:103B8E00121795120F07740212174D78211219038E
:103B9E00EEFCEFFD7405121783AA82AB83120F079A
:103BAE00740212174D8E828F83A3A3A3E0F521E436
:103BBE00F523F5247C007D00AA31AB321207D5EA3D
:103BCE00F8EBF9ECFAEDFB74061217831216027479
:103BDE00061217831215F6E8494A4B6027900838EB
:103BEE00E070287402652760227406121795120F72
:103BFE0085E9F525E4F526F527F5287825792112AE
:103C0E0011CF60077901120B83805F90096912153D
:103C1E00F6740A1217831216029007B81215F6746C
:103C2E000E12178312160274061217831215C6127D
:103C3E0007E17934120F919007B81215F67412122B
:103C4E0017831216027911740A121795120B7190BE
:103C5E0008537402F0900B7F7821121595E52154CC
:103C6E000860057983120F7F7900741612174D7F45
:103C7E00080218BF74F512181374F71217378A82D8
:103C8E008B837821121595853182853283E521F05B
:103C9E00900992E0F8A3E0C82409F582E438F58390
:103CAE00E02406F521A3E03400F52290099CE0AA59
:103CBE0031AB32607012088F8A238B24AE23AF246F
:103CCE00EE4F60438E828F83A3E493F9892375248C
:103CDE00007823121903E9F8C3E498F895E0F9E5A2
:103CEE002128F8E52239F9E82404FCE439FD7403AF
:103CFE00121795120F07740212174D740112179DA9
:103D0E00EEFAEFFB120889900992E0F8A3E0C824BE
:103D1E0009F582E438F583E0F8A3E0F5838882A301
:103D2E00E4F0F9802B12088F8A218B22AE21AF226C
:103D3E00EE4F601A8E828F83A3E493F98E828F8367
:103D4E00E493FA749D2AFAE43409FB120EA7790063
:103D5E00740912174D7F040218BFC082C0839009E8
:103D6E009CE0601E120E0B900992E0F8A3E0C824AE
:103D7E0009F582E438F583E0F8A3E0F5838882A3A1
:103D8E00E4F07900D083D0822274F512181374FCFB
:103D9E0012173790099CE0601E900992E0F8A3E09C
:103DAE00C82409F582E438F583E0F8A3E0F58388AA
:103DBE0082A3E4F0F980248A828B837821121595F0
:103DCE00AA217B2812081D8531828532831215D2D5
:103DDE007904AA31AB32120EA77900740412174D72
:103DEE007F040218BF74F512181374FC1217378A69
:103DFE00828B837821121595A821E522540F640732
:103E0E007006E8FA7B288004E8FA7B2090099CE093
:103E1E00601E900992E0F8A3E0C82409F582E43808
:103E2E00F583E0F8A3E0F5838882A3E4F0F9801728
:103E3E0012081D8531828532831215D27904AA317A
:103E4E00AB32120EA77900740412174D7F040218BC
:103E5E00BFC082C0839003A9E054056405707F90B3
:103E6E0003AAE004F0E0C394384073E4F09003A991
:103E7E00E0640570197AD37B2012081D90039D1201
:103E8E0015D27904120C679003A9740A804FE0646E
:103E9E005570267AD47B2012081D9003A11215D2DC
:103EAE007A417B2012081D9003AB1215D2790112B4
:103EBE000C679003A9745A80247AD57B2012081DB2
:103ECE009003A51215D27A487B2012081D9003AFDD
:103EDE001215D27902120C679003A974AAF0D0833E
:103EEE00D082227921120FCD120FC7120FE5120EBA
:103EFE007D120CD9120D33900DFB7401F0900DFC58
:103F0E00E4F0120FDF900DDD749DF0A37409F0E55F
:103F1E00A1A2E05006900DFBE07013790012098B00
:103F2E00E960EC75CEA575CF5A120A4550E175CEF3
:103F3E00A575CF5A120DFF8B22EA452260D179006A
:103F4E0012098BE960C97AC87B00120F9775CEA54E
:103F5E0075CF5A120DF9120DF312072175CEA575F4
:103F6E00CF5A90098B7405F0790A120C791208E376
:103F7E0090098BE0F9120E7790098BE0640A7003BA
:103F8E00120FB5120E1112085912089B900815E067
:103F9E004404F090081AE04410F0900812E4F090F7
:103FAE000BD1F012070F90098BE064507003120CC6
:103FBE00E59003E97402F0A3E4F090098BE0900918
:103FCE008AF0900E887497F0A3740C0240A67AC8FB
:103FDE007B00120F97120D57E5A1A2E05006900D2F
:103FEE00FBE070049028AFE0120E65E9F890098BA3
:103FFE00F07450687003120CF1900811E0F8701E06
:10400E00A3E0701A900C97E0A2E74012900D3AE0F0
:10401E00A2E7400A900814E0700490080EE0E860F1
:10402E00031208A190080EE060031208A790081270
:10403E00E060231208AD7AE17B0D1207ED120E4DF2
:10404E00900815E054086003120A2190081AE054F3
:10405E00106003120A2D900814E060061207331246
:10406E0008C5900815E0540460031208CB1206FD33
:10407E00900815E054106003120751900815E05493
:10408E00206003120757900815E054406003120891
:10409E00D190098BE090098AF09003E9E0F8A3E053
:1040AE00F9E8497003023FDC7AE87B03023FE074D3
:1040BE00F21217A774FB121737E9FE604CA831A94C
:1040CE0032882589267825121903120F31740212AF
:1040DE00174D900817E05402F8A3E05480F97402CB
:1040EE006849701C853182853283E5822EF8E4356D
:1040FE0083F9E824FFF582E934FFF583E0D2E7F097
:10410E00EEF9AA31AB32120EA7740512174D7F06C7
:10411E00021879C082C083E9FC900818E0548070C0
:10412E0078900992E02404F8A3E03400F98882899B
:10413E0083E01313543F5407C394024004E04480B9
:10414E00F0900992E0F8A3E0C82409F582E438F56E
:10415E0083E0F8A3E0F5838882E044C0F0900992F2
:10416E00E0F8A3E0C82409F582E438F583E0F8A36B
:10417E00E0F5838882A37401F0ECC0E0900992E030
:10418E00F8A3E0C82409F582E438F583E0F8A3E04B
:10419E00F5838882A3A3D0E0F07901D083D0820288
:1041AE00062D790002062D74F41217A7EAFCEBFD1A
:1041BE0090098E7821121595AA218C828D837821F3
:1041CE00121595A921120B89E970047900800279E4
:1041DE00017F04021879790002062D74F01217A7D8
:1041EE0074F7121737853182853283EAF0A3EBF02C
:1041FE008C218D22853182853283E0F8A3E0F58310
:10420E00888278251215958C828D83E493F874013B
:10421E0093F9E525C398FEE52699FFEC2404F523D2
:10422E00E43522F5248E278F28852382F583E493A7
:10423E00F525740193F526740A7825121715E525D0
:10424E00540378271217248C828D83A3A3A3A3A3D0
:10425E00A3A3A3A3932527F525A3E4933528F52639
:10426E00EC2411F582E43522F583E493F9120C4F18
:10427E00E960087904120B8302444D900818E0544B
:10428E00806059852182852283A3A3A3A3A3A3A320
:10429E00E493C0E0740193F583D082A882A983E8E9
:1042AE005480600302444DE84960089007FEE8F030
:1042BE00A3E9F0E521240FF582E43522F583E4939A
:1042CE00FA740193FBEA4B6013120775EE4F600C04
:1042DE009007D9E064027004A3E02EF08521828558
:1042EE002283A3A3A3A3A3A3E493A2E0502BAC2504
:1042FE00AD26853182853283E0FAA3E0FBE52124E9
:10430E000BF582E43522F58378211215A4852182DE
:10431E008522831217A502444D852382852483E4CA
:10432E0093C0E0740193D082A8825403FAC394021E
:10433E00E84005547FFE800F5407FEE81313135414
:10434E001F540FFF7002EEFFEAC3940240030244B3
:10435E00267402121783E4F0A3F0A3F0A3F08F21CA
:10436E00F5227821121903AC25AD26740412179587
:10437E00120AFF740212174D74026F702374031227
:10438E001783E0A2E7501985238285248374019355
:10439E0054036401700A740412178374FFF0A3F0BF
:1043AE0085238285248374019354036401704B74B6
:1043BE000212178D88218922782112190374041292
:1043CE0017831215C6120F31740212174D9008176B
:1043DE00E05402F8A3E05480F974026849701B742B
:1043EE0002121783E5822EF8E43583F9E824FFF5EF
:1043FE0082E934FFF583E0D2E7F0852382852483BA
:10440E00E49354806009EEF974021217958022EE3F
:10441E00F974021217958024900818E054806006F3
:10442E00EEC394055019E85480600BEEF9AA25AB43
:10443E0026120EAD8009EEF9AA25AB26120EA77430
:10444E000912174D7F0802187902062D790002060F
:10445E002D790002062D790002062DC082C083EC54
:10446E00FAEDFB90099CE070077904120EA78046C6
:10447E00900992E0F8A3E0C82409F582E438F583A8
:10448E00E0F8A3E0C82406F582E438F583E0FA905C
:10449E00086BE05402700BEA7008900838740AF04A
:1044AE008014EA9008386006E4F0791080057401F3
:1044BE00F07990120F7F7900D083D08202062D7989
:1044CE000002062D790002062D74F41217A790092A
:1044DE008E7821121595E521C394104007790112AB
:1044EE000B8380367C8E7D09900C17E0FA791712BB
:1044FE000F737939120F9190098E782112159590BC
:10450E000C17E06521601190098E7821121595A97E
:10451E00217A177B0C120F4979007F0402187979E2
:10452E000002062D790002062D790002062D74F484
:10453E001217A7ECFAEDFB90098E7821121595E56E
:10454E002154027028900A3AE06466600E90098E3B
:10455E007821121595E521A2E04012901B4078219A
:10456E001215A490098E7821121276400779011245
:10457E000B83800F90098E7821121595A921120FA9
:10458E004979007F0402187974F41217A790098EE6
:10459E007821121595A921120F1F743C69600A74B7
:1045AE001E696005740F69700B7A067B0C120F4939
:1045BE00790080057901120B837F0402187974F457
:1045CE001217A790098E7821121595E522C394240F
:1045DE00502690098E7821121595E521C3945A50D4
:1045EE001790098E7821121595AC21AD227AAD7BEC
:1045FE000B120F43790080057901120B837F0402A1
:10460E00187974F61217A774FD12173775210275F3
:10461E0022007821121903EAFCEBFD7402121795A1
:10462E00120AFF740212174D7401121783E0F87507
:10463E00F00A853182853283E0A42824F0F97403D0
:10464E0012174D7F0202187974F61217A774FD1215
:10465E0017377521027522007821121903EAFCEB37
:10466E00FD7402121795120AFF740212174D74028E
:10467E00121783E024ADF8E434FFF97401121783A6
:10468E00E0249F54FCFA7B00E8C39AF8E99400F901
:10469E007A031216A4745328F582E43423F583E4C6
:1046AE0093F9740312174D7F0202187974F51217DD
:1046BE00A774F81217379004AC7479F0A3742BF02A
:1046CE007A607B23120EC59004AAE024F8F521A38C
:1046DE00E034FFF5227A8B7B2B120B9B120F25E910
:1046EE00852182852283A3A3A3F07A827B2B120BD2
:1046FE00A1E9852182852283A3A3F0902B86E493E2
:10470E00853182853283F0902B87E493C0E074016B
:10471E00121783D0E0F0853182853283E0642070F9
:10472E00037430F0AA31AB32120B9B120F25E985C0
:10473E002182852283A3F07A8E7B2B120B9BE9F5C7
:10474E002375F006C0F07A917B2B120B9BE9D0F00B
:10475E0084F875F00AE523A428852182852283F04A
:10476E007900740812174D7F03021879790002063A
:10477E002D790002062D790002062D74F71217A767
:10478E0090081DE05404600CEA4B6005120EDD80AB
:10479E0003120ED77F01021879C082C0837C407D40
:1047AE0040120EB9D083D08202062D74F41217A7D0
:1047BE008A218B22EA540FF9120EB385212385220A
:1047CE002474047823121715852321852422E521CC
:1047DE00541FF9120F25120EB374057821121715F6
:1047EE00A921120F25120EB37F0402187974F61246
:1047FE0017A7EAFEEBFFEE541FF9120F25120EB3A8
:10480E008E218F2274057821121715AE21AF22EE5C
:10481E00F8EFF97A3C7B001216ACEAF9120F25126A
:10482E000EB3EEF8EFF97A3C7B001216ACE8F912F3
:10483E000F25120EB37F0202187974F71217A7EA2A
:10484E00FE7C4E7D40120EB9EE2402C0E09004AA0A
:10485E00E0F8A3E0C824FCF582E834FFF583D0E04D
:10486E00F07F01021879C082C083E9F8900995E0C3
:10487E00F9C3985025900992E0F9A3E0C92409F5EF
:10488E0082E439F583E0F9A3E0F5838982E0D2E58D
:10489E00F07900D083D08202062DE8C39950F2E859
:1048AE00900994F0790180EBC082C08390081DE0DE
:1048BE005404600579AA120EB3D083D08202062D5D
:1048CE0074F01217A78A278B2889258C22EDFF7486
:1048DE0010121783E0F521FC7D00120ECB7E0080B6
:1048EE0041A3A3A3A3A3A3A3A3E0FAC39F40328F24
:1048FE0082A882852123E82523FCE43400FDEA9C6E
:10490E00E49DC365D033501974012EC0E0EAC398FC
:10491E00F895E0F9E52728F582E52839F583D0E00A
:10492E00F00EEEC395225011EEFAA925120B5F8AF6
:10493E00828B83E582458370A87F08021879C08236
:10494E00C083E9FA900818E05480701690081DE0B4
:10495E005404600E74026A600574036A7004790070
:10496E0080027901D083D08202062D02062D74F0CA
:10497E001217A78A828B837825121595E526F521C5
:10498E00E52514FAE521C3942150117959120B5FD4
:10499E008A238B24AE23AF24780080157999120BCD
:1049AE005F8A238B24AE23AF2474E02521F5217872
:1049BE000174016521700AEEFAEFFB120BAD024A8B
:1049CE008DE521C39404400974FA2521C394025045
:1049DE00257C3C7D41E521A2E0E433F521752200E2
:1049EE0074027821121724EE2521F8E43FF9E82409
:1049FE0004FAE4398048740168607B740A6521709A
:104A0E00097C147D41EE240C803174F52521C3946C
:104A1E0002501C7C287D41E52175F003A4F8A9F015
:104A2E00EE28F8EF39F9E824EDFAE934FF800F7437
:104A3E000E6521700F7C147D41EE2CFAE43FFB12C3
:104A4E000EB9803BE521C3940A402BE52124F6F8EC
:104A5E00E434FFF97A097B001216A4EAF521600608
:104A6E007404652170047902800EEA6009C394040F
:104A7E005004790380027904EEFAEFFB120BA77F44
:104A8E000802187902062D74F01217A78A218B22BC
:104A9E0089239004ACE0FAA3E0FB120BAD852182D2
:104AAE008522837825121595E52514FA74BF5523B2
:104ABE004480F9120B5F7C407D40120EB97F0802D4
:104ACE001879C082C0837AB47B29120EC5D083D0E8
:104ADE008202062DC082C0837AB87B29120EC5D001
:104AEE0083D08202062DC082C0837AD87B29120E13
:104AFE00C5D083D08202062DC082C0837AE07B2986
:104B0E00120EC5D083D08202062D74F41217A7742C
:104B1E001E121737EAFEEBFF7907120BC5E9600389
:104B2E00024C52900995E0FA900994F09004ACE092
:104B3E00F8A3E0F9E849700FEA7004795E80027913
:104B4E0054120ED7024C52EA70077AEC7B29120EE1
:104B5E00C57521027821121907900994E0C333FD1F
:104B6E008E828F837821121595AC217912740112E1
:104B7E001795120BD1740112174D7E008025EF256B
:104B8E00E0F8E433F974DA28F582740539F583A375
:104B9E00A3A3A3E0FAA3E0FB120BB90FEFC3940E8D
:104BAE0040DC0EEEC394024003024C528E82AA8267
:104BBE00853182853283E5822AF582E43583F58359
:104BCE00E0F8601574FF28FA7912120B5F8B22EA57
:104BDE002409FCE43522FD804F7521E07522007812
:104BEE0021121903900994E025E02A540775F01C50
:104BFE00A4F8A9F0E0A2E2E43375F0E0A4FAABF079
:104C0E0074082AFA741B3BFBEA28FCEB39FD74048A
:104C1E00121795120D75740212174D740212178D1C
:104C2E0088218922AC21AD2275211C7522007821A4
:104C3E001219037ADE7B05120AFF740212174D7FDA
:104C4E0000024BAA74E212174D7F04021879020675
:104C5E002DC082C0837AF47B29120EC5D083D082F8
:104C6E0002062D02062D74F41217A774FD121737C3
:104C7E0075210378211219077D008A828B83782192
:104C8E00121595AC2179187401121795120BD17467
:104C9E000112174D7AEC7B29120EC57F0080147914
:104CAE0002EA2AFAE433FB74A72AFA740B3BFB12CE
:104CBE000EAD0FEFC3940350308F82AA82853182DE
:104CCE00853283E5822AF582E43583F583E0F86048
:104CDE00CE74FF28FA7918120B5F8B22EA2409FA98
:104CEE00E43522FB7402F980C6740312174D7F045B
:104CFE0002187974F41217A7EAFEEBFF75210C75F2
:104D0E00220078211219039004ACE0FCA3E0FD7A96
:104D1E00DE7B05120AFF740212174D8E828F837886
:104D2E0021121595E52114FAE522247F4480F9120B
:104D3E000B5F9004ACEAF0A3EBF07AFC7B29120E29
:104D4E00C57F04021879C082C0837A1C7B2A120E9A
:104D5E00C5D083D08202062D74F01217A7EAFEEB9F
:104D6E00FF892175230C75240078231219039004F2
:104D7E00ACE0FCA3E0FD7ADE7B05120AFF740212A2
:104D8E00174D9005DEE0A2E09005EA500474018014
:104D9E0001E4F08E828F837825121595E52514FA9D
:104DAE0074BF55214480F9120B5F9004ACEAF0A356
:104DBE00EBF07A247B2A120EC57F0802187974F064
:104DCE001217A7EAFEEBFF892175230C75240078D4
:104DDE00231219039004ACE0FCA3E0FD7ADE7B0500
:104DEE00120AFF740212174D8E828F8378251215C8
:104DFE0095E52514FA74BF55214480F9120B5F9086
:104E0E0004ACEAF0A3EBF07A407B2A120EC57F08C1
:104E1E0002187974F61217A7E9FEECFFEE700F7CFC
:104E2E00497D40120EB9120BCB7F02021879C39442
:104E3E00035068900C1BE0F5216005C394044003F9
:104E4E0075210474016E700AEFA2E050D9EA2408AD
:104E5E008008EFA2E150CFEA240CF8E43BF990046D
:104E6E00ACE8F0A3E9F07A507B2A120EC57404C3A5
:104E7E009521F52195E0F52274027821121724C3AD
:104E8E009521F8E49522F99004AAE028F8A3E039D8
:104E9E00F99004AAE8F0A3E9F0808BEEC3940B40DE
:104EAE008574106E7083EFA2E74003024E34EA243D
:104EBE0004F8E43BF99004ACE8F0A3E9F07A647BE3
:104ECE002A120EC5024E3474F01217A774EC121784
:104EDE0037EAFEEBFF7404121783E4F0A3F0A3F09D
:104EEE00A3F0EEFCEFFDAA31AB32120F0D752100CF
:104EFE00752200752300752400901A53782512151B
:104F0E00A48E828F8378251211E47010900818E019
:104F1E00548060087901120ED70250AB7403121739
:104F2E0083E0FA600302529E7402121783E0F87453
:104F3E009068700302509E740B68600302500574F3
:104F4E0001121783E0600302509E85318285328301
:104F5E00E0C39406400302509EE0FA7902120B5F02
:104F6E008A218B22AE21AF22EE4F6014EE240CF577
:104F7E0082E43FF5831215F674041217831216029B
:104F8E00853182853283E070147401121783E0F943
:104F9E001209CD8A218B228C238D248022E014FAD3
:104FAE007902120B5F8A218B22AE21AF22EE4F6067
:104FBE0022EE240CF582E43FF583782112159574C8
:104FCE000412178378211214DC74041217837821CB
:104FDE001215B7900818E05480700302509B85316B
:104FEE0082853283E0790570077A9B7B230250829B
:104FFE007A9F7B2302508B740C6860030250B57449
:10500E0001121783E0600302509E85318285328340
:10501E00E0C39402507AE0702179001209CD8A2102
:10502E008B228C238D24900ADB78211214DC7404DD
:10503E0012178378211215B78023E014FA79031220
:10504E000B5F8A218B22AE21AF22EE4F600F8E8234
:10505E008F831215F6740412178312160290081815
:10506E00E054806028853182853283E079057009AD
:10507E007AA47B2312078180147AAA7B23120781DC
:10508E00853182853283E044809007DAF075210401
:10509E00A92174041217831215C6120B7D741412F3
:1050AE00174D7F0802187974FE6870287401121764
:1050BE0083E070DC853182853283E060D3E0C39477
:1050CE000D50CDE014FA7902120B5F7C4D7D40122B
:1050DE000EB980BC853182853283E060030251B601
:1050EE00E8702A7401121783E0F9C3940550A112D7
:1050FE0009CD74041217831215D27521047401128E
:10510E001783E0F97AF07B2A120781808374016895
:10511E0070597401121783E0F9C3940540030250CD
:10512E009E7521087821121903120B2FEAFCEBFD54
:10513E00740E121795120AFF740212174D740C1288
:10514E001783782112159574101217837821121473
:10515E00DC740412178378211215B77521047401BB
:10516E00121783E0F97AF47B2A809D74026860033B
:10517E0002509E7401121783E0F9C3940540030296
:10518E00509E120B2F8B22EA2404FCE43522FD7470
:10519E0004121795120F0D7521047401121783E076
:1051AE00F97AF87B2A025116E0C3940D400302509F
:1051BE009EE8C39403400302509E7401121783E0CD
:1051CE00C3940540030250AB853182853283E014CF
:1051DE00FA7902120B5F8A218B22AE21AF22740262
:1051EE00121783E0F874FC28F582E4342AF583E480
:1051FE0093FA7401121783E075F00CA4F8A9F0EE7F
:10520E0028F8EF39F9E82AFCE439FD7404121795F1
:10521E00120F0DEE4F700D7404121783E4F0A3F00D
:10522E00A3F0A3F0752104900818E05480700302D7
:10523E00509E7402121783E0F8700D7401121783DA
:10524E00E0F97AFF7B2A801D740168700D740112DB
:10525E001783E0F97A067B2B800B7401121783E01B
:10526E00F97A0F7B2B120781853182853283E0C359
:10527E00940AE0500944809007DBF002509E24F619
:10528E0044809007DBF07A187B2B12077502509E34
:10529E0074026A60030254397402121783E0F874C0
:1052AE000168703F853182853283E0600302509E33
:1052BE007401121783E0F9740169701B9008FE12D5
:1052CE0015F674041217831216027521027A1A7BD0
:1052DE002B12077B02509E120BD7E9600302509EE1
:1052EE0002540E740268703A853182853283E06012
:1052FE000302509E7401121783E0F974016970174E
:10530E009009171215F674041217831216027521DE
:10531E00037A217B2B80BA120BD7E9600302509ED1
:10532E00805B740368705E853182853283E0600332
:10533E0002509E7401121783E0F9C3940250189024
:10534E0008CC1215F6740412178312160275210377
:10535E007A247B2B0252DF74026970189008E512D2
:10536E0015F674041217831216027521037A2C7B1C
:10537E002B0252DF120BD7E9600302509E79031203
:10538E000EDD0250AB740468702B8531828532833A
:10539E00E0600302509E7401121783E06003025016
:1053AE009E9008B31215F674041217831216027526
:1053BE00210302509E740668704B853182853283BC
:1053CE00E0600302509E7401121783E0F9C3940249
:1053DE0050259008B1E0FCA3E0FD3395E0FE740487
:1053EE00121783ECF0A3EDF0A3EEF0A3F0752102FB
:1053FE007A347B2B025298120BD7E9600302509E2F
:10540E00790202538D748068600302509E752506E2
:10541E00782512190779128E828F837825121595A9
:10542E00AC25AD267ADC7B2802566774036A6003CE
:10543E0002563B752510782512190779088E828F32
:10544E00837825121595E97825121440AC25AD26E2
:10545E007A707B2A120EEF740112174D7408121710
:10546E0083EAF0A3EBF07408121783E0F8A3E0F9D7
:10547E00E849700302560B7408121783E0F8A3E094
:10548E00C82407F582E438F583E493F9120C4FE94A
:10549E0060087904120B830250AB7408121783E074
:1054AE002403F8A3E03400F9740A121783E8F0A37A
:1054BE00E9F0740A121783E0F8A3E0F5838882E41A
:1054CE0093FC743F5CC39420400302509E8531824E
:1054DE00853283E0703090081DE054046003025062
:1054EE009E740A121783E0F8A3E0F5838882E49392
:1054FE00F9120B657404121783EAF0A3EBF0A3E420
:10550E00F0A3F00253BD8C8285822174C05C60369C
:10551E00EC543FF5217403782112172474182521B9
:10552E00F58274353522F583E493F8A3E49354039E
:10553E00F97A027B001216A48821E9F5223395E050
:10554E00F523F524801E7403782112172474182570
:10555E0021F58274353522F583E493F521A3E49386
:10556E005403F522853182853283E0F525E4F52654
:10557E00F5277825792112126650030250AB900858
:10558E0018E054807074853182853283E014FAEC11
:10559E00F9120B5F9004ACEAF0A3EBF09004ACE0D0
:1055AE00F8A3E0F9E849701B7408121783E0F8A31A
:1055BE00E0F5838882A3A3A3A3E493F96005120EFA
:1055CE00D78034740A121783E0F8A3E0F58388823B
:1055DE00E493F9EEFAEFFB7408121783E0F8A3E0F8
:1055EE00F5838882A3A3A3A3A3E493C0E0740193DD
:1055FE00F583D0821217A50250AB0250AB902B3B15
:10560E00C082C0838E828F837825121595902B379A
:10561E00782512152ED083D08278251211F96003C9
:10562E0002509EEEFAEFFB120BDD0250AB74046AD1
:10563E0060030259847402121783E0F970357525E0
:10564E0049782512190779128E828F8378251215C3
:10565E0095AC25AD267ABA7B23120EEF7401121784
:10566E004D8A258B26AC25AD26EC4D700302509E3F
:10567E00025918740169600874026960030257E7E1
:10568E007401121783E0600302509E8531828532C9
:10569E0083E0600302573875251C752600782512A5
:1056AE001903E975F01CA4F8A9F074D028F8741A3F
:1056BE0039F9E824E4FCE934FFFD7ADE7B05120DAE
:1056CE0075740212174D8049900818E054806014CA
:1056DE008E828F83A3A3A3A3E0F5257825792112CB
:1056EE0011CF702585212585222674017825121764
:1056FE002474DA2525F58274053526F583A3A3A334
:10570E00A3E0FAA3E0FB120BB3901A9678211214C1
:10571E009E900C18E0F525E4F526F527F52878255A
:10572E00792112126640A10250ABE0C394094003E6
:10573E0002509E75251C75260078251219037402D9
:10574E00121783E075F01CA4FAABF0E975F0E0A433
:10575E00F8A9F0740828F8741B39F9E82AF8E93B1F
:10576E00F9E82404FCE934FFFD7ADE7B05120D75A1
:10577E00740212174D8049900818E0548060148E00
:10578E00828F83A3A3A3A3E0F52578257921121197
:10579E00CF702585212585222674017825121724A0
:1057AE0074DA2525F58274053526F583A3A3A3A304
:1057BE00E0FAA3E0FB120BB9901A96782112149E10
:1057CE00900C1AE0F525E4F526F527F528782579CD
:1057DE002112126640A10250AB740369705D740110
:1057EE00121783E0600302509E853182853283E07A
:1057FE00700302509EE0C3941A400302509E75251A
:10580E000275260078251219037402121783E075AB
:10581E00F003A4F8AAF0E42AF9741E39F9E824FD7D
:10582E00FCE934FFFD7ADE7B05120D75740212174A
:10583E004D7ADE7B05120BBF02509E740469600325
:10584E000258DA7401121783E0F8700302509EC3F7
:10585E009403400302509E853182853283E07003AB
:10586E0002509E8882AA82853182E0F874D32AF58E
:10587E0082E4340BF583E0C398500302509E7525E5
:10588E000575260078251219037402121783E07528
:10589E00F005A4F8A9F0EA75F096A4FAABF0744BF3
:1058AE002AFA741E3BFBEA28F8EB39F9E82465FC6A
:1058BE00E934FFFD7ADE7B05120D75740212174D69
:1058CE0079057ADE7B05120EA702509E740669706A
:1058DE000302509E740969703B75250678251219CE
:1058EE000779129009977825121595AC25AD267A71
:1058FE00487B29120EEF740112174D8A258B26ACA8
:10590E0025AD26EC4D700302509EEEFAEFFB120B06
:10591E008F0250AB748069600302509E740112179F
:10592E0083E0600302509E900818E05480600302EA
:10593E00509E853182853283E06025E0C394045009
:10594E001F7920E0F5257526007405782512172499
:10595E0074922525FA742B3526FB120EAD02509E3D
:10596E00E06404600302509E79087B2B747924C393
:10597E00FA50E70B80E474056A6003025AF7900848
:10598E0018E054806003025AF77402121783E0F88D
:10599E00701C853182853283E0700302509EE0C315
:1059AE009403400302509E7908900C0E80457401BA
:1059BE0068701C853182853283E0700302509EE050
:1059CE00C39404400302509E7907900C0F802474F8
:1059DE00026860057403687044853182853283E005
:1059EE0064016008E06402600302509E740328F9AB
:1059FE00900C10E0F521853182853283E014FA1285
:105A0E000B5F8A238B24AE23AF24AC2174011217B3
:105A1E0083E0F9EEFAEFFB120C430250AB7404680C
:105A2E006003025ABE853182853283E070030250D4
:105A3E009EE0C39403400302509EE014FA790A12CA
:105A4E000B5F8A258B26AE25AF267401121783E0D5
:105A5E00F870097C487D40120EB9804E7401687052
:105A6E0012900C11E0A2E05041EE4F60318E828F09
:105A7E0083801C740268600302509E900C11E0A299
:105A8E00E15027EE4F60178E828F83A3A3A3A3A3AB
:105A9E00A3A3A31215F67404121783121602790427
:105AAE00E91217831215C6120B7D120BCB0250ABE7
:105ABE00740668600302509E853182853283E070E1
:105ACE000302509EE0C39403400302509EE014FA7A
:105ADE007909120B5F8B22AF22EA2406FE50010FCA
:105AEE00900C12E0F521025A1874066A705590084F
:105AFE0018E05480700302509E8E828F8378251298
:105B0E001595740878251214407406652570047472
:105B1E00066526600302509E853182853283E064DD
:105B2E0006600302509E900854E0FC740412178322
:105B3E00ECF0A3E4F0A3F0A3F07521017AB27B237D
:105B4E0002529874196A6003025BF9740212178389
:105B5E00E064016003025BF9900818E05480600372
:105B6E00025BF97401121783E0705990081DE0541E
:105B7E0004600302509E853182853283E064017099
:105B8E000579590254FFE06402600302509E900BA7
:105B9E00571215F67404121783121602900B7B120D
:105BAE0015F6E8494A4B60197A7B7B0B120F678A10
:105BBE00218B228C238D24740412178378211214C6
:105BCE00B50253BDC39432400302509E8531828587
:105BDE003283E0700302509EE0C3940B40030250E8
:105BEE009EEEFAEFFB120BE302509E741D6A6008E4
:105BFE00741E6A6003025CD5900818E0548060033E
:105C0E00025CD57402121783E0600302509E740189
:105C1E00121783E0F8704390081DE05406600302EB
:105C2E00509E853182853283E0C394024003025038
:105C3E009E790D120B657403121783E0A2E0E43314
:105C4E00F8EA28F8E43BC313F9E813FCE9FD740401
:105C5E00121783ECF0A3ED02550B8531828532834A
:105C6E00E0700302509EE0C3940B400302509EE886
:105C7E00C39409400302509E7403121783E0A2E0FE
:105C8E00E433C0E0900C49E0F8D0E0685401F885A8
:105C9E003182853283E0143328FA790D120B5F902E
:105CAE0004ACEAF0A3EBF090081DE05406700E74FD
:105CBE0001121783E0C3940540030250ABEEFAEFD6
:105CCE00FB120BE902509E74FA6A600302509E7436
:105CDE0002121783E064FA600302509E7940853108
:105CEE0082853283E0FAA3E0FB120EAD0250ABC008
:105CFE0082C083120DDB120B35900992E0F8A3E0FF
