:020000040000FA
:060000000200660277F029
:03000B000277F881
:0300130002780070
:03001B0002780860
:03002B0002782533
:03003B00027881C7
:03004300027895AB
:03004B00027949EE
:03005300027A0F1F
:03005B00027A1E08
:10006300027A2D75D00075819F75310175320202B8
:10007300C4DDE490020178AF790D8002F0A3D8FCCF
:02008300D9FAA8
:1001000000002110422063308440A550C660E77093
:10011000088129914AA16BB18CC1ADD1CEE1EFF13B
:100120003112100273325222B5529442F772D662E3
:10013000399318837BB35AA3BDD39CC3FFF3DEE38B
:100140006224433420040114E664C774A444855433
:100150006AA54BB528850995EEE5CFF5ACC58DD5DB
:100160005336722611163006D776F6669556B44683
:100170005BB77AA719973887DFF7FEE79DD7BCC72B
:10018000C448E5588668A7784008611802282338D3
:10019000CCC9EDD98EE9AFF9488969990AA92BB97B
:1001A000F55AD44AB77A966A711A500A333A122A23
:1001B000FDDBDCCBBFFB9EEB799B588B3BBB1AABCB
:1001C000A66C877CE44CC55C222C033C600C411C73
:1001D000AEED8FFDECCDCDDD2AAD0BBD688D499D1B
:1001E000977EB66ED55EF44E133E322E511E700EC3
:1001F0009FFFBEEFDDDFFCCF1BBF3AAF599F788F6B
:100200008891A981CAB1EBA10CD12DC14EF16FE14A
:100210008010A100C230E320045025404670676082
:10022000B9839893FBA3DAB33DC31CD37FE35EF39A
:10023000B1029012F322D2323542145277625672D2
:10024000EAB5CBA5A89589856EF54FE52CD50DC5EA
:10025000E234C324A0148104667447642454054422
:10026000DBA7FAB79987B8975FE77EF71DC73CD73A
:10027000D326F2369106B016576676761546345672
:100280004CD96DC90EF92FE9C899E9898AB9ABA98A
:100290004458654806782768C018E1088238A328C2
:1002A0007DCB5CDB3FEB1EFBF98BD89BBBAB9ABBDA
:1002B000754A545A376A167AF10AD01AB32A923A12
:1002C0002EFD0FED6CDD4DCDAABD8BADE89DC98D2A
:1002D000267C076C645C454CA23C832CE01CC10C62
:1002E0001FEF3EFF5DCF7CDF9BAFBABFD98FF89F7A
:1002F000176E367E554E745E932EB23ED10EF01EB2
:1003000000010203040506070809AAAAAAAAAAAAC4
:100310000A0B0C0D0E0F10111213AAAAAAAAAAAA50
:100320001415161718191A1B1C1DAAAAAAAAAAAADC
:100330001E1F2021222324252627AAAAAAAAAAAA68
:1003400028292A2B2C2D2E2F3031AAAAAAAAAAAAF4
:1003500032333435363738393A3BAAAAAAAAAAAA80
:100360003C3D3E3F404142434445AAAAAAAAAAAA0C
:10037000464748494A4B4C4D4E4FAAAAAAAAAAAA98
:1003800050515253545556575859AAAAAAAAAAAA24
:0A0390005A5B5C5D5E5F60616263B2
:10039C0000010203040506070809101112131415B5
:1003AC001617181920212223242526272829303115
:1003BC003233343536373839404142434445464769
:1003CC0048495051525354555657585960616263BD
:1003DC00646566676869707172737475767778791D
:1003EC008081828384858687888990919293949565
:1003FC0096979899FFFFFFFFFFFFFFFFFFFFFFFF9F
:10040C00FFFFFFFFFFFFFFFFFFFFFFFFFFFFFFFFF0
:10041C00FFFFFFFFFFFFFFFFFFFFFFFFFFFFFFFFE0
:10042C00FFFFFFFFFFFFFFFFFFFFFFFFFFFFFFFFD0
:10043C00FFFFFFFFFFFFFFFFFFFFFFFFFFFFFFFFC0
:10044C00FFFFFFFFFFFFFFFFFFFFFFFFFFFFFFFFB0
:10045C00FFFFFFFFFFFFFFFFFFFFFFFFFFFFFFFFA0
:10046C00FFFFFFFFFFFFFFFFFFFFFFFFFFFFFFFF90
:10047C00FFFFFFFFFFFFFFFFFFFFFFFFFFFFFFFF80
:10048C00FFFFFFFFFFFFFFFFFFFFFFFFFFFFFFFF70
:10049C00FFFFFFFFFFFFFFFFFFFFFFFFFFFFFFFF60
:1004AC00FFFFFFFFFFFFFFFFFFFFFFFFFFFFFFFF50
:1004BC00FFFFFFFFFFFFFFFFFFFFFFFFFFFFFFFF40
:1004CC00FFFFFFFFFFFFFFFFFFFFFFFFFFFFFFFF30
:1004DC00FFFFFFFFFFFFFFFFFFFFFFFFFFFFFFFF20
:1004EC00FFFFFFFFFFFFFFFFFFFFFFFFFFFFFFFF10
:1004FC00FFFFFFFFFFFFFFFFFFFFFFFFFFFFFFFF00
:10050C00FFFFFFFFFFFFFFFFFFFFFFFFFFFFFFFFEF
:10051C00FFFFFFFFFFFFFFFFFFFFFFFFFFFFFFFFDF
:10052C00FFFFFFFFFFFFFFFFFFFFFFFFFFFFFFFFCF
:10053C00FFFFFFFFFFFFFFFFFFFFFFFFFFFFFFFFBF
:10054C00FFFFFFFFFFFFFFFFFFFFFFFFFFFFFFFFAF
:10055C00FFFFFFFFFFFFFFFFFFFFFFFFFFFFFFFF9F
:10056C00FFFFFFFFFFFFFFFFFFFFFFFFFFFFFFFF8F
:10057C00FFFFFFFFFFFFFFFFFFFFFFFFFFFFFFFF7F
:10058C00FFFFFFFFFFFFFFFFFFFFFFFFFFFFFFFF6F
:10059C00FFFFFFFFFFFFFFFFFFFFFFFFFFFFFFFF5F
:1005AC00FFFFFFFFFFFFFFFFFFFFFFFFFFFFFFFF4F
:1005BC00FFFFFFFFFFFFFFFFFFFFFFFFFFFFFFFF3F
:1005CC00FFFFFFFFFFFFFFFFFFFFFFFFFFFFFFFF2F
:1005DC00FFFFFFFFFFFFFFFFFFFFFFFFFFFFFFFF1F
:1005EC00FFFFFFFFFFFFFFFFFFFFFFFFFFFFFFFF0F
:1005FC00FFFFFFFFE76670100809E766700A08093D
:10060C00E76670040809E76622E066701008A3E04C
:10061C0066700A08A3E066700408A3E06622E493FF
:10062C006670130874019366700C087402936670FC
:10063C0005087403936622C3E09608A3E09608A30A
:10064C00E09608A3E096A2D265D03322C021C3E481
:10065C009396F5210874019396422108740293969F
:10066C00422108740393964221A2D265D033E5212E
:10067C007001D3D02122C3E7960809E7960809E751
:10068C00960809E79622C3E09608A3E09608A3E033
:10069C009608A3E09622C021C3E096F52108A3E0BA
:1006AC0096422108A3E096422108A3E096452170CA
:1006BC0001D3D02122C021C3E49396F52108740103
:1006CC0093964221087402939642210874039396E0
:1006DC0045217001D3D02122080808EAC0E0EBC004
:1006EC00E086F0E7A4FA180986F0E7A42AFA1809BC
:1006FC0086F0E7A42AFA180986F0E7A42AFA1986E4
:10070C00F0E7A4FBE5F02AFA190886F0E7A42BFB26
:10071C00E5F03AFA190886F0E7A42BFBE5F03AFA73
:10072C0018180986F0E7A4C5F02BFBE43AFA19086F
:10073C00E7C5F0C6A426F6E5F03BFBE43AFA1886CA
:10074C00F0E7A4F6E5F00826F6E43B08F6E43A08F0
:10075C00F6D0E0FBD0E0FA22E4CFC0E0E4CEC0E07B
:10076C00E4CDC0E0E4CCC0E075F020E626F608E667
:10077C0033F608E633F608E633F6181818EC33FCB3
:10078C00ED33FDEE33FEEF33FFC3EC9709ED970924
:10079C00EE9709EF97191919400FFFEC97FC09ED2B
:1007AC0097FD09EE97FE191906D5F0BFECF709ED88
:1007BC00F709EEF709EFF7191919D0E0FCD0E0FDB5
:1007CC00D0E0FED0E0FF2212083B18181812076484
:1007DC0012082A1919192212082A191919080808B5
:1007EC00E618181820E7E012076412083B181818CE
:1007FC0022090909E719191920E7DC080808E61885
:10080C00181820E70302076412083B18181812077F
:10081C006412083B18181812082A19191922E4C373
:10082C0097F709E497F709E497F709E497F722E4B7
:10083C00C396F608E496F608E496F608E496F622D3
:10084C00C6F4C608C6F4C608C6F4C608C6F4C62262
:10085C006016080808C6C313C618C613C618C613F4
:10086C00C618C613C6D5E0EA22700908080822602B
:10087C0016181818C6C333C608C633C608C633C6FE
:10088C0008C633C6D5E0EA22E627F60809E637F6AD
:10089C000809E637F60809E637F622E026F608A33B
:1008AC00E036F608A3E036F608A3E036F622E49329
:1008BC0026F60874019336F60874029336F608741B
:1008CC00039336F622E026F008A3E036F008A3E006
:1008DC0036F008A3E036F022C3E697F60809E6974F
:1008EC00F60809E697F60809E697F622C3E0C696DD
:1008FC00F608A3E0C696F608A3E0C696F608A3E0B1
:10090C00C696F622C3E096F008A3E096F008A3E0A2
:10091C0096F008A3E096F022E056F608A3E056F60F
:10092C0008A3E056F608A3E056F622E49356F60820
:10093C0074019356F60874029356F6087403935692
:10094C00F622E056F008A3E056F008A3E056F008B3
:10095C00A3E056F022E647F60809E647F60809E652
:10096C0047F60809E647F622E49346F60874019325
:10097C0046F60874029346F60874039346F622E092
:10098C00F608A3E0F608A3E0F608A3E0F622E49349
:10099C00F608740193F608740293F608740393F640
:1009AC0022E6F008A3E6F008A3E6F008A3E6F0229E
:1009BC00E0FAA3E0FBA3E0FCA3E0FD22EAF0A3EB4A
:1009CC00F0A3ECF0A3EDF022E0FCA3E0FDA3E0FE2D
:1009DC00A3E0FF22E0F8A3E0F9A3E0FAA3E0FB22F6
:1009EC00E8F0A3E9F0A3EAF0A3EBF022CAC0E0E63A
:1009FC00F0A308DAFAD0E0FA22CAC0E0E0A3C5827C
:100A0C00CCC582C583CDC583F0A3C582CCC582C5B8
:100A1C0083CDC583DAE6D0E0CA22CAC0E0E493A352
:100A2C00C582CCC582C583CDC583F0A3C582CCC598
:100A3C0082C583CDC583DAE5D0E0CA22C3E498F839
:100A4C00E499F9120A898026C3E49AFAE49BFBE93B
:100A5C0020E7E9120A89E498F8E499F922C3E498AA
:100A6C00F8E499F9120A89E498F8E499F9C3E49A3C
:100A7C00FAE49BFB22EB20E7CFE920E7E0B900107A
:100A8C00BB0008E88AF084F8AAF022E4FBC8FA223A
:100A9C00EB70227B10C833C8C933C9335007C39AD3
:100AAC00C3DBF280069A50012ADBEAC833F4C8C9CA
:100ABC0033F4C9FA2275F008E4C833C8C933C93312
:100ACC00C99AC99B5004C92AC93BD5F0ECFBC83361
:100ADC00F4C8E4C9FA22600D08C6A2E713C618C60A
:100AEC0013C6D5E0F322600C08C6C313C618C61390
:100AFC00C6D5E0F422700422600D18C6C333C608B4
:100B0C00C633C6D5E0F41822253110AF08F53140B4
:100B1C000C15328008F53140021532D2AF2200C0DC
:100B2C00D0253110AF08F531500C05328008F53165
:100B3C0050020532D2AFD0D0222531F58210AF0849
:100B4C00F531400C15328008F53140021532D2AF28
:100B5C00853283222531F582E43532F58322253125
:100B6C00F8E43532F9222531FAE43532FB2225310D
:100B7C00FCE43532FD22E4732531C582C0E0E53258
:100B8C0034FFC583C0E0E531C3958224F910AF086A
:100B9C008583328582318008858332858231D2AF5C
:100BAC00CEF0A3E520F0A37821E608F0A3DEFAEF5F
:100BBC00F0A3E58124FBF8E608F0A3E608F0A3080F
:100BCC0008E608F0A3E608F0A315811581D0E0FE35
:100BDC00D0E0F815811581E8C0E0EEC0E022853246
:100BEC0083853182E0A3FEE0A3F5207821E0A3F613
:100BFC0008DFFAE0A3FFE0A3C0E0E0A3C0E0E0A3BD
:100C0C00C0E0E0A3C0E010AF08858231858332805C
:100C1C0008858231858332D2AFD083D0822274048E
:100C2C008006740280027401C0E0F404120B45D0FB
:100C3C00E01209F8227404800474028000CCC0E035
:100C4C00EDC0E0E531C39CCCAD3250011D10AF06B8
:100C5C008C318D3280068C318D32D2AF120A05D098
:100C6C00E0FDD0E0FC2274048000CCC0E0EDC0E0DC
:100C7C00E531C39CCCAD3250011D10AF068C318DCB
:100C8C003280068C318D32D2AF120A26D0E0FDD0E4
:030C9C00E0FC2257
:0D11C0004431343346393832315330330076
:1011CE0001010000000A00000000000000640000A1
:1011DE0000E482F282F522D5A2EBA23F065B4F66B7
:1011EE006D7D077F6F777C395E7971000606060686
:1011FE00FFFFFFFF00029000FF0000000F00000045
:10120E000000080000004000000001001FF1000473
:10121E0007060606B83E24031F1C1F1E1F1E1F1F97
:10122E001E1F1E1F060503000603030005000418FB
:10123E000000003C0000008051010080D6E30181D7
:10124E0051010007000000E02E0C0110270A01409A
:10125E001F080188130501B80B0301D0070201E82E
:10126E00030A0A0019400A800C200A6009180A4075
:10127E0006100AB0040C0A2003080AF401050A90AD
:10128E0001040AC800020A6400010AC0000000D965
:10129E006204019C3C1D91BC749388C80000000838
:1012AE0000000013000000050000005F0000007049
:1012BE0000000010000000EAF48F0416322C0440E7
:1012CE0006C05D8813AC73F802E3244F19001BB7F8
:1012DE000067EBE3050000000000000000000000C6
:1012EE0000000000000000000000000000000000F0
:1012FE00000000706562017065620185A3B365CC64
:10130E00CC4E1CCCCC4E1C00000000000000000C8B
:10131E001111111111110405050204051A3C1E00CC
:10132E00000505143C0502500000000000020000FC
:10133E00000000000000CD13000047170000370129
:10134E000000004006000420200001440400024476
:10135E00040000440400114404001244040010442C
:10136E0004002144040022440400204404003144BB
:10137E00040032440400304404004144040042445A
:10138E0004004044048001A302002C01000006006A
:10139E000000002040000000040000320000A30BFB
:1013AE0000001A00000012000000320000001F00B2
:1013BE000000E02B3F0010B33C0091572C001600AC
:1013CE000000040C080E060E0A100C1410160E1651
:1013DE00121800100000FFFFFF0303900D05910D82
:1013EE00018F0D040810209999999999996162635A
:1013FE006465660040000B0040AA8000484740002C
:10140E00484FC00EE00E04190006100120400101E5
:10141E000156414100F07C7C7CFC7C0807060212E0
:10142E00000411090103100520480400BF480440C0
:10143E00244814412C4811412A4811C12F393F7AB2
:10144E005F206F577F10393902F7586C2222638361
:10145E0087223E3E638387223E213D3D92919184B9
:10146E0091912D2D5E605F6C151509222270637CA3
:10147E00803E94947C803E94940201021F6C6C63B7
:10148E007F7878028132787802816374787802816D
:10149E00327478788E8E028181028282022E423BD5
:1014AE00362B1F1F010100050413030000B008A412
:1014BE008300005C1403020100050333030000B037
:1014CE0008A4830000621403050100800A000000D6
:1014DE0000AC260000000000000306010705053BD6
:1014EE00030000290CC48500000000030801000958
:1014FE00053B030000310CC485000000000109010A
:10150E000009053B030000350CC4850000000001F6
:10151E000C0100050733038000B008A4830000000F
:10152E0000030F010041012B0380003D0DAD86002D
:10153E0000000003010204050131020000D60D0F68
:10154E00870000000003050200050A31020000DAE0
:10155E000D0F870000000003070200050131020095
:10156E0000DC0D0F870000000001080200050110CD
:10157E00000000850D200001C000000301030005DE
:10158E000111000000920D630001C0000003020370
:10159E0000050111000000E10D140005C00000035C
:1015AE00030300050111000000DF0D020000C00062
:1015BE000003040300050111000000E00D0400000B
:1015CE00C0000003050300050111000000930D6328
:1015DE000001C000000306030709231900000015CF
:1015EE000C3F420F880000030803000501110000A4
:1015FE0000E20D1E0005C000000301040005861365
:10160E00030000070C98820000000003020400296A
:10161E008613030000010C988200006A1403030471
:10162E000005A012000000940D0000000000000351
:10163E00040407800101018000D71D8F8700000080
:10164E000003090400801301010001D11D79B000CF
:10165E0000A214030B0400808A02010000DC1D7935
:10166E00B000000000030C0400808A020100004656
:10167E001E79B000000000030D04008090020100EE
:10168E0000501E79B000000000030E0400288613DF
:10169E00030000FB0B988200006D14030F0400057D
:1016AE000B12000000B40D00000000000003010545
:1016BE00078002040000005E090000000000000325
:1016CE00080500800404000000410D000000000029
:1016DE000003010600050130020000D50DA18800AF
:1016EE00000000030107000501100200008F0D1F0E
:1016FE007C000000000303070005011002000090AB
:10170E000D1F7C00000000030507000501100200FC
:10171E0000910D1F7C000000000301080005013040
:10172E00020000DD0DF7880000000003020800052E
:10173E000131020000DE0DF78800000000030109F0
:10174E0006050110020000CB0D68890000000003A1
:10175E00010A00050413020000610DE5AF00000050
:10176E000003020A05050A11000000D10D3C00011C
:10177E00C0000003010B03058217020000650DB3C4
:10178E00890000791403010C0505043003800079EB
:10179E000D4E7C00000000030110020904190047E1
:1017AE00000D0CFFE0F585871401031005050419E3
:1017BE00004700450DFFE0F585000001061000040E
:1017CE000418030000250CBC980000000001011154
:1017DE0000050111020000860D608A000000000362
:1017EE00041100050812000000870D000000000023
:1017FE0000030112000505130300005D0DC48500F2
:10180E0000000003021200050111020000C40DC207
:10181E008A00000000030312000502130200006B91
:10182E000DF88A0000791403041200808400000071
:10183E0000C70D0000000000000301140005021196
:10184E000000006D0D0F270080000003021400053C
:10185E002311000000590D3F420F800000030314B6
:10186E00000502110000006F0D0F2700800000031D
:10187E00041405050111000000C50D630000800071
:10188E0000030115008002060100004D0C228000AD
:10189E00000000030215008002000100006E09A284
:1018AE00980000000001031500000C020300004D1B
:1018BE000C228000000000031FF100808400010054
:1018CE0000C207E68B00000000032FF10001B902F1
:1018DE00020000AD1DA68C00000000033FF10001C8
:1018EE00FA02020000E61DA68C00000000035FF164
:1018FE000001A002020000641EA68C00000000037E
:10190E006EF100018102000000140BA68C00000095
:10191E0000036FF10001D7020200005B0B048D0083
:10192E00000000037FF100019002020000B40B04DE
:10193E008D0000000003AFF100800400000000A441
:10194E000700000000000003CEF1000102020200B9
:10195E00007F0B868D0000000003CFF10001020214
:10196E00020000830B868D0000000003DEF10001F3
:10197E000202020000810B868D0000000003DFF1E1
:10198E0000010202020000850B868D00000000039C
:10199E00EFF100010202020000870B868D000000AD
:1019AE00000301F300018102020000641EA9AD00D4
:1019BE000000000302F3000186020300000000DBBA
:1019CE00AD000000000303F300018602030000B423
:1019DE000B8EAE000000000304F3000102110000A4
:1019EE0000B80A0000000000000305F300018402A5
:1019FE00020000F50B5BAF000000000306F3004190
:101A0E000832038000E30D16B1000000000307F357
:101A1E00000191020200004D0EADB1000000000366
:101A2E00010000802301000600850A00000000541A
:101A3E001403020000800201000000B40A0000003E
:101A4E0000561403070000800201000001C60A00C0
:101A5E00000000721403080000800201000002BAA8
:101A6E000A000000007814030A00008004010080C0
:101A7E0000950C000000000000030B000080040124
:101A8E00000004010D000000007B14012000008006
:101A9E000401000004090D000000007C1401210067
:101AAE0000800401000004050D000000007C1401FC
:101ABE00220023800201010000FA0AF28D000000CC
:101ACE000003010800050211000000750DE8030077
:101ADE0080000003020800050111000000C20D6322
:101AEE00000AC00000030110000523110003005579
:101AFE000D3F420F8000000302100005011100008F
:101B0E0000C30D6300008000000301F10005021107
:101B1E00000000770D900100807014030AF100059B
:101B2E000411000000950C0F27008070140300486C
:101B3E004040044816001A481680004840C000482D
:101B4E0040400448040008483C410C483C410040D9
:101B5E00FF0F08483C410C483C410040FFBF004885
:101B6E0040400448088000480400044840400848AB
:101B7E0040C00048404004480480004840400448AB
:101B8E000580040040400048404008003C410C00E5
:101B9E003C410040FF0F04483C4108483C41004096
:101BAE00FF8F004840400448098004004040004830
:101BBE0040401000010008003C410C003C4104482C
:101BCE003C4108483CC104004040004840400800E9
:101BDE003C410C003CC104202000F4020400C6105D
:101BEE000800B803048000484840044834410848BF
:101BFE003C410C483C4110483CC100484040044820
:101C0E0008400C4801000D48054012480240144897
:101C1E00144116483C411A483C411E483CC10048FC
:101C2E003C4108483C4110483C4118483C41204842
:101C3E003CC100483841004838410140FF91001135
:101C4E0000630CEB9203013000166A2D93030330F0
:101C5E0000170E34930304300018103B9303053025
:101C6E000019004293030630001A5E869403073073
:101C7E00001B0B7295030830001C00799503093088
:101C8E00001E0B7295030C30001F109896030D303A
:101C9E0000533C2597030F30000C2A3A9801103060
:101CAE00000D8A749801123000120F7897031330CA
:101CBE00000B249A99010133060900A19901003401
:101CCE00000A13939901003600621D7F97030037B7
:101CDE00006114E5970300A000240626930301A0DB
:101CEE000025103B930347638D8F8F4763758F8F4E
:101CFE0000484D4004483CC1637C7B7B777E636328
:101D0E00637A7E7E0C0408028132747C7B7B0281B6
:101D1E0032747C7B777E7E028132747C7B7A7E7E0F
:101D2E00333345666861605F5F4638384B5E666088
:101D3E005F67672D0A0A00029000030102900003FC
:101D4E00010100040302010004030C01000403015D
:101D5E00040004030204000403040080040300FFD3
:101D6E0000000300FF01000300FF02000300000B50
:101D7E00000300000C000300000D000140000000F5
:101D8E00040000003B0000000E00000000143003B1
:101D9E0000FFFF0000003000010101090714034598
:101DAE0050534F4E31314C20536570203133203219
:101DBE003031392032323A31353A343300000000B6
:101DCE00600057B004B90098083200580214444419
:101DDE005A595858582D4D0044445A595858582D50
:101DEE004D00000000000000000000000000000098
:101DFE00000000000000000044445A595858582D65
:101E0E004D00000000000000000000000000000077
:101E1E000000000000000000585858580000000054
:101E2E0000000000000000000000000000000000A4
:101E3E000000000000000000323031362D58582DC1
:101E4E005858444C2F543634352D323030372D31CE
:101E5E00340077013355006400000078020014123C
:101E6E002501AAAAAAAAAAAAAAAA000000000000EE
:101E7E000000000000000000000000000000000054
:101E8E000000000000000044445A59585858432D91
:101E9E004D44445A59585858432D4D0000000000E7
:101EAE000000000000000000000000000000000024
:101EBE000044445A59585858432D4D000000000014
:101ECE000000000000000000000000000000000004
:101EDE000044445A5958585843000044445A5958DB
:101EEE0058584300000000000000000000000000F1
:101EFE00000000000000000000000044445A595841
:101F0E0058584300000000000000000000000000D0
:101F1E00000000000000000000000044445A595820
:101F2E0058582D4D0044445A595858582D4D0000BC
:101F3E000000000000000000000000000000000093
:101F4E00000000000044445A595858582D4D0000C6
:101F5E000000000000000000000000000000000073
:101F6E00000000000044445A5958585800000044DC
:101F7E00445A595858580000000000000000000054
:101F8E0000000000000000000000000000000044FF
:101F9E00445A595858580000000000000000000034
:101FAE0000000000000000000000000000000034EF
:101FBE001200400000004000000000000000000081
:101FCE0000000000000040000000000000000000C3
:101FDE0000000000000000000000000000000000F3
:101FEE0000000000000000000000000000000000E3
:101FFE0000000000000000000000000000000000D3
:10200E000000000000006000000000000000000062
:10201E0000000000000000000000000000000000B2
:10202E00007200B1014DE8FFFF6CFDFFFF000000E4
:10203E000000000000000000000000000000000092
:10204E000000000000000000007701335500000082
:10205E00000000000000000000000111111111111C
:10206E0011F40100006400000001000000010000F6
:10207E0000204E00000000000000000000000000E4
:10208E0000000000000000000000000000000080C2
:10209E00110000001F000000000000000000000002
:1020AE000000000000000000000000000000000022
:1020BE000000000000000000000000000000000012
:1020CE000000000000000000000000000000000002
:1020DE0000000000000000000000000000000000F2
:1020EE0000000000000000000000000000000000E2
:1020FE0000000000004088A0004088A0004088A09A
:10210E0000000000000000000000000000000000C1
:10211E0000000000000000000000000000000000B1
:10212E0000000000000000000000000000000000A1
:10213E000000000000000000000000000000000091
:10214E000000000000000000000100000000000080
:10215E000000000000000000000000000000000071
:10216E000000000000000000000000000000000061
:10217E000000000000000000000000000000000051
:10218E000000000000000000000000000000000041
:10219E00000010000800000000E8030000FFE0F55A
:1021AE0005C8000000000000002C00000030750083
:1021BE00000049D11200000101010099999999007E
:1021CE00000000A0050000000058020401000000FD
:1021DE000002563412047856341400000410000025
:1021EE00000200040808071B0000000000000000A9
:1021FE0000000000000000000000000000000000D1
:10220E0000000000000000000000000000000000C0
:10221E000000003C3C3C3C0A3C1E1E999912000FEB
:10222E0083838303830F0F0F0F0502020804000040
:10223E00007F0102040505FFFFFFFFFFFFFFFF0008
:10224E000000000000000000000000000000000080
:10225E000000000000000000000000000000000070
:10226E000000000000000000000000000000000060
:10227E000000000000000000000000000000000050
:10228E000000000000000000000000000000000040
:10229E000000000000000000000000000000000030
:1022AE000000000000000000000000000000000020
:1022BE000000161102120C120C120C120C120C123F
:1022CE000C120C120C120C120C120C120C120C1111
:1022DE0002120C120C120C120C120C120C120C120A
:1022EE000C120C120C120C120C120C88130024136C
:1022FE0000C012005C120000000000000000000090
:10230E0000000000000000000000000000000000BF
:10231E0000000000000000000000000000000000AF
:10232E00000000000000000000000000000000009F
:10233E00000000000000000000000000000000008F
:10234E0000000000000000000000008813002413AD
:10235E0000C012005C12000000000000000000002F
:10236E00000000000000000000000000000000005F
:10237E00000000000000000000000000000000004F
:10238E00000000000000000000000000000000003F
:10239E00000000000000000000000000000000002F
:1023AE000000000000000000000000010082160383
:1023BE002D8443015A82700387849D849D849D845D
:1023CE009D849D849D849D000000000000000000FF
:1023DE0000000000000000000000000000000000EF
:1023EE0000000000000000000000000000000000DF
:1023FE0000000000999999999999999999999999A3
:10240E00000000BE051246843F05690040BE034031
:10241E00000000000002FA0290000000029000008E
:10242E000000000000000000000006120101000480
:10243E000002010004002000800200000290000053
:10244E0000000B0000000000000000000000000073
:10245E00000000000000000000000000000001016C
:10246E00000400020100040020008002000002901F
:10247E000000000000000001000000000E04000437
:10248E00010E040004000204000401020400040012
:10249E00000101020000010202000001030200011E
:1024AE000B00040009040004000200800200021464
:1024BE0000040003140004000000000000000000EF
:1024CE0000000000000000000000000000000000FE
:1024DE0000000000000000000000000000000000EE
:1024EE0000000000000000000000000000000000DE
:1024FE0000000000000000000000000000000000CE
:10250E0000000000000000000000000000000000BD
:10251E0000000000000000000000000000000000AD
:10252E000000000000000517000000000000010080
:10253E000000000200000000030000000004000084
:10254E00000000000000000000000000000000007D
:10255E00000000000000000000000000000000006D
:10256E000100000000020000000003000000000453
:10257E000000000100000000010100000001020047
:10258E000000010300000001040000000200000032
:10259E000002010000000202000000020300000021
:1025AE000204000000010400040101040004000103
:1025BE0001000400020100040000010102000001FC
:1025CE0002020000010302000001060200000000EA
:1025DE0000000000000000000000000000000000ED
:1025EE0000000000000000000000000000000000DD
:1025FE0000000000000000000000000000000000CD
:10260E0000000000000000000000000000000000BC
:10261E0000000000000000000000000000000000AC
:10262E0000001FF1000407060606000290001522A6
:10263E002D3E7F8286898A10110B315C645D654A5E
:10264E000200004B0200004D024F0251020504042D
:10265E00090903039494797D7D7981817985851C9F
:10266E001C5B5B0193935302560259025C025E029D
:10267E00600257027C7B7BF4020480000603030099
:10268E00050004FFFFFFFFFF9999999999996162DF
:10269E006364656600000000000000000000805EBC
:1026AE00666861605F673F6B6D5958526C4C464867
:1026BE004F4E4D47403A3C4342413B342A2C37362D
:1026CE00352B241E202726251F1812141B1A19130A
:1026DE000C06080F0E0D074944454B51504A000099
:1026EE0000000100000001000300020000000700CE
:1026FE0040000C0000000703040002003F040F031B
:10270E00080004003F042F03300002003F048F0333
:10271E00300002003F04EF03300002003F044F047C
:10272E00300002003F04AF041800140000008F06B2
:10273E0014000A000000570722000A001304AB0819
:10274E0020000A000000EB097C000A000000C30E06
:10275E00300003003F04530F300002003F04B30F5C
:10276E0038000200370423100C0002006F043B10E7
:10277E0010000A009704DB100C0014006F04CB113C
:10278E0010001400B7040B1330000A000000EB1405
:10279E0010000A00A7048B150C000A000000031697
:1027AE000C000A0000007B1628000A0000000B181F
:1027BE0028000A0000009B190C000A000000131AE2
:1027CE000C000A0000008B1A18000A0000007B1B88
:1027DE000C000A000000F31B0C000A0000006B1C2A
:1027EE00180014007B044B1E0C0014006F043B1FDA
:1027FE000C001400C7042B200400140074027B206C
:10280E000400050074028F200C0005000000CB2090
:10281E00040002000000F402040018050800C403BE
:10282E000100C5030500CA030240C6100200B8032A
:10283E0004000144040002440480C6100200B403E4
:10284E0004008F0304002504040001440400024424
:10285E0004001144040012440400214404002244E4
:10286E000400314404003244040041440400424454
:10287E000480000033000144040002440480F4028A
:10288E000400014404000244040077040200A00482
:10289E00030025040300FA030280F4023300C21180
:1028AE0004002A120100180504C000003300380588
:1028BE000400014404000244048000003300C211ED
:1028CE00040001440400024404808F030400014408
:1028DE0004000244048000400000A00000400000FC
:1028EE00FEFFFFFF02785634120149D112472762CC
:1028FE0067C082C083E9FB74FF2B1904601A7A004B
:10290E00800808E8C3941440F90A9002A5E0F8EA9A
:10291E00C39850E1780080EBD083D0822274F712F6
:10292E000B84EAFCEBFDE9FE7A557B55802FEAF924
:10293E00EBFA8C828D83E0F521EA652125E0FAE43D
:10294E0033FBE42AF58274013BF583E493FAA3E4A6
:10295E009369FB8C828D83A3AC82AD831EEE70CE09
:10296E007F02020BEAC082C083800BE98A828B83CE
:10297E00F0A3AA82AB83ECF874FF281C0470ECD091
:10298E0083D08222C082C083E9701C90020174FF42
:10299E00F0900206E4F0A3F0900205F090020274AB
:1029AE0003F0A3E4F0A3F0D083D08222C082C083D0
:1029BE00E4801B900203E06013E014F0E0700D90D1
:1029CE0002027404F0900341E04410F0740160E3DD
:1029DE00D083D0822274F8120B8490024B74FFF0D5
:1029EE00A3F0A3F0A3740FF07F01020BEA12487E4E
:1029FE00022A012274F8120B8490026BE4F090020A
:102A0E005CF0900261F0A3F0A3F0A3F090025DF0F1
:102A1E00A3F0A3F0A3F0900265F0A3F0A3F0A3F04F
:102A2E00900269F0F9122A797F01020BEAC082C086
:102A3E0083C2AF900256E02401F0A3E03400F0D23E
:102A4E00AFD083D08222C082C083900252E0240194
:102A5E00F0A3E03400F0900256E0F8A3E0F9900203
:102A6E0054E8F0A3E9F0D083D0822274F8120B84DC
:102A7E00E970117C0A79007A527B02122973900256
:102A8E006AE4803CC2AF900254E0F8A3E0F9A3C31D
:102A9E00E098F0A3E099F0900252E4F0A3F0A3F0D6
:102AAE00A3F0D2AFA3C3E09409A3E094074009902A
:102ABE0002567408F0A314F0A3E4F0A3F0A3F0A35D
:102ACE00F07F01020BEAC082C0839028F2E0F890FA
:102ADE000B19E0C398403A90090FE0C41354075401
:102AEE00036401790160051234B58008123432791D
:102AFE00011233499008F8743CF0900D93E0900861
:102B0E00FBF090092E743CF0A3E4F0124CC4122E8C
:102B1E00A890090DE054DFF0D083D0822274F31216
:102B2E000B8490090FE0FAA3E0FBEAA2E0503C9080
:102B3E000914E054027039EA5410702F90092FE0F6
:102B4E007029900D3D782112098B852226E5265499
:102B5E00107010EB5402600BE52154027005EB541B
:102B6E00018006900962E05410600543A6208003A0
:102B7E0053A6DF53A5DF53A4DFEAA2E05008900965
:102B8E0014E054026003022C28EA54106003022C55
:102B9E0023EAC41354075403707B900932E0707516
:102BAE0090092FE0706F90092EE07069900911E086
:102BBE00F521A3E0F52274067821120AF2E52154DC
:102BCE00077052900D251209E0E8494A4B600690B5
:102BDE0008C5E06040900D211209E0E8494A4B70AB
:102BEE0034902419C082C08390095E782112098B1B
:102BFE00D083D082E4935521F8A3E4935522F9E8CB
:102C0E004970129011FA782112099A9008F17821E0
:102C1E00120615700543A608800353A6F753A5F7B1
:102C2E0053A4F77F06020BEAC082C083E9C3945710
:102C3E0050287401C0E0740759F8D0E0B800028043
:102C4E0004C333D8FCF8E9131313541FFA74C62ABD
:102C5E00F582E43408F583E048F0D083D08222C0B8
:102C6E0082C083E9C3945750297401C0E074075998
:102C7E00F8D0E0B800028004C333D8FCF4F8E913AE
:102C8E001313541FFA74C62AF582E43408F583E050
:102C9E0058F0D083D0822274F3120B8474E929F594
:102CAE0082E43411F583E493F525EA75F007A4F870
:102CBE00A9F074AD28FE742639FF75260080051222
:102CCE002C6D0526E526C394075027852621EE2573
:102CDE0021F582E43FF583E493F9852521752200E1
:102CEE00E5267821120AE2E521A2E050D2122C3616
:102CFE0080D07F06020BEA74F7120B84900911E064
:102D0E005402607BEA4B60777E0080010E74BC2E0D
:102D1E00F8E43405F9E82415FCE93403FD8C828DC2
:102D2E0083E0FFE82416F582E93403F583E06F7043
:102D3E00DB8C828D83E0F460010EEEC3941E503F57
:102D4E008A828B83E493FC74BC2EF8E43405F9EC90
:102D5E00C0E0E82415F582E93403F583D0E0F08A6B
:102D6E00828B83A3AA82AB83E493FDEC6D70CAEDD4
:102D7E00C0E0E82416F582E93403F583D0E0F07F55
:102D8E0002020BEAC082C0838A828B83E49390088E
:102D9E00F6F0A3E4F08A828B83A3AA82AB83122D72
:102DAE0005D083D0822274F7120B84E9FE900911AC
:102DBE00E0540260299008F67449F0A3E4F0EEC3E3
:102DCE0094055010744029F582E43426F583E4937B
:102DDE009008D1F0122D057A827B26122D057F02E6
:102DEE00020BEA74F7120B8474EC120B14A831A9BF
:102DFE003288218922AE21AF2275211475220078E6
:102E0E0021120C2EEAFCEBFD7402120B72126D9C59
:102E1E007402120B2A853182853283E0700E7401A2
:102E2E00120B60E070068048E8FEE9FF8E828F8309
:102E3E00E0F87401687043A3AE82AF8390090FE08F
:102E4E005401F8A3E05401F97401687001E96009B6
:102E5E008E828F83E0F9122C368E828F83A3A88206
:102E6E00A9838E828F83E0FA88828983E06A70B8A4
:102E7E007414120B2A7F02020BEA74026870D1A33B
:102E8E00AE82AF83E0F8C4540FFA740F58F9740F82
:102E9E006970027910122CA580BF74F1120B847424
:102EAE00F0120B147C0B7D007AC67B0812D0C590F5
:102EBE0011FE782112099AAA21AB22AC23AD24125D
:102ECE00D313E970107C0B7D0079FF7AC67B081254
:102EDE00D1F002333C90090FE05481F8A3E0540185
:102EEE00F974816849700302333C90036CE531F04C
:102EFE00A3E532F07C207D0079FF7AD17B0812D1D8
:102F0E00F090090FE054F7F09008F6E4F0A3F0907B
:102F1E000911E04402F07AF17B08129ABBE054FDED
:102F2E00F09008F7E0F954076006E9540704800AA8
:102F3E00A83190036CE0C398C333FF790412D0F329
:102F4E00853182853283782112098B7E009008F6B6
:102F5E00E0F8540714601B14601814605C14605978
:102F6E00147003022FF7147003022FFC1460030277
:102F7E003001E85408603E900DDFE0F8C394025033
:102F8E0034E8FE901202782512099AAA25AB26ACD7
:102F9E0027AD2812D313E9701890090FE05408706A
:102FAE0010EE7005901206800390120A7821120816
:102FBE00BA740280170E0E8022E85408601B900D22
:102FCE00E0E0F8C394045011E8FE7404C39E33335A
:102FDE0054FC782112085C80027E049008F6E054BE
:102FEE0040601074012EFF800A0E7F0280050E0EC7
:102FFE000E7F04EE6010743B2EF582E43426F583CA
:10300E00E493F9122C369008F6E05407F860317408
:10301E00FF2825E0F8E433F9744D28F5827426393B
:10302E00F583E493C0E0740193F583D082AA82AB5A
:10303E0083EA4B600B74112AFA74243BFB122DF1B8
:10304E007E078012EEFAE521540FF9122CA57404B6
:10305E00782112085C1E74FF2F1F0470E7E52145CE
:10306E002245234524703D90090FE05408604E9090
:10307E0008F1782112098B7410782112085C749073
:10308E00652145227032EEFA7910122CA5EE75F0FC
:10309E0007A4F8A9F074B328F582742639F583E4F1
:1030AE0093F98016EEFAE521540FF9122CA574044B
:1030BE00782112085C1E80A57930122C3690090FEB
:1030CE00E0A2E040030231E4900913E05440605561
:1030DE009008F6E05420704D900D00E0F8C3940A6D
:1030EE00502F740128FF7523048022EFC3952340CF
:1030FE001A85232174482521F582E43426F583E4CC
:10310E0093F9122C36E523CFC39FFF1523E52370C9
:10311E00DA7995122C367A357B0C12D353E9700579
:10312E007962122C36900CF6E070030231BC9008D6
:10313E00F6E0541070789007B0E0F8A3E0F58388BD
:10314E0082E0F521C394045021900910E0540170DF
:10315E000890096BE05402701174452521F582E444
:10316E003426F583E493F9122C36900BF6E06401C5
:10317E006019900D86E0A2E15011795A122C367A20
:10318E00317B0C12D353E97025801A900D3D7821B6
:10319E0012098B90120E7821120937E5214522452E
:1031AE002345246004796F8002795A122C369008D8
:1031BE00FEE060229008FDE025E0F8E433F9747437
:1031CE0028F582742639F583E4932411FAA3E49347
:1031DE003424FB122DF17AD17B08122DF19008C503
:1031EE00E06018900910E05402603E900D3D782189
:1031FE0012098BE521540270308033900D2512098F
:10320E00E0E8494A4B700C900D211209E0E8494A5A
:10321E004B601B90090FE05401F8A3E05401F974C0
:10322E00016870037401697005798C122C3690094F
:10323E005FE054406041900911E0F521A3E0F522D2
:10324E0074067821120AF2E5215407C39404401A39
:10325E00900D3D782112098B9012127821120937A8
:10326E00E5214522452345246008900910E05401CC
:10327E0060057990122C367A417B0D12D39CE96051
:10328E0005796A122C36900960E0A2E05005792F7C
:10329E00122C36900962E054087028900D3D78216A
:1032AE0012098B9012167821120937E52145224515
:1032BE00234524600E900935E0600D900910E0540E
:1032CE000160057972122C3690090FE05401F8A3B3
:1032DE00E05401F97401687001E9602990095EE01B
:1032EE00540460057928122C36900911E0F521A3BB
:1032FE00E0F52274067821120AF2E52154076005E2
:10330E007988122C36900C92E0C39403500EA3E0F1
:10331E00C394035007A3E0C394C840057976122CDA
:10332E00367A089008FCE004540FF9122CA5124EC0
:10333E00347410120B2A7F08020BEA74F5120B84F8
:10334E00E9FE90090FE0547FF090121A78211209CD
:10335E009AAA21AB22AC23AD2412D313E9700990A3
:10336E0008F5E0C39402403290121E782112099A99
:10337E00AA21AB22AC23AD2412D313E970249008FA
:10338E00F5E0FA900CF6E024FFF8E434FFF9C3EA16
:10339E0098E499A2D265D03350089008F5E004F075
:1033AE00807D90090FE0C413540754036401700A22
:1033BE00EE7007790012343280229008FCE004F09F
:1033CE009008FBE0F8A3E0C3984016EE700E79006B
:1033DE00123432900932E06003E014F09008FCE4FD
:1033EE00F07521057522007821120C2E9008FCE054
:1033FE0075F005A4F8A9F09008FFE0FA75F0EFA4B7
:10340E00CAACF02CFB74292AFA74293BFBEA28FC7F
:10341E00EB39FD7AF17B0812B8017402120B2A7F88
:10342E0004020BEA74F7120B8490090FE0549FFA12
:10343E00A3E0FB7403697015EA444090090FF0A3F2
:10344E00EBF09008FA74C7F0A37402804DE9C394B0
:10345E0002501C892175220074057821120B01E59A
:10346E00215460FCEA4C90090FF0A3EBF0800CEABB
:10347E00444090090FF0A3EBF07900E99008FA7040
:10348E0003E480027463F0749229F582E4340DF53E
:10349E0083E09008FBF0E99008FFF090090FE054EC
:1034AE007FF07F02020BEA74F8120B841234329012
:1034BE0008FC7480F07901123349900DE1E0900818
:1034CE00F8F07F01020BEA74F5120B8490090FE0FD
:1034DE00FAA2E0505590094FE0FC900DE2E025E095
:1034EE00F8E433F9EC98E499C365D033502A90127E
:1034FE0022782112099A9005BC78211206156018BF
:10350E00EAC41354075403F87402686003E87008A1
:10351E0090090FE0441080559005BC74B8F0A37468
:10352E003EF0A37424F0A37403F09008FEE0600351
:10353E00E014F090090CE0602B90092FE06003E09E
:10354E0014F090092EE06003E014F09008F8E014F7
:10355E00F0E070107900123349900DE1E09008F818
:10356E00F0124CC4122EA890090FE054EFF0122B5B
:10357E002B7F04020BEA74F5120B84124CC49012CA
:10358E0022782112099A9005BC7821120615600D39
:10359E007C0B7D0079FF7AC67B0812D1F0124E3477
:1035AE0079001234B590092EE4F07F04020BEA7410
:1035BE00F5120B8474F8120B14AA31AB32123E774B
:1035CE00900B12E0A2E1503090095EE0F8A3E044C7
:1035DE0080F990095EE8F0A3E9F0900D3D78211294
:1035EE00098BE5215408700A790712D90479031260
:1035FE00D81B9008C4743CF07408120B2A7F040286
:10360E000BEA74F8120B841235BD9008B4E4F0A3E3
:10361E00F0A3F0A3F012B2F07F01020BEA74F112E4
:10362E000B8474E5120B14853182853283EAF0A384
:10363E00EBF0A3ECF0A3EDF0853182853283120C12
:10364E00417C007D00740F120B72123A3E7404120C
:10365E000B2AAA31AB3212D89EE9FE7521037522D0
:10366E00007821120C2E7410120B60AC82AD837494
:10367E0006120B7212D29B7402120B2A7821120CB4
:10368E002E740D120B7A740A120B60AA82AB83127F
:10369E00D29B7402120B2A752101EE7821120B01B6
:1036AE007407120B60E521F0790A12D97F740412A7
:1036BE000B72123F2A900B12E0C2E1F07404120B4F
:1036CE0060E0F912D335E99008C4F0853182853275
:1036DE0083782112098B9011FE78211208BA900876
:1036EE00B878211209AD782112084CA3782112095D
:1036FE00AD8531828532831209E09008B01209EC53
:10370E00853182853283782512098B9008C4E0F5C5
:10371E0021E4F522F523F524782579211208E49089
:10372E0008B478251209AD7AA17B0C12D5E97AA5D9
:10373E007B0C12D5E97AA97B0C12D5E990095EE0D3
:10374E00F8A3E0547FF990095EE8F0A3E9F0741B4A
:10375E00120B2A7F08020BEA7C037D007AB07B08ED
:10376E0002377174F1120B8474EE120B14740A1278
:10377E000B60ECF0A3EDF0EAFEEBFF740E120B60A3
:10378E00E4F0A3F0A3F0A3F0740A120B60E054036C
:10379E00F521740365217013740C120B72123E77AF
:1037AE00740D120B60E0541FF08057EE4F70030241
:1037BE003A2C74322521F582E43412F583E493F524
:1037CE0021F9126EE9E964017003023A2C752200A8
:1037DE00740A120B60A3E0544078216011120C2E73
:1037EE00EEFCEFFD740E120B7212D29B800F120CB8
:1037FE002EEEFCEFFD740E120B72126D9C74021203
:10380E000B2A7521057522007821120C2E7CF57D70
:10381E0013740E120B72126EAB7402120B2AEA4B59
:10382E004C4D700B7AFF7BFF7CFF7DFF023A347E9E
:10383E0000802A740C120B60E5822EF582E435832B
:10384E00F583E0F912D335E9C0E07404120B60E59C
:10385E00822EF582E43583F583D0E0F00EEEC3942C
:10386E000640D07405120B60E014FA7404120B605B
:10387E00E0FC75F06DA4CCA8F028FDE02403F52142
:10388E00E43400F52274027821120AE2EC2521F8C4
:10389E00ED3522F9E8FCE9FD853182853283ECF0C5
:1038AE00A3EDF0A3E4F0A3F0FE804374262EF58280
:1038BE00E43412F583E493F521E4F522F523F5249F
:1038CE0085318285328378211208D17404120B60FF
:1038DE00E05403701874016E70139011CF7821129A
:1038EE00099A85318285328378211208D10EEEC372
:1038FE009A40B8853182853283C082C083740612A5
:10390E000B60E0F521E4F522F523F524D083D08277
:10391E0078211208A790123D782512099A782179FC
:10392E00251206E47407120B60E0F525E4F526F582
:10393E0027F52878217925120894901241782512BE
:10394E00099A782179251206E47408120B60E0F5C5
:10395E0025E4F526F527F528782179251208949087
:10396E001241782512099A782179251206E47409F4
:10397E00120B60E0F525E4F526F527F52878217978
:10398E002512089485318285328378211209AD85FE
:10399E003182853283120C417C007D007408120B3B
:1039AE0072123A3E7404120B2A75210675220078A3
:1039BE0021120C2E740E120B7A7406120B72126EEA
:1039CE00AB7402120B2AEA4B4C4D7052740A120B56
:1039DE0060E0540CF52160117404652170167C3C76
:1039EE007D00AA31AB3212C86B85318285328312CB
:1039FE0009BC80327408652170248531828532833A
:103A0E00782112098B901245782512099A7821791E
:103A1E0025120764AA21AB22AC23AD2480087A00BC
:103A2E007B007C007D007412120B2A7F08020BEAC9
:103A3E0074F2120B8474FA120B148A258B26ECFE88
:103A4E00EDFFEE5403FCEE1313543F5403F52774AD
:103A5E00036C6003023B01AA31AB32123E77740352
:103A6E006527701C7401120B60E0C4135407F8C074
:103A7E00E07403120B60D0E0F07407687002E4F09B
:103A8E007401120B60E0541FF0A827E828F8743573
:103A9E0028FAE43412FB8A828B83A3EF5440602908
:103AAE00E493F5217522007821120C2E8A828B83E5
:103ABE00E493F87402120B60E58228FCE43583FD72
:103ACE00AA25AB2612D29B8027E493F521752200FE
:103ADE007821120C2E8A828B83E493F87402120BD7
:103AEE0060E58228FCE43583FDAA25AB26126D9C89
:103AFE00023D5C7414120B601209E0E8494A4B70E7
:103B0E0018A827E828F87900743628F582E43412CC
:103B1E00F583E493FC7D00802A9011FE7821120932
:103B2E009A7414120B6078211206157020A827E8DB
:103B3E0028F8743628F582E43412F583E493FC7D7C
:103B4E00007999AA25AB2612D1F0023D61740212BA
:103B5E000B60E4F07403120B60E4F07404120B605B
:103B6E00E4F07405120B60E4F0EC60051460108054
:103B7E003C7C3C7D007414120B7212C86BEAF07C14
:103B8E003C7D007414120B7212C86BEAC0E0740410
:103B9E00120B60D0E0F07C187D007414120B7212C0
:103BAE00C86BEAC0E07403120B60D0E0F07414121C
:103BBE000B601209E0E8494A4B7003023CB99011C0
:103BCE00FE782112099A7414120B6078211208D112
:103BDE007CB57D057414120B7212C86B7414120B23
:103BEE0060782112098BE521333354FC85318285AF
:103BFE003283F0EA4B70117401120B607401F00401
:103C0E00120B607401023CC9EA24FF1AEB34FFFB6D
:103C1E007414120B60EAF0A3EBF0A3E4F0A3F07CB3
:103C2E006D7D017414120B7212C86B7414120B603A
:103C3E00782112098B853182853283E02521F0E0CF
:103C4E00540370050AEA70010B7401120B60E480D4
:103C5E000FC3EA98FAEB9400FB7401120B60E004B8
:103C6E00F0E0F52174016521701085318285328373
:103C7E00E05403700575211D800F74262521F582F1
:103C8E00E43412F583E493F521852182A882C3EAF8
:103C9E0098EB940050BBEA04C0E07402120B60D0A3
:103CAE00E0F07401120B60E00480108531828532E1
:103CBE0083E4F0A3F07402120B60E4F0752100852A
:103CCE002123853182853283E5822523F582E435F1
:103CDE0083F583E0F912D343E9F00521E521C3947E
:103CEE000640DCA827E828F8743528F8E43412F9E1
:103CFE00E8FAE9FB8A828B83A3EF54406029E493B0
:103D0E00F5217522007821120C2E8A828B83E49382
:103D1E00F87402120B60E58228FCE43583FDAA25B7
:103D2E00AB2612D29B8027E493F5217522007821D1
:103D3E00120C2E8A828B83E493F87402120B60E5C8
:103D4E008228FCE43583FDAA25AB26126D9C7402F5
:103D5E00120B2A7406120B2A7F07020BEA74F11259
:103D6E000B8474FA120B147402120B60EAF0A3EBBC
:103D7E00F0A3ECF0A3EDF07402120B60782112099F
:103D8E008B1237668A258B268C278D2878217925EC
:103D9E001208E47402120B601209BC12362B901238
:103DAE0049782512099A7402120B60782512069230
:103DBE00500479118002799112D81B853182853297
:103DCE00837421F0A3740DF07402120B60E4F0A35F
:103DDE00F0A3F0A3F08071853182853283E0F8A3E1
:103DEE00E0F5838882782512098BE525452645273F
:103DFE004528602890124D78251206C1501E782550
:103E0E0079211208947825120C2A7404120B60E0A2
:103E1E00FAA3E0FB12D57E7404120B2A853182853B
:103E2E003283E02404F8A3E03400F9853182853230
:103E3E0083E8F0A3E9F09011CF782512099A740265
:103E4E00120B6078251208D1901251782512099A1A
:103E5E007402120B6078251206925003023DE5742F
:103E6E0006120B2A7F08020BEA74F7120B8474F801
:103E7E00120B14EAFEEBFF12530D9002E3E08531B4
:103E8E0082853283F09002E4E0C0E07401120B6090
:103E9E00D0E0F09002E5E0C0E07402120B60D0E0DA
:103EAE00F09002E9E0C0E07403120B60D0E0F090F5
:103EBE0002E6E0C0E07404120B60D0E0F09002E77E
:103ECE00E0C0E07405120B60D0E0F09002E8E0C0B4
:103EDE00E07406120B60D0E0F075210375220078B5
:103EEE0021120C2E7406120B60AC82AD83EEFAEF2B
:103EFE00FB12D29B7402120B2A7821120C2E740222
:103F0E00120B7AEE2403FAE43FFB12D29B740212D8
:103F1E000B2A7408120B2A7F02020BEAC082C0839E
:103F2E008A828B83A3A3A3A3A3E09002DFF08A82ED
:103F3E008B83A3A3A3A3E09002DEF08A828B83A3DC
:103F4E00A3A3E09002DDF08A828B83A3A3E090020C
:103F5E00DCF08A828B83A3E09002DBF08A828B8373
:103F6E00E09002DAF0125350D083D0822212473EF4
:103F7E00023F8174F7120B847C0080010CECC39419
:103F8E001150468C2175220074027821120B017497
:103F9E00552521F874123522F988828983E493FA23
:103FAE00740193FB900B5BE06A7003A3E06B70CC23
:103FBE0088828983A3A3E49390026EF0888289831A
:103FCE00A3A3A3E49390026FF0ECC39411400A9064
:103FDE00026E740AF090026FF07F02020BEA74F127
:103FEE00120B847AF27B1012418D8A218B228C2344
:103FFE008D249002B778211206A29002B77825126E
:10400E00098B500A9002BBE02AC39525800BE5254B
:10401E00F42A04F89002BBE028F09002B77821123F
:10402E0009AD9002BBE0C313F8900270E028F09047
:10403E0002BBE0A2E0E433F090026EE0F890027072
:10404E00E098402B90026EE0F5F0900270E084F95B
:10405E00F5F090026EE0A4F8900270E098F0E9F5A9
:10406E00F090026FE0A4F890026CE028F0E4F07F8C
:10407E0008020BEA74F7120B8490027DE4F0A3F0B1
:10408E0090027804F0900B5FE0F8A3E0F97AE87BF9
:10409E0003120A89E8FCE9FD900B5DE0F8A3E0F954
:1040AE007A647B00120A898821EC88F0A4CCA8F0EF
:1040BE0089F0A428F88521F0EDA428FDEC2CFCED68
:1040CE0033FDECF8EDF97AE87B03120A89E8FCE996
:1040DE00FD900279ECF0A3EDF0A3E4F0A3F09002D2
:1040EE0074F0A3F0A3F0A37402F0FF020BEAC082F7
:1040FE00C083A28750317800790080060008E870EE
:10410E000109C3E89409E9940040F1780079008030
:10411E000508E8700109C3E8944CE99400505B90DF
:10412E002885E070EC8053A28078005030790080B2
:10413E00060008E8700109C3E894F0E9940040F124
:10414E0078007900C3E89480E99407502D90288573
:10415E00E0602708E870ED0980EA007801E860FA6F
:10416E0078007900800508E8700109C3E89402E937
:10417E0094005006902885E070ECD083D082227493
:10418E00F1120B8490288474CCF0E4F02AF582E4CA
:10419E003BF583E01240FC902885E0600A7A007BB4
:1041AE00007C007D008058902883E0F525E4F526FC
:1041BE00F527F52874087825120875902882E0F501
:1041CE0021E4F522F523F52478257921120961746D
:1041DE00087825120875902881E0F5217825792137
:1041EE0012096174087825120875902880E0F5216F
:1041FE0078257921120961AA25AB26AC27AD287F37
:10420E0008020BEA74F1120B84780090288474CCA7
:10421E00F0E4F0902885E0600908E8C3942140F3AB
:10422E00803BEA902880F0EBA3F0ECA3F0EDA3F036
:10423E00740F120B60E0F8A3E0F988828983E4F032
:10424E00D287A28740070AEAC3941F40F500780080
:10425E00902885E0600B08E8C3942140F379008034
:10426E000279017F08020BEA74F1120B8478009038
:10427E00288474CCF0E4F0902885E0600908E8C347
:10428E00942140F3803AEA902880F0EBA3F0ECA35F
:10429E00F0EDA3F0C287A28750070AEAC3941F402D
:1042AE00F5740F120B60E0F8A3E0F988828983E4BD
:1042BE00F000F8902885E0600B08E8C3942140F3E5
:1042CE007900800279017F08020BEA74F1120B84E7
:1042DE00780090288474CCF0E4F0902885E0600992
:1042EE0008E8C3942140F3802DEA902880F0EBA3D8
:1042FE00F0ECA3F0EDA3F0740F120B60E0F8A3E066
:10430E00F988828983E4F000F8902885E0600B0834
:10431E00E8C3942140F37900800279017F08020BF3
:10432E00EAC082C083902858E4F0A3F0A3F0A3F073
:10433E00A3F0A3F0902863F090286504F0E990288C
:10434E00646003E48002740FF0D083D08222D2879F
:10435E007800A287400708E8C3941540F52274F54B
:10436E00120B84E9FFC28475217D752228782112F3
:10437E000C2E9011D7782112099AAA21AB22AC23C8
:10438E00AD241242D97402120B2A75217875222897
:10439E007821120C2E9011D7782112099AAA21ABEE
:1043AE0022AC23AD241242D97402120B2A7521F4C9
:1043BE007522107821120C2E90129D782112099AD6
:1043CE00AA21AB22AC23AD241242D97402120B2ABD
:1043DE007521FA7522107821120C2E90129D7821DB
:1043EE0012099AAA21AB22AC23AD241242D974022F
:1043FE00120B2AEF7521EF75221078216008120C2E
:10440E002E9012A18006120C2E9012A57821120960
:10441E009AAA21AB22AC23AD241242D97402120BFC
:10442E002A7E00802B8E21E52124F0F521E4341024
:10443E00F5227821120C2E9011D7782112099AAA02
:10444E0021AB22AC23AD241242D97402120B2A0ED8
:10445E00EEC3940440CF7E00802B8E21E52124F6FE
:10446E00F521E43410F5227821120C2E9011D77814
:10447E002112099AAA21AB22AC23AD241242D9747F
:10448E0002120B2A0EEEC3940440CF75217D7522C5
:10449E00287821120C2E9012A9782112099AAA219D
:1044AE00AB22AC23AD241242D97402120B2A752111
:1044BE007D7522287821120C2E9012AD78211209CA
:1044CE009AAA21AB22AC23AD241242D97402120B4C
:1044DE002A75217D7522287821120C2E9011D778FD
:1044EE002112099AAA21AB22AC23AD241242D9740F
:1044FE0002120B2A7E00802B8E21E52124F0F5215D
:10450E00E43410F5227821120C2E9011D778211256
:10451E00099AAA21AB22AC23AD241242D9740212FD
:10452E000B2A0EEEC3940440CF7E00802B8E21E525
:10453E002124F6F521E43410F5227821120C2E9068
:10454E0011D7782112099AAA21AB22AC23AD2412DD
:10455E0042D97402120B2A0EEEC3940440CF752179
:10456E00F57522107821120C2E9011CF7821120998
:10457E009AAA21AB22AC23AD241242D97402120B9B
:10458E002A7521FB7522107821120C2E9011CF78EE
:10459E002112099AAA21AB22AC23AD241242D9745E
:1045AE0002120B2AEF7521787522287821602B12C2
:1045BE000C2E9012B1782112099AAA21AB22AC23AB
:1045CE00AD241242D97402120B2A75217E7522284F
:1045DE007821120C2E9012B58029120C2E9012B941
:1045EE00782112099AAA21AB22AC23AD241242D90A
:1045FE007402120B2A75217E7522287821120C2E38
:10460E009011D7782112099AAA21AB22AC23AD249E
:10461E001242D97402120B2A75217975222878213B
:10462E00120C2E9011D7782112099AAA21AB22AC26
:10463E0023AD241242D97402120B2A75217A7522E7
:10464E00287821120C2E9012BD782112099AAA21D7
:10465E00AB22AC23AD241242D97402120B2A75215F
:10466E007D7522287821120C2E901299782112092C
:10467E009AAA21AB22AC23AD241242D97402120B9A
:10468E002A75217B7522287821120C2E9011D7784D
:10469E002112099AAA21AB22AC23AD241242D9745D
:1046AE0002120B2A75217C7522287821120C2E906D
:1046BE0011D7782112099AAA21AB22AC23AD24126C
:1046CE0042D97402120B2A9002737401F090027296
:1046DE00E4F07F04020BEA790012432F12435C755B
:1046EE00CEA575CF5A790012436C75CEA575CF5AEB
:1046FE00024701023F7BC082C083900270E004F04B
:10470E0090026EE0F8900270E0C398401E90026E28
:10471E00E0F8900270E0C398F090026FE0F890021B
:10472E006CE028F0900341E04404F0D083D0822264
:10473E0074F5120B849002A5E064017521F47522C4
:10474E001078217008120C2E900B658006120C2E1C
:10475E00900B611209BC1242D97402120B2A7521F8
:10476E00FA7821120C2E900B611209BC1242D974E8
:10477E0002120B2A7521F57821120C2E900B69125C
:10478E0009BC1242D97402120B2A7521FB78211230
:10479E000C2E900B691209BC1242D97402120B2A0C
:1047AE007E0080378E82858221752200E52124E8E5
:1047BE00F523E43410F5247823120C2E740278219C
:1047CE00120B0174712521F582740B3522F58312BB
:1047DE0009BC1242D97402120B2A0EEEC394074082
:1047EE00C39002A5E0640170457521F4752210781E
:1047FE0021120C2E900B651209BC1242D9740212B2
:10480E000B2A7521EB7821120C2E900BA31209BCEA
:10481E001242D97402120B2A7521EC7821120C2E39
:10482E00900BA71209BC1242D97402120B2A7521E1
:10483E007B7522287821120C2E900B8DE0FAE4FB6A
:10484E00FCFD1242D97402120B2A75217C782112BA
:10485E000C2E900B8EE0FAE4FBFCFD1242D9740292
:10486E00120B2A900BABE0902858F07F04020BEA53
:10487E0074F7120B8475210F7522007821120C2EFD
:10488E007C357D137A7F7B02126D9C7402120B2A8B
:10489E00900287E0F874096860077490686002E41B
:1048AE00F0790F7A7F7B0212292B90028EEAF0A309
:1048BE00EBF07F02020BEA222274F5120B841254E3
:1048CE00B8901222782112099A9005BC782112060E
:1048DE0015600B9008C0E4F0A3F0A3F0A3F09012C3
:1048EE00C5782112099A9008C07821120615600524
:1048FE001235848006124CC4124E34900AB67432AD
:10490E00F0A3740FF0900BF8E0646670091248C6BD
:10491E009009187421F01236109008B01209E09028
:10492E0009431209EC9012C5782112099A9008C019
:10493E00782112061560229008C0E4F0A3F0A3F0CF
:10494E00A3F090095EE0F8A3E054FDF990095EE84B
:10495E00F0A3E9F0790512D97F1234D512551F90C4
:10496E00090DE04408F0125CCA12641A90093474FE
:10497E0001F0900D3D782112098BE522542060271D
:10498E00900D251209E0E8494A4B60067A257B0D09
:10499E008010900D291209E0E8494A4B600C7A29E3
:1049AE007B0D12644A80031248C6900BF6E0640138
:1049BE006005752101800375210075220090096242
:1049CE00E0FAA3E054FDFB74097821120B01E522F5
:1049DE005402F9EAF8EB49F9900962E8F0A3E9F01C
:1049EE00900E11E0A2E0501290096AE0F8A3E044A4
:1049FE0002F990096AE8F0A3E9F090090AE0600371
:104A0E0012B2F012D8D97A477B0912C8EE900D3D3A
:104A1E00782112098BE521A2E0500312D7E4900908
:104A2E000EE04440F07F04020BEAC082C08390097E
:104A3E000EE054C0F9E470037440697024900909C3
:104A4E00E4F090090EE04480F0900BF7E0643370D0
:104A5E0009A3E0646660031248C590090EE0547F16
:104A6E00F0D083D08222C082C083900904E014F07B
:104A7E00900B12E0A2E050071258BBE0C2E0F0909B
:104A8E000912E054EFF0D083D08222C082C083900E
:104A9E00090AE4F090094FE0F8C394D25018E8C325
:104AAE0094154022900912E05440701AE04440F0F0
:104ABE00A3E04401800FE024FEF0900913E05410AF
:104ACE006004E054EFF01234D5900953E06010E02A
:104ADE0014F0E0700A90090DE0440CF0127620906C
:104AEE000913E054026012900BF6E06401600A12A2
:104AFE005A88900913E054FDF0D083D082227901B8
:104B0E00124C8F79012274F5120B847901124C8F9D
:104B1E0043A62053A5DF53A4DF43A60853A5F7539E
:104B2E00A4F7124CC4901222782112099A9005BC57
:104B3E007821120615700D7C0B7D0079FF7AC67BED
:104B4E000812D1F0124E3479017AFA7B00124C8C95
:104B5E009008BC782112098B782112084C9008B865
:104B6E00782112061560119008B0E4F0A37449F094
:104B7E00A374D1F0A37412F07C0F7D007A4C7B0BE2
:104B8E0012D0C590093374C8F0791412D97F7F04FE
:104B9E00020BEA74F5120B84124C8D124F9C90038B
:104BAE0038E4F0900339F09012C9782112099A90E6
:104BBE0005BC782112061560279012227821120961
:104BCE009A9005BC782112061560157C907D057AA9
:104BDE00BC7B0512D0C57C0F7D007A4C7B0B800E02
:104BEE00748E24BCFC74FC3405FD7A027B0912D051
:104BFE00C59008BC782112098B782112084C9008B8
:104C0E00B8782112061560119008B0E4F0A374492B
:104C1E00F0A374D1F0A37412F09002F0E4F0124BF2
:104C2E000CE960047A0180027A0090090FE054FECC
:104C3E00F8A3E0F9EA5401FAE84A90090FF0A3E963
:104C4E00F079FF12D97F90090FE0A2E05005124BC8
:104C5E00148003124C75799912D97F900B16E4F0DB
:104C6E00D2AF7F04020BEA7900024C8FC082C08360
:104C7E0090090FE0A2E0E433F9D083D08222222201
:104C8E0022024C8EC082C0839028ACE0D2E2F0A308
:104C9E00E0D2E2F09028ACE0D2E1F0A3E0D2E1F075
:104CAE00D083D08222C082C083900290EAF0A3EB20
:104CBE00F0D083D08222C082C0839028B4E0440F0B
:104CCE00F09028B8E04403F09028BCE074FFF09018
:104CDE0028D5E0443FF09028B5E054F0F09028B984
:104CEE00E054FCF09028BDE0E4F09028D6E054C0EB
:104CFE00F0C28390285E7404F0902C1E7491F0A381
:104D0E00E4F0A374FFF0A3747CF0A3E4F0A3F0D05E
:104D1E0083D08222C082C083124D47902C1FE4F0B4
:104D2E00A3F0A3F0A3F0A3F079051228FF902C1E98
:104D3E00E4F0D283D083D08222C082C0837C0B79F0
:104D4E0000900290E0FAA3E0FB122973124D7DD081
:104D5E0083D08222C082C0837C0B79FF900290E0C8
:104D6E00FAA3E0FB122973124D7DD083D08222C0AC
:104D7E0082C083900290E0FAA3E0FB124D91D083A3
:104D8E00D08222C082C0838A828B83E0902C06F070
:104D9E008A828B83A3E0902C07F08A828B83A3A355
:104DAE00E0902C08F08A828B83A3A3A3E0902C09B9
:104DBE00F08A828B83A3A3A3A3E0902C0AF08A82AD
:104DCE008B83A3A3A3A3A3E0902C0BF08A828B83E7
:104DDE00A3A3A3A3A3A3E0902C0DF08A828B83A39D
:104DEE00A3A3A3A3A3A3E0902C0EF08A828B83A38C
:104DFE00A3A3A3A3A3A3A3E0902C0FF08A828B837B
:104E0E00A3A3A3A3A3A3A3A3A3E0902C10F08A8231
:104E1E008B83A3A3A3A3A3A3A3A3A3A3E0902C116B
:104E2E00F0D083D08222C082C083900290E0FAA399
:104E3E00E0FB124D91D083D08222024E4BC082C035
:104E4E00839002937404F0900297F090029404F011
:104E5E00900299F0A3F090029DF0D083D08222C0F0
:104E6E0082C0839028A8E4F0A3F0A3F09028ACF0C1
:104E7E00A3F0A3F09028C5F0A3F0A3F0A3F0902820
:104E8E00B074FFF0A3E4F09028B4740FF0A3E4F034
:104E9E009028B874FFF0A3E4F09028BC74FFF0A340
:104EAE00E4F09028C074FFF0A3E4F09028D574FFCE
:104EBE00F0A3E4F09028D9F0A3F075A40075A50036
:104ECE0075A60053A4FE53A5FE53A6FE53ADFED009
:104EDE0083D08222438E085389F0438901758CEF6B
:104EEE00758AFFD28CD2A922C28E538EEF5389F7C8
:104EFE00438910EA75F044A4FAA8F075F044EBA4C7
:104F0E0028FB74FFC39AF874FF9BF58DE8F58BD2DE
:104F1E00AB22538EDFC2C975CDF575CC54D2CAD231
:104F2E00AD227800800108E8C3941440F92274F889
:104F3E00120B84E9FF7E008004124F300EEEC39FE9
:104F4E0040F77F01020BEA74F8120B84E9FEEAFFC8
:104F5E007590967597577905124F3C8E9674076E1D
:104F6E00700574404FF5DF7905124F3C75909675BC
:104F7E0097567905124F3C7F01020BEAC082C0831F
:104F8E00D2E990284BE0D2E6F0D083D08222C082C4
:104F9E00C083902D00E4F0A3F0124E6D124CC4129B
:104FAE004D6212515C124EE2124F20124C927A0058
:104FBE007903124F55124F8AD083D08222C082C0FD
:104FCE0083E9FA7800C286C28574046A90286770F5
:104FDE0007E054FC44028003E054FCF0A3E4F0E547
:104FEE00A3A2E0400908E8C3943340F3800FD280B7
:104FFE007800A280400B08E8C3941540F579008034
:10500E00089002A57404F07901D083D08222C08268
:10501E00C083E9FA7800C286C28590286774C0F012
:10502E00A3E4F0E5A3A2E0400908E8C3943340F3FB
:10503E008025D2807800A280400908E8C3941540EC
:10504E00F5801474FF6A7013D2877800A287400B24
:10505E0008E8C3941540F57900801E90285FE4F0AF
:10506E00A37403F0A37420F0A374C4F090286674A4
:10507E0080F09002A57401F0F9D083D0822274F1F1
:10508E00120B8474FC120B149028637497F0791E23
:10509E001228FF7ACE7B1012418D853182853283A4
:1050AE001209C87403120B60E0C39481402385314A
:1050BE0082853283782112098B782112084C901147
:1050CE00CF78211208BA8531828532837821120970
:1050DE00AD853182853283782112098B7410782147
:1050EE0012085C9011DB782512099A782179251225
:1050FE0006E490134478211208BA901348782512CA
:10510E00099A782179251207649002A9782112094B
:10511E00AD90134C782112099A9002A978211206AB
:10512E00929002A7500D745AF0A3F0900250E044F2
:10513E0004800AE4F0A3F0900250E054FBF09028B3
:10514E00637481F07404120B2A7F08020BEAC0828A
:10515E00C0839002487402F0F912B431790012291A
:10516E0092D083D08222C082C0839028A8E0C2E170
:10517E00F09028AAE0C2E1F09028ACE0D2E4F0A3CF
:10518E00E0C2E4F0124D229028C9E4F0A3F090287A
:10519E00CDF0A3F09028B0E04433F0A3E054CCF06F
:1051AE009028ADE0C2E1F09028ACE0D2E1F090287A
:1051BE00A8E0D2E1F0A3E0C2E1F0A3E0C2E1F090FA
:1051CE0028A8E0D2E2F0A3E0C2E2F09028A8E0D254
:1051DE00E3F0A3E0C2E3F043A40153A5FE9028AC94
:1051EE00E0D2E4F0A3E0C2E4F09028ACE0C2E3F039
:1051FE00A3E0C2E3F09028C77404F0D083D08222DB
:10520E0075A80075E80075910022C082C0839028B1
:10521E0020E4F0902828F0902830F0902A05F0D065
:10522E0083D0822274F5120B84902864E4F07521E9
:10523E007D7522287821120C2E9011D77821120913
:10524E009AAA21AB22AC23AD241242D97402120BBE
:10525E002A7521787522287821120C2E9011D77874
:10526E002112099AAA21AB22AC23AD241242D97481
:10527E0002120B2A7800800108E8C3941440F9D278
:10528E00847F04020BEAC082C08343A60243A604B5
:10529E00E5A1A2E04021C280A28040FCE5A1A2E0EF
:1052AE0040157800800108E8C3940340F990286700
:1052BE00E4F0E070FDD2817900D083D08222C082EA
:1052CE00C083C286C285E5A1A2E0402CE5A1A2E082
:1052DE004026C280A28040FCE5A1A2E0401A7800E0
:1052EE00800108E8C3940340F9902867E4F0E07069
:1052FE00FDD2817905124F3C7900D083D08222C035
:10530E0082C08374FF120B14E5DA853182853283F5
:10531E00F07905124F3CE59A9002E3F0E59BA3F07D
:10532E00E59CA3F0E59E9002E9F0E59D9002E6F083
:10533E00E59FA3F0E593A3F07401120B2AD083D05E
:10534E008222C082C0837590967597577905124F49
:10535E003C9002DFE0F5939002DEE0F59F9002DDD7
:10536E00E0F59D9002DCE0F59C9002DBE0F59B9071
:10537E0002DAE0F59A9002E0E0F59E7905124F3CD4
:10538E007590967597567905124F3CD083D0822230
:10539E0074F1120B84E9FE75909675975779021287
:1053AE004F3C7594007595008E25E4F526F527F58E
:1053BE0028901350782112099A782579211206E443
:1053CE009011FE78251208BA85252185262285277B
:1053DE00238528247410782112085CE521F5DBE57D
:1053EE0026F5DCE525F5DD7902124F3C75909675B4
:1053FE0097567521077522007821120C2E7CA67DFA
:10540E001D7ADA7B02126D9C7402120B2A12535013
:10541E007F08020BEA74F1120B8474F8120B1475E8
:10542E0021087522007821120C2E12704DEAFCEB29
:10543E00FD7402120B72126D9C7402120B2A74040C
:10544E00120B60782512098B85318285328378257F
:10545E00120910900DD5E0FA752100752300752400
:10546E0000A2E0500B853182853283782112098BA0
:10547E00EAA2E1500B85318285328378211208F839
:10548E00EAA2E2500778217925120894EAA2E350A5
:10549E0007782179251208E4AA21AB22AC23AD248A
:1054AE007408120B2A7F08020BEA74F5120B849013
:1054BE000C1D782112098B9007B0E0F8A3E0C824E8
:1054CE001CF582E438F58378211208F8900970787B
:1054DE00211209AD900970782112098B9011D7789D
:1054EE0021120658900974501078211209ADA3E4C8
:1054FE00F0A3F0A3F0A3F08013E4F0A3F0A3F0A3C5
:10550E00F0782112083BA378211209AD7F04020B1B
:10551E00EA74F1120B84900D3D782112098B900BD9
:10552E00F6E064017003025670E52254406004D226
:10553E00F08002C2F0A2F0E433F5219009747825D0
:10554E0012098B900C0D78251206924036A3782501
:10555E0012069250057521018029E525452645271D
:10556E0045286005752102801A900D457821120993
:10557E008B900978782112069250057521038003CD
:10558E00752104900911E0543FFAA3E054FEFB7517
:10559E00220074067821120B01A821E5225401F98C
:1055AE00EA48FAEB49FB900911EAF0A3EBF09009F7
:1055BE0062E0FCA3E054EFFD900962ECF0A3EDF085
:1055CE00900D3D782112098B85212585222690127A
:1055DE00127821120937E521452245234524601012
:1055EE00ECF8ED4410F9900962E8F0A3E9F0803C84
:1055FE008A218B2274067821120AF2E5215407FAC9
:10560E00C39404502F852622E52254207026E525CA
:10561E0054046018EAC39403501A9009707821124A
:10562E00098B900D4D78211206435008900910E019
:10563E0044028006900910E054FDF090095EE0F8F7
:10564E00A3E0F99009781209D4EC4D4E4F6005E9AC
:10565E0044408003E954BFF990095EE8F0A3E902E3
:10566E0056F2E52254409009116014E0543FF8A31D
:10567E00E054FEF9E84440900911F0A3E98008E0F7
:10568E00543FF0A3E054FEF0900962E0FAA3E05418
:10569E00EFFB900962EAF0A3EBF0900D3D78251236
:1056AE00098B85252185262285272385282490127E
:1056BE00127821120937E521452245234524601031
:1056CE00EAF8EB4410F9900962E8F0A3E9F0800ED5
:1056DE00E52654206008900910E054FD80069009DC
:1056EE0010E04402F0900962E0FAA3E0FB9009108A
:1056FE00E05402602DEA54BFF8EBF9900962E8F02D
:10570E00A3E9F0900BF6E06401600E900D3D782158
:10571E0012098BE521540270177A217B0D12D5D216
:10572E00800EEA4440F8EBF9900962E8F0A3E9F044
:10573E00900911E0F521A3E0F52274067821120AF2
:10574E00F2E5215407FA900962E0F8A3E0F9EA6065
:10575E0005E844808003E8547F900962F0A3E9F0E5
:10576E00EAC394035005798612D81B7F08020BEA10
:10577E0074F5120B84900D6FE0F8A3E0F9E8496020
:10578E002B900D591209E0E8494A4B601F900A5CB4
:10579E001209BC12DEDD8A218B228C238D24900D02
:1057AE0059782112069250047900800279017F0403
:1057BE00020BEA74F5120B848A828B83782112090C
:1057CE008BE5214522452345246026901394C08203
:1057DE00C0839008B078211208F89011FE7821123B
:1057EE0008BAD083D08278211206C1500479008085
:1057FE000279017F04020BEA74F1120B84900BF80C
:10580E00E06466605D12577EE97057900D211209B3
:10581E00E0E8494A4B70419008B0C082C083900DB9
:10582E006FE0F521A3E0F522E4F523F52490124173
:10583E00782512099A782179251206E4D083D08230
:10584E0078211208A77821120C2A7A217B0D12D505
:10585E007E7404120B2A80507A217B0D1257C1E9F7
:10586E007046900CF7E0F52160379008B0C082C00A
:10587E0083E4F522F523F524901398782512099ADE
:10588E00782179251206E4D083D08278211208A7D8
:10589E007821120C2A7A297B0D12D57E7404120BF4
:1058AE002A7A217B0D12D5D27F08020BEAC082C064
:1058BE008312551F900910E054026007798212D8A6
:1058CE001B8003125806D083D0822274F1120B84EF
:1058DE0074A0120B147408120B60E4F0A3F0A3F082
:1058EE00A3F0853182853283F0A3F0A3F0A3F07587
:1058FE002103F5227821120C2E9007B0E0F8A3E0D8
:10590E00F5838882E075F003A4F8A9F074A628FC4C
:10591E00742739FD740A120B60AA82AB8312B80188
:10592E007402120B2A1209E07404120B601209ECB5
:10593E0075213C7821120C2E7C667D287426120B64
:10594E007212B8017402120B2A79187424120B7297
:10595E00126F1BE97003025A6179001254238A21D7
:10596E008B228C238D24900D3D782512098BE525F5
:10597E0054807005900C998003900C9D782112082C
:10598E00F89011D77821120658400C752100752217
:10599E0000752300752400752518752600782512CC
:1059AE000C2E7426120B7A740E120B72126D9C74DE
:1059BE0002120B2A7A0080010A8A82AE82EAC3940E
:1059CE000650418E2575260074027825120B01743F
:1059DE000C120B60E5822525FCE5833526FD8C82B5
:1059EE008D83782512098B78257921120682401431
:1059FE00EA60C5EC24FCF582ED34FFF583782512C0
:105A0E00069240B4EAF97A007B0D12D5AE752103E9
:105A1E007522007821120C2EEE75F003A4FEAFF065
:105A2E00747E2EFC74283FFD7402120B7212B801A4
:105A3E007402120B2A853182853283782112098BEA
:105A4E007408120B6078211208D1900913E04440BB
:105A5E00F08010900913E054BFF079007A007B0DAE
:105A6E0012D5AE790CAC31AD327A017B0D126F7F4F
:105A7E007460120B2A7F08020BEA74F1120B847405
:105A8E00FC120B14900911E0F521A3E0F522740627
:105A9E007821120AF2E5215407FE12551F900911C2
:105AAE00E0F521A3E0F52274067821120AF2E52131
:105ABE005407F8C394045003025B6D900D3D120918
:105ACE00E08531828532831209EC853182853283FD
:105ADE00782112098BE522541070319007B0E0F84E
:105AEE00A3E0C82410F582E438F583782112098BDF
:105AFE009011D3782512099A78217925120764E539
:105B0E00254526452745286003025BA885318285F9
:105B1E003283782112098B90139C7821120974AA72
:105B2E0021AB22AC23AD2412D87B900D3D782112EF
:105B3E00098B9012127821120937E521452245234F
:105B4E0045247056900AF474FFF0A3F0A3F0A3F06E
:105B5E0012D617125806900910E054FDF0803BEE55
:105B6E00686037E8C394024031900D3D78211209E8
:105B7E008B9013A07821120937E521452245234544
:105B8E00247012900AF474FFF0A3F0A3F0A3F012A5
:105B9E00D617125806790112D81B90095FE05440AF
:105BAE006018900D3D782112098BE5215440700A42
:105BBE00790612D81B790912D9047404120B2A7FA4
:105BCE0008020BEA74F5120B847A547B1312D04838
:105BDE007A707B0312C8EE79027A707B03127463BB
:105BEE0090037C782112098B900C9978211208F879
:105BFE009003B078211209AD79037AB07B03127449
:105C0E006390037C120C417A997B0C12D57E74043E
:105C1E00120B2A7F04020BEA74F5120B84125BD26C
:105C2E00900D3D782112098BE52154807003125896
:105C3E00D97F04020BEA74F7120B8474F7120B145B
:105C4E008531828532837401F07404120B60E4F0A6
:105C5E00FE80010EEEC3940450567521037522008A
:105C6E007821120C2EEE75F003A4F8A9F074932887
:105C7E00FC742839FD7403120B60AA82AB8312B830
:105C8E00017402120B2A7C017D00AA31AB3212374D
:105C9E0071EAF8EBF9ECFAEDFB7405120B601209E0
:105CAE00EC7405120B7212D353E970A779008002BF
:105CBE0079017409120B2A7F02020BEA74F5120B9A
:105CCE008474F4120B14AA31AB3212C8EE7900129E
:105CDE0054237404120B601209C8125C44E9900D2F
:105CEE003D7821605612098BE52154807003025DC8
:105CFE00C17404120B601209E07408120B601209D1
:105D0E00EC900C9D782112098B7404120B60782193
:105D1E001209107904AA31AB32127463798712D842
:105D2E001B125BD2853182853283120C417AA57BA0
:105D3E000C12D57E7404120B2A806412098BE52195
:105D4E0054807028900910E04480F0790712D81B17
:105D5E00125BD2853182853283120C417AA57B0C7F
:105D6E0012D57E7404120B2A74048035900913E048
:105D7E005404603F7404120B601209E07408120B95
:105D8E00601209EC900C9D782112098B7404120B91
:105D9E006078211209107904AA31AB32127463743F
:105DAE0008120B60120C417A9D7B0C12D57E740486
:105DBE00120B2A900913E054FBF0740C120B2A7F7D
:105DCE0004020BEAC082C083E9F8900DD9E0F9C352
:105DDE00940540047A048002E9FAE86005EAC39863
:105DEE0050047900800474FF28F9D083D082227485
:105DFE00F5120B84900962E0FAA3E0FB900D3D785A
:105E0E002112098B9013A47821120937E52145221E
:105E1E00452345246005EA44208003EA54DFF8EB6D
:105E2E00F9900962E8F0A3E9F0900962E0FAA3E0C4
:105E3E00FB900D3D782112098B90120E78211209DC
:105E4E0037E5214522452345246005EA44018003B8
:105E5E00EA54FEF8EBF9900962E8F0A3E9F07F044A
:105E6E00020BEA74F3120B847442120B147525297B
:105E7E0075260C7A4B7B0912C8EE7E00025F5375B5
:105E8E00210C7522007821120C2E7C937D2874181B
:105E9E00120B7212B8017402120B2A7821120C2EF8
:105EAE007CCF7D28740C120B7212B8017402120B87
:105EBE002A7821120C2E740C120B7A7418120B7293
:105ECE00126EAB7402120B2AEA4B4C4D600A90090B
:105EDE0013E04404F0125CCA7821120C2E7C937DE0
:105EEE0028740C120B7212B9BD7402120B2A752192
:105EFE003C7821120C2E7CA27D287484120B721217
:105F0E00B8017402120B2A7821120C2E7C667D28A1
:105F1E007484120B7212B9BD7402120B2A74122EF3
:105F2E00F912D81B74036E7003125CCAAA25AB2635
:105F3E0012D5D274052EF912D632E5252404F52594
:105F4E00500205260EEEC394044003025FFE852523
:105F5E0082852683782112098BE52145224523452A
:105F6E002460D79008B0782112069240CDEEC394EB
:105F7E0002504074122EF9900D3D752100752200CD
:105F8E00752304752400EE78211208757821120904
:105F9E0024E5214522452345246004748049F912E5
:105FAE00D81B90090FE0540260829009227408F009
:105FBE00025F3A74026E6003025E8D752160752277
:105FCE00007821120C2E7C067D287424120B72127E
:105FDE00B8017402120B2A7821120C2E7CA67D2792
:105FEE007424120B7212B9BD7402120B2A025F3A9C
:105FFE00125DFD900DD9E0701179007AF67B0C12CE
:10600E00D5AE7901125DD20264107C0B7D007A0050
:10601E007B00123771853182853283EAF0A3EBF073
:10602E00900CF5E0FF853182853283E0F8A3E0F92C
:10603E00900941E0687003A3E069700B90090DE0D0
:10604E005408700302612D853182853283E0F8A3F6
:10605E00E0F9900941E8F0A3E9F0900926E4F0FE9A
:10606E0080010E900DDAE0F8EEC3985064752103AE
:10607E007522007821120C2EEE75F003A4F8A9F00B
