:020000040000FA
:06000000020066028B0BFA
:03000B00028B1352
:03001300028B1B42
:03001B00028B2332
:03002B00028B4005
:03003B00028B9C99
:03004300028BB07D
:03004B00028C64C0
:03005300028D2AF1
:03005B00028D39DA
:10006300028D4875D00075819F753101753202028A
:10007300DD5AE4900201785A790C8002F0A3D8FC8F
:02008300D9FAA8
:1001000000002110422063308440A550C660E77093
:10011000088129914AA16BB18CC1ADD1CEE1EFF13B
:100120003112100273325222B5529442F772D662E3
:10013000399318837BB35AA3BDD39CC3FFF3DEE38B
:100140006224433420040114E664C774A444855433
:100150006AA54BB528850995EEE5CFF5ACC58DD5DB
:100160005336722611163006D776F6669556B44683
:100170005BB77AA719973887DFF7FEE79DD7BCC72B
:10018000C448E5588668A7784008611802282338D3
:10019000CCC9EDD98EE9AFF9488969990AA92BB97B
:1001A000F55AD44AB77A966A711A500A333A122A23
:1001B000FDDBDCCBBFFB9EEB799B588B3BBB1AABCB
:1001C000A66C877CE44CC55C222C033C600C411C73
:1001D000AEED8FFDECCDCDDD2AAD0BBD688D499D1B
:1001E000977EB66ED55EF44E133E322E511E700EC3
:1001F0009FFFBEEFDDDFFCCF1BBF3AAF599F788F6B
:100200008891A981CAB1EBA10CD12DC14EF16FE14A
:100210008010A100C230E320045025404670676082
:10022000B9839893FBA3DAB33DC31CD37FE35EF39A
:10023000B1029012F322D2323542145277625672D2
:10024000EAB5CBA5A89589856EF54FE52CD50DC5EA
:10025000E234C324A0148104667447642454054422
:10026000DBA7FAB79987B8975FE77EF71DC73CD73A
:10027000D326F2369106B016576676761546345672
:100280004CD96DC90EF92FE9C899E9898AB9ABA98A
:100290004458654806782768C018E1088238A328C2
:1002A0007DCB5CDB3FEB1EFBF98BD89BBBAB9ABBDA
:1002B000754A545A376A167AF10AD01AB32A923A12
:1002C0002EFD0FED6CDD4DCDAABD8BADE89DC98D2A
:1002D000267C076C645C454CA23C832CE01CC10C62
:1002E0001FEF3EFF5DCF7CDF9BAFBABFD98FF89F7A
:1002F000176E367E554E745E932EB23ED10EF01EB2
:1003000000010203040506070809AAAAAAAAAAAAC4
:100310000A0B0C0D0E0F10111213AAAAAAAAAAAA50
:100320001415161718191A1B1C1DAAAAAAAAAAAADC
:100330001E1F2021222324252627AAAAAAAAAAAA68
:1003400028292A2B2C2D2E2F3031AAAAAAAAAAAAF4
:1003500032333435363738393A3BAAAAAAAAAAAA80
:100360003C3D3E3F404142434445AAAAAAAAAAAA0C
:10037000464748494A4B4C4D4E4FAAAAAAAAAAAA98
:1003800050515253545556575859AAAAAAAAAAAA24
:0A0390005A5B5C5D5E5F60616263B2
:10039C0000010203040506070809101112131415B5
:1003AC001617181920212223242526272829303115
:1003BC003233343536373839404142434445464769
:1003CC0048495051525354555657585960616263BD
:1003DC00646566676869707172737475767778791D
:1003EC008081828384858687888990919293949565
:1003FC0096979899FFFFFFFFFFFFFFFFFFFFFFFF9F
:10040C00FFFFFFFFFFFFFFFFFFFFFFFFFFFFFFFFF0
:10041C00FFFFFFFFFFFFFFFFFFFFFFFFFFFFFFFFE0
:10042C00FFFFFFFFFFFFFFFFFFFFFFFFFFFFFFFFD0
:10043C00FFFFFFFFFFFFFFFFFFFFFFFFFFFFFFFFC0
:10044C00FFFFFFFFFFFFFFFFFFFFFFFFFFFFFFFFB0
:10045C00FFFFFFFFFFFFFFFFFFFFFFFFFFFFFFFFA0
:10046C00FFFFFFFFFFFFFFFFFFFFFFFFFFFFFFFF90
:10047C00FFFFFFFFFFFFFFFFFFFFFFFFFFFFFFFF80
:10048C00FFFFFFFFFFFFFFFFFFFFFFFFFFFFFFFF70
:10049C00FFFFFFFFFFFFFFFFFFFFFFFFFFFFFFFF60
:1004AC00FFFFFFFFFFFFFFFFFFFFFFFFFFFFFFFF50
:1004BC00FFFFFFFFFFFFFFFFFFFFFFFFFFFFFFFF40
:1004CC00FFFFFFFFFFFFFFFFFFFFFFFFFFFFFFFF30
:1004DC00FFFFFFFFFFFFFFFFFFFFFFFFFFFFFFFF20
:1004EC00FFFFFFFFFFFFFFFFFFFFFFFFFFFFFFFF10
:1004FC00FFFFFFFFFFFFFFFFFFFFFFFFFFFFFFFF00
:10050C00FFFFFFFFFFFFFFFFFFFFFFFFFFFFFFFFEF
:10051C00FFFFFFFFFFFFFFFFFFFFFFFFFFFFFFFFDF
:10052C00FFFFFFFFFFFFFFFFFFFFFFFFFFFFFFFFCF
:10053C00FFFFFFFFFFFFFFFFFFFFFFFFFFFFFFFFBF
:10054C00FFFFFFFFFFFFFFFFFFFFFFFFFFFFFFFFAF
:10055C00FFFFFFFFFFFFFFFFFFFFFFFFFFFFFFFF9F
:10056C00FFFFFFFFFFFFFFFFFFFFFFFFFFFFFFFF8F
:10057C00FFFFFFFFFFFFFFFFFFFFFFFFFFFFFFFF7F
:10058C00FFFFFFFFFFFFFFFFFFFFFFFFFFFFFFFF6F
:10059C00FFFFFFFFFFFFFFFFFFFFFFFFFFFFFFFF5F
:1005AC00FFFFFFFFFFFFFFFFFFFFFFFFFFFFFFFF4F
:1005BC00FFFFFFFFFFFFFFFFFFFFFFFFFFFFFFFF3F
:1005CC00FFFFFFFFFFFFFFFFFFFFFFFFFFFFFFFF2F
:1005DC00FFFFFFFFFFFFFFFFFFFFFFFFFFFFFFFF1F
:1005EC00FFFFFFFFFFFFFFFFFFFFFFFFFFFFFFFF0F
:1005FC00FFFFFFFFE76670100809E766700A08093D
:10060C00E76670040809E76622E066701008A3E04C
:10061C0066700A08A3E066700408A3E06622E493FF
:10062C006670130874019366700C087402936670FC
:10063C0005087403936622C3E09608A3E09608A30A
:10064C00E09608A3E096A2D265D03322C021C3E481
:10065C009396F5210874019396422108740293969F
:10066C00422108740393964221A2D265D033E5212E
:10067C007001D3D02122C3E7960809E7960809E751
:10068C00960809E79622C3E09608A3E09608A3E033
:10069C009608A3E09622C021C3E096F52108A3E0BA
:1006AC0096422108A3E096422108A3E096452170CA
:1006BC0001D3D02122C021C3E49396F52108740103
:1006CC0093964221087402939642210874039396E0
:1006DC0045217001D3D02122080808EAC0E0EBC004
:1006EC00E086F0E7A4FA180986F0E7A42AFA1809BC
:1006FC0086F0E7A42AFA180986F0E7A42AFA1986E4
:10070C00F0E7A4FBE5F02AFA190886F0E7A42BFB26
:10071C00E5F03AFA190886F0E7A42BFBE5F03AFA73
:10072C0018180986F0E7A4C5F02BFBE43AFA19086F
:10073C00E7C5F0C6A426F6E5F03BFBE43AFA1886CA
:10074C00F0E7A4F6E5F00826F6E43B08F6E43A08F0
:10075C00F6D0E0FBD0E0FA22E4CFC0E0E4CEC0E07B
:10076C00E4CDC0E0E4CCC0E075F020E626F608E667
:10077C0033F608E633F608E633F6181818EC33FCB3
:10078C00ED33FDEE33FEEF33FFC3EC9709ED970924
:10079C00EE9709EF97191919400FFFEC97FC09ED2B
:1007AC0097FD09EE97FE191906D5F0BFECF709ED88
:1007BC00F709EEF709EFF7191919D0E0FCD0E0FDB5
:1007CC00D0E0FED0E0FF2212083B18181812076484
:1007DC0012082A1919192212082A191919080808B5
:1007EC00E618181820E7E012076412083B181818CE
:1007FC0022090909E719191920E7DC080808E61885
:10080C00181820E70302076412083B18181812077F
:10081C006412083B18181812082A19191922E4C373
:10082C0097F709E497F709E497F709E497F722E4B7
:10083C00C396F608E496F608E496F608E496F622D3
:10084C00C6F4C608C6F4C608C6F4C608C6F4C62262
:10085C006016080808C6C313C618C613C618C613F4
:10086C00C618C613C6D5E0EA22700908080822602B
:10087C0016181818C6C333C608C633C608C633C6FE
:10088C0008C633C6D5E0EA22E627F60809E637F6AD
:10089C000809E637F60809E637F622E026F608A33B
:1008AC00E036F608A3E036F608A3E036F622E49329
:1008BC0026F60874019336F60874029336F608741B
:1008CC00039336F622E026F008A3E036F008A3E006
:1008DC0036F008A3E036F022C3E697F60809E6974F
:1008EC00F60809E697F60809E697F622C3E0C696DD
:1008FC00F608A3E0C696F608A3E0C696F608A3E0B1
:10090C00C696F622C3E096F008A3E096F008A3E0A2
:10091C0096F008A3E096F022E056F608A3E056F60F
:10092C0008A3E056F608A3E056F622E49356F60820
:10093C0074019356F60874029356F6087403935692
:10094C00F622E056F008A3E056F008A3E056F008B3
:10095C00A3E056F022E647F60809E647F60809E652
:10096C0047F60809E647F622E49346F60874019325
:10097C0046F60874029346F60874039346F622E092
:10098C0046F008A3E046F008A3E046F008A3E046D2
:10099C00F022E0F608A3E0F608A3E0F608A3E0F6E0
:1009AC0022E493F608740193F608740293F6087423
:1009BC000393F622E6F008A3E6F008A3E6F008A3FA
:1009CC00E6F022E0FAA3E0FBA3E0FCA3E0FD22EAC0
:1009DC00F0A3EBF0A3ECF0A3EDF022E0FCA3E0FD20
:1009EC00A3E0FEA3E0FF22E0F8A3E0F9A3E0FAA362
:1009FC00E0FB22E8F0A3E9F0A3EAF0A3EBF022CAB3
:100A0C00C0E0E6F0A308DAFAD0E0FA22CAC0E0E0CF
:100A1C00A3C582CCC582C583CDC583F0A3C582CCCA
:100A2C00C582C583CDC583DAE6D0E0CA22CAC0E050
:100A3C00E493A3C582CCC582C583CDC583F0A3C581
:100A4C0082CCC582C583CDC583DAE5D0E0CA22C38A
:100A5C00E498F8E499F9120A9C8026C3E49AFAE423
:100A6C009BFBE920E7E9120A9CE498F8E499F92247
:100A7C00C3E498F8E499F9120A9CE498F8E499F91B
:100A8C00C3E49AFAE49BFB22EB20E7CFE920E7E0F2
:100A9C00B90010BB0008E88AF084F8AAF022E4FB45
:100AAC00C8FA22EB70227B10C833C8C933C9335043
:100ABC0007C39AC3DBF280069A50012ADBEAC833DB
:100ACC00F4C8C933F4C9FA2275F008E4C833C8C9AC
:100ADC0033C933C99AC99B5004C92AC93BD5F0EC18
:100AEC00FBC833F4C8E4C9FA22600D08C6A2E713A8
:100AFC00C618C613C6D5E0F322600C08C6C313C6CD
:100B0C0018C613C6D5E0F422700422600D18C6C3B3
:100B1C0033C608C633C6D5E0F41822253110AF0809
:100B2C00F531400C15328008F53140021532D2AF48
:100B3C002200C0D0253110AF08F531500C053280A1
:100B4C0008F53150020532D2AFD0D0222531F582D2
:100B5C0010AF08F531400C15328008F53140021504
:100B6C0032D2AF853283222531F582E43532F583DA
:100B7C00222531F8E43532F9222531FAE43532FBFD
:100B8C00222531FCE43532FD22E4732531C582C0C7
:100B9C00E0E53234FFC583C0E0E531C3958224F92A
:100BAC0010AF088583328582318008858332858237
:100BBC0031D2AFCEF0A3E520F0A37821E608F0A364
:100BCC00DEFAEFF0A3E58124FBF8E608F0A3E608D3
:100BDC00F0A30808E608F0A3E608F0A31581158138
:100BEC00D0E0FED0E0F815811581E8C0E0EEC0E061
:100BFC0022853283853182E0A3FEE0A3F5207821A3
:100C0C00E0A3F608DFFAE0A3FFE0A3C0E0E0A3C096
:100C1C00E0E0A3C0E0E0A3C0E010AF08858231851E
:100C2C0083328008858231858332D2AFD083D082E3
:100C3C002274048006740280027401C0E0F4041271
:100C4C000B58D0E0120A0B2274048004740280004A
:100C5C00CCC0E0EDC0E0E531C39CCCAD3250011D01
:100C6C0010AF068C318D3280068C318D32D2AF12A2
:100C7C000A18D0E0FDD0E0FC2274048000CCC0E067
:100C8C00EDC0E0E531C39CCCAD3250011D10AF0678
:100C9C008C318D3280068C318D32D2AF120A39D024
:100CAC00E0FDD0E0FC22D083D082ECC0E0EDC0E0CF
:100CBC00E493A3FCE493A3FDED4C600D120CFEEC4D
:100CCC0024FFFCED34FFFD80EFE493A3FCE493A33D
:100CDC00FDED4C600D120D3DEC24FFFCED34FFFDE1
:100CEC0080EFD0E0FDD0E0FCE493A3C0E0E493C03F
:100CFC00E022C0E0C3E49396087401939618400F69
:100D0C00E49366700808740193661870007019A358
:100D1C00A3C3E49396087401939618A3A3400DD033
:100D2C00E0D0E0D0E0020CEEA3A3A3A3A3A3D0E0F9
:100D3C0022C0E0C0F088F0E4936670080874019358
:100D4C0066187000A8F0A3A3700BD0F0D0E0D0E030
:0C0D5C00D0E0020CEEA3A3D0F0D0E02207
:0D11C0004431343346393832315330330076
:1011CE000100008000010000000A00000000000085
:1011DE0000001F0AFA00E1F50564000000E482F247
:1011EE0082F522D5A2EBA23F065B4F666D7D077F8F
:1011FE006F777C395E79710006060606FFFFFFFFEA
:10120E0000029000FF0000000F0000000000080028
:10121E0000004000000001001FF100040706060652
:10122E00B83E24031F1C1F1E1F1E1F1F1E1F1E1F26
:10123E000605030006030300050004180000003C29
:10124E000000008051010080D6E3018151010007AA
:10125E00000000E02E0C0110270A01401F08018833
:10126E00130501B80B0301D0070201E8030A0A00B7
:10127E0019400A800C200A6009180A4006100AB0AC
:10128E00040C0A2003080AF401050A9001040AC896
:10129E0000020A6400010AC0000000D96204019C29
:1012AE003C1D91BC749388C8000000080000001318
:1012BE00000000050000005F00000070000000103C
:1012CE00000000FA000000FC000000F80000000022
:1012DE00020000A9ECFFFF63000000941100007DE6
:1012EE001500007B0B93667F0B6667EAF48F04167E
:1012FE00322C04B004D859881354627C011B763604
:10130E002364C1FE0054627C010000000000000056
:10131E000063041303000000000000000000000042
:10132E000000000000000031F4840031F48400B2AB
:10133E0090625F99999D3899999D38000000000040
:10134E0000000012111111111111040505020405FE
:10135E001A3C1E00000505143C050250000000005A
:10136E0000020000000000000000CD13000047172F
:10137E000000004006000420200001440400024446
:10138E0004000044040011440400124404001044FC
:10139E00040021440400224404002044040031448B
:1013AE00040032440400304404004144040042442A
:1013BE0004004044048001A302002C010000000040
:1013CE000010020000000600000000204000000097
:1013DE00040000320000A30B00001A0000001200EF
:1013EE000000320000001F000000E02B3F0010B391
:1013FE003C0091572C0016000000040C080E060E3F
:10140E000A100C1410160E16121800100000FFFF12
:10141E00FF0303E60B05E70B01E50B04081020990B
:10142E0099999999996162636465660040000B0011
:10143E0040AA800048474000484FC00EE00E0419F5
:10144E0000061001204001010156414100F07C7C54
:10145E007CFC7C080706021200041109010310052A
:10146E0020480400BF480440244814412C48114130
:10147E002A4811C12F393F7A5F206F577F103939B3
:10148E0002F7586C2222638387223E3E63838722B3
:10149E003E213D3D9291918491912D2D5E605F6C28
:1014AE00151509222270637C803E94947C803E94B4
:1014BE00940201021F6C6C637F7878028132787817
:1014CE000281637478780281327478788E8E02810C
:1014DE0081028282022E423B362B1F1F0101000524
:1014EE000413030000A107BF960000941403020129
:1014FE0000050333030000A107BF9600009A1403F2
:10150E00050100800A00000000C226000000000055
:10151E00000306010705053B0300007F0ADF980064
:10152E000000000308010009053B030000870ADFE5
:10153E0098000000000109010009053B0300008B23
:10154E000ADF9800000000010C010005073303803C
:10155E0000A107BF9600000000030F010041012B00
:10156E00038000930BC899000000000301020405DC
:10157E0001310200002C0C2A9A0000000003050223
:10158E0000050A31020000300C2A9A000000000308
:10159E00070200050131020000320C2A9A000000F9
:1015AE000001080200050110000000DB0B20000105
:1015BE00C0000003010300050111000000E80B63E9
:1015CE000001C000000302030005011100000037F6
:1015DE000C140005C00000030303000501110000F8
:1015EE0000350C020000C0000003040300050111C9
:1015FE00000000360C040000C000000305030005C7
:10160E000111000000E90B630001C0000003060396
:10161E00070923190000006B0A3F420F88000003E0
:10162E00080300050111000000380C1E0005C00063
:10163E0000030104000586130300005D0AB3950044
:10164E0000000003020400298613030000570AB3AA
:10165E00950000A2140303040005A012000000EA86
:10166E000B0000000000000304040780010101804C
:10167E0000ED1DAA9A00000000030904008013016A
:10168E00010001E71D8EC30000DA14030B04008075
:10169E008A02010000F21D8EC300000000030C043C
:1016AE0000808A020100005C1E8EC3000000000351
:1016BE000D0400809002010000661E8EC300000023
:1016CE0000030E0400288613030000510AB3950090
:1016DE0000A514030F0400050B120000000A0C00F5
:1016EE000000000000030105078002040000004D09
:1016FE00080000000000000308050080040400003C
:10170E0000970B00000000000003010600050130E9
:10171E000200002B0CBC9B0000000003010700051B
:10172E000110020000E50B3A8F00000000030307D2
:10173E0000050110020000E60B3A8F0000000003C6
:10174E00050700050110020000E70B3A8F000000AC
:10175E000003010800050130020000330C129C004A
:10176E0000000003020800050131020000340C12D3
:10177E009C00000000030109060501100200002173
:10178E000C839C0000000003010A000504130200F4
:10179E0000B70BFAC20000000003020A05050A1189
:1017AE00000000270C3C0001C0000003010B0305E4
:1017BE008217020000BB0BCE9C0000B11403010C7B
:1017CE0005050430038000CF0B698F000000000375
:1017DE00011002090419004700630AFFE0F585BFF6
:1017EE0014010310050504190047009B0BFFE0F5DB
:1017FE00850000010610000404180300007B0AD7C0
:10180E00AB0000000001011100050111020000DC17
:10181E000B7B9D0000000003041100050812000060
:10182E0000DD0B000000000000030112000505138F
:10183E00030000B30BDF9800000000030212000546
:10184E0001110200001A0CDD9D00000000030312BE
:10185E0000050213020000C10B139E0000B1140319
:10186E000412008084000000001D0C000000000027
:10187E000003011400050211000000C30B0F270026
:10188E0080000003021400052311000000AF0B3F7F
:10189E00420F80000003031400050211000000C572
:1018AE000B0F270080000003041405050111000032
:1018BE00001B0C630000800000030115008002066F
:1018CE00010000A30A3D93000000000302150080F2
:1018DE0002000100005D08BDAB0000000001031511
:1018EE0000000C02030000A30A3D93000000000359
:1018FE001FF100808400010000B306019F0000006C
:10190E0000032FF10001B902020000C31DC19F00A8
:10191E00000000033FF10001FA02020000FC1DC1AD
:10192E009F00000000035FF10001A0020200007A98
:10193E001EC19F00000000036FF10001D7020200DC
:10194E0000B1091FA000000000037FF1000190020A
:10195E000200000A0A1FA00000000003AFF1008081
:10196E000400000000950600000000000003CEF108
:10197E0000010202020000D509A1A0000000000330
:10198E00CFF100010202020000D909A1A00000005F
:10199E000003DEF100010202020000D709A1A0003F
:1019AE0000000003DFF100010202020000DB09A1CA
:1019BE00A00000000003EFF100010202020000DDB2
:1019CE0009A1A0000000000301F300018102020042
:1019DE00007A1EBEC0000000000302F30001860262
:1019EE000300000000F0C0000000000303F300013C
:1019FE0086020300000A0AA3C1000000000304F3DC
:101A0E000001021100000042090000000000000366
:101A1E0005F3000184020200004B0A70C2000000B0
:101A2E00000306F300410832038000390C2BC4007A
:101A3E000000000307F300019102020000A30CC294
:101A4E00C400000000030100008023010006001FF7
:101A5E0009000000008C1403020000800201000047
:101A6E00003E09000000008E1403070000800201F2
:101A7E00000001500900000000AA140308000080B5
:101A8E000201000002440900000000B014030A0025
:101A9E0000800401008000EB0A000000000000033B
:101AAE000B0000800401000004570B00000000B37F
:101ABE0014012000008004010000045F0B000000F0
:101ACE0000B414012100008004010000045B0B002F
:101ADE00000000B4140122002380020101000074F2
:101AEE00090DA1000000000301080005021100000D
:101AFE0000CB0BE803008000000302080005011173
:101B0E00000000180C63000AC0000003011000055D
:101B1E002311000300AB0B3F420F800000030210A5
:101B2E0000050111000000190C6300008000000385
:101B3E0001F100050211000000CD0B90010080A8FC
:101B4E0014030AF100050411000000EB0A0F270030
:101B5E0080A8140300484040044816001A48168016
:101B6E00004840C0004840400448040008483C413A
:101B7E000C483C410040FF0F08483C410C483C419A
:101B8E000040FFBF00484040044808800048040061
:101B9E0004484040084840C0004840400448048083
:101BAE000048404004480580040040400048404042
:101BBE0008003C410C003C410040FF0F04483C41F2
:101BCE0008483C410040FF8F0048404004480980CF
:101BDE0004004040004840401000010008003C4115
:101BEE000C003C4104483C4108483CC104004040C4
:101BFE000048404008003C410C003CC1042020003D
:101C0E00C8010400C61008008A020480004848403B
:101C1E000448344108483C410C483C4110483CC102
:101C2E0000483C4108483C4110483C4118483C4162
:101C3E0020483CC100483841004838410140FF91DE
:101C4E00001100630C06A603013000166A48A603B5
:101C5E00033000170E4FA603043000181056A603CB
:101C6E0005300019005DA6030630001A5EA1A70319
:101C7E000730001B0B8DA8030830001C0094A8032E
:101C8E000930001E0B8DA8030C30001F10B3A903E2
:101C9E000D3000533C40AA030F30000C2A55AB0107
:101CAE001030000D8A8FAB01123000120F93AA0371
:101CBE001330000B24B5AC010133060900B6AC019C
:101CCE000034000A13AEAC01003600621D9AAA035E
:101CDE00003700611400AB0300A000240641A603E8
:101CEE0001A000251056A60347638D8F8F4763759D
:101CFE008F8F00484D4004483CC1637C7B7B777ED0
:101D0E006363637A7E7E0C0408028132747C7B7B73
:101D1E00028132747C7B777E7E028132747C7B7A88
:101D2E007E7E333345666861605F5F4638384B5E52
:101D3E0066605F67672D0A0A000290000301029039
:101D4E000003010100040302010004030C0100045E
:101D5E0003010400040302040004030400800403CE
:101D6E0000FF00000300FF01000300FF020003005C
:101D7E00000B000300000C000300000D00014000EA
:101D8E000000040000003B0000000E0000000014E4
:101D9E00300300FFFF000000300065000000285CEB
:101DAE008F029999991990D003000C00000001013F
:101DBE0001090714034550534F4E31314C205365E2
:101DCE007020313720323031392032303A33333AC5
:101DDE00303800000000600057B004B90098083297
:101DEE000058021444445A595858582D4D00444432
:101DFE005A595858582D4D000000000000000000A0
:101E0E00000000000000000000000000000044443C
:101E1E005A595858582D4D0000000000000000007F
:101E2E0000000000000000000000000000005858F4
:101E3E0058580000000000000000000000000000E4
:101E4E000000000000000000000000000000323022
:101E5E0031362D58582D5858444C2F543634352D74
:101E6E00323030372D3134007701335500640000A5
:101E7E000078020014122501AAAAAAAAAAAAAAAA3E
:101E8E000000000000000000000000000000000044
:101E9E000000000000000000000000000044445A52
:101EAE0059585858432D4D44445A59585858432D53
:101EBE004D000000000000000000000000000000C7
:101ECE000000000000000044445A59585858432D51
:101EDE004D000000000000000000000000000000A7
:101EEE000000000000000044445A5958585843005E
:101EFE000044445A5958585843000000000000004E
:101F0E0000000000000000000000000000000000C3
:101F1E000044445A5958585843000000000000002D
:101F2E0000000000000000000000000000000000A3
:101F3E000044445A595858582D4D0044445A595843
:101F4E0058582D4D00000000000000000000000059
:101F5E00000000000000000000000044445A5958E0
:101F6E0058582D4D00000000000000000000000039
:101F7E00000000000000000000000044445A5958C0
:101F8E00585800000044445A595858580000000050
:101F9E000000000000000000000000000000000033
:101FAE00000000000044445A5958585800000000E0
:101FBE000000000000000000000000000000000013
:101FCE00000000000034120040000000400000003D
:101FDE0000000000000000000000000040000000B3
:101FEE0000000000000000000000000000000000E3
:101FFE0000000000000000000000000000000000D3
:10200E0000000000000000000000000000000000C2
:10201E000000000000000000000000006000000052
:10202E0000000000000000000000000000000000A2
:10203E00000000000000007200B1014DE8FFFF6CCF
:10204E00FDFFFF0000000000000000000000000087
:10205E0000000000000000000000000000000077FB
:10206E0001335500000000000000000000000000D9
:10207E0001111111111111F4010000640000000191
:10208E0000000001000000204E00000000000000D3
:10209E000000000000000000000000000000000032
:1020AE00000000000080110000001F000000000072
:1020BE000000000000000000000000000000000012
:1020CE000000000000000000000000000000000002
:1020DE0000000000000000000000000000000000F2
:1020EE0000000000000000000000000000000000E2
:1020FE0000000000000000000000000000000000D2
:10210E0000000000000000000000004088A0004019
:10211E0088A0004088A00000000000000000000021
:10212E0000000000000000000000000000000000A1
:10213E000000000000000000000000000000000091
:10214E000000000000000000000000000000000081
:10215E000000000000000000000000000000000170
:10216E000000000000000000000000000000000061
:10217E000000000000000000000000000000000051
:10218E000000000000000000000000000000000041
:10219E000000000000000000000000000000000031
:1021AE00000000000000000010000800000000E821
:1021BE00030000FFE0F505C8000000000000002C41
:1021CE00000000307500000049D11200000101012D
:1021DE00009999999900000000A005000000005890
:1021EE000204010000000002563412047856341422
:1021FE00000004100000000200040808071B000085
:10220E0000000000000000000000000000000000C0
:10221E0000000000000000000000000000000000B0
:10222E000000000000000000003C3C3C3C0A3C1E4C
:10223E001E999912000F83838303830F0F0F0F05CF
:10224E00020208040000007F0102040505FFFFFFE3
:10225E00FFFFFFFFFF000000000000000000000075
:10226E000000000000000000000000000000000060
:10227E000000000000000000000000000000000050
:10228E000000000000000000000000000000000040
:10229E000000000000000000000000000000000030
:1022AE000000000000000000000000000000000020
:1022BE000000000000000000000000000000000010
:1022CE000000000000000000161102120C120C1289
:1022DE000C120C120C120C120C120C120C120C1200
:1022EE000C120C120C1102120C120C120C120C12FB
:1022FE000C120C120C120C120C120C120C120C12E0
:10230E000C881300241300C012005C1200000000A1
:10231E0000000000000000000000000000000000AF
:10232E00000000000000000000000000000000009F
:10233E00000000000000000000000000000000008F
:10234E00000000000000000000000000000000007F
:10235E00000000000000000000000000000000006F
:10236E0000881300241300C012005C12000000004D
:10237E00000000000000000000000000000000004F
:10238E00000000000000000000000000000000003F
:10239E00000000000000000000000000000000002F
:1023AE00000000000000000000000000000000001F
:1023BE00000000000000000000000000000000000F
:1023CE000001008216032D8443015A827003878414
:1023DE009D849D849D849D849D849D849D0000008C
:1023EE0000000000000000000000000000000000DF
:1023FE0000000000000000000000000000000000CF
:10240E000000000000000000000099999999999928
:10241E00999999999999000000BE051246843F0535
:10242E00690040BE0340000000000002FA02900066
:10243E0000000290000000000000000000000000FC
:10244E0006120101000400020100040020008002B7
:10245E0000000290000000000B00000000000000D1
:10246E00000000000000000000000000000000005E
:10247E000000000001010004000201000400200021
:10248E008002000002900000000000000001000029
:10249E0000000E040004010E0400040002040004F7
:1024AE00010204000400000101020000010202000A
:1024BE000001030200010B000400090400040002E5
:1024CE000080020002140004000314000400000047
:1024DE0000000000000000000000000000000000EE
:1024EE0000000000000000000000000000000000DE
:1024FE0000000000000000000000000000000000CE
:10250E0000000000000000000000000000000000BD
:10251E0000000000000000000000000000000000AD
:10252E00000000000000000000000000000000009D
:10253E000000000000000000000000000517000071
:10254E000000000001000000000200000000030077
:10255E000000000400000000000000000000000069
:10256E00000000000000000000000000000000005D
:10257E00010100040002010004000001010200003C
:10258E0001020200010080020000000000000101B3
:10259E00000400020100040000010102000001021B
:1025AE00020000010302000001060200000000000C
:1025BE00000000000000000000000000000000000D
:1025CE0000000000000000000000000000000000FD
:1025DE0000000000000000000000000000000000ED
:1025EE0000000000000000000000000000000000DD
:1025FE0000000000000000000000000000000000CD
:10260E0000000000000000000000000000000000BC
:10261E0000000000000000000000000000000000AC
:10262E00000000000000000000000000000000009C
:10263E0000000000000000001FF10004070606065F
:10264E000002900015222D3E7F8286898A10110B82
:10265E00315C645D654A0200004B0200004D024F82
:10266E00025102050404090903039494797D7D79CE
:10267E0081817985851C1C5B5B0193935302560205
:10268E0059025C025E02600257027C7B7BC8010429
:10269E00800006030300050004FFFFFFFFFF99996A
:1026AE009999999961626364656600000000000063
:1026BE0000000000805E666861605F673F6B6D5969
:1026CE0058526C4C46484F4E4D47403A3C4342415F
:1026DE003B342A2C3736352B241E202726251F184F
:1026EE0012141B1A19130C06080F0E0D0749444538
:1026FE004B51504A00000000010000000100030091
:10270E0002000000070040000C0000000703040058
:10271E0002001B040F03080004001B042F033000EB
:10272E0002001B048F03300002001B04EF03300075
:10273E0002001B044F04300002001B04AF041800FB
:10274E00140000008F0614000A0000005707220034
:10275E000A001B04AB0820000A000000EB097C00F5
:10276E000A000000C30E300003001B04530F30009C
:10277E0002001B04B30F38000200130423100C00D8
:10278E0002004B043B1010000A007304DB100C0017
:10279E0014004B04CB111000140093040B133000E3
:1027AE000A000000EB1410000A0083048B150C00C5
:1027BE000A00000003160C000A0000007B16280019
:1027CE000A0000000B1828000A0000009B190C00DC
:1027DE000A000000131A0C000A0000008B1A1800E1
:1027EE000A0000007B1B0C000A000000F31B0C000B
:1027FE000A0000006B1C1800140057044B1E0C003E
:10280E0014004B043B1F0C001400A3042B200400E7
:10281E00140074027B200400050074028F200C004B
:10282E0005000000CB20040002000000C6100200CC
:10283E008602040061020400E20204000144040066
:10284E000244040011440400124404002144040014
:10285E002244040031440400324404004144040084
:10286E00424404800000330001440400024404800A
:10287E00C8010400014404000244040014030200D1
:10288E002D030300E2020300C7020280C8013300D9
:10289E00C21104002A120100850304C00000330097
:1028AE009503040001440400024404800000330038
:1028BE00C2110400014404000244048061020400B9
:1028CE00014404000244048000400000A0000040C7
:1028DE000000FEFFFFFF022805DC057206E0067809
:1028EE005634120149D11247276267000080FF78E3
:1028FE002879287A287B287C287D287E287F2886A0
:10290E0028F410FA10F510FB10E810E910EA10EB9D
:10291E0010EC10ED10EE10EF10C082C083E9FB74C6
:10292E00FF2B1904601A7A00800808E8C39414403B
:10293E00F90A900292E0F8EAC39850E1780080EB31
:10294E00D083D0822274F8120B977F00C3EA9410C2
:10295E00EB942740077AFF7BFF022A15C3EA9440C7
:10296E00EB941F400A7F80EA24C0FAEB34E0FBC3ED
:10297E00EA94A0EB940F400C74404FFFEA2460FAE7
:10298E00EB34F0FBC3EA94D0EB9407400C74204F69
:10299E00FFEA2430FAEB34F8FBC3EA94E8EB940335
:1029AE00400C74104FFFEA2418FAEB34FCFBC3EA18
:1029BE009420EB9403400C74084FFFEA24E0FAEBEA
:1029CE0034FCFBC3EA9490EB9401400C74044FFF6B
:1029DE00EA2470FAEB34FEFBC3EA94C8EB94004091
:1029EE000C74024FFFEA2438FAEB34FFFBC3EA946F
:1029FE0064EB94004008E4044FFFEA249CFAEAF9E1
:102A0E00122C01E9FAEFFB7F01020BFD74F1120BA0
:102A1E009774F4120B27853182853283EAF0A3EB8B
:102A2E00F0A3ECF0A3EDF07408120B73E4F0A3F036
:102A3E00A3F0A3F080139011DF78211209AD853138
:102A4E008285328378211208D19011E37821120900
:102A5E00AD853182853283782112069250D8752544
:102A6E00007526B47527C47528047404120B73E41C
:102A7E00F0A3F0A3F0A37480F079008008740178BD
:102A8E002512085C09E9C394108531828532835082
:102A9E00747825120692401F7404120B737821125B
:102AAE00099E7408120B73782112098B8531828569
:102ABE00328378251209107404120B7378211209CF
:102ACE009E7401782112085C7404120B7378211223
:102ADE0009C0E924FD600A24FC601424FC601B80FC
:102AEE009C75250075261275277A752800809575B8
:102AFE00250075263575270C80F0752580752638CE
:102B0E0075270180E5782112099EAA21AB22122990
:102B1E00538A218B22E4F523F5247408120B737863
:102B2E002112098B7408120B731209CF740C120B3D
:102B3E003D7F08020BFD74F1120B9774FA120B27EE
:102B4E007402120B73EAF0A3EBF0A3ECF0A3EDF01A
:102B5E00752500752600752700752800A882A983A3
:102B6E00853182853283E8F0A3E9F07E00804F85BF
:102B7E003182853283E0F8A3E0F5838882E0F91292
:102B8E002BE4E9FA853182853283E024FFF8A3E055
:102B9E0034FFF9853182853283E8F0A3E9F0901194
:102BAE00E778211209AD782579211206E48A21E40D
:102BBE00F522F523F524782579211208940EEEC31B
:102BCE00940440ABAA25AB26AC27AD287406120B95
:102BDE003D7F08020BFD74F7120B97E9C3949A40E0
:102BEE000479AA8009E9F582758303E493F97F02DB
:102BFE00020BFD74F7120B97E9C39464400479FF3E
:102C0E00800D749C29F582E43403F583E493F97FF7
:102C1E0002020BFD74F7120B97EAFCEBFDE9FE7A4C
:102C2E00557B55802FEAF9EBFA8C828D83E0F521E6
:102C3E00EA652125E0FAE433FBE42AF58274013BD0
:102C4E00F583E493FAA3E49369FB8C828D83A3ACA2
:102C5E0082AD831EEE70CE7F02020BFDC082C0835A
:102C6E00800BE98A828B83F0A3AA82AB83ECF87483
:102C7E00FF281C0470ECD083D08222C082C083E96E
:102C8E00701C90020174FFF0900206E4F0A3F09025
:102C9E000205F09002027403F0A3E4F0A3F0D083D7
:102CAE00D08222C082C083E4801B900203E06013B6
:102CBE00E014F0E0700D9002027404F090032CE02A
:102CCE004410F0740160E3D083D0822274F8120BAA
:102CDE009790024B74FFF0A3F0A3F0A3740FF07F54
:102CEE0001020BFD1253D0022D78C082C08375CE27
:102CFE00A575CF5A75CEA575CF5A124A9875CEA521
:102D0E0075CF5A75CEA575CF5A12C53D75CEA57520
:102D1E00CF5A75CEA575CF5A12C741900273E07087
:102D2E002C9002AEE06450702475CEA575CF5A7506
:102D3E00CEA575CF5A12CB2175CEA575CF5A75CEAD
:102D4E00A575CF5A79017A747B021251BC75CEA546
:102D5E0075CF5A75CEA575CF5A75CEA575CF5A7546
:102D6E00CEA575CF5AD083D082222274F8120B973B
:102D7E0090026BE4F090025CF0900261F0A3F0A37D
:102D8E00F0A3F090025DF0A3F0A3F0A3F090026523
:102D9E00F0A3F0A3F0A3F0900269F0F9122DF07FEA
:102DAE0001020BFDC082C083C2AF900256E0240127
:102DBE00F0A3E03400F0D2AFD083D08222C082C024
:102DCE0083900252E02401F0A3E03400F09002560A
:102DDE00E0F8A3E0F9900254E8F0A3E9F0D083D034
:102DEE00822274F8120B97E970117C0A79007A52DC
:102DFE007B02122C6A90026AE4803CC2AF900254AD
:102E0E00E0F8A3E0F9A3C3E098F0A3E099F09002F4
:102E1E0052E4F0A3F0A3F0A3F0D2AFA3C3E0940961
:102E2E00A3E0940740099002567408F0A314F0A38F
:102E3E00E4F0A3F0A3F0A3F07F01020BFDC082C06B
:102E4E00839028E4E493F8900990E0C398403A9078
:102E5E000800E0C41354075403640179016005129D
:102E6E00382D80081237AA79011236C19007E974FD
:102E7E003CF0900BE9E09007ECF090081D743CF0EC
:102E8E00A3E4F0125A331232209007FEE054DFF022
:102E9E00D083D0822274F3120B97900800E0FAA32D
:102EAE00E0FBEAA2E0503C900805E054027039EADB
:102EBE005410702F90081EE07029900B93782112F9
:102ECE00099E852226E52654107010EB5402600BE5
:102EDE00E52154027005EB54018006900851E05430
:102EEE0010600543A620800353A6DF53A5DF53A42D
:102EFE00DFEAA2E05008900805E054026003022FBA
:102F0E00A0EA54106003022F9BEAC4135407540323
:102F1E00707B900821E0707590081EE0706F90082D
:102F2E001DE07069900802E0F521A3E0F522740619
:102F3E007821120B05E52154077052900B7B120974
:102F4E00F3E8494A4B60069007B6E06040900B7775
:102F5E001209F3E8494A4B703490242FC082C08383
:102F6E0090084D782112099ED083D082E49355218A
:102F7E00F8A3E4935522F9E84970129012067821CD
:102F8E001209AD9007E27821120615700543A608C6
:102F9E00800353A6F753A5F753A4F77F06020BFD44
:102FAE00C082C083E9C3945750287401C0E07407EF
:102FBE0059F8D0E0B800028004C333D8FCF8E91306
:102FCE001313541FFA74B72AF582E43407F583E01D
:102FDE0048F0D083D08222C082C083E9C394575078
:102FEE00297401C0E0740759F8D0E0B800028004DB
:102FFE00C333D8FCF4F8E9131313541FFA74B72A29
:10300E00F582E43407F583E058F0D083D082227441
:10301E00F3120B9774F529F582E43411F583E493DA
:10302E00F525EA75F007A4F8A9F074C328FE7426F6
:10303E0039FF7526008005122FE50526E526C39477
:10304E00075027852621EE2521F582E43FF583E4FE
:10305E0093F9852521752200E5267821120AF5E5DA
:10306E0021A2E050D2122FAE80D07F06020BFD744B
:10307E00F7120B97900802E05402607BEA4B6077E0
:10308E007E0080010E74D92EF8E43405F9E824E9A7
:10309E00FCE93401FD8C828D83E0FFE824EAF582A1
:1030AE00E93401F583E06F70DB8C828D83E0F46090
:1030BE00010EEEC3941E503F8A828B83E493FC7400
:1030CE00D92EF8E43405F9ECC0E0E824E9F582E9FC
:1030DE003401F583D0E0F08A828B83A3AA82AB837E
:1030EE00E493FDEC6D70CAEDC0E0E824EAF582E9E8
:1030FE003401F583D0E0F07F02020BFDC082C08365
:10310E008A828B83E4939007E7F0A3E4F08A828BA4
:10311E0083A3AA82AB8312307DD083D0822274F730
:10312E00120B97E9FE900802E0540260299007E71F
:10313E007449F0A3E4F0EEC394055010745629F5CB
:10314E0082E43426F583E4939007C2F012307D7A40
:10315E00987B2612307D7F02020BFD74F7120B97BF
:10316E0074EC120B27A831A93288218922AE21AF27
:10317E00227521147522007821120C41EAFCEBFD18
:10318E007402120B851280B77402120B3D853182C8
:10319E00853283E0700E7401120B73E07006804866
:1031AE00E8FEE9FF8E828F83E0F87401687043A316
:1031BE00AE82AF83900800E05401F8A3E05401F909
:1031CE007401687001E960098E828F83E0F9122F15
:1031DE00AE8E828F83A3A882A9838E828F83E0FA1C
:1031EE0088828983E06A70B87414120B3D7F0202E4
:1031FE000BFD74026870D1A3AE82AF83E0F8C454A5
:10320E000FFA740F58F9740F697002791012301D8D
:10321E0080BF74F1120B9774F0120B277C0B7D009C
:10322E007AB77B0712EB1A90120A78211209ADAA0F
:10323E0021AB22AC23AD2412ED68E970107C0B7D1E
:10324E000079FF7AB77B0712EC450236B49008007E
:10325E00E05481F8A3E05401F974816849700302C7
:10326E0036B4900389E531F0A3E532F07C207D0081
:10327E0079FF7AC27B0712EC45900800E054F7F014
:10328E009007E7E4F0A3F0900802E04402F07AE23F
:10329E007B0712ADD0E054FDF09007E8E0F954073B
:1032AE006006E9540704800AA831900389E0C398A8
:1032BE00C333FF790412EB4885318285328378213E
:1032CE0012099E7E009007E7E0F8540714601B1465
:1032DE00601814605C14605914700302336F14701C
:1032EE0003023374146003023379E85408603E908D
:1032FE000C35E0F8C394025034E8FE90120E782597
:10330E001209ADAA25AB26AC27AD2812ED68E970DF
:10331E0018900800E054087010EE7005901212809C
:10332E000390121678211208BA740280170E0E80BE
:10333E0022E85408601B900C36E0F8C39404501138
:10334E00E8FE7404C39E333354FC782112085C806B
:10335E00027E049007E7E05440601074012EFF8057
:10336E000A0E7F0280050E0E0E7F04EE6010745161
:10337E002EF582E43426F583E493F9122FAE9007EE
:10338E00E7E05407F8603174FF2825E0F8E433F9DC
:10339E00746328F582742639F583E493C0E07401D2
:1033AE0093F583D082AA82AB83EA4B600B74272AF3
:1033BE00FA74243BFB1231697E078012EEFAE52186
:1033CE00540FF912301D7404782112085C1E74FF1C
:1033DE002F1F0470E7E521452245234524703D90BB
:1033EE000800E05408604E9007E2782112099E749E
:1033FE0010782112085C7490652145227032EEFA25
:10340E00791012301DEE75F007A4F8A9F074C928D2
:10341E00F582742639F583E493F98016EEFAE521E8
:10342E00540FF912301D7404782112085C1E80A509
:10343E007930122FAE900800E0A2E0400302355C16
:10344E00900804E0544060559007E7E05420704D1A
:10345E00900B56E0F8C3940A502F740128FF752381
:10346E00048022EFC39523401A852321745E252103
:10347E00F582E43426F583E493F9122FAEE523CFDB
:10348E00C39FFF1523E52370DA7995122FAE7A8B41
:10349E007B0A12EDA8E970057962122FAE900B4CE3
:1034AE00E070030235349007E7E054107078900610
:1034BE00A1E0F8A3E0F5838882E0F521C3940450DF
:1034CE0021900801E05401700890085AE0540270EF
:1034DE0011745B2521F582E43426F583E493F91209
:1034EE002FAE900A4CE064016019900BDCE0A2E173
:1034FE005011795A122FAE7A877B0A12EDA8E97015
:10350E0025801A900B93782112099E90121A782119
:10351E00120937E5214522452345246004796F8041
:10352E0002795A122FAE9007EFE060229007EEE07C
:10353E0025E0F8E433F9748A28F582742639F58388
:10354E00E4932427FAA3E4933424FB1231697AC25C
:10355E007B071231699007B6E06018900801E054BD
:10356E0002603E900B93782112099EE52154027061
:10357E00308033900B7B1209F3E8494A4B700C9064
:10358E000B771209F3E8494A4B601B900800E05490
:10359E0001F8A3E05401F9740168700374016970B5
:1035AE0005798C122FAE90084EE054406041900881
:1035BE0002E0F521A3E0F52274067821120B05E551
:1035CE00215407C39404401A900B93782112099E3C
:1035DE0090121E7821120937E521452245234524F4
:1035EE006008900801E0540160057990122FAE7AC0
:1035FE00977B0B12EDF1E96005796A122FAE9008F8
:10360E004FE0A2E050057929122FAE900851E054F8
:10361E00087028900B93782112099E90122278211F
:10362E00120937E521452245234524600E900824D2
:10363E00E0600D900801E0540160057972122FAE22
:10364E00900800E05401F8A3E05401F97401687089
:10365E0001E9602990084DE0540460057928122F85
:10366E00AE900802E0F521A3E0F52274067821124F
:10367E000B05E521540760057988122FAE900AE8F4
:10368E00E0C39403500EA3E0C394035007A3E0C31A
:10369E0094C840057976122FAE7A089007EDE004B3
:1036AE00540FF912301D125BA37410120B3D7F08DC
:1036BE00020BFD74F5120B97E9FE900800E0547FA3
:1036CE00F090122678211209ADAA21AB22AC23ADBF
:1036DE002412ED68E970099007E6E0C394024032C7
:1036EE0090122A78211209ADAA21AB22AC23AD2467
:1036FE0012ED68E970249007E6E0FA900B4CE02496
:10370E00FFF8E434FFF9C3EA98E499A2D265D03306
:10371E0050089007E6E004F0807D900800E0C413A6
:10372E00540754036401700AEE700779001237AA29
:10373E0080229007EDE004F09007ECE0F8A3E0C3E0
:10374E00984016EE700E79001237AA900821E060AC
:10375E0003E014F09007EDE4F07521057522007872
:10376E0021120C419007EDE075F005A4F8A9F09038
:10377E0007F0E0FA75F0EFA4CAACF02CFB74292A1E
:10378E00FA74293BFBEA28FCEB39FD7AE27B07123F
:10379E00D0797402120B3D7F04020BFD74F7120BED
:1037AE0097900800E0549FFAA3E0FB74036970152C
:1037BE00EA4440900800F0A3EBF09007EB74C7F0DA
:1037CE00A37402804DE9C39402501C892175220016
:1037DE0074057821120B14E5215460FCEA4C900814
:1037EE0000F0A3EBF0800CEA4440900800F0A3EB4D
:1037FE00F07900E99007EB7003E480027463F074D3
:10380E00E829F582E4340BF583E09007ECF0E990BB
:10381E0007F0F0900800E0547FF07F02020BFD7479
:10382E00F8120B971237AA9007ED7480F0790112F7
:10383E0036C1900C37E09007E9F07F01020BFD7462
:10384E00F5120B97900800E0FAA2E0505590083E52
:10385E00E0FC900C38E025E0F8E433F9EC98E499BC
:10386E00C365D033502A90122E78211209AD9005DF
:10387E00D978211206156018EAC41354075403F8B8
:10388E007402686003E87008900800E044108055E8
:10389E009005D974B8F0A3743EF0A37424F0A37409
:1038AE0003F09007EFE06003E014F09007FDE06096
:1038BE002B90081EE06003E014F090081DE06003FA
:1038CE00E014F09007E9E014F0E070107900123681
:1038DE00C1900C37E09007E9F0125A331232209063
:1038EE000800E054EFF0122EA37F04020BFD74F5D6
:1038FE00120B97125A3390122E78211209AD9005A1
:10390E00D97821120615600D7C0B7D0079FF7AB7F0
:10391E007B0712EC45125BA3790012382D90081D1F
:10392E00E4F07F04020BFD74F5120B9774F8120B82
:10393E0027AA31AB321241EF90098CE0A2E1503050
:10394E0090084DE0F8A3E04480F990084DE8F0A30C
:10395E00E9F0900B93782112099EE5215408700A24
:10396E00790712F45F790312F3769007B5743CF081
:10397E007408120B3D7F04020BFD74F8120B9712A4
:10398E0039359007A5E4F0A3F0A3F0A3F012CB68AD
:10399E007F01020BFD74F1120B9774E5120B278554
:1039AE003182853283EAF0A3EBF0A3ECF0A3EDF0C5
:1039BE00853182853283120C547C007D00740F1287
:1039CE000B85123DB67404120B3DAA31AB3212F3C5
:1039DE00F9E9FE7521037522007821120C4174104D
:1039EE00120B73AC82AD837406120B8512ECF0745D
:1039FE0002120B3D7821120C41740D120B8D740ABC
:103A0E00120B73AA82AB8312ECF07402120B3D758B
:103A1E002101EE7821120B147407120B73E521F0BD
:103A2E00790A12F4DA7404120B851242A290098CF0
:103A3E00E0C2E1F07404120B73E0F912ED8AE99022
:103A4E0007B5F0853182853283782112099E901256
:103A5E000A78211208BA9007A978211209C0782194
:103A6E0012084CA378211209C08531828532831247
:103A7E0009F39007A11209FF8531828532837825DB
:103A8E0012099E9007B5E0F521E4F522F523F52401
:103A9E00782579211208E49007A578251209C07AB5
:103AAE00F77B0A12F0557AFB7B0A12F0557AFF7BF0
:103ABE000A12F05590084DE0F8A3E0547FF99008F3
:103ACE004DE8F0A3E9F0741B120B3D7F08020BFDCD
:103ADE007C037D007AA17B07023AE974F1120B9701
:103AEE0074EE120B27740A120B73ECF0A3EDF0EACE
:103AFE00FEEBFF740E120B73E4F0A3F0A3F0A3F031
:103B0E00740A120B73E05403F521740365217013CC
:103B1E00740C120B851241EF740D120B73E0541FCF
:103B2E00F08057EE4F7003023DA4743E2521F582BE
:103B3E00E43412F583E493F521F9128204E9640169
:103B4E007003023DA4752200740A120B73A3E05495
:103B5E004078216011120C41EEFCEFFD740E120B39
:103B6E008512ECF0800F120C41EEFCEFFD740E127C
:103B7E000B851280B77402120B3D7521057522005C
:103B8E007821120C417C2D7D14740E120B8512813E
:103B9E00C67402120B3DEA4B4C4D700B7AFF7BFF45
:103BAE007CFF7DFF023DAC7E00802A740C120B73ED
:103BBE00E5822EF582E43583F583E0F912ED8AE98C
:103BCE00C0E07404120B73E5822EF582E43583F5A2
:103BDE0083D0E0F00EEEC3940640D07405120B7342
:103BEE00E014FA7404120B73E0FC75F06DA4CCA80B
:103BFE00F028FDE02403F521E43400F52274027868
:103C0E0021120AF5EC2521F8ED3522F9E8FCE9FD43
:103C1E00853182853283ECF0A3EDF0A3E4F0A3F0BE
:103C2E00FE804374322EF582E43412F583E493F56C
:103C3E0021E4F522F523F52485318285328378211E
:103C4E001208D17404120B73E05403701874016ED1
:103C5E0070139011D378211209AD8531828532838C
:103C6E0078211208D10EEEC39A40B8853182853282
:103C7E0083C082C0837406120B73E0F521E4F52233
:103C8E00F523F524D083D08278211208A79012490B
:103C9E0078251209AD782179251206E47407120BE6
:103CAE0073E0F525E4F526F527F528782179251218
:103CBE00089490124D78251209AD782179251206B7
:103CCE00E47408120B73E0F525E4F526F527F528C4
:103CDE007821792512089490124D78251209AD7825
:103CEE002179251206E47409120B73E0F525E4F52B
:103CFE0026F527F5287821792512089485318285B5
:103D0E00328378211209C0853182853283120C5498
:103D1E007C007D007408120B85123DB67404120BE4
:103D2E003D7521067522007821120C41740E120B7E
:103D3E008D7406120B851281C67402120B3DEA4B6E
:103D4E004C4D7052740A120B73E0540CF521601135
:103D5E007404652170167C3C7D00AA31AB3212E2F0
:103D6E00C08531828532831209CF80327408652175
:103D7E007024853182853283782112099E901251EA
:103D8E0078251209AD78217925120764AA21AB2274
:103D9E00AC23AD2480087A007B007C007D00741279
:103DAE00120B3D7F08020BFD74F2120B9774FA1280
:103DBE000B278A258B26ECFEEDFFEE5403FCEE134B
:103DCE0013543F5403F52774036C6003023E79AA23
:103DDE0031AB321241EF74036527701C7401120B64
:103DEE0073E0C4135407F8C0E07403120B73D0E0F1
:103DFE00F07407687002E4F07401120B73E0541F44
:103E0E00F0A827E828F8744128FAE43412FB8A82D5
:103E1E008B83A3EF54406029E493F521752200783B
:103E2E0021120C418A828B83E493F87402120B7375
:103E3E00E58228FCE43583FDAA25AB2612ECF08042
:103E4E0027E493F5217522007821120C418A828B8A
:103E5E0083E493F87402120B73E58228FCE4358335
:103E6E00FDAA25AB261280B70240D47414120B7330
:103E7E001209F3E8494A4B7018A827E828F8790088
:103E8E00744228F582E43412F583E493FC7D0080BD
:103E9E002A90120A78211209AD7414120B7378212C
:103EAE001206157020A827E828F8744228F582E437
:103EBE003412F583E493FC7D007999AA25AB261282
:103ECE00EC450240D97402120B73E4F07403120B2A
:103EDE0073E4F07404120B73E4F07405120B73E4C4
:103EEE00F0EC6005146010803C7C3C7D0074141274
:103EFE000B8512E2C0EAF07C3C7D007414120B8537
:103F0E0012E2C0EAC0E07404120B73D0E0F07C1829
:103F1E007D007414120B8512E2C0EAC0E074031225
:103F2E000B73D0E0F07414120B731209F3E8494AC4
:103F3E004B700302403190120A78211209AD7414AD
:103F4E00120B7378211208D17CB57D057414120BF7
:103F5E008512E2C07414120B73782112099EE521AA
:103F6E00333354FC853182853283F0EA4B70117401
:103F7E0001120B737401F004120B737401024041B1
:103F8E00EA24FF1AEB34FFFB7414120B73EAF0A34E
:103F9E00EBF0A3E4F0A3F07C6D7D017414120B859D
:103FAE0012E2C07414120B73782112099E853182AD
:103FBE00853283E02521F0E0540370050AEA700192
:103FCE000B7401120B73E4800FC3EA98FAEB9400A2
:103FDE00FB7401120B73E004F0E0F521740165210E
:103FEE007010853182853283E05403700575211D72
:103FFE00800F74322521F582E43412F583E493F5B3
:10400E0021852182A882C3EA98EB940050BBEA0472
:10401E00C0E07402120B73D0E0F07401120B73E067
:10402E00048010853182853283E4F0A3F07402128D
:10403E000B73E4F07521008521238531828532834F
:10404E00E5822523F582E43583F583E0F912ED98B8
:10405E00E9F00521E521C3940640DCA827E828F8FD
:10406E00744128F8E43412F9E8FAE9FB8A828B836A
:10407E00A3EF54406029E493F521752200782112B4
:10408E000C418A828B83E493F87402120B73E582DF
:10409E0028FCE43583FDAA25AB2612ECF08027E43C
:1040AE0093F5217522007821120C418A828B83E4CC
:1040BE0093F87402120B73E58228FCE43583FDAA93
:1040CE0025AB261280B77402120B3D7406120B3DFF
:1040DE007F07020BFD74F1120B9774FA120B277403
:1040EE0002120B73EAF0A3EBF0A3ECF0A3EDF07465
:1040FE0002120B73782112099E123ADE8A258B2644
:10410E008C278D28782179251208E47402120B73FE
:10411E001209CF1239A390125578251209AD7402E7
:10412E00120B737825120692500479118002799140
:10413E0012F3768531828532837477F0A3740BF097
:10414E007402120B73E4F0A3F0A3F0A3F080718558
:10415E003182853283E0F8A3E0F5838882782512D8
:10416E00099EE52545264527452860289012597851
:10417E00251206C1501E7825792112089478251231
:10418E000C3D7404120B73E0FAA3E0FB12EFD37430
:10419E0004120B3D853182853283E02404F8A3E0BE
:1041AE003400F9853182853283E8F0A3E9F090116D
:1041BE00D378251209AD7402120B7378251208D12B
:1041CE0090125D78251209AD7402120B73782512C8
:1041DE000692500302415D7406120B3D7F08020BDE
:1041EE00FD74F7120B9774F8120B27EAFEEBFF1211
:1041FE00619A9002CEE0853182853283F09002CFB3
:10420E00E0C0E07401120B73D0E0F09002D0E0C079
:10421E00E07402120B73D0E0F09002D4E0C0E074B0
:10422E0003120B73D0E0F09002D1E0C0E0740412E0
:10423E000B73D0E0F09002D2E0C0E07405120B7365
:10424E00D0E0F09002D3E0C0E07406120B73D0E021
:10425E00F07521037522007821120C417406120BA1
:10426E0073AC82AD83EEFAEFFB12ECF07402120B1C
:10427E003D7821120C417402120B8DEE2403FAE4E8
:10428E003FFB12ECF07402120B3D7408120B3D7FD3
:10429E0002020BFDC082C0838A828B83A3A3A3A3D9
:1042AE00A3E09002CAF08A828B83A3A3A3A3E0901B
:1042BE0002C9F08A828B83A3A3A3E09002C8F08A7E
:1042CE00828B83A3A3E09002C7F08A828B83A3E044
:1042DE009002C6F08A828B83E09002C5F01261DDF7
:1042EE00D083D082221252900242F974F7120B97A9
:1042FE007C0080010CECC3941150468C2175220079
:10430E0074027821120B1474612521F8741235226F
:10431E00F988828983E493FA740193FB9009B1E0E2
:10432E006A7003A3E06B70CC88828983A3A3E493A5
:10433E0090026EF088828983A3A3A3E49390026F08
:10434E00F0ECC39411400A90026E740AF090026F62
:10435E00F07F02020BFD74F1120B977AF27B1012B2
:10436E0045058A218B228C238D249002A27821125E
:10437E0006A29002A2782512099E500A9002A6E08B
:10438E002AC39525800BE525F42A04F89002A6E0B1
:10439E0028F09002A278211209C09002A6E0C31361
:1043AE00F8900270E028F09002A6E0A2E0E433F06C
:1043BE0090026EE0F8900270E098402B90026EE052
:1043CE00F5F0900270E084F9F5F090026EE0A4F83A
:1043DE00900270E098F0E9F5F090026FE0A4F8908A
:1043EE00026CE028F0E4F07F08020BFD74F7120B6C
:1043FE009790027DE4F0A3F090027804F09009B556
:10440E00E0F8A3E0F97AE87B03120A9CE8FCE9FDE8
:10441E009009B3E0F8A3E0F97A647B00120A9C8855
:10442E0021EC88F0A4CCA8F089F0A428F88521F01E
:10443E00EDA428FDEC2CFCED33FDECF8EDF97AE85B
:10444E007B03120A9CE8FCE9FD900279ECF0A3EDE7
:10445E00F0A3E4F0A3F0900274F0A3F0A3F0A37421
:10446E0002F0FF020BFDC082C083A287503178009C
:10447E00790080060008E8700109C3E89409E99400
:10448E000040F178007900800508E8700109C3E862
:10449E00944CE99400505B902885E070EC8053A218
:1044AE008078005030790080060008E8700109C35A
:1044BE00E894F0E9940040F178007900C3E8948024
:1044CE00E99407502D902885E0602708E870ED09E3
:1044DE0080EA007801E860FA78007900800508E843
:1044EE00700109C3E89402E994005006902885E013
:1044FE0070ECD083D0822274F1120B9790288474C2
:10450E00CCF0E4F02AF582E43BF583E0124474909B
:10451E002885E0600F791212F5337A007B007C005B
:10452E007D008058902883E0F525E4F526F527F5E3
:10453E002874087825120875902882E0F521E4F594
:10454E0022F523F52478257921120961740878253E
:10455E00120875902881E0F52178257921120961DC
:10456E0074087825120875902880E0F52178257951
:10457E0021120961AA25AB26AC27AD287F08020BB4
:10458E00FD74F1120B97780090288474CCF0E4F04F
:10459E00902885E0600908E8C3942140F3803BEA47
:1045AE00902880F0EBA3F0ECA3F0EDA3F0740F12C3
:1045BE000B73E0F8A3E0F988828983E4F0D287A236
:1045CE008740070AEAC3941F40F5007800902885BB
:1045DE00E0600B08E8C3942140F379008002790172
:1045EE007F08020BFD74F1120B97780090288474EB
:1045FE00CCF0E4F0902885E0600908E8C3942140EF
:10460E00F3803AEA902880F0EBA3F0ECA3F0EDA350
:10461E00F0C287A28750070AEAC3941F40F5740FB1
:10462E00120B73E0F8A3E0F988828983E4F000F8B6
:10463E00902885E0600B08E8C3942140F379008050
:10464E000279017F08020BFD74F1120B978A258BFC
:10465E00268C278D287E00740F120B73120C5812A5
:10466E00F54D7402120B3D90288474CCF0E4F0905A
:10467E002885E060090EEEC3942140F3804BE525BA
:10468E00902880F0852622E522A3F0852521852716
:10469E00238528247410782112085CE521A3F07478
:1046AE0018782512085CE525A3F0740F120B73E041
:1046BE00F8A3E0F988828983E4F000FE902885E073
:1046CE00600B0EEEC3942140F37900800279017FD6
:1046DE0008020BFDC082C083902858E4F0A3F0A31B
:1046EE00F0A3F0A3F0A3F0902863F090286504F0F7
:1046FE00E99028646003E48002740FF0D083D082C6
:10470E0022D2877800A287400708E8C3941540F5A7
:10471E002274F5120B97E9FFC28475217D7522284C
:10472E007821120C419011DB78211209ADAA21AB30
:10473E0022AC23AD241246567402120B3D7521781D
:10474E007522287821120C419011DB78211209ADC7
:10475E00AA21AB22AC23AD241246567402120B3D95
:10476E007521F47522107821120C419012A978212E
:10477E001209ADAA21AB22AC23AD24124656740207
:10478E00120B3D7521FA7522107821120C419012F0
:10479E00A978211209ADAA21AB22AC23AD24124671
:1047AE00567402120B3DEF7521EF752210782160C1
:1047BE0008120C419012AD8006120C419012B17885
:1047CE00211209ADAA21AB22AC23AD241246567498
:1047DE0002120B3D7E00802B8E21E52124F0F52167
:1047EE00E43410F5227821120C419011DB7821125D
:1047FE0009ADAA21AB22AC23AD2412465674021287
:10480E000B3D0EEEC3940440CF7E00802B8E21E52F
:10481E002124F6F521E43410F5227821120C419072
:10482E0011DB78211209ADAA21AB22AC23AD2412E3
:10483E0046567402120B3D0EEEC3940440CF752102
:10484E007D7522287821120C419012B5782112091B
:10485E00ADAA21AB22AC23AD241246567402120B24
:10486E003D75217D7522287821120C419012B97860
:10487E00211209ADAA21AB22AC23AD2412465674E7
:10488E0002120B3D75217D7522287821120C419064
:10489E0011DB78211209ADAA21AB22AC23AD241273
:1048AE0046567402120B3D7E00802B8E21E521248C
:1048BE00F0F521E43410F5227821120C419011DB31
:1048CE0078211209ADAA21AB22AC23AD2412465693
:1048DE007402120B3D0EEEC3940440CF7E00802B6B
:1048EE008E21E52124F6F521E43410F522782112EB
:1048FE000C419011DB78211209ADAA21AB22AC2319
:10490E00AD241246567402120B3D0EEEC3940440B3
:10491E00CF7521F57522107821120C419011D378A4
:10492E00211209ADAA21AB22AC23AD241246567436
:10493E0002120B3D7521FB7522107821120C41904D
:10494E0011D378211209ADAA21AB22AC23AD2412CA
:10495E0046567402120B3DEF752178752228782188
:10496E00602B120C419012BD78211209ADAA21AB19
:10497E0022AC23AD241246567402120B3D75217ED5
:10498E007522287821120C419012C18029120C41F7
:10499E009012C578211209ADAA21AB22AC23AD2409
:1049AE001246567402120B3D75217E75222878210F
:1049BE00120C419011DB78211209ADAA21AB22AC69
:1049CE0023AD241246567402120B3D7521797522C1
:1049DE00287821120C419011DB78211209ADAA2101
:1049EE00AB22AC23AD241246567402120B3D752138
:1049FE007A7522287821120C419012C97821120959
:104A0E00ADAA21AB22AC23AD241246567402120B72
:104A1E003D75217D7522287821120C419012A578C2
:104A2E00211209ADAA21AB22AC23AD241246567435
:104A3E0002120B3D75217B7522287821120C4190B4
:104A4E0011DB78211209ADAA21AB22AC23AD2412C1
:104A5E0046567402120B3D75217C75222878211260
:104A6E000C419011DB78211209ADAA21AB22AC23A7
:104A7E00AD241246567402120B3D9002737401F06F
:104A8E00900272E4F07F04020BFD74F5120B979006
:104A9E000272E070057401024B4A900273E07003DB
:104AAE00024B4B900272E07003024B4B9002AEE051
:104ABE00645075217F7522287821602B120C41904D
:104ACE0012CD78211209ADAA21AB22AC23AD24124E
:104ADE0046567402120B3D75217D752228782112DF
:104AEE000C419012D18039120C419011DB782112B9
:104AFE0009ADAA21AB22AC23AD2412465674021284
:104B0E000B3D900274E0645575217D752228782145
:104B1E007008120C419012D58006120C419012D9D9
:104B2E0078211209ADAA21AB22AC23AD2412465630
:104B3E007402120B3D124B50900273E4F07F04028C
:104B4E000BFDC082C083D2E8902843E0D2E7F090FC
:104B5E0028ACE0C2E3F0A3E0C2E3F09028C77404EF
:104B6E00F0D083D0822279001246E212470F75CE22
:104B7E00A575CF5A790012471F75CEA575CF5A125B
:104B8E004BC075AD4022EEC0E0E9FE1246E275CE96
:104B9E00A575CF5A75CEA575CF5AEEF912471F756A
:104BAE00CEA575CF5A75CEA575CF5A1242F3D0E069
:104BBE00FE220242F3C082C083900270E004F090A5
:104BCE00026EE0F8900270E0C398401E90026EE014
:104BDE00F8900270E0C398F090026FE0F890026CCB
:104BEE00E028F090032CE04404F0D083D0822274AD
:104BFE00F1120B9774F4120B278A218B2274D6654F
:104C0E0021700474106522700E900274E064557069
:104C1E00067521D7752210AA21AB22124505EAF896
:104C2E00EBF9ECFAEDFB8531828532831209FF78C0
:104C3E0021120CB20100D610D710624C0500D31011
:104C4E002251D810554DD910C74DDA10814FFD1095
:104C5E0065509D517403120B73E0C39480402385FD
:104C6E003182853283782112099E782112084C9068
:104C7E0011D378211208BA853182853283782112B8
:104C8E0009C09009E5782112099E7408782112084E
:104C9E005CE52145224523602B8531828532837860
:104CAE002512099E7405782512087578257921122A
:104CBE0007647403782512087585318285328378EE
:104CCE00251209C09009B5E0F8A3E0F97AE87B0354
:104CDE00120A9CE8FCE9FD9009B3E0F8A3E0F97A2A
:104CEE00647B00120A9C8821EC88F0A4CCA8F08981
:104CFE00F0A428F88521F0EDA428FDEC2CFCED3372
:104D0E00FDECF8EDF97A647B00120A9C8821892269
:104D1E00E4F523F5248531828532837821120692BB
:104D2E00500302519D8531828532831209CF122A9A
:104D3E001A7408120B731209DB90024FE0A2E350B3
:104D4E0003024F6C0251AA900292E06401700F9020
:104D5E0002AF1209F38531828532831209FF900961
:104D6E00ED782112099E7410782112085CE5214518
:104D7E002270030251808531828532837825120993
:104D8E009E782579211207648531828532837825B4
:104D9E001209C09012B578211209AD853182853283
:104DAE00837821120692400302510B9002ADE0640B
:104DBE0055600302518002510B900292E064017023
:104DCE000F9002B31209F38531828532831209FFE7
:104DDE009009F1782112099E7410782112085CE571
:104DEE0021452270030251808531828532837825D8
:104DFE0012099E78257921120764853182853283C6
:104E0E0078251209C09009B5E0F8A3E0F97AE87B9D
:104E1E0003120A9CE828F8E933F988218922E4F57F
:104E2E0023F5248531828532837821120692500B28
:104E3E009002ADE064556003025180853182853267
:104E4E00831209CF122A1A7408120B731209DB7A15
:104E5E00D67B101245057404120B731209DB74070E
:104E6E00120B73E0C3948040217404120B737821EB
:104E7E0012099E782112084C9011D378211208BA8B
:104E8E007404120B7378211209C09009E57821126F
:104E9E00099E7408782112085CE52145224523708D
:104EAE00030250557404120B73782512099E740573
:104EBE0078251208757825792112076474037825F0
:104ECE001208757404120B7378251209C09009B577
:104EDE00E0F8A3E0F97AE87B03120A9CE8FCE9FD0E
:104EEE009009B3E0F8A3E0F97A647B00120A9C887B
:104EFE0021EC88F0A4CCA8F089F0A428F88521F044
:104F0E00EDA428FDEC2CFCED33FDECF8EDF97A6404
:104F1E007B00120A9C88218922E4F523F52474046F
:104F2E00120B73782112069250299002ADE064554F
:104F3E0060219012DD78211209AD7408120B73787E
:104F4E0021120692500D7408120B73E4F0A3F0A315
:104F5E00F0A3F090024FE0A2E340030251AA901199
:104F6E00CF78211209AD7408120B73782112098BB8
:104F7E000251AA9009F5782112099E741078211217
:104F8E00085CE5214522700302518085318285320D
:104F9E0083782512099E782579211207648531823E
:104FAE0085328378251209C09009B5E0F8A3E0F99F
:104FBE007AE87B03120A9CE828F8E933F9882189FC
:104FCE0022E4F523F5248531828532837821120679
:104FDE0092500B9002ADE064556003025180853112
:104FEE00828532831209CF122A1A7408120B731299
:104FFE0009DB7AD77B101245057404120B73120964
:10500E00DB7407120B73E0C3948040217404120BFF
:10501E0073782112099E782112084C9011D37821B1
:10502E001208BA7404120B7378211209C09009E9A0
:10503E00782112099E7408782112085CE521452218
:10504E0045236003024EB27404120B73E4F0A3F016
:10505E00A3F0A3F0024EDB7521007522007523E24A
:10506E00752404853182853283782512099E782134
:10507E00792512076485318285328378211209C021
:10508E009012E5C082C083853182853283782112E9
:10509E00099E9012E178211208BAD083D08278212D
:1050AE001206C1400E8531828532837488F0A37456
:1050BE001380449012E978211209AD853182853230
:1050CE00837821120692500E853182853283749434
:1050DE00F0A3741180219012ED78211209AD853163
:1050EE008285328378211206924012853182853272
:1050FE0083747CF0A37415F0A3E4F0A3F0853182E1
:10510E008532831209CF122A1A7408120B731209F0
:10511E00DB0251AA900292E06401700F9002AF126E
:10512E0009F38531828532831209FF9009ED7821CA
:10513E0012099E7410782112085CE5214522603216
:10514E00853182853283782512099E782579211240
:10515E00076485318285328378251209C09012B595
:10516E0078211209AD85318285328378211206921B
:10517E00500A7A007B007C007D0080288531828574
:10518E0032831209F37408120B731209FF800D7427
:10519E0008120B73E4F0A3F0A3F0A3F07408120B43
:1051AE00731209CF740C120B3D7F08020BFD74F1C4
:1051BE00120B97E9FE8A828B83E070147AD67B10ED
:1051CE001245058A258B268C278D289009E580129D
:1051DE007AD77B101245058A258B268C278D289031
:1051EE0009E9782112099E7408782112085CE521DC
:1051FE00452245237005790002528B9011DB7825EC
:10520E00120658404C782512083BEE70477A00740F
:10521E0005782512087578257921120764740378AC
:10522E002512087590027978251206925046EA905A
:10523E00027E7024E4F090027DE004F0900278E0AB
:10524E00F890027DE0C398402B90024FE0C2E380BD
:10525E0022EE70B97A0180B7E004F090027DE4F09E
:10526E00900278E0F890027EE0C398400790024FDB
:10527E00E0D2E3F090024FE0A2E3E433F97F0802BC
:10528E000BFD74F5120B97900292E064017521F4F8
:10529E0075221078217008120C419009BB800612FD
:1052AE000C419009B71209CF1246567402120B3DEB
:1052BE007521FA7821120C419009B71209CF1246C6
:1052CE00567402120B3D7521F57821120C4190098E
:1052DE00BF1209CF1246567402120B3D7521FB7890
:1052EE0021120C419009BF1209CF124656740212B8
:1052FE000B3D7E0080378E82858221752200E5214E
:10530E0024E8F523E43410F5247823120C417402BA
:10531E007821120B1474C72521F58274093522F5F4
:10532E00831209CF1246567402120B3D0EEEC39431
:10533E000740C3900292E0640170457521F4752216
:10534E00107821120C419009BB1209CF12465674E7
:10535E0002120B3D7521EB7821120C419009F912C6
:10536E0009CF1246567402120B3D7521EC782112AC
:10537E000C419009FD1209CF1246567402120B3DD4
:10538E0075217B7522287821120C419009E3E0FAF1
:10539E00E4FBFCFD1246567402120B3D75217C781F
:1053AE0021120C419009E4E0FAE4FBFCFD12465692
:1053BE007402120B3D900A01E0902858F07F04020F
:1053CE000BFD74F7120B9775210F752200782112C1
:1053DE000C417C697D137A7F7B021280B7740212B6
:1053EE000B3D900287E0F87409686007749068605E
:1053FE0002E4F0790F7A7F7B02122C2290028EEA61
:10540E00F0A3EBF07F02020BFD2274F5120B971244
:10541E00634590122E78211209AD9005D97821128C
:10542E000615600B9007B1E4F0A3F0A3F0A3F09083
:10543E0012F978211209AD9007B178211206156084
:10544E00051238FC8006125A33125BA39009407481
:10545E0032F0A3740FF0900A4EE064667006900866
:10546E00097421F01239889007A11209F3900832BD
:10547E001209FF9012F978211209AD9007B1782127
:10548E0012061560229007B1E4F0A3F0A3F0A3F08A
:10549E0090084DE0F8A3E054FDF990084DE8F0A314
:1054AE00E9F0790512F4DA12384D1263AC9007FE6A
:1054BE00E04408F0126CB41274049008237401F0E6
:1054CE00900B93782112099EE52254206025900BB3
:1054DE007B1209F3E8494A4B60067A7B7B0B8010FE
:1054EE00900B7F1209F3E8494A4B60077A7F7B0BDA
:1054FE00127765900A4CE064016005752101800306
:10550E00752100752200900851E0FAA3E054FDFBCE
:10551E0074097821120B14E5225402F9EAF8EB49CA
:10552E00F9900851E8F0A3E9F0900C67E0A2E05082
:10553E0012900859E0F8A3E04402F9900859E8F0F7
:10554E00A3E9F09007FBE0600312CB6812F4347A03
:10555E00367B0812E343900B93782112099EE521C6
:10556E00A2E0500312F33F9007FFE04440F07F04A7
:10557E00020BFDC082C0839007FFE054C0F9E470B7
:10558E000374406970249007FAE4F09007FFE0443A
:10559E0080F0900A4DE064337009A3E06466600306
:1055AE001254179007FFE0547FF0D083D08222C0B0
:1055BE0082C0839007F5E014F090098CE0A2E050D1
:1055CE0007126748E0C2E0F0900803E054EFF0D015
:1055DE0083D08222C082C0839007FBE4F012384D44
:1055EE00900842E06010E014F0E0700A9007FEE0D0
:1055FE00440CF012893B900804E054026012900AA9
:10560E004CE06401600A126A72900804E054FDF0E6
:10561E0012E19DD083D0822222C082C083900C875B
:10562E00E0A2E04011796312F09E7A837B0B12F0B8
:10563E003E792512F45F9007A11209F390083A12F1
:10564E0009FF79A212F09ED083D0822274F1120B40
:10565E00979007A1782512099E90125DC082C08393
:10566E0085252185262285272385282490083278B2
:10567E00211208F8D083D08278211206C1500890EA
:10568E00083278251209C0900C87E0A2E0500D7CFC
:10569E00837D0B7AEB7B0A79A312F12979A17A32F9
:1056AE007B0812877E900832E4F0A3F0A3F0A3F0FB
:1056BE007F08020BFD74F5120B979007FDE4F09036
:1056CE000B93782112099E9012227821120937E548
:1056DE002145224523452490082470047401800539
:1056EE00E06003E014F0C3900829E09480500C9021
:1056FE000828E02401F0A3E03400F09028EBE493B6
:10570E00FA740193FB1256269028E7E493FA74017B
:10571E0093FB125626900BAB782112099EE521457C
:10572E0022452345246030900803E05420602890E1
:10573E0008B778211206A2401E900847E004F0E058
:10574E00F8900C19E0C3985039900802E04420F00C
:10575E0090084774FE802A900802E054DFF090080B
:10576E0047E4F0900803E05420701790084DE05481
:10577E00EFF8A3E0F990084DE8F0A3E9F0A3E054A8
:10578E00FEF0900803E0544060319028E5E493F574
:10579E0021740193F522E4F523F5249008ED782188
:1057AE0012064390084C500EE004F0E0C3943D40C6
:1057BE000A1256278005E4F012565A900972E0F844
:1057CE00A3E0F9E849602A900972E024FFF0A3E013
:1057DE0034FFF0900972E0F8A3E0F9E849701290F6
:1057EE000851E054F7F8A3E0F9900851E8F0A3E966
:1057FE00F090079FE0F8A3E0F9E8496029C3E99427
:10580E00804004E0547FF090079FE024FFF0A3E077
:10581E0034FFF090079FE0F8A3E0F9E84970077AAB
:10582E009B7B0A1292877523008043852321752264
:10583E000074027821120B1474F12521F582741272
:10584E003522F583E493FE740193FFEEFAEFFB121B
:10585E00664EE97017EEFAEFFB12F027A3A3E4935E
:10586E00C0E0740193F583D082120B950523E523D6
:10587E00C3940240B6900841E0600EE014F0E07070
:10588E0008128475790F12DEBA7F04020BFD7901BE
:10589E00125A1F79012274F5120B977901125A1FB1
:1058AE0043A62053A5DF53A4DF43A60853A5F75301
:1058BE00A4F7125A3390122E78211209AD9005D901
:1058CE007821120615700D7C0B7D0079FF7AB77B5F
:1058DE000712EC45125BA379017AFA7B00125A1C6F
:1058EE009007AD782112099E782112084C9007A9D5
:1058FE00782112061560119007A1E4F0A37449F007
:10590E00A374D1F0A37412F07C0F7D007AA27B09F0
:10591E0012EB1A90082274C8F0791412F4DA7F048C
:10592E00020BFD74F5120B97125A1D125CE69003D2
:10593E0023E4F0900324F09012FD78211209AD902B
:10594E0005D97821120615602790122E782112099A
:10595E00AD9005D9782112061560157CC97D037AA4
:10596E00D97B0512EB1A7C0F7D007AA27B09800E83
:10597E0074D624D9FC74FB3405FD7AF37B0712EB45
:10598E001A9007AD782112099E782112084C9007C3
:10599E00A9782112061560119007A1E4F0A37449AD
:1059AE00F0A374D1F0A37412F09002DBE4F012585D
:1059BE009CE960047A0180027A00900800E054FEAF
:1059CE00F8A3E0F9EA5401FAE84A900800F0A3E9D6
:1059DE00F079FF12F4DA900800E0A2E050051258B8
:1059EE00A48003125A05799912F4DA9009A0E4F012
:1059FE00D2AF7F04020BFD7900025A1FC082C08312
:105A0E00900800E0A2E0E433F9D083D08222222273
:105A1E0022025A1EC082C083900290EAF0A3EBF0DD
:105A2E00D083D08222C082C0839028B4E0440FF08D
:105A3E009028B8E04403F09028BCE074FFF0902862
:105A4E00D5E0443FF09028B5E054F0F09028B9E04E
:105A5E0054FCF09028BDE0E4F09028D6E054C0F05D
:105A6E00C28390285E7404F0902C1E7492F0A3E40E
:105A7E00F0A374FFF0A3747CF0A3E4F0A3F0D08342
:105A8E00D08222C082C083125AB6902C1FE4F0A39B
:105A9E00F0A3F0A3F0A3F07905122927902C1EE4B1
:105AAE00F0D283D083D08222C082C0837C0B790057
:105ABE00900290E0FAA3E0FB122C6A125AECD0830B
:105ACE00D08222C082C0837C0B79FF900290E0FAD4
:105ADE00A3E0FB122C6A125AECD083D08222C08231
:105AEE00C083900290E0FAA3E0FB125B00D083D05B
:105AFE008222C082C0838A828B83E0902C06F08A39
:105B0E00828B83A3E0902C07F08A828B83A3A3E081
:105B1E00902C08F08A828B83A3A3A3E0902C09F02B
:105B2E008A828B83A3A3A3A3E0902C0AF08A828B94
:105B3E0083A3A3A3A3A3E0902C0BF08A828B83A351
:105B4E00A3A3A3A3A3E0902C0DF08A828B83A3A31F
:105B5E00A3A3A3A3A3E0902C0EF08A828B83A3A30E
:105B6E00A3A3A3A3A3A3E0902C0FF08A828B83A3FD
:105B7E00A3A3A3A3A3A3A3A3E0902C10F08A828BCC
:105B8E0083A3A3A3A3A3A3A3A3A3A3E0902C11F089
:105B9E00D083D08222C082C083900290E0FAA3E02C
:105BAE00FB125B00D083D08222C082C0839028A8D3
:105BBE00E4F0A3F0A3F09028ACF0A3F0A3F09028AB
:105BCE00C5F0A3F0A3F0A3F09028B074FFF0A3E407
:105BDE00F09028B4740FF0A3E4F09028B874FFF09E
:105BEE00A3E4F09028BC74FFF0A3E4F09028C074F6
:105BFE00FFF0A3E4F09028D574FFF0A3E4F0902812
:105C0E00D9F0A3F075A40075A50075A60053A4FEE7
:105C1E0053A5FE53A6FE53ADFED083D08222438EF3
:105C2E00085389F0438901758CEF758AFFD28CD2A7
:105C3E00A922C28E538EEF5389F7438910EA75F06D
:105C4E0044A4FAA8F075F044EBA428FB74FFC39AA1
:105C5E00F874FF9BF58DE8F58BD2AB22538EDFC225
:105C6E00C975CDF575CC54D2CAD2AD22780080015B
:105C7E0008E8C3941440F92274F8120B97E9FF7EDA
:105C8E00008004125C7A0EEEC39F40F77F01020B78
:105C9E00FD74F8120B97E9FEEAFF7590967597570B
:105CAE007905125C868E9674076E700574404FF5FA
:105CBE00DF7905125C867590967597567905125C9C
:105CCE00867F01020BFDC082C083D2E990284BE093
:105CDE00D2E6F0D083D08222C082C083902D00E421
:105CEE00F0A3F0125BB7125A33125AD1125FE912B7
:105CFE005C2C125C6A9028ACE0D2E2F0A3E0D2E217
:105D0E00F09028ACE0D2E1F0A3E0D2E1F07A007995
:105D1E0003125C9F125CD4D083D08222C082C083D7
:105D2E00E9FA7800C286C28590286774EAF0A3E487
:105D3E00F0E5A3A2E0400908E8C3943340F38023C2
:105D4E00D2807800A280400908E8C3941540F580FF
:105D5E0012EA6013D2877800A287400B08E8C3943A
:105D6E001540F57900801F90285FE4F0A37403F0CE
:105D7E00A37420F0A37404F09028667480F090024F
:105D8E00927404F07901D083D08222C082C083E95C
:105D9E00FA7800C286C28574046A9028677007E09C
:105DAE0054FC44028003E054FCF0A3E4F0E5A3A20B
:105DBE00E0400908E8C3943340F3800FD2807800A6
:105DCE00A280400B08E8C3941540F5790080089036
:105DDE0002927404F07901D083D0822274F8120BEF
:105DEE0097E9FE7800C286C28590286774C0F0A33A
:105DFE00E4F0E5A3A2E0400B08E8C3943340F37946
:105E0E000F8029D2807800A280400B08E8C3941539
:105E1E0040F57910801674FF6E7018D2877800A244
:105E2E0087401008E8C3941540F5791112F53379BF
:105E3E0000801E90285FE4F0A37403F0A37420F09A
:105E4E00A374C4F09028667480F09002927401F0EE
:105E5E00F97F01020BFD74F1120B9774FC120B27E4
:105E6E007ACE7B101245058531828532831209DB8D
:105E7E007403120B73E0C394814023853182853203
:105E8E0083782112099E782112084C9011D3782123
:105E9E001208BA85318285328378211209C0853184
:105EAE0082853283782112099E7410782112085C43
:105EBE009011E778251209AD782179251206E49024
:105ECE00137878211208BA90137C78251209AD78D0
:105EDE00217925120764AA21AB227404120B3D7F8F
:105EEE0008020BFDC082C0838A828B83125E64EA35
:105EFE00F9AA82AB8312E0D0AA82AB8312E0FBD068
:105F0E0083D0822274F7120B97EAFEEBFF8E828FFC
:105F1E0083E014602014602414606D14601E1470ED
:105F2E0003025FBD146015147003025FD314600C7E
:105F3E00146049804E90286374928060900296E0BF
:105F4E00F8A3E0F9900325E0687003A3E0696033DD
:105F5E00900325C082C083900296E0F8A3E0F9D0AA
:105F6E0083D082E0C398FAA3E099FB12FB83C3EAC5
:105F7E009403EB9400A2D265D03340078E828F83B8
:105F8E00E004F07F02020BFD7A617B03125EF2E900
:105F9E00900944F0A3E4F09028637496F0900325E2
:105FAE00E0F8A3E0F9900296E8F0A3E9F080CD7A4C
:105FBE00537B03125EF2E990099CF0A3E4F0902863
