:020000040000FA
:060000000200660281F11E
:03000B000281F976
:0300130002820165
:03001B0002820955
:03002B0002822628
:03003B00028282BC
:03004300028296A0
:03004B0002834AE3
:0300530002841014
:03005B0002841FFD
:1000630002842E75D00075819F75310175320202AD
:10007300CF95E490020178FD790D8002F0A3D8FCBE
:02008300D9FAA8
:1001000000002110422063308440A550C660E77093
:10011000088129914AA16BB18CC1ADD1CEE1EFF13B
:100120003112100273325222B5529442F772D662E3
:10013000399318837BB35AA3BDD39CC3FFF3DEE38B
:100140006224433420040114E664C774A444855433
:100150006AA54BB528850995EEE5CFF5ACC58DD5DB
:100160005336722611163006D776F6669556B44683
:100170005BB77AA719973887DFF7FEE79DD7BCC72B
:10018000C448E5588668A7784008611802282338D3
:10019000CCC9EDD98EE9AFF9488969990AA92BB97B
:1001A000F55AD44AB77A966A711A500A333A122A23
:1001B000FDDBDCCBBFFB9EEB799B588B3BBB1AABCB
:1001C000A66C877CE44CC55C222C033C600C411C73
:1001D000AEED8FFDECCDCDDD2AAD0BBD688D499D1B
:1001E000977EB66ED55EF44E133E322E511E700EC3
:1001F0009FFFBEEFDDDFFCCF1BBF3AAF599F788F6B
:100200008891A981CAB1EBA10CD12DC14EF16FE14A
:100210008010A100C230E320045025404670676082
:10022000B9839893FBA3DAB33DC31CD37FE35EF39A
:10023000B1029012F322D2323542145277625672D2
:10024000EAB5CBA5A89589856EF54FE52CD50DC5EA
:10025000E234C324A0148104667447642454054422
:10026000DBA7FAB79987B8975FE77EF71DC73CD73A
:10027000D326F2369106B016576676761546345672
:100280004CD96DC90EF92FE9C899E9898AB9ABA98A
:100290004458654806782768C018E1088238A328C2
:1002A0007DCB5CDB3FEB1EFBF98BD89BBBAB9ABBDA
:1002B000754A545A376A167AF10AD01AB32A923A12
:1002C0002EFD0FED6CDD4DCDAABD8BADE89DC98D2A
:1002D000267C076C645C454CA23C832CE01CC10C62
:1002E0001FEF3EFF5DCF7CDF9BAFBABFD98FF89F7A
:1002F000176E367E554E745E932EB23ED10EF01EB2
:1003000000010203040506070809AAAAAAAAAAAAC4
:100310000A0B0C0D0E0F10111213AAAAAAAAAAAA50
:100320001415161718191A1B1C1DAAAAAAAAAAAADC
:100330001E1F2021222324252627AAAAAAAAAAAA68
:1003400028292A2B2C2D2E2F3031AAAAAAAAAAAAF4
:1003500032333435363738393A3BAAAAAAAAAAAA80
:100360003C3D3E3F404142434445AAAAAAAAAAAA0C
:10037000464748494A4B4C4D4E4FAAAAAAAAAAAA98
:1003800050515253545556575859AAAAAAAAAAAA24
:0A0390005A5B5C5D5E5F60616263B2
:10039C0000010203040506070809101112131415B5
:1003AC001617181920212223242526272829303115
:1003BC003233343536373839404142434445464769
:1003CC0048495051525354555657585960616263BD
:1003DC00646566676869707172737475767778791D
:1003EC008081828384858687888990919293949565
:1003FC0096979899FFFFFFFFFFFFFFFFFFFFFFFF9F
:10040C00FFFFFFFFFFFFFFFFFFFFFFFFFFFFFFFFF0
:10041C00FFFFFFFFFFFFFFFFFFFFFFFFFFFFFFFFE0
:10042C00FFFFFFFFFFFFFFFFFFFFFFFFFFFFFFFFD0
:10043C00FFFFFFFFFFFFFFFFFFFFFFFFFFFFFFFFC0
:10044C00FFFFFFFFFFFFFFFFFFFFFFFFFFFFFFFFB0
:10045C00FFFFFFFFFFFFFFFFFFFFFFFFFFFFFFFFA0
:10046C00FFFFFFFFFFFFFFFFFFFFFFFFFFFFFFFF90
:10047C00FFFFFFFFFFFFFFFFFFFFFFFFFFFFFFFF80
:10048C00FFFFFFFFFFFFFFFFFFFFFFFFFFFFFFFF70
:10049C00FFFFFFFFFFFFFFFFFFFFFFFFFFFFFFFF60
:1004AC00FFFFFFFFFFFFFFFFFFFFFFFFFFFFFFFF50
:1004BC00FFFFFFFFFFFFFFFFFFFFFFFFFFFFFFFF40
:1004CC00FFFFFFFFFFFFFFFFFFFFFFFFFFFFFFFF30
:1004DC00FFFFFFFFFFFFFFFFFFFFFFFFFFFFFFFF20
:1004EC00FFFFFFFFFFFFFFFFFFFFFFFFFFFFFFFF10
:1004FC00FFFFFFFFFFFFFFFFFFFFFFFFFFFFFFFF00
:10050C00FFFFFFFFFFFFFFFFFFFFFFFFFFFFFFFFEF
:10051C00FFFFFFFFFFFFFFFFFFFFFFFFFFFFFFFFDF
:10052C00FFFFFFFFFFFFFFFFFFFFFFFFFFFFFFFFCF
:10053C00FFFFFFFFFFFFFFFFFFFFFFFFFFFFFFFFBF
:10054C00FFFFFFFFFFFFFFFFFFFFFFFFFFFFFFFFAF
:10055C00FFFFFFFFFFFFFFFFFFFFFFFFFFFFFFFF9F
:10056C00FFFFFFFFFFFFFFFFFFFFFFFFFFFFFFFF8F
:10057C00FFFFFFFFFFFFFFFFFFFFFFFFFFFFFFFF7F
:10058C00FFFFFFFFFFFFFFFFFFFFFFFFFFFFFFFF6F
:10059C00FFFFFFFFFFFFFFFFFFFFFFFFFFFFFFFF5F
:1005AC00FFFFFFFFFFFFFFFFFFFFFFFFFFFFFFFF4F
:1005BC00FFFFFFFFFFFFFFFFFFFFFFFFFFFFFFFF3F
:1005CC00FFFFFFFFFFFFFFFFFFFFFFFFFFFFFFFF2F
:1005DC00FFFFFFFFFFFFFFFFFFFFFFFFFFFFFFFF1F
:1005EC00FFFFFFFFFFFFFFFFFFFFFFFFFFFFFFFF0F
:1005FC00FFFFFFFFE76670100809E766700A08093D
:10060C00E76670040809E76622E066701008A3E04C
:10061C0066700A08A3E066700408A3E06622E493FF
:10062C006670130874019366700C087402936670FC
:10063C0005087403936622C3E09608A3E09608A30A
:10064C00E09608A3E096A2D265D03322C021C3E481
:10065C009396F5210874019396422108740293969F
:10066C00422108740393964221A2D265D033E5212E
:10067C007001D3D02122C3E7960809E7960809E751
:10068C00960809E79622C3E09608A3E09608A3E033
:10069C009608A3E09622C021C3E096F52108A3E0BA
:1006AC0096422108A3E096422108A3E096452170CA
:1006BC0001D3D02122C021C3E49396F52108740103
:1006CC0093964221087402939642210874039396E0
:1006DC0045217001D3D02122080808EAC0E0EBC004
:1006EC00E086F0E7A4FA180986F0E7A42AFA1809BC
:1006FC0086F0E7A42AFA180986F0E7A42AFA1986E4
:10070C00F0E7A4FBE5F02AFA190886F0E7A42BFB26
:10071C00E5F03AFA190886F0E7A42BFBE5F03AFA73
:10072C0018180986F0E7A4C5F02BFBE43AFA19086F
:10073C00E7C5F0C6A426F6E5F03BFBE43AFA1886CA
:10074C00F0E7A4F6E5F00826F6E43B08F6E43A08F0
:10075C00F6D0E0FBD0E0FA22E4CFC0E0E4CEC0E07B
:10076C00E4CDC0E0E4CCC0E075F020E626F608E667
:10077C0033F608E633F608E633F6181818EC33FCB3
:10078C00ED33FDEE33FEEF33FFC3EC9709ED970924
:10079C00EE9709EF97191919400FFFEC97FC09ED2B
:1007AC0097FD09EE97FE191906D5F0BFECF709ED88
:1007BC00F709EEF709EFF7191919D0E0FCD0E0FDB5
:1007CC00D0E0FED0E0FF2212083B18181812076484
:1007DC0012082A1919192212082A191919080808B5
:1007EC00E618181820E7E012076412083B181818CE
:1007FC0022090909E719191920E7DC080808E61885
:10080C00181820E70302076412083B18181812077F
:10081C006412083B18181812082A19191922E4C373
:10082C0097F709E497F709E497F709E497F722E4B7
:10083C00C396F608E496F608E496F608E496F622D3
:10084C00C6F4C608C6F4C608C6F4C608C6F4C62262
:10085C006016080808C6C313C618C613C618C613F4
:10086C00C618C613C6D5E0EA22700908080822602B
:10087C0016181818C6C333C608C633C608C633C6FE
:10088C0008C633C6D5E0EA22E627F60809E637F6AD
:10089C000809E637F60809E637F622E026F608A33B
:1008AC00E036F608A3E036F608A3E036F622E49329
:1008BC0026F60874019336F60874029336F608741B
:1008CC00039336F622E026F008A3E036F008A3E006
:1008DC0036F008A3E036F022C3E697F60809E6974F
:1008EC00F60809E697F60809E697F622C3E0C696DD
:1008FC00F608A3E0C696F608A3E0C696F608A3E0B1
:10090C00C696F622C3E096F008A3E096F008A3E0A2
:10091C0096F008A3E096F022E056F608A3E056F60F
:10092C0008A3E056F608A3E056F622E49356F60820
:10093C0074019356F60874029356F6087403935692
:10094C00F622E056F008A3E056F008A3E056F008B3
:10095C00A3E056F022E647F60809E647F60809E652
:10096C0047F60809E647F622E49346F60874019325
:10097C0046F60874029346F60874039346F622E092
:10098C00F608A3E0F608A3E0F608A3E0F622E49349
:10099C00F608740193F608740293F608740393F640
:1009AC0022E6F008A3E6F008A3E6F008A3E6F0229E
:1009BC00E0FAA3E0FBA3E0FCA3E0FD22EAF0A3EB4A
:1009CC00F0A3ECF0A3EDF022E0FCA3E0FDA3E0FE2D
:1009DC00A3E0FF22E0F8A3E0F9A3E0FAA3E0FB22F6
:1009EC00E8F0A3E9F0A3EAF0A3EBF022CAC0E0E63A
:1009FC00F0A308DAFAD0E0FA22CAC0E0E0A3C5827C
:100A0C00CCC582C583CDC583F0A3C582CCC582C5B8
:100A1C0083CDC583DAE6D0E0CA22CAC0E0E493A352
:100A2C00C582CCC582C583CDC583F0A3C582CCC598
:100A3C0082C583CDC583DAE5D0E0CA22C58224FD08
:100A4C00C582C58334FFC58322C3E498F8E499F9C1
:100A5C00120A968026C3E49AFAE49BFBE920E7E9A4
:100A6C00120A96E498F8E499F922C3E498F8E49908
:100A7C00F9120A96E498F8E499F9C3E49AFAE49B1B
:100A8C00FB22EB20E7CFE920E7E0B90010BB000820
:100A9C00E88AF084F8AAF022E4FBC8FA22EB702270
:100AAC007B10C833C8C933C9335007C39AC3DBF2B0
:100ABC0080069A50012ADBEAC833F4C8C933F4C95A
:100ACC00FA2275F008E4C833C8C933C933C99AC9C6
:100ADC009B5004C92AC93BD5F0ECFBC833F4C8E4DD
:100AEC00C9FA22600D08C6A2E713C618C613C6D5EC
:100AFC00E0F322600C08C6C313C618C613C6D5E0B3
:100B0C00F422700422600D18C6C333C608C633C65F
:100B1C00D5E0F41822253110AF08F531400C153210
:100B2C008008F53140021532D2AF2200C0D02531F9
:100B3C0010AF08F531500C05328008F53150020524
:100B4C0032D2AFD0D0222531F58210AF08F531402A
:100B5C000C15328008F53140021532D2AF85328344
:100B6C00222531F582E43532F583222531F8E4353E
:100B7C0032F9222531FAE43532FB222531FCE435F9
:100B8C0032FD22E4732531C582C0E0E53234FFC565
:100B9C0083C0E0E531C3958224F910AF0885833218
:100BAC008582318008858332858231D2AFCEF0A325
:100BBC00E520F0A37821E608F0A3DEFAEFF0A3E538
:100BCC008124FBF8E608F0A3E608F0A30808E60881
:100BDC00F0A3E608F0A315811581D0E0FED0E0F873
:100BEC0015811581E8C0E0EEC0E0228532838531A5
:100BFC0082E0A3FEE0A3F5207821E0A3F608DFFA5B
:100C0C00E0A3FFE0A3C0E0E0A3C0E0E0A3C0E0E00D
:100C1C00A3C0E010AF0885823185833280088582BD
:100C2C0031858332D2AFD083D08222740480067493
:100C3C000280027401C0E0F404120B52D0E01209DD
:100C4C00F8227404800474028000CCC0E0EDC0E093
:100C5C00E531C39CCCAD3250011D10AF068C318DEB
:100C6C003280068C318D32D2AF120A05D0E0FDD025
:100C7C00E0FC2274048000CCC0E0EDC0E0E531C3A0
:100C8C009CCCAD3250011D10AF068C318D328006DC
:100C9C008C318D32D2AF120A26D0E0FDD0E0FC228E
:0D11C0004431343346393832315330330076
:1011CE00010A000000600000002001000001000084
:1011DE00000000000064000000E482F282D522D5F7
:1011EE00A2EBA2C00000003F065B4F666D7D077F3D
:1011FE006F777C395E79710006060606FFFFFFFFEA
:10120E0000029000FF0000000F0000000000080028
:10121E0000004000000001001FF100040706060652
:10122E00B83E24031F1C1F1E1F1E1F1F1E1F1E1F26
:10123E000605030006030300050004180000003C29
:10124E000000008051010080D6E3018151010007AA
:10125E00000000E02E0C0110270A01401F08018833
:10126E00130501B80B0301D0070201E8030A0A00B7
:10127E0019400A800C200A6009180A4006100AB0AC
:10128E00040C0A2003080AF401050A9001040AC896
:10129E0000020A6400010A51000000D96204019C98
:1012AE003C1D91BC749388C8000000080000001318
:1012BE00000000050000005F00000070000000103C
:1012CE00000000EAF48F0416322C044006C05D883C
:1012DE0013AC73F802E3244F19001BB70067EBE35E
:1012EE0005000000000000000000000000000000EB
:1012FE000000000000000000000000000000007070
:10130E006562017065620185A3B365CCCC4E1CCCC1
:10131E00CC4E1C00000000000000000C1111111139
:10132E0011110405050204051A3C1E0000050514E2
:10133E003C0502500000000000020000000000000A
:10134E000000CD13000047170000370100000040D9
:10135E00060004202000014404000244040000445E
:10136E0004001144040012440400104404002144FB
:10137E00040022440400204404003144040032449A
:10138E00040030440400414404004244040040443C
:10139E00048001A302002C010000060000000020C2
:1013AE00400000000400E001000000320000A30B2A
:1013BE0000001A00000012000000320000001F00A2
:1013CE000000E02B3F0010B33C0091572C0016009C
:1013DE000000040C080E060E0A100C1410160E1641
:1013EE00121800100000FFFFFF0303F50D05F60DA8
:1013FE0001F40D04081020999999999999616263E5
:10140E006465660040000B0040AA8000484740001B
:10141E00484FC00EE00E04190006100120400101D5
:10142E000156414100F07C7C7CFC7C0807060212D0
:10143E00000411090103100520480400BF480440B0
:10144E00244814412C4811412A4811C12F393F7AA2
:10145E005F206F3C7F10393902F7586C222263836C
:10146E0087223E3E638387223E213D3D92919184A9
:10147E0091912D2D5E605F6C151509222270637C93
:10148E00803E94947C803E94940201021F6C6C63A7
:10149E007F7878028132787802816374787802815D
:1014AE00327478788E8E028181028282022E423BC5
:1014BE00362B1F1F0101000504130300003009A580
:1014CE008D00006C1403020100050333030000308D
:1014DE0009A58D0000721403050100800A000000AA
:1014EE0000A1260000000000000306010705053BD1
:1014FE000300008E0CC58F000000000308010009D8
:10150E00053B030000960CC58F0000000001090189
:10151E000009053B0300009A0CC58F000000000176
:10152E000C01000507330380003009A58D00000073
:10153E0000030F010041012B038000A20DAE9000AD
:10154E00000000030102040501310200003B0E10F1
:10155E00910000000003050200050A310200003F61
:10156E000E10910000000003070200050131020079
:10157E0000410E109100000000010802000501104C
:10158E00000000EA0D200001C00000030103000569
:10159E000111000000F70D630001C00000030203FB
:1015AE0000050111000000460E140005C0000003E6
:1015BE00030300050111000000440E020000C000EC
:1015CE000003040300050111000000450E04000095
:1015DE00C0000003050300050111000000F80D63B3
:1015EE000001C00000030603070923190000007A5A
:1015FE000C3F420F88000003080300050111000094
:10160E0000470E1E0005C0000003010400058613EE
:10161E000300006C0C998C000000000302040029EA
:10162E008613030000660C998C00007A14030304E1
:10163E000005A012000000F90D00000000000003DC
:10164E00040407800101018000E71D909100000055
:10165E000003090400801301010001E11D7ABA00A4
:10166E0000B214030B0400808A02010000EC1D7A04
:10167E00BA00000000030C0400808A02010000562C
:10168E001E7ABA00000000030D04008090020100D3
:10169E0000601E7ABA00000000030E0400288613B4
:1016AE00030000600C998C00007D14030F040005EC
:1016BE000B12000000190E000000000000030105CF
:1016CE0007800204000000DE090000000000000395
:1016DE00080500800404000000A60D0000000000B4
:1016EE0000030106000501300200003A0EA292002E
:1016FE0000000003010700050110020000F40D2098
:10170E00860000000003030700050110020000F52B
:10171E000D208600000000030507000501100200E1
:10172E0000F60D20860000000003010800050130C0
:10173E00020000420EF892000000000302080005AD
:10174E000131020000430EF892000000000301096F
:10175E0006050110020000300E6993000000000320
:10176E00010A00050413020000C60DE6B9000000D0
:10177E000003020A05050A11000000360E3C0001A6
:10178E00C0000003010B03058217020000CA0DB44E
:10179E00930000891403010C05050430038000DE5C
:1017AE000D4F8600000000030110020904190047C6
:1017BE0000720CFFE0F5859714010310050504195E
:1017CE00004700AA0DFFE0F5850000010610000499
:1017DE0004180300008A0CBDA200000000010111D4
:1017EE0000050111020000EB0D61940000000003E2
:1017FE00041100050812000000EC0D0000000000AE
:10180E000003011200050513030000C20DC58F0071
:10181E0000000003021200050111020000290EC390
:10182E00940000000003031200050213020000D012
:10183E000DF9940000891403041200808400000046
:10184E00002C0E0000000000000301140005021120
:10185E00000000D20D0F27008000000302140005C7
:10186E002311000000BE0D3F420F80000003031441
:10187E0000050211000000D40D0F270080000003A8
:10188E000414050501110000002A0E6300008000FB
:10189E000003011500800206010000B20C238A002D
:1018AE0000000003021500800200010000EE09A3F3
:1018BE00A20000000001031500000C02030000B29C
:1018CE000C238A00000000031FF100808400010039
:1018DE00004208E79500000000032FF10001B90255
:1018EE00020000BD1DA79600000000033FF100019D
:1018FE00FA02020000F61DA79600000000035FF139
:10190E000001A002020000741EA796000000000352
:10191E006EF100018102000000940BA796000000FA
:10192E0000036FF10001BC02020000DB0B05970003
:10193E00000000037FF100019002020000190C0567
:10194E00970000000003AFF10080040000000024A7
:10195E000800000000000003CEF1000102020200A8
:10196E0000FF0B87970000000003CFF10001020279
:10197E00020000030C87970000000003DEF1000157
:10198E000202020000010C87970000000003DFF145
:10199E0000010202020000050C8797000000000300
:1019AE00EFF100010202020000070C879700000011
:1019BE00000301F300018102020000741EAAB700A9
:1019CE000000000302F3000186020300000000DCA9
:1019DE00B7000000000303F30001860203000019A4
:1019EE000C8FB8000000000304F300010211000088
:1019FE0000380B0000000000000305F30001840214
:101A0E000200005A0C5CB9000000000306F300410E
:101A1E000832038000480E17BB000000000307F3D6
:101A2E0000019102020000B20EAEBB0000000003E6
:101A3E00010000802301000600050B000000006479
:101A4E001403020000800201000000340B000000AD
:101A5E0000661403070000800201000001460B001F
:101A6E000000008214030800008002010000023A08
:101A7E000B000000008814030A000080040100809F
:101A8E0000FA0C000000000000030B0000800401AF
:101A9E00000004660D000000008B14012000008081
:101AAE0004010000046E0D000000008C14012100E2
:101ABE00008004010000046A0D000000008C140177
:101ACE002200238002010100007A0BF39700000030
:101ADE000003010800050211000000DA0DE8030002
:101AEE0080000003020800050111000000270E63AC
:101AFE00000AC0000003011000052311000300BA04
:101B0E000D3F420F8000000302100005011100007E
:101B1E0000280E6300008000000301F10005021191
:101B2E00000000DC0D900100808014030AF1000516
:101B3E000411000000FA0C0F2700808014030048E7
:101B4E004040044816001A481680004840C000481D
:101B5E0040400448040008483C410C483C410040C9
:101B6E00FF0F08483C410C483C410040FFBF004875
:101B7E00404004480880004804000448404008489B
:101B8E0040C000484040044804800048404004489B
:101B9E000580040040400048404008003C410C00D5
:101BAE003C410040FF0F04483C4108483C41004086
:101BBE00FF8F004840400448098004004040004820
:101BCE0040401000010008003C410C003C4104481C
:101BDE003C4108483CC104004040004840400800D9
:101BEE003C410C003CC104202000F4020400AB1068
:101BFE000800B803048000484840044834410848AF
:101C0E003C410C483C4110483CC10048404004480F
:101C1E0008400C4801000D48054012480240144887
:101C2E00144116483C411A483C411E483CC10048EC
:101C3E003C4108483C4110483C4118483C41204832
:101C4E003CC100483841004838410140FF91001125
:101C5E0000630CEC9C03013000166A2E9D030330CA
:101C6E0000170E359D0304300018103C9D030530FF
:101C7E00001900439D030630001A5E879E0307304D
:101C8E00001B0B739F030830001C007A9F03093062
:101C9E00001E0B739F030C30001F1099A0030D3014
:101CAE0000533C26A1030F30000C2A3BA20110303A
:101CBE00000D8A75A201123000120F79A1031330A4
:101CCE00000B249BA3010133060900A2A3010034DB
:101CDE00000A1394A301003600621D80A103003791
:101CEE00006114E6A10300A0002406279D0301A0B5
:101CFE000025103C9D0347638D8F8F4763758F8F33
:101D0E0000484D4004483CC1637C7B7B777E636317
:101D1E00637A7E7E0C0408028132747C7B7B0281A6
:101D2E0032747C7B777E7E028132747C7B7A7E7EFF
:101D3E00333345666861605F5F4638384B5E666078
:101D4E005F67672D0A0A00029000030102900003EC
:101D5E00010100040302010004030C01000403014D
:101D6E00040004030204000403040080040300FFC3
:101D7E0000000300FF01000300FF02000300000B40
:101D8E00000300000C000300000D000140000000E5
:101D9E00040000003B0000000E00000000143003A1
:101DAE0000FFFF0000003000010101090714034588
:101DBE0050534F4E31314C2053657020313020320C
:101DCE003031392032323A30303A343300000000AC
:101DDE00600057B004B90098083200580214444409
:101DEE005A595858582D4D0044445A595858582D40
:101DFE004D00000000000000000000000000000088
:101E0E00000000000000000044445A595858582D54
:101E1E004D00000000000000000000000000000067
:101E2E000000000000000000585858580000000044
:101E3E000000000000000000000000000000000094
:101E4E000000000000000000323031362D58582DB1
:101E5E005858444C2F543634352D323030372D31BE
:101E6E00340077013355006400000078020014122C
:101E7E002501AAAAAAAAAAAAAAAA000000000000DE
:101E8E000000000000000000000000000000000044
:101E9E000000000000000044445A59585858432D81
:101EAE004D44445A59585858432D4D0000000000D7
:101EBE000000000000000000000000000000000014
:101ECE000044445A59585858432D4D000000000004
:101EDE0000000000000000000000000000000000F4
:101EEE000044445A5958585843000044445A5958CB
:101EFE0058584300000000000000000000000000E1
:101F0E00000000000000000000000044445A595830
:101F1E0058584300000000000000000000000000C0
:101F2E00000000000000000000000044445A595810
:101F3E0058582D4D0044445A595858582D4D0000AC
:101F4E000000000000000000000000000000000083
:101F5E00000000000044445A595858582D4D0000B6
:101F6E000000000000000000000000000000000063
:101F7E00000000000044445A5958585800000044CC
:101F8E00445A595858580000000000000000000044
:101F9E0000000000000000000000000000000044EF
:101FAE00445A595858580000000000000000000024
:101FBE0000000000000000000000000000000034DF
:101FCE001200400000004000000000000000000071
:101FDE0000000000000040000000000000000000B3
:101FEE0000000000000000000000000000000000E3
:101FFE000000000000000000000000600000000073
:10200E0000000000000000000000000000000000C2
:10201E000000000000007200B1014DE8FFFF6CFDF2
:10202E00FFFF0000000000000000000000000000A4
:10203E00000000000000000000000000000077011A
:10204E0033550000000000000000000000000001F9
:10205E00111111111111F4010000640000000100B2
:10206E00000001000000204E0000000000000000F3
:10207E000000000000000000000000000000000052
:10208E000000000080110000001F00000000000092
:10209E000000000000000000000000000000000032
:1020AE000000000000000000000000000000000022
:1020BE000000000000000000000000000000000012
:1020CE000000000000000000000000000000000002
:1020DE0000000000000000000000000000000000F2
:1020EE00000000000000000000004088A0004088B2
:1020FE00A0004088A00000000000000000000000CA
:10210E0000000000000000000000000000000000C1
:10211E0000000000000000000000000000000000B1
:10212E0000000000000000000000000000000000A1
:10213E000000000000000000000000000000010090
:10214E000000000000000000000000000000000081
:10215E000000000000000000000000000000000071
:10216E000000000000000000000000000000000061
:10217E000000000000000000000000000000000051
:10218E000000000000000010000800000000E8033E
:10219E000000FFE0F505C8000000000000002C0064
:1021AE000000307500000049D1120000010101004D
:1021BE009999999900000000A005000000005802AE
:1021CE000401000000000256341204785634140044
:1021DE000004100000000200040808071B000000A5
:1021EE0000000000000000000000000000000000E1
:1021FE0000000000000000000000000000000000D1
:10220E0000000000000000003C3C3C3C0A3C1E1E4E
:10221E00999912000F83838303830F0F0F0F05020B
:10222E000208040000007F0102040505FFFFFFFF06
:10223E00FFFFFFFF00000000000000000000000094
:10224E000000000000000000000000000000000080
:10225E000000000000000000000000000000000070
:10226E000000000000000000000000000000000060
:10227E000000000000000000000000000000000050
:10228E000000000000000000000000000000000040
:10229E000000000000000000000000000000000030
:1022AE0000000000000000161102120C120C120C9D
:1022BE00120C120C120C120C120C120C120C120C20
:1022CE00120C120C1102120C120C120C120C120C1B
:1022DE00120C120C120C120C120C120C120C120C00
:1022EE00881300241300C012005C120000000000CE
:1022FE0000000000000000000000000000000000D0
:10230E0000000000000000000000000000000000BF
:10231E0000000000000000000000000000000000AF
:10232E00000000000000000000000000000000009F
:10233E00000000000000000000000000000000008F
:10234E00881300241300C012005C1200000000006D
:10235E00000000000000000000000000000000006F
:10236E00000000000000000000000000000000005F
:10237E00000000000000000000000000000000004F
:10238E00000000000000000000000000000000003F
:10239E00000000000000000000000000000000002F
:1023AE0001008216032D8443015A82700387849D97
:1023BE00849D849D849D849D849D849D0000000049
:1023CE0000000000000000000000000000000000FF
:1023DE0000000000000000000000000000000000EF
:1023EE0000000000000000000099999999999999B0
:1023FE009999999999000000BE051246843F056986
:10240E000040BE0340000000000002FA02900000EF
:10241E000002900000000000000000000000000616
:10242E0012010100040002010004002000800200DD
:10243E00000290000000000B0000000000000000F1
:10244E00000000000000000000000000000000007E
:10245E0000000001010004000201000400200080C1
:10246E0002000002900000000000000001000000C9
:10247E00000E040004010E04000400020400040116
:10248E00020400040000010102000001020200002B
:10249E0001030200010B0004000904000400020005
:1024AE008002000214000400031400040000000067
:1024BE00000000000000000000000000000000000E
:1024CE0000000000000000000000000000000000FE
:1024DE0000000000000000000000000000000000EE
:1024EE0000000000000000000000000000000000DE
:1024FE0000000000000000000000000000000000CE
:10250E0000000000000000000000000000000000BD
:10251E000000000000000000000000051700000091
:10252E000000000100000000020000000003000097
:10253E000000040000000000000000000000000089
:10254E00000000000000000000000000000000007D
:10255E000000000000010000000002000000000367
:10256E000000000004000000010000000001010056
:10257E000000010200000001030000000104000041
:10258E000002000000000201000000020200000034
:10259E000203000000020400000001040004010117
:1025AE000400040001010004000201000400000107
:1025BE0001020000010202000001030200000106F8
:1025CE0002000000000000000000000000000000FB
:1025DE0000000000000000000000000000000000ED
:1025EE0000000000000000000000000000000000DD
:1025FE0000000000000000000000000000000000CD
:10260E0000000000000000000000000000000000BC
:10261E00000000000000001FF1000407060606007F
:10262E0002900015222D3E7F8286898A10110B3171
:10263E005C645D654A0200004B0200004D024F02D1
:10264E005102050404090903039494797D7D79816F
:10265E00817985851C1C5B5B01939353025602594D
:10266E00025C025E02600257027C7B7BF4020480F5
:10267E000006030300050004FFFFFFFFFF99999971
:10268E00999999616263646566000000000000001C
:10269E00000000805E666861605F673F6B6D595831
:1026AE00526C4C46484F4E4D47403A3C4342413B9C
:1026BE00342A2C3736352B241E202726251F181298
:1026CE00141B1A19130C06080F0E0D074944454B1F
:1026DE0051504A00000000010000000100030002FA
:1026EE00000000070040000C000000070304000279
:1026FE00003F040F03080004003F042F03300002C4
:10270E00003F048F03300002003F04EF033000024D
:10271E00003F044F04300002003F04AF04180014C1
:10272E000000008F0614000A000000570722000A5E
:10273E00001304AB0820000A000000EB097C000A1D
:10274E00000000C30E300003003F04530F300002A0
:10275E00003F04B30F38000200370423100C0002B0
:10276E00006F043B1010000A009704DB100C0014DD
:10277E00006F04CB1110001400B7040B1330000AC5
:10278E00000000EB1410000A00A7048B150C000AC1
:10279E0000000003160C000A0000007B1628000A39
:1027AE000000000B1828000A0000009B190C000AFC
:1027BE00000000131A0C000A0000008B1A18000A01
:1027CE000000007B1B0C000A000000F31B0C000A2B
:1027DE000000006B1C180014007B044B1E0C001430
:1027EE00006F043B1F0C001400C7042B20040014C0
:1027FE000074027B200400050074028F200C00057B
:10280E00000000CB20040002000000F402040018B7
:10281E00050800C4030100C5030500CA030240AB4E
:10282E00100200B80304000144040002440480AB0B
:10283E00100200B40304008F0304002504040001F9
:10284E004404000244040011440400124404002114
:10285E004404002244040031440400324404004184
:10286E00440400424404800000330001440400028A
:10287E00440480F40204000144040002440400777E
:10288E00040200A004030025040300FA030280F4EE
:10289E00023300A71104000F120100180504C00036
:1028AE000033003805040001440400024404800093
:1028BE00003300A711040001440400024404808F79
:1028CE00030400014404000244048000400000A000
:1028DE000000400000FEFFFFFF030149D112472711
:1028EE006267C082C083E9FB74FF2B1904601A7AF9
:1028FE0000800808E8C3941440F90A900325E0F814
:10290E00EAC39850E1780080EBD083D08222C08257
:10291E00C0838A828B83A3E0F98A828B83E0FAE9F3
:10292E00FBD083D0822274F7120B91EAFCEBFDE907
:10293E00FE7A557B55802FEAF9EBFA8C828D83E077
:10294E00F521EA652125E0FAE433FBE42AF58274E9
:10295E00013BF583E493FAA3E49369FB8C828D83A8
:10296E00A3AC82AD831EEE70CE7F02020BF7C08247
:10297E00C083801D8C828D83E4938A828B83F08C3E
:10298E00828D83A3AC82AD838A828B83A3AA82AB12
:10299E0083E9F874FF28190470DAD083D08222C03C
:1029AE0082C083801C8C828D83E08A828B83F08C24
:1029BE00828D83A3AC82AD838A828B83A3AA82ABE2
:1029CE0083E9F874FF28190470DBD083D08222C00B
:1029DE0082C083800BE98A828B83F0A3AA82AB83A9
:1029EE00ECF874FF281C0470ECD083D08222792876
:1029FE00E9FA74FF2A1904600C7800E8C3941E509B
:102A0E00EF000880F62279002274F1120B9174FF08
:102A1E00120B218A218B22853182853283E4F0F5D7
:102A2E0025F52680080525E52570020526C3E52532
:102A3E009403E52694005034E004F0852127852286
:102A4E0028E528547FFF122C0179A0122B82E97001
:102A5E00D4EFF9122B82E970CCA927122B82E970E0
:102A6E00C4122C0179A1122B82E970B9752500755B
:102A7E0026007410120B6DE0FEA3E0FF7412120B11
:102A8E006DE0F521A3E0F5228010122C87A3AE8213
:102A9E00AF830525E52570020526C3E5259521E5BD
:102AAE002695225022122B37E98E828F83F0E52154
:102ABE0024FFF8E52234FFF9E865257003E9652661
:102ACE0070C8122C6380C6122C2F1229FC43A6024A
:102ADE0053A4FD43A60453A5FB53A4FB8531828565
:102AEE003283E0C39403900252E040074408F07929
:102AFE0002800554F7F079007401120B377F08023B
:102B0E000BF774F3120B91752502752600782512BA
:102B1E000C3B740F120B6D120C52122A1774041206
:102B2E000B3779007F06020BF7C082C08353A6FBDA
:102B3E0053A5FB53A4FB43A40243A502900201E458
:102B4E00F0F8801A000043A60453A5FB53A4FBE043
:102B5E00C333F0E5A7A2E15004E0D2E0F008E8C3E9
:102B6E00940853A6FB53A5FB53A4FB40D7E0F9D022
:102B7E0083D08222C082C083E9900202F053A6FB6A
:102B8E0053A5FB53A4FB53A6FD53A4FD7800801858
:102B9E0053A6FD53A4FDE0C333F0000043A6045337
:102BAE00A5FB53A4FB000008E8C3940853A6FB53EF
:102BBE00A5FB53A4FB500AE0A2E750D443A6028023
:102BCE00D2000043A40243A50243A60453A5FB531F
:102BDE00A4FB0000E5A7A2E15004D2F08002C2F0EF
:102BEE00A2F0E433F953A6FB53A5FB53A4FBD08309
:102BFE00D0822253A6FB53A5FB53A4FB43A602533C
:102C0E00A4FD43A60453A5FB53A4FB000053A6FD4D
:102C1E0053A4FD000053A6FB53A5FB53A4FB0000D9
:102C2E002253A6FB53A5FB53A4FB53A6FD53A4FDB1
:102C3E00000043A60453A5FB53A4FB000043A602C9
:102C4E0053A4FD000043A40243A50253A6FB53A5C3
:102C5E00FB53A4FB2253A6FB53A5FB53A4FB43A695
:102C6E000253A4FD43A60453A5FB53A4FB0000533B
:102C7E00A6FB53A5FB53A4FB2253A6FB53A5FB5364
:102C8E00A4FB53A6FD53A4FD43A60453A5FB53A4D6
:102C9E00FB000053A6FB53A5FB53A4FB22C082C02E
:102CAE0083E9701C90020374FFF0900208E4F0A315
:102CBE00F0900207F09002047403F0A3E4F0A3F086
:102CCE00D083D08222C082C083E4801B900205E0B4
:102CDE006013E014F0E0700D9002047404F09003A1
:102CEE00C1E04410F0740160E3D083D0822274F806
:102CFE00120B9190024D74FFF0A3F0A3F0A3740F8A
:102D0E00F07F01020BF7125207022D1A2274F812ED
:102D1E000B9190027DE4F090026EF0900273F0A39E
:102D2E00F0A3F0A3F090026FF0A3F0A3F0A3F09045
:102D3E000277F0A3F0A3F0A3F090027BF0F9122D2E
:102D4E00927F01020BF7C082C083C2AF900268E08F
:102D5E002401F0A3E03400F0D2AFD083D08222C0A1
:102D6E0082C083900264E02401F0A3E03400F0906E
:102D7E000268E0F8A3E0F9900266E8F0A3E9F0D06B
:102D8E0083D0822274F8120B91E970117C0A7900BB
:102D9E007A647B021229DD90027CE4803CC2AF9003
:102DAE000266E0F8A3E0F9A3C3E098F0A3E099F07F
:102DBE00900264E4F0A3F0A3F0A3F0D2AFA3C3E0BB
:102DCE009409A3E0940740099002687408F0A314D4
:102DDE00F0A3E4F0A3F0A3F0A3F07F01020BF7C081
:102DEE0082C0839028E7E0F8900B99E0C398403AB0
:102DFE0090098FE0C41354075403640179016005F0
:102E0E001237C3800812374079011236579009786D
:102E1E00743CF0900DF8E090097BF09009AE743C94
:102E2E00F0A3E4F01256401231C190098DE054DF48
:102E3E00F0D083D0822274F3120B9190098FE0FAB6
:102E4E00A3E0FBEAA2E0503C900994E054027039F2
:102E5E00EA5410702F9009AFE07029900DA27821DE
:102E6E0012098B852226E52654107010EB54026051
:102E7E000BE52154027005EB540180069009E2E047
:102E8E005410600543A620800353A6DF53A5DF53DD
:102E9E00A4DFEAA2E05008900994E0540260030215
:102EAE002F41EA54106003022F3CEAC41354075416
:102EBE0003707B9009B2E070759009AFE0706F906F
:102ECE0009AEE07069900991E0F521A3E0F5227456
:102EDE00067821120AFFE52154077052900D8A12CE
:102EEE0009E0E8494A4B6006900945E06040900DC4
:102EFE00861209E0E8494A4B703490240EC082C015
:102F0E00839009DE782112098BD083D082E4935509
:102F1E0021F8A3E4935522F9E8497012901206782D
:102F2E002112099A9009717821120615700543A68F
:102F3E0008800353A6F753A5F753A4F77F06020B99
:102F4E00F7C082C083E9C3945750287401C0E0745F
:102F5E000759F8D0E0B800028004C333D8FCF8E972
:102F6E00131313541FFA74462AF582E43409F583B9
:102F7E00E048F0D083D08222C082C083E9C3945748
:102F8E0050297401C0E0740759F8D0E0B8000280EF
:102F9E0004C333D8FCF4F8E9131313541FFA744620
:102FAE002AF582E43409F583E058F0D083D08222EA
:102FBE0074F3120B9174F529F582E43411F583E460
:102FCE0093F525EA75F007A4F8A9F074A228FE740B
:102FDE002639FF7526008005122F860526E526C3A5
:102FEE0094075027852621EE2521F582E43FF583AF
:102FFE00E493F9852521752200E5267821120AEF42
:10300E00E521A2E050D2122F4F80D07F06020BF79F
:10301E0074F7120B91900991E05402607BEA4B60B9
:10302E00777E0080010E743C2EF8E43406F9E82415
:10303E0015FCE93403FD8C828D83E0FFE82416F540
:10304E0082E93403F583E06F70DB8C828D83E0F4CC
:10305E0060010EEEC3941E503F8A828B83E493FC74
:10306E00743C2EF8E43406F9ECC0E0E82415F58241
:10307E00E93403F583D0E0F08A828B83A3AA82AB76
:10308E0083E493FDEC6D70CAEDC0E0E82416F58282
:10309E00E93403F583D0E0F07F02020BF7C082C063
:1030AE00838A828B83E493900976F0A3E4F08A827C
:1030BE008B83A3AA82AB8312301ED083D08222745C
:1030CE00F7120B91E9FE900991E0540260299009E4
:1030DE00767449F0A3E4F0EEC394055010743529CC
:1030EE00F582E43426F583E493900951F012301EF4
:1030FE007A777B2612301E7F02020BF774F7120BC3
:10310E009174EC120B21A831A93288218922AE21AB
:10311E00AF227521147522007821120C3BEAFCEBCC
:10312E00FD7402120B7F12779D7402120B378531DC
:10313E0082853283E0700E7401120B6DE070068092
:10314E0048E8FEE9FF8E828F83E0F87401687043D1
:10315E00A3AE82AF8390098FE05401F8A3E054012F
:10316E00F97401687001E960098E828F83E0F912AB
:10317E002F4F8E828F83A3A882A9838E828F83E0A6
:10318E00FA88828983E06A70B87414120B377F0252
:10319E00020BF774026870D1A3AE82AF83E0F8C45D
:1031AE00540FFA740F58F9740F6970027910122FB8
:1031BE00BE80BF74F1120B9174F0120B217C0B7D4B
:1031CE00007A467B0912DB7190120A782112099A55
:1031DE00AA21AB22AC23AD2412DDBFE970107C0B0B
:1031EE007D0079FF7A467B0912DC9C02364A9009F3
:1031FE008FE05481F8A3E05401F97481687001E9FD
:10320E00700302364A9003ECE531F0A3E532F07C10
:10321E00207D0079FF7A517B0912DC9C90098FE0AA
:10322E0054F7F0900976E4F0A3F0900991E044028F
:10323E00F07A717B0912A4BCE054FDF0900977E09E
:10324E00F954076006E9540704800AA8319003EC8C
:10325E00E0C398C333FF790412DB9F853182853238
:10326E0083782112098B7E00900976E0F8540714BA
:10327E00601B14601814605C1460591470030233E0
:10328E001214700302331714600302331CE854083F
:10329E00603E900E44E0F8C394025034E8FE901263
:1032AE000E782512099AAA25AB26AC27AD2812DD79
:1032BE00BFE9701890098FE054087010EE700590F9
:1032CE001212800390121678211208BA7402801717
:1032DE000E0E8022E85408601B900E45E0F8C39451
:1032EE00045011E8FE7404C39E333354FC7821124B
:1032FE00085C80027E04900976E0544060107401F0
:10330E002EFF800A0E7F0280050E0E0E7F04EE60E9
:10331E001074302EF582E43426F583E493F9122FDF
:10332E004F900976E05407F8603174FF2825E0F8D5
:10333E00E433F9744228F582742639F583E493C098
:10334E00E0740193F583D082AA82AB83EA4B600BC3
:10335E0074062AFA74243BFB12310A7E078012EEA1
:10336E00FAE521540FF9122FBE7404782112085C6D
:10337E001E74FF2F1F0470E7E521452245234524C7
:10338E00703D90098FE05408604E900971782112BB
:10339E00098B7410782112085C7490652145227097
:1033AE0032EEFA7910122FBEEE75F007A4F8A9F0DE
:1033BE0074A828F582742639F583E493F98016EE05
:1033CE00FAE521540FF9122FBE7404782112085C0D
:1033DE001E80A57930122F4F90098FE0A2E0400396
:1033EE000234FF900993E054406055900976E05402
:1033FE0020704D900D65E0F8C3940A502F7401288B
:10340E00FF7523048022EFC39523401A8523217470
:10341E003D2521F582E43426F583E493F9122F4FEE
:10342E00E523CFC39FFF1523E52370DA7995122F7D
:10343E004F7A9A7B0C12DDFFE970057962122F4FDD
:10344E00900D5BE070030234D7900976E054107053
:10345E0078900830E0F8A3E0F5838882E0F521C388
:10346E0094045021900990E0540170089009EBE00B
:10347E0054027011743A2521F582E43426F583E462
:10348E0093F9122F4F900C5BE064016019900DEBD5
:10349E00E0A2E15011795A122F4F7A967B0C12DD71
:1034AE00FFE97025801A900DA2782112098B9012D7
:1034BE001A7821120937E521452245234524600457
:1034CE00796F8002795A122F4F90097EE060229018
:1034DE00097DE025E0F8E433F9746928F582742655
:1034EE0039F583E4932406FAA3E4933424FB1231D2
:1034FE000A7A517B0912310A900945E06018900949
:10350E0090E05402603E900DA2782112098BE521C5
:10351E00540270308033900D8A1209E0E8494A4B0C
:10352E00700C900D861209E0E8494A4B601B900919
:10353E008FE05401F8A3E05401F97401687003742C
:10354E0001697005798C122F4F9009DFE0544060AD
:10355E0041900991E0F521A3E0F52274067821123D
:10356E000AFFE5215407C39404401A900DA2782156
:10357E0012098B90121E7821120937E5214522453A
:10358E002345246008900990E0540160057990125B
:10359E002F4F7AA67B0D12DE48E96005796A122F4D
:1035AE004F9009E0E0A2E05005792F122F4F9009BD
:1035BE00E2E054087028900DA2782112098B901227
:1035CE00227821120937E521452245234524600E34
:1035DE009009B5E0600D900990E054016005797294
:1035EE00122F4F90098FE05401F8A3E05401F974A3
:1035FE0001687001E960299009DEE05404600579E4
:10360E0028122F4F900991E0F521A3E0F5227406C0
:10361E007821120AFFE521540760057988122F4F91
:10362E00900CF7E0C39403500EA3E0C3940350072D
:10363E00A3E0C394C840057976122F4F1257B07489
:10364E0010120B377F08020BF774F5120B91E9FE7F
:10365E0090098FE0547FF0901226782112099AAAD1
:10366E0021AB22AC23AD2412DDBFE97009900975A0
:10367E00E0C39402403290122A782112099AAA21AC
:10368E00AB22AC23AD2412DDBFE97024900975E0A6
:10369E00FA900D5BE024FFF8E434FFF9C3EA98E4F6
:1036AE0099A2D265D0335008900975E004F0807D60
:1036BE0090098FE0C413540754036401700AEE702E
:1036CE00077900123740802290097CE004F09009BF
:1036DE007BE0F8A3E0C3984016EE700E7900123727
:1036EE00409009B2E06003E014F090097CE4F075BC
:1036FE0021057522007821120C3B90097CE075F0B3
:10370E0005A4F8A9F090097FE0FA75F0EFA4CAAC11
:10371E00F02CFB740E2AFA74293BFBEA28FCEB39D9
:10372E00FD7A717B0912C2127402120B377F0402EA
:10373E000BF774F7120B9190098FE0549FFAA3E0E8
:10374E00FB7403697015EA444090098FF0A3EBF007
:10375E0090097A74C7F0A37402804DE9C3940250A5
:10376E001C892175220074057821120B0EE5215457
:10377E0060FCEA4C90098FF0A3EBF0800CEA444019
:10378E0090098FF0A3EBF07900E990097A7003E4C9
:10379E0080027463F074F729F582E4340DF583E04A
:1037AE0090097BF0E990097FF090098FE0547FF04B
:1037BE007F02020BF774F8120B9112374090097CBE
:1037CE007480F07901123657900E46E0900978F029
:1037DE007F01020BF774F5120B9190098FE0FAA29C
:1037EE00E050559009CFE0FC900E47E025E0F8E45C
:1037FE0033F9EC98E499C365D033502A90122E78A1
:10380E002112099A90063C78211206156018EAC416
:10381E001354075403F87402686003E870089009A3
:10382E008FE04410805590063C74B8F0A3743EF0BF
:10383E00A37424F0A37403F090097EE06003E014F7
:10384E00F090098CE0602B9009AFE06003E014F07B
:10385E009009AEE06003E014F0900978E014F0E017
:10386E0070107900123657900E46E0900978F012DB
:10387E0056401231C190098FE054EFF0122E447F62
:10388E0004020BF774F5120B9112564090122E781B
:10389E002112099A90063C7821120615600D7C0BB8
:1038AE007D0079FF7A467B0912DC9C1257B07900B5
:1038BE001237C39009AEE4F07F04020BF774F512D1
:1038CE000B9174F8120B21AA31AB32124185900B79
:1038DE0092E0A2E150309009DEE0F8A3E04480F9D6
:1038EE009009DEE8F0A3E9F0900DA2782112098B81
:1038FE00E5215408700A790712E3B0790312E2C782
:10390E00900944743CF07408120B377F04020BF7D5
:10391E0074F8120B911238CB900934E4F0A3F0A393
:10392E00F0A3F012BCF17F01020BF774F1120B91B0
:10393E0074E5120B21853182853283EAF0A3EBF018
:10394E00A3ECF0A3EDF0853182853283120C4E7C10
:10395E00007D00740F120B7F123D4C7404120B3756
:10396E00AA31AB3212E34AE9FE75210375220078C3
:10397E0021120C3B7410120B6DAC82AD83740612C7
:10398E000B7F12DD477402120B377821120C3B7439
:10399E000D120B87740A120B6DAA82AB8312DD47D0
:1039AE007402120B37752101EE7821120B0E74077B
:1039BE00120B6DE521F0790A12E42B7404120B7FC1
:1039CE00124238900B92E0C2E1F07404120B6DE0DB
:1039DE00F912DDE1E9900944F08531828532837870
:1039EE002112098B90120A78211208BA90093878A0
:1039FE00211209AD782112084CA378211209AD8548
:103A0E0031828532831209E09009301209EC85313A
:103A1E0082853283782512098B900944E0F521E4E2
:103A2E00F522F523F524782579211208E49009343E
:103A3E0078251209AD7A067B0D12E0957A0A7B0D78
:103A4E0012E0957A0E7B0D12E0959009DEE0F8A358
:103A5E00E0547FF99009DEE8F0A3E9F0741B120B35
:103A6E00377F08020BF77C037D007A307B09023A20
:103A7E007F74F1120B9174EE120B21740A120B6DFE
:103A8E00ECF0A3EDF0EAFEEBFF740E120B6DE4F01A
:103A9E00A3F0A3F0A3F0740A120B6DE05403F5210A
:103AAE00740365217013740C120B7F124185740D13
:103ABE00120B6DE0541FF08057EE4F7003023D3A2B
:103ACE00743E2521F582E43412F583E493F521F951
:103ADE001278EAE964017003023D3A752200740A15
:103AEE00120B6DA3E0544078216011120C3BEEFCDA
:103AFE00EFFD740E120B7F12DD47800F120C3BEEA2
:103B0E00FCEFFD740E120B7F12779D7402120B37B1
:103B1E007521057522007821120C3B7C057D1474ED
:103B2E000E120B7F1278AC7402120B37EA4B4C4D0F
:103B3E00700B7AFF7BFF7CFF7DFF023D427E008093
:103B4E002A740C120B6DE5822EF582E43583F58313
:103B5E00E0F912DDE1E9C0E07404120B6DE5822E8E
:103B6E00F582E43583F583D0E0F00EEEC394064083
:103B7E00D07405120B6DE014FA7404120B6DE0FC98
:103B8E0075F06DA4CCA8F028FDE02403F521E434F3
:103B9E0000F52274027821120AEFEC2521F8ED359A
:103BAE0022F9E8FCE9FD853182853283ECF0A3ED44
:103BBE00F0A3E4F0A3F0FE804374322EF582E434D9
:103BCE0012F583E493F521E4F522F523F5248531EE
:103BDE008285328378211208D17404120B6DE05461
:103BEE0003701874016E70139011DB782112099A0C
:103BFE0085318285328378211208D10EEEC39A4028
:103C0E00B8853182853283C082C0837406120B6DF3
:103C1E00E0F521E4F522F523F524D083D082782136
:103C2E001208A7901249782512099A78217925123F
:103C3E0006E47407120B6DE0F525E4F526F527F57D
:103C4E00287821792512089490124D782512099A18
:103C5E00782179251206E47408120B6DE0F525E43F
:103C6E00F526F527F5287821792512089490124D1E
:103C7E00782512099A782179251206E47409120B17
:103C8E006DE0F525E4F526F527F52878217925123E
:103C9E00089485318285328378211209AD8531826F
:103CAE00853283120C4E7C007D007408120B7F123D
:103CBE003D4C7404120B37752106752200782112C3
:103CCE000C3B740E120B877406120B7F1278AC74B9
:103CDE0002120B37EA4B4C4D7052740A120B6DE008
:103CEE00540CF52160117404652170167C3C7D0026
:103CFE00AA31AB3212D3178531828532831209BCB9
:103D0E008032740865217024853182853283782152
:103D1E0012098B901251782512099A782179251261
:103D2E000764AA21AB22AC23AD2480087A007B0065
:103D3E007C007D007412120B377F08020BF774F2B1
:103D4E00120B9174FA120B218A258B26ECFEEDFFD5
:103D5E00EE5403FCEE1313543F5403F52774036C17
:103D6E006003023E0FAA31AB321241857403652700
:103D7E00701C7401120B6DE0C4135407F8C0E0748C
:103D8E0003120B6DD0E0F07407687002E4F074015A
:103D9E00120B6DE0541FF0A827E828F8744128FA9A
:103DAE00E43412FB8A828B83A3EF54406029E493A0
:103DBE00F5217522007821120C3B8A828B83E493C5
:103DCE00F87402120B6DE58228FCE43583FDAA25FA
:103DDE00AB2612DD478027E493F52175220078216A
:103DEE00120C3B8A828B83E493F87402120B6DE5FE
:103DFE008228FCE43583FDAA25AB2612779D02406E
:103E0E006A7414120B6D1209E0E8494A4B7018A837
:103E1E0027E828F87900744228F582E43412F583F5
:103E2E00E493FC7D00802A90120A782112099A747C
:103E3E0014120B6D78211206157020A827E828F8A9
:103E4E00744228F582E43412F583E493FC7D007904
:103E5E0099AA25AB2612DC9C02406F7402120B6DE0
:103E6E00E4F07403120B6DE4F07404120B6DE4F0C5
:103E7E007405120B6DE4F0EC6005146010803C7C50
:103E8E003C7D007414120B7F12D317EAF07C3C7D3C
:103E9E00007414120B7F12D317EAC0E07404120BD5
:103EAE006DD0E0F07C187D007414120B7F12D317C6
:103EBE00EAC0E07403120B6DD0E0F07414120B6DB7
:103ECE001209E0E8494A4B7003023FC790120A7884
:103EDE002112099A7414120B6D78211208D17CB537
:103EEE007D057414120B7F12D3177414120B6D7898
:103EFE002112098BE521333354FC853182853283BF
:103F0E00F0EA4B70117401120B6D7401F004120B78
:103F1E006D7401023FD7EA24FF1AEB34FFFB7414D1
:103F2E00120B6DEAF0A3EBF0A3E4F0A3F07C6D7D31
:103F3E00017414120B7F12D3177414120B6D7821A7
:103F4E0012098B853182853283E02521F0E05403FE
:103F5E0070050AEA70010B7401120B6DE4800FC339
:103F6E00EA98FAEB9400FB7401120B6DE004F0E09A
:103F7E00F521740165217010853182853283E054FC
:103F8E0003700575211D800F74322521F582E434EE
:103F9E0012F583E493F521852182A882C3EA98EB7A
:103FAE00940050BBEA04C0E07402120B6DD0E0F036
:103FBE007401120B6DE0048010853182853283E42A
:103FCE00F0A3F07402120B6DE4F07521008521232D
:103FDE00853182853283E5822523F582E43583F5AA
:103FEE0083E0F912DDEFE9F00521E521C3940640E7
:103FFE00DCA827E828F8744128F8E43412F9E8FA26
:10400E00E9FB8A828B83A3EF54406029E493F52168
:10401E007522007821120C3B8A828B83E493F8740C
:10402E0002120B6DE58228FCE43583FDAA25AB2632
:10403E0012DD478027E493F5217522007821120CBA
:10404E003B8A828B83E493F87402120B6DE582280F
:10405E00FCE43583FDAA25AB2612779D7402120B64
:10406E00377406120B377F07020BF774F1120B91A0
:10407E0074FA120B217402120B6DEAF0A3EBF0A38B
:10408E00ECF0A3EDF07402120B6D782112098B1275
:10409E003A748A258B268C278D287821792512084B
:1040AE00E47402120B6D1209BC1239399012557854
:1040BE002512099A7402120B6D782512069250047D
:1040CE0079118002799112E2C7853182853283742B
:1040DE0086F0A3740DF07402120B6DE4F0A3F0A33E
:1040EE00F0A3F08071853182853283E0F8A3E0F58C
:1040FE00838882782512098BE52545264527452894
:10410E00602890125978251206C1501E7825792103
:10411E001208947825120C377404120B6DE0FAA372
:10412E00E0FB12E02A7404120B378531828532834C
:10413E00E02404F8A3E03400F9853182853283E867
:10414E00F0A3E9F09011DB782512099A7402120B94
:10415E006D78251208D190125D782512099A740295
:10416E00120B6D782512069250030240F37406125C
:10417E000B377F08020BF774F7120B9174F8120BC2
:10418E0021EAFEEBFF125C92900363E0853182859B
:10419E003283F0900364E0C0E07401120B6DD0E046
:1041AE00F0900365E0C0E07402120B6DD0E0F09069
:1041BE000369E0C0E07403120B6DD0E0F09003666B
:1041CE00E0C0E07404120B6DD0E0F0900367E0C025
:1041DE00E07405120B6DD0E0F0900368E0C0E0745F
:1041EE0006120B6DD0E0F0752103752200782112B6
:1041FE000C3B7406120B6DAC82AD83EEFAEFFB1224
:10420E00DD477402120B377821120C3B7402120B2D
:10421E0087EE2403FAE43FFB12DD477402120B37DC
:10422E007408120B377F02020BF7C082C0838A829A
:10423E008B83A3A3A3A3A3E090035FF08A828B8357
:10424E00A3A3A3A3E090035EF08A828B83A3A3A310
:10425E00E090035DF08A828B83A3A3E090035CF071
:10426E008A828B83A3E090035BF08A828B83E0903B
:10427E00035AF0125CD5D083D0822274F5120B91C2
:10428E0074AD120B2175CEA575CF5A7521537522BB
:10429E00007821120C3B7402120B77882189227848
:1042AE0021120C3B9011DF782112099AAA21AB2220
:1042BE00AC23AD24122A177404120B3775CEA575D4
:1042CE00CF5A7451120B6DAA82AB8312291C8A210C
:1042DE008B22AE21AF227951AA31AB32122934EAA8
:1042EE006E7002EB6F606275CEA575CF5A75215355
:1042FE007522007821120C3B7402120B77882189EB
:10430E00227821120C3B9011F1782112099AAA21E0
:10431E00AB22AC23AD24122A177404120B3775CEC0
:10432E00A575CF5A7451120B6DAA82AB8312291C3C
:10433E008A218B22AE21AF227951AA31AB321229BA
:10434E0034EA6E7002EB6F7009AA31AB3212438DF4
:10435E00802079517A9D7B021229348A218B22A8E2
:10436E0021A9229002EEE0687003A3E069600312B7
:10437E0050661250C77453120B377F04020BF7C0EE
:10438E0082C083789D79027C0080198A828B83E0BB
:10439E0088828983F0A3A882A9838A828B83A3AAA9
:1043AE0082AB830CECC3945340E1D083D082227451
:1043BE00F5120B9174FE120B21A831A932882189B6
:1043CE00227821120C3B9012A5782112099AAA216B
:1043DE00AB22AC23AD24122B107402120B37853195
:1043EE0082853283E0F8A3E0F99002EEE068700374
:1043FE00A3E069702279517A9D7B021229348A21B9
:10440E008B22A821A9229002EEE0687003A3E06936
:10441E0070051250C780031242891244447402126E
:10442E000B377F04020BF7C082C08390029C740589
:10443E00F0D083D0822274F7120B917C0080010C95
:10444E00ECC3941150468C2175220074027821120F
:10445E000B0E74612521F874123522F98882898336
:10446E00E493FA740193FB90029DE06A7003A3E05B
:10447E006B70CC88828983A3A3E493900280F0882A
:10448E00828983A3A3A3E493900281F0ECC39411D9
:10449E00400A900280740AF0900281F07F02020BB3
:1044AE00F774F5120B91E9FEA2E050297C04790015
:1044BE007A827B021229DD79047A827B02122934F8
:1044CE00900286EAF0A3EBF079067C827D027A8870
:1044DE007B021229ADEEA2E150787C0E79007A8E25
:1044EE007B021229DD790C7A8E7B0212293490021E
:1044FE009AEAF0A3EBF075210E7522007821120CCA
:10450E003B75218E7522027821120C3B9011D378C7
:10451E002112099AAA21AB22AC23AD24122A1474BB
:10452E0004120B3775210E7522007821120C3B7583
:10453E00218E7522027821120C3B9011D778211210
:10454E00099AAA21AB22AC23AD24122A14740412A8
:10455E000B377F04020BF774F5120B9174F2120BEA
:10456E0021124697E96401600302462775210E75F4
:10457E0022007821120C3B7402120B7788218922BB
:10458E007821120C3B9011D3782112099AAA21ABF3
:10459E0022AC23AD24122A177404120B37790CAAFD
:1045AE0031AB321229348A218B22A821A922740C14
:1045BE00120B6DE0687003A3E069605075210E75F3
:1045CE0022007821120C3B7402120B77882189226B
:1045DE007821120C3B9011D7782112099AAA21AB9F
:1045EE0022AC23AD24122A177404120B37790CAAAD
:1045FE0031AB321229348A218B22A821A922740CC4
:10460E00120B6DE0687003A3E069700D790EAC318A
:10461E00AD327A8E7B021229AD740E120B377F04E7
:10462E00020BF774F7120B917E0079047A827B02EB
:10463E001229348A218B22A821A922900286E068B1
:10464E007003A3E069601F0E79047A887B02122939
:10465E00348A218B22A821A92290028CE068700353
:10466E00A3E06960010EEEA2E0500F79067C887D12
:10467E00027A827B021229AD800AC3940240057928
:10468E00011244AF7F02020BF774F7120B91790CF3
:10469E007A8E7B021229348A218B22A821A922909C
:1046AE00029AE0687003A3E06960047901800279E0
:1046BE00007F02020BF774F8120B9189217E007FA6
:1046CE0000124631740165217005900282805AE510
:1046DE0021704D90029CE0A2E05009900282E0FE13
:1046EE00A3E08013E0A2E1500F900282E0F8A3E075
:1046FE00F9C3E498FEE499FF90029CE0A2E2500B0D
:10470E00900284E02EFEA3E03F8022E0A2E3501E42
:10471E00900284E0F8A3E0F9C3EE98FEEF99800DC5
:10472E00740265217008900284E0FEA3E0FFEEFAA9
:10473E00EFFB7F01020BF774F5120B9174F2120B63
:10474E00217E0075210E8E227821120C3B740212EE
:10475E000B77882189227821120C3B9011D3782176
:10476E0012099AAA21AB22AC23AD24122A17740483
:10477E00120B37790CAA31AB321229348A218B22D3
:10478E00A821A922740C120B6DE0687003A3E069D6
:10479E00604F75210E8E227821120C3B7402120B83
:1047AE0077882189227821120C3B9011D77821121B
:1047BE00099AAA21AB22AC23AD24122A1774041233
:1047CE000B37790CAA31AB321229348A218B22A8ED
:1047DE0021A922740C120B6DE0687003A3E06970BE
:1047EE00010EEE7020790C7A8E7B021229348A210A
:1047FE008B22A821A92290029AE0687003A3E06997
:10480E0060030248F274016E700D790EAC31AD3258
:10481E007A8E7B021229AD7A0079011246C48A2162
:10482E008B22EB3395E0F523F5249002927821123A
:10483E0008D17A0079001246C48A218B22EB339577
:10484E00E0F523F52490028E78211208D17A0079B2
:10485E00021246C48A218B22EB3395E0F523F52410
:10486E0090029678211208D1790C7A8E7B02122949
:10487E0034A3EAF0A3EBF0124697E9706775210EA8
:10488E007522007821120C3B75218E75220278213B
:10489E00120C3B9011D3782112099AAA21AB22ACAB
:1048AE0023AD24122A147404120B37124697E970A2
:1048BE003379011244AF75210E7522007821120C46
:1048CE003B75218E7522027821120C3B9011D77800
:1048DE002112099AAA21AB22AC23AD24122A1474F8
:1048EE0004120B37740E120B377F04020BF774F1A0
:1048FE00120B917AF27B10124AE98A218B228C23B9
:10490E008D2490033778211206A290033778251252
:10491E00098B500A90033BE02AC39525800BE525B1
:10492E00F42A04F890033BE028F090033778211224
:10493E0009AD90033BE0C313F89002F0E028F0902D
:10494E00033BE0A2E0E433F0900280E0F89002F046
:10495E00E0984074900280E0F5F09002F0E084F967
:10496E00F5F0900280E0A4F89002F0E098F0E9F5FE
:10497E00F0900281E0A4F890027EE028F0E0F8903A
:10498E000282E028F0A3E03400F090027EE4F07999
:10499E00047A827B02122934900286EAF0A3EBF0AD
:1049AE0079067C827D027A887B021229AD90028282
:1049BE00C3E094D1A3E09407500BA3C3E094D1A31A
:1049CE00E094074003124745126DD87F08020BF79B
:1049DE0074F7120B919002FDE4F0A3F09002F8042C
:1049EE00F09002A1E0F8A3E0F97AE87B03120A96B0
:1049FE00E8FCE9FD90029FE0F8A3E0F97A647B0001
:104A0E00120A968821EC88F0A4CCA8F089F0A4288C
:104A1E00F88521F0EDA428FDEC2CFCED33FDECF82F
:104A2E00EDF97AE87B03120A96E8FCE9FD9002F9AB
:104A3E00ECF0A3EDF0A3E4F0A3F09002F4F0A3F0F9
:104A4E00A3F0A37402F0FF020BF7C082C083A2870B
:104A5E0050317800790080060008E8700109C3E83B
:104A6E009409E9940040F178007900800508E87017
:104A7E000109C3E8944CE99400505B902885E070DE
:104A8E00EC8053A28078005030790080060008E850
:104A9E00700109C3E894F0E9940040F178007900C0
:104AAE00C3E89480E99407502D902885E06027088C
:104ABE00E870ED0980EA007801E860FA7800790084
:104ACE00800508E8700109C3E89402E994005006D5
:104ADE00902885E070ECD083D0822274F1120B9175
:104AEE0090288474CCF0E4F02AF582E43BF583E060
:104AFE00124A58902885E0600A7A007B007C007D7F
:104B0E00008058902883E0F525E4F526F527F52852
:104B1E0074087825120875902882E0F521E4F522B4
:104B2E00F523F52478257921120961740878251268
:104B3E000875902881E0F521782579211209617494
:104B4E00087825120875902880E0F52178257921BE
:104B5E00120961AA25AB26AC27AD287F08020BF7F8
:104B6E0074F1120B91780090288474CCF0E4F090DC
:104B7E002885E0600908E8C3942140F3803BEA9061
:104B8E002880F0EBA3F0ECA3F0EDA3F0740F120B62
:104B9E006DE0F8A3E0F988828983E4F0D287A287DA
:104BAE0040070AEAC3941F40F5007800902885E07C
:104BBE00600B08E8C3942140F37900800279017FED
:104BCE0008020BF774F1120B91780090288474CCC4
:104BDE00F0E4F0902885E0600908E8C3942140F3E2
:104BEE00803AEA902880F0EBA3F0ECA3F0EDA3F06E
:104BFE00C287A28750070AEAC3941F40F5740F12AA
:104C0E000B6DE0F8A3E0F988828983E4F000F89058
:104C1E002885E0600B08E8C3942140F379008002F8
:104C2E0079017F08020BF774F1120B91780090282E
:104C3E008474CCF0E4F0902885E0600908E8C39411
:104C4E002140F3802DEA902880F0EBA3F0ECA3F046
:104C5E00EDA3F0740F120B6DE0F8A3E0F9888289D2
:104C6E0083E4F000F8902885E0600B08E8C39421F7
:104C7E0040F37900800279017F08020BF7C082C0F1
:104C8E0083902858E4F0A3F0A3F0A3F0A3F0A3F0D0
:104C9E00902863F090286504F0E99028646003E49E
:104CAE008002740FF0D083D08222D2877800A28740
:104CBE00400708E8C3941540F52274F5120B91E9EC
:104CCE00FFC28475217D7522287821120C3B90112C
:104CDE00DF782112099AAA21AB22AC23AD24124C03
:104CEE00357402120B377521787522287821120C33
:104CFE003B9011DF782112099AAA21AB22AC23AD89
:104D0E0024124C357402120B377521F4752210786B
:104D1E0021120C3B9012A9782112099AAA21AB22DA
:104D2E00AC23AD24124C357402120B377521FA7573
:104D3E0022107821120C3B9012A9782112099AAAFE
:104D4E0021AB22AC23AD24124C357402120B37EF7B
:104D5E007521EF75221078216008120C3B9012AD70
:104D6E008006120C3B9012B1782112099AAA21AB3F
:104D7E0022AC23AD24124C357402120B377E008008
:104D8E002B8E21E52124F0F521E43410F522782133
:104D9E00120C3B9011DF782112099AAA21AB22AC9A
:104DAE0023AD24124C357402120B370EEEC394044D
:104DBE0040CF7E00802B8E21E52124F6F521E434B0
:104DCE0010F5227821120C3B9011DF782112099AEE
:104DDE00AA21AB22AC23AD24124C357402120B3730
:104DEE000EEEC3940440CF75217D752228782112D2
:104DFE000C3B9012B5782112099AAA21AB22AC2352
:104E0E00AD24124C357402120B3775217D75222894
:104E1E007821120C3B9012B9782112099AAA21AB73
:104E2E0022AC23AD24124C357402120B3775217D42
:104E3E007522287821120C3B9011DF782112099AE5
:104E4E00AA21AB22AC23AD24124C357402120B37BF
:104E5E007E00802B8E21E52124F0F521E43410F51F
:104E6E00227821120C3B9011DF782112099AAA2187
:104E7E00AB22AC23AD24124C357402120B370EEE5E
:104E8E00C3940440CF7E00802B8E21E52124F6F5BD
:104E9E0021E43410F5227821120C3B9011DF782199
:104EAE0012099AAA21AB22AC23AD24124C357402FE
:104EBE00120B370EEEC3940440CF7521F5752210F8
:104ECE007821120C3B9011DB782112099AAA21ABA2
:104EDE0022AC23AD24124C357402120B377521FB14
:104EEE007522107821120C3B9011DB782112099A51
:104EFE00AA21AB22AC23AD24124C357402120B370F
:104F0E00EF7521787522287821602B120C3B9012B8
:104F1E00BD782112099AAA21AB22AC23AD24124CE2
:104F2E00357402120B3775217E7522287821120CEA
:104F3E003B9012C18029120C3B9012C578211209A8
:104F4E009AAA21AB22AC23AD24124C357402120B5B
:104F5E003775217E7522287821120C3B9011DF784F
:104F6E002112099AAA21AB22AC23AD24124C35741E
:104F7E0002120B377521797522287821120C3B907D
:104F8E0011DF782112099AAA21AB22AC23AD24128B
:104F9E004C357402120B3775217A7522287821123E
:104FAE000C3B9012C9782112099AAA21AB22AC238C
:104FBE00AD24124C357402120B3775217D752228E3
:104FCE007821120C3B9011F1782112099AAA21AB8B
:104FDE0022AC23AD24124C357402120B3775217B93
:104FEE007522287821120C3B9011DF782112099A34
:104FFE00AA21AB22AC23AD24124C357402120B370E
:10500E0075217C7522287821120C3B9011DF7821B6
:10501E0012099AAA21AB22AC23AD24124C3574028C
:10502E00120B379002F37401F09002F2E4F07F0459
:10503E00020BF77900124C8B124CB875CEA575CFBA
:10504E005A7900124CC875CEA575CF5A02505D1212
:10505E0043BD124435024565C082C08379517CD967
:10506E007D127A9D7B0212297C79517A9D7B0212E8
:10507E0029349002EEEAF0A3EBF0D083D08222C066
:10508E0082C0839002F0E004F0900280E0F890027B
:10509E00F0E0C398401E900280E0F89002F0E0C36A
:1050AE0098F0900281E0F890027EE028F09003C123
:1050BE00E04404F0D083D0822274F5120B91900359
:1050CE0025E064017521F475221078217008120C08
:1050DE003B9002A78006120C3B9002A31209BC1251
:1050EE004C357402120B377521FA7821120C3B9055
:1050FE0002A31209BC124C357402120B377521F53E
:10510E007821120C3B9002AB1209BC124C35740282
:10511E00120B377521FB7821120C3B9002AB120952
:10512E00BC124C357402120B377E0080378E82858E
:10513E008221752200E52124E8F523E43410F524BC
:10514E007823120C3B74027821120B0E74B32521B6
:10515E00F58274023522F5831209BC124C357402A5
:10516E00120B370EEEC3940740C3900325E0640183
:10517E0070457521F47522107821120C3B9002A710
:10518E001209BC124C357402120B377521EB7821C3
:10519E00120C3B9002E51209BC124C357402120B34
:1051AE00377521EC7821120C3B9002E91209BC12E2
:1051BE004C357402120B3775217B7522287821121B
:1051CE000C3B9002CFE0FAE4FBFCFD124C3574026E
:1051DE00120B3775217C7821120C3B9002D0E0FA2D
:1051EE00E4FBFCFD124C357402120B379002EDE01D
:1051FE00902858F07F04020BF7C082C083790F7C91
:10520E00417D137AFF7B0212297C900307E0F8742C
:10521E00096860077490686002E4F0790F7AFF7B8A
:10522E000212293490030EEAF0A3EBF0D083D08261
:10523E0022222274F5120B91125E2F90122E7821DB
:10524E0012099A90063C7821120615600B900940BF
:10525E00E4F0A3F0A3F0A3F09012D1782112099AF2
:10526E0090094078211206156005123892800612B8
:10527E0056401257B0900B367432F0A3740FF09064
:10528E000C5DE0646670091252409009987421F02A
:10529E0012391E9009301209E09009C31209EC90E0
:1052AE0012D1782112099A900940782112061560C0
:1052BE0022900940E4F0A3F0A3F0A3F09009DEE001
:1052CE00F8A3E054FDF99009DEE8F0A3E9F07905C2
:1052DE0012E42B1237E3125E9690098DE04408F02B
:1052EE00126641126D919009B47401F0900DA2787E
:1052FE002112098BE52254206027900D8A1209E0B5
:10530E00E8494A4B60067A8A7B0D8010900D8E120A
:10531E0009E0E8494A4B600C7A8E7B0D126DC18014
:10532E0003125240900C5BE0640160057521018010
:10533E00037521007522009009E2E0FAA3E054FD06
:10534E00FB74097821120B0EE5225402F9EAF8EBF0
:10535E0049F99009E2E8F0A3E9F0900E76E0A2E0B8
:10536E0050129009EAE0F8A3E04402F99009EAE845
:10537E00F0A3E9F090098AE0600312BCF112E38514
:10538E007AC77B0912D39A900DA2782112098BE568
:10539E0021A2E0500312E29090098EE04440F07F8B
:1053AE0004020BF7C082C08390098EE054C0F9E46A
:1053BE0070037440697024900989E4F090098EE0BE
:1053CE004480F0900C5CE064337009A3E064666086
:1053DE000312523F90098EE0547FF0D083D0822288
:1053EE00C082C083900984E014F0900B92E0A2E09A
:1053FE005007126232E0C2E0F0900992E054EFF0F2
:10540E00D083D08222C082C08390098AE4F09009B2
:10541E00CFE0F8C394D25018E8C3941540229009F7
:10542E0092E05440701AE04440F0A3E04401800F33
:10543E00E024FEF0900993E054106004E054EFF085
:10544E001237E39009D3E06010E014F0E0700A9098
:10545E00098DE0440CF0128021900993E054026013
:10546E0012900C5BE06401600A1263FF900993E0F6
:10547E0054FDF0D083D08222790112560B7901228D
:10548E0074F5120B91790112560B43A62053A5DF2A
:10549E0053A4DF43A60853A5F753A4F71256409022
:1054AE00122E782112099A90063C78211206157058
:1054BE000D7C0B7D0079FF7A467B0912DC9C12571E
:1054CE00B079017AFA7B0012560690093C782112C7
:1054DE00098B782112084C90093878211206156034
:1054EE0011900930E4F0A37449F0A374D1F0A374C1
:1054FE0012F07C0F7D007ACC7B0B12DB719009B31E
:10550E0074C8F0791412E42B7F04020BF774F512B1
:10551E000B911256071259189003B8E4F09003B984
:10552E00F09012D5782112099A90063C7821120635
:10553E0015602790122E782112099A90063C782138
:10554E0012061560157C907D057A3C7B0612DB7188
:10555E007C0F7D007ACC7B0B800E740E243CFC7489
:10556E00FC3406FD7A827B0912DB7190093C7821AE
:10557E0012098B782112084C9009387821120615E1
:10558E006011900930E4F0A37449F0A374D1F0A334
:10559E007412F0900370E4F0125486E960047A01FC
:1055AE0080027A0090098FE054FEF8A3E0F9EA54E5
:1055BE0001FAE84A90098FF0A3E9F079FF12E42B83
:1055CE0090098FE0A2E0500512548E80031255EF21
:1055DE00799912E42B900B96E4F0D2AF7F04020B74
:1055EE00F7790002560BC082C08390098FE0A2E0CB
:1055FE00E433F9D083D0822222220257E9025608E0
:10560E00C082C0839028ACE0D2E2F0A3E0D2E2F0F8
:10561E009028ACE0D2E1F0A3E0D2E1F0D083D082CA
:10562E0022C082C083900310EAF0A3EBF0D083D0A7
:10563E008222C082C0839028B4E0440FF09028B834
:10564E00E04403F09028BCE074FFF09028D5E044CD
:10565E003FF09028B5E054F0F09028B9E054FCF0FB
:10566E009028BDE0E4F09028D6E054C0F0C28390BC
:10567E00285E7404F0902C1E7491F0A3E4F0A374D1
:10568E00FFF0A3747CF0A3E4F0A3F0D083D08222C9
:10569E00C082C0831256C3902C1FE4F0A3F0A3F077
:1056AE00A3F0A3F079051228F0902C1EE4F0D2831B
:1056BE00D083D08222C082C0837C0B7900900310ED
:1056CE00E0FAA3E0FB1229DD1256F9D083D0822234
:1056DE00C082C0837C0B79FF900310E0FAA3E0FB3D
:1056EE001229DD1256F9D083D08222C082C0839057
:1056FE000310E0FAA3E0FB12570DD083D08222C034
:10570E0082C0838A828B83E0902C06F08A828B8300
:10571E00A3E0902C07F08A828B83A3A3E0902C0841
:10572E00F08A828B83A3A3A3E0902C09F08A828B4C
:10573E0083A3A3A3A3E0902C0AF08A828B83A3A356
:10574E00A3A3A3E0902C0BF08A828B83A3A3A3A325
:10575E00A3A3E0902C0DF08A828B83A3A3A3A3A313
:10576E00A3A3E0902C0EF08A828B83A3A3A3A3A302
:10577E00A3A3A3E0902C0FF08A828B83A3A3A3A3F1
:10578E00A3A3A3A3A3E0902C10F08A828B83A3A3E0
:10579E00A3A3A3A3A3A3A3A3E0902C11F0D083D023
:1057AE008222C082C083900310E0FAA3E0FB12575E
:1057BE000DD083D082220257C7C082C083900313BC
:1057CE007404F0900317F090031404F0900319F092
:1057DE00A3F090031DF0D083D08222C082C08390AC
:1057EE0028A8E4F0A3F0A3F09028ACF0A3F0A3F067
:1057FE009028C5F0A3F0A3F0A3F09028B074FFF0AA
:10580E00A3E4F09028B4740FF0A3E4F09028B874D9
:10581E00FFF0A3E4F09028BC74FFF0A3E4F090280E
:10582E00C074FFF0A3E4F09028D574FFF0A3E4F069
:10583E009028D9F0A3F075A40075A50075A60053A5
:10584E00A4FE53A5FE53A6FE53ADFED083D08222F6
:10585E00438E085389F0438901758CEF758AFFD208
:10586E008CD2A922C28E538EEF5389F7438910EA48
:10587E0075F044A4FAA8F075F044EBA428FB74FF6D
:10588E00C39AF874FF9BF58DE8F58BD2AB22538E3D
:10589E00DFC2C975CDF575CC54D2CAD2AD2278000F
:1058AE00800108E8C3941440F92274F8120B91E9B0
:1058BE00FF7E0080041258AC0EEEC39F40F77F01AE
:1058CE00020BF774F8120B91E9FEEAFF75909675CC
:1058DE00975779051258B88E9674076E70057440F6
:1058EE004FF5DF79051258B875909675975679056C
:1058FE001258B87F01020BF7C082C083D2E99028FC
:10590E004BE0D2E6F0D083D08222C082C083902DAD
:10591E0000E4F0A3F01257E91256401256DE125A66
:10592E00D812585E12589C12560E7A0079031258ED
:10593E00D1125906D083D08222C082C083E9FA7870
:10594E0000C286C28574046A9028677007E054FC12
:10595E0044028003E054FCF0A3E4F0E5A3A2E0408F
:10596E000908E8C3943340F3800FD2807800A280F8
:10597E00400B08E8C3941540F57900800890032584
:10598E007404F07901D083D08222C082C083E9FAF8
:10599E007800C286C28590286774C0F0A3E4F0E553
:1059AE00A3A2E0400908E8C3943340F38025D280D7
:1059BE007800A280400908E8C3941540F58014745D
:1059CE00FF6A7013D2877800A287400B08E8C39451
:1059DE001540F57900801E90285FE4F0A37403F063
:1059EE00A37420F0A374C4F09028667480F0900322
:1059FE00257401F0F9D083D0822274F1120B9174C8
:105A0E00FC120B219028637497F0791E1228F07AFD
:105A1E00CE7B10124AE98531828532831209C87411
:105A2E0003120B6DE0C3948140238531828532834E
:105A3E00782112098B782112084C9011DB782112F3
:105A4E0008BA85318285328378211209AD8531827B
:105A5E00853283782112098B7410782112085C909C
:105A6E0011E3782512099A782179251206E490130C
:105A7E005078211208BA901354782512099A782179
:105A8E00792512076490032978211209AD901358D5
:105A9E00782112099A9003297821120692900327F1
:105AAE00500D745AF0A3F0900252E04404800AE4C0
:105ABE00F0A3F0900252E054FBF09028637481F052
:105ACE007404120B377F08020BF7C082C08390025A
:105ADE004A7402F0F912BE327900122CABD083D088
:105AEE008222C082C0839028A8E0C2E1F09028AA4A
:105AFE00E0C2E1F09028ACE0D2E4F0A3E0C2E4F022
:105B0E0012569E9028C9E4F0A3F09028CDF0A3F091
:105B1E009028B0E04433F0A3E054CCF09028ADE0F0
:105B2E00C2E1F09028ACE0D2E1F09028A8E0D2E1FA
:105B3E00F0A3E0C2E1F0A3E0C2E1F09028A8E0D229
:105B4E00E2F0A3E0C2E2F09028A8E0D2E3F0A3E0F6
:105B5E00C2E3F043A40153A5FE9028ACE0D2E4F0DA
:105B6E00A3E0C2E4F09028ACE0C2E3F0A3E0C2E30D
:105B7E00F09028C77404F0D083D0822275A80075E7
:105B8E00E80075910022C082C083902820E4F09036
:105B9E002828F0902830F0902A05F0D083D0822269
:105BAE0074F5120B91902864E4F075217D7522280E
:105BBE007821120C3B9011DF782112099AAA21ABA1
:105BCE0022AC23AD24124C357402120B377521789A
:105BDE007522287821120C3B9011DF782112099A38
:105BEE00AA21AB22AC23AD24124C357402120B3712
:105BFE007800800108E8C3941440F9D2847F04022F
:105C0E000BF7C082C08343A60253A4FD43A60453E0
:105C1E00A5FB53A4FBE5A1A2E04021C280A28040D7
:105C2E00FCE5A1A2E040157800800108E8C39403CA
:105C3E0040F9902867E4F0E070FDD2817900D083BE
:105C4E00D08222C082C083C286C285E5A1A2E04076
:105C5E002CE5A1A2E04026C280A28040FCE5A1A2D4
:105C6E00E0401A7800800108E8C3940340F99028B8
:105C7E0067E4F0E070FDD28179051258B87900D052
:105C8E0083D08222C082C08374FF120B21E5DA8595
:105C9E003182853283F079051258B8E59A90036304
:105CAE00F0E59BA3F0E59CA3F0E59E900369F0E57B
:105CBE009D900366F0E59FA3F0E593A3F0740112A7
:105CCE000B37D083D08222C082C083759096759791
:105CDE005779051258B890035FE0F59390035EE094
:105CEE00F59F90035DE0F59D90035CE0F59C9003BD
:105CFE005BE0F59B90035AE0F59A900360E0F59E09
:105D0E0079051258B875909675975679051258B848
:105D1E00D083D0822274F1120B91E9FE75909675A4
:105D2E00975779021258B87594007595008E25E430
:105D3E00F526F527F52890135C782112099A782517
:105D4E0079211206E490120A78251208BA852521C7
:105D5E008526228527238528247410782112085C35
:105D6E00E521F5DBE526F5DCE525F5DD79021258B2
:105D7E00B875909675975679077CB67D1D7A5A7BC5
:105D8E000312297C125CD57F08020BF774F1120BFB
:105D9E009174F8120B217521087522007821120CCE
:105DAE003B127A4EEAFCEBFD7402120B7F12779DCA
:105DBE007402120B377404120B6D782512098B8541
:105DCE0031828532837825120910900E3AE0FA75E9
:105DDE002100752300752400A2E0500B85318285C9
:105DEE003283782112098BEAA2E1500B853182852C
:105DFE00328378211208F8EAA2E250077821792539
:105E0E00120894EAA2E35007782179251208E4AA31
:105E1E0021AB22AC23AD247408120B377F08020B82
:105E2E00F774F5120B91900C82782112098B900861
:105E3E0030E0F8A3E0C8241CF582E438F58378211D
:105E4E001208F89009F078211209AD9009F0782126
:105E5E0012098B9011DF78211206589009F4501018
:105E6E0078211209ADA3E4F0A3F0A3F0A3F0801300
:105E7E00E4F0A3F0A3F0A3F0782112083BA378215D
:105E8E001209AD7F04020BF774F1120B91900DA263
:105E9E00782112098B900C5BE064017003025FE7BE
:105EAE00E52254406004D2F08002C2F0A2F0E43346
:105EBE00F5219009F4782512098B900C7278251231
:105ECE0006924036A3782512069250057521018060
:105EDE0029E5254526452745286005752102801AA6
:105EEE00900DAA782112098B9009F878211206924A
:105EFE0050057521038003752104900991E0543FEC
:105F0E00FAA3E054FEFB75220074067821120B0EE4
:105F1E00A821E5225401F9EA48FAEB49FB900991D0
:105F2E00EAF0A3EBF09009E2E0FCA3E054EFFD9061
:105F3E0009E2ECF0A3EDF0900DA2782112098B8509
:105F4E00212585222690121E7821120937E521453A
:105F5E0022452345246010ECF8ED4410F99009E237
:105F6E00E8F0A3E9F0803C8A218B22740678211296
:105F7E000AFFE5215407FAC39404502F852622E523
:105F8E002254207026E52554046018EAC394035069
:105F9E001A9009F0782112098B900DB27821120611
:105FAE00435008900990E044028006900990E05416
:105FBE00FDF09009DEE0F8A3E0F99009F81209D49B
:105FCE00EC4D4E4F6005E944408003E954BFF99013
:105FDE0009DEE8F0A3E9026069E5225440900991D8
:105FEE006014E0543FF8A3E054FEF9E844409009F1
:105FFE0091F0A3E98008E0543FF0A3E054FEF09046
:10600E0009E2E0FAA3E054EFFB9009E2EAF0A3EB19
:10601E00F0900DA2782512098B85252185262285E3
:10602E00272385282490121E7821120937E5214551
:10603E0022452345246010EAF8EB4410F99009E25A
:10604E00E8F0A3E9F0800EE5265420600890099050
:10605E00E054FD8006900990E04402F09009E2E0E1
:10606E00FAA3E0FB900990E05402602DEA54BFF8C9
:10607E00EBF99009E2E8F0A3E9F0900C5BE0640123
