:020000040000FA
:0600000002006602742FED
:03000B0002743745
:0300130002743F35
:03001B0002744725
:03002B00027464F8
:03003B000274C389
:030043000274D76D
:03004B0002758BB0
:03005300027651E1
:03005B00027660CA
:1000630002766F75D00075819F753101753202027A
:100073008A14E479337810B800028004F709D8FCB5
:10008300E490020178BA790D8002F0A3D8FCD9FA82
:1001000000002110422063308440A550C660E77093
:10011000088129914AA16BB18CC1ADD1CEE1EFF13B
:100120003112100273325222B5529442F772D662E3
:10013000399318837BB35AA3BDD39CC3FFF3DEE38B
:100140006224433420040114E664C774A444855433
:100150006AA54BB528850995EEE5CFF5ACC58DD5DB
:100160005336722611163006D776F6669556B44683
:100170005BB77AA719973887DFF7FEE79DD7BCC72B
:10018000C448E5588668A7784008611802282338D3
:10019000CCC9EDD98EE9AFF9488969990AA92BB97B
:1001A000F55AD44AB77A966A711A500A333A122A23
:1001B000FDDBDCCBBFFB9EEB799B588B3BBB1AABCB
:1001C000A66C877CE44CC55C222C033C600C411C73
:1001D000AEED8FFDECCDCDDD2AAD0BBD688D499D1B
:1001E000977EB66ED55EF44E133E322E511E700EC3
:1001F0009FFFBEEFDDDFFCCF1BBF3AAF599F788F6B
:100200008891A981CAB1EBA10CD12DC14EF16FE14A
:100210008010A100C230E320045025404670676082
:10022000B9839893FBA3DAB33DC31CD37FE35EF39A
:10023000B1029012F322D2323542145277625672D2
:10024000EAB5CBA5A89589856EF54FE52CD50DC5EA
:10025000E234C324A0148104667447642454054422
:10026000DBA7FAB79987B8975FE77EF71DC73CD73A
:10027000D326F2369106B016576676761546345672
:100280004CD96DC90EF92FE9C899E9898AB9ABA98A
:100290004458654806782768C018E1088238A328C2
:1002A0007DCB5CDB3FEB1EFBF98BD89BBBAB9ABBDA
:1002B000754A545A376A167AF10AD01AB32A923A12
:1002C0002EFD0FED6CDD4DCDAABD8BADE89DC98D2A
:1002D000267C076C645C454CA23C832CE01CC10C62
:1002E0001FEF3EFF5DCF7CDF9BAFBABFD98FF89F7A
:1002F000176E367E554E745E932EB23ED10EF01EB2
:1003000000010203040506070809AAAAAAAAAAAAC4
:100310000A0B0C0D0E0F10111213AAAAAAAAAAAA50
:100320001415161718191A1B1C1DAAAAAAAAAAAADC
:100330001E1F2021222324252627AAAAAAAAAAAA68
:1003400028292A2B2C2D2E2F3031AAAAAAAAAAAAF4
:1003500032333435363738393A3BAAAAAAAAAAAA80
:100360003C3D3E3F404142434445AAAAAAAAAAAA0C
:10037000464748494A4B4C4D4E4FAAAAAAAAAAAA98
:1003800050515253545556575859AAAAAAAAAAAA24
:0A0390005A5B5C5D5E5F60616263B2
:10039C0000010203040506070809101112131415B5
:1003AC001617181920212223242526272829303115
:1003BC003233343536373839404142434445464769
:1003CC0048495051525354555657585960616263BD
:1003DC00646566676869707172737475767778791D
:1003EC008081828384858687888990919293949565
:1003FC0096979899FFFFFFFFFFFFFFFFFFFFFFFF9F
:10040C00FFFFFFFFFFFFFFFFFFFFFFFFFFFFFFFFF0
:10041C00FFFFFFFFFFFFFFFFFFFFFFFFFFFFFFFFE0
:10042C00FFFFFFFFFFFFFFFFFFFFFFFFFFFFFFFFD0
:10043C00FFFFFFFFFFFFFFFFFFFFFFFFFFFFFFFFC0
:10044C00FFFFFFFFFFFFFFFFFFFFFFFFFFFFFFFFB0
:10045C00FFFFFFFFFFFFFFFFFFFFFFFFFFFFFFFFA0
:10046C00FFFFFFFFFFFFFFFFFFFFFFFFFFFFFFFF90
:10047C00FFFFFFFFFFFFFFFFFFFFFFFFFFFFFFFF80
:10048C00FFFFFFFFFFFFFFFFFFFFFFFFFFFFFFFF70
:10049C00FFFFFFFFFFFFFFFFFFFFFFFFFFFFFFFF60
:1004AC00FFFFFFFFFFFFFFFFFFFFFFFFFFFFFFFF50
:1004BC00FFFFFFFFFFFFFFFFFFFFFFFFFFFFFFFF40
:1004CC00FFFFFFFFFFFFFFFFFFFFFFFFFFFFFFFF30
:1004DC00FFFFFFFFFFFFFFFFFFFFFFFFFFFFFFFF20
:1004EC00FFFFFFFFFFFFFFFFFFFFFFFFFFFFFFFF10
:1004FC00FFFFFFFFFFFFFFFFFFFFFFFFFFFFFFFF00
:10050C00FFFFFFFFFFFFFFFFFFFFFFFFFFFFFFFFEF
:10051C00FFFFFFFFFFFFFFFFFFFFFFFFFFFFFFFFDF
:10052C00FFFFFFFFFFFFFFFFFFFFFFFFFFFFFFFFCF
:10053C00FFFFFFFFFFFFFFFFFFFFFFFFFFFFFFFFBF
:10054C00FFFFFFFFFFFFFFFFFFFFFFFFFFFFFFFFAF
:10055C00FFFFFFFFFFFFFFFFFFFFFFFFFFFFFFFF9F
:10056C00FFFFFFFFFFFFFFFFFFFFFFFFFFFFFFFF8F
:10057C00FFFFFFFFFFFFFFFFFFFFFFFFFFFFFFFF7F
:10058C00FFFFFFFFFFFFFFFFFFFFFFFFFFFFFFFF6F
:10059C00FFFFFFFFFFFFFFFFFFFFFFFFFFFFFFFF5F
:1005AC00FFFFFFFFFFFFFFFFFFFFFFFFFFFFFFFF4F
:1005BC00FFFFFFFFFFFFFFFFFFFFFFFFFFFFFFFF3F
:1005CC00FFFFFFFFFFFFFFFFFFFFFFFFFFFFFFFF2F
:1005DC00FFFFFFFFFFFFFFFFFFFFFFFFFFFFFFFF1F
:1005EC00FFFFFFFFFFFFFFFFFFFFFFFFFFFFFFFF0F
:1005FC00FFFFFFFFE066701008A3E066700A08A317
:10060C00E066700408A3E06622C3E09608A3E096B7
:10061C0008A3E09608A3E096A2D265D03322C021AD
:10062C00C3E49396F5210874019396422108740251
:10063C009396422108740393964221A2D265D0333B
:10064C00E5217001D3D02122C3E7960809E796086B
:10065C0009E7960809E79622C3E09608A3E09608F6
:10066C00A3E09608A3E09622C021C3E096F52108EA
:10067C00A3E096422108A3E096422108A3E0964508
:10068C00217001D3D02122C021C3E49396F5210817
:10069C0074019396422108740293964221087403C4
:1006AC00939645217001D3D02122080808EAC0E0B6
:1006BC00EBC0E086F0E7A4FA180986F0E7A42AFA62
:1006CC00180986F0E7A42AFA180986F0E7A42AFA92
:1006DC001986F0E7A4FBE5F02AFA190886F0E7A4DE
:1006EC002BFBE5F03AFA190886F0E7A42BFBE5F0B2
:1006FC003AFA18180986F0E7A4C5F02BFBE43AFA8D
:10070C001908E7C5F0C6A426F6E5F03BFBE43AFA77
:10071C001886F0E7A4F6E5F00826F6E43B08F6E4C4
:10072C003A08F6D0E0FBD0E0FA22E4CFC0E0E4CE09
:10073C00C0E0E4CDC0E0E4CCC0E075F020E626F6E5
:10074C0008E633F608E633F608E633F6181818EC24
:10075C0033FCED33FDEE33FEEF33FFC3EC9709EDC5
:10076C009709EE9709EF97191919400FFFEC97FCB1
:10077C0009ED97FD09EE97FE191906D5F0BFECF7B8
:10078C0009EDF709EEF709EFF7191919D0E0FCD0CC
:10079C00E0FDD0E0FED0E0FF2212080D1818181270
:1007AC0007361207FC191919221207FC1919190816
:1007BC000808E618181820E7E012073612080D187A
:1007CC00181822090909E719191920E7DC08080883
:1007DC00E618181820E70302073612080D18181827
:1007EC0012073612080D1818181207FC19191922BD
:1007FC00E4C397F709E497F709E497F709E497F747
:10080C0022E4C396F608E496F608E496F608E49615
:10081C00F622C6F4C608C6F4C608C6F4C608C6F462
:10082C00C6226016080808C6C313C618C613C61815
:10083C00C613C618C613C6D5E0EA22700908080804
:10084C00226016181818C6C333C608C633C608C6A5
:10085C0033C608C633C6D5E0EA22E627F60809E611
:10086C0037F60809E637F60809E637F622E026F6E9
:10087C0008A3E036F608A3E036F608A3E036F62225
:10088C00E49326F60874019336F60874029336F650
:10089C000874039336F622E026F008A3E036F0083D
:1008AC00A3E036F008A3E036F022C3E697F6080979
:1008BC00E697F60809E697F60809E697F622C3E0EC
:1008CC00C696F608A3E0C696F608A3E0C696F60808
:1008DC00A3E0C696F622C3E096F008A3E096F008D3
:1008EC00A3E096F008A3E096F022E056F608A3E009
:1008FC0056F608A3E056F608A3E056F622E4935603
:10090C00F60874019356F60874029356F6087403AD
:10091C009356F622E056F008A3E056F008A3E056F2
:10092C00F008A3E056F022E647F60809E647F60879
:10093C0009E647F60809E647F622E49346F60874FA
:10094C00019346F60874029346F60874039346F630
:10095C0022E0F608A3E0F608A3E0F608A3E0F622EE
:10096C00E493F608740193F608740293F608740382
:10097C0093F622E6F008A3E6F008A3E6F008A3E657
:10098C00F022E0FAA3E0FBA3E0FCA3E0FD22EAF0F6
:10099C00A3EBF0A3ECF0A3EDF022E0FCA3E0FDA3AD
:1009AC00E0FEA3E0FF22E0F8A3E0F9A3E0FAA3E065
:1009BC00FB22E8F0A3E9F0A3EAF0A3EBF022CAC013
:1009CC00E0E6F0A308DAFAD0E0FA22CAC0E0E0A32D
:1009DC00C582CCC582C583CDC583F0A3C582CCC5E9
:1009EC0082C583CDC583DAE6D0E0CA22CAC0E0E472
:1009FC0093A3C582CCC582C583CDC583F0A3C58224
:100A0C00CCC582C583CDC583DAE5D0E0CA22C582C8
:100A1C0024FDC582C58334FFC58322B90010BB00F9
:100A2C0008E88AF084F8AAF022E4FBC8FA22EB70FA
:100A3C00227B10C833C8C933C9335007C39AC3DBF0
:100A4C00F280069A50012ADBEAC833F4C8C933F4A1
:100A5C00C9FA2275F008E4C833C8C933C933C99A36
:100A6C00C99B5004C92AC93BD5F0ECFBC833F4C868
:100A7C00E4C9FA22600D08C6A2E713C618C613C64D
:100A8C00D5E0F322600C08C6C313C618C613C6D52E
:100A9C00E0F422700422600D18C6C333C608C633B6
:100AAC00C6D5E0F41822253110AF08F531400C15ED
:100ABC00328008F53140021532D2AF2200C0D02569
:100ACC003110AF08F531500C05328008F531500269
:100ADC000532D2AFD0D0222531F58210AF08F531D6
:100AEC00400C15328008F53140021532D2AF8532F8
:100AFC0083222531F582E43532F583222531F8E461
:100B0C003532F9222531FAE43532FB222531FCE469
:100B1C003532FD222531C582C0E0E53234FFC58374
:100B2C00C0E0E531C3958224F910AF088583328586
:100B3C0082318008858332858231D2AFCEF0A3E535
:100B4C0020F0A37821E608F0A3DEFAEFF0A3E5810C
:100B5C0024FBF8E608F0A3E608F0A30808E608F082
:100B6C00A3E608F0A315811581D0E0FED0E0F815BE
:100B7C00811581E8C0E0EEC0E022853283853182A8
:100B8C00E0A3FEE0A3F5207821E0A3F608DFFAE06D
:100B9C00A3FFE0A3C0E0E0A3C0E0E0A3C0E0E0A3BB
:100BAC00C0E010AF088582318583328008858231A0
:100BBC00858332D2AFD083D0822274048004740235
:100BCC008000C0E0F404120AE3D0E01209CA2274D7
:100BDC0004800474028000CCC0E0EDC0E0E531C3B9
:100BEC009CCCAD3250011D10AF068C318D3280067D
:100BFC008C318D32D2AF1209D7D0E0FDD0E0FC227F
:100C0C0074048000CCC0E0EDC0E0E531C39CCCADF9
:100C1C003250011D10AF068C318D3280068C318D17
:0D0C2C0032D2AF1209F8D0E0FDD0E0FC227A
:0D11C0004431343346393832315330330076
:1011CE00010A000000600000002001000001000084
:1011DE00000000000064000000E482F282D522D5F7
:1011EE00A2EBA2C00000003F065B4F666D7D077F3D
:1011FE006F777C395E79710006060606FFFFFFFFEA
:10120E0000029000FF0000000F0000000000080028
:10121E0000004000000001001FF100040706060652
:10122E00B83E24039999999999991F1C1F1E1F1E48
:10123E001F1F1E1F1E1F06050300060303000500C9
:10124E0004180000003C000000805101000700005F
:10125E0000E02E0C0110270A01401F08018813051B
:10126E0001B80B0301D0070201E8030A0A00194076
:10127E000A800C200A6009180A4006100AB0040CF5
:10128E000A2003080AF401050A9001040AC80002A4
:10129E000A6400010A51000000D96204019C3C1D41
:1012AE0091BC749388C80000000800000013000071
:1012BE0000050000005F000000700000001000003C
:1012CE0000EAF48F044006C05D8813AC73F802E3A5
:1012DE00244F19001BB70067EBE305000000000068
:1012EE0000000000000000000000000000000000F0
:1012FE000000000000000000007065620170656271
:10130E000185A3B365CCCC4E1CCCCC4E1C0000008A
:10131E0000000000000C111111111111040505023D
:10132E0004051A3C1E00000505143C050250000081
:10133E00000000020000000000000000CD130000BD
:10134E00471700003701000000400600042020006F
:10135E00014404000244040000440400114404004B
:10136E0012440400104404002144040022440400EA
:10137E00204404003144040032440400304404008C
:10138E0041440400424404004044048001A302008E
:10139E002C010000060000000020400000000400A8
:1013AE00E001000000320000A30B00001A00000054
:1013BE0012000000320000001F000000E02B3F0072
:1013CE0010B33C0091572C0016000000040C080EC0
:1013DE00060E0A100C1410160E161218001000002D
:1013EE00FFFFFF03010101090714034550534F4E40
:1013FE0031314C2053657020203920323031392064
:10140E0032323A33313A353900000000600057B0BD
:10141E0004B9009808320058021444445A595858D6
:10142E00582D4D0044445A595858582D4D0000001F
:10143E00000000000000000000000000000000009E
:10144E000000000044445A595858582D4D000000D1
:10145E00000000000000000000000000000000007E
:10146E00000000005858585800000000000000000E
:10147E00000000000000000000000000000000005E
:10148E0000000000323031362D58582D5858444C3B
:10149E002F543634352D323030372D31340077011C
:1014AE003355006400000078020014122501AAAA28
:1014BE00AAAAAAAAAAAA0000000000000000000022
:1014CE00000000000000000000000000000000000E
:1014DE0000000044445A59585858432D4D44445A1C
:1014EE0059585858432D4D000000000000000000D0
:1014FE000000000000000000000000000044445AFC
:10150E0059585858432D4D000000000000000000AF
:10151E000000000000000000000000000044445ADB
:10152E005958585843000044445A59585858430083
:10153E00000000000000000000000000000000009D
:10154E000000000000000044445A59585858430007
:10155E00000000000000000000000000000000007D
:10156E000000000000000044445A595858582D4DB0
:10157E000044445A595858582D4D000000000000A0
:10158E00000000000000000000000000000000004D
:10159E000044445A595858582D4D00000000000080
:1015AE00000000000000000000000000000000002D
:1015BE000044445A5958585800000044445A595847
:1015CE00585800000000000000000000000000005D
:1015DE00000000000000000000000044445A59586A
:1015EE00585800000000000000000000000000003D
:1015FE000000000000000000000000341200400057
:10160E00000040000000000000000000000000008C
:10161E00000040000000000000000000000000007C
:10162E0000000000000000000000000000000000AC
:10163E00000000000000006000000000000000003C
:10164E00000000000000000000000000000000008C
:10165E0000007200B1014DE8FFFF6CFDFFFF0000BE
:10166E00000000000000000000000000000000006C
:10167E00000000000000000000007701335500005C
:10168E000000000000000000000000011111111107
:10169E001111F401000064000000010000000100BF
:1016AE000000204E000000000000000000000000BE
:1016BE00000000000000000000000000000000001C
:1016CE0080110000001F000000000000000000005C
:1016DE0000000000000000000000000000000000FC
:1016EE0000000000000000000000000000000000EC
:1016FE0000000000000000000000000000000000DC
:10170E0000000000000000000000000000000000CB
:10171E0000000000000000000000000000000000BB
:10172E000000000000004088A0004088A000408813
:10173E00A0000000000000000000000000000000FB
:10174E00000000000000000000000000000000008B
:10175E00000000000000000000000000000000007B
:10176E00000000000000000000000000000000006B
:10177E00000000000000000000000100000000005A
:10178E00000000000000000000000000000000004B
:10179E00000000000000000000000000000000003B
:1017AE00000000000000000000000000000000002B
:1017BE00000000000000000000000000000000001B
:1017CE0000000010000800000000E8030000FFE029
:1017DE00F505C8000000000000002C000000307568
:1017EE0000000049D1120000010101009999999958
:1017FE0000000000A00500000000580204010000D7
:10180E0000000256341204785634140000041000FE
:10181E0000000200040808071B0000000000000082
:10182E0000000000000000000000000000000000AA
:10183E00000000000000000000000000000000009A
:10184E00000000003C3C3C3C0A3C1E1E99991200D4
:10185E000F83838303830F0F0F0F0502020804000B
:10186E0000007F0102040505FFFFFFFFFFFFFFFFE2
:10187E00000000000000000000000000000000005A
:10188E00000000000000000000000000000000004A
:10189E00000000000000000000000000000000003A
:1018AE00000000000000000000000000000000002A
:1018BE00000000000000000000000000000000001A
:1018CE00000000000000000000000000000000000A
:1018DE0000000000000000000000000000000000FA
:1018EE00000000161102120C120C120C120C120C2B
:1018FE00120C120C120C120C120C120C120C120CEA
:10190E001102120C120C120C120C120C120C120CE4
:10191E00120C120C120C120C120C120C8813002446
:10192E001300C012005C1200000000000000000056
:10193E000000000000000000000000000000000099
:10194E000000000000000000000000000000000089
:10195E000000000000000000000000000000000079
:10196E000000000000000000000000000000000069
:10197E00000000000000000000000000881300249A
:10198E001300C012005C12000000000000000000F6
:10199E000000000000000000000000000000000039
:1019AE000000000000000000000000000000000029
:1019BE000000000000000000000000000000000019
:1019CE000000000000000000000000000000000009
:1019DE000000000000000000000000000100821660
:1019EE00032D8443015A82700387849D849D849DB8
:1019FE00849D849D849D849D000000000000000055
:101A0E0000000000000000000000000000000000C8
:101A1E0000000000000000000000000000000000B8
:101A2E000000000000999999999999999999999915
:101A3E0099000000BE051246843F05690040BE03B2
:101A4E0040000000000002FA029000000002900028
:101A5E00000000000000000000000006120101005E
:101A6E000400020100040020008002000002900029
:101A7E000000000B0000000000000000000000004D
:101A8E000000000000000000000000000000000147
:101A9E000100040002010004002000800200000288
:101AAE00900000000000000001000000000E040085
:101ABE0004010E04000400020400040102040004E8
:101ACE0000000101020000010202000001030200F9
:101ADE00010B000400090400040002008002000251
:101AEE0014000400031400040000000000000000B5
:101AFE0000000000000000000000000000000000D8
:101B0E0000000000000000000000000000000000C7
:101B1E0000000000000000000000000000000000B7
:101B2E0000000000000000000000000000000000A7
:101B3E000000000000000000000000000000000097
:101B4E000000000000000000000000000000000087
:101B5E00000000000000000517000000000000015A
:101B6E00000000000200000000030000000004005E
:101B7E000000000000000000000000000000000057
:101B8E000000000000000000000000000000000047
:101B9E000001000000000200000000030000000031
:101BAE00040000000100000000010100000001021D
:101BBE00000000010300000001040000000200000C
:101BCE0000000201000000020200000002030000FB
:101BDE0000020400000001040004010104000400DE
:101BEE0001010004000201000400000101020000D6
:101BFE0001020200000103020000010602000000C3
:101C0E0000000000000000000000000000000000C6
:101C1E0000000000000000000000000000000000B6
:101C2E0000000000000000000000000000000000A6
:101C3E000000000000000000000000000000000096
:101C4E000000000000000000000000000000000086
:101C5E000000001FF10004070606060002900015A2
:101C6E00222D3E7F8286898A10110B315C645D6560
:101C7E004A0200004B0200004D024F0251020504C1
:101C8E0004090903039494797D7D79818179858591
:101C9E001C1C5B5BFE93935302560259025C025E60
:101CAE0002600257027C7B7BF40204800006030371
:101CBE0000050004FFFFFFFFFF999999999999611B
:101CCE006263646566000000000000000000008092
:101CDE005E666861605F673F6B6D5958526C4C462B
:101CEE00484F4E4D47403A3C4342413B342A2C37F5
:101CFE0036352B241E202726251F1812141B1A19C1
:101D0E00130C06080F0E0D074944454B51504A005F
:101D1E0000000001000000010003000200000007A7
:101D2E000040000C0000000703040002003F040FF7
:101D3E0003080004003F042F03300002003F048F0D
:101D4E0003300002003F04EF03300002003F044F57
:101D5E0004300002003F04AF041800140000008F8E
:101D6E000614000A000000570722000A001304ABF5
:101D7E000820000A000000EB097C000A000000C3E6
:101D8E000E300003003F04530F300002003F04B337
:101D9E000F38000200370423100C0002006F043BC2
:101DAE001010000A009704DB100C0014006F04CB17
:101DBE001110001400B7040B1330000A000000EBE2
:101DCE001410000A00A7048B150C000A0000000373
:101DDE00160C000A0000007B1628000A0000000BFB
:101DEE001828000A0000009B190C000A00000013BE
:101DFE001A0C000A0000008B1A18000A0000007B63
:101E0E001B0C000A000000F31B0C000A0000006B04
:101E1E001C180014007B044B1E0C0014006F043BB6
:101E2E001F0C001400C7042B200400140074027B46
:101E3E00200400050074028F200C0005000000CB6A
:101E4E0020040002000000F402040018050800C47B
:101E5E00030100C5030500CA030240AB100200B81F
:101E6E000304000144040002440480AB100200B4D9
:101E7E000304008F0304002504040001440400023F
:101E8E0044040011440400124404002144040022BE
:101E9E00440400314404003244040041440400422E
:101EAE00440480000033000144040002440480F422
:101EBE00020400014404000244040077040200A05E
:101ECE0004030025040300FA030280F4023300A782
:101EDE001104000F120100180504C0000033003871
:101EEE00050400014404000244048000003300A7EE
:101EFE0011040001440400024404808F0304000115
:101F0E00440400024404800000A0004000000000D1
:101F1E00400000FEFFFFFF16322C040149D112478C
:101F2E00276267C082C083E9FB74FF2B1904601A15
:101F3E007A00800808E8C3941440F90A900333E04D
:101F4E00F8EAC39850E1780080EBD083D08222C0AB
:101F5E0082C0838A828B83A3E0F98A828B83E0FA24
:101F6E00E9FBD083D0822274F7120B20EAFCEBFD42
:101F7E00E9FE7A557B55802FEAF9EBFA8C828D8338
:101F8E00E0F521EA652125E0FAE433FBE42AF58247
:101F9E0074013BF583E493FAA3E49369FB8C828D81
:101FAE0083A3AC82AD831EEE70CE7F02020B86C081
:101FBE0082C083801D8C828D83E4938A828B83F012
:101FCE008C828D83A3AC82AD838A828B83A3AA82FB
:101FDE00AB83E9F874FF28190470DAD083D082221B
:101FEE00C082C083801C8C828D83E08A828B83F0BA
:101FFE008C828D83A3AC82AD838A828B83A3AA82CB
:10200E00AB83E9F874FF28190470DBD083D08222E9
:10201E00C082C083800BE98A828B83F0A3AA82AB35
:10202E0083ECF874FF281C0470ECD083D0822279E4
:10203E0028E9FA74FF2A1904600C7800E8C3941E8C
:10204E0050EF000880F62279002274F1120B2074F2
:10205E00FF120AB28A218B22853182853283E4F007
:10206E00F525F52680080525E52570020526C3E52C
:10207E00259403E52694005034E004F0852127854D
:10208E002228E528547FFF12224279A01221C3E9AB
:10209E0070D4EFF91221C3E970CCA9271221C3E93C
:1020AE0070C412224279A11221C3E970B9752500BC
:1020BE007526007410120AFEE0FEA3E0FF741212E1
:1020CE000AFEE0F521A3E0F52280101222C8A3AE8D
:1020DE0082AF830525E52570020526C3E5259521EA
:1020EE00E52695225022122178E98E828F83F0E523
:1020FE002124FFF8E52234FFF9E865257003E96530
:10210E002670C81222A480C612227012203D43A649
:10211E000253A4FD43A60453A5FB53A4FB853182B1
:10212E00853283E0C39403900252E040074408F0E6
:10213E007902800554F7F079007401120AC87F08FD
:10214E00020B8674F3120B20752502752600782576
:10215E00120BCA740F120AFE120BDF1220587404EF
:10216E00120AC879007F06020B86C082C08353A66E
:10217E00FB53A5FB53A4FB43A40243A5029002010B
:10218E00E4F0F8801A000043A60453A5FB53A4FB09
:10219E00E0C333F0E5A7A2E15004E0D2E0F008E896
:1021AE00C3940853A6FB53A5FB53A4FB40D7E0F9F9
:1021BE00D083D08222C082C083E9900202F053A65F
:1021CE00FB53A5FB53A4FB53A6FD53A4FD7800803F
:1021DE001853A6FD53A4FDE0C333F0000043A6043C
:1021EE0053A5FB53A4FB000008E8C3940853A6FBB9
:1021FE0053A5FB53A4FB500AE0A2E750D443A6021A
:10220E0080D2000043A40243A50243A60453A5FBBB
:10221E0053A4FB0000E5A7A2E15004D2F08002C255
:10222E00F0A2F0E433F953A6FB53A5FB53A4FBD065
:10223E0083D0822253A6FB53A5FB53A4FB43A602D5
:10224E0053A4FD43A60453A5FB53A4FB000053A6C1
:10225E00FD53A4FD000053A6FB53A5FB53A4FB00A6
:10226E00002253A6FB53A5FB53A4FB53A6FD53A478
:10227E00FD000043A60453A5FB53A4FB000043A698
:10228E000253A4FD000043A40243A50253A6FB5330
:10229E00A5FB53A4FB2253A6FB53A5FB53A4FB4360
:1022AE00A60253A4FD43A60453A5FB53A4FB0000B2
:1022BE0053A6FB53A5FB53A4FB2253A6FB53A5FB2E
:1022CE0053A4FB53A6FD53A4FD43A60453A5FB53F1
:1022DE00A4FB000053A6FB53A5FB53A4FB22C08214
:1022EE00C083E9701C90020374FFF0900208E4F0C2
:1022FE00A3F0900207F09002047403F0A3E4F0A39D
:10230E00F0D083D08222C082C083E4801B9002056D
:10231E00E06013E014F0E0700D9002047404F0908D
:10232E0003CFE04410F0740160E3D083D0822274B6
:10233E00F8120B2090024D74FFF0A3F0A3F0A374DB
:10234E000FF07F01020B8612458702235B2274F881
:10235E00120B2090027DE4F090026EF0900273F06A
:10236E00A3F0A3F0A3F090026FF0A3F0A3F0A3F0FC
:10237E00900277F0A3F0A3F0A3F090027BF0F91295
:10238E0023D37F01020B86C082C083C2AF90026846
:10239E00E02401F0A3E03400F0D2AFD083D082224B
:1023AE00C082C083900264E02401F0A3E03400F008
:1023BE00900268E0F8A3E0F9900266E8F0A3E9F075
:1023CE00D083D0822274F8120B20E970117C0A7926
:1023DE00007A647B0212201E90027CE4803CC2AF25
:1023EE00900266E0F8A3E0F9A3C3E098F0A3E099A9
:1023FE00F0900264E4F0A3F0A3F0A3F0D2AFA3C375
:10240E00E09409A3E0940740099002687408F0A3D1
:10241E0014F0A3E4F0A3F0A3F0A3F07F01020B8667
:10242E0074F3120B2090097CE0FAA3E0FBEAA2E021
:10243E00503C900981E054027039EA5410702F908C
:10244E00099CE07029900D80782112095D85222665
:10245E00E52654107010EB5402600BE52154027007
:10246E0005EB540180069009CFE05410600543A699
:10247E0020800353A6DF53A5DF53A4DFEAA2E0506A
:10248E0008900981E05402600302252BEA54106083
:10249E0003022526EAC41354075403707B90099F48
:1024AE00E0707590099CE0706F90099BE0706990E8
:1024BE00097EE0F521A3E0F52274067821120A9038
:1024CE00E52154077052900D681209B2E8494A4B43
:1024DE006006900932E06040900D641209B2E8493E
:1024EE004A4B7034901A4AC082C0839009CB78212F
:1024FE0012095DD083D082E4935521F8A3E493555D
:10250E0022F9E8497012901206782112096C90098E
:10251E005E7821120600700543A608800353A6F7C5
:10252E0053A5F753A4F77F06020B86C082C083E93A
:10253E00C3945850287401C0E0740759F8D0E0B81D
:10254E0000028004C333D8FCF8E9131313541FFAA6
:10255E0074332AF582E43409F583E048F0D083D051
:10256E00822274F3120B2074F529F582E43411F5EE
:10257E0083E493F524EA75F007A4F8A9F074DE2835
:10258E00F525741C39F5267E0080267521017522ED
:10259E0000741F597821120A9FE521F4FAE9C41339
:1025AE005407F8743328F582E43409F583E05AF0C1
:1025BE000EEEC394075023E5252EF582E43526F55D
:1025CE0083E0F9852421752200EE7821120A80E538
:1025DE0021A2E050B612253980D67F06020B8674F2
:1025EE00F7120B2074EC120AB2A831A93288218995
:1025FE0022AE21AF227521147522007821120BCA4A
:10260E00EAFCEBFD7402120B10126A2B7402120A12
:10261E00C8853182853283E0700E7401120AFEE0A5
:10262E0070068048E8FEE9FF8E828F83E0F874FE24
:10263E00687043A3AE82AF8390097CE05401F8A387
:10264E00E05401F97401687001E960098E828F838C
:10265E00E0F91225398E828F83A3A882A9838E82F8
:10266E008F83E0FA88828983E06A70B87414120A44
:10267E00C87F02020B8674FD6870D1A3AE82AF8351
:10268E00E0F8C4540FFA740F58F9740F6970027998
:10269E001012257080BF74F1120B2074F0120AB262
:1026AE007C0B7D007A337B0912946290120A78219A
:1026BE0012096CAA21AB22AC23AD2412952FE9701E
:1026CE00107C0B7D0079FF7A337B091294A1022BCB
:1026DE003E90097CE05481F8A3E05401F9748168BE
:1026EE007001E97003022B3E9003D9E531F0A3E5AA
:1026FE0032F07C207D0079FF7A3E7B091294A19006
:10270E00097CE054F7F0900963E4F0A3F090097EA1
:10271E00E04402F090095E747BF0A3E4F0A3F0A312
:10272E00F0A3F0A304F0A3E4F090097EE054FDF0D2
:10273E00900964E0F954076006E9540704800AA87A
:10274E00319003D9E0C398C333FF79041294908576
:10275E003182853283782112095D7E00900963E013
:10276E00F8540714601B14601814605C146059143C
:10277E00700302280614700302280B14600302284B
:10278E0010E85408603E900E22E0F8C394025034D4
:10279E00E8FE90120E782512096CAA25AB26AC27FE
:1027AE00AD2812952FE9701890097CE0540870102E
:1027BE00EE70059012128003901216782112088C7A
:1027CE00740280170E0E8022E85408601B900E23B0
:1027DE00E0F8C394045011E8FE7404C39E333354DE
:1027EE00FC782112082E80027E04900963E054408A
:1027FE00601074012EFF800A0E7F0280050E0E0EF1
:10280E007F04EE6010746C2EF582E4341CF583E4C4
:10281E0093F9122539900963E05407F8603174FF7B
:10282E002825E0F8E433F9747E28F582741C39F516
:10283E0083E493C0E0740193F583D082AA82AB83C4
:10284E00EA4B600B74422AFA741A3BFB1225ED7E9A
:10285E00078012EEFAE521540FF9122570740478F0
:10286E002112082E1E74FF2F1F0470E7E52145224A
:10287E0045234524703D90097CE05408604E900934
:10288E005E782112095D7410782112082E749065FD
:10289E002145227032EEFA7910122570EE75F0078E
:1028AE00A4F8A9F074E428F582741C39F583E49336
:1028BE00F98016EEFAE521540FF91225707404789A
:1028CE002112082E1E80A5793012253990097CE040
:1028DE00A2E040030229F3900980E0544060559035
:1028EE000963E05420704D900D43E0F8C3940A50F4
:1028FE002F740128FF7523048022EFC39523401AFD
:10290E0085232174792521F582E4341CF583E49323
:10291E00F9122539E523CFC39FFF1523E52370DA7E
:10292E0079021225397A787B0C12956FE970057948
:10293E0062122539900D39E070030229CB9009639C
:10294E00E05410707890081DE0F8A3E0F5838882BB
:10295E00E0F521C39404502190097DE054017008E4
:10296E009009D8E05402701174762521F582E43472
:10297E001CF583E493F9122539900C39E06401605B
:10298E0019900DC9E0A2E15011795A1225397A74C5
:10299E007B0C12956FE97025801A900D80782112AC
:1029AE00095D90121A7821120909E5214522452365
:1029BE0045246004796F8002795A12253990096B8B
:1029CE00E0602290096AE025E0F8E433F974A52866
:1029DE00F582741C39F583E4932442FAA3E493340C
:1029EE001AFB1225ED7A3E7B091225ED900932E095
:1029FE00601890097DE05402603E900D807821129F
:102A0E00095DE521540270308033900D681209B2D1
:102A1E00E8494A4B700C900D641209B2E8494A4BD2
:102A2E00601B90097CE05401F8A3E05401F9740195
:102A3E006870037401697005798C1225399009CC80
:102A4E00E05440604190097EE0F521A3E0F5227448
:102A5E00067821120A90E5215407C39404401A9077
:102A6E000D80782112095D90121E7821120909E558
:102A7E0021452245234524600890097DE0540160DC
:102A8E000579901225397A847B0D1295B8E9600587
:102A9E00796A1225399009CDE0A2E05005792F12FE
:102AAE0025399009CFE054087028900D80782112B6
:102ABE00095D9012227821120909E521452245234C
:102ACE004524600E9009A2E0600D90097DE054014E
:102ADE006005797212253990097CE05401F8A3E063
:102AEE005401F97401687001E960299009CBE05432
:102AFE00046005792812253990097EE0F521A3E0BE
:102B0E00F52274067821120A90E5215407600579A2
:102B1E0088122539900CD5E0C39403500EA3E0C360
:102B2E0094035007A3E0C394C84005797612253963
:102B3E00124A277410120AC87F08020B8674F51207
:102B4E000B20E9FE90097CE0547FF090122678214C
:102B5E0012096CAA21AB22AC23AD2412952FE97079
:102B6E0009900962E0C39402403290122A78211231
:102B7E00096CAA21AB22AC23AD2412952FE9702447
:102B8E00900962E0FA900D39E024FFF8E434FFF981
:102B9E00C3EA98E499A2D265D0335008900962E056
:102BAE0004F0807D90097CE0C41354075403640143
:102BBE00700AEE70077900122C348022900969E0B9
:102BCE0004F0900968E0F8A3E0C3984016EE700E8A
:102BDE007900122C3490099FE06003E014F0900904
:102BEE0069E4F07521057522007821120BCA90094F
:102BFE0069E075F005A4F8A9F090096CE0FA75F09B
:102C0E00EFA4CAACF02CFB74BD2AFA742B3BFBEA82
:102C1E0028FCEB39FD7A5E7B09127C8D7402120A58
:102C2E00C87F04020B8674F7120B2090097CE054C7
:102C3E009FFAA3E0FB7403697015EA444090097C87
:102C4E00F0A3EBF090096774C7F0A37402804DE90E
:102C5E00C39402501C892175220074057821120A32
:102C6E009FE5215460FCEA4C90097CF0A3EBF080C8
:102C7E000CEA444090097CF0A3EBF07900E990094E
:102C8E00677003E480027463F074D529F582E4342E
:102C9E000DF583E0900968F0E990096CF090097CDD
:102CAE00E0547FF07F02020B8674F8120B20122C78
:102CBE00349009697480F07901122B4B900E24E048
:102CCE00900965F07F01020B8674F5120B209009B6
:102CDE007CE0FAA2E050559009BCE0FC900E25E095
:102CEE0025E0F8E433F9EC98E499C365D033502A23
:102CFE0090122E782112096C900629782112060066
:102D0E006018EAC41354075403F87402686003E8A9
:102D1E00700890097CE04410805590062974B8F034
:102D2E00A3743EF0A37424F0A37403F090096BE037
:102D3E006003E014F0900979E0602B90099CE0604C
:102D4E0003E014F090099BE06003E014F090096535
:102D5E00E014F0E070107900122B4B900E24E090EE
:102D6E000965F01248B71226A490097CE054EFF0E2
:102D7E0012242E7F04020B8674F5120B201248B714
:102D8E0090122E782112096C9006297821120600D5
:102D9E00600D7C0B7D0079FF7A337B091294A112B2
:102DAE004A277900122CB790099BE4F07F04020B9E
:102DBE008674F5120B2074F8120AB2AA31AB3212D5
:102DCE003562900B7FE0A2E150309009CBE0F8A382
:102DDE00E04480F99009CBE8F0A3E9F0900D8078FB
:102DEE002112095DE5215408700A7907129A627959
:102DFE0003129979900931743CF07408120AC87F55
:102E0E0004020B8674F8120B20122DBF900921E4D8
:102E1E00F0A3F0A3F0A3F012776C7F01020B86747F
:102E2E00F1120B2074E5120AB2853182853283EAE3
:102E3E00F0A3EBF0A3ECF0A3EDF0853182853283A5
:102E4E00120BDB7C007D00740F120B1012323574E6
:102E5E0004120AC8AA31AB321299FCE9FE7521039D
:102E6E007522007821120BCA7410120AFEAC82ADC4
:102E7E00837406120B101294D97402120AC87821A8
:102E8E00120BCA740D120B18740A120AFEAA82AB28
:102E9E00831294D97402120AC8752101EE78211298
:102EAE000A9F7407120AFEE521F0790A129ADD7460
:102EBE0004120B101235B8900B7FE0C2E1F07404CF
:102ECE00120AFEE0F9129551E9900931F08531822E
:102EDE00853283782112095D90120A782112088CAE
:102EEE00900925782112097F782112081EA37821D6
:102EFE0012097F8531828532831209B290091D1223
:102F0E0009BE853182853283782512095D9009319B
:102F1E00E0F521E4F522F523F52478257921120830
:102F2E00B6900921782512097F7AE47B0C12980558
:102F3E007AE87B0C1298057AEC7B0C1298059009B6
:102F4E00CBE0F8A3E0547FF99009CBE8F0A3E9F0C9
:102F5E00741B120AC87F08020B8674F1120B2074C0
:102F6E00EE120AB2740A120AFEECF0A3EDF0EAFEBB
:102F7E00EBFF740E120AFEE4F0A3F0A3F0A3F074BC
:102F8E000A120AFEE05403F52174036521701374CE
:102F9E000C120B10123562740D120AFEE0541FF063
:102FAE008057EE4F700302322374442521F582E4DC
:102FBE003412F583E493F521F9126B78E96401700C
:102FCE0003023223752200740A120AFEA3E0544053
:102FDE0078216011120BCAEEFCEFFD740E120B106D
:102FEE001294D9800F120BCAEEFCEFFD740E120B69
:102FFE0010126A2B7402120AC87521057522007808
:10300E0021120BCA7C327D12740E120B10126B3A07
:10301E007402120AC8EA4B4C4D700B7AFF7BFF7C90
:10302E00FF7DFF02322B7E00802A740C120AFEE511
:10303E00822EF582E43583F583E0F9129551E9C0CD
:10304E00E07404120AFEE5822EF582E43583F583E0
:10305E00D0E0F00EEEC3940640D07405120AFEE0E6
:10306E0014FA7404120AFEE0FC75F06DA4CCA8F0FC
:10307E0028FDE02403F521E43400F52274027821C2
:10308E00120A80EC2521F8ED3522F9E8FCE9FD85E0
:10309E003182853283ECF0A3EDF0A3E4F0A3F0FED1
:1030AE00804374382EF582E43412F583E493F521CF
:1030BE00E4F522F523F524853182853283782112B9
:1030CE0008A37404120AFEE05403701874016E70A3
:1030DE00139011DB782112096C8531828532837849
:1030EE00211208A30EEEC39A40B885318285328331
:1030FE00C082C0837406120AFEE0F521E4F522F5C3
:10310E0023F524D083D082782112087990124F783B
:10311E002512096C782179251206B67407120AFE5B
:10312E00E0F525E4F526F527F5287821792512080E
:10313E0066901253782512096C782179251206B6FD
:10314E007408120AFEE0F525E4F526F527F5287831
:10315E00217925120866901253782512096C782170
:10316E0079251206B67409120AFEE0F525E4F52655
:10317E00F527F52878217925120866853182853262
:10318E0083782112097F853182853283120BDB7C95
:10319E00007D007408120B101232357404120AC826
:1031AE007521067522007821120BCA740E120B18A7
:1031BE007406120B10126B3A7402120AC8EA4B4CC8
:1031CE004D7052740A120AFEE0540CF5216011740F
:1031DE0004652170167C3C7D00AA31AB32128C77CF
:1031EE0085318285328312098E8032740865217092
:1031FE0024853182853283782112095D90125778A9
:10320E002512096C78217925120736AA21AB22AC3A
:10321E0023AD2480087A007B007C007D007412129E
:10322E000AC87F08020B8674F2120B2074FA120A77
:10323E00B28A258B26ECFEEDFFEE5403FCEE131343
:10324E00543F5403F52774036C60030232F8AA311D
:10325E00AB3212356274036527701C7401120AFEBC
:10326E00E0C4135407F8C0E07403120AFED0E0F075
:10327E007407687002E4F07401120AFEE0541FF045
:10328E00A827E828F8744728FAE43412FB8A828BC0
:10329E0083A3EF54406029E493F521752200782131
:1032AE00120BCA8A828B83E493F87402120AFEE52B
:1032BE008228FCE43583FDAA25AB261294D98027FB
:1032CE00E493F5217522007821120BCA8A828B8332
:1032DE00E493F87402120AFEE58228FCE43583FDBD
:1032EE00AA25AB26126A2B0235537414120AFE124B
:1032FE0009B2E8494A4B7018A827E828F8790074F3
:10330E004828F582E43412F583E493FC7D00802A8C
:10331E0090120A782112096C7414120AFE78211286
:10332E0006007020A827E828F8744828F582E434AF
:10333E0012F583E493FC7D007999AA25AB261294AD
:10334E00A10235587402120AFEE4F07403120AFE4A
:10335E00E4F07404120AFEE4F07405120AFEE4F0BE
:10336E00EC6005146010803C7C3C7D007414120BE4
:10337E0010128C77EAF07C3C7D007414120B101244
:10338E008C77EAC0E07404120AFED0E0F07C187D5F
:10339E00007414120B10128C77EAC0E07403120A38
:1033AE00FED0E0F07414120AFE1209B2E8494A4B3C
:1033BE0070030234B090120A782112096C74141240
:1033CE000AFE78211208A37CB57D057414120B1029
:1033DE00128C777414120AFE782112095DE52133DE
:1033EE003354FC853182853283F0EA4B70117401BF
:1033FE00120AFE7401F004120AFE74010234C0EACD
:10340E0024FF1AEB34FFFB7414120AFEEAF0A3EB4E
:10341E00F0A3E4F0A3F07C6D7D017414120B101276
:10342E008C777414120AFE782112095D853182851B
:10343E003283E02521F0E0540370050AEA70010B97
:10344E007401120AFEE4800FC3EA98FAEB9400FBB3
:10345E007401120AFEE004F0E0F52174016521709A
:10346E0010853182853283E05403700575211D80ED
:10347E000F74382521F582E43412F583E493F52197
:10348E00852182A882C3EA98EB940050BBEA04C05F
:10349E00E07402120AFED0E0F07401120AFEE0049B
:1034AE008010853182853283E4F0A3F07402120A13
:1034BE00FEE4F0752100852123853182853283E576
:1034CE00822523F582E43583F583E0F912955FE9D1
:1034DE00F00521E521C3940640DCA827E828F874FE
:1034EE004728F8E43412F9E8FAE9FB8A828B83A3C1
:1034FE00EF54406029E493F5217522007821120BD8
:10350E00CA8A828B83E493F87402120AFEE582283B
:10351E00FCE43583FDAA25AB261294D98027E493CB
:10352E00F5217522007821120BCA8A828B83E493CF
:10353E00F87402120AFEE58228FCE43583FDAA2502
:10354E00AB26126A2B7402120AC87406120AC87FBE
:10355E0007020B8674F8120B20EAFEEBFF124F3EA9
:10356E00900371E08E828F83F0900372E08E828FD3
:10357E0083A3F0900373E08E828F83A3A3F0900356
:10358E0074E08E828F83A3A3A3F0900375E08E82E6
:10359E008F83A3A3A3A3F0900376E08E828F83A3E1
:1035AE00A3A3A3A3F07F01020B86C082C0838A82ED
:1035BE008B83A3A3A3A3A3E090036DF08A828B83D6
:1035CE00A3A3A3A3E090036CF08A828B83A3A3A38F
:1035DE00E090036BF08A828B83A3A3E090036AF0E2
:1035EE008A828B83A3E0900369F08A828B83E090BA
:1035FE000368F0124F81D083D0822274F5120B2013
:10360E0074AD120AB275CEA575CF5A7521537522B7
:10361E00007821120BCA7402120B088821892278B5
:10362E0021120BCA9011DF782112096CAA21AB224C
:10363E00AC23AD241220587404120AC875CEA57599
:10364E00CF5A7451120AFEAA82AB83121F5D8A21D1
:10365E008B22AE21AF227951AA31AB32121F75EAFD
:10366E006E7002EB6F606275CEA575CF5A752153E1
:10367E007522007821120BCA7402120B0888218958
:10368E00227821120BCA9011F1782112096CAA210D
:10369E00AB22AC23AD241220587404120AC875CE86
:1036AE00A575CF5A7451120AFEAA82AB83121F5D02
:1036BE008A218B22AE21AF227951AA31AB32121F51
:1036CE0075EA6E7002EB6F7009AA31AB3212370DCC
:1036DE00802079517A9D7B02121F758A218B22A838
:1036EE0021A9229002EEE0687003A3E06960031244
:1036FE0043E61244477453120AC87F04020B86C075
:10370E0082C083789D79027C0080198A828B83E047
:10371E0088828983F0A3A882A9838A828B83A3AA35
:10372E0082AB830CECC3945340E1D083D0822274DD
:10373E00F5120B2074FE120AB2A831A93288218923
:10374E00227821120BCA9012A3782112096CAA2199
:10375E00AB22AC23AD241221517402120AC885315A
:10376E0082853283E0F8A3E0F99002EEE068700300
:10377E00A3E069702279517A9D7B02121F758A210E
:10378E008B22A821A9229002EEE0687003A3E069C3
:10379E00700512444780031236091237C4740212A0
:1037AE000AC87F04020B86C082C08390029C7405F7
:1037BE00F0D083D0822274F7120B207C0080010C93
:1037CE00ECC3941150468C2175220074027821129C
:1037DE000A9F745F2521F874123522F98882898335
:1037EE00E493FA740193FB90029DE06A7003A3E0E8
:1037FE006B70CC88828983A3A3E493900280F088B7
:10380E00828983A3A3A3E493900281F0ECC3941165
:10381E00400A900280740AF0900281F07F02020B3F
:10382E008674F5120B20E9FEA2E050297C04790083
:10383E007A827B0212201E79047A827B02121F7515
:10384E00900286EAF0A3EBF079067C827D027A88FC
:10385E007B02121FEEEEA2E150787C0E79007A8E7A
:10386E007B0212201E790C7A8E7B02121F7590023B
:10387E009AEAF0A3EBF075210E7522007821120B57
:10388E00CA75218E7522027821120BCA9011D37837
:10389E002112096CAA21AB22AC23AD24122055743F
:1038AE0004120AC875210E7522007821120BCA75F2
:1038BE00218E7522027821120BCA9011D77821120F
:1038CE00096CAA21AB22AC23AD241220557404122C
:1038DE000AC87F04020B8674F5120B2074F2120ACA
:1038EE00B2123A17E9640160030239A775210E7509
:1038FE0022007821120BCA7402120B088821892229
:10390E007821120BCA9011D3782112096CAA21AB1F
:10391E0022AC23AD241220587404120AC8790CAAC2
:10392E0031AB32121F758A218B22A821A922740C69
:10393E00120AFEE0687003A3E069605075210E75EF
:10394E0022007821120BCA7402120B0888218922D8
:10395E007821120BCA9011D7782112096CAA21ABCB
:10396E0022AC23AD241220587404120AC8790CAA72
:10397E0031AB32121F758A218B22A821A922740C19
:10398E00120AFEE0687003A3E069700D790EAC3187
:10399E00AD327A8E7B02121FEE740E120AC87F04AD
:1039AE00020B8674F7120B207E0079047A827B025A
:1039BE00121F758A218B22A821A922900286E06807
:1039CE007003A3E069601F0E79047A887B02121FD0
:1039DE00758A218B22A821A92290028CE06870039F
:1039EE00A3E06960010EEEA2E0500F79067C887D9F
:1039FE00027A827B02121FEE800AC394024005797E
:103A0E000112382F7F02020B8674F7120B20790CED
:103A1E007A8E7B02121F758A218B22A821A92290F1
:103A2E00029AE0687003A3E069600479018002796C
:103A3E00007F02020B8674F8120B2089217E007F14
:103A4E00001239B1740165217005900282805AE529
:103A5E0021704D90029CE0A2E05009900282E0FE9F
:103A6E00A3E08013E0A2E1500F900282E0F8A3E001
:103A7E00F9C3E498FEE499FF90029CE0A2E2500B99
:103A8E00900284E02EFEA3E03F8022E0A2E3501ECF
:103A9E00900284E0F8A3E0F9C3EE98FEEF99800D52
:103AAE00740265217008900284E0FEA3E0FFEEFA36
:103ABE00EFFB7F01020B8674F5120B2074F2120AD3
:103ACE00B27E0075210E8E227821120BCA7402125C
:103ADE000B08882189227821120BCA9011D37821E4
:103AEE0012096CAA21AB22AC23AD24122058740407
:103AFE00120AC8790CAA31AB32121F758A218B2299
:103B0E00A821A922740C120AFEE0687003A3E069D2
:103B1E00604F75210E8E227821120BCA7402120B81
:103B2E0008882189227821120BCA9011D778211288
:103B3E00096CAA21AB22AC23AD24122058740412B6
:103B4E000AC8790CAA31AB32121F758A218B22A8B2
:103B5E0021A922740C120AFEE0687003A3E06970BA
:103B6E00010EEE7020790C7A8E7B02121F758A215F
:103B7E008B22A821A92290029AE0687003A3E06923
:103B8E006003023C7274016E700D790EAC31AD3271
:103B9E007A8E7B02121FEE7A007901123A448A2144
:103BAE008B22EB3395E0F523F524900292782112C7
:103BBE0008A37A007900123A448A218B22EB3395BE
:103BCE00E0F523F52490028E78211208A37A00796D
:103BDE0002123A448A218B22EB3395E0F523F52429
:103BEE0090029678211208A3790C7A8E7B02121F0E
:103BFE0075A3EAF0A3EBF0123A17E9706775210E80
:103C0E007522007821120BCA75218E752202782139
:103C1E00120BCA9011D3782112096CAA21AB22ACD7
:103C2E0023AD241220557404120AC8123A17E970F3
:103C3E0033790112382F75210E7522007821120B5F
:103C4E00CA75218E7522027821120BCA9011D7786F
:103C5E002112096CAA21AB22AC23AD24122055747B
:103C6E0004120AC8740E120AC87F04020B8674F17D
:103C7E00120B207AF27B10123E698A218B228C2342
:103C8E008D249003457821120674900345782512F1
:103C9E00095D500A900349E02AC39525800BE5255E
:103CAE00F42A04F8900349E028F090034578211295
:103CBE00097F900349E0C313F89002F0E028F090DA
:103CCE000349E0A2E0E433F0900280E0F89002F0C5
:103CDE00E0984074900280E0F5F09002F0E084F9F4
:103CEE00F5F0900280E0A4F89002F0E098F0E9F58B
:103CFE00F0900281E0A4F890027EE028F0E0F890C7
:103D0E000282E028F0A3E03400F090027EE4F07925
:103D1E00047A827B02121F75900286EAF0A3EBF002
:103D2E0079067C827D027A887B02121FEE900282D7
:103D3E00C3E094D1A3E09407500BA3C3E094D1A3A6
:103D4E00E094074003123AC51260667F08020B86A4
:103D5E0074F7120B209002FDE4F0A3F09002F80429
:103D6E00F09002A1E0F8A3E0F97AE87B03120A27AB
:103D7E00E8FCE9FD90029FE0F8A3E0F97A647B008D
:103D8E00120A278821EC88F0A4CCA8F089F0A42888
:103D9E00F88521F0EDA428FDEC2CFCED33FDECF8BC
:103DAE00EDF97AE87B03120A27E8FCE9FD9002F9A7
:103DBE00ECF0A3EDF0A3E4F0A3F09002F4F0A3F086
:103DCE00A3F0A37402F0FF020B86C082C083A28709
:103DDE0050317800790080060008E8700109C3E8C8
:103DEE009409E9940040F178007900800508E870A4
:103DFE000109C3E8944CE99400505B902885E0706B
:103E0E00EC8053A28078005030790080060008E8DC
:103E1E00700109C3E894F0E9940040F1780079004C
:103E2E00C3E89480E99407502D902885E060270818
:103E3E00E870ED0980EA007801E860FA7800790010
:103E4E00800508E8700109C3E89402E99400500661
:103E5E00902885E070ECD083D0822274F1120B2072
:103E6E0090288474CCF0E4F02AF582E43BF583E0EC
:103E7E00123DD8902885E0600A7A007B007C007D98
:103E8E00008058902883E0F525E4F526F527F528DF
:103E9E0074087825120847902882E0F521E4F5226F
:103EAE00F523F52478257921120933740878251223
:103EBE000847902881E0F52178257921120933747D
:103ECE00087825120847902880E0F5217825792179
:103EDE00120933AA25AB26AC27AD287F08020B8624
:103EEE0074F1120B20780090288474CCF0E4F090DA
:103EFE002885E0600908E8C3942140F3803BEA90EE
:103F0E002880F0EBA3F0ECA3F0EDA3F0740F120AEF
:103F1E00FEE0F8A3E0F988828983E4F0D287A287D5
:103F2E0040070AEAC3941F40F5007800902885E008
:103F3E00600B08E8C3942140F37900800279017F79
:103F4E0008020B8674F1120B20780090288474CC32
:103F5E00F0E4F0902885E0600908E8C3942140F36E
:103F6E00803AEA902880F0EBA3F0ECA3F0EDA3F0FA
:103F7E00C287A28750070AEAC3941F40F5740F1236
:103F8E000AFEE0F8A3E0F988828983E4F000F89055
:103F9E002885E0600B08E8C3942140F37900800285
:103FAE0079017F08020B8674F1120B20780090289D
:103FBE008474CCF0E4F0902885E0600908E8C3949E
:103FCE002140F3802DEA902880F0EBA3F0ECA3F0D3
:103FDE00EDA3F0740F120AFEE0F8A3E0F9888289CF
:103FEE0083E4F000F8902885E0600B08E8C3942184
:103FFE0040F37900800279017F08020B86C082C0EF
:10400E0083902858E4F0A3F0A3F0A3F0A3F0A3F05C
:10401E00902863F090286504F0E99028646003E42A
:10402E008002740FF0D083D08222D2877800A287CC
:10403E00400708E8C3941540F52274F5120B20E9E9
:10404E00FFC28475217D7522287821120BCA90112A
:10405E00DF782112096CAA21AB22AC23AD24123FCA
:10406E00B57402120AC87521787522287821120BB0
:10407E00CA9011DF782112096CAA21AB22AC23ADB4
:10408E0024123FB57402120AC87521F475221078F5
:10409E0021120BCA9012A7782112096CAA21AB2209
:1040AE00AC23AD24123FB57402120AC87521FA75FD
:1040BE0022107821120BCA9012A7782112096CAA2D
:1040CE0021AB22AC23AD24123FB57402120AC8EF05
:1040DE007521EF75221078216008120BCA9012AB71
:1040EE008006120BCA9012AF782112096CAA21AB6E
:1040FE0022AC23AD24123FB57402120AC87E008092
:10410E002B8E21E52124F0F521E43410F5227821BF
:10411E00120BCA9011DF782112096CAA21AB22ACC6
:10412E0023AD24123FB57402120AC80EEEC39404D6
:10413E0040CF7E00802B8E21E52124F6F521E4343C
:10414E0010F5227821120BCA9011DF782112096C1A
:10415E00AA21AB22AC23AD24123FB57402120AC8B9
:10416E000EEEC3940440CF75217D7522287821125E
:10417E000BCA9012B3782112096CAA21AB22AC2380
:10418E00AD24123FB57402120AC875217D7522281E
:10419E007821120BCA9012B7782112096CAA21ABA2
:1041AE0022AC23AD24123FB57402120AC875217DCC
:1041BE007522287821120BCA9011DF782112096C12
:1041CE00AA21AB22AC23AD24123FB57402120AC849
:1041DE007E00802B8E21E52124F0F521E43410F5AC
:1041EE00227821120BCA9011DF782112096CAA21B4
:1041FE00AB22AC23AD24123FB57402120AC80EEEE8
:10420E00C3940440CF7E00802B8E21E52124F6F549
:10421E0021E43410F5227821120BCA9011DF782197
:10422E0012096CAA21AB22AC23AD24123FB5740245
:10423E00120AC80EEEC3940440CF7521F5752210F4
:10424E007821120BCA9011DB782112096CAA21ABCE
:10425E0022AC23AD24123FB57402120AC87521FB9D
:10426E007522107821120BCA9011DB782112096C7D
:10427E00AA21AB22AC23AD24123FB57402120AC898
:10428E00EF7521787522287821602B120BCA9012B7
:10429E00BB782112096CAA21AB22AC23AD24123FAC
:1042AE00B57402120AC875217E7522287821120B68
:1042BE00CA9012BF8029120BCA9012C3782112091C
:1042CE006CAA21AB22AC23AD24123FB57402120AA4
:1042DE00C875217E7522287821120BCA9011DF78BD
:1042EE002112096CAA21AB22AC23AD24123FB57466
:1042FE0002120AC87521797522287821120BCA90EC
:10430E0011DF782112096CAA21AB22AC23AD241245
:10431E003FB57402120AC875217A752228782112C7
:10432E000BCA9012C7782112096CAA21AB22AC23BA
:10433E00AD24123FB57402120AC875217D7522286C
:10434E007821120BCA9011F1782112096CAA21ABB7
:10435E0022AC23AD24123FB57402120AC875217B1C
:10436E007522287821120BCA9011DF782112096C60
:10437E00AA21AB22AC23AD24123FB57402120AC897
:10438E0075217C7522287821120BCA9011DF7821B5
:10439E0012096CAA21AB22AC23AD24123FB57402D4
:1043AE00120AC89002F37401F09002F2E4F07F0456
:1043BE00020B86790012400B12403875CEA575CFD0
:1043CE005A790012404875CEA575CF5A0243DD12B8
:1043DE00373D1237B50238E5C082C08379517CD3A0
:1043EE007D127A9D7B02121FBD79517A9D7B02123E
:1043FE001F759002EEEAF0A3EBF0D083D08222C0BC
:10440E0082C0839002F0E004F0900280E0F8900207
:10441E00F0E0C398401E900280E0F89002F0E0C3F6
:10442E0098F0900281E0F890027EE028F09003CFA1
:10443E00E04404F0D083D0822274F5120B20900356
:10444E0033E064017521F475221078217008120B87
:10445E00CA9002A78006120BCA9002A312098E12EE
:10446E003FB57402120AC87521FA7821120BCA9050
:10447E0002A312098E123FB57402120AC87521F5F5
:10448E007821120BCA9002AB12098E123FB574023C
:10449E00120AC87521FB7821120BCA9002AB1209C1
:1044AE008E123FB57402120AC87E0080378E828546
:1044BE008221752200E52124E8F523E43410F52449
:1044CE007823120BCA74027821120A9F74B3252125
:1044DE00F58274023522F58312098E123FB57402ED
:1044EE00120AC80EEEC3940740C3900333E0640172
:1044FE0070457521F47522107821120BCA9002A70F
:10450E0012098E123FB57402120AC87521EB78217A
:10451E00120BCA9002E512098E123FB57402120AEE
:10452E00C87521EC7821120BCA9002E912098E127D
:10453E003FB57402120AC875217B752228782112A4
:10454E000BCA9002CFE0FAE4FBFCFD123FB57402F9
:10455E00120AC875217C7821120BCA9002D0E0FA9B
:10456E00E4FBFCFD123FB57402120AC89002EDE0A6
:10457E00902858F07F04020B86C082C083790F7C8E
:10458E003B7D137AFF7B02121FBD900307E0F87488
:10459E00096860077490686002E4F0790F7AFF7B17
:1045AE0002121F7590030EEAF0A3EBF0D083D082B7
:1045BE0022222274F5120B201250DB90122E78213B
:1045CE0012096C9006297821120600600B90092DB5
:1045DE00E4F0A3F0A3F0A3F09012CF782112096CAF
:1045EE0090092D78211206006005122D8680061284
:1045FE0048B7124A27900B237432F0A3740FF09031
:10460E000C3BE0646670091245C09009857421F078
:10461E00122E1290091D1209B29009B01209BE9005
:10462E0012CF782112096C90092D782112060060A4
:10463E002290092DE4F0A3F0A3F0A3F09009CBE0B3
:10464E00F8A3E054FDF99009CBE8F0A3E9F0790561
:10465E00129ADD122CD712514290097AE04408F0DA
:10466E001258CF12601F9009A17401F0900D80783E
:10467E002112095DE52254206027900D681209B2BF
:10468E00E8494A4B60067A687B0D8010900D6C12DB
:10469E0009B2E8494A4B600C7A6C7B0D12604F8070
:1046AE00031245C0900C39E064016005752101804C
:1046BE00037521007522009009CFE0FAA3E054FDA6
:1046CE00FB74097821120A9FE5225402F9EAF8EBED
:1046DE0049F99009CFE8F0A3E9F0900E54E0A2E07A
:1046EE0050129009D7E0F8A3E04402F99009D7E8F8
:1046FE00F0A3E9F0900977E0600312776C129A3715
:10470E007AB47B09128CFA900D80782112095DE53E
:10471E0021A2E0500312994290097BE04440F07FC1
:10472E0004020B86C082C08390097BE054C0F9E47A
:10473E0070037440697024900976E4F090097BE070
:10474E004480F0900C3AE064337009A3E064666034
:10475E00031245BF90097BE0547FF0D083D08222B4
:10476E00C082C083900971E014F0900B7FE0A2E04C
:10477E0050071254DEE0C2E0F090097FE054EFF0F3
:10478E00D083D08222C082C083900977E4F0900952
:10479E00BCE0F8C394D25018E8C394154022900997
:1047AE007FE05440701AE04440F0A3E04401800FD3
:1047BE00E024FEF0900980E054106004E054EFF025
:1047CE00122CD79009C0E06010E014F0E0700A904F
:1047DE00097AE0440CF012725F900980E054026096
:1047EE0012900C39E06401600A1256AB900980E019
:1047FE0054FDF0D083D08222C082C0839028A8E0DE
:10480E00D2E0F0A3E0D2E0F078008019E833333341
:10481E0054F82433FA74042AF977010977000977DA
:10482E00C809770008E8C3940240E1D083D0822201
:10483E00C082C0839028AFE0A2E17835404B793733
:10484E00C3E6970809E6974017181818E6701190F6
:10485E000325E0900310F09003D2E0D2E0F0760151
:10486E007833E66402600A0808E62401F608E436A6
:10487E00F6783509C3E6970809E697401618181812
:10488E00E66401700E7602800A760008760018182B
:10489E00187600D083D08222C082C083900311EAA2
:1048AE00F0A3EBF0D083D08222C082C0839028B4D4
:1048BE00E0440FF09028B8E04403F09028BCE07478
:1048CE00FFF09028D5E0443FF09028B5E054F0F08A
:1048DE009028B9E054FCF09028BDE0E4F09028D682
:1048EE00E054C0F0C28390285E7404F0902C1E74C5
:1048FE0091F0A3E4F0A374FFF0A3747CF0A3E4F0B2
:10490E00A3F0D083D08222C082C08312493A902C69
:10491E001FE4F0A3F0A3F0A3F0A3F07905121F316A
:10492E00902C1EE4F0D283D083D08222C082C0832A
:10493E007C0B7900900311E0FAA3E0FB12201E120B
:10494E004970D083D08222C082C0837C0B79FF90C5
:10495E000311E0FAA3E0FB12201E124970D083D09F
:10496E008222C082C083900311E0FAA3E0FB1249B9
:10497E0084D083D08222C082C0838A828B83E090CF
:10498E002C06F08A828B83A3E0902C07F08A828B10
:10499E0083A3A3E0902C08F08A828B83A3A3A3E0C9
:1049AE00902C09F08A828B83A3A3A3A3E0902C0AF8
:1049BE00F08A828B83A3A3A3A3A3E0902C0BF08A8F
:1049CE00828B83A3A3A3A3A3A3E0902C0DF08A82D2
:1049DE008B83A3A3A3A3A3A3A3E0902C0EF08A82A0
:1049EE008B83A3A3A3A3A3A3A3A3E0902C0FF08A6E
:1049FE00828B83A3A3A3A3A3A3A3A3A3E0902C10B2
:104A0E00F08A828B83A3A3A3A3A3A3A3A3A3A3E050
:104A1E00902C11F0D083D08222C082C083900311DB
:104A2E00E0FAA3E0FB124984D083D0822274F812FC
:104A3E000B20124A6F900322E0900310F0900314A3
:104A4E00E4F0A3F0A3F0A3F090032DF0A3F09003F5
:104A5E002A7403F0900322E090032BF07F01020BE7
:104A6E0086C082C0839003187404F090031CF090EB
:104A7E00031904F090031EF0A3F0900322F0D083EC
:104A8E00D08222C082C0839028A8E4F0A3F0A3F0C5
:104A9E009028ACF0A3F0A3F09028C5F0A3F0A3F0FB
:104AAE00A3F09028B074FFF0A3E4F09028B4740F34
:104ABE00F0A3E4F09028B874FFF0A3E4F09028BCC3
:104ACE0074FFF0A3E4F09028C074FFF0A3E4F0901C
:104ADE0028D574FFF0A3E4F09028D9F0A3F075A4C4
:104AEE000075A50075A60053A4FE53A5FE53A6FEA1
:104AFE0053ADFED083D08222438E085389F0438972
:104B0E0001758CEF758AFFD28CD2A922C28E538E7C
:104B1E00EF5389F7438910EA75F044A4FAA8F075AB
:104B2E00F044EBA428FB74FFC39AF874FF9BF58D39
:104B3E00E8F58BD2AB22538EDFC2C975CDF575CC9D
:104B4E0054D2CAD2AD227800800108E8C394144032
:104B5E00F92274F8120B20E9FF7E008004124B54E8
:104B6E000EEEC39F40F77F01020B8674F8120B20E6
:104B7E00E9FEEAFF7590967597577905124B608E90
:104B8E009674076E700574404FF5DF7905124B6011
:104B9E007590967597567905124B607F01020B86BC
:104BAE00C082C083D2E990284BE0D2E6F0D083D009
:104BBE008222C082C083902D00E4F0A3F0124A91AD
:104BCE001248B7124955124D80124B06124B441221
:104BDE0048067A007903124B79124BAED083D082FD
:104BEE0022C082C083E9FA7800C286C28574046A44
:104BFE009028677007E054FC44028003E054FCF0F8
:104C0E00A3E4F0E5A3A2E0400908E8C3943340F31F
:104C1E00800FD2807800A280400B08E8C394154024
:104C2E00F5790080089003337404F07901D083D0B5
:104C3E008222C082C083E9FA7800C286C28590289B
:104C4E006774C0F0A3E4F0E5A3A2E0400908E8C34E
:104C5E00943340F38025D2807800A280400908E882
:104C6E00C3941540F5801474FF6A7013D2877800D0
:104C7E00A287400B08E8C3941540F57900801E907A
:104C8E00285FE4F0A37403F0A37420F0A374C4F0BF
:104C9E009028667480F09003337401F0F9D083D0BD
:104CAE00822274F1120B2074FC120AB290286374E3
:104CBE0097F0791E121F317ACE7B10123E69853124
:104CCE008285328312099A7403120AFEE0C394811C
:104CDE004023853182853283782112095D78211235
:104CEE00081E9011DB782112088C85318285328363
:104CFE00782112097F853182853283782112095DF0
:104D0E007410782112082E9011E3782512096C7810
:104D1E002179251206B690134A782112088C901329
:104D2E004E782512096C78217925120736900337B3
:104D3E00782112097F901352782112096C90033753
:104D4E007821120664900335500D745AF0A3F0903A
:104D5E000252E04404800AE4F0A3F0900252E054C0
:104D6E00FBF09028637481F07404120AC87F080265
:104D7E000B86C082C08390024A7402F0F91278AD9D
:104D8E0079001222ECD083D08222C082C083902878
:104D9E00A8E0C2E1F09028AAE0C2E1F09028ACE0D1
:104DAE00D2E4F0A3E0C2E4F01249159028C9E4F071
:104DBE00A3F09028CDF0A3F09028B0E04433F0A3F8
:104DCE00E054CCF09028ADE0C2E1F09028ACE0D2F7
:104DDE00E1F09028A8E0D2E1F0A3E0C2E1F0A3E078
:104DEE00C2E1F09028A8E0D2E2F0A3E0C2E2F09097
:104DFE0028A8E0D2E3F0A3E0C2E3F043A40153A558
:104E0E00FE9028ACE0D2E4F0A3E0C2E4F09028AC2F
:104E1E00E0C2E3F0A3E0C2E3F09028C77404F0D040
:104E2E0083D0822275A80075E80075910022C08299
:104E3E00C083902820E4F0902828F0902830F0903D
:104E4E002A05F0D083D0822274F5120B20902864AC
:104E5E00E4F075217D7522287821120BCA9011DF9E
:104E6E00782112096CAA21AB22AC23AD24123FB5D6
:104E7E007402120AC87521787522287821120BCA7D
:104E8E009011DF782112096CAA21AB22AC23AD243C
:104E9E00123FB57402120AC87800800108E8C39464
:104EAE001440F9D2847F04020B86C082C08378330B
:104EBE00760043A60253A4FD43A60453A5FB53A4B8
:104ECE00FBE5A1A2E04021C280A28040FCE5A1A2A8
:104EDE00E040157800800108E8C3940340F990285B
:104EEE0067E4F0E070FDD2817900D083D08222C0D9
:104EFE0082C083C286C285E5A1A2E0402CE5A1A2B4
:104F0E00E04026C280A28040FCE5A1A2E0401A78D3
:104F1E0000800108E8C3940340F9902867E4F0E0AC
:104F2E0070FDD2817905124B607900D083D0822238
:104F3E00C082C08374FF120AB2E5DA8531828532EF
:104F4E0083F07905124B60E59A900371F0E59BA30F
:104F5E00F0E59CA3F0E59E900377F0E59D90037439
:104F6E00F0E59FA3F0E593A3F07401120AC8D08375
:104F7E00D08222C082C0837590967597577905129C
:104F8E004B6090036DE0F59390036CE0F59F9003FA
:104F9E006BE0F59D90036AE0F59C900369E0F59B4C
:104FAE00900368E0F59A90036EE0F59E7905124B3A
:104FBE00607590967597567905124B60D083D082A6
:104FCE002274F1120B20E9FE7590967597577902AF
:104FDE00124B607594007595008E25E4F526F52725
:104FEE00F528901356782112096C7825792112062E
:104FFE00B690120A782512088C85252185262285E1
:10500E0027238528247410782112082EE521F5DB3C
:10501E00E526F5DCE525F5DD7902124B60759096F7
:10502E0075975679077CF27D137A687B03121FBD44
:10503E00124F817F08020B8674F1120B2074F81246
:10504E000AB27521087522007821120BCA126CDC87
:10505E00EAFCEBFD7402120B10126A2B7402120A98
:10506E00C87404120AFE782512095D8531828532D4
:10507E008378251208E2900E18E0FA752100752348
:10508E0000752400A2E0500B853182853283782191
:10509E0012095DEAA2E1500B8531828532837821B7
:1050AE001208CAEAA2E2500778217925120866EAA8
:1050BE00A2E35007782179251208B6AA21AB22ACBB
:1050CE0023AD247408120AC87F08020B8674F512E9
:1050DE000B20900C60782112095D90081DE0F8A35A
:1050EE00E0C8241CF582E438F58378211208CA90B2
:1050FE0009DD782112097F9009DD782112095D9072
:10510E0011DF782112062A9009E150107821120938
:10511E007FA3E4F0A3F0A3F0A3F08013E4F0A3F0D8
:10512E00A3F0A3F0782112080DA3782112097F7F36
:10513E0004020B8674F1120B20900D807821120957
:10514E005D900C39E064017003025293E5225440E5
:10515E006004D2F08002C2F0A2F0E433F52190098F
:10516E00E1782512095D900C5078251206644036C0
:10517E00A3782512066450057521018029E5254581
:10518E0026452745286005752102801A900D8878DE
:10519E002112095D9009E5782112066450057521EA
:1051AE0003800375210490097EE0543FFAA3E05476
:1051BE00FEFB75220074067821120A9FA821E522B3
:1051CE005401F9EA48FAEB49FB90097EEAF0A3EBA9
:1051DE00F09009CFE0FCA3E054EFFD9009CFECF086
:1051EE00A3EDF0900D80782112095D852125852291
:1051FE002690121E7821120909E5214522452345E4
:10520E00246010ECF8ED4410F99009CFE8F0A3E912
:10521E00F0803C8A218B2274067821120A90E521B7
:10522E005407FAC39404502F852622E52254207089
:10523E0026E52554046018EAC39403501A9009DD3C
:10524E00782112095D900D90782112061550089064
:10525E00097DE04402800690097DE054FDF090093E
:10526E00CBE0F8A3E0F99009E51209A6EC4D4E4FFC
:10527E006005E944408003E954BFF99009CBE8F09A
:10528E00A3E9025315E522544090097E6014E054C0
:10529E003FF8A3E054FEF9E8444090097EF0A3E9FC
:1052AE008008E0543FF0A3E054FEF09009CFE0FAFE
:1052BE00A3E054EFFB9009CFEAF0A3EBF0900D8042
:1052CE00782512095D8525218526228527238528A7
:1052DE002490121E7821120909E521452245234505
:1052EE00246010EAF8EB4410F99009CFE8F0A3E936
:1052FE00F0800EE5265420600890097DE054FD8074
:10530E000690097DE04402F09009CFE0FAA3E0FB9D
:10531E0090097DE05402602DEA54BFF8EBF9900934
:10532E00CFE8F0A3E9F0900C39E06401600E900D27
:10533E0080782112095DE521540270177A647B0D85
:10534E001297EE800EEA4440F8EBF99009CFE8F0A0
:10535E00A3E9F090097EE0F521A3E0F5227406782A
:10536E0021120A90E5215407FA9009CFE0F8A3E044
:10537E00F9EA6005E844808003E8547F9009CFF095
:10538E00A3E9F0EAC39403500579861299797F0850
:10539E00020B8674F5120B20900DB2E0F8A3E0F923
:1053AE00E849602B900D9C1209B2E8494A4B601FE8
:1053BE00900AC912098E12A0138A218B228C238D7A
:1053CE0024900D9C78211206645004790080027995
:1053DE00017F04020B8674F5120B208A828B837870
:1053EE002112095DE52145224523452460269013AF
:1053FE009AC082C08390091D78211208CA90120AA1
:10540E00782112088CD083D0827821120693500412
:10541E007900800279017F04020B8674F1120B2051
:10542E00900C3BE06466605D1253A1E97057900DDD
:10543E00641209B2E8494A4B704190091DC082C0FE
:10544E0083900DB2E0F521A3E0F522E4F523F524D7
:10545E00901253782512096C782179251206B6D050
:10546E0083D08278211208797821120BC67A647B58
:10547E000D12979A7404120AC880507A647B0D122A
:10548E0053E4E97046900D3AE0F521603790091D1E
:10549E00C082C083E4F522F523F52490139E78256F
:1054AE0012096C782179251206B6D083D082782124
:1054BE001208797821120BC67A6C7B0D12979A74AA
:1054CE0004120AC87A647B0D1297EE7F08020B86CF
:1054DE00C082C08312514290097DE0540260077968
:1054EE00821299798003125429D083D0822274F1CA
:1054FE00120B2074A0120AB27408120AFEE4F0A372
:10550E00F0A3F0A3F0853182853283F0A3F0A3F0EF
:10551E00A3F0752103F5227821120BCA90081DE025
:10552E00F8A3E0F5838882E075F003A4F8A9F0747F
:10553E008B28FC742739FD740A120AFEAA82AB83EB
:10554E00127C8D7402120AC81209B27404120AFE79
:10555E001209BE75213C7821120BCA7C4B7D287432
:10556E0026120B10127C8D7402120AC8791874243C
:10557E00120B10126BAAE9700302568479001250B6
:10558E00468A218B228C238D24900D80782512093A
:10559E005DE52554807005900CDC8003900CE0785E
:1055AE00211208CA9011DF782112062A400C7521AB
:1055BE0000752200752300752400752518752600C8
:1055CE007825120BCA7426120B18740E120B1012B9
:1055DE006A2B7402120AC87A0080010A8A82AE828D
:1055EE00EAC3940650418E25752600740278251262
:1055FE000A9F740C120AFEE5822525FCE5833526EA
:10560E00FD8C828D83782512095D7825792112060D
:10561E00544014EA60C5EC24FCF582ED34FFF583AA
:10562E00782512066440B4EAF97A437B0D1297CAC4
:10563E007521037522007821120BCAEE75F003A4B2
:10564E00FEAFF074632EFC74283FFD7402120B1033
:10565E00127C8D7402120AC88531828532837821BC
:10566E0012095D7408120AFE78211208A3900980AF
:10567E00E04440F08010900980E054BFF079007A49
:10568E00437B0D1297CA790CAC31AD327A447B0D47
:10569E00126C0E7460120AC87F08020B8674F11227
:1056AE000B2074FC120AB290097EE0F521A3E0F5FE
:1056BE002274067821120A90E5215407FE125142F7
:1056CE0090097EE0F521A3E0F52274067821120AF6
:1056DE0090E5215407F8C394045003025790900D9F
:1056EE00801209B28531828532831209BE853182DC
:1056FE00853283782112095DE522541070319008AD
:10570E001DE0F8A3E0C82410F582E438F583782173
:10571E0012095D9011CF782512096C782179251226
:10572E000736E52545264527452860030257CB85D4
:10573E003182853283782112095D9013A27821126D
:10574E000946AA21AB22AC23AD241299D9900D8023
:10575E00782112095D90121E7821120909E5214562
:10576E0022452345247056900B6174FFF0A3F0A3DD
:10577E00F0A3F012983312542990097DE054FDF0F5
:10578E00803BEE686037E8C394024031900D80781C
:10579E002112095D9013A67821120909E5214522EF
:1057AE00452345247012900B6174FFF0A3F0A3F013
:1057BE00A3F012983312542979011299799009CCD9
:1057CE00E054406018900D80782112095DE5215457
:1057DE0040700A79061299797909129A6274041244
:1057EE000AC87F08020B8674F5120B207A5A7B13B7
:1057FE001294267ADD7B03128CFA79027ADD7B0312
:10580E001270A29003E9782112095D900CDC7821C8
:10581E001208CA90041D782112097F79037A1D7B24
:10582E00041270A29003E9120BDB7ADC7B0C129748
:10583E009A7404120AC87F04020B8674F7120B20A6
:10584E0074F7120AB28531828532837401F07404C2
:10585E00120AFEE4F0FE80010EEEC394045056755B
:10586E0021037522007821120BCAEE75F003A4F8FD
:10587E00A9F0747828FC742839FD7403120AFEAA64
:10588E0082AB83127C8D7402120AC87C017D00AA41
:10589E0031AB32122F68EAF8EBF9ECFAEDFB740536
:1058AE00120AFE1209BE7405120B1012956FE970E2
:1058BE00A77900800279017409120AC87F02020BCF
:1058CE008674F5120B2074F4120AB2AA31AB32129E
:1058DE008CFA79001250467404120AFE12099A12BA
:1058EE005849E9900D807821605612095DE52154E2
:1058FE008070030259C67404120AFE1209B27408AB
:10590E00120AFE1209BE900CE0782112095D740491
:10591E00120AFE78211208E27904AA31AB32127013
:10592E00A279871299791257F585318285328312C1
:10593E000BDB7AE87B0C12979A7404120AC8806407
:10594E0012095DE5215480702890097DE04480F0B5
:10595E0079071299791257F5853182853283120BA8
:10596E00DB7AE87B0C12979A7404120AC8740480CE
:10597E0035900980E05404603F7404120AFE120947
:10598E00B27408120AFE1209BE900CE078211209B8
:10599E005D7404120AFE78211208E27904AA31AB72
:1059AE00321270A27408120AFE120BDB7AE07B0C24
:1059BE0012979A7404120AC8900980E054FBF0748E
:1059CE000C120AC87F04020B86C082C083E9F890CD
:1059DE000E1CE0F9C3940540047A048002E9FAE84B
:1059EE006005EAC39850047900800474FF28F9D04A
:1059FE0083D0822274F5120B209009CFE0FAA3E037
:105A0E00FB900D80782112095D9013AA782112095E
:105A1E0009E5214522452345246005EA44208003FB
:105A2E00EA54DFF8EBF99009CFE8F0A3E9F090091A
:105A3E00CFE0FAA3E0FB900D80782112095D901261
:105A4E001A7821120909E5214522452345246005CE
:105A5E00EA44018003EA54FEF8EBF99009CFE8F02E
:105A6E00A3E9F07F04020B8674F3120B207442122A
:105A7E000AB275256C75260C7AB87B09128CFA7EE3
:105A8E0000025B5875210C7522007821120BCA7C1E
:105A9E00787D287418120B10127C8D7402120AC8AD
:105AAE007821120BCA7CB47D28740C120B10127C58
:105ABE008D7402120AC87821120BCA740C120B18BC
:105ACE007418120B10126B3A7402120AC8EA4B4C7D
:105ADE004D600A900980E04404F01258CF782112EC
:105AEE000BCA7C787D28740C120B10127E4974023E
:105AFE00120AC875213C7821120BCA7C877D287446
:105B0E0084120B10127C8D7402120AC87821120BAB
:105B1E00CA7C4B7D287484120B10127E49740212BB
:105B2E000AC874122EF912997974036E7003125802
:105B3E00CFAA25AB261297EE74052EF912984EE5D4
:105B4E00252404F525500205260EEEC394044003C9
:105B5E00025C03852582852683782112095DE52165
:105B6E0045224523452460D790091D7821120664ED
:105B7E0040CDEEC39402504074122EF9900D8075F4
:105B8E002100752200752304752400EE7821120879
:105B9E004778211208F6E521452245234524600465
:105BAE00748049F912997990097CE05402608290D0
:105BBE00098F7408F0025B3F74026E6003025A9202
:105BCE007521607522007821120BCA7CEB7D27743B
:105BDE0024120B10127C8D7402120AC87821120B3B
:105BEE00CA7C8B7D277424120B10127E497402120C
:105BFE000AC8025B3F125A02900E1CE07011790027
:105C0E007A397B0D1297CA79011259D70260157C29
:105C1E000B7D007A007B00122F68853182853283DE
:105C2E00EAF0A3EBF0900D38E0FF853182853283E8
:105C3E00E0F8A3E0F99009AEE0687003A3E06970A4
:105C4E000B90097AE054087003025D32853182852B
:105C5E003283E0F8A3E0F99009AEE8F0A3E9F09002
:105C6E000993E4F0FE80010E900E1DE0F8EEC3984D
:105C7E0050647521037522007821120BCAEE75F05F
:105C8E0003A4F8A9F074C328FC742839FD74091212
:105C9E000B10127C8D7402120AC875210278211223
:105CAE000BCA7402120B187409120B10126B3A7491
:105CBE0002120AC8EA4B4C4D70AD7409120AFEE08E
:105CCE00FA900E1AE0C39A95E0400BEA600890092C
:105CDE00937401F0EAFF900993E070489011DF127F
:105CEE000C0C7C0F7D007406120B101232357404EE
:105CFE00120AC87521017522007405120AFEE07899
:105D0E0021120A9F900E20E055217018A3E0FA9000
:105D1E000E1AE0C39A95E0400BEA6008900993745E
:105D2E0001F0EAFF9011DF120C0C7C0B7D00740663
:105D3E00120B101232357404120AC8900D8078219D
:105D4E0012095D9013AA7821120909E52145224511
:105D5E0023452475211C75220078216007120BCA79
:105D6E007CAF8005120BCA7C937D257A2D7B0612A3
:105D7E007C8D7402120AC8900993E06003025E7B68
:105D8E007403120AFEE0F9129551E9F521740578B3
:105D9E0021120A9F7404120AFEE0F9129551E521B0
:105DAE0029F8E43522F9853182853283E8F0A3E9BA
:105DBE00F07E008012853182853283C3E09AA3E0A3
:105DCE009B4003025E600E8E82AA82EA2AF8E433BA
:105DDE00F9742928F8740639F9E8FCE9FDEC240475
:105DEE00F8E43DF988238924900E19E024FFF8E4A5
:105DFE0034FFF9C3EA98E499A2D265D03350648592
:105E0E002382852483E0F521A3E0F5227404782112
:105E1E00120A90AA21AB228C828D83A3A3A3A3A3E3
:105E2E00A3E0F521A3E0F52274047821120A90A8CC
:105E3E0021A922C3EA98EB995003025DC3C3E89AE5
:105E4E00E99B5082853182853283C3E09AA3E09B21
:105E5E005011853182853283C3E098A3E0994003C7
:105E6E00025DD4852382852483E0540FFF900E1AA1
:105E7E00E0C39F4003EF70027F01EFF97A387B0D8C
:105E8E001297CAEF75F01CA4FAABF0900D80782132
:105E9E0012095D90121A7821120909E52145224551
:105EAE0023452475211C7522007821600B120BCA24
:105EBE0074AB2AF874268009120BCA74CB2AF874B4
:105ECE00253BF9E824E4FCE934FFFD7A2D7B06122C
:105EDE007C8D7402120AC87405120AFEE0F912953E
:105EEE0051E975F03CA4FEAFF07406120AFEE0F91B
:105EFE00129551EE29F8E43FF9853182853283E817
:105F0E00F0A3E9F07FFF7E00802485318285328305
:105F1E00C3E09AA3E09B500E853182853283C3E0A5
:105F2E0098A3E099500774FF6F7002EEFF0E8E82F9
:105F3E00A882900E1BE024FFFAE434FFFBC3E89A1C
:105F4E00E49BA2D265D0335071E828F8E433F9749B
:105F5E002928F8740639F9E8FCE9FD8C828D83A3B3
:105F6E00A3A3A3E0F521A3E0F52274057821120A7C
:105F7E0090AA21AB228C828D83A3A3A3A3A3A3E01B
:105F8E00FCA3E0FD8C218D2274057821120A90A8C5
:105F9E0021A922EC541F6022C3EA98EB9950118577
:105FAE003182853283C3E09AA3E09B4080025F2654
:105FBE00C3E89AE99B5003025F1874012EF97A39EF
:105FCE007B0D1297CA74FF6F7002EEFFEF25E0F89B
:105FDE00E433F9742928F582740639F583A3A3A353
:105FEE00A3E0541FF91259D7E9FEEFC454F04EFF47
:105FFE00900990E06F6010EFF090097CE054026021
:10600E000690098F7408F074BE120AC87F06020B40
:10601E0086C082C083125A7690081DE0F8A3E0F580
:10602E00838882E0696003126DF0900C39E06401A0
:10603E0060031254FC90097AE054F7F0D083D082BA
:10604E0022C082C0839011DB120C0C12979A74043A
:10605E00120AC8D083D0822274F5120B2074FE125D
:10606E000AB279067C827D027A547B02121FEE7987
:10607E00027CF07D027A5A7B02121FEE79027C7E40
:10608E007D027A5C7B02121FEE790A7A547B021231
:10609E001F75853182853283EAF0A3EBF07902AC6D
:1060AE0031AD327A5E7B02121FEE75210C75220025
:1060BE007821120BCA7521547522027821120BCA4F
:1060CE009013AE782112096CAA21AB22AC23AD2419
:1060DE001220557404120AC87402120AC87F0402F0
