:020000040000FA
:0600000002006602362C2E
:03000B0002363486
:030013000236555D
:03001B0002365D4D
:03002B0002366535
:03003B000236DEAC
:0300430002370879
:03004B000237B9C0
:03005300023872FE
:03005B000238B3B5
:100063000238BB75D00075819F75310175320275F9
:10007300A0010238C3F5F0E5A0C394015403C0E026
:10008300E5A0C3940154FC45F0C32401F5A0E47337
:10009300D0E0F5F0E5A0C3940154FC45F0C324017E
:1000A300F5A022D083D082E5A0C394015403C0E01D
:1000B300E493C0E0740193C0E07402935403F5F039
:1000C300E5A0C3940154FC45F02401F5A022E47992
:1000D300337810B800028004F709D8FCE4900201D9
:0C00E300782379098002F0A3D8FCD9FA38
:1001000000002110422063308440A550C660E77093
:10011000088129914AA16BB18CC1ADD1CEE1EFF13B
:100120003112100273325222B5529442F772D662E3
:10013000399318837BB35AA3BDD39CC3FFF3DEE38B
:100140006224433420040114E664C774A444855433
:100150006AA54BB528850995EEE5CFF5ACC58DD5DB
:100160005336722611163006D776F6669556B44683
:100170005BB77AA719973887DFF7FEE79DD7BCC72B
:10018000C448E5588668A7784008611802282338D3
:10019000CCC9EDD98EE9AFF9488969990AA92BB97B
:1001A000F55AD44AB77A966A711A500A333A122A23
:1001B000FDDBDCCBBFFB9EEB799B588B3BBB1AABCB
:1001C000A66C877CE44CC55C222C033C600C411C73
:1001D000AEED8FFDECCDCDDD2AAD0BBD688D499D1B
:1001E000977EB66ED55EF44E133E322E511E700EC3
:1001F0009FFFBEEFDDDFFCCF1BBF3AAF599F788F6B
:100200008891A981CAB1EBA10CD12DC14EF16FE14A
:100210008010A100C230E320045025404670676082
:10022000B9839893FBA3DAB33DC31CD37FE35EF39A
:10023000B1029012F322D2323542145277625672D2
:10024000EAB5CBA5A89589856EF54FE52CD50DC5EA
:10025000E234C324A0148104667447642454054422
:10026000DBA7FAB79987B8975FE77EF71DC73CD73A
:10027000D326F2369106B016576676761546345672
:100280004CD96DC90EF92FE9C899E9898AB9ABA98A
:100290004458654806782768C018E1088238A328C2
:1002A0007DCB5CDB3FEB1EFBF98BD89BBBAB9ABBDA
:1002B000754A545A376A167AF10AD01AB32A923A12
:1002C0002EFD0FED6CDD4DCDAABD8BADE89DC98D2A
:1002D000267C076C645C454CA23C832CE01CC10C62
:1002E0001FEF3EFF5DCF7CDF9BAFBABFD98FF89F7A
:1002F000176E367E554E745E932EB23ED10EF01EB2
:1003000000010203040506070809AAAAAAAAAAAAC4
:100310000A0B0C0D0E0F10111213AAAAAAAAAAAA50
:100320001415161718191A1B1C1DAAAAAAAAAAAADC
:100330001E1F2021222324252627AAAAAAAAAAAA68
:1003400028292A2B2C2D2E2F3031AAAAAAAAAAAAF4
:1003500032333435363738393A3BAAAAAAAAAAAA80
:100360003C3D3E3F404142434445AAAAAAAAAAAA0C
:10037000464748494A4B4C4D4E4FAAAAAAAAAAAA98
:1003800050515253545556575859AAAAAAAAAAAA24
:0A0390005A5B5C5D5E5F60616263B2
:10039C0000010203040506070809101112131415B5
:1003AC001617181920212223242526272829303115
:1003BC003233343536373839404142434445464769
:1003CC0048495051525354555657585960616263BD
:1003DC00646566676869707172737475767778791D
:1003EC008081828384858687888990919293949565
:1003FC0096979899FFFFFFFFFFFFFFFFFFFFFFFF9F
:10040C00FFFFFFFFFFFFFFFFFFFFFFFFFFFFFFFFF0
:10041C00FFFFFFFFFFFFFFFFFFFFFFFFFFFFFFFFE0
:10042C00FFFFFFFFFFFFFFFFFFFFFFFFFFFFFFFFD0
:10043C00FFFFFFFFFFFFFFFFFFFFFFFFFFFFFFFFC0
:1007FC00FFFFFFFF1111111111110100000000008A
:10080C0000000000000000000000000000000000DC
:10081C0000000000000000000000000000000000CC
:10082C00000056303232000000004135000000411B
:10083C00303600302E3200000000000000000000B6
:10084C00000000000000000000000000000000009C
:10085C0000000000000034312D373030322D35349B
:10086C0036542F4C44000000000000050408F00032
:10087C0080000000000000000000000000000000EC
:10088C00A005030000003000008383830383000075
:10089C00000000000000000000000000000000004C
:1008AC00000000000000000000000000000000003C
:1008BC00000000005634120000007856340000008E
:1008CC0000000000000000000000019999999905B2
:1008DC000502040E1A3C1E00000505143C0502001E
:1008EC00000101103C00129999000000000000006A
:1008FC00001868D904004001050080200500448ED2
:10090C00050068BA0500B004F0558813B8EDA52CA5
:10091C000088130000000000000000000000000030
:10092C0000000000000000000000000000000000BB
:10093C0000000100000001000000010000000100A7
:10094C0000000300001823051203020208047F01B3
:10095C003000000000000000000000000000033325
:10096C000000005000000000000200000000000029
:10097C00000055A00514AAAAAAAAAAAAAAAA00000D
:10098C00000030003CA0051E000400000000020026
:10099C001E0F0F000F000F000F00000001010001DF
:1009AC000101020106020106020106020106020112
:1009BC0006020106020106020106020106020106F8
:1009CC0002010602010602010601000002000303F7
:1009DC0000060400090100120200150300180400AF
:1009EC002104002104002104002104002104002121
:1009FC0004002101010102010602010602010602A6
:100A0C0001060201060201060201060201060201AC
:100A1C00060201060201060201060201060100009F
:100A2C000200030300060400090100120200150372
:100A3C0000180400210400210400210400210400FA
:100A4C00210400210400210000000000000000002F
:100A5C00000000000000000000000000000000008A
:100A6C00000000000000000000000000000000007A
:100A7C00000000000000000000000000000000006A
:100A8C000000000000000000000000000001000059
:100A9C000000020000000003000000000400000041
:100AAC00010100040002010004000000000000002D
:100ABC00000000000000000000000000000000002A
:100ACC00000000000000000000000000000000001A
:100ADC00000000000000000000000000000000000A
:100AEC0000000000000000000000000000000000FA
:100AFC0000010000000002000000000300000000E4
:100B0C0004000000010000000001010000000102CF
:100B1C0000000001030000000104000000010400BB
:100B2C00040101040004000101000400020100049E
:100B3C0000020000000002010000000202000000A0
:100B4C00020300000002040000000E040004010E69
:100B5C00040004000204000401020400040000016B
:100B6C0001020000010202000100800200000003EB
:100B7C00020000000602000000000000000000005F
:100B8C000000000000000000000000000000000059
:100B9C000000000000000000000000000000000049
:100BAC000000000000000000000000000000000039
:080BBC00000000000000000031
:060C000002000103100ECA
:100D0000E503E803EC03EF03D903DC03E003E303AB
:100D1000D303D603D903DC03C603C903CC03CF0333
:100D20001004130416041904030407040A040D0430
:100D3000FA03FD0300040304ED03F103F403F703D6
:0A0E000044313035564730395200B6
:100E0D00011200A66FAA011200A691AA011200A656
:100E1D00A5AA011200A6BFAA011200A620AB0112BD
:100E2D0000A6E7AB011200A611AD011200A6B1ADEF
:100E3D00011200A6F3AD011200A610AE011200A61C
:100E4D0031AE011200A670AE011200A6A7AE0112BE
:100E5D0000A604AF011200A64CAF011200A686AF8A
:100E6D00011200A602B0011200A62AB0011200A6BE
:100E7D005DB0011200A690B0011200A6C3B0011220
:100E8D0000A6F5B0011200A616B1011200A62FB2F0
:100E9D00011200A64DB4011200A6577B001200A648
:100EAD00717B001200A6997C001200A69B7D00129A
:100EBD0000A6B97D001200A6D77D001200A6247EE3
:100ECD00001200A6A57E001200A6D57E001200A677
:100EDD000B7F001200A6317F001200A637D201123F
:100EED0000A66ED4011200A608D5011200A6577FE8
:100EFD00001200A68B7F001200A649E8011200A681
:100F0D00A8E8011200A6C2E8011200A633E90112F9
:100F1D0000A60080001200A64B80001200A60A81D8
:100F2D00001200A68084001200A6DA85001200A629
:100F3D00648B001200A6E08C001200A6478E0012F2
:100F4D0000A6028F001200A6AB8F001200A6FF9024
:100F5D00001200A67792001200A69593001200A62B
:100F6D00E295001200A6D496001200A66897001212
:100F7D0000A6FF99001200A61D9C001200A6A59FB9
:100F8D00001200A6DBA2001200A67FA6001200A68A
:100F9D00A9AC001200A6F0AD001200A6DDAE001245
:100FAD0000A6C2AF001200A6DCB0001200A6E1B090
:100FBD00001200A65AB3001200A6DCB8001200A65B
:100FCD003ABA001200A656BC001200A63CBD001293
:100FDD0000A69BC0001200A645C2001200A6C7C203
:100FED00001200A617C4001200A6E4C6001200A647
:100FFD0074C9001200A6CAC9001200A654EF00124F
:10100D0000A679EF001200A698EF001200A6F4F1E9
:10101D00001200A64CF4001200A6DFF4001200A688
:10102D0024F5001200A63BF6001200A69EF6001253
:10103D0000A61856001200A67556001200A6AB5653
:10104D00001200A62E57001200A64E57001200A641
:10105D00B757001200A67D59001200A66B5C001256
:10106D0000A6795C001200A69D5C001200A68F5DA3
:10107D00001200A61D5F001200A65760001200A608
:10108D006960001200A64F63001200A66066001290
:10109D0000A65B69001200A6466B001200A67C6BD1
:1010AD00001200A6B16B001200A6756C001200A60E
:1010BD000080011200A6D880011200A60A8101123B
:1010CD0000A68281011200A6AF81011200A61C822A
:1010DD00011200A6C082011200A67883011200A69B
:1010ED00DE83011200A60B84011200A6EA84011210
:1010FD0000A68387011200A62788011200A69288F8
:10110D00011200A6DA89011200A6118B011200A6A8
:10111D004ECE001200A6E8CE001200A63ECF001261
:10112D0000A656CF001200A649D2001200A6B7D2D3
:10113D00001200A6D1D2001200A600D3001200A604
:10114D0014D3001200A63DD3001200A615D4001230
:10115D0000A6FED8001200A60FDB001200A6F6DBDB
:10116D00001200A6EFDC001200A68BDE001200A616
:10117D00F0DE001200A6D9DF001200A67BE00012FF
:10118D0000A63FE1001200A63DE2001200A672E2A9
:10119D00001200A6428B011200A6F68E011200A6C7
:1011AD007C8F011200A62290011200A60E91011251
:1011BD0000A68591011200A64992011200A6BF93C7
:1011CD00011200A6DD93011200A6FB93011200A6E9
:1011DD00EB94011200A627DF011200A67BDF01129E
:1011ED0000A609E1011200A692D5011200A6ECD5C8
:1011FD00011200A6F9D6011200A661D7011200A6B0
:10120D001DD8011200A690D8011200A6B7D8011260
:10121D0000A6D0D8011200A6E9D8011200A6FBD86D
:10122D00011200A6A5FB001200A6D6FC001200A616
:10123D00E4FD001200A613FF001200A6DB950112BB
:10124D0000A61196011200A63A96011200A6D1969B
:10125D00011200A6CC97011200A60698011200A655
:10126D00B19C011200A6BB9D011200A6B59F0112F3
:10127D0000A6C99F011200A68A39001200A6D9390D
:10128D00001200A6873C001200A6BA3E001200A66E
:10129D002943001200A69143001200A6D743001265
:1012AD0000A66C47001200A66548001200A6D5489E
:1012BD00001200A6424A001200A6E34F001200A63B
:1012CD009952001200A68A55001200A654A00112D0
:1012DD0000A6BAA1011200A6D0A1011200A6E2A19A
:1012ED00011200A6E5A1011200A6F3A1011200A6AC
:1012FD000CA2011200A63CA2011200A66AA20112C4
:10130D0000A6D9A2011200A64BA3011200A688A324
:10131D00011200A6A6A4011200A61BA5011200A68B
:10132D00DCA5011200A64FA6011200A65BA60112B4
:10133D0000A677A6011200A6E0A6011200A6F7A648
:10134D00011200A664A7011200A65EA8011200A654
:10135D00A3A8011200A6F3A8011200A679A90112F3
:10136D0000A6CFA9011200A663BD011200A68ABE78
:10137D00011200A6B0BF011200A680C0011200A686
:10138D0021C1011200A6C6C1011200A698C2011208
:10139D0000A676C3011200A62FC4011200A659E3C0
:1013AD00011200A68CE3011200A6E0E4011200A6D2
:1013BD00FEE2001200A6FCE3001200A674E4001287
:1013CD0000A6EDE4001200A610E5001200A6C0E78D
:1013DD00001200A67EE8001200A645EA001200A643
:1013ED00FAEB001200A614EF001200A634EF001263
:1013FD0000A6C76C001200A6826E001200A64E6FEA
:10140D00001200A6EC75001200A6C67A001200A606
:10141D00CBCC011200A6B0CD011200A6CECD01128B
:10142D0000A6D0CE011200A68DCF011200A602D0CB
:10143D00011200A6C0D0011200A6B6D1011200A65D
:10144D0099C5011200A6C7C6011200A62EC701122A
:10145D0000A66BC8011200A680B4011200A6EAB561
:10146D00011200A678B6011200A6F7B6011200A669
:10147D003EB7011200A684B7011200A6BCB7011237
:10148D0000A64DB8011200A618B9011200A66CB93C
:10149D00011200A642BA011200A63BBB011200A622
:1014AD0062BB011200A68BBB011200A6DFBB0112AD
:1014BD0000A6F3BB011200A6E0BC011200A62EE5AA
:1014CD00011200A673E5011200A6A2E5011200A605
:1014DD0057E6011200A6ECDC011200A65EDD01123A
:1014ED0000A67ADD011200A6B1DE011200A653E1BD
:1014FD00011200A6CEE1011200A602E2011200A621
:10150D00C9E2011200A697DA011200A6F7DB01125B
:10151D0000A673DC011200A695FF001200A6BDE621
:10152D0001A2E792D65002F40430F70663F0FF05EE
:10153D00F0B3400384800384F40430D60563F0FFD8
:10154D0005F022E76670100809E766700A0809E7DA
:10155D006670040809E76622E066701008A3E0666D
:10156D00700A08A3E066700408A3E06622E493669F
:10157D0070130874019366700C08740293667005FD
:10158D00087403936622C021C3E49396F521087471
:10159D000193964221087402939642210874039395
:1015AD00964221A2D265D033E5217001D3D02122FC
:1015BD00C3E7960809E7960809E7960809E7962212
:1015CD00C3E09608A3E09608A3E09608A3E0962250
:1015DD00C021C3E096F52108A3E096422108A3E0BF
:1015ED0096422108A3E09645217001D3D02122C057
:1015FD0021C3E49396F52108740193964221087452
:10160D000293964221087403939645217001D3D01D
:10161D002122080808E630E711121F41121637087B
:10162D000808C64480C618181822181818E9799E9B
:10163D00C608CAC608CBC608CCC6C370207996CAE0
:10164D00CBCC7019798ECBCC70137986CC700EF90A
:10165D00802ACA33CACB33CBCC33CC331930E7F223
:10166D00CCCBCA3350147004EA30E00DE4CA3ACA48
:10167D00CB3BCBCC3CCC500209C3E913C6CC1823D1
:10168D0013C6CB18C6CA18C6F9221216D720F014E5
:10169D0030E72B74FFFCFBFA747F8022E4FCFBFA2D
:1016AD007480801AB48008BC00F2BB00EF800F502C
:1016BD00EBF9E4C39AFAE49BFBE49CFCE499C6CCF9
:1016CD0018C6CB18C6CA18C6F922E4C9C608CAC6B8
:1016DD0008CBC6D3330308CCC63392F0C3947F40F6
:1016ED002E94184019C9B90704CACBCC225025C372
:1016FD0009CA33CACB33CBCC33CC33D9F422F46003
:10170D000DC9CCC313CB13CBCA13CAD9F6CC22E463
:10171D00FCFBFA2214FCFBFA22E6261846184618A2
:10172D004622E72719471947194722181818E608BE
:10173D0046087009E626087005E633F422082219DA
:10174D001919E70947097009E727097005E733F407
:10175D00220922E6084608C3134608336002E63321
:10176D00F422E7094709C3134709336002E733F44D
:10177D0022121760602512176F6020121726700352
:10178D0002172F080808E76670101819E766700A27
:10179D001819E76670041819E76622F4221217600B
:1017AD00601C12176F6017121726700712172F7013
:1017BD0001D322C0D012172F7006D0D0B322C3226E
:1017CD0033D0D0501430E0F6C3E7960809E79608F9
:1017DD0009E7960809E796B32220E0D5E6970809B0
:1017ED00E6970809E6970809E697B3221217606095
:1017FD001B12176F6016121726700712172F600C29
:10180D00B322C0D012172F7005D0D022C32233D0EF
:10181D00D0501330E0EBC3E7960809E7960809E7C7
:10182D00960809E7962220E0E4E6970809E697086E
:10183D0009E6970809E6972200121760604F121704
:10184D006F6012E7548066F6121738701112172F59
:10185D00703B090909F4F618F618F618F622121756
:10186D004C701512172608080860EAE6447FF61832
:10187D00768018E4F618F622121726601612172F26
:10188D007012E4F608F608F608E65480F609090920
:10189D0018181822EAC0E0EBC0E0ECC0E0EDC0E0A3
:1018AD00E687F0A4FBACF008E687F0A42CFCE43549
:1018BD00F0FA1809E687F0A42C4B60027401CA35C2
:1018CD00F0FCE433FB09E687F0D2F7A42CCB35F01E
:1018DD00FC1908E687F0A42BCC35F0FBE433FD08AA
:1018ED0019E687F0D2E7A42C4ACB35F0CD3400FCB5
:1018FD0009E687F0D2E7A42DCC35F0FDE433FA09E3
:10190D0018E687F0D2F7A42CCD35F0CA3400FC08C8
:10191D00E687F0D2E7D2F7A42ACC35F07A7E20E71D
:10192D000B0ACB33CBCD33CDCC33CC33CB3350149F
:10193D007004ED30E00ED2F1E4CD3DCDCC3CCC3B8E
:10194D005005DA05C2F1EB547FC63308E63392F049
:10195D00FBE73309E733C39A502D2B70190C0D4C4F
:10196D004D70151806E608C333700D20F10AA2F06C
:10197D0013F6E418800B4024E4F630F0027680185C
:10198D00F618F618F68024D33B14501074FFA2F00D
:10199D0013F6187680E418F618F6800FA2F013F6F9
:1019AD0018E63303F618ECF618EDF6D0E0FDD0E0AE
:1019BD00FCD0E0FBD0E0FA2212176F6046121760E0
:1019CD00603DE9687008F618F618F618F62274806E
:1019DD0067F71219F9090909748067F72212176060
:1019ED00601D12176F7005191919801A12173870AA
:1019FD001F12174CC37003E66733191919400718E6
:101A0D0018182208080874FFF618F618F618F622AA
:101A1D0012174C601712172F702192F012172670A3
:101A2D0019501720F014080808090909E7F61819C4
:101A3D00E7F61819E7F61819E7F62212172660E6E9
:101A4D00E869701F0808E62480F608E436F6185495
:101A5D007FB47F0CE654806007F6E418F618F62282
:101A6D00181822E9C6CC08C6CD08C6CE08C6CFC008
:101A7D00E0E8C0E0EAC0E0EBC0E009E9F809E7FA08
:101A8D0009E7FBE6F918E6F8C3EC98ED99EE9AEB49
:101A9D00C2E7F5F0EFC2E795F0500E600CEBCFFB0F
:101AAD00EACEFAE9CDF9E8CCF8EAA2E7D2E7FAEB0B
:101ABD0033FB13F5F0EEA2E7D2E7FEEF33FFC5F0EF
:101ACD0013A2E730E601B313C5F0C3C0E0C0F07F49
:101ADD0000C39BFB605E9418600F401D14601AD00C
:101AED00E023F9D0E0F8021BCB8AF0E9486003D27D
:101AFD00F0E4AFF0FAF9F8803BEB30E40D89F0EA51
:101B0D006003D2F0E4AFF0F9CAF8EB30E30D88F0E2
:101B1D00EF6002D2F0AFF0E4CAC9F8EB54076014DD
:101B2D00FBC3EA13FAE913F9E813F8EF135002D2E5
:101B3D00E0FFDBEDD0E0C0E030E739C3E49FFFF517
:101B4D00F0EC98FC42F0ED99FD42F0EE9AFE42F079
:101B5D00D0E0F9D0E0F8E5F0607AE923F9EE20E77E
:101B6D0042D8028067C3EF33FFEC33FCED33FDEE5B
:101B7D0033FE80EAEC28FCED39FDEE3AFED0E02391
:101B8D00F9D0E0F84002801BC3EE13FEED13FDEC1F
:101B9D0013FCEF135002D2E0FF08B800067F7F74EC
:101BAD00FF802EEF3350178CF020F00260100CBC2C
:101BBD00000C0DBD00080EBE000408E860DFE9331F
:101BCD00E813FFEE2313FE4F4D4C8008E95480FFC0
:101BDD00E4FEFDFCEE33EF33F47004FCFD7E80D0AB
:101BED00E0FBD0E0FAD0E0F8D0E0CFC618CEC618B2
:101BFD00CDC618CCC6F92212176070041818182219
:101C0D0012176F700D74FFF61819F61819F61819CA
:101C1D00F622E7548066F6121726700F12172F70F2
:101C2D00F014F608F608F608F680D112172F700C8E
:101C3D00F608F608768008E6447F80EC12174F70A0
:101C4D000C12173B60BFE65480F6E480BB12173BC5
:101C5D00700519191980A5E869700C763F18768002
:101C6D0018F618F6E8F922E6CDC0E018ECC0E0E66B
:101C7D0033CD33CDD313F6E719FCE7191933CC3334
:101C8D00C3947F400ECD9D502408E65480F6E41891
:101C9D00F6800FF4043D14501408E6447FF61876D0
:101CAD0080E418F618F6D0E0FCD0E0FD22CCD3137A
:101CBD00CCFD18E4C6CBC0E018E4C6CAC0E00808E5
:101CCD00ED08C633E613F618E433C675F003C3CA40
:101CDD0097CA09CB97CB199C40047D08802EBD0077
:101CED0003021DAD16B6FF050606081618C3CA3346
:101CFD00CACB33CB33CA27CA09CB37CB193CC37DEB
:101D0D0008803E187D0820E75CC633C6CA33CACBAF
:101D1D0033CB33DDF1D5F0EB30E77BCA97CA09CB76
:101D2D00974ACB199C406F4B7025E620E0218066C9
:101D3D00187D08C3CA97CA09CB97CB199CD3C63354
:101D4D00C6CA33CACB33CB3350C9DDE7D5F0E1D3A7
:101D5D00E4C636C608C636C608C636C608C636C672
:101D6D001818188031C3CA97CA09CB97CB199CB3E1
:101D7D004097C633C6CA33CACB33CB33DD34D5F027
:101D8D002EC6A2E0C640C8CA27CA09CB37194A7069
:101D9D00BECB3CB480B90808E63308E633601F18A3
:101DAD001818D0E0FAD0E0FBD0E0FCD0E0FD22180E
:101DBD007D08CA27CA09CB37CB193CD3808013F6CF
:101DCD0018E4B67F11F618B6FF0EF618C60470D2D9
:101DDD000808768080CAF618F618F680C508080837
:101DED00EAC0E0EBC0E086F0E7A4FA180986F0E758
:101DFD00A42AFA180986F0E7A42AFA180986F0E74A
:101E0D00A42AFA1986F0E7A4FBE5F02AFA19088648
:101E1D00F0E7A42BFBE5F03AFA190886F0E7A42BBE
:101E2D00FBE5F03AFA18180986F0E7A4C5F02BFB8C
:101E3D00E43AFA1908E7C5F0C6A426F6E5F03BFB2F
:101E4D00E43AFA1886F0E7A4F6E5F00826F6E43B46
:101E5D0008F6E43A08F6D0E0FBD0E0FA22E4CFC071
:101E6D00E0E4CEC0E0E4CDC0E0E4CCC0E075F0200D
:101E7D00E626F608E633F608E633F608E633F618F6
:101E8D001818EC33FCED33FDEE33FEEF33FFC3ECEE
:101E9D009709ED9709EE9709EF97191919400FFF5B
:101EAD00EC97FC09ED97FD09EE97FE191906D5F093
:101EBD00BFECF709EDF709EEF709EFF7191919D08E
:101ECD00E0FCD0E0FDD0E0FED0E0FF22121F441870
:101EDD001818121E6A121F3019191922121F3019E3
:101EED001919080808E618181820E7E0121E6A12DA
:101EFD001F4418181822090909E719191920E7DCD8
:101F0D00080808E618181820E703021E6A121F4475
:101F1D00181818121E6A121F44181818121F30199B
:101F2D00191922E4C397F709E497F709E497F7091C
:101F3D00E497F722181818E4C396F608E496F60805
:101F4D00E496F608E496F622C6F4C608C6F4C6086A
:101F5D00C6F4C608C6F4C6226016080808C6C31320
:101F6D00C618C613C618C613C618C613C6D5E0EADA
:101F7D00227009080808226016181818C6C333C63F
:101F8D0008C633C608C633C608C633C6D5E0EA222E
:101F9D00E627F60809E637F60809E637F60809E6F2
:101FAD0037F622E026F608A3E036F608A3E036F66B
:101FBD0008A3E036F622E49326F60874019336F66C
:101FCD000874029336F60874039336F622E026F071
:101FDD0008A3E036F008A3E036F008A3E036F022BF
:101FED00C3E697F60809E697F60809E697F6080995
:101FFD00E697F622C3E0C696F608A3E0C696F60865
:10200D00A3E0C696F608A3E0C696F622C3E096F0C6
:10201D0008A3E096F008A3E096F008A3E096F0225E
:10202D00E49356F60874019356F60874029356F627
:10203D000874039356F622E056F008A3E056F00814
:10204D00A3E056F008A3E056F022E647F60809E6AD
:10205D0047F60809E647F60809E647F622E046F096
:10206D0008A3E046F008A3E046F008A3E046F022FE
:10207D00E066F008A3E066F008A3E066F008A3E0D0
:10208D0066F022E0F608A3E0F608A3E0F608A3E068
:10209D00F622E493F608740193F608740293F60899
:1020AD00740393F622E6F008A3E6F008A3E6F00821
:1020BD00A3E6F022E0FAA3E0FBA3E0FCA3E0FD22FF
:1020CD00EAF0A3EBF0A3ECF0A3EDF022E0F8A3E02F
:1020DD00F9A3E0FAA3E0FB22E8F0A3E9F0A3EAF00C
:1020ED00A3EBF022CAC0E0E6F0A308DAFAD0E0FADA
:1020FD0022CAC0E0E0A3C582CCC582C583CDC5830D
:10210D00F0A3C582CCC582C583CDC583DAE6D0E008
:10211D00CA22C3E498F8E499F91221608026C3E439
:10212D009AFAE49BFBE920E7E9122160E498F8E4D0
:10213D0099F922C3E498F8E499F9122160E498F82A
:10214D00E499F9C3E49AFAE49BFB22EB20E7CFE98B
:10215D0020E7E0B90010BB0008E88AF084F8AAF087
:10216D0022E4FBC8FA22EB70227B10C833C8C933B6
:10217D00C9335007C39AC3DBF280069A50012ADB9C
:10218D00EAC833F4C8C933F4C9FA2275F008E4C8B3
:10219D0033C8C933C933C99AC99B5004C92AC93B2D
:1021AD00D5F0ECFBC833F4C8E4C9FA22600D08C6BB
:1021BD00A2E713C618C613C6D5E0F322600C08C6F5
:1021CD00C313C618C613C6D5E0F422700422600DE1
:1021DD0018C6C333C608C633C6D5E0F41822253158
:1021ED0010AF08F531400C15328008F5314002155D
:1021FD0032D2AF2200C0D0253110AF08F531500CCE
:10220D0005328008F53150020532D2AFD0D02225EB
:10221D0031F58210AF08F531400C15328008F531DB
:10222D0040021532D2AF853283222531F582E43555
:10223D0032F583222531F8E43532F9222531FAE4DD
:10224D003532FB222531FCE43532FD22E473253194
:10225D00C582C0E0E53234FFC583C0E0E531C395EA
:10226D008224F810AF0885833285823180088583FA
:10227D0032858231D2AFCEF0A3E520F0A37821E6EE
:10228D0008F0A3DEFAEFF0A3E58124FAF8E608F0F2
:10229D00A3E608F0A3E608F0A30808E608F0A3E615
:1022AD0008F0A315811581D0E0FED0E0F815811559
:1022BD00811581E8C0E0EEC0E02285328385318250
:1022CD00E0A3FEE0A3F5207821E0A3F608DFFAE015
:1022DD00A3FFE0A3C0E0E0A3C0E0E0A3C0E0E0A363
:1022ED00C0E0E0A3C0E010AF088582318583328065
:1022FD0008858231858332D2AFD083D0820200939C
:10230D0074048006740280027401C0E0F404122289
:10231D001CD0E01220F1227404800474028000CCE1
:10232D00C0E0EDC0E0E531C39CCCAD3250011D10D5
:10233D00AF068C318D3280068C318D32D2AF1220AA
:10234D00FED0E0FDD0E0FC22D083D082C5F0E49336
:10235D00A3C5F0C395F0F5F0E493A3C395F0400544
:10236D00E5F0048001E475F002A42582F582E5F024
:10237D003583F583E493A3C0E0E493C0E022D083DA
:10238D00D082ECC0E0EDC0E0E493A3FCE493A3FDA8
:10239D00ED4C600D1223D7EC24FFFCED34FFFD80D6
:1023AD00EFE493A3FCE493A3FDED4C600D12241612
:1023BD00EC24FFFCED34FFFD80EFD0E0FDD0E0FC20
:1023CD00E493A3C0E0E493C0E022C0E0C3E493969D
:1023DD00087401939618400FE49366700808740111
:1023ED0093661870007019A3A3C3E4939608740143
:1023FD00939618A3A3400DD0E0D0E0D0E00223C700
:10240D00A3A3A3A3A3A3D0E022C0E0C0F088F0E46F
:10241D00936670080874019366187000A8F0A3A362
:10242D00700BD0F0D0E0D0E0D0E00223C7A3A3D052
:10243D00F0D0E022001F0AFA00E1F505640000006B
:10244D0000000200FFFF000000800000008001007E
:10245D00000001008E82C782552255A2ABA2B20F99
:10246D006A0F760F820F880F940FA00FA60FAC0F77
:10247D00B80F640FBE0FC40FCA0FD00F7C0FD60F4D
:10248D000010E20F8E0F9A0FDC0FE80FF40F0814F7
:10249D000E14000000000004040003000000000101
:1024AD000000000004040B04810F0000FF00000079
:1024BD0000340400130000000000000100000404BB
:1024CD00000300000000010001000004040B04954E
:1024DD000F0000FF00010000340400131400000081
:1024ED0000000200000404000300000000010002CF
:1024FD00000004040B04A90F0000FF0002000034CB
:10250D000400132800000000000B0000040000026E
:10251D000000000001000B0000040000020000019B
:10252D000000000C00000400000F0000000001007E
:10253D000C00000400000F000001000100FE00006F
:10254D0004040B1600000000FF00FE000034040020
:10255D001600000000000001024002000010000003
:10256D000000000101024002000010000000000008
:10257D0000020240030000100000020000010202F0
:10258D0040030000100000020000000302400300A1
:10259D0000100000050000010302400300001000C0
:1025AD0000050000000602400200001000000800B7
:1025BD00000106024002000010000008000100802A
:1025CD0002400300001000000400020080024002DF
:1025DD0000001000000700070080024002000010FC
:1025ED0000000A0008008002400200001000000BED
:1025FD00000A008002400400001000000C000000E2
:10260D0011034803000007003D00000100110308FD
:10261D000C0009090B00003D0000300348030000C9
:10262D0007003B00000100300308320009090A00D1
:10263D00003B000130034803000007C038000001D3
:10264D0001300308120009090700C03800033003E8
:10265D0048030000078039000001033003080E0015
:10266D0009090800803900043003480300000740C1
:10267D003A00000104300308100009090900403A2E
:10268D00000530034803000007C03F00000105307E
:10269D000308B200091800000000000630034803CB
:1026AD000000070042000001063003085E00091912
:1026BD0000000000000930034803000007404400FB
:1026CD000001093003080B00090913004044000CF8
:1026DD0030034803000007C0440000010C3003081C
:1026ED00100009091400C044000D30034803000018
:1026FD0007803D0000010D3003081C0009090C0086
:10270D00803D000037034803000007C03E00000174
:10271D0000370308140009090D00C03E0101000433
:10272D00800400000D800100000201000480030000
:10273D00000D840100000501000420020000058049
:10274D00000000060100048005000005CA0101001B
:10275D00070100048005000005CF0101000C0100F8
:10276D0004800700000D8001000001020004C0017B
:10277D00000005C001020002020004C001000005B6
:10278D00C101030003020004C001000005C20104E1
:10279D000004020004C001000005C301050005028C
:1027AD000004C002000005C801060001030004C0BA
:1027BD0001000005E100070002030004C001000054
:1027CD0005E200080003030004C001000005E3005A
:1027DD00090004030004C001000005E4000A00051F
:1027ED00030004C001000005E5000B000803000410
:1027FD00C001000005EB001C0001040004000600F0
:10280D00000500001A000204000400060000050681
:10281D00000C000304000400200000050C00000063
:10282D000404000420060000052C0000000504002F
:10283D0004200600000532000000060400042006F6
:10284D000000053800000007040004200400000506
:10285D004000000009040004480300000640010088
:10286D00000B040004200A0000054F0000000C04BA
:10287D000004200A000005590000000D040004208A
:10288D0010000005630000000E04000400060000A7
:10289D0005730000000F040004000B000005440048
:1028AD00000001050004080200060100000000FF01
:1028BD00050004080E0000010000000001060004E0
:1028CD00800100000579000D000107000480010062
:1028DD0000057A000E000307000480010000057B4F
:1028ED00000F000507000480010000050000000036
:1028FD00010800048001000005C401100002080059
:10290D00048001000005C5011100010900048001CA
:10291D0000000509021D0002090004000100000568
:10292D00990017000309000400010000059A001723
:10293D00000409000400010000059B0017000509B3
:10294D00000400010000059C0018000609000400A9
:10295D00010000059D001700010A0004800400001D
:10296D000512021D00020A0004C0020000050A0241
:10297D001D00030A0004C0020000050C021D000426
:10298D000A0004C0020000050E021D00050A000425
:10299D00C00200000510021D00010B000400020022
:1029AD000005DB001200020B00040002000005DD33
:1029BD00001200030B00040002000005DF001200EE
:1029CD00010C00041010000914C0000000011100DA
:1029DD00048001000005FD001F00041100048008A3
:1029ED0000000500021B0001120004000500000597
:1029FD00F1001900021200044001000005F6001359
:102A0D0000031200040002000005FB001400041274
:102A1D0000040804000005F7000000051400044040
:102A2D00010000050802150001150004080C000046
:102A3D00170000000003150004900C0000170000A3
:102A4D00000000000104402A00000A0005010001F9
:102A5D00000104402A00080A0005020000000204DB
:102A6D00402A00000A4007010001000204402A002C
:102A7D00080A40070200010003044004003B08C09F
:102A8D000D160001010404000500620CC0090000D0
:102A9D0001020404000500620CC00B0000000304D9
:102AAD00040805000015000000000100800420202E
:102ABD0000000580090000020080042020000005B0
:102ACD00A00900000300800420200000059E0000E6
:102ADD0000040080042008000005EC010000010046
:102AED0000050831023B0B01000000011000050834
:102AFD0031003B0B0100000001000105083102020D
:102B0D000B0200010001100105083100020B02004B
:102B1D00010001000205083102010B030002000152
:102B2D00100205083100010B03000200010003052E
:102B3D00083102010B0400030001100305083100E8
:102B4D00010B0400030001000405080D02FD0B0636
:102B5D00000400010006050831023D0B05000500CB
:102B6D00011006050831003D0B050005000101109F
:102B7D000608000000110000000001021006080008
:102B8D0000001100000000000310060800000011F5
:102B9D0000000000000510060800000011000000F4
:102BAD0000010610060800000011000000000206DA
:102BBD0010060800000011000000000100004F0089
:102BCD001B00000890010000000A004F00080000E3
:102BDD0012000000000000014F004400000E000034
:102BED000000009F240F0262250D030B26160429F9
:102BFD00274A05EB2A0B067A2B064FC82B03070233
:102C0D0000002040013F26000020000101270000A8
:102C1D0020060114280000200501012900002001D3
:102C2D0001040000524F90011B500000207C000257
:102C3D00510000209000025200002092000155002A
:102C4D000020E7000156000020E800015700002099
:102C5D00E9000259000020EC00015A000020ED00AF
:102C6D00015B000020EE00015E000020E801015F25
:102C7D00000020E9010260000020D901016400007C
:102C8D0020DE010165000020DF010167000020E169
:102C9D0001016B000020E6000180000020D401013D
:102CAD0081000020D50103C001C201000000010117
:102CBD0000020100030100040100050100060100EE
:102CCD000720000820000920000A20000B20000C1E
:102CDD0000000D04000E00000F0000100100110196
:102CED000012000013000014000015000016000073
:102CFD001700001800001900001A00001B04001C2A
:102D0D0000001D00011E00021F04009900412D9AB4
:102D1D000081129B0041139B00C1139C0041209D1B
:102D2D00004114D81000000102D81000000106D98E
:102D3D001000000103D91000000109DA1000000194
:102D4D0003D61000000103D6100000010CFD100089
:102D5D000001020000000000020000000000080059
:102D6D000000000002000000000002000000000052
:102D7D000400FFFFFF00000104000002040F040027
:102D8D000400053003000630030000FFFF000010B3
:102D9D00061100002070000020005500FEE9010022
:102DAD0000F30E000000AA00FE0000524F9001003B
:102DBD00000100524F00FF552055FF552001000026
:102DCD002003000020040000200600002007000062
:102DDD0020080000203000002040000020FFFF00F0
:102DED00FF030C0004050C0004DB0000002D0100A6
:102DFD0000010000800A000000000F0000FFFFFF2F
:102E0D007F000000800100000005070004000B009A
:102E1D000401060004010A000400013003000D3016
:102E2D000301010004020100040C01000405060069
:102E3D000001040004020400040E040004960500C1
:102E4D0000804500008145000000028007800000E1
:102E5D00000315000440000040400040800040C0C9
:102E6D00002000013F400109800140C0011900020E
:102E7D003128313031303131303130313C0C00803E
:102E8D000F810F313C00402D442D31030080128401
:102E9D001231020040134413310200C013C4133128
:102EAD003E00401444140DFE0040204420120A0040
:102EBD00C338C4380E0A0083398439100A00433AE6
:102ECD00443A320A00033B043B0C0A00033D043D27
:102EDD001C0A00833D843D140A00C33EC43E040C0D
:102EED0000804581450A2001034B054B08200183D5
:102EFD00568556072001C35FC45F0D2001C367C50A
:102F0D00670B0A0043444444100A00C344C44403FD
:102F1D00C038310380393303403A3403003B30036A
:102F2D00003D2503412DFF038112FF034113FF03D4
:102F3D00C113FF034114FF034120FF03803D0A032A
:102F4D00C03E0D03004BFF038056FF03C05FFF0320
:102F5D00C067FF03C03F35030042360340443903C9
:102F6D00C0443CC03803803903804501403A03001A
:102F7D003B08003D02803D05C03E04C03F090042B4
:102F8D0009404402C04403801203401302C01302DF
:102F9D00401430402034402D2E004BAEF90E000071
:102FAD00F50E00001A010000004B000080560000D5
:102FBD00C05F0000C0670000D70E0000F10E0000DA
:102FCD003C000000E8010000FB000000C00E000006
:102FDD00FE0E0000E02E0C0110270A01401F080113
:102FED0088130501B80B0301D0070201E8030101A5
:102FFD000019400A800C200A6009180A4006100AC0
:10300D00B0040C0A2003080AF401050A9001040A11
:10301D00C800020A6400010A40010000C00300005C
:10302D007D0100007900000040020000C004000096
:10303D0000000000D9620401C80000000800000073
:10304D005B00000070000000C0000000D800000010
:10305D00000200004600000000008000A9ECFFFF08
:10306D0063000000941100007D150000FFFF7FFF3D
:10307D00FFFF7F00E80300009009000070FBFFFFD9
:10308D008100000070F8FFFF0101000051000000F9
:10309D000005000001200000C30B0000D007000058
:1030AD009C010000A2010000FF00110301FF003090
:1030BD000302FF04300303FF0D300304FF00370349
:1030CD0005FF05300306FF06300307FF093003082F
:1030DD00FF0C300309FFFFFFFF0A0A090F00002450
:1030ED00251415121310110C0D0A0B080906070FE4
:1030FD00060D0F060B0B0E0F0F0E03090709080A1D
:10310D000006040C0C0E000E0C0E0E0A060E0EE33D
:10311D0000E200E100E000E50034003D0024019CE8
:10312D00003500AC00300040005000600080009081
:10313D0000A0002001A40084002D012C010000033B
:10314D000001003C6C6D8D8C949544650000000071
:10315D004300000045000000490000005100000040
:10316D0061000000C2010000C4010000C8010000A0
:10317D00D0010000E001000001020000000200008B
:10318D004D0055005D0064005C004C00540045008E
:10319D0000065B4F666D7D077F6F777C395E7971B9
:1031AD00BF86DB00000000010001000002000200EC
:1031BD0000030003000004000400000500000100EE
:1031CD0001000101000200020100030003010004DF
:1031DD0000040100050000020001000102000200D0
:1031ED0002020003000302000400040200050100B6
:1031FD0000000601010000070102000008010300A4
:10320D000009010400000A0100010006010101008E
:10321D000701020100080103010009010401000A70
:10322D00010002000601010200070102020008016F
:10323D0003020009010402000A020000000B020152
:10324D0000000C020200000D020300000E0204003B
:10325D00000F020001000B020101000C020201002F
:10326D000D020301000E020401000F020002000B0B
:10327D00020102000C020202000D020302000E0206
:10328D000402000F030000001003010000110302EF
:10329D0000001203030000130304000014030001D7
:1032AD0000100301010011030201001203030100CC
:1032BD0013030401001403000200100301020011A6
:1032CD00030202001203030200130304020014019F
:1032DD000100041502010004160104000417020484
:1032ED000004190E0400041B090400041D010B0049
:1032FD00041E020B00041F030B0004200001010239
:10330D002100010202220000030223000103022317
:10331D000000060224000106022401008002250897
:10332D000080022600000001004302004303004319
:10333D000400430500430601430701430801430907
:10334D0001430A01430602430702430802430902EF
:10335D00430A024306034307034308034309034398
:10336D000A03430000010000020000130000001CCE
:10337D0000131C00001D00131D00001B0080000029
:10338D000B00000B00000B1E00841F008521008622
:10339D000000872000850000880000120000020058
:1033AD000012000011010030032701043003290031
:1033BD00008002801A0100000400010200000100DB
:1033CD0002800280000002000000000000000000EA
:1033DD0000801A80020000BFFFFFFFC0F5FFFF2035
:1033ED00000000100000007FFFFFFF00010000FF44
:1033FD00FEFFFF00040000FFFBFFFF00080000E3DD
:10340D00000000E4000000FF7F000000FF00FF004F
:10341D00FF0B004B034B054B0A8056835685560810
:10342D00C05FC35FC45F07C067C367C5670D210178
:10343D000000FFFFFFFF20010000A005000061005C
:10344D00000000FF00001800000010789D04EC291A
:10345D000600290A0000CF010000CA010000C801C2
:10346D000000C4010000C5010000C0010000C10141
:10347D000000C2010000C301000061F9FFFFB103AC
:10348D00000011280F12280F14280F131C0F1522DE
:10349D000F08580F165E0F17460F18400F1A4C0FD6
:1034AD001B520F1D700F012E0F02340F03EE0F4034
:1034BD0000000000030404F70E00009200000090CD
:1034CD0000000001150004000102030405060708B1
:1034DD0000090A0B0C0D0E0F1003420000C33F0034
:1034ED0000C03F0000004200004007000000010244
:1034FD00030507080A0D0E0F141625303133343528
:10350D003637393C3F140000001E000000FFFF63FA
:10351D00000100B44200002CC20000204106010051
:10352D000000004842000020420000A0C10501003B
:10353D000000247449005900590023013101120083
:10354D0099000600060203060104060205000305A4
:10355D00001F1C1F1E1F1E1F1F1E0000000000004D
:10356D001F1E1F00001F003B005A0078009700B57A
:10357D0000D400F300110130014E01100E00008047
:10358D00510100800100000102040810204080015B
:10359D000000000200000004000000080000001000
:1035AD00000000200000004000000080000000002E
:1035BD0001000000020000000400000008000000EF
:1035CD0010000000200000004000000080000000FE
:1035DD0000010000000200000004000000080000CF
:1035ED0000100000002000000040000000800000DE
:1035FD0000000100000002000000040000000800AF
:10360D00000010000000200000004000000080C5F8
:10361D0003423F1A51123FF304B53F0000803EC0F4
:10362D00D075D010D0D032C0E0C0D075D010C082CF
:10363D00C083C0F0758CFB758ABC1213A8D0F0D076
:10364D0083D082D0D0D0E032C0D075D010D0D0325F
:10365D00C0D075D010D0D032C0E0C0D075D010C061
:10366D0082C083C0F0C2CF75CDD575CC561214FE75
:10367D001214E61214CE1211F8120F1690065CE019
:10368D00A2E05011900947E06008E014F053A6F74E
:10369D00800343A608900652E06003E014F0900A00
:1036AD001AE004F0E0C394644009E4F0900A14E0D9
:1036BD00D2E0F0900A1BE004F0E0C3940A4007E466
:1036CD00F0900A1C04F0D0F0D083D082D0D0D0E09E
:1036DD0032C0E0C0D075D010C082C083C0F0A2C08F
:1036ED005005C2C01214D4A2C15005C2C11214DAC1
:1036FD00D0F0D083D082D0D0D0E032C0E0C0D07531
:10370D00D010C021C082C083C0F0902840E0F521C8
:10371D00902843E05221E521A2E7500A902840E08D
:10372D00C2E7F0121150E521A2E45007902840E0C5
:10373D00C2E4F0E521A2E55007902840E0C2E5F093
:10374D00E521A2E25011902840E0C2E2F090283627
:10375D00E0C2E1F012150AE521A2E35011902836DE
:10376D00E0C2E0F0902840E0C2E3F0121504E5213C
:10377D00A2E05011902826E0C2E1F0902840E0C26E
:10378D00E0F01214F2E521A2E15011902826E0C2DA
:10379D00E0F0902840E0C2E1F01214EC5391EFD02C
:1037AD00F0D083D082D021D0D0D0E032C0E0C0D0D4
:1037BD0075D010C021C082C083902848E0F52190BB
:1037CD00284BE05221E521A2E65007902848E0C29F
:1037DD00E6F0E521A2E2500E90283EE0C2E1F09025
:1037ED002848E0C2E2F0E521A2E3500E90283EE029
:1037FD00C2E0F0902848E0C2E3F0E521A2E45007D2
:10380D00902848E0C2E4F0E521A2E5501590284B40
:10381D00E0C2E5F0902838E0C2E0F0902848E0C220
:10382D00E5F0E521A2E75007902848E0C2E7F0E572
:10383D0021A2E0500E90282EE0C2E1F0902848E041
:10384D00C2E0F0E521A2E1500E90282EE0C2E0F09A
:10385D00902848E0C2E1F05391DFD083D082D0218F
:10386D00D0D0D0E032C0E0C0D075D010C082C083BF
:10387D00E591A2E65027902850E0A2E1501C902A35
:10388D0004E0A2E55004E0C2E5F0E0A2E65004E059
:10389D00C2E6F0902850E0C2E1F05391BFD083D042
:1038AD0082D0D0D0E032C0D075D010D0D032C0D0C0
:1038BD0075D010D0D032902865E0C2E7F075CEA556
:1038CD0075CF5A75CEA575CF5AC286C28512130C07
:1038DD00121306E960E075CEA575CF5A75CEA575A4
:1038ED00CF5A12130075CEA575CF5A75CEA575CFCB
:1038FD005A12121C1214C212151012100C75CEA5EC
:10390D0075CF5A75CEA575CF5A12113E12132A7561
:10391D00CEA575CF5A75CEA575CF5A12143E12137A
:10392D001812104275CEA575CF5A75CEA575CF5A02
:10393D0012108A12124612139CD2AF900A1CE0602C
:10394D000E75CEA575CF5A75CEA575CF5AE4F0126A
:10395D001360900A12E0F8A3E0F9E849600512152A
:10396D00168009900A14E0600312151C900A1FE0DE
:10397D0064AA7004A3E0645570C10238C374F612D2
:10398D00225B892180021521E5216039F582A8820B
:10399D00EA28FEE43BFFEE24FFF582EF34FFF583CA
:1039AD00E0FEEC28F8E43DF9E824FFF582E934FF68
:1039BD00F583E0F8C39E50047901800BEEC3985057
:1039CD00C57902800279007F020222C774F01222AB
:1039DD005B74F31221EB7404122237EAF0A3EBF0BF
:1039ED007402122237ECF0A3EDF0E9C0E074061278
:1039FD002237D0E0F0E075F007A4F8A9F07418288C
:103A0D00F8743439F9853182853283E8F0A3E9F011
:103A1D00853182853283E0F8A3E0F5838882A3A304
:103A2D00A3A3E493F8740193F9740B122237E8F011
:103A3D00A3E9F07407122237E4F0A3F0A3F0A3F08A
:103A4D00FE740712224188218922782112231179CF
:103A5D00037402122237E0F8A3E0F5838882E49321
:103A6D00F521740193AA21FBE4FCFD120EB0740242
:103A7D0012220174071222371220D9E8494A4B70DD
:103A8D00077A007BF2023C7D75211A752209782197
:103A9D001223117902E9122237E0F8A3E0F58388A9
:103AAD0082A3A3E493F521740193AA21FBE4FCFD09
:103ABD00120EB0740212220190343B782112209F15
:103ACD00740712223778211215CD40117407122276
:103ADD00377420F0A37401F0A3E4F0A3F090091A59
:103AED00E0F525A3E0F526E4F527F5287407122265
:103AFD00377825121FB090343F7825121FC39034AC
:103B0D0043782112209F78257921121E6A90091C75
:103B1D00E521F0A3E522F0752160752206782112CA
:103B2D0023117905740D122237C082C08390091CB0
:103B3D00E0FAA3E0FB7402122237E0F8A3E0C824F8
:103B4D0006F582E438F583E493F521EA8521F0A4A6
:103B5D00FAA8F08521F0EBA428FBD083D082E02ACF
:103B6D00F521A3E03BAA21FBE4FCFD120EB074028B
:103B7D0012220179057CF37D097A657B06120E868A
:103B8D0079057C607D067402122237E0FAA3E0FB12
:103B9D00121282E9640270077A007BF8023C7D798B
:103BAD00057C657D067404122237E0FAA3E0FB1252
:103BBD001282E9640170077A007BF0023C7D790581
:103BCD007C607D067404122237E0FAA3E0FB12122A
:103BDD0082E96402701479057C607D0674041222FA
:103BED0037E0FAA3E0FB120E860E79057C657D06A3
:103BFD007402122237E0FAA3E0FB121282E964018B
:103C0D00701779057C657D067402122237E0FAA3E0
:103C1D00E0FB120E86EED2E1FE74035E604E74027E
:103C2D00122237E0FAA3E0FB1212AC8A218B228C10
:103C3D00238D247404122237E0FAA3E0FB1212AC98
:103C4D008A258B268C278D2878217925121FED90BA
:103C5D000933E0F525A3E0F526E4F527F5287821CD
:103C6D007925121E6AE52104900922F07A007B0065
:103C7D00740D1222017F080222C774F012225B74A8
:103C8D00FB1221EBE9C0E07402122237D0E0F08A7A
:103C9D00278B28E075F007A4F8A9F0741828F8749C
:103CAD003439F9853182853283E8F0A3E9F0853125
:103CBD0082853283E0F8A3E0F5838882A3A3A3A3D2
:103CCD00E493F8740193F97403122237E8F0A3E931
:103CDD00F079057C657D06121282E9701390091A40
:103CED00E0FAA3E0FB90091EEAF0A3EBF0023EB070
:103CFD0090091CE0FEA3E0FF79057C607D06AA27F4
:103D0D00AB28121282E9700B90091EEEF0A3EFF0B2
:103D1D00023EAC90091AE0FAA3E0FBC3EE9AEF9BCA
:103D2D004003023DCA7521607522067821122311C8
:103D3D007905E9122237C082C0837402122237E05E
:103D4D00F8A3E0C82406F582E438F583E493FA7508
:103D5D00F01FA4CAA8F028FBD083D082E02AF52159
:103D6D00A3E03BAA21FBE4FCFD120EB0740212226B
:103D7D000179057C607D06AA27AB28121282E9F82D
:103D8D00740268701275210075220090091CE0F50F
:103D9D0023A3E0F5248055740168701290091AE090
:103DAD00F521A3E0F52275231F752401803E9009AE
:103DBD001E741FF0A37401F07A1F023EAF8A218B8F
:103DCD00228E238F24EE65217003EF6522701D0274
:103DDD003EB0E5212401F8E43522F9E523687003AE
:103DED00E524697003023E9D8E218F22E523652116
:103DFD007004E52465227003023E9DE5212523FE16
:103E0D00E5223524C313FFEE13FE752560752606D6
:103E1D0078251223117905E9122237C082C08374E7
:103E2D0002122237E0F8A3E0C82406F582E438F543
:103E3D0083E493F525EEFAEFFBEA8525F0A4FAA8C5
:103E4D00F08525F0EBA428FBD083D082E02AF52560
:103E5D00A3E03BAA25FBE4FCFD120EB07402122276
:103E6D000179057C607D06AA27AB28121282E9F83C
:103E7D007402687003023DDF7401687022E521242D
:103E8D0001F8E43522F9E523687003E5246970082B
:103E9D00AA21E52244F4800A8E238F24023DF9EEF7
:103EAD00FAEFFB74051222017F080222C774F0128B
:103EBD00225B74F21221EB7405122237EAF0A3EBA8
:103ECD00F0E9C0E07409122237D0E0F0ECC0E074E4
:103EDD0004122237D0E0F07409122237E0FE75F09B
:103EED0007A4F8A9F0741828F8743439F9853182CB
:103EFD00853283E8F0A3E9F0853182853283E0F8DD
:103F0D00A3E0F5838882A3A3A3A3E493F87401939C
:103F1D00F97407122237E8F0A3E9F0740A12223778
:103F2D00E4F0A3F0A3F0A3F0740A122241882189D2
:103F3D0022782112231179037402122237E0F8A39B
:103F4D00E0F5838882E493F521740193AA21FBE4C3
:103F5D00FCFD120EB074021222017402122241886D
:103F6D0021892278211223117902E9122237E0F8F2
:103F7D00A3E0F5838882A3A3E493F521740193AAAA
:103F8D0021FBE4FCFD120EB07402122201752160BA
:103F9D00752206782112231179057409122237C072
:103FAD0082C0837404122237E0FAA3E0FB7402127C
:103FBD002237E0F8A3E0C82406F582E438F583E45F
:103FCD0093F521EA8521F0A4FAA8F08521F0EBA460
:103FDD0028FBD083D082E02AF521A3E03BAA21FB68
:103FED00E4FCFD120EB0740212220179057C607D95
:103FFD0006E9122237E0FAA3E0FB121282E9F8700B
:10400D000C7402122237E0FAA3E002431E74016819
:10401D0060030240BB7404122237E0640170030296
:10402D004196EE2EFEE433FF743D2EF874093FF9F0
:10403D00E824FFF582E934FFF583E0F8A3E0F99079
:10404D000933E8F0A3E9F07405122237E0FAA3E092
:10405D00FB1212AC8A258B268C278D287A607B0665
:10406D001212AC8A218B228C238D2490343BC0827A
:10407D00C08378257921121FED900933E0F521A336
:10408D00E0F522E4F523F52478257921121E6A74D2
:10409D000A1222377825121FB0D083D082782512CC
:1040AD0015FC50057AF00241987A0002419890343F
:1040BD003B782112209F740A12223778211215CDD8
:1040CD004011740A1222377420F0A37401F0A3E496
:1040DD00F0A3F07402122237E0F521A3E0F522E4FB
:1040ED00F523F524740A1222377821121FB090346B
:1040FD003F7821121FC3903443782512209F7821D9
:10410D007925121E6AAE25AF2675216075220678B7
:10411D002112231179057409122237C082C083EE52
:10412D00FAEFFB7402122237E0F8A3E0C82406F57B
:10413D0082E438F583E493F521EA8521F0A4FAA809
:10414D00F08521F0EBA428FBD083D082E02AF52165
:10415D00A3E03BAA21FBE4FCFD120EB07402122277
:10416D000179057C607D06E9122237E0FAA3E0FBB8
:10417D00121282E9F8600F7402687014740412222E
:10418D0037E06401700302431B7AFF7BFF02431F7C
:10419D007402122237E0F8A3E0F9C3EE98EF9940CC
:1041AD000302423C752160782112231179057409AF
:1041BD00122237C082C0837402122237E0F8A3E0C6
:1041CD00C82406F582E438F583E493FA75F01FA44C
:1041DD00CAA8F028FBD083D082E02AF521A3E03BCA
:1041ED00AA21FBE4FCFD120EB07402122201790526
:1041FD007C607D06E9122237E0FAA3E0FB12128201
:10420D00E9F87402687008752100752200802C741D
:10421D00016870147402122237E0F521A3E0F52233
:10422D0075231F75240180337A1F7B0102431F7490
:10423D0002122237E0F521A3E0F5228E238F248090
:10424D001AE5212401F8E43522F9E523687003E528
:10425D00246970030243128E218F22E5236521709C
:10426D0004E52465227003024312E5212523FEE5B2
:10427D00223524C313FFEE13FE75256075260678CF
:10428D002512231179057409122237C082C083EEDD
:10429D00FAEFFB7402122237E0F8A3E0C82406F50A
:1042AD0082E438F583E493F525EA8525F0A4FAA890
:1042BD00F08525F0EBA428FBD083D082E02AF525EC
:1042CD00A3E03BAA25FBE4FCFD120EB07402122202
:1042DD000179057C607D06E9122237E0FAA3E0FB47
:1042ED00121282E9F8740268700302424E7401687A
:1042FD00701CE5212401F8E43522F9E523687003EB
:10430D00E524697006AA21AB228007024248EEFA25
:10431D00EFFB740E1222017F080222C774F61222DF
:10432D005BE9FF8A218B22740F5FF87401687010AE
:10433D0074F05F641060197E037903EC2407802903
:10434D0074026870067E0379038016740368700624
:10435D007E027902800B7E0474F05F641079047024
:10436D0005EC24058003EC2409FC50010D120E868A
:10437D00EEF9AC21AD227A397B09120E86EEF97F6A
:10438D00020222C774F712225BE9FF740F5FF87403
:10439D000168700974F05F64107007801074026812
:1043AD0070067E037C038009740368700B7E027CAB
:1043BD000279FF120E8C800B7E0479047C397D0905
:1043CD00120E86EEF97F010222C774F012225B7481
:1043DD00FD1221EBE9853182853283F074011222C1
:1043ED0037ECF0A3EDF0900918E4F08531828532B9
:1043FD0083E0540FF912128EEB54FCF974035BFB3E
:10440D0090091EEAF0A3EBF0E96016E4700374F274
:10441D0069607BE4700374F069700690091874018B
:10442D00F0E9700302462CE4700374F8697003021E
:10443D00462C900933E0F521A3E0F522E4F523F5B0
:10444D0024C021C022C023C024A378251220907837
:10445D00257921121E6AD028D027D026D02578257F
:10446D007921121FED782512230D7A297B0912125D
:10447D00CA740412220179057C2E7D097A297B09E3
:10448D00121282E96401700B9009237401F0790016
:10449D00024762853182853283E0540F75F007A49F
:1044AD00F8A9F0741828FE743439FF75216075224F
:1044BD000678211223118E828F83A3A3A3A3A3A316
:1044CD00E493C333F98E828F83A3A3A3A3C082C0C9
:1044DD008390091EE0FAA3E0FB8E828F83A3A3A332
:1044ED00A3A3A3E493F521EA8521F0A4FAA8F0850E
:1044FD0021F0EBA428FBD083D082E4932AF521A3ED
:10450D00E4933BAA21FBE4FCFD120EB074021222CF
:10451D000179057C297D097401122237E0FAA3E0A7
:10452D00FB120E8679057C607D067A297B09120EB9
:10453D00867A607B061212AC8A258B268C278D28F5
:10454D009009357825122001900933E0F521A3E07B
:10455D00F522E4F523F52478257921121E6AE52547
:10456D00900919F0E0700302474190091EE0641FA5
:10457D007004A3E0640190091E7005E4F0A38008A7
:10458D00E02401F0A3E03400F07521607522067877
:10459D00211223118E828F83A3A3A3A3A3A3E4933C
:1045AD00C333F98E828F83A3A3A3A3C082C083904C
:1045BD00091EE0FAA3E0FB8E828F83A3A3A3A3A31E
:1045CD00A3E493F521EA8521F0A4FAA8F08521F062
:1045DD00EBA428FBD083D082E4932AF521A3E493A6
:1045ED003BAA21FBE4FCFD120EB0740212220190D5
:1045FD000919E014F0853182853283E0540F64048B
:10460D00701AE054306410790470067C657D068064
:10461D00047C697D067A397B09120E860246D9859E
:10462D003182853283E0540F75F007A4F8A9F07438
:10463D001828FE743439FF75216075220678211211
:10464D0023118E828F83A3A3A3A3A3A3E493F98E37
:10465D00828F83A3A3A3A3C082C0838E828F83A3E3
:10466D00A3A3A3A3A3E493F521EA8521F0A4FAA8BB
:10467D00F08521F0EBA428FBD083D082E4932AF5BA
:10468D0021A3E4933BAA21FBE4FCFD120EB07402BE
:10469D0012220179057C607D067A297B091212822E
:1046AD00E964017055853182853283E0540F6404CD
:1046BD00701AE054306410790470067C657D0680B4
:1046CD00047C697D067A397B09120E8679057C2476
:1046DD007D097401122237E0FAA3E0FB120E8674F5
:1046ED0001122237E02405FAA3E03400FB85318264
:1046FD00853283E0F91212A0805790091AE0F8A3D1
:10470D00E0F990091EE0687003A3E0697006900956
:10471D00187401F079057C607D067401122237E072
:10472D00FAA3E0FB120E8679057C607D067A297B63
:10473D0009120E867C607D067401122237E0240575
:10474D00FAA3E03400FB853182853283E0F9121241
:10475D009AE92405F974031222017F080222C77415
:10476D00F012225B74FF1221EBEAFEEBFF8E828FBB
:10477D0083A3A3A3A3E0F9120E3EE9F5228E828F47
:10478D0083A3A3A3E0F9120E3EE914F5238E828FC5
:10479D0083A3A3E0F9120E3EE914F5218E828F83D7
:1047AD00A3E0F9120E3EE9853182853283F08E82C7
:1047BD008F83E0F9120E3EE9FA740355227007E576
:1047CD0023C3940240020521AC22EC75F06DA4CCFC
:1047DD00A8F028FDA823E828F8E433F9747028F52B
:1047ED0082743539F583E4932CF8A3E4933DF98570
:1047FD002123E5221313543FFCE5232CFCE4340064
:10480D00FDE82CF521E93DF522E4F523F52490345E
:10481D0047782512209F78217925121DEA8531824E
:10482D00853283E075F03CA4F525E5F0F526E4F539
:10483D0027F52878217925121F9D8A25E4F52678FC
:10484D00217925121F9DAA21AB22AC23AD24740121
:10485D001222017F080222C774F012225BECFEEDDA
:10486D00FF1212AC8A218B228C238D24EEFAEFFBE2
:10487D001212AC8A258B268C278D2878217925124A
:10488D001FED7410122237E0F525A3E0F526E4F5AF
:10489D0027F52878217925121550600AE521452242
:1048AD004523452470047900801978217925121E3D
:1048BD006A90344B78211215FC500479608004E520
:1048CD002114F97F080222C774F212225BE9FE8AD5
:1048DD00258B26900919E06006E014F0024A3A9003
:1048ED000918E064017040900933E0F521A3E0F56B
:1048FD0022E4F523F524782112230D7A297B091260
:10490D0012CA740412220179057CF37D097A297B80
:10491D0009121282E96401700B9009237401F07978
:10492D0000024A3D024A34E9540F75F007A4F8A974
:10493D00F0741828F8743439F988828983A3A3A3F5
:10494D00A3E493C0E0740193F583D082AA82AB8374
:10495D0088828983A3A3A3A3A3A3E493F990091E3B
:10496D00E0FCA3E0FDEC4D90091E7008741FF0A350
:10497D0074018008E024FFF0A3E034FFF07521609E
:10498D00752206782112231190091EE0FCA3E0FD8B
:10499D00EC89F0A4FCA8F089F0EDA428FDEA2CF533
:1049AD0021EB3DAA21FBE4FCFD120EB07402122294
:1049BD00019009331223287C297D097A607B061228
:1049CD0012B27402122201E9900919F079057C6086
:1049DD007D067A297B09120E8690091EE0F8A3E068
:1049ED00F9900919E0701FA3E0687003A3E06970E6
:1049FD00069009187401F07C607D06AA25AB26EEA1
:104A0D00F912129A802A741F687003740169900953
:104A1D001E7005E4F0A38008E02401F0A3E034004B
:104A2D00F0900919E014F0AA25AB26EEF91212A0A8
:104A3D007F060222C774F012225B74E31221EB7918
:104A4D00057CF37D097AA07B06120E86900946E05F
:104A5D0064556003024CE185318285328374010215
:104A6D004BE57403122237E064F07003A3E0F460A9
:104A7D0003024BDD853182853283E075F007A4F8A2
:104A8D00A9F0741828FE743439FFEE2406F523E4DA
:104A9D003FF524852382F583E493F5217525607513
:104AAD0026067825122311AC217B007A00740212A0
:104ABD002237E0240EF912107E74021222017905BC
:104ACD007CA07D067A607B06120E86900933E0FC91
:104ADD00A3E0FDEC75F01FA4CCA8F028F875F01F2D
:104AED00EDA428FD7A607B061212D08531828532C5
:104AFD0083E06404600E74FB2521FC79FF7A657BED
:104B0D0006120E8C7401122237741FF0A37401F07B
:104B1D0074051222377401F0A3E4F0A3F0A3F0049E
:104B2D0012224188218922782112231179028E8245
:104B3D008F83A3A3E493F521740193AA21FBE4FCD5
:104B4D00FD120EAA7402122201740512224188214F
:104B5D008922782112231179038E828F83E493F5B4
:104B6D0021740193AA21FBE4FCFD120EAA7402121A
:104B7D002201752160752206782112231185238269
:104B8D00852483E493F98E828F83A3A3A3A3C0828C
:104B9D00C0837403122237E0FAA3E0FB85238285DC
:104BAD002483E493F521EA8521F0A4FAA8F0852168
:104BBD00F0EBA428FBD083D082E4932AF521A3E463
:104BCD00933BAA21FBE4FCFD120EAA7402122201F2
:104BDD00853182853283E004F0E0C3940540030201
:104BED004CDC7C00E0F97AA07B061212947403125F
:104BFD002237EAF0A3EBF07403122237E0F47003CE
:104C0D00A3E0F46003024D5F853182853283E0605D
:104C1D0003024CEB7405122237E4F0A3F0A3F0A3CA
:104C2D00F004122237E4F0A3F0F5218067E5217539
:104C3D00F007A4F8A9F0741828FE743439FF740134
:104C4D0012224188238924782312231179028E821E
:104C5D008F83A3A3E493F523740193AA23FBE4FCB0
:104C6D00FD120EAA7402122201740512224188232C
:104C7D008924782312231179038E828F83E493F58F
:104C8D0023740193AA23FBE4FCFD120EAA740212F5
:104C9D0022010521E521C3940540927C0B79007416
:104CAD0009122249120E8C7409122241882189227F
:104CBD007821122311790B90344F782112209FAA5D
:104CCD0021AB22AC23AD24120EAA74021222019044
:104CDD000946E4F0741D1222017F080222C77405F3
:104CED00122237E4F0A3F0A3F0A3F004122237E46C
:104CFD00F0A3F0853182853283E075F007A4F8A921
:104D0D00F0741828FE743439FF740512224188217D
:104D1D008922782112231179038E828F83E493F5F2
:104D2D0021740193AA21FBE4FCFD120EAA74021258
:104D3D002201740112224188218922782112231126
:104D4D0079028E828F83A3A3E493F52174019302DC
:104D5D004BCF7403122237E07003A3E0F47003020B
:104D6D004A6F7403122237E064F07003A3E0F4700D
:104D7D0003024A6F7405122237E4F0A3F0A3F0A3E7
:104D8D00F0853182853283E075F007A4F8A9F074BF
:104D9D001828FE743439FF740512224188218922A6
:104DAD00782112231179038E828F83E493F5217478
:104DBD000193AA21FBE4FCFD120EB0740212220134
:104DCD00740112224188218922782112231179023E
:104DDD008E828F83A3A3E493F521740193AA21FB03
:104DED00E4FCFD120EB0740212220190343B7821C6
:104DFD0012209F740512223778211215CD4011749F
:104E0D00051222377420F0A37401F0A3E4F0A3F08F
:104E1D007403122237C082C0837401122237E0F866
:104E2D00A3E0F9D083D082C3E098A3E09940327417
:104E3D0005122237782512209090343F7825121FC5
:104E4D00C37403122237C082C0837401122237E06B
:104E5D00F8A3E0F9D083D082E0C398F521A3E080D8
:104E6D004F7403122237C082C0837401122237E0BF
:104E7D00F8A3E0F9D083D082C3E098A3E09950491C
:104E8D007405122237782512209090343F78251220
:104E9D001FC37403122237E02420FAA3E03401FB70
:104EAD007401122237E0F8A3E0F9EAC398F521EB7B
:104EBD0099F522E4F523F52478257921121FED7457
:104ECD000512223778251220B275216075220678D9
:104EDD002112231179058E828F83A3A3A3A3C082F0
:104EED00C083E9122237E0FAA3E0FB8E828F83A301
:104EFD00A3A3A3A3A3E493F521EA8521F0A4FAA823
:104F0D00F08521F0EBA428FBD083D082E4932AF521
:104F1D0021A3E4933BAA21FBE4FCFD120EB0740225
:104F2D0012220179057C607D067AA07B0612128221
:104F3D00E970427403122237E0F8A3E0F97401120C
:104F4D002237E0687003A3E0697003024BDD902EF9
:104F5D0012782112209F74051222377821121FDA40
:104F6D007403122237E0F8A3E0F97401122237E836
:104F7D00F0A3E9801E7403122237E02401F8A3E0A8
:104F8D003400F97A207B011221607401122237EA74
:104F9D00F0A3EBF0740112224188218922782112AD
:104FAD00231179028E828F83A3A3E493F5217401DB
:104FBD0093AA21FBE4FCFD120EAA740212220174C5
:104FCD000512224188218922782112231179038E1D
:104FDD00828F83024D5574F012225B74F81221EB0F
:104FED007E007AF27B091214688A218B229009F4D3
:104FFD00E0F9120E3EE9FAE4F523F52490344778F2
:10500D002512209F78217925121DEAEA75F03CA41E
:10501D00F525E5F0F526E4F527F528782179251213
:10502D001F9D9009F3E0F9120E3EE9F525E4F526F2
:10503D0078217925121F9D740412223778211220B0
:10504D00B290093DE0605E7C0080548C82AA82742F
:10505D00041222377825122090EA2AF8E433F974E5
:10506D003E28F582740939F583E0F521A3E0F52298
:10507D00E4F523F52478257921121E6AE5214522D0
:10508D0045234524701874942AF582E43435F5834C
:10509D00E493F890093DE0586004E8CE4EFE0CEC28
:1050AD00C3940440A6E5A1A2E0400302528FEE7026
:1050BD000302528F1212BE79057CF37D097A607B53
:1050CD0006120E86EEA2E050527AD87B10121156BF
:1050DD00EAF8EBF9ECFAEDFB85318285328312208B
:1050ED00E57902AC31AD327A657B06120E867AD93E
:1050FD007B101211568531828532831220CD7903B2
:10510D00AC31AD327A677B06120E867C607D067AF5
:10511D000F7901121078790D121072EEA2E1502D57
:10512D007AD67B101211568531828532831220CDAD
:10513D007903AC31AD327A657B06120E867C607DCB
:10514D00067A107901121078790E121072EEA2E221
:10515D00503012115C853182853283EAF0A3EBF079
:10516D00A3E4F0A3F07902AC31AD327A657B06127F
:10517D000E867C607D067A117901121078790F12F6
:10518D001072EEA2E3400302528F9008131220D941
:10519D008531828532831220E57A0079011210F073
:1051AD008A218B22EB3395E0F523F5248531828519
:1051BD0032837821121FDA8531828532837821126C
:1051CD002090902E02782512209F78217925121E8D
:1051DD006A85318285328378211220B285318285AC
:1051ED0032831220C1120E2C85318285328312201A
:1051FD00CD7904AC31AD327A657B06120E869008FE
:10520D00271220D98531828532831220E57A0079E3
:10521D00021210F08A218B22EB3395E0F523F52451
:10522D008531828532837821121FDA85318285326C
:10523D00837821122090902E02782512209F7821BC
:10524D007925121E6A85318285328378211220B22A
:10525D008531828532831220C1120E2C85318285D3
:10526D0032831220CD7904AC31AD327A697B0612CE
:10527D000E867C607D067A127901121078791012F3
:10528D00107274081222017F080222C774F01222D4
:10529D005B74F21221EB853182853283EAF0A3EB48
:1052AD00F0853182853283E0F8A3E0F5838882E0D2
:1052BD00F9120E3EE9F521E4F522F523F524741ECD
:1052CD001222377821121FB0740212223778211260
:1052DD0020B2853182853283E02401F8A3E03400C9
:1052ED00F97406122237E8F0A3E9F074061222379A
:1052FD00E0F8A3E0F5838882E0F9120E3EE9F5218E
:10530D00E4F522F523F524C021C022C023C0247466
:10531D00021222377825122090902FCD782112205D
:10532D009F78257921121E6AD024D023D022D02136
:10533D0078217925121F9D740812223778211220A9
:10534D00B274021222377825122090902FCD782139
:10535D0012209F78257921121E6AA921120E44E987
:10536D00C0E0853182853283E0F8A3E0F583888241
:10537D00D0E0F0903453782112209F740812223718
:10538D0078211215CD500302555E85318285328309
:10539D00E02402F8A3E03400F9740C122237E8F08F
:1053AD00A3E9F0740C122237E0F8A3E0F5838882AC
:1053BD00E0F9120E3EE9F521E4F522F523F524C0BE
:1053CD0021C022C023C02474081222377825122050
:1053DD0090903453782112209F78257921121E6ADE
:1053ED00D024D023D022D02178217925121F9D746D
:1053FD000212223778211220B27408122237782136
:10540D00122090903453782512209F7821792512FF
:10541D001E6A740812223778251220B274081222DF
:10542D00377821122090A921120E44E9C0E07406AC
:10543D00122237E0F8A3E0F5838882D0E0F08531C1
:10544D0082853283E02403FEA3E03400FF8E828F39
:10545D0083E0F8745D28F582E43435F583E493F543
:10546D0021740268701E853182853283E0F8A3E0D5
:10547D00F5838882A3A3A3A3E0F9120E3EE954039A
:10548D0070020521E4F522F523F52474021222376A
:10549D0078211215DD405C7402122237782112201A
:1054AD00198E828F83E0F9120E3EE9F52305230450
:1054BD00C3940D4033752301853182853283E024F9
:1054CD0004F521A3E03400F522852182F583E0F96E
:1054DD00120E3EE90904C3946440027900120E4491
:1054ED00E9852182852283F0A923120E44E98E825B
:1054FD008F83F075CEA575CF5A75CEA575CF5A741D
:10550D0002122237C082C0838E828F83E0F8745DD1
:10551D0028F582E43435F583E493F521E4F522F59D
:10552D0023D083D08278211215DD400302544B74B1
:10553D00021222377821122090A921120E44E9C0BF
:10554D00E0740C122237E0F8A3E0F5838882D0E0F6
:10555D00F074081222377821122090A921120E44DE
:10556D00E9C0E07406122237E0F8A3E0F5838882E3
:10557D00D0E0F0740E1222017F080222C774F012DF
:10558D00225B74FB1221EBEAFEEBFF8C218D2212C4
:10559D0012AC8A258B268C278D28E4F523F52478EB
:1055AD002179251215BD400978257921121FED802D
:1055BD000C7525007526007527007528008531822C
:1055CD00853283E4F004122237E4F074021222379C
:1055DD007401F074031222377401F074041222372F
:1055ED00E4F0782512230D74041222491212CA74A4
:1055FD00041222017905AC31AD32EEFAEFFB120E39
:10560D008674051222017F080222C774F612225BEE
:10561D0079067C7D7D087A407B0F12101E79047A05
:10562D007D7B08120E5C8A218B22A821A92290086D
:10563D0081E0687003A3E069600B7C0679007A7DD8
:10564D007B08120E8C9008987420F0A37413F0A3AD
:10565D00743CF0A3E4F0A3E064556002E4F090081C
:10566D0090E4F07F020222C7C082C0831211E012C3
:10567D00109C12145012103C75CEA575CF5A75CED4
:10568D00A575CF5A900A0EE064556006121090125F
:10569D001096900A0EE4F0D083D08202009374F637
:1056AD0012225B74FE1221EBEAFEEBFF8E828F83DA
:1056BD00A3A3A3A3A3A3A3A3E0853182853283F083
:1056CD008E828F83A3A3A3A3A3A3A3A3A3E0C0E070
:1056DD007401122237D0E0F0853182853283C08289
:1056ED00C0837908120E5C8A218B22D083D082E090
:1056FD0065217004A3E06522701B7800800DEE28F3
:10570D00F582E43FF583E068700B08E8C394084028
:10571D00ED79018002790074021222017F020222CA
:10572D00C774F612225B7800800CEA28F582E43B00
:10573D00F5837437F008E8C3940A40EE7F02022225
:10574D00C774F612225B74FE1221EBEAFEEBFF78B2
:10575D0000800FE8C0E0EE28F582E43FF583D0E04D
:10576D00F008E8C3940840EB7908120E5C8531828D
:10577D00853283EAF0A3EBF0853182853283E08EAA
:10578D00828F83A3A3A3A3A3A3A3A3F074011222C7
:10579D0037E08E828F83A3A3A3A3A3A3A3A3A3F018
:1057AD0074021222017F020222C774F412225B746A
:1057BD00FE1221EB90065EE4F0A3F090065DF090F2
:1057CD0007C3F0A3F0A3F0A3F07521C375220778EA
:1057DD00211223117904902FA9782112209FAA213B
:1057ED00AB22AC23AD24120EAA74021222017C0E40
:1057FD0079007AA07B07120E8C900A1DE0A2E05072
:10580D00079007A4E04408F090094BE0640270078C
:10581D009007A4E04401F090094AE06402700790FB
:10582D0007A4E04420F07C0879007A5B7B09120E16
:10583D008C75215B75220978211223117904902F23
:10584D00AD782112209FAA21AB22AC23AD24120EDC
:10585D00AA74021222011210847521607522067835
:10586D00211223117904902FB1782112209FAA21A2
:10587D00AB22AC23AD24120EB074021222017A6257
:10588D007B06120E1A8A218B22AE21AF2279027A63
:10589D00607B06120E5CEA6E7002EB6F70030259AC
:1058AD006C79027C047D0C7A647B06120E741213E3
:1058BD006C853182853283EAF0A3EBF085318285E8
:1058CD003283E0241CF8A3E034F3F9C3E894B1E982
:1058DD009404505E7A647B06120E1A8531828532ED
:1058ED0083E0F8A3E0F9EAC398F8EB99F990094839
:1058FD00E8F0A3E9F079027C487D097A607B061215
:10590D000E8679027A487B09120E5C8531828532CA
:10591D0083EAF0A3EBF07902AC31AD327A627B060B
:10592D00120E8679047C607D067A1A7B011210189E
:10593D008007900948E4F0A3F0853182853283E039
:10594D00F8A3E0F9900948E028F8A3E039F9E8FC5C
:10595D00E9FD9009E8ECF0A3EDF0A3E4F0A3F090DD
:10596D000A16E04401F074021222017F040222C7DC
:10597D0074F412225B7AB97B07121048E9700302A6
:10598D005C667AB97B0712104E90095AE064556037
:10599D000A790112141A1211B08005790012141A25
:1059AD007C4079007A607B06120E8C7E00803D75FE
:1059BD00CEA575CF5A75CEA575CF5A7521607522B6
:1059CD0006782112231179408E21752200740678F4
:1059DD00211221D8E5212480FAE522340FFB3395DD
:1059ED00E0FCFD120EAA74021222010EEEC3940DFC
:1059FD0040BD752160752206782112231179099019
:105A0D002E06782112209FAA21AB22AC23AD2412A1
:105A1D000EAA74021222017E00806575CEA575CF87
:105A2D005A75CEA575CF5A7521607522067821124B
:105A3D00231179408A828B838F2175220074067819
:105A4D00211221D8932521F521A3E4933522AA21F2
:105A5D00FBE4FCFD120EAA74021222010FEE75F08A
:105A6D0003A4F8A9F0749428F8742F39F9E8FAE929
:105A7D00FB8A828B83A3A3E493F8EFC398409C0E1B
:105A8D00EEC3940650047F0080D375216075220605
:105A9D0078211223117905902FB5782112209FAA14
:105AAD0021AB22AC23AD24120EAA74021222017571
:105ABD00216075220678211223117905902FB9786E
:105ACD002112209FAA21AB22AC23AD24120EAA7461
:105ADD000212220175216075220678211223117997
:105AED0005902FBD782112209FAA21AB22AC23ADAA
:105AFD0024120EAA740212220175216075220678F5
:105B0D00211223117905902FC1782112209FAA21EE
:105B1D00AB22AC23AD24120EAA74021222019009FD
:105B2D005AE0645560737E01806575CEA575CF5AB8
:105B3D0075CEA575CF5A7521607522067821122371
:105B4D001179408A828B838F21752200740678210A
:105B5D001221D8932521F521A3E4933522AA21FB07
:105B6D00E4FCFD120EAA74021222010FEE75F00371
:105B7D00A4F8A9F0747028F8742F39F9E8FAE9FB44
:105B8D008A828B83A3A3E493F8EFC398409C0EEE17
:105B9D00C3940C507A7F0080D37E00806575CEA5AE
:105BAD0075CF5A75CEA575CF5A75216075220678B9
:105BBD002112231179408A828B838F2175220074E3
:105BCD000678211221D8932521F521A3E4933522BE
:105BDD00AA21FBE4FCFD120EAA74021222010FEEA3
:105BED0075F003A4F8A9F0747028F8742F39F9E84A
:105BFD00FAE9FB8A828B83A3A3E493F8EFC3984061
:105C0D009C0EEEC3940C50047F0080D312105A905A
:105C1D0008B77450F09008B67455F090089CE4F0F5
:105C2D0079031210D87C0A79007A847B08120E8CC5
:105C3D007C0A79007AC77B07120E8C1214C275CEBE
:105C4D00A575CF5A75CEA575CF5A12131875CEA559
:105C5D0075CF5A75CEA575CF5A7F040222C7C08263
:105C6D00C08312110ED083D082020093C082C083F4
:105C7D0012139C1212C41214201210C61211EC121F
:105C8D001012900A18E04407F0D083D082020093DE
:105C9D0074F012225B74F91221EBE98531828532A1
:105CAD0083F0E0C394154003025D85E0F521752274
:105CBD0000740278211221D8741C2521F8742F3517
:105CCD0022F97401122237E8F0A3E9F074011222CF
:105CDD0037E0F8A3E0F9E8FAE9FB7403122237E4A0
:105CED00F0A3F0A3F0A3F08A828B8393FEA3E49339
:105CFD00C0E0740193F583D082858221858322E4EF
:105D0D00F523F5247403122241882589267825125E
:105D1D002311EEF9AA21AB22AC23AD24120EB074DF
:105D2D0002122201902E12782512209F7403122246
:105D3D00377825121FDA74031222418825892678B7
:105D4D0025122311EEF9AA21AB22AC23AD24120E9C
:105D5D00AA74021222017401122237E0F8A3E0F5B1
:105D6D00838882A3A3A3E493FE74FF6E600AEEF909
:105D7D00121426EEF912143274071222017F080252
:105D8D0022C774F012225B74FB1221EBE9C0E074A0
:105D9D0002122237D0E0F07403122237ECF0A3ED9B
:105DAD00F0EAC394154003025F1385318285328377
:105DBD00E4F0A3F0EA75F007A4F8A9F0748928FEC1
:105DCD00742E39FF8E828F83A3A3A3E493F52174E0
:105DDD000193F522E4F523F52474F12AF527C394F4
:105DED0004A831A93288258926782550121223114D
:105DFD007902AA21AB22AC23AD24120EB0800E1273
:105E0D002311AA21AB22AC23AD24120EB6740212BB
:105E1D0022017402122237E0603A85318285328385
:105E2D00E0F8A3E0F9E849701C8E828F83A3E49318
:105E3D0024FFF8A3E49334FFF9853182853283E89A
:105E4D00F0A3E9800E853182853283E024FFF0A333
:105E5D00E034FFF0853182853283E0F8A3E0F98EDE
:105E6D00828F83A3E493FA740193FB122160853131
:105E7D0082853283EAF0A3EBF08E828F83E493F96F
:105E8D0074031222371223288E828F83A3A3A3A318
:105E9D00A3C082C0837402122237E0FAA3E0FBEAAA
:105EAD0089F0A4FAA8F089F0EBA428FBD083D08266
:105EBD00E4932AF521A3E4933BAA21FBE4FCFD1214
:105ECD000EAA74021222017402122237E060378E7C
:105EDD00828F83A3A3A3E493F8740193F988218996
:105EED0022E527C3940478255007122311790280E7
:105EFD00051223117901AA21AB22AC23AD24120E78
:105F0D00AA740212220174051222017F080222C70F
:105F1D0074F012225B74FC1221EBEAC0E0740312E0
:105F2D002237D0E0F0EBC0E07402122237D0E0F05F
:105F3D00E9FEECFFEEC39415400302604D853182FE
:105F4D00853283E4F0A3F0EE75F007A4F8A9F074A0
:105F5D008928F527742E39F528852782F583A3A383
:105F6D00A3E493F8740193F98821892275230075B0
:105F7D00240074F12EC39404A831A93288258926F2
:105F8D00782550071223117902800512231179010A
:105F9D00AA21AB22AC23AD24120EB0740212220141
:105FAD007403122237E0F8853182853283E028F0C0
:105FBD00A3E03400F0853182853283E0F8A3E0F967
:105FCD00852782852883A3E493FA740193FB12211C
:105FDD0060853182853283EAF0A3EBF074141222CE
:105FED0037122328EFF9852782852883A3A3A3A33E
:105FFD00A3C082C0837402122237E0FAA3E0FB85AE
:10600D002782852883E493F521EA8521F0A4FAA857
:10601D00F08521F0EBA428FBD083D082E4932AFAFB
:10602D00A3E4933BFB7404122237E0FCEA2CF52128
:10603D00E43BAA21FBE4FCFD120EB0740212220116
:10604D0074041222017F080222C7C082C083900A05
:10605D001DE054FDF0D083D08202009374F0122223
:10606D005B75CEA575CF5A75CEA575CF5A752160C6
:10607D0075220678211223117906902FC5782112E9
:10608D00209FAA21AB22AC23AD24120EB0740212B4
:10609D00220179067CF27D097A667B06120E8675E1
