:10010C001200097F6A12006D75CEA575CF5A7F0457
:10011C001200CA75CEA575CF5A7FF47E0112016606
:10012C007FF47E011201667FF47E0112016675CEAA
:06013C00A575CF5A80D822
:100009009028A9E4F09028A874FFF09028ADE4F0B6
:100019009028AC74FFF09028B1E4F09028B074FFF8
:10002900F09028B5E4F09028B474FFF09028B9E472
:10003900F09028B874FFF09028BDE4F09028BC74C3
:10004900FFF09028C1E4F09028C074FFF09028D602
:10005900E4F09028D574FFF09028DAE4F09028D9DC
:0400690074FFF0220E
:1000CA00900000EFF0900000E0FF14F0EF60329033
:1000DA0028ACE054EFF0A3E054EFF0A3E04410F0B2
:1000EA007F037E001201429028ACE054EFF0A3E0B7
:1000FA0054EFF0A3E054EFF07F037E001201428038
:01010A00C430
:01010B0022D1
:10014200E4FDFCC3ED9FEC9E5019E4FBE4FA0000D1
:1001520000000AEAB452F70BEBB463F00DBD0001E4
:030162000C80E02E
:010165002277
:10016600EF1FAA0670011E4A600EE4FDEDC3943926
:0801760050EE0000000D80F4C2
:01017E00225E
:0100080001F6
:01040000FFFC
:0300000002018E6C
:06018E0075810702010C5F
:0F017F0090285CF090285EF0902860F0A3F022AA
:10006D00E4FEEF30E6010EC2D5902867E06F601E0A
:10007D00C2802080FD9028677420F0E4FD0DEDB462
:10008D000AFB902867EFF0E4FD0DEDB405FBEE24BF
:10009D00FF9280EF540C700D90286274E2F0741A88
:1000AD0012017F8008E412017FA37462F0208005A5
:0C00BD00902864E4F0902865E0548FF077
:0100C9002214
:00000001FF
